{
  "_format": "hh-sol-artifact-1",
  "contractName": "AltanBankLedger",
  "sourceName": "contracts/AltanBankLedger.sol",
  "abi": [
    {
      "inputs": [
        {
          "internalType": "address",
          "name": "cb",
          "type": "address"
        },
        {
          "internalType": "address",
          "name": "reg",
          "type": "address"
        }
      ],
      "stateMutability": "nonpayable",
      "type": "constructor"
    },
    {
      "anonymous": false,
      "inputs": [
        {
          "indexed": true,
          "internalType": "bytes32",
          "name": "accountId",
          "type": "bytes32"
        },
        {
          "indexed": true,
          "internalType": "address",
          "name": "asset",
          "type": "address"
        },
        {
          "indexed": false,
          "internalType": "uint256",
          "name": "amount",
          "type": "uint256"
        },
        {
          "indexed": false,
          "internalType": "bytes32",
          "name": "memo",
          "type": "bytes32"
        }
      ],
      "name": "AccountCredited",
      "type": "event"
    },
    {
      "anonymous": false,
      "inputs": [
        {
          "indexed": true,
          "internalType": "bytes32",
          "name": "accountId",
          "type": "bytes32"
        },
        {
          "indexed": true,
          "internalType": "address",
          "name": "asset",
          "type": "address"
        },
        {
          "indexed": false,
          "internalType": "uint256",
          "name": "amount",
          "type": "uint256"
        },
        {
          "indexed": false,
          "internalType": "bytes32",
          "name": "memo",
          "type": "bytes32"
        }
      ],
      "name": "AccountDebited",
      "type": "event"
    },
    {
      "anonymous": false,
      "inputs": [
        {
          "indexed": true,
          "internalType": "address",
          "name": "cb",
          "type": "address"
        }
      ],
      "name": "CentralBankSet",
      "type": "event"
    },
    {
      "anonymous": false,
      "inputs": [
        {
          "indexed": true,
          "internalType": "address",
          "name": "reg",
          "type": "address"
        }
      ],
      "name": "LicenseRegistrySet",
      "type": "event"
    },
    {
      "anonymous": false,
      "inputs": [
        {
          "indexed": true,
          "internalType": "bytes32",
          "name": "fromId",
          "type": "bytes32"
        },
        {
          "indexed": true,
          "internalType": "bytes32",
          "name": "toId",
          "type": "bytes32"
        },
        {
          "indexed": true,
          "internalType": "address",
          "name": "asset",
          "type": "address"
        },
        {
          "indexed": false,
          "internalType": "uint256",
          "name": "amount",
          "type": "uint256"
        },
        {
          "indexed": false,
          "internalType": "bytes32",
          "name": "memo",
          "type": "bytes32"
        }
      ],
      "name": "Transfer",
      "type": "event"
    },
    {
      "inputs": [
        {
          "internalType": "bytes32",
          "name": "",
          "type": "bytes32"
        },
        {
          "internalType": "address",
          "name": "",
          "type": "address"
        }
      ],
      "name": "balanceOf",
      "outputs": [
        {
          "internalType": "uint256",
          "name": "",
          "type": "uint256"
        }
      ],
      "stateMutability": "view",
      "type": "function"
    },
    {
      "inputs": [
        {
          "internalType": "bytes32",
          "name": "accountId",
          "type": "bytes32"
        },
        {
          "internalType": "address",
          "name": "asset",
          "type": "address"
        },
        {
          "internalType": "uint256",
          "name": "amount",
          "type": "uint256"
        },
        {
          "internalType": "bytes32",
          "name": "memo",
          "type": "bytes32"
        }
      ],
      "name": "burn",
      "outputs": [],
      "stateMutability": "nonpayable",
      "type": "function"
    },
    {
      "inputs": [],
      "name": "centralBank",
      "outputs": [
        {
          "internalType": "address",
          "name": "",
          "type": "address"
        }
      ],
      "stateMutability": "view",
      "type": "function"
    },
    {
      "inputs": [],
      "name": "licenseRegistry",
      "outputs": [
        {
          "internalType": "contract IBankLicenseRegistryView",
          "name": "",
          "type": "address"
        }
      ],
      "stateMutability": "view",
      "type": "function"
    },
    {
      "inputs": [
        {
          "internalType": "bytes32",
          "name": "accountId",
          "type": "bytes32"
        },
        {
          "internalType": "address",
          "name": "asset",
          "type": "address"
        },
        {
          "internalType": "uint256",
          "name": "amount",
          "type": "uint256"
        },
        {
          "internalType": "bytes32",
          "name": "memo",
          "type": "bytes32"
        }
      ],
      "name": "mint",
      "outputs": [],
      "stateMutability": "nonpayable",
      "type": "function"
    },
    {
      "inputs": [
        {
          "internalType": "address",
          "name": "cb",
          "type": "address"
        }
      ],
      "name": "setCentralBank",
      "outputs": [],
      "stateMutability": "nonpayable",
      "type": "function"
    },
    {
      "inputs": [
        {
          "internalType": "address",
          "name": "reg",
          "type": "address"
        }
      ],
      "name": "setLicenseRegistry",
      "outputs": [],
      "stateMutability": "nonpayable",
      "type": "function"
    },
    {
      "inputs": [
        {
          "internalType": "bytes32",
          "name": "fromId",
          "type": "bytes32"
        },
        {
          "internalType": "bytes32",
          "name": "toId",
          "type": "bytes32"
        },
        {
          "internalType": "address",
          "name": "asset",
          "type": "address"
        },
        {
          "internalType": "uint256",
          "name": "amount",
          "type": "uint256"
        },
        {
          "internalType": "bytes32",
          "name": "memo",
          "type": "bytes32"
        }
      ],
      "name": "transferBetweenAccounts",
      "outputs": [],
      "stateMutability": "nonpayable",
      "type": "function"
    }
  ],
  "bytecode": "0x60803461010b57601f61078a38819003918201601f19168301916001600160401b0383118484101761011057808492604094855283398101031261010b57610052602061004b83610126565b9201610126565b6001600160a01b03918216919082156100dc577f9e753ba61f3347ccf390ab8eeb39ba7d6133775597c86f1b507cecfae0271d269060018060a01b03199260009185858454161783551680936001541617600155604051937fbcf54ac55c42b0bfb8e38409501a5c8ea0e9927b7038dd044fb1956e14f3a26c8280a280a261064f908161013b8239f35b60405162461bcd60e51b81526020600482015260076024820152662d22a927afa1a160c91b6044820152606490fd5b600080fd5b634e487b7160e01b600052604160045260246000fd5b51906001600160a01b038216820361010b5756fe60806040908082526004918236101561001757600080fd5b600092833560e01c9283632240a9ad1461032b575082635b0915df146102aa5782639a4a0fb214610282578263b5ce02ae1461020d578263c2038236146101be57508163c2fda48714610195578163e72517b1146100f9575063fd89e2231461007f57600080fd5b346100f65760203660031901126100f6576100986104fb565b81546001600160a01b0391906100b190831633146105a2565b166100bd8115156105e1565b600180546001600160a01b031916821790557f9e753ba61f3347ccf390ab8eeb39ba7d6133775597c86f1b507cecfae0271d268280a280f35b80fd5b905034610191577f1d40bf9a212b6c52c84a1ad474e5d654341d65b7fb103ba70a6ef468d05135de9061012b36610516565b865492959394926001600160a01b039061014890821633146105a2565b8588526002602052838820961695868852602052818388205461016d82821015610544565b8689526002602052848920888a52602052038388205582519182526020820152a380f35b5080fd5b90503461019157816003193601126101915760015490516001600160a01b039091168152602090f35b909150346102095781600319360112610209576024356001600160a01b03811691908290036102055792829160209435825260028552828220908252845220549051908152f35b8380fd5b8280fd5b83346100f65760203660031901126100f6576102276104fb565b8154906001600160a01b039061024033838516146105a2565b16809161024e8215156105e1565b6001600160a01b0319161782557fbcf54ac55c42b0bfb8e38409501a5c8ea0e9927b7038dd044fb1956e14f3a26c8280a280f35b838234610191578160031936011261019157905490516001600160a01b039091168152602090f35b838234610191577f4ac19c176659cd50bee0a6326f0f07f170e3fc9202eb4cec9e5555b71daede98906102dc36610516565b865492959394926001600160a01b03906102f990821633146105a2565b858852600260205283882096169586885260205282872061031b83825461057f565b905582519182526020820152a380f35b925090346102055760a0366003190112610205576044356001600160a01b038181169460243594803594938790036104f75760643592600154169182156104c9575083518092632950b0a960e21b8252338383015281602460209586935afa9081156104bf57899161045b575b50156104265750907f124eeb9b70369942e069fe5b84397bc1fb0671a4c51db655d6deb6739a14b004929184885260028152828820878952815281838920546103e382821015610544565b868a5260028352848a20898b528352038389205585885260028152828820878952815282882061041483825461057f565b9055825191825260843590820152a480f35b60649184519162461bcd60e51b835282015260116024820152704e4f545f4c4943454e5345445f42414e4b60781b6044820152fd5b9050823d84116104b8575b601f8101601f1916820167ffffffffffffffff8111838210176104a557849183918852810103126104a1575180151581036104a15738610398565b8880fd5b634e487b7160e01b8b526041845260248bfd5b503d610466565b85513d8b823e3d90fd5b602060649262461bcd60e51b8352820152600b60248201526a149151d7d393d517d4d15560aa1b6044820152fd5b8780fd5b600435906001600160a01b038216820361051157565b600080fd5b608090600319011261051157600435906024356001600160a01b038116810361051157906044359060643590565b1561054b57565b60405162461bcd60e51b815260206004820152600c60248201526b125394d551919250d251539560a21b6044820152606490fd5b9190820180921161058c57565b634e487b7160e01b600052601160045260246000fd5b156105a957565b60405162461bcd60e51b815260206004820152601060248201526f4e4f545f43454e5452414c5f42414e4b60801b6044820152606490fd5b156105e857565b60405162461bcd60e51b81526020600482015260096024820152682d22a927afa0a2222960b91b6044820152606490fdfea26469706673582212205a21839884ab606c2c008801039db0b7e799eb9243c7590f92723f8a29924e2964736f6c63430008180033",
  "linkReferences": {},
  "deployedLinkReferences": {}
}