{
  "_format": "hh-sol-artifact-1",
  "contractName": "ArbanLeaderAppointment",
  "sourceName": "contracts/ArbanLeaderAppointment.sol",
  "abi": [
    {
      "inputs": [
        {
          "internalType": "address",
          "name": "arbanRegistry_",
          "type": "address"
        },
        {
          "internalType": "address",
          "name": "citizenRegistry_",
          "type": "address"
        },
        {
          "internalType": "uint256",
          "name": "arbanId_",
          "type": "uint256"
        },
        {
          "internalType": "address",
          "name": "newLeaderCitizenAccount_",
          "type": "address"
        },
        {
          "internalType": "uint256",
          "name": "minSignatures_",
          "type": "uint256"
        },
        {
          "internalType": "bytes32",
          "name": "docHash_",
          "type": "bytes32"
        }
      ],
      "stateMutability": "nonpayable",
      "type": "constructor"
    },
    {
      "inputs": [],
      "name": "AlreadyFinalized",
      "type": "error"
    },
    {
      "inputs": [
        {
          "internalType": "uint256",
          "name": "seatId",
          "type": "uint256"
        }
      ],
      "name": "AlreadySigned",
      "type": "error"
    },
    {
      "inputs": [],
      "name": "InvalidSeat",
      "type": "error"
    },
    {
      "inputs": [
        {
          "internalType": "uint256",
          "name": "seatId",
          "type": "uint256"
        },
        {
          "internalType": "address",
          "name": "expected",
          "type": "address"
        },
        {
          "internalType": "address",
          "name": "got",
          "type": "address"
        }
      ],
      "name": "NotCitizenAccountForSeat",
      "type": "error"
    },
    {
      "inputs": [
        {
          "internalType": "uint256",
          "name": "have",
          "type": "uint256"
        },
        {
          "internalType": "uint256",
          "name": "need",
          "type": "uint256"
        }
      ],
      "name": "NotEnoughSignatures",
      "type": "error"
    },
    {
      "inputs": [
        {
          "internalType": "uint256",
          "name": "seatId",
          "type": "uint256"
        }
      ],
      "name": "SeatNotAllowed",
      "type": "error"
    },
    {
      "inputs": [],
      "name": "ZeroAddress",
      "type": "error"
    },
    {
      "anonymous": false,
      "inputs": [
        {
          "indexed": true,
          "internalType": "uint256",
          "name": "arbanId",
          "type": "uint256"
        },
        {
          "indexed": true,
          "internalType": "address",
          "name": "newLeader",
          "type": "address"
        }
      ],
      "name": "Finalized",
      "type": "event"
    },
    {
      "anonymous": false,
      "inputs": [
        {
          "indexed": true,
          "internalType": "uint256",
          "name": "seatId",
          "type": "uint256"
        },
        {
          "indexed": true,
          "internalType": "address",
          "name": "citizenAccount",
          "type": "address"
        }
      ],
      "name": "Signed",
      "type": "event"
    },
    {
      "inputs": [],
      "name": "arbanId",
      "outputs": [
        {
          "internalType": "uint256",
          "name": "",
          "type": "uint256"
        }
      ],
      "stateMutability": "view",
      "type": "function"
    },
    {
      "inputs": [],
      "name": "arbanRegistry",
      "outputs": [
        {
          "internalType": "address",
          "name": "",
          "type": "address"
        }
      ],
      "stateMutability": "view",
      "type": "function"
    },
    {
      "inputs": [],
      "name": "citizenRegistry",
      "outputs": [
        {
          "internalType": "address",
          "name": "",
          "type": "address"
        }
      ],
      "stateMutability": "view",
      "type": "function"
    },
    {
      "inputs": [],
      "name": "docHash",
      "outputs": [
        {
          "internalType": "bytes32",
          "name": "",
          "type": "bytes32"
        }
      ],
      "stateMutability": "view",
      "type": "function"
    },
    {
      "inputs": [],
      "name": "finalize",
      "outputs": [],
      "stateMutability": "nonpayable",
      "type": "function"
    },
    {
      "inputs": [],
      "name": "finalized",
      "outputs": [
        {
          "internalType": "bool",
          "name": "",
          "type": "bool"
        }
      ],
      "stateMutability": "view",
      "type": "function"
    },
    {
      "inputs": [
        {
          "internalType": "uint256",
          "name": "seatId",
          "type": "uint256"
        }
      ],
      "name": "isSeatAllowed",
      "outputs": [
        {
          "internalType": "bool",
          "name": "",
          "type": "bool"
        }
      ],
      "stateMutability": "view",
      "type": "function"
    },
    {
      "inputs": [],
      "name": "minSignatures",
      "outputs": [
        {
          "internalType": "uint256",
          "name": "",
          "type": "uint256"
        }
      ],
      "stateMutability": "view",
      "type": "function"
    },
    {
      "inputs": [],
      "name": "newLeader",
      "outputs": [
        {
          "internalType": "address",
          "name": "",
          "type": "address"
        }
      ],
      "stateMutability": "view",
      "type": "function"
    },
    {
      "inputs": [],
      "name": "seatIds",
      "outputs": [
        {
          "internalType": "uint256[]",
          "name": "",
          "type": "uint256[]"
        }
      ],
      "stateMutability": "view",
      "type": "function"
    },
    {
      "inputs": [
        {
          "internalType": "uint256",
          "name": "seatId",
          "type": "uint256"
        }
      ],
      "name": "sign",
      "outputs": [],
      "stateMutability": "nonpayable",
      "type": "function"
    },
    {
      "inputs": [],
      "name": "signedCount",
      "outputs": [
        {
          "internalType": "uint256",
          "name": "",
          "type": "uint256"
        }
      ],
      "stateMutability": "view",
      "type": "function"
    },
    {
      "inputs": [
        {
          "internalType": "uint256",
          "name": "",
          "type": "uint256"
        }
      ],
      "name": "signedSeat",
      "outputs": [
        {
          "internalType": "bool",
          "name": "",
          "type": "bool"
        }
      ],
      "stateMutability": "view",
      "type": "function"
    }
  ],
  "bytecode": "0x61014060409080825234620003955760c08162000ba780380380916200002682856200039a565b83398101031262000395576200003c81620003d4565b9160206200004c818401620003d4565b9082840151936200006060608201620003d4565b60a060808301519201519360018060a01b039788811698891580156200038a575b620003795783161562000368578715620003575760805260a0528560c05260e0526101009283526101209481865284519363c477ecab60e01b8552600491828601526000928386602481819c5afa9586156200034d57849662000291575b5085516002811090811562000285575b5062000275576002811090811562000269575b506200025a57825b8551811015620001f457620001208187620003e9565b518015620001e4576001808301808411620001d257815b62000195575b508554906801000000000000000082101562000183578101808755811015620001715785805286862001556001016200010a565b634e487b7160e01b8652603285528a86fd5b634e487b7160e01b8752604186528b87fd5b8851811015620001cc57620001ab818a620003e9565b518314620001bc5781018162000137565b89516367ee0b4d60e11b81528690fd5b6200013d565b634e487b7160e01b8752601186528b87fd5b87516367ee0b4d60e11b81528490fd5b5086865190610792928362000415843960805183818160c701526101d6015260a05183818161041801526104b1015260c05183818161020301526106ac015260e051838181610131015261024a015251826103e00152518181816101a101526106450152f35b5084516367ee0b4d60e11b8152fd5b90508551103862000102565b86516367ee0b4d60e11b81528390fd5b600a91501138620000ef565b9095503d8085833e620002a581836200039a565b81018582820312620003495781516001600160401b03928382116200032e570181601f820112156200034557805192831162000332578260051b90895193620002f1898401866200039a565b845287808501928201019283116200032e5787809101915b8383106200031d57505050509438620000df565b825181529181019188910162000309565b8680fd5b634e487b7160e01b865260418552602486fd5b8580fd5b8480fd5b87513d86823e3d90fd5b86516367ee0b4d60e11b8152600490fd5b865163d92e233d60e01b8152600490fd5b875163d92e233d60e01b8152600490fd5b508083161562000081565b600080fd5b601f909101601f19168101906001600160401b03821190821017620003be57604052565b634e487b7160e01b600052604160045260246000fd5b51906001600160a01b03821682036200039557565b8051821015620003fe5760209160051b010190565b634e487b7160e01b600052603260045260246000fdfe608060408181526004918236101561001657600080fd5b600092833560e01c91826306c8171914610695575081630f5f2db814610668578163238acaa21461062d5781632641e007146106045781632fb1b25f14610447578163386ca89d146104035781633d6df0d5146103c85781633d8a025c146103145781634bb278f31461017e575080635f3d8f4a14610160578063a24ed8aa1461011d578063b3f05b97146100fa5763df5d55a6146100b457600080fd5b346100f657816003193601126100f657517f00000000000000000000000000000000000000000000000000000000000000006001600160a01b03168152602090f35b5080fd5b50346100f657816003193601126100f65760209060ff6003541690519015158152f35b50346100f657816003193601126100f657517f00000000000000000000000000000000000000000000000000000000000000006001600160a01b03168152602090f35b50346100f657816003193601126100f6576020906002549051908152f35b9190503461031057826003193601126103105760035460ff8116610302576002547f0000000000000000000000000000000000000000000000000000000000000000908181106102e657505060ff19166001176003557f00000000000000000000000000000000000000000000000000000000000000006001600160a01b03908116927f0000000000000000000000000000000000000000000000000000000000000000928592909190853b156102e2578390604484518096819363577d5f2b60e01b835289878401527f000000000000000000000000000000000000000000000000000000000000000016998a60248401525af180156102d8576102a8575b5050507f7b1990f6546bb8c366883c6dbadda7cbb52114d60570d3f7ab226e6a59f35bf28380a380f35b67ffffffffffffffff83969496116102c55750529138808061027e565b634e487b7160e01b845260419052602483fd5b82513d88823e3d90fd5b8380fd5b8492506044935192633ce0c9e960e11b84528301526024820152fd5b505163475a253560e01b8152fd5b8280fd5b8284346103c557806003193601126103c557908051918290805491828552602080950180938380527f290decd9548b62a8d60345a988386fc84ba6bc95484008f6362f93160ef3e56390845b8181106103b15750505081610376910382610724565b83519485948186019282875251809352850193925b82811061039a57505050500390f35b83518552869550938101939281019260010161038b565b825484529288019260019283019201610360565b80fd5b5050346100f657816003193601126100f657602090517f00000000000000000000000000000000000000000000000000000000000000008152f35b5050346100f657816003193601126100f657517f00000000000000000000000000000000000000000000000000000000000000006001600160a01b03168152602090f35b90503461031057602091826003193601126102e25781359260ff600354166103025783156105f657610478846106cf565b156105e0578385526001815260ff82862054166105ca57815163aa9b77db60e01b81528381018590526001600160a01b039082816024817f000000000000000000000000000000000000000000000000000000000000000086165afa9081156105c0578791610586575b50168015610577578033036105555750600190848652528320600160ff198254161790556002549060018201809211610542575060025533907f80bc357386c693c2d6ad5938af6765eacd7d7790c17e39c014ab30def63941658380a380f35b634e487b7160e01b845260119052602483fd5b916064949150519263a705575160e01b84528301526024820152336044820152fd5b50505163d92e233d60e01b8152fd5b90508281813d83116105b9575b61059d8183610724565b810103126105b5575181811681036105b557386104e2565b8680fd5b503d610593565b84513d89823e3d90fd5b50916024925191636697534160e01b8352820152fd5b509160249251916379d98c7560e11b8352820152fd5b50516367ee0b4d60e11b8152fd5b8284346103c55760203660031901126103c55750610624602092356106cf565b90519015158152f35b5050346100f657816003193601126100f657602090517f00000000000000000000000000000000000000000000000000000000000000008152f35b905034610310576020366003190112610310578160209360ff923581526001855220541690519015158152f35b8490346100f657816003193601126100f6576020907f00000000000000000000000000000000000000000000000000000000000000008152f35b600090600054915b8281106106e657505050600090565b6000805281817f290decd9548b62a8d60345a988386fc84ba6bc95484008f6362f93160ef3e56301541461071c576001016106d7565b505050600190565b90601f8019910116810190811067ffffffffffffffff82111761074657604052565b634e487b7160e01b600052604160045260246000fdfea26469706673582212208af53e30bdecb2cdc721ce412edf7a1190bec862ed1035f1116c62054dfafd4064736f6c63430008180033",
  "linkReferences": {},
  "deployedLinkReferences": {}
}