{
  "_format": "hh-sol-artifact-1",
  "contractName": "ActivationRegistry",
  "sourceName": "contracts/ActivationRegistry.sol",
  "abi": [
    {
      "inputs": [
        {
          "internalType": "address",
          "name": "seatSbt",
          "type": "address"
        },
        {
          "internalType": "address",
          "name": "supremeCourt",
          "type": "address"
        },
        {
          "internalType": "address",
          "name": "constitutionAcceptance",
          "type": "address"
        }
      ],
      "stateMutability": "nonpayable",
      "type": "constructor"
    },
    {
      "anonymous": false,
      "inputs": [
        {
          "indexed": true,
          "internalType": "address",
          "name": "acceptanceRegistry",
          "type": "address"
        }
      ],
      "name": "AcceptanceRegistrySet",
      "type": "event"
    },
    {
      "anonymous": false,
      "inputs": [
        {
          "indexed": true,
          "internalType": "uint256",
          "name": "seatId",
          "type": "uint256"
        }
      ],
      "name": "Activated",
      "type": "event"
    },
    {
      "anonymous": false,
      "inputs": [
        {
          "indexed": true,
          "internalType": "uint256",
          "name": "seatId",
          "type": "uint256"
        },
        {
          "indexed": true,
          "internalType": "address",
          "name": "validator",
          "type": "address"
        },
        {
          "indexed": false,
          "internalType": "uint8",
          "name": "approvals",
          "type": "uint8"
        }
      ],
      "name": "ActivationApproved",
      "type": "event"
    },
    {
      "anonymous": false,
      "inputs": [
        {
          "indexed": true,
          "internalType": "uint256",
          "name": "seatId",
          "type": "uint256"
        },
        {
          "indexed": true,
          "internalType": "address",
          "name": "requester",
          "type": "address"
        }
      ],
      "name": "ActivationRequested",
      "type": "event"
    },
    {
      "anonymous": false,
      "inputs": [
        {
          "indexed": true,
          "internalType": "address",
          "name": "oldOwner",
          "type": "address"
        },
        {
          "indexed": true,
          "internalType": "address",
          "name": "newOwner",
          "type": "address"
        }
      ],
      "name": "OwnerChanged",
      "type": "event"
    },
    {
      "anonymous": false,
      "inputs": [
        {
          "indexed": true,
          "internalType": "address",
          "name": "seatSbt",
          "type": "address"
        }
      ],
      "name": "SeatSBTSet",
      "type": "event"
    },
    {
      "anonymous": false,
      "inputs": [
        {
          "indexed": true,
          "internalType": "uint256",
          "name": "seatId",
          "type": "uint256"
        },
        {
          "indexed": false,
          "internalType": "enum ActivationRegistry.Status",
          "name": "status",
          "type": "uint8"
        }
      ],
      "name": "StatusSet",
      "type": "event"
    },
    {
      "anonymous": false,
      "inputs": [
        {
          "indexed": true,
          "internalType": "address",
          "name": "supremeCourt",
          "type": "address"
        }
      ],
      "name": "SupremeCourtSet",
      "type": "event"
    },
    {
      "anonymous": false,
      "inputs": [
        {
          "indexed": false,
          "internalType": "uint8",
          "name": "k",
          "type": "uint8"
        }
      ],
      "name": "ThresholdSet",
      "type": "event"
    },
    {
      "anonymous": false,
      "inputs": [
        {
          "indexed": true,
          "internalType": "address",
          "name": "validator",
          "type": "address"
        },
        {
          "indexed": false,
          "internalType": "bool",
          "name": "ok",
          "type": "bool"
        }
      ],
      "name": "ValidatorSet",
      "type": "event"
    },
    {
      "inputs": [],
      "name": "acceptance",
      "outputs": [
        {
          "internalType": "contract IConstitutionAcceptanceRegistry",
          "name": "",
          "type": "address"
        }
      ],
      "stateMutability": "view",
      "type": "function"
    },
    {
      "inputs": [
        {
          "internalType": "uint256",
          "name": "",
          "type": "uint256"
        }
      ],
      "name": "approvalsCount",
      "outputs": [
        {
          "internalType": "uint8",
          "name": "",
          "type": "uint8"
        }
      ],
      "stateMutability": "view",
      "type": "function"
    },
    {
      "inputs": [
        {
          "internalType": "uint256",
          "name": "seatId",
          "type": "uint256"
        }
      ],
      "name": "approveActivation",
      "outputs": [],
      "stateMutability": "nonpayable",
      "type": "function"
    },
    {
      "inputs": [
        {
          "internalType": "uint256",
          "name": "",
          "type": "uint256"
        },
        {
          "internalType": "address",
          "name": "",
          "type": "address"
        }
      ],
      "name": "approvedBy",
      "outputs": [
        {
          "internalType": "bool",
          "name": "",
          "type": "bool"
        }
      ],
      "stateMutability": "view",
      "type": "function"
    },
    {
      "inputs": [],
      "name": "court",
      "outputs": [
        {
          "internalType": "contract ISupremeCourt",
          "name": "",
          "type": "address"
        }
      ],
      "stateMutability": "view",
      "type": "function"
    },
    {
      "inputs": [
        {
          "internalType": "uint256",
          "name": "seatId",
          "type": "uint256"
        }
      ],
      "name": "isActive",
      "outputs": [
        {
          "internalType": "bool",
          "name": "",
          "type": "bool"
        }
      ],
      "stateMutability": "view",
      "type": "function"
    },
    {
      "inputs": [
        {
          "internalType": "address",
          "name": "",
          "type": "address"
        }
      ],
      "name": "isValidator",
      "outputs": [
        {
          "internalType": "bool",
          "name": "",
          "type": "bool"
        }
      ],
      "stateMutability": "view",
      "type": "function"
    },
    {
      "inputs": [],
      "name": "owner",
      "outputs": [
        {
          "internalType": "address",
          "name": "",
          "type": "address"
        }
      ],
      "stateMutability": "view",
      "type": "function"
    },
    {
      "inputs": [
        {
          "internalType": "uint256",
          "name": "seatId",
          "type": "uint256"
        }
      ],
      "name": "requestActivation",
      "outputs": [],
      "stateMutability": "nonpayable",
      "type": "function"
    },
    {
      "inputs": [
        {
          "internalType": "uint256",
          "name": "seatId",
          "type": "uint256"
        }
      ],
      "name": "resetApprovals",
      "outputs": [],
      "stateMutability": "nonpayable",
      "type": "function"
    },
    {
      "inputs": [],
      "name": "seat",
      "outputs": [
        {
          "internalType": "contract ISeatSBT",
          "name": "",
          "type": "address"
        }
      ],
      "stateMutability": "view",
      "type": "function"
    },
    {
      "inputs": [
        {
          "internalType": "address",
          "name": "constitutionAcceptance",
          "type": "address"
        }
      ],
      "name": "setAcceptanceRegistry",
      "outputs": [],
      "stateMutability": "nonpayable",
      "type": "function"
    },
    {
      "inputs": [
        {
          "internalType": "uint256",
          "name": "seatId",
          "type": "uint256"
        },
        {
          "internalType": "bool",
          "name": "banned",
          "type": "bool"
        }
      ],
      "name": "setLocalBanned",
      "outputs": [],
      "stateMutability": "nonpayable",
      "type": "function"
    },
    {
      "inputs": [
        {
          "internalType": "address",
          "name": "seatSbt",
          "type": "address"
        }
      ],
      "name": "setSeatSBT",
      "outputs": [],
      "stateMutability": "nonpayable",
      "type": "function"
    },
    {
      "inputs": [
        {
          "internalType": "address",
          "name": "supremeCourt",
          "type": "address"
        }
      ],
      "name": "setSupremeCourt",
      "outputs": [],
      "stateMutability": "nonpayable",
      "type": "function"
    },
    {
      "inputs": [
        {
          "internalType": "uint8",
          "name": "k",
          "type": "uint8"
        }
      ],
      "name": "setThreshold",
      "outputs": [],
      "stateMutability": "nonpayable",
      "type": "function"
    },
    {
      "inputs": [
        {
          "internalType": "address",
          "name": "v",
          "type": "address"
        },
        {
          "internalType": "bool",
          "name": "ok",
          "type": "bool"
        }
      ],
      "name": "setValidator",
      "outputs": [],
      "stateMutability": "nonpayable",
      "type": "function"
    },
    {
      "inputs": [
        {
          "internalType": "uint256",
          "name": "",
          "type": "uint256"
        }
      ],
      "name": "statusOf",
      "outputs": [
        {
          "internalType": "enum ActivationRegistry.Status",
          "name": "",
          "type": "uint8"
        }
      ],
      "stateMutability": "view",
      "type": "function"
    },
    {
      "inputs": [
        {
          "internalType": "uint256",
          "name": "seatId",
          "type": "uint256"
        }
      ],
      "name": "statusWithCourt",
      "outputs": [
        {
          "internalType": "enum ActivationRegistry.Status",
          "name": "status",
          "type": "uint8"
        },
        {
          "internalType": "bool",
          "name": "frozen",
          "type": "bool"
        },
        {
          "internalType": "bool",
          "name": "banned",
          "type": "bool"
        }
      ],
      "stateMutability": "view",
      "type": "function"
    },
    {
      "inputs": [],
      "name": "thresholdK",
      "outputs": [
        {
          "internalType": "uint8",
          "name": "",
          "type": "uint8"
        }
      ],
      "stateMutability": "view",
      "type": "function"
    },
    {
      "inputs": [
        {
          "internalType": "address",
          "name": "newOwner",
          "type": "address"
        }
      ],
      "name": "transferOwnership",
      "outputs": [],
      "stateMutability": "nonpayable",
      "type": "function"
    }
  ],
  "bytecode": "0x60803461013957601f61107e38819003918201601f19168301916001600160401b0383118484101761013e578084926060946040528339810103126101395761004781610154565b7fbfe19833cb9cab9b877ed6ab99e3d7f0696f290d375c8061f749b994d430b7d2610080604061007960208601610154565b9401610154565b60038054600080546001600160a01b0319908116331782556001805482166001600160a01b03988916908117909155600280549092169888169889179091556001600160a81b031990921693909516928317600360a01b1790915560405194919391907f88b647a8d032c0dbefb29fdee2921089e1522351c7e79ee97cf9d1756b0a35498380a27ff1a2c9a9b5d78f9e299a681ca01b9d840c85b836e7f3a9e100cdbc28f5d51b248280a280a2610f1590816101698239f35b600080fd5b634e487b7160e01b600052604160045260246000fd5b51906001600160a01b03821682036101395756fe6080604081815260048036101561001557600080fd5b600092833560e01c908162971a3014610c5a5750806308dd1738146109f45780630ce109a21461080f5780631d238411146107ea57806325af5356146107725780632681cb71146106fa5780634623c91d1461066b5780636d736689146106425780637291c0d91461058a5780637bba6c0e146104625780637bf6df911461043957806382afd23b1461041057806385667f1c146103c25780638da5cb5b1461039657806393f36aca1461035b5780639d8f9738146102e3578063abaf742a146102b9578063ad35efd414610288578063e5a98603146101c0578063f2fde38b146101485763facd743b1461010957600080fd5b346101445760203660031901126101445760209260ff918391906001600160a01b03610133610c7f565b168252855220541690519015158152f35b8280fd5b83346101bd5760203660031901126101bd57610162610c7f565b81546001600160a01b038082169261017b338514610d55565b168092610189821515610d8d565b7fb532073b38c83145e3e5135377a08bf9aab55bc0fd7c1179cd4fb995d2a5159c8580a36001600160a01b03191617815580f35b80fd5b50903461014457602036600319011261014457813560ff811692838203610284576101f560018060a01b038654163314610d55565b83151580610279575b1561024e57506003805460ff60a01b191660a09290921b60ff60a01b16919091179055519081527f19bdbd56c4c049b2d3a1186973e76905fb6843c0ede29b881e1e2a34e3bdbd9a90602090a180f35b606490602084519162461bcd60e51b835282015260056024820152644241445f4b60d81b6044820152fd5b5060328411156101fe565b8480fd5b50346101445760203660031901126101445760ff826020946102b7933581526005865220541691518092610ca9565bf35b5034610144576020366003190112610144578160209360ff92358152600685522054169051908152f35b83346101bd5760203660031901126101bd576102fd610c7f565b81546001600160a01b0391906103169083163314610d55565b16610322811515610d8d565b600180546001600160a01b031916821790557f88b647a8d032c0dbefb29fdee2921089e1522351c7e79ee97cf9d1756b0a35498280a280f35b50346101445760203660031901126101445761038160018060a01b038454163314610d55565b35825260066020528120805460ff1916905580f35b5050346103be57816003193601126103be57905490516001600160a01b039091168152602090f35b5080fd5b50346101445781600319360112610144576024356001600160a01b038116919082900361040c5760209360ff92849235825260078652828220908252855220541690519015158152f35b8380fd5b5091346101bd5760203660031901126101bd575061043060209235610dc5565b90519015158152f35b5050346103be57816003193601126103be5760015490516001600160a01b039091168152602090f35b509034610144576020918260031936011261040c578035928385526005815260ff83862054169360018060a01b036002541690811515938460001461058357855163074cfea560e41b81528181018390528481602481875afa90811561057957899161055c575b50945b15610550579060248492875194859384926341d2050760e01b84528301525afa9081156105465760609691610519575b50915b61050b84518096610ca9565b151590840152151590820152f35b6105399150823d841161053f575b6105318183610ccc565b810190610d04565b386104fc565b503d610527565b84513d88823e3d90fd5b505050606094916104ff565b6105739150853d871161053f576105318183610ccc565b386104c9565b87513d8b823e3d90fd5b87946104cc565b5090346101445780600319360112610144578135916105a7610c9a565b6105bb60018060a01b038654163314610d55565b1561063b5760035b838552600560205282852091808210156106285750916020917fa909728a788c844aea3b8a365bf540ccd759c996d6658adfb86fe9bc5efd901f9360ff801983541691161790558385526005825261062460ff828720541691518092610ca9565ba280f35b634e487b7160e01b865260219052602485fd5b60016105c3565b5050346103be57816003193601126103be5760035490516001600160a01b039091168152602090f35b50903461014457806003193601126101445760207f6b3b7d0d26ec99d080840dca1323c7147d1868adc66a4290afb8101d7908320d916106a9610c7f565b906106b2610c9a565b865490926001600160a01b03916106cc9083163314610d55565b16946106d9861515610d8d565b85875283528086209115159160ff1981541660ff841617905551908152a280f35b83346101bd5760203660031901126101bd57610714610c7f565b81546001600160a01b03919061072d9083163314610d55565b16610739811515610d8d565b600380546001600160a01b031916821790557fbfe19833cb9cab9b877ed6ab99e3d7f0696f290d375c8061f749b994d430b7d28280a280f35b83346101bd5760203660031901126101bd5761078c610c7f565b81546001600160a01b0391906107a59083163314610d55565b166107b1811515610d8d565b600280546001600160a01b031916821790557ff1a2c9a9b5d78f9e299a681ca01b9d840c85b836e7f3a9e100cdbc28f5d51b248280a280f35b5050346103be57816003193601126103be5760209060ff60035460a01c169051908152f35b509034610144576020918260031936011261040c5780359233855281815260ff91828487205416156109c35784865260058252828487205416818110156109b057600161085c9114610d1c565b84865260078252838620338752825282848720541661097c578486526007825283862033875282528386209260ff199360018582541617905585875260068352600181868920541601918183116109695750858752600683528085882092169182858254161790558451828152867fac29522fd73975c7ca3455b778f40cadcfb52a118d85cd586bb5df887c6fbdb4853393a360035460a01c161115610900578480f35b83927fa909728a788c844aea3b8a365bf540ccd759c996d6658adfb86fe9bc5efd901f92848752600583526002828820918254161790555160028152a27f3ec796be1be7d03bff3a62b9fa594a60e947c1809bced06d929f145308ae57ce8280a2388080808480f35b634e487b7160e01b885260119052602487fd5b60649184519162461bcd60e51b8352820152601060248201526f1053149150511657d054141493d5915160821b6044820152fd5b634e487b7160e01b875260218252602487fd5b60649184519162461bcd60e51b8352820152600d60248201526c2727aa2fab20a624a220aa27a960991b6044820152fd5b50346101445760208060031936011261040c57600354823593906001600160a01b039081168015610c225782516334da6b7f60e11b81523386820152602494929183908290879082905afa908115610bc7578891610c05575b5015610bd15780828592600154168551938480926331a9108f60e11b82528b8b8301525afa918215610bc7578892610b8b575b5033911603610b59578486526005815260ff828720541684811015610b475760ff929160059115610b05575b86885252852054169180831015610af45750506001610acb9114610d1c565b33907f94e1fdfc3140811b5683cd2853eb14d53333c12bfa2b190c0143a67aa82d5c5c8380a380f35b634e487b7160e01b85526021905283fd5b86885281815282882060018519825416179055867fa909728a788c844aea3b8a365bf540ccd759c996d6658adfb86fe9bc5efd901f82855160018152a2610aac565b634e487b7160e01b8752602185528387fd5b905162461bcd60e51b815292830152600e908201526d2727aa2fa9a2a0aa2fa7aba722a960911b604482015260649150fd5b9091508281813d8311610bc0575b610ba38183610ccc565b81010312610bbc57518181168103610bbc579038610a80565b8780fd5b503d610b99565b84513d8a823e3d90fd5b825162461bcd60e51b8152808601839052600f818601526e2727afa1a7a729aa24aa2aaa24a7a760891b6044820152606490fd5b610c1c9150833d851161053f576105318183610ccc565b38610a4d565b50505162461bcd60e51b81529182015260126024820152711050d0d15415105390d157d393d517d4d15560721b604482015260649150fd5b8490346103be57816003193601126103be576002546001600160a01b03168152602090f35b600435906001600160a01b0382168203610c9557565b600080fd5b602435908115158203610c9557565b906004821015610cb65752565b634e487b7160e01b600052602160045260246000fd5b90601f8019910116810190811067ffffffffffffffff821117610cee57604052565b634e487b7160e01b600052604160045260246000fd5b90816020910312610c9557518015158103610c955790565b15610d2357565b60405162461bcd60e51b815260206004820152600a6024820152691393d517d313d0d2d15160b21b6044820152606490fd5b15610d5c57565b60405162461bcd60e51b81526020600482015260096024820152682727aa2fa7aba722a960b91b6044820152606490fd5b15610d9457565b60405162461bcd60e51b81526020600482015260096024820152682d22a927afa0a2222960b91b6044820152606490fd5b6000908082526020906005825260ff6040842054166004811015610ecb57600203610ec6576002546001600160a01b03169081610e06575b50505050600190565b6040516341d2050760e01b8152600481018290528381602481865afa908115610ebb578591610e9e575b50610e9857829060246040518094819363074cfea560e41b835260048301525afa918215610e8d578392610e70575b5050610e6d57808080610dfd565b90565b610e869250803d1061053f576105318183610ccc565b3880610e5f565b6040513d85823e3d90fd5b50505090565b610eb59150843d861161053f576105318183610ccc565b38610e30565b6040513d87823e3d90fd5b505090565b634e487b7160e01b84526021600452602484fdfea2646970667358221220521355c03f260ba6dc2580ed608db81c93f964f0d53c43cb316524fbeb9607b164736f6c63430008180033",
  "linkReferences": {},
  "deployedLinkReferences": {}
}