{
  "_format": "hh-sol-artifact-1",
  "contractName": "CitizenRegistry",
  "sourceName": "contracts/CitizenRegistry.sol",
  "abi": [
    {
      "inputs": [
        {
          "internalType": "address",
          "name": "acceptanceRegistry_",
          "type": "address"
        }
      ],
      "stateMutability": "nonpayable",
      "type": "constructor"
    },
    {
      "inputs": [],
      "name": "AlreadyHasSeat",
      "type": "error"
    },
    {
      "inputs": [],
      "name": "NotAcceptedConstitution",
      "type": "error"
    },
    {
      "inputs": [],
      "name": "NotOwner",
      "type": "error"
    },
    {
      "inputs": [],
      "name": "SeatAlreadyExists",
      "type": "error"
    },
    {
      "inputs": [],
      "name": "ZeroAddress",
      "type": "error"
    },
    {
      "anonymous": false,
      "inputs": [
        {
          "indexed": true,
          "internalType": "address",
          "name": "activationRegistry",
          "type": "address"
        }
      ],
      "name": "ActivationRegistrySet",
      "type": "event"
    },
    {
      "anonymous": false,
      "inputs": [
        {
          "indexed": true,
          "internalType": "address",
          "name": "citizen",
          "type": "address"
        },
        {
          "indexed": true,
          "internalType": "uint256",
          "name": "seatId",
          "type": "uint256"
        },
        {
          "indexed": false,
          "internalType": "uint32",
          "name": "cohortArbanId",
          "type": "uint32"
        },
        {
          "indexed": false,
          "internalType": "bytes32",
          "name": "ethicsHash",
          "type": "bytes32"
        }
      ],
      "name": "CitizenMinted",
      "type": "event"
    },
    {
      "anonymous": false,
      "inputs": [
        {
          "indexed": true,
          "internalType": "uint256",
          "name": "seatId",
          "type": "uint256"
        },
        {
          "indexed": false,
          "internalType": "bool",
          "name": "ok",
          "type": "bool"
        }
      ],
      "name": "InitialLockHookCalled",
      "type": "event"
    },
    {
      "anonymous": false,
      "inputs": [
        {
          "indexed": true,
          "internalType": "address",
          "name": "oldOwner",
          "type": "address"
        },
        {
          "indexed": true,
          "internalType": "address",
          "name": "newOwner",
          "type": "address"
        }
      ],
      "name": "OwnerChanged",
      "type": "event"
    },
    {
      "anonymous": false,
      "inputs": [
        {
          "indexed": true,
          "internalType": "address",
          "name": "seatSbt",
          "type": "address"
        }
      ],
      "name": "SeatSBTSet",
      "type": "event"
    },
    {
      "inputs": [],
      "name": "acceptance",
      "outputs": [
        {
          "internalType": "contract IConstitutionAcceptanceRegistry",
          "name": "",
          "type": "address"
        }
      ],
      "stateMutability": "view",
      "type": "function"
    },
    {
      "inputs": [],
      "name": "activationRegistry",
      "outputs": [
        {
          "internalType": "address",
          "name": "",
          "type": "address"
        }
      ],
      "stateMutability": "view",
      "type": "function"
    },
    {
      "inputs": [
        {
          "internalType": "uint256",
          "name": "",
          "type": "uint256"
        }
      ],
      "name": "metaOf",
      "outputs": [
        {
          "internalType": "uint32",
          "name": "cohort_arban_id",
          "type": "uint32"
        },
        {
          "internalType": "uint16",
          "name": "civ",
          "type": "uint16"
        },
        {
          "internalType": "uint16",
          "name": "dom",
          "type": "uint16"
        },
        {
          "internalType": "uint16",
          "name": "exp",
          "type": "uint16"
        },
        {
          "internalType": "bytes32",
          "name": "ethics_hash",
          "type": "bytes32"
        },
        {
          "internalType": "bool",
          "name": "exists",
          "type": "bool"
        }
      ],
      "stateMutability": "view",
      "type": "function"
    },
    {
      "inputs": [],
      "name": "nextSeatId",
      "outputs": [
        {
          "internalType": "uint256",
          "name": "",
          "type": "uint256"
        }
      ],
      "stateMutability": "view",
      "type": "function"
    },
    {
      "inputs": [],
      "name": "owner",
      "outputs": [
        {
          "internalType": "address",
          "name": "",
          "type": "address"
        }
      ],
      "stateMutability": "view",
      "type": "function"
    },
    {
      "inputs": [
        {
          "internalType": "uint256",
          "name": "",
          "type": "uint256"
        }
      ],
      "name": "ownerOfSeat",
      "outputs": [
        {
          "internalType": "address",
          "name": "",
          "type": "address"
        }
      ],
      "stateMutability": "view",
      "type": "function"
    },
    {
      "inputs": [
        {
          "internalType": "address",
          "name": "citizen",
          "type": "address"
        },
        {
          "internalType": "uint32",
          "name": "cohortArbanId",
          "type": "uint32"
        },
        {
          "internalType": "uint16",
          "name": "civ",
          "type": "uint16"
        },
        {
          "internalType": "uint16",
          "name": "dom",
          "type": "uint16"
        },
        {
          "internalType": "uint16",
          "name": "exp",
          "type": "uint16"
        },
        {
          "internalType": "bytes32",
          "name": "ethicsHash",
          "type": "bytes32"
        },
        {
          "internalType": "bytes32",
          "name": "reasonDoc",
          "type": "bytes32"
        }
      ],
      "name": "registerByOwner",
      "outputs": [
        {
          "internalType": "uint256",
          "name": "seatId",
          "type": "uint256"
        }
      ],
      "stateMutability": "nonpayable",
      "type": "function"
    },
    {
      "inputs": [
        {
          "internalType": "uint32",
          "name": "cohortArbanId",
          "type": "uint32"
        },
        {
          "internalType": "uint16",
          "name": "civ",
          "type": "uint16"
        },
        {
          "internalType": "uint16",
          "name": "dom",
          "type": "uint16"
        },
        {
          "internalType": "uint16",
          "name": "exp",
          "type": "uint16"
        },
        {
          "internalType": "bytes32",
          "name": "ethicsHash",
          "type": "bytes32"
        },
        {
          "internalType": "bytes32",
          "name": "reasonDoc",
          "type": "bytes32"
        }
      ],
      "name": "registerSelf",
      "outputs": [
        {
          "internalType": "uint256",
          "name": "seatId",
          "type": "uint256"
        }
      ],
      "stateMutability": "nonpayable",
      "type": "function"
    },
    {
      "inputs": [
        {
          "internalType": "address",
          "name": "",
          "type": "address"
        }
      ],
      "name": "seatOf",
      "outputs": [
        {
          "internalType": "uint256",
          "name": "",
          "type": "uint256"
        }
      ],
      "stateMutability": "view",
      "type": "function"
    },
    {
      "inputs": [],
      "name": "seatSbt",
      "outputs": [
        {
          "internalType": "contract ISeatSBT",
          "name": "",
          "type": "address"
        }
      ],
      "stateMutability": "view",
      "type": "function"
    },
    {
      "inputs": [
        {
          "internalType": "address",
          "name": "activationRegistry_",
          "type": "address"
        }
      ],
      "name": "setActivationRegistry",
      "outputs": [],
      "stateMutability": "nonpayable",
      "type": "function"
    },
    {
      "inputs": [
        {
          "internalType": "address",
          "name": "seatSbt_",
          "type": "address"
        }
      ],
      "name": "setSeatSBT",
      "outputs": [],
      "stateMutability": "nonpayable",
      "type": "function"
    },
    {
      "inputs": [
        {
          "internalType": "address",
          "name": "newOwner",
          "type": "address"
        }
      ],
      "name": "transferOwnership",
      "outputs": [],
      "stateMutability": "nonpayable",
      "type": "function"
    }
  ],
  "bytecode": "0x60a0346100cf57601f610db038819003918201601f19168301916001600160401b038311848410176100d4578084926020946040528339810103126100cf57516001600160a01b038116908190036100cf57600160035580156100bd573360018060a01b031960005416176000556080526040513360007fb532073b38c83145e3e5135377a08bf9aab55bc0fd7c1179cd4fb995d2a5159c8180a3610cc590816100eb82396080518181816102e70152818161047801526108090152f35b60405163d92e233d60e01b8152600490fd5b600080fd5b634e487b7160e01b600052604160045260246000fdfe608080604052600436101561001357600080fd5b600090813560e01c9081630cbfc1581461076057508063388841b11461073757806350f18626146103f657806352486580146103875780636d5fba94146103165780636d736689146102d15780638da5cb5b146102aa57806395d823721461028c5780639d8f9738146101d9578063ab97f518146101b0578063b9cd92c314610177578063ebbe630a146101445763f2fde38b146100b057600080fd5b34610141576020366003190112610141576100c9610ab1565b81546001600160a01b03808216923384900361012f571691821561011d5782907fb532073b38c83145e3e5135377a08bf9aab55bc0fd7c1179cd4fb995d2a5159c8580a36001600160a01b03191617815580f35b60405163d92e233d60e01b8152600490fd5b6040516330cd747160e01b8152600490fd5b80fd5b503461014157602036600319011261014157602090600435815260058252604060018060a01b0391205416604051908152f35b5034610141576020366003190112610141576020906040906001600160a01b0361019f610ab1565b168152600483522054604051908152f35b50346101415780600319360112610141576002546040516001600160a01b039091168152602090f35b5034610141576020366003190112610141576101f3610ab1565b81546001600160a01b0391908216330361012f57811690811561011d57600154908116610250576001600160a01b03191681176001557f88b647a8d032c0dbefb29fdee2921089e1522351c7e79ee97cf9d1756b0a35498280a280f35b60405162461bcd60e51b815260206004820152601460248201527314d1505517d4d09517d053149150511657d4d15560621b6044820152606490fd5b50346101415780600319360112610141576020600354604051908152f35b5034610141578060031936011261014157546040516001600160a01b039091168152602090f35b50346101415780600319360112610141576040517f00000000000000000000000000000000000000000000000000000000000000006001600160a01b03168152602090f35b503461014157602036600319011261014157604060c091600435815260066020522080549061ffff9060ff6002600183015492015416916040519363ffffffff81168552818160201c166020860152818160301c16604086015260401c1660608401526080830152151560a0820152f35b5034610141576020366003190112610141576103a1610ab1565b81546001600160a01b0391908216330361012f5716806bffffffffffffffffffffffff60a01b60025416176002557f697a8f2ce68020058f0c2b7dab45e7e884b6737b70d5b8effdac4355dfe3c1bd8280a280f35b50346101415760c03660031901126101415763ffffffff600435818116908181036107325760243561ffff9283821680920361073257610434610ac7565b9161043d610ad8565b6001546001600160a01b039790881696608435959190881561011d57604051809a6334da6b7f60e11b825233600483015281602460209d8e937f0000000000000000000000000000000000000000000000000000000000000000165afa90811561069c578c91610715575b501561070357338b5260048a5260408b20546106f157600354986104cb8a610b69565b600355604051634f558e7960e01b8152600481018b90528b81602481855afa9081156106e6578d916106b9575b506106a757808c913b15610698576040516321528ce760e01b8152336004820152602481018c905291908290604490829084905af1801561069c57918b9c918b9c949361066e575b5094600294610657989461ffff60401b67ffff00000000000065ffff000000008f9760407fa834cb459ed6f8038707a1675f41f4a83a1a9299c489a0343671e6476a80cf829f9d988e9a60019e33835260048952818484205581835260058952838320336bffffffffffffffffffffffff60a01b825416179055606084519e8f906105ca82610b13565b81528a81019d8e52828682019c168c52019a168a5260808d019b8c5260a08d019e8f52815260068752209951169389549751901b16935160301b16935160401b169369ffffffffffffffffffff1916171717178255516001820155019051151560ff801983541691161790556040519182913395836020909392919363ffffffff60408201951681520152565b0390a361066660a43582610b8e565b604051908152f35b610683919395969798999a9b50829450610ae9565b61069857918a918a9998979695949338610540565b5080fd5b6040513d8e823e3d90fd5b60405163dbc24e1560e01b8152600490fd5b6106d991508c8d3d106106df575b6106d18183610b2f565b810190610b51565b386104f8565b503d6106c7565b6040513d8f823e3d90fd5b6040516384cd49b760e01b8152600490fd5b6040516307625d3560e51b8152600490fd5b61072c91508b3d8d116106df576106d18183610b2f565b386104a8565b600080fd5b50346101415780600319360112610141576001546040516001600160a01b039091168152602090f35b9050346106985760e03660031901126106985761077b610ab1565b63ffffffff6024351660243503610aad57610794610ac7565b61079c610ad8565b926084359061ffff82168203610aa95785546001600160a01b03163303610a9a57506001600160a01b0383161561011d576001546001600160a01b031693841561011d576040516334da6b7f60e11b81526001600160a01b038581166004830152602090829060249082907f0000000000000000000000000000000000000000000000000000000000000000165afa908115610a42578791610a7b575b5015610703576001600160a01b0384168652600460205260408620546106f1576003549461086686610b69565b600355604051634f558e7960e01b815260048101879052602081602481855afa908115610a70578891610a51575b506106a757803b15610a4d576040516321528ce760e01b81526001600160a01b0386166004820152602481018790529087908290604490829084905af18015610a425791869594939160209893610a30575b506001600160a01b03851680845260048952604080852088905587855260058a5280852080546001600160a01b0319169092179091555192936002939261092c84610b13565b63ffffffff60243516845261ffff8a85019216825261ffff604085019316835261ffff6060850191168152608084019260a435845263ffffffff604060a087019860018a528b815260068e522095511661ffff60401b67ffff00000000000065ffff00000000885496518f1b16935160301b16935160401b169369ffffffffffffffffffff1916171717178255516001820155019051151560ff801983541691161790557fa834cb459ed6f8038707a1675f41f4a83a1a9299c489a0343671e6476a80cf826040519160018060a01b03169180610a2160a435602435836020909392919363ffffffff60408201951681520152565b0390a361066660c43582610b8e565b92610a3c600294610ae9565b926108e6565b6040513d89823e3d90fd5b8680fd5b610a6a915060203d6020116106df576106d18183610b2f565b38610894565b6040513d8a823e3d90fd5b610a94915060203d6020116106df576106d18183610b2f565b38610839565b6330cd747160e01b8152600490fd5b8580fd5b8280fd5b600435906001600160a01b038216820361073257565b6044359061ffff8216820361073257565b6064359061ffff8216820361073257565b67ffffffffffffffff8111610afd57604052565b634e487b7160e01b600052604160045260246000fd5b60c0810190811067ffffffffffffffff821117610afd57604052565b90601f8019910116810190811067ffffffffffffffff821117610afd57604052565b90816020910312610732575180151581036107325790565b6000198114610b785760010190565b634e487b7160e01b600052601160045260246000fd5b9060018060a01b0360025416908115610c8a57604051906020820190630f56028560e01b8252846024840152604483015260448252608082019167ffffffffffffffff9281811084821117610afd57604052600093849283809351925af1913d15610c5f573d918211610c4b57916020917f4a44e6d7849b4030e1502db1b9574d6fd472bb11c94c3a577e5683bec31202da9360405191610c3885601f19601f8401160184610b2f565b8252833d92013e5b6040519015158152a2565b634e487b7160e01b81526041600452602490fd5b505060207f4a44e6d7849b4030e1502db1b9574d6fd472bb11c94c3a577e5683bec31202da91610c40565b50505056fea2646970667358221220afe451ca42828ffb27e5cd1406a19c68e0c71883b3160a156bce03dce77fff1064736f6c63430008180033",
  "linkReferences": {},
  "deployedLinkReferences": {}
}