{
  "_format": "hh-sol-artifact-1",
  "contractName": "ElectionRegistry",
  "sourceName": "contracts/ElectionRegistry.sol",
  "abi": [
    {
      "inputs": [
        {
          "internalType": "address",
          "name": "seat_",
          "type": "address"
        }
      ],
      "stateMutability": "nonpayable",
      "type": "constructor"
    },
    {
      "inputs": [],
      "name": "INVALID_WINNER",
      "type": "error"
    },
    {
      "inputs": [],
      "name": "NOT_ADMIN",
      "type": "error"
    },
    {
      "inputs": [],
      "name": "WINNER_ALREADY_SET",
      "type": "error"
    },
    {
      "inputs": [],
      "name": "admin",
      "outputs": [
        {
          "internalType": "address",
          "name": "",
          "type": "address"
        }
      ],
      "stateMutability": "view",
      "type": "function"
    },
    {
      "inputs": [
        {
          "internalType": "uint256",
          "name": "seatId",
          "type": "uint256"
        }
      ],
      "name": "finalize",
      "outputs": [],
      "stateMutability": "nonpayable",
      "type": "function"
    },
    {
      "inputs": [
        {
          "internalType": "uint256",
          "name": "seatId",
          "type": "uint256"
        },
        {
          "internalType": "address",
          "name": "winner",
          "type": "address"
        }
      ],
      "name": "registerWinner",
      "outputs": [],
      "stateMutability": "nonpayable",
      "type": "function"
    },
    {
      "inputs": [],
      "name": "seat",
      "outputs": [
        {
          "internalType": "contract ISeatSBT",
          "name": "",
          "type": "address"
        }
      ],
      "stateMutability": "view",
      "type": "function"
    },
    {
      "inputs": [
        {
          "internalType": "uint256",
          "name": "",
          "type": "uint256"
        }
      ],
      "name": "seatWinner",
      "outputs": [
        {
          "internalType": "address",
          "name": "",
          "type": "address"
        }
      ],
      "stateMutability": "view",
      "type": "function"
    }
  ],
  "bytecode": "0x60c060405234801561001057600080fd5b506040516107fc3803806107fc83398181016040528101906100329190610103565b3373ffffffffffffffffffffffffffffffffffffffff1660808173ffffffffffffffffffffffffffffffffffffffff16815250508073ffffffffffffffffffffffffffffffffffffffff1660a08173ffffffffffffffffffffffffffffffffffffffff168152505050610130565b600080fd5b600073ffffffffffffffffffffffffffffffffffffffff82169050919050565b60006100d0826100a5565b9050919050565b6100e0816100c5565b81146100eb57600080fd5b50565b6000815190506100fd816100d7565b92915050565b600060208284031215610119576101186100a0565b5b6000610127848285016100ee565b91505092915050565b60805160a0516106996101636000396000818161019f015261043b015260008181610263015261045f01526106996000f3fe608060405234801561001057600080fd5b50600436106100575760003560e01c806305261aea1461005c57806352c4cdae146100785780636bc124d1146100a85780637bf6df91146100c4578063f851a440146100e2575b600080fd5b610076600480360381019061007191906104bc565b610100565b005b610092600480360381019061008d91906104bc565b61022e565b60405161009f919061052a565b60405180910390f35b6100c260048036038101906100bd9190610571565b610261565b005b6100cc610439565b6040516100d99190610610565b60405180910390f35b6100ea61045d565b6040516100f7919061052a565b60405180910390f35b600080600083815260200190815260200160002060009054906101000a900473ffffffffffffffffffffffffffffffffffffffff169050600073ffffffffffffffffffffffffffffffffffffffff168173ffffffffffffffffffffffffffffffffffffffff160361019d576040517faa61f68300000000000000000000000000000000000000000000000000000000815260040160405180910390fd5b7f000000000000000000000000000000000000000000000000000000000000000073ffffffffffffffffffffffffffffffffffffffff166321528ce782846040518363ffffffff1660e01b81526004016101f892919061063a565b600060405180830381600087803b15801561021257600080fd5b505af1158015610226573d6000803e3d6000fd5b505050505050565b60006020528060005260406000206000915054906101000a900473ffffffffffffffffffffffffffffffffffffffff1681565b7f000000000000000000000000000000000000000000000000000000000000000073ffffffffffffffffffffffffffffffffffffffff163373ffffffffffffffffffffffffffffffffffffffff16146102e6576040517f6209c08b00000000000000000000000000000000000000000000000000000000815260040160405180910390fd5b600073ffffffffffffffffffffffffffffffffffffffff1660008084815260200190815260200160002060009054906101000a900473ffffffffffffffffffffffffffffffffffffffff1673ffffffffffffffffffffffffffffffffffffffff161461037e576040517ff0dadb3400000000000000000000000000000000000000000000000000000000815260040160405180910390fd5b600073ffffffffffffffffffffffffffffffffffffffff168173ffffffffffffffffffffffffffffffffffffffff16036103e4576040517faa61f68300000000000000000000000000000000000000000000000000000000815260040160405180910390fd5b8060008084815260200190815260200160002060006101000a81548173ffffffffffffffffffffffffffffffffffffffff021916908373ffffffffffffffffffffffffffffffffffffffff1602179055505050565b7f000000000000000000000000000000000000000000000000000000000000000081565b7f000000000000000000000000000000000000000000000000000000000000000081565b600080fd5b6000819050919050565b61049981610486565b81146104a457600080fd5b50565b6000813590506104b681610490565b92915050565b6000602082840312156104d2576104d1610481565b5b60006104e0848285016104a7565b91505092915050565b600073ffffffffffffffffffffffffffffffffffffffff82169050919050565b6000610514826104e9565b9050919050565b61052481610509565b82525050565b600060208201905061053f600083018461051b565b92915050565b61054e81610509565b811461055957600080fd5b50565b60008135905061056b81610545565b92915050565b6000806040838503121561058857610587610481565b5b6000610596858286016104a7565b92505060206105a78582860161055c565b9150509250929050565b6000819050919050565b60006105d66105d16105cc846104e9565b6105b1565b6104e9565b9050919050565b60006105e8826105bb565b9050919050565b60006105fa826105dd565b9050919050565b61060a816105ef565b82525050565b60006020820190506106256000830184610601565b92915050565b61063481610486565b82525050565b600060408201905061064f600083018561051b565b61065c602083018461062b565b939250505056fea264697066735822122013160a3bd8d864b4e0d68cc266a109289c6ba253052a9ff7e21413a760fa9e4964736f6c63430008180033",
  "linkReferences": {},
  "deployedLinkReferences": {}
}