{
  "_format": "hh-sol-artifact-1",
  "contractName": "Arban",
  "sourceName": "contracts/Arban.sol",
  "abi": [
    {
      "inputs": [
        {
          "internalType": "address",
          "name": "_organization",
          "type": "address"
        },
        {
          "internalType": "address",
          "name": "_seatSbt",
          "type": "address"
        },
        {
          "internalType": "uint256",
          "name": "_arbanId",
          "type": "uint256"
        },
        {
          "internalType": "address",
          "name": "_leader",
          "type": "address"
        }
      ],
      "stateMutability": "nonpayable",
      "type": "constructor"
    },
    {
      "inputs": [],
      "name": "ALREADY_MEMBER",
      "type": "error"
    },
    {
      "inputs": [],
      "name": "ARBAN_FULL",
      "type": "error"
    },
    {
      "inputs": [],
      "name": "AccessControlBadConfirmation",
      "type": "error"
    },
    {
      "inputs": [
        {
          "internalType": "address",
          "name": "account",
          "type": "address"
        },
        {
          "internalType": "bytes32",
          "name": "neededRole",
          "type": "bytes32"
        }
      ],
      "name": "AccessControlUnauthorizedAccount",
      "type": "error"
    },
    {
      "inputs": [],
      "name": "NOT_MEMBER",
      "type": "error"
    },
    {
      "inputs": [],
      "name": "ZERO_ADDRESS",
      "type": "error"
    },
    {
      "anonymous": false,
      "inputs": [
        {
          "indexed": true,
          "internalType": "address",
          "name": "oldLeader",
          "type": "address"
        },
        {
          "indexed": true,
          "internalType": "address",
          "name": "newLeader",
          "type": "address"
        }
      ],
      "name": "LeaderChanged",
      "type": "event"
    },
    {
      "anonymous": false,
      "inputs": [
        {
          "indexed": true,
          "internalType": "uint256",
          "name": "seatId",
          "type": "uint256"
        }
      ],
      "name": "MemberAdded",
      "type": "event"
    },
    {
      "anonymous": false,
      "inputs": [
        {
          "indexed": true,
          "internalType": "bytes32",
          "name": "role",
          "type": "bytes32"
        },
        {
          "indexed": true,
          "internalType": "bytes32",
          "name": "previousAdminRole",
          "type": "bytes32"
        },
        {
          "indexed": true,
          "internalType": "bytes32",
          "name": "newAdminRole",
          "type": "bytes32"
        }
      ],
      "name": "RoleAdminChanged",
      "type": "event"
    },
    {
      "anonymous": false,
      "inputs": [
        {
          "indexed": true,
          "internalType": "bytes32",
          "name": "role",
          "type": "bytes32"
        },
        {
          "indexed": true,
          "internalType": "address",
          "name": "account",
          "type": "address"
        },
        {
          "indexed": true,
          "internalType": "address",
          "name": "sender",
          "type": "address"
        }
      ],
      "name": "RoleGranted",
      "type": "event"
    },
    {
      "anonymous": false,
      "inputs": [
        {
          "indexed": true,
          "internalType": "bytes32",
          "name": "role",
          "type": "bytes32"
        },
        {
          "indexed": true,
          "internalType": "address",
          "name": "account",
          "type": "address"
        },
        {
          "indexed": true,
          "internalType": "address",
          "name": "sender",
          "type": "address"
        }
      ],
      "name": "RoleRevoked",
      "type": "event"
    },
    {
      "inputs": [],
      "name": "ARBAN_ADMIN_ROLE",
      "outputs": [
        {
          "internalType": "bytes32",
          "name": "",
          "type": "bytes32"
        }
      ],
      "stateMutability": "view",
      "type": "function"
    },
    {
      "inputs": [],
      "name": "DEFAULT_ADMIN_ROLE",
      "outputs": [
        {
          "internalType": "bytes32",
          "name": "",
          "type": "bytes32"
        }
      ],
      "stateMutability": "view",
      "type": "function"
    },
    {
      "inputs": [
        {
          "internalType": "uint256",
          "name": "seatId",
          "type": "uint256"
        }
      ],
      "name": "addMember",
      "outputs": [],
      "stateMutability": "nonpayable",
      "type": "function"
    },
    {
      "inputs": [],
      "name": "arbanId",
      "outputs": [
        {
          "internalType": "uint256",
          "name": "",
          "type": "uint256"
        }
      ],
      "stateMutability": "view",
      "type": "function"
    },
    {
      "inputs": [
        {
          "internalType": "address",
          "name": "newLeader",
          "type": "address"
        }
      ],
      "name": "changeLeader",
      "outputs": [],
      "stateMutability": "nonpayable",
      "type": "function"
    },
    {
      "inputs": [],
      "name": "getMembers",
      "outputs": [
        {
          "internalType": "uint256[]",
          "name": "",
          "type": "uint256[]"
        }
      ],
      "stateMutability": "view",
      "type": "function"
    },
    {
      "inputs": [
        {
          "internalType": "bytes32",
          "name": "role",
          "type": "bytes32"
        }
      ],
      "name": "getRoleAdmin",
      "outputs": [
        {
          "internalType": "bytes32",
          "name": "",
          "type": "bytes32"
        }
      ],
      "stateMutability": "view",
      "type": "function"
    },
    {
      "inputs": [
        {
          "internalType": "bytes32",
          "name": "role",
          "type": "bytes32"
        },
        {
          "internalType": "address",
          "name": "account",
          "type": "address"
        }
      ],
      "name": "grantRole",
      "outputs": [],
      "stateMutability": "nonpayable",
      "type": "function"
    },
    {
      "inputs": [
        {
          "internalType": "bytes32",
          "name": "role",
          "type": "bytes32"
        },
        {
          "internalType": "address",
          "name": "account",
          "type": "address"
        }
      ],
      "name": "hasRole",
      "outputs": [
        {
          "internalType": "bool",
          "name": "",
          "type": "bool"
        }
      ],
      "stateMutability": "view",
      "type": "function"
    },
    {
      "inputs": [
        {
          "internalType": "uint256",
          "name": "",
          "type": "uint256"
        }
      ],
      "name": "isMember",
      "outputs": [
        {
          "internalType": "bool",
          "name": "",
          "type": "bool"
        }
      ],
      "stateMutability": "view",
      "type": "function"
    },
    {
      "inputs": [],
      "name": "leader",
      "outputs": [
        {
          "internalType": "address",
          "name": "",
          "type": "address"
        }
      ],
      "stateMutability": "view",
      "type": "function"
    },
    {
      "inputs": [],
      "name": "memberCount",
      "outputs": [
        {
          "internalType": "uint256",
          "name": "",
          "type": "uint256"
        }
      ],
      "stateMutability": "view",
      "type": "function"
    },
    {
      "inputs": [],
      "name": "organization",
      "outputs": [
        {
          "internalType": "contract Organization",
          "name": "",
          "type": "address"
        }
      ],
      "stateMutability": "view",
      "type": "function"
    },
    {
      "inputs": [
        {
          "internalType": "bytes32",
          "name": "role",
          "type": "bytes32"
        },
        {
          "internalType": "address",
          "name": "callerConfirmation",
          "type": "address"
        }
      ],
      "name": "renounceRole",
      "outputs": [],
      "stateMutability": "nonpayable",
      "type": "function"
    },
    {
      "inputs": [
        {
          "internalType": "bytes32",
          "name": "role",
          "type": "bytes32"
        },
        {
          "internalType": "address",
          "name": "account",
          "type": "address"
        }
      ],
      "name": "revokeRole",
      "outputs": [],
      "stateMutability": "nonpayable",
      "type": "function"
    },
    {
      "inputs": [],
      "name": "seat",
      "outputs": [
        {
          "internalType": "contract SeatSBT",
          "name": "",
          "type": "address"
        }
      ],
      "stateMutability": "view",
      "type": "function"
    },
    {
      "inputs": [
        {
          "internalType": "bytes4",
          "name": "interfaceId",
          "type": "bytes4"
        }
      ],
      "name": "supportsInterface",
      "outputs": [
        {
          "internalType": "bool",
          "name": "",
          "type": "bool"
        }
      ],
      "stateMutability": "view",
      "type": "function"
    }
  ],
  "bytecode": "0x60e060405234801561001057600080fd5b50604051610a6d380380610a6d83398101604081905261002f9161018e565b6001600160a01b0381166100565760405163538ba4f960e01b815260040160405180910390fd5b6001600160a01b0384811660805283811660a05260c0839052600180546001600160a01b0319169183169190911790556100916000826100c6565b506100bc7f21d2830d54424ced495e8b9a2d9096ce77e272f963440f132cf2276b5578aa2f826100c6565b50505050506101db565b6000828152602081815260408083206001600160a01b038516845290915281205460ff16610168576000838152602081815260408083206001600160a01b03861684529091529020805460ff191660011790556101203390565b6001600160a01b0316826001600160a01b0316847f2f8788117e7eff1d82e926ec794901d17c78024a50270940304540a733656f0d60405160405180910390a450600161016c565b5060005b92915050565b80516001600160a01b038116811461018957600080fd5b919050565b600080600080608085870312156101a457600080fd5b6101ad85610172565b93506101bb60208601610172565b9250604085015191506101d060608601610172565b905092959194509250565b60805160a05160c05161086361020a600039600061015201526000610252015260006101a201526108636000f3fe608060405234801561001057600080fd5b506004361061010b5760003560e01c80632f2ff15d116100a257806391d148541161007157806391d14854146102745780639eab525314610287578063a217fddf1461029c578063d50c7377146102a4578063d547741f146102c757600080fd5b80632f2ff15d1461021457806336568abe1461022757806340eedabb1461023a5780637bf6df911461024d57600080fd5b806311aee380116100de57806311aee3801461019557806323bd4d7a1461019d578063248a9ca3146101dc57806324c0e1c3146101ff57600080fd5b806301ffc9a7146101105780630305dd991461013857806306c817191461014d5780631089f5ed14610182575b600080fd5b61012361011e36600461071c565b6102da565b60405190151581526020015b60405180910390f35b61014b610146366004610769565b610311565b005b6101747f000000000000000000000000000000000000000000000000000000000000000081565b60405190815260200161012f565b61014b610190366004610784565b6103e6565b600254610174565b6101c47f000000000000000000000000000000000000000000000000000000000000000081565b6040516001600160a01b03909116815260200161012f565b6101746101ea366004610784565b60009081526020819052604090206001015490565b61017460008051602061080e83398151915281565b61014b61022236600461079d565b6104c8565b61014b61023536600461079d565b6104f3565b6001546101c4906001600160a01b031681565b6101c47f000000000000000000000000000000000000000000000000000000000000000081565b61012361028236600461079d565b61052b565b61028f610554565b60405161012f91906107c9565b610174600081565b6101236102b2366004610784565b60036020526000908152604090205460ff1681565b61014b6102d536600461079d565b6105ac565b60006001600160e01b03198216637965db0b60e01b148061030b57506301ffc9a760e01b6001600160e01b03198316145b92915050565b60008051602061080e833981519152610329816105d1565b6001600160a01b0382166103505760405163538ba4f960e01b815260040160405180910390fd5b600180546001600160a01b038481166001600160a01b03198316179092551661038760008051602061080e833981519152846105de565b506103a060008051602061080e83398151915282610670565b50826001600160a01b0316816001600160a01b03167f20a41b6af7c8306fdec52386c51d5c48321cd6fde663606ff90de727e964eebe60405160405180910390a3505050565b60008051602061080e8339815191526103fe816105d1565b600254600a116104215760405163470781ed60e01b815260040160405180910390fd5b60008281526003602052604090205460ff161561045157604051637b89743f60e01b815260040160405180910390fd5b6002805460018181019092557f405787fa12a823e0f2b7631cc41b3ba8828b3321ca811111fa75cd3aa3bb5ace01839055600083815260036020526040808220805460ff1916909317909255905183917f663edc42a721f7c73209441ed31f141cef6912283c680024547d950559c5559191a25050565b6000828152602081905260409020600101546104e3816105d1565b6104ed83836105de565b50505050565b6001600160a01b038116331461051c5760405163334bd91960e11b815260040160405180910390fd5b6105268282610670565b505050565b6000918252602082815260408084206001600160a01b0393909316845291905290205460ff1690565b606060028054806020026020016040519081016040528092919081815260200182805480156105a257602002820191906000526020600020905b81548152602001906001019080831161058e575b5050505050905090565b6000828152602081905260409020600101546105c7816105d1565b6104ed8383610670565b6105db81336106db565b50565b60006105ea838361052b565b610668576000838152602081815260408083206001600160a01b03861684529091529020805460ff191660011790556106203390565b6001600160a01b0316826001600160a01b0316847f2f8788117e7eff1d82e926ec794901d17c78024a50270940304540a733656f0d60405160405180910390a450600161030b565b50600061030b565b600061067c838361052b565b15610668576000838152602081815260408083206001600160a01b0386168085529252808320805460ff1916905551339286917ff6391f5c32d9c69d2a47ea670b442974b53935d1edc7fd64eb21e047a839171b9190a450600161030b565b6106e5828261052b565b6107185760405163e2517d3f60e01b81526001600160a01b03821660048201526024810183905260440160405180910390fd5b5050565b60006020828403121561072e57600080fd5b81356001600160e01b03198116811461074657600080fd5b9392505050565b80356001600160a01b038116811461076457600080fd5b919050565b60006020828403121561077b57600080fd5b6107468261074d565b60006020828403121561079657600080fd5b5035919050565b600080604083850312156107b057600080fd5b823591506107c06020840161074d565b90509250929050565b6020808252825182820181905260009190848201906040850190845b81811015610801578351835292840192918401916001016107e5565b5090969550505050505056fe21d2830d54424ced495e8b9a2d9096ce77e272f963440f132cf2276b5578aa2fa2646970667358221220e9b84fe146c91511101d01ed33143f8568cb8fbfa7058eb129b1d71833cf6ec564736f6c63430008180033",
  "linkReferences": {},
  "deployedLinkReferences": {}
}