{
  "_format": "hh-sol-artifact-1",
  "contractName": "Arban",
  "sourceName": "contracts/Arban.sol",
  "abi": [
    {
      "inputs": [
        {
          "internalType": "address",
          "name": "_organization",
          "type": "address"
        },
        {
          "internalType": "address",
          "name": "_seatSbt",
          "type": "address"
        },
        {
          "internalType": "uint256",
          "name": "_arbanId",
          "type": "uint256"
        },
        {
          "internalType": "address",
          "name": "_leader",
          "type": "address"
        }
      ],
      "stateMutability": "nonpayable",
      "type": "constructor"
    },
    {
      "inputs": [],
      "name": "ALREADY_MEMBER",
      "type": "error"
    },
    {
      "inputs": [],
      "name": "ARBAN_FULL",
      "type": "error"
    },
    {
      "inputs": [],
      "name": "AccessControlBadConfirmation",
      "type": "error"
    },
    {
      "inputs": [
        {
          "internalType": "address",
          "name": "account",
          "type": "address"
        },
        {
          "internalType": "bytes32",
          "name": "neededRole",
          "type": "bytes32"
        }
      ],
      "name": "AccessControlUnauthorizedAccount",
      "type": "error"
    },
    {
      "inputs": [],
      "name": "NOT_MEMBER",
      "type": "error"
    },
    {
      "inputs": [],
      "name": "ZERO_ADDRESS",
      "type": "error"
    },
    {
      "anonymous": false,
      "inputs": [
        {
          "indexed": true,
          "internalType": "address",
          "name": "oldLeader",
          "type": "address"
        },
        {
          "indexed": true,
          "internalType": "address",
          "name": "newLeader",
          "type": "address"
        }
      ],
      "name": "LeaderChanged",
      "type": "event"
    },
    {
      "anonymous": false,
      "inputs": [
        {
          "indexed": true,
          "internalType": "uint256",
          "name": "seatId",
          "type": "uint256"
        }
      ],
      "name": "MemberAdded",
      "type": "event"
    },
    {
      "anonymous": false,
      "inputs": [
        {
          "indexed": true,
          "internalType": "bytes32",
          "name": "role",
          "type": "bytes32"
        },
        {
          "indexed": true,
          "internalType": "bytes32",
          "name": "previousAdminRole",
          "type": "bytes32"
        },
        {
          "indexed": true,
          "internalType": "bytes32",
          "name": "newAdminRole",
          "type": "bytes32"
        }
      ],
      "name": "RoleAdminChanged",
      "type": "event"
    },
    {
      "anonymous": false,
      "inputs": [
        {
          "indexed": true,
          "internalType": "bytes32",
          "name": "role",
          "type": "bytes32"
        },
        {
          "indexed": true,
          "internalType": "address",
          "name": "account",
          "type": "address"
        },
        {
          "indexed": true,
          "internalType": "address",
          "name": "sender",
          "type": "address"
        }
      ],
      "name": "RoleGranted",
      "type": "event"
    },
    {
      "anonymous": false,
      "inputs": [
        {
          "indexed": true,
          "internalType": "bytes32",
          "name": "role",
          "type": "bytes32"
        },
        {
          "indexed": true,
          "internalType": "address",
          "name": "account",
          "type": "address"
        },
        {
          "indexed": true,
          "internalType": "address",
          "name": "sender",
          "type": "address"
        }
      ],
      "name": "RoleRevoked",
      "type": "event"
    },
    {
      "inputs": [],
      "name": "ARBAN_ADMIN_ROLE",
      "outputs": [
        {
          "internalType": "bytes32",
          "name": "",
          "type": "bytes32"
        }
      ],
      "stateMutability": "view",
      "type": "function"
    },
    {
      "inputs": [],
      "name": "DEFAULT_ADMIN_ROLE",
      "outputs": [
        {
          "internalType": "bytes32",
          "name": "",
          "type": "bytes32"
        }
      ],
      "stateMutability": "view",
      "type": "function"
    },
    {
      "inputs": [
        {
          "internalType": "uint256",
          "name": "seatId",
          "type": "uint256"
        }
      ],
      "name": "addMember",
      "outputs": [],
      "stateMutability": "nonpayable",
      "type": "function"
    },
    {
      "inputs": [],
      "name": "arbanId",
      "outputs": [
        {
          "internalType": "uint256",
          "name": "",
          "type": "uint256"
        }
      ],
      "stateMutability": "view",
      "type": "function"
    },
    {
      "inputs": [
        {
          "internalType": "address",
          "name": "newLeader",
          "type": "address"
        }
      ],
      "name": "changeLeader",
      "outputs": [],
      "stateMutability": "nonpayable",
      "type": "function"
    },
    {
      "inputs": [],
      "name": "getMembers",
      "outputs": [
        {
          "internalType": "uint256[]",
          "name": "",
          "type": "uint256[]"
        }
      ],
      "stateMutability": "view",
      "type": "function"
    },
    {
      "inputs": [
        {
          "internalType": "bytes32",
          "name": "role",
          "type": "bytes32"
        }
      ],
      "name": "getRoleAdmin",
      "outputs": [
        {
          "internalType": "bytes32",
          "name": "",
          "type": "bytes32"
        }
      ],
      "stateMutability": "view",
      "type": "function"
    },
    {
      "inputs": [
        {
          "internalType": "bytes32",
          "name": "role",
          "type": "bytes32"
        },
        {
          "internalType": "address",
          "name": "account",
          "type": "address"
        }
      ],
      "name": "grantRole",
      "outputs": [],
      "stateMutability": "nonpayable",
      "type": "function"
    },
    {
      "inputs": [
        {
          "internalType": "bytes32",
          "name": "role",
          "type": "bytes32"
        },
        {
          "internalType": "address",
          "name": "account",
          "type": "address"
        }
      ],
      "name": "hasRole",
      "outputs": [
        {
          "internalType": "bool",
          "name": "",
          "type": "bool"
        }
      ],
      "stateMutability": "view",
      "type": "function"
    },
    {
      "inputs": [
        {
          "internalType": "uint256",
          "name": "",
          "type": "uint256"
        }
      ],
      "name": "isMember",
      "outputs": [
        {
          "internalType": "bool",
          "name": "",
          "type": "bool"
        }
      ],
      "stateMutability": "view",
      "type": "function"
    },
    {
      "inputs": [],
      "name": "leader",
      "outputs": [
        {
          "internalType": "address",
          "name": "",
          "type": "address"
        }
      ],
      "stateMutability": "view",
      "type": "function"
    },
    {
      "inputs": [],
      "name": "memberCount",
      "outputs": [
        {
          "internalType": "uint256",
          "name": "",
          "type": "uint256"
        }
      ],
      "stateMutability": "view",
      "type": "function"
    },
    {
      "inputs": [],
      "name": "organization",
      "outputs": [
        {
          "internalType": "contract Organization",
          "name": "",
          "type": "address"
        }
      ],
      "stateMutability": "view",
      "type": "function"
    },
    {
      "inputs": [
        {
          "internalType": "bytes32",
          "name": "role",
          "type": "bytes32"
        },
        {
          "internalType": "address",
          "name": "callerConfirmation",
          "type": "address"
        }
      ],
      "name": "renounceRole",
      "outputs": [],
      "stateMutability": "nonpayable",
      "type": "function"
    },
    {
      "inputs": [
        {
          "internalType": "bytes32",
          "name": "role",
          "type": "bytes32"
        },
        {
          "internalType": "address",
          "name": "account",
          "type": "address"
        }
      ],
      "name": "revokeRole",
      "outputs": [],
      "stateMutability": "nonpayable",
      "type": "function"
    },
    {
      "inputs": [],
      "name": "seat",
      "outputs": [
        {
          "internalType": "contract SeatSBT",
          "name": "",
          "type": "address"
        }
      ],
      "stateMutability": "view",
      "type": "function"
    },
    {
      "inputs": [
        {
          "internalType": "bytes4",
          "name": "interfaceId",
          "type": "bytes4"
        }
      ],
      "name": "supportsInterface",
      "outputs": [
        {
          "internalType": "bool",
          "name": "",
          "type": "bool"
        }
      ],
      "stateMutability": "view",
      "type": "function"
    }
  ],
  "bytecode": "0x60e0346100e457601f610bd038819003918201601f19168301916001600160401b038311848410176100e9578084926080946040528339810103126100e457610047816100ff565b90610054602082016100ff565b6100656060604084015193016100ff565b916001600160a01b038084169283156100d257816100a796166080521660a05260c05260018060a01b031960015416176001556100a181610113565b50610191565b5060405161097e90816102328239608051816103d6015260a051816102a7015260c0518161053d0152f35b60405163538ba4f960e01b8152600490fd5b600080fd5b634e487b7160e01b600052604160045260246000fd5b51906001600160a01b03821682036100e457565b6001600160a01b031660008181527fad3228b676f7d3cd4284a5443f17f1962b36e491b30a40b2405849e597ba5fb5602052604081205490919060ff1661018d57818052816020526040822081835260205260408220600160ff198254161790553391600080516020610bb08339815191528180a4600190565b5090565b6001600160a01b031660008181527fe34ee107d4eab1ddc75517d203004c4945b8356755ef72e04f7037b09e288f2960205260408120549091907f21d2830d54424ced495e8b9a2d9096ce77e272f963440f132cf2276b5578aa2f9060ff1661022c57808352826020526040832082845260205260408320600160ff19825416179055600080516020610bb0833981519152339380a4600190565b50509056fe608060408181526004908136101561001657600080fd5b600092833560e01c90816301ffc9a714610604575080630305dd991461056057806306c81719146105255780631089f5ed1461042457806311aee3801461040557806323bd4d7a146103c1578063248a9ca31461039757806324c0e1c31461036e5780632f2ff15d1461034657806336568abe146102ff57806340eedabb146102d65780637bf6df911461029257806391d148541461024c5780639eab52531461016b578063a217fddf1461014c578063d50c73771461011f5763d547741f146100df57600080fd5b3461011b578060031936011261011b5761011791356101126001610101610658565b9383875286602052862001546106db565b6108b3565b5080f35b8280fd5b50903461011b57602036600319011261011b578160209360ff923581526003855220541690519015158152f35b83823461016757816003193601126101675751908152602090f35b5080fd5b508234610249578060031936011261024957815180916002549384835260208093018095600284527f405787fa12a823e0f2b7631cc41b3ba8828b3321ca811111fa75cd3aa3bb5ace90845b868282106102355750505050849003601f01601f191684019567ffffffffffffffff871185881017610222575085815282865292518583018190528594938501939290915b82811061020b57505050500390f35b8351855286955093810193928101926001016101fc565b634e487b7160e01b835260419052602482fd5b8354855290930192600192830192016101b7565b80fd5b50903461011b578160031936011261011b578160209360ff9261026d610658565b903582528186528282206001600160a01b039091168252855220549151911615158152f35b838234610167578160031936011261016757517f00000000000000000000000000000000000000000000000000000000000000006001600160a01b03168152602090f35b83823461016757816003193601126101675760015490516001600160a01b039091168152602090f35b5082903461016757806003193601126101675761031a610658565b90336001600160a01b0383160361033757506101179192356108b3565b5163334bd91960e11b81528390fd5b503461011b578060031936011261011b5761011791356103696001610101610658565b6107a1565b838234610167578160031936011261016757602090516000805160206109298339815191528152f35b50903461011b57602036600319011261011b57816020936001923581528085522001549051908152f35b838234610167578160031936011261016757517f00000000000000000000000000000000000000000000000000000000000000006001600160a01b03168152602090f35b8382346101675781600319360112610167576020906002549051908152f35b503461011b57602036600319011261011b57813591610441610673565b60025490600a82101561051757838552600360205260ff838620541661050957680100000000000000008210156104f65760018201806002558210156104e357507f405787fa12a823e0f2b7631cc41b3ba8828b3321ca811111fa75cd3aa3bb5ace0182905581835260036020528220805460ff191660011790557f663edc42a721f7c73209441ed31f141cef6912283c680024547d950559c555918280a280f35b634e487b7160e01b855260329052602484fd5b634e487b7160e01b855260419052602484fd5b8251637b89743f60e01b8152fd5b825163470781ed60e01b8152fd5b838234610167578160031936011261016757602090517f00000000000000000000000000000000000000000000000000000000000000008152f35b50903461011b57602036600319011261011b5780356001600160a01b038181169390929084830361060057610593610673565b84156105f35750506105c19083600154938416936bffffffffffffffffffffffff60a01b1617600155610701565b506105cb8161081a565b507f20a41b6af7c8306fdec52386c51d5c48321cd6fde663606ff90de727e964eebe8380a380f35b5163538ba4f960e01b8152fd5b8580fd5b8490843461011b57602036600319011261011b573563ffffffff60e01b811680910361011b5760209250637965db0b60e01b8114908115610647575b5015158152f35b6301ffc9a760e01b14905083610640565b602435906001600160a01b038216820361066e57565b600080fd5b3360009081527fe34ee107d4eab1ddc75517d203004c4945b8356755ef72e04f7037b09e288f2960205260409020546000805160206109298339815191529060ff16156106bd5750565b6044906040519063e2517d3f60e01b82523360048301526024820152fd5b80600052600060205260406000203360005260205260ff60406000205416156106bd5750565b6001600160a01b031660008181527fe34ee107d4eab1ddc75517d203004c4945b8356755ef72e04f7037b09e288f2960205260408120549091906000805160206109298339815191529060ff1661079c57808352826020526040832082845260205260408320600160ff198254161790557f2f8788117e7eff1d82e926ec794901d17c78024a50270940304540a733656f0d339380a4600190565b505090565b9060009180835282602052604083209160018060a01b03169182845260205260ff6040842054161560001461079c57808352826020526040832082845260205260408320600160ff198254161790557f2f8788117e7eff1d82e926ec794901d17c78024a50270940304540a733656f0d339380a4600190565b6001600160a01b031660008181527fe34ee107d4eab1ddc75517d203004c4945b8356755ef72e04f7037b09e288f2960205260408120549091906000805160206109298339815191529060ff161561079c5780835282602052604083208284526020526040832060ff1981541690557ff6391f5c32d9c69d2a47ea670b442974b53935d1edc7fd64eb21e047a839171b339380a4600190565b9060009180835282602052604083209160018060a01b03169182845260205260ff60408420541660001461079c5780835282602052604083208284526020526040832060ff1981541690557ff6391f5c32d9c69d2a47ea670b442974b53935d1edc7fd64eb21e047a839171b339380a460019056fe21d2830d54424ced495e8b9a2d9096ce77e272f963440f132cf2276b5578aa2fa2646970667358221220fd744b343b976a5397c7517c27c8ee76933a8c8ebd306bf234c269f1350eb83264736f6c634300081800332f8788117e7eff1d82e926ec794901d17c78024a50270940304540a733656f0d",
  "linkReferences": {},
  "deployedLinkReferences": {}
}