{
  "_format": "hh-sol-artifact-1",
  "contractName": "Organization",
  "sourceName": "contracts/Organization.sol",
  "abi": [
    {
      "inputs": [
        {
          "internalType": "address",
          "name": "_founder",
          "type": "address"
        },
        {
          "internalType": "enum Organization.OrgType",
          "name": "_orgType",
          "type": "uint8"
        },
        {
          "internalType": "enum Organization.Branch",
          "name": "_branch",
          "type": "uint8"
        },
        {
          "internalType": "address",
          "name": "_notary",
          "type": "address"
        },
        {
          "internalType": "address",
          "name": "_archivist",
          "type": "address"
        },
        {
          "internalType": "address",
          "name": "_structureRegistry",
          "type": "address"
        },
        {
          "internalType": "address",
          "name": "_documentRegistry",
          "type": "address"
        }
      ],
      "stateMutability": "nonpayable",
      "type": "constructor"
    },
    {
      "inputs": [],
      "name": "AccessControlBadConfirmation",
      "type": "error"
    },
    {
      "inputs": [
        {
          "internalType": "address",
          "name": "account",
          "type": "address"
        },
        {
          "internalType": "bytes32",
          "name": "neededRole",
          "type": "bytes32"
        }
      ],
      "name": "AccessControlUnauthorizedAccount",
      "type": "error"
    },
    {
      "inputs": [],
      "name": "ZERO_ADDRESS",
      "type": "error"
    },
    {
      "anonymous": false,
      "inputs": [
        {
          "indexed": true,
          "internalType": "address",
          "name": "notary",
          "type": "address"
        },
        {
          "indexed": true,
          "internalType": "address",
          "name": "archivist",
          "type": "address"
        }
      ],
      "name": "CenterUpdated",
      "type": "event"
    },
    {
      "anonymous": false,
      "inputs": [
        {
          "indexed": true,
          "internalType": "address",
          "name": "structureRegistry",
          "type": "address"
        },
        {
          "indexed": true,
          "internalType": "address",
          "name": "documentRegistry",
          "type": "address"
        }
      ],
      "name": "ModulesUpdated",
      "type": "event"
    },
    {
      "anonymous": false,
      "inputs": [
        {
          "indexed": true,
          "internalType": "address",
          "name": "org",
          "type": "address"
        },
        {
          "indexed": true,
          "internalType": "address",
          "name": "founder",
          "type": "address"
        },
        {
          "indexed": false,
          "internalType": "enum Organization.OrgType",
          "name": "orgType",
          "type": "uint8"
        },
        {
          "indexed": false,
          "internalType": "enum Organization.Branch",
          "name": "branch",
          "type": "uint8"
        }
      ],
      "name": "OrganizationCreated",
      "type": "event"
    },
    {
      "anonymous": false,
      "inputs": [
        {
          "indexed": true,
          "internalType": "bytes32",
          "name": "role",
          "type": "bytes32"
        },
        {
          "indexed": true,
          "internalType": "bytes32",
          "name": "previousAdminRole",
          "type": "bytes32"
        },
        {
          "indexed": true,
          "internalType": "bytes32",
          "name": "newAdminRole",
          "type": "bytes32"
        }
      ],
      "name": "RoleAdminChanged",
      "type": "event"
    },
    {
      "anonymous": false,
      "inputs": [
        {
          "indexed": true,
          "internalType": "bytes32",
          "name": "role",
          "type": "bytes32"
        },
        {
          "indexed": true,
          "internalType": "address",
          "name": "account",
          "type": "address"
        },
        {
          "indexed": true,
          "internalType": "address",
          "name": "sender",
          "type": "address"
        }
      ],
      "name": "RoleGranted",
      "type": "event"
    },
    {
      "anonymous": false,
      "inputs": [
        {
          "indexed": true,
          "internalType": "bytes32",
          "name": "role",
          "type": "bytes32"
        },
        {
          "indexed": true,
          "internalType": "address",
          "name": "account",
          "type": "address"
        },
        {
          "indexed": true,
          "internalType": "address",
          "name": "sender",
          "type": "address"
        }
      ],
      "name": "RoleRevoked",
      "type": "event"
    },
    {
      "inputs": [],
      "name": "DEFAULT_ADMIN_ROLE",
      "outputs": [
        {
          "internalType": "bytes32",
          "name": "",
          "type": "bytes32"
        }
      ],
      "stateMutability": "view",
      "type": "function"
    },
    {
      "inputs": [],
      "name": "ORG_ADMIN_ROLE",
      "outputs": [
        {
          "internalType": "bytes32",
          "name": "",
          "type": "bytes32"
        }
      ],
      "stateMutability": "view",
      "type": "function"
    },
    {
      "inputs": [],
      "name": "archivist",
      "outputs": [
        {
          "internalType": "address",
          "name": "",
          "type": "address"
        }
      ],
      "stateMutability": "view",
      "type": "function"
    },
    {
      "inputs": [],
      "name": "branch",
      "outputs": [
        {
          "internalType": "enum Organization.Branch",
          "name": "",
          "type": "uint8"
        }
      ],
      "stateMutability": "view",
      "type": "function"
    },
    {
      "inputs": [],
      "name": "documentRegistry",
      "outputs": [
        {
          "internalType": "address",
          "name": "",
          "type": "address"
        }
      ],
      "stateMutability": "view",
      "type": "function"
    },
    {
      "inputs": [],
      "name": "founder",
      "outputs": [
        {
          "internalType": "address",
          "name": "",
          "type": "address"
        }
      ],
      "stateMutability": "view",
      "type": "function"
    },
    {
      "inputs": [
        {
          "internalType": "bytes32",
          "name": "role",
          "type": "bytes32"
        }
      ],
      "name": "getRoleAdmin",
      "outputs": [
        {
          "internalType": "bytes32",
          "name": "",
          "type": "bytes32"
        }
      ],
      "stateMutability": "view",
      "type": "function"
    },
    {
      "inputs": [
        {
          "internalType": "bytes32",
          "name": "role",
          "type": "bytes32"
        },
        {
          "internalType": "address",
          "name": "account",
          "type": "address"
        }
      ],
      "name": "grantRole",
      "outputs": [],
      "stateMutability": "nonpayable",
      "type": "function"
    },
    {
      "inputs": [
        {
          "internalType": "bytes32",
          "name": "role",
          "type": "bytes32"
        },
        {
          "internalType": "address",
          "name": "account",
          "type": "address"
        }
      ],
      "name": "hasRole",
      "outputs": [
        {
          "internalType": "bool",
          "name": "",
          "type": "bool"
        }
      ],
      "stateMutability": "view",
      "type": "function"
    },
    {
      "inputs": [],
      "name": "notary",
      "outputs": [
        {
          "internalType": "address",
          "name": "",
          "type": "address"
        }
      ],
      "stateMutability": "view",
      "type": "function"
    },
    {
      "inputs": [],
      "name": "orgType",
      "outputs": [
        {
          "internalType": "enum Organization.OrgType",
          "name": "",
          "type": "uint8"
        }
      ],
      "stateMutability": "view",
      "type": "function"
    },
    {
      "inputs": [
        {
          "internalType": "bytes32",
          "name": "role",
          "type": "bytes32"
        },
        {
          "internalType": "address",
          "name": "callerConfirmation",
          "type": "address"
        }
      ],
      "name": "renounceRole",
      "outputs": [],
      "stateMutability": "nonpayable",
      "type": "function"
    },
    {
      "inputs": [
        {
          "internalType": "bytes32",
          "name": "role",
          "type": "bytes32"
        },
        {
          "internalType": "address",
          "name": "account",
          "type": "address"
        }
      ],
      "name": "revokeRole",
      "outputs": [],
      "stateMutability": "nonpayable",
      "type": "function"
    },
    {
      "inputs": [
        {
          "internalType": "address",
          "name": "_notary",
          "type": "address"
        },
        {
          "internalType": "address",
          "name": "_archivist",
          "type": "address"
        }
      ],
      "name": "setCenter",
      "outputs": [],
      "stateMutability": "nonpayable",
      "type": "function"
    },
    {
      "inputs": [
        {
          "internalType": "address",
          "name": "_structureRegistry",
          "type": "address"
        },
        {
          "internalType": "address",
          "name": "_documentRegistry",
          "type": "address"
        }
      ],
      "name": "setModules",
      "outputs": [],
      "stateMutability": "nonpayable",
      "type": "function"
    },
    {
      "inputs": [],
      "name": "structureRegistry",
      "outputs": [
        {
          "internalType": "address",
          "name": "",
          "type": "address"
        }
      ],
      "stateMutability": "view",
      "type": "function"
    },
    {
      "inputs": [
        {
          "internalType": "bytes4",
          "name": "interfaceId",
          "type": "bytes4"
        }
      ],
      "name": "supportsInterface",
      "outputs": [
        {
          "internalType": "bool",
          "name": "",
          "type": "bool"
        }
      ],
      "stateMutability": "view",
      "type": "function"
    }
  ],
  "bytecode": "0x60e0346101bd57601f610a5f38819003918201601f191683019291906001600160401b038411838510176101c2578160e092849260409687528339810103126101bd5761004b816101d8565b9160208201519160038310156101bd57818101519160058310156101bd57610075606083016101d8565b94610082608084016101d8565b9461009b60c061009460a087016101d8565b95016101d8565b9460018060a01b03978884169384156101ac57906100cf828b9360c052856080528460a0526100c9816101ec565b5061026a565b501697808060018060a01b0319998b8b60015416176001551696878a60025416176002551696878960035416176003551680976004541617600455835191825260208201527f6ea0800c4ae91c90014c4336424489e44c66e01db9fff5710af54833089f05bb833092a351937f53ae3b3eca082f3cd2154629b38b35d9ce679a46ec9909cc1324430452486510600080a37f323c4c64ab73ed697a6c978f74508faec97aed0cdf6f5f0ed8d93b8d22dd5f18600080a3610734908161030b8239608051816104b4015260a051816103c0015260c0518161037d0152f35b855163538ba4f960e01b8152600490fd5b600080fd5b634e487b7160e01b600052604160045260246000fd5b51906001600160a01b03821682036101bd57565b6001600160a01b031660008181527fad3228b676f7d3cd4284a5443f17f1962b36e491b30a40b2405849e597ba5fb5602052604081205490919060ff1661026657818052816020526040822081835260205260408220600160ff198254161790553391600080516020610a3f8339815191528180a4600190565b5090565b6001600160a01b031660008181527f386cd1a3857da36cb3baacbb40302f4aca20322003f1c1b95105ae41812a31a160205260408120549091907f123b642491709420c2370bb98c4e7de2b1bc05c5f9fd95ac4111e12683553c629060ff1661030557808352826020526040832082845260205260408320600160ff19825416179055600080516020610a3f833981519152339380a4600190565b50509056fe608060408181526004918236101561001657600080fd5b600092833560e01c91826301ffc9a7146104e75750816323a989e1146104a0578163248a9ca3146104765781632f2ff15d1461044c57816336568abe146104065781634b72d0d4146103ac5781634d853ee5146103685781636c3783341461033f57816382c1a089146102ba57816391d14854146102745781639d54c79d1461024b578163a217fddf14610230578163a4a1160f14610208578163d0ca2f67146101cd578163d547741f1461018e578163d74a5d001461010b575063f73011af146100e057600080fd5b3461010757816003193601126101075760025490516001600160a01b039091168152602090f35b5080fd5b9190503461018a5736600319011261010757610125610555565b61012d61053a565b9161013661056b565b600380546001600160a01b03199081166001600160a01b039485169081179092558254169390921692831790557f323c4c64ab73ed697a6c978f74508faec97aed0cdf6f5f0ed8d93b8d22dd5f188380a380f35b8280fd5b9190503461018a578060031936011261018a576101c991356101c460016101b361053a565b9383875286602052862001546105e5565b610689565b5080f35b505034610107578160031936011261010757602090517f123b642491709420c2370bb98c4e7de2b1bc05c5f9fd95ac4111e12683553c628152f35b90503461018a578260031936011261018a575490516001600160a01b03909116815260209150f35b50503461010757816003193601126101075751908152602090f35b50503461010757816003193601126101075760015490516001600160a01b039091168152602090f35b90503461018a578160031936011261018a578160209360ff9261029561053a565b903582528186528282206001600160a01b039091168252855220549151911615158152f35b5050346101075736600319011261033c576102d3610555565b6102db61053a565b906102e461056b565b60018060a01b03809116906bffffffffffffffffffffffff60a01b928284600154161760015516809260025416176002557f53ae3b3eca082f3cd2154629b38b35d9ce679a46ec9909cc13244304524865108380a380f35b80fd5b50503461010757816003193601126101075760035490516001600160a01b039091168152602090f35b505034610107578160031936011261010757517f00000000000000000000000000000000000000000000000000000000000000006001600160a01b03168152602090f35b8383346101075781600319360112610107577f000000000000000000000000000000000000000000000000000000000000000090519160058210156103f357602083838152f35b634e487b7160e01b815260218452602490fd5b83833461010757806003193601126101075761042061053a565b90336001600160a01b0383160361043d57506101c9919235610689565b5163334bd91960e11b81528390fd5b9190503461018a578060031936011261018a576101c9913561047160016101b361053a565b61060b565b90503461018a57602036600319011261018a57816020936001923581528085522001549051908152f35b8383346101075781600319360112610107577f000000000000000000000000000000000000000000000000000000000000000090519160038210156103f357602083838152f35b84913461018a57602036600319011261018a573563ffffffff60e01b811680910361018a5760209250637965db0b60e01b8114908115610529575b5015158152f35b6301ffc9a760e01b14905083610522565b602435906001600160a01b038216820361055057565b600080fd5b600435906001600160a01b038216820361055057565b3360009081527f386cd1a3857da36cb3baacbb40302f4aca20322003f1c1b95105ae41812a31a160205260409020547f123b642491709420c2370bb98c4e7de2b1bc05c5f9fd95ac4111e12683553c629060ff16156105c75750565b6044906040519063e2517d3f60e01b82523360048301526024820152fd5b80600052600060205260406000203360005260205260ff60406000205416156105c75750565b9060009180835282602052604083209160018060a01b03169182845260205260ff6040842054161560001461068457808352826020526040832082845260205260408320600160ff198254161790557f2f8788117e7eff1d82e926ec794901d17c78024a50270940304540a733656f0d339380a4600190565b505090565b9060009180835282602052604083209160018060a01b03169182845260205260ff6040842054166000146106845780835282602052604083208284526020526040832060ff1981541690557ff6391f5c32d9c69d2a47ea670b442974b53935d1edc7fd64eb21e047a839171b339380a460019056fea2646970667358221220f1d90f5a96206504f459b84b8bc99f44c6c54736491b161410e3bac1d8fb6da764736f6c634300081800332f8788117e7eff1d82e926ec794901d17c78024a50270940304540a733656f0d",
  "linkReferences": {},
  "deployedLinkReferences": {}
}