{
  "_format": "hh-sol-artifact-1",
  "contractName": "ChairmanElection",
  "sourceName": "contracts/ChairmanElection.sol",
  "abi": [
    {
      "inputs": [
        {
          "internalType": "address",
          "name": "registry_",
          "type": "address"
        },
        {
          "internalType": "address",
          "name": "chairmanRegistry_",
          "type": "address"
        },
        {
          "internalType": "uint256[]",
          "name": "tumenIds_",
          "type": "uint256[]"
        }
      ],
      "stateMutability": "nonpayable",
      "type": "constructor"
    },
    {
      "inputs": [],
      "name": "AlreadyVoted",
      "type": "error"
    },
    {
      "inputs": [],
      "name": "FinalizedAlready",
      "type": "error"
    },
    {
      "inputs": [],
      "name": "InvalidCandidate",
      "type": "error"
    },
    {
      "inputs": [],
      "name": "NoWinner",
      "type": "error"
    },
    {
      "inputs": [],
      "name": "NotTumenLeader",
      "type": "error"
    },
    {
      "anonymous": false,
      "inputs": [
        {
          "indexed": true,
          "internalType": "address",
          "name": "winner",
          "type": "address"
        },
        {
          "indexed": false,
          "internalType": "uint256",
          "name": "votes",
          "type": "uint256"
        }
      ],
      "name": "Finalized",
      "type": "event"
    },
    {
      "anonymous": false,
      "inputs": [
        {
          "indexed": true,
          "internalType": "uint256",
          "name": "tumenId",
          "type": "uint256"
        },
        {
          "indexed": true,
          "internalType": "address",
          "name": "leader",
          "type": "address"
        },
        {
          "indexed": true,
          "internalType": "address",
          "name": "candidate",
          "type": "address"
        }
      ],
      "name": "Voted",
      "type": "event"
    },
    {
      "inputs": [],
      "name": "chairmanRegistry",
      "outputs": [
        {
          "internalType": "contract IChairmanRegistry",
          "name": "",
          "type": "address"
        }
      ],
      "stateMutability": "view",
      "type": "function"
    },
    {
      "inputs": [],
      "name": "createdAt",
      "outputs": [
        {
          "internalType": "uint256",
          "name": "",
          "type": "uint256"
        }
      ],
      "stateMutability": "view",
      "type": "function"
    },
    {
      "inputs": [],
      "name": "finalize",
      "outputs": [],
      "stateMutability": "nonpayable",
      "type": "function"
    },
    {
      "inputs": [
        {
          "internalType": "address",
          "name": "candidate",
          "type": "address"
        }
      ],
      "name": "finalizeCandidate",
      "outputs": [],
      "stateMutability": "nonpayable",
      "type": "function"
    },
    {
      "inputs": [],
      "name": "finalized",
      "outputs": [
        {
          "internalType": "bool",
          "name": "",
          "type": "bool"
        }
      ],
      "stateMutability": "view",
      "type": "function"
    },
    {
      "inputs": [
        {
          "internalType": "address",
          "name": "",
          "type": "address"
        }
      ],
      "name": "hasVoted",
      "outputs": [
        {
          "internalType": "bool",
          "name": "",
          "type": "bool"
        }
      ],
      "stateMutability": "view",
      "type": "function"
    },
    {
      "inputs": [],
      "name": "registry",
      "outputs": [
        {
          "internalType": "contract IStructureRegistryCE",
          "name": "",
          "type": "address"
        }
      ],
      "stateMutability": "view",
      "type": "function"
    },
    {
      "inputs": [],
      "name": "tumenCount",
      "outputs": [
        {
          "internalType": "uint256",
          "name": "",
          "type": "uint256"
        }
      ],
      "stateMutability": "view",
      "type": "function"
    },
    {
      "inputs": [
        {
          "internalType": "uint256",
          "name": "",
          "type": "uint256"
        }
      ],
      "name": "tumenIds",
      "outputs": [
        {
          "internalType": "uint256",
          "name": "",
          "type": "uint256"
        }
      ],
      "stateMutability": "view",
      "type": "function"
    },
    {
      "inputs": [
        {
          "internalType": "uint256",
          "name": "tumenId",
          "type": "uint256"
        },
        {
          "internalType": "address",
          "name": "candidate",
          "type": "address"
        }
      ],
      "name": "vote",
      "outputs": [],
      "stateMutability": "nonpayable",
      "type": "function"
    },
    {
      "inputs": [
        {
          "internalType": "address",
          "name": "",
          "type": "address"
        }
      ],
      "name": "votesFor",
      "outputs": [
        {
          "internalType": "uint256",
          "name": "",
          "type": "uint256"
        }
      ],
      "stateMutability": "view",
      "type": "function"
    },
    {
      "inputs": [],
      "name": "winner",
      "outputs": [
        {
          "internalType": "address",
          "name": "",
          "type": "address"
        }
      ],
      "stateMutability": "view",
      "type": "function"
    }
  ],
  "bytecode": "0x60e0604052346101855761094e803803806100198161018a565b92833981019060608183031261018557610032816101af565b916020906100418284016101af565b93604084015160018060401b039485821161018557019482601f870112156101855785519285841161015f578360051b968561007e818a0161018a565b8096815201908682998201019283116101855786809101915b83831061017557505050506001600160a01b039182166080521660a0525191821161015f5768010000000000000000821161015f57600092835483855580841061013a575b5090838052808420935b838110610128574260c05260405161078a90816101c482396080518181816103670152610665015260a05181818160f901526101d6015260c051816102d30152f35b825185820155918101916001016100e6565b8480528383862091820191015b81811061015457506100dc565b858155600101610147565b634e487b7160e01b600052604160045260246000fd5b8251815291810191879101610097565b600080fd5b6040519190601f01601f191682016001600160401b0381118382101761015f57604052565b51906001600160a01b03821682036101855756fe6080604081815260048036101561001557600080fd5b600092833560e01c90816302d947ef146104285750806309eef43e146103ea5780631f55dc8f146103cd5780634bb278f3146103965780637b10399914610352578063a50cd8e71461031a578063b3f05b97146102f6578063cf09e0d0146102bb578063d5e7100214610159578063dfbf53ae1461012c578063eb0d5601146100e45763fafd0de3146100a757600080fd5b346100e05760203660031901126100e057359180548310156100dd57506100cf6020926105a5565b91905490519160031b1c8152f35b80fd5b8280fd5b505034610128578160031936011261012857517f00000000000000000000000000000000000000000000000000000000000000006001600160a01b03168152602090f35b5080fd5b505034610128578160031936011261012857600154905160089190911c6001600160a01b03168152602090f35b5090346100e05760203660031901126100e05761017461058a565b906001549260ff84166102ad576001600160a01b0383811694851561029d578654948688526002602052848820549560011c86111561028d576001600160a81b031990911660089190911b610100600160a81b031617600190811790558591907f000000000000000000000000000000000000000000000000000000000000000016803b156100e0578290602485518095819363a7b4952960e01b83528a878401525af1801561028357610252575b50507f66b6851664a82efe6b871e434faba2b11421d2dad65eb71a344ae76cca8a2b869160209151908152a280f35b67ffffffffffffffff82969396116102705750845292816020610223565b634e487b7160e01b835260419052602482fd5b83513d88823e3d90fd5b8451638b9ae95f60e01b81528490fd5b835163e66ea08f60e01b81528390fd5b9051632b372a4360e01b8152fd5b505034610128578160031936011261012857602090517f00000000000000000000000000000000000000000000000000000000000000008152f35b50503461012857816003193601126101285760209060ff6001541690519015158152f35b5050346101285760203660031901126101285760209181906001600160a01b0361034261058a565b1681526002845220549051908152f35b505034610128578160031936011261012857517f00000000000000000000000000000000000000000000000000000000000000006001600160a01b03168152602090f35b5091346100dd57806003193601126100dd575060ff600154166103c05751638b9ae95f60e01b8152fd5b51632b372a4360e01b8152fd5b505034610128578160031936011261012857602091549051908152f35b5050346101285760203660031901126101285760209160ff9082906001600160a01b0361041561058a565b1681526003855220541690519015158152f35b92919050346105865781600319360112610586576024356001600160a01b03811693823593918590036105825760019060ff600154166105745750841561056657338652600390600360205260ff8388205416610557576104898533610646565b156105485786548792835b82811061051e575b5050505015610511573385526003602052808520600160ff1982541617905583855260026020528420805491600183018093116104fe57505533907ff6c8f1f54b2f54fb963820203fdef5b9aefb56ae2c4dd8b6133e151791a07f368480a480f35b634e487b7160e01b865260119052602485fd5b5163f0f9435f60e01b8152fd5b87610528826105a5565b905490841b1c1461053a578301610494565b50505090503880808061049c565b50505163f0f9435f60e01b8152fd5b505051637c9a1cf960e01b8152fd5b505163e66ea08f60e01b8152fd5b632b372a4360e01b81528390fd5b8580fd5b8380fd5b600435906001600160a01b03821682036105a057565b600080fd5b9060009182548110156105db578280527f290decd9548b62a8d60345a988386fc84ba6bc95484008f6362f93160ef3e563019190565b634e487b7160e01b83526032600452602483fd5b90601f8019910116810190811067ffffffffffffffff82111761061157604052565b634e487b7160e01b600052604160045260246000fd5b908160209103126105a057516001600160a01b03811681036105a05790565b6040516337e23b4160e01b8152600481018390526001600160a01b03927f00000000000000000000000000000000000000000000000000000000000000008416926020929091908381602481885afa8015610721578691600091610737575b50161561072d578290602460405180968193637d88f1f160e01b835260048301525afa9283156107215784926000946106f2575b505016918291161490816106eb575090565b9050151590565b610712929450803d1061071a575b61070a81836105ef565b810190610627565b9138806106d9565b503d610700565b6040513d6000823e3d90fd5b5050505050600090565b61074e9150853d871161071a5761070a81836105ef565b386106a556fea26469706673582212202949f233d953c5ac5ce7b4588452fafd73c4dd4a6f89540bb5ea6c118b7063be64736f6c63430008180033",
  "linkReferences": {},
  "deployedLinkReferences": {}
}