{"contracts/Organization.sol":{"Organization":{"abi":[{"inputs":[{"internalType":"address","name":"_founder","type":"address"},{"internalType":"enum Organization.OrgType","name":"_orgType","type":"uint8"},{"internalType":"enum Organization.Branch","name":"_branch","type":"uint8"},{"internalType":"address","name":"_notary","type":"address"},{"internalType":"address","name":"_archivist","type":"address"},{"internalType":"address","name":"_structureRegistry","type":"address"},{"internalType":"address","name":"_documentRegistry","type":"address"}],"stateMutability":"nonpayable","type":"constructor"},{"inputs":[],"name":"AccessControlBadConfirmation","type":"error"},{"inputs":[{"internalType":"address","name":"account","type":"address"},{"internalType":"bytes32","name":"neededRole","type":"bytes32"}],"name":"AccessControlUnauthorizedAccount","type":"error"},{"inputs":[],"name":"ZERO_ADDRESS","type":"error"},{"anonymous":false,"inputs":[{"indexed":true,"internalType":"address","name":"notary","type":"address"},{"indexed":true,"internalType":"address","name":"archivist","type":"address"}],"name":"CenterUpdated","type":"event"},{"anonymous":false,"inputs":[{"indexed":true,"internalType":"address","name":"structureRegistry","type":"address"},{"indexed":true,"internalType":"address","name":"documentRegistry","type":"address"}],"name":"ModulesUpdated","type":"event"},{"anonymous":false,"inputs":[{"indexed":true,"internalType":"address","name":"org","type":"address"},{"indexed":true,"internalType":"address","name":"founder","type":"address"},{"indexed":false,"internalType":"enum Organization.OrgType","name":"orgType","type":"uint8"},{"indexed":false,"internalType":"enum Organization.Branch","name":"branch","type":"uint8"}],"name":"OrganizationCreated","type":"event"},{"anonymous":false,"inputs":[{"indexed":true,"internalType":"bytes32","name":"role","type":"bytes32"},{"indexed":true,"internalType":"bytes32","name":"previousAdminRole","type":"bytes32"},{"indexed":true,"internalType":"bytes32","name":"newAdminRole","type":"bytes32"}],"name":"RoleAdminChanged","type":"event"},{"anonymous":false,"inputs":[{"indexed":true,"internalType":"bytes32","name":"role","type":"bytes32"},{"indexed":true,"internalType":"address","name":"account","type":"address"},{"indexed":true,"internalType":"address","name":"sender","type":"address"}],"name":"RoleGranted","type":"event"},{"anonymous":false,"inputs":[{"indexed":true,"internalType":"bytes32","name":"role","type":"bytes32"},{"indexed":true,"internalType":"address","name":"account","type":"address"},{"indexed":true,"internalType":"address","name":"sender","type":"address"}],"name":"RoleRevoked","type":"event"},{"inputs":[],"name":"DEFAULT_ADMIN_ROLE","outputs":[{"internalType":"bytes32","name":"","type":"bytes32"}],"stateMutability":"view","type":"function"},{"inputs":[],"name":"ORG_ADMIN_ROLE","outputs":[{"internalType":"bytes32","name":"","type":"bytes32"}],"stateMutability":"view","type":"function"},{"inputs":[],"name":"archivist","outputs":[{"internalType":"address","name":"","type":"address"}],"stateMutability":"view","type":"function"},{"inputs":[],"name":"branch","outputs":[{"internalType":"enum Organization.Branch","name":"","type":"uint8"}],"stateMutability":"view","type":"function"},{"inputs":[],"name":"documentRegistry","outputs":[{"internalType":"address","name":"","type":"address"}],"stateMutability":"view","type":"function"},{"inputs":[],"name":"founder","outputs":[{"internalType":"address","name":"","type":"address"}],"stateMutability":"view","type":"function"},{"inputs":[{"internalType":"bytes32","name":"role","type":"bytes32"}],"name":"getRoleAdmin","outputs":[{"internalType":"bytes32","name":"","type":"bytes32"}],"stateMutability":"view","type":"function"},{"inputs":[{"internalType":"bytes32","name":"role","type":"bytes32"},{"internalType":"address","name":"account","type":"address"}],"name":"grantRole","outputs":[],"stateMutability":"nonpayable","type":"function"},{"inputs":[{"internalType":"bytes32","name":"role","type":"bytes32"},{"internalType":"address","name":"account","type":"address"}],"name":"hasRole","outputs":[{"internalType":"bool","name":"","type":"bool"}],"stateMutability":"view","type":"function"},{"inputs":[],"name":"notary","outputs":[{"internalType":"address","name":"","type":"address"}],"stateMutability":"view","type":"function"},{"inputs":[],"name":"orgType","outputs":[{"internalType":"enum Organization.OrgType","name":"","type":"uint8"}],"stateMutability":"view","type":"function"},{"inputs":[{"internalType":"bytes32","name":"role","type":"bytes32"},{"internalType":"address","name":"callerConfirmation","type":"address"}],"name":"renounceRole","outputs":[],"stateMutability":"nonpayable","type":"function"},{"inputs":[{"internalType":"bytes32","name":"role","type":"bytes32"},{"internalType":"address","name":"account","type":"address"}],"name":"revokeRole","outputs":[],"stateMutability":"nonpayable","type":"function"},{"inputs":[{"internalType":"address","name":"_notary","type":"address"},{"internalType":"address","name":"_archivist","type":"address"}],"name":"setCenter","outputs":[],"stateMutability":"nonpayable","type":"function"},{"inputs":[{"internalType":"address","name":"_structureRegistry","type":"address"},{"internalType":"address","name":"_documentRegistry","type":"address"}],"name":"setModules","outputs":[],"stateMutability":"nonpayable","type":"function"},{"inputs":[],"name":"structureRegistry","outputs":[{"internalType":"address","name":"","type":"address"}],"stateMutability":"view","type":"function"},{"inputs":[{"internalType":"bytes4","name":"interfaceId","type":"bytes4"}],"name":"supportsInterface","outputs":[{"internalType":"bool","name":"","type":"bool"}],"stateMutability":"view","type":"function"}],"evm":{"bytecode":{"linkReferences":{},"object":"60e0346101bd57601f610a5f38819003918201601f191683019291906001600160401b038411838510176101c2578160e092849260409687528339810103126101bd5761004b816101d8565b9160208201519160038310156101bd57818101519160058310156101bd57610075606083016101d8565b94610082608084016101d8565b9461009b60c061009460a087016101d8565b95016101d8565b9460018060a01b03978884169384156101ac57906100cf828b9360c052856080528460a0526100c9816101ec565b5061026a565b501697808060018060a01b0319998b8b60015416176001551696878a60025416176002551696878960035416176003551680976004541617600455835191825260208201527f6ea0800c4ae91c90014c4336424489e44c66e01db9fff5710af54833089f05bb833092a351937f53ae3b3eca082f3cd2154629b38b35d9ce679a46ec9909cc1324430452486510600080a37f323c4c64ab73ed697a6c978f74508faec97aed0cdf6f5f0ed8d93b8d22dd5f18600080a3610734908161030b8239608051816104b4015260a051816103c0015260c0518161037d0152f35b855163538ba4f960e01b8152600490fd5b600080fd5b634e487b7160e01b600052604160045260246000fd5b51906001600160a01b03821682036101bd57565b6001600160a01b031660008181527fad3228b676f7d3cd4284a5443f17f1962b36e491b30a40b2405849e597ba5fb5602052604081205490919060ff1661026657818052816020526040822081835260205260408220600160ff198254161790553391600080516020610a3f8339815191528180a4600190565b5090565b6001600160a01b031660008181527f386cd1a3857da36cb3baacbb40302f4aca20322003f1c1b95105ae41812a31a160205260408120549091907f123b642491709420c2370bb98c4e7de2b1bc05c5f9fd95ac4111e12683553c629060ff1661030557808352826020526040832082845260205260408320600160ff19825416179055600080516020610a3f833981519152339380a4600190565b50509056fe608060408181526004918236101561001657600080fd5b600092833560e01c91826301ffc9a7146104e75750816323a989e1146104a0578163248a9ca3146104765781632f2ff15d1461044c57816336568abe146104065781634b72d0d4146103ac5781634d853ee5146103685781636c3783341461033f57816382c1a089146102ba57816391d14854146102745781639d54c79d1461024b578163a217fddf14610230578163a4a1160f14610208578163d0ca2f67146101cd578163d547741f1461018e578163d74a5d001461010b575063f73011af146100e057600080fd5b3461010757816003193601126101075760025490516001600160a01b039091168152602090f35b5080fd5b9190503461018a5736600319011261010757610125610555565b61012d61053a565b9161013661056b565b600380546001600160a01b03199081166001600160a01b039485169081179092558254169390921692831790557f323c4c64ab73ed697a6c978f74508faec97aed0cdf6f5f0ed8d93b8d22dd5f188380a380f35b8280fd5b9190503461018a578060031936011261018a576101c991356101c460016101b361053a565b9383875286602052862001546105e5565b610689565b5080f35b505034610107578160031936011261010757602090517f123b642491709420c2370bb98c4e7de2b1bc05c5f9fd95ac4111e12683553c628152f35b90503461018a578260031936011261018a575490516001600160a01b03909116815260209150f35b50503461010757816003193601126101075751908152602090f35b50503461010757816003193601126101075760015490516001600160a01b039091168152602090f35b90503461018a578160031936011261018a578160209360ff9261029561053a565b903582528186528282206001600160a01b039091168252855220549151911615158152f35b5050346101075736600319011261033c576102d3610555565b6102db61053a565b906102e461056b565b60018060a01b03809116906bffffffffffffffffffffffff60a01b928284600154161760015516809260025416176002557f53ae3b3eca082f3cd2154629b38b35d9ce679a46ec9909cc13244304524865108380a380f35b80fd5b50503461010757816003193601126101075760035490516001600160a01b039091168152602090f35b505034610107578160031936011261010757517f00000000000000000000000000000000000000000000000000000000000000006001600160a01b03168152602090f35b8383346101075781600319360112610107577f000000000000000000000000000000000000000000000000000000000000000090519160058210156103f357602083838152f35b634e487b7160e01b815260218452602490fd5b83833461010757806003193601126101075761042061053a565b90336001600160a01b0383160361043d57506101c9919235610689565b5163334bd91960e11b81528390fd5b9190503461018a578060031936011261018a576101c9913561047160016101b361053a565b61060b565b90503461018a57602036600319011261018a57816020936001923581528085522001549051908152f35b8383346101075781600319360112610107577f000000000000000000000000000000000000000000000000000000000000000090519160038210156103f357602083838152f35b84913461018a57602036600319011261018a573563ffffffff60e01b811680910361018a5760209250637965db0b60e01b8114908115610529575b5015158152f35b6301ffc9a760e01b14905083610522565b602435906001600160a01b038216820361055057565b600080fd5b600435906001600160a01b038216820361055057565b3360009081527f386cd1a3857da36cb3baacbb40302f4aca20322003f1c1b95105ae41812a31a160205260409020547f123b642491709420c2370bb98c4e7de2b1bc05c5f9fd95ac4111e12683553c629060ff16156105c75750565b6044906040519063e2517d3f60e01b82523360048301526024820152fd5b80600052600060205260406000203360005260205260ff60406000205416156105c75750565b9060009180835282602052604083209160018060a01b03169182845260205260ff6040842054161560001461068457808352826020526040832082845260205260408320600160ff198254161790557f2f8788117e7eff1d82e926ec794901d17c78024a50270940304540a733656f0d339380a4600190565b505090565b9060009180835282602052604083209160018060a01b03169182845260205260ff6040842054166000146106845780835282602052604083208284526020526040832060ff1981541690557ff6391f5c32d9c69d2a47ea670b442974b53935d1edc7fd64eb21e047a839171b339380a460019056fea2646970667358221220f1d90f5a96206504f459b84b8bc99f44c6c54736491b161410e3bac1d8fb6da764736f6c634300081800332f8788117e7eff1d82e926ec794901d17c78024a50270940304540a733656f0d","opcodes":"PUSH1 0xE0 CALLVALUE PUSH2 0x1BD JUMPI PUSH1 0x1F PUSH2 0xA5F CODESIZE DUP2 SWAP1 SUB SWAP2 DUP3 ADD PUSH1 0x1F NOT AND DUP4 ADD SWAP3 SWAP2 SWAP1 PUSH1 0x1 PUSH1 0x1 PUSH1 0x40 SHL SUB DUP5 GT DUP4 DUP6 LT OR PUSH2 0x1C2 JUMPI DUP2 PUSH1 0xE0 SWAP3 DUP5 SWAP3 PUSH1 0x40 SWAP7 DUP8 MSTORE DUP4 CODECOPY DUP2 ADD SUB SLT PUSH2 0x1BD JUMPI PUSH2 0x4B DUP2 PUSH2 0x1D8 JUMP JUMPDEST SWAP2 PUSH1 0x20 DUP3 ADD MLOAD SWAP2 PUSH1 0x3 DUP4 LT ISZERO PUSH2 0x1BD JUMPI DUP2 DUP2 ADD MLOAD SWAP2 PUSH1 0x5 DUP4 LT ISZERO PUSH2 0x1BD JUMPI PUSH2 0x75 PUSH1 0x60 DUP4 ADD PUSH2 0x1D8 JUMP JUMPDEST SWAP5 PUSH2 0x82 PUSH1 0x80 DUP5 ADD PUSH2 0x1D8 JUMP JUMPDEST SWAP5 PUSH2 0x9B PUSH1 0xC0 PUSH2 0x94 PUSH1 0xA0 DUP8 ADD PUSH2 0x1D8 JUMP JUMPDEST SWAP6 ADD PUSH2 0x1D8 JUMP JUMPDEST SWAP5 PUSH1 0x1 DUP1 PUSH1 0xA0 SHL SUB SWAP8 DUP9 DUP5 AND SWAP4 DUP5 ISZERO PUSH2 0x1AC JUMPI SWAP1 PUSH2 0xCF DUP3 DUP12 SWAP4 PUSH1 0xC0 MSTORE DUP6 PUSH1 0x80 MSTORE DUP5 PUSH1 0xA0 MSTORE PUSH2 0xC9 DUP2 PUSH2 0x1EC JUMP JUMPDEST POP PUSH2 0x26A JUMP JUMPDEST POP AND SWAP8 DUP1 DUP1 PUSH1 0x1 DUP1 PUSH1 0xA0 SHL SUB NOT SWAP10 DUP12 DUP12 PUSH1 0x1 SLOAD AND OR PUSH1 0x1 SSTORE AND SWAP7 DUP8 DUP11 PUSH1 0x2 SLOAD AND OR PUSH1 0x2 SSTORE AND SWAP7 DUP8 DUP10 PUSH1 0x3 SLOAD AND OR PUSH1 0x3 SSTORE AND DUP1 SWAP8 PUSH1 0x4 SLOAD AND OR PUSH1 0x4 SSTORE DUP4 MLOAD SWAP2 DUP3 MSTORE PUSH1 0x20 DUP3 ADD MSTORE PUSH32 0x6EA0800C4AE91C90014C4336424489E44C66E01DB9FFF5710AF54833089F05BB DUP4 ADDRESS SWAP3 LOG3 MLOAD SWAP4 PUSH32 0x53AE3B3ECA082F3CD2154629B38B35D9CE679A46EC9909CC1324430452486510 PUSH1 0x0 DUP1 LOG3 PUSH32 0x323C4C64AB73ED697A6C978F74508FAEC97AED0CDF6F5F0ED8D93B8D22DD5F18 PUSH1 0x0 DUP1 LOG3 PUSH2 0x734 SWAP1 DUP2 PUSH2 0x30B DUP3 CODECOPY PUSH1 0x80 MLOAD DUP2 PUSH2 0x4B4 ADD MSTORE PUSH1 0xA0 MLOAD DUP2 PUSH2 0x3C0 ADD MSTORE PUSH1 0xC0 MLOAD DUP2 PUSH2 0x37D ADD MSTORE RETURN JUMPDEST DUP6 MLOAD PUSH4 0x538BA4F9 PUSH1 0xE0 SHL DUP2 MSTORE PUSH1 0x4 SWAP1 REVERT JUMPDEST PUSH1 0x0 DUP1 REVERT JUMPDEST PUSH4 0x4E487B71 PUSH1 0xE0 SHL PUSH1 0x0 MSTORE PUSH1 0x41 PUSH1 0x4 MSTORE PUSH1 0x24 PUSH1 0x0 REVERT JUMPDEST MLOAD SWAP1 PUSH1 0x1 PUSH1 0x1 PUSH1 0xA0 SHL SUB DUP3 AND DUP3 SUB PUSH2 0x1BD JUMPI JUMP JUMPDEST PUSH1 0x1 PUSH1 0x1 PUSH1 0xA0 SHL SUB AND PUSH1 0x0 DUP2 DUP2 MSTORE PUSH32 0xAD3228B676F7D3CD4284A5443F17F1962B36E491B30A40B2405849E597BA5FB5 PUSH1 0x20 MSTORE PUSH1 0x40 DUP2 KECCAK256 SLOAD SWAP1 SWAP2 SWAP1 PUSH1 0xFF AND PUSH2 0x266 JUMPI DUP2 DUP1 MSTORE DUP2 PUSH1 0x20 MSTORE PUSH1 0x40 DUP3 KECCAK256 DUP2 DUP4 MSTORE PUSH1 0x20 MSTORE PUSH1 0x40 DUP3 KECCAK256 PUSH1 0x1 PUSH1 0xFF NOT DUP3 SLOAD AND OR SWAP1 SSTORE CALLER SWAP2 PUSH1 0x0 DUP1 MLOAD PUSH1 0x20 PUSH2 0xA3F DUP4 CODECOPY DUP2 MLOAD SWAP2 MSTORE DUP2 DUP1 LOG4 PUSH1 0x1 SWAP1 JUMP JUMPDEST POP SWAP1 JUMP JUMPDEST PUSH1 0x1 PUSH1 0x1 PUSH1 0xA0 SHL SUB AND PUSH1 0x0 DUP2 DUP2 MSTORE PUSH32 0x386CD1A3857DA36CB3BAACBB40302F4ACA20322003F1C1B95105AE41812A31A1 PUSH1 0x20 MSTORE PUSH1 0x40 DUP2 KECCAK256 SLOAD SWAP1 SWAP2 SWAP1 PUSH32 0x123B642491709420C2370BB98C4E7DE2B1BC05C5F9FD95AC4111E12683553C62 SWAP1 PUSH1 0xFF AND PUSH2 0x305 JUMPI DUP1 DUP4 MSTORE DUP3 PUSH1 0x20 MSTORE PUSH1 0x40 DUP4 KECCAK256 DUP3 DUP5 MSTORE PUSH1 0x20 MSTORE PUSH1 0x40 DUP4 KECCAK256 PUSH1 0x1 PUSH1 0xFF NOT DUP3 SLOAD AND OR SWAP1 SSTORE PUSH1 0x0 DUP1 MLOAD PUSH1 0x20 PUSH2 0xA3F DUP4 CODECOPY DUP2 MLOAD SWAP2 MSTORE CALLER SWAP4 DUP1 LOG4 PUSH1 0x1 SWAP1 JUMP JUMPDEST POP POP SWAP1 JUMP INVALID PUSH1 0x80 PUSH1 0x40 DUP2 DUP2 MSTORE PUSH1 0x4 SWAP2 DUP3 CALLDATASIZE LT ISZERO PUSH2 0x16 JUMPI PUSH1 0x0 DUP1 REVERT JUMPDEST PUSH1 0x0 SWAP3 DUP4 CALLDATALOAD PUSH1 0xE0 SHR SWAP2 DUP3 PUSH4 0x1FFC9A7 EQ PUSH2 0x4E7 JUMPI POP DUP2 PUSH4 0x23A989E1 EQ PUSH2 0x4A0 JUMPI DUP2 PUSH4 0x248A9CA3 EQ PUSH2 0x476 JUMPI DUP2 PUSH4 0x2F2FF15D EQ PUSH2 0x44C JUMPI DUP2 PUSH4 0x36568ABE EQ PUSH2 0x406 JUMPI DUP2 PUSH4 0x4B72D0D4 EQ PUSH2 0x3AC JUMPI DUP2 PUSH4 0x4D853EE5 EQ PUSH2 0x368 JUMPI DUP2 PUSH4 0x6C378334 EQ PUSH2 0x33F JUMPI DUP2 PUSH4 0x82C1A089 EQ PUSH2 0x2BA JUMPI DUP2 PUSH4 0x91D14854 EQ PUSH2 0x274 JUMPI DUP2 PUSH4 0x9D54C79D EQ PUSH2 0x24B JUMPI DUP2 PUSH4 0xA217FDDF EQ PUSH2 0x230 JUMPI DUP2 PUSH4 0xA4A1160F EQ PUSH2 0x208 JUMPI DUP2 PUSH4 0xD0CA2F67 EQ PUSH2 0x1CD JUMPI DUP2 PUSH4 0xD547741F EQ PUSH2 0x18E JUMPI DUP2 PUSH4 0xD74A5D00 EQ PUSH2 0x10B JUMPI POP PUSH4 0xF73011AF EQ PUSH2 0xE0 JUMPI PUSH1 0x0 DUP1 REVERT JUMPDEST CALLVALUE PUSH2 0x107 JUMPI DUP2 PUSH1 0x3 NOT CALLDATASIZE ADD SLT PUSH2 0x107 JUMPI PUSH1 0x2 SLOAD SWAP1 MLOAD PUSH1 0x1 PUSH1 0x1 PUSH1 0xA0 SHL SUB SWAP1 SWAP2 AND DUP2 MSTORE PUSH1 0x20 SWAP1 RETURN JUMPDEST POP DUP1 REVERT JUMPDEST SWAP2 SWAP1 POP CALLVALUE PUSH2 0x18A JUMPI CALLDATASIZE PUSH1 0x3 NOT ADD SLT PUSH2 0x107 JUMPI PUSH2 0x125 PUSH2 0x555 JUMP JUMPDEST PUSH2 0x12D PUSH2 0x53A JUMP JUMPDEST SWAP2 PUSH2 0x136 PUSH2 0x56B JUMP JUMPDEST PUSH1 0x3 DUP1 SLOAD PUSH1 0x1 PUSH1 0x1 PUSH1 0xA0 SHL SUB NOT SWAP1 DUP2 AND PUSH1 0x1 PUSH1 0x1 PUSH1 0xA0 SHL SUB SWAP5 DUP6 AND SWAP1 DUP2 OR SWAP1 SWAP3 SSTORE DUP3 SLOAD AND SWAP4 SWAP1 SWAP3 AND SWAP3 DUP4 OR SWAP1 SSTORE PUSH32 0x323C4C64AB73ED697A6C978F74508FAEC97AED0CDF6F5F0ED8D93B8D22DD5F18 DUP4 DUP1 LOG3 DUP1 RETURN JUMPDEST DUP3 DUP1 REVERT JUMPDEST SWAP2 SWAP1 POP CALLVALUE PUSH2 0x18A JUMPI DUP1 PUSH1 0x3 NOT CALLDATASIZE ADD SLT PUSH2 0x18A JUMPI PUSH2 0x1C9 SWAP2 CALLDATALOAD PUSH2 0x1C4 PUSH1 0x1 PUSH2 0x1B3 PUSH2 0x53A JUMP JUMPDEST SWAP4 DUP4 DUP8 MSTORE DUP7 PUSH1 0x20 MSTORE DUP7 KECCAK256 ADD SLOAD PUSH2 0x5E5 JUMP JUMPDEST PUSH2 0x689 JUMP JUMPDEST POP DUP1 RETURN JUMPDEST POP POP CALLVALUE PUSH2 0x107 JUMPI DUP2 PUSH1 0x3 NOT CALLDATASIZE ADD SLT PUSH2 0x107 JUMPI PUSH1 0x20 SWAP1 MLOAD PUSH32 0x123B642491709420C2370BB98C4E7DE2B1BC05C5F9FD95AC4111E12683553C62 DUP2 MSTORE RETURN JUMPDEST SWAP1 POP CALLVALUE PUSH2 0x18A JUMPI DUP3 PUSH1 0x3 NOT CALLDATASIZE ADD SLT PUSH2 0x18A JUMPI SLOAD SWAP1 MLOAD PUSH1 0x1 PUSH1 0x1 PUSH1 0xA0 SHL SUB SWAP1 SWAP2 AND DUP2 MSTORE PUSH1 0x20 SWAP2 POP RETURN JUMPDEST POP POP CALLVALUE PUSH2 0x107 JUMPI DUP2 PUSH1 0x3 NOT CALLDATASIZE ADD SLT PUSH2 0x107 JUMPI MLOAD SWAP1 DUP2 MSTORE PUSH1 0x20 SWAP1 RETURN JUMPDEST POP POP CALLVALUE PUSH2 0x107 JUMPI DUP2 PUSH1 0x3 NOT CALLDATASIZE ADD SLT PUSH2 0x107 JUMPI PUSH1 0x1 SLOAD SWAP1 MLOAD PUSH1 0x1 PUSH1 0x1 PUSH1 0xA0 SHL SUB SWAP1 SWAP2 AND DUP2 MSTORE PUSH1 0x20 SWAP1 RETURN JUMPDEST SWAP1 POP CALLVALUE PUSH2 0x18A JUMPI DUP2 PUSH1 0x3 NOT CALLDATASIZE ADD SLT PUSH2 0x18A JUMPI DUP2 PUSH1 0x20 SWAP4 PUSH1 0xFF SWAP3 PUSH2 0x295 PUSH2 0x53A JUMP JUMPDEST SWAP1 CALLDATALOAD DUP3 MSTORE DUP2 DUP7 MSTORE DUP3 DUP3 KECCAK256 PUSH1 0x1 PUSH1 0x1 PUSH1 0xA0 SHL SUB SWAP1 SWAP2 AND DUP3 MSTORE DUP6 MSTORE KECCAK256 SLOAD SWAP2 MLOAD SWAP2 AND ISZERO ISZERO DUP2 MSTORE RETURN JUMPDEST POP POP CALLVALUE PUSH2 0x107 JUMPI CALLDATASIZE PUSH1 0x3 NOT ADD SLT PUSH2 0x33C JUMPI PUSH2 0x2D3 PUSH2 0x555 JUMP JUMPDEST PUSH2 0x2DB PUSH2 0x53A JUMP JUMPDEST SWAP1 PUSH2 0x2E4 PUSH2 0x56B JUMP JUMPDEST PUSH1 0x1 DUP1 PUSH1 0xA0 SHL SUB DUP1 SWAP2 AND SWAP1 PUSH12 0xFFFFFFFFFFFFFFFFFFFFFFFF PUSH1 0xA0 SHL SWAP3 DUP3 DUP5 PUSH1 0x1 SLOAD AND OR PUSH1 0x1 SSTORE AND DUP1 SWAP3 PUSH1 0x2 SLOAD AND OR PUSH1 0x2 SSTORE PUSH32 0x53AE3B3ECA082F3CD2154629B38B35D9CE679A46EC9909CC1324430452486510 DUP4 DUP1 LOG3 DUP1 RETURN JUMPDEST DUP1 REVERT JUMPDEST POP POP CALLVALUE PUSH2 0x107 JUMPI DUP2 PUSH1 0x3 NOT CALLDATASIZE ADD SLT PUSH2 0x107 JUMPI PUSH1 0x3 SLOAD SWAP1 MLOAD PUSH1 0x1 PUSH1 0x1 PUSH1 0xA0 SHL SUB SWAP1 SWAP2 AND DUP2 MSTORE PUSH1 0x20 SWAP1 RETURN JUMPDEST POP POP CALLVALUE PUSH2 0x107 JUMPI DUP2 PUSH1 0x3 NOT CALLDATASIZE ADD SLT PUSH2 0x107 JUMPI MLOAD PUSH32 0x0 PUSH1 0x1 PUSH1 0x1 PUSH1 0xA0 SHL SUB AND DUP2 MSTORE PUSH1 0x20 SWAP1 RETURN JUMPDEST DUP4 DUP4 CALLVALUE PUSH2 0x107 JUMPI DUP2 PUSH1 0x3 NOT CALLDATASIZE ADD SLT PUSH2 0x107 JUMPI PUSH32 0x0 SWAP1 MLOAD SWAP2 PUSH1 0x5 DUP3 LT ISZERO PUSH2 0x3F3 JUMPI PUSH1 0x20 DUP4 DUP4 DUP2 MSTORE RETURN JUMPDEST PUSH4 0x4E487B71 PUSH1 0xE0 SHL DUP2 MSTORE PUSH1 0x21 DUP5 MSTORE PUSH1 0x24 SWAP1 REVERT JUMPDEST DUP4 DUP4 CALLVALUE PUSH2 0x107 JUMPI DUP1 PUSH1 0x3 NOT CALLDATASIZE ADD SLT PUSH2 0x107 JUMPI PUSH2 0x420 PUSH2 0x53A JUMP JUMPDEST SWAP1 CALLER PUSH1 0x1 PUSH1 0x1 PUSH1 0xA0 SHL SUB DUP4 AND SUB PUSH2 0x43D JUMPI POP PUSH2 0x1C9 SWAP2 SWAP3 CALLDATALOAD PUSH2 0x689 JUMP JUMPDEST MLOAD PUSH4 0x334BD919 PUSH1 0xE1 SHL DUP2 MSTORE DUP4 SWAP1 REVERT JUMPDEST SWAP2 SWAP1 POP CALLVALUE PUSH2 0x18A JUMPI DUP1 PUSH1 0x3 NOT CALLDATASIZE ADD SLT PUSH2 0x18A JUMPI PUSH2 0x1C9 SWAP2 CALLDATALOAD PUSH2 0x471 PUSH1 0x1 PUSH2 0x1B3 PUSH2 0x53A JUMP JUMPDEST PUSH2 0x60B JUMP JUMPDEST SWAP1 POP CALLVALUE PUSH2 0x18A JUMPI PUSH1 0x20 CALLDATASIZE PUSH1 0x3 NOT ADD SLT PUSH2 0x18A JUMPI DUP2 PUSH1 0x20 SWAP4 PUSH1 0x1 SWAP3 CALLDATALOAD DUP2 MSTORE DUP1 DUP6 MSTORE KECCAK256 ADD SLOAD SWAP1 MLOAD SWAP1 DUP2 MSTORE RETURN JUMPDEST DUP4 DUP4 CALLVALUE PUSH2 0x107 JUMPI DUP2 PUSH1 0x3 NOT CALLDATASIZE ADD SLT PUSH2 0x107 JUMPI PUSH32 0x0 SWAP1 MLOAD SWAP2 PUSH1 0x3 DUP3 LT ISZERO PUSH2 0x3F3 JUMPI PUSH1 0x20 DUP4 DUP4 DUP2 MSTORE RETURN JUMPDEST DUP5 SWAP2 CALLVALUE PUSH2 0x18A JUMPI PUSH1 0x20 CALLDATASIZE PUSH1 0x3 NOT ADD SLT PUSH2 0x18A JUMPI CALLDATALOAD PUSH4 0xFFFFFFFF PUSH1 0xE0 SHL DUP2 AND DUP1 SWAP2 SUB PUSH2 0x18A JUMPI PUSH1 0x20 SWAP3 POP PUSH4 0x7965DB0B PUSH1 0xE0 SHL DUP2 EQ SWAP1 DUP2 ISZERO PUSH2 0x529 JUMPI JUMPDEST POP ISZERO ISZERO DUP2 MSTORE RETURN JUMPDEST PUSH4 0x1FFC9A7 PUSH1 0xE0 SHL EQ SWAP1 POP DUP4 PUSH2 0x522 JUMP JUMPDEST PUSH1 0x24 CALLDATALOAD SWAP1 PUSH1 0x1 PUSH1 0x1 PUSH1 0xA0 SHL SUB DUP3 AND DUP3 SUB PUSH2 0x550 JUMPI JUMP JUMPDEST PUSH1 0x0 DUP1 REVERT JUMPDEST PUSH1 0x4 CALLDATALOAD SWAP1 PUSH1 0x1 PUSH1 0x1 PUSH1 0xA0 SHL SUB DUP3 AND DUP3 SUB PUSH2 0x550 JUMPI JUMP JUMPDEST CALLER PUSH1 0x0 SWAP1 DUP2 MSTORE PUSH32 0x386CD1A3857DA36CB3BAACBB40302F4ACA20322003F1C1B95105AE41812A31A1 PUSH1 0x20 MSTORE PUSH1 0x40 SWAP1 KECCAK256 SLOAD PUSH32 0x123B642491709420C2370BB98C4E7DE2B1BC05C5F9FD95AC4111E12683553C62 SWAP1 PUSH1 0xFF AND ISZERO PUSH2 0x5C7 JUMPI POP JUMP JUMPDEST PUSH1 0x44 SWAP1 PUSH1 0x40 MLOAD SWAP1 PUSH4 0xE2517D3F PUSH1 0xE0 SHL DUP3 MSTORE CALLER PUSH1 0x4 DUP4 ADD MSTORE PUSH1 0x24 DUP3 ADD MSTORE REVERT JUMPDEST DUP1 PUSH1 0x0 MSTORE PUSH1 0x0 PUSH1 0x20 MSTORE PUSH1 0x40 PUSH1 0x0 KECCAK256 CALLER PUSH1 0x0 MSTORE PUSH1 0x20 MSTORE PUSH1 0xFF PUSH1 0x40 PUSH1 0x0 KECCAK256 SLOAD AND ISZERO PUSH2 0x5C7 JUMPI POP JUMP JUMPDEST SWAP1 PUSH1 0x0 SWAP2 DUP1 DUP4 MSTORE DUP3 PUSH1 0x20 MSTORE PUSH1 0x40 DUP4 KECCAK256 SWAP2 PUSH1 0x1 DUP1 PUSH1 0xA0 SHL SUB AND SWAP2 DUP3 DUP5 MSTORE PUSH1 0x20 MSTORE PUSH1 0xFF PUSH1 0x40 DUP5 KECCAK256 SLOAD AND ISZERO PUSH1 0x0 EQ PUSH2 0x684 JUMPI DUP1 DUP4 MSTORE DUP3 PUSH1 0x20 MSTORE PUSH1 0x40 DUP4 KECCAK256 DUP3 DUP5 MSTORE PUSH1 0x20 MSTORE PUSH1 0x40 DUP4 KECCAK256 PUSH1 0x1 PUSH1 0xFF NOT DUP3 SLOAD AND OR SWAP1 SSTORE PUSH32 0x2F8788117E7EFF1D82E926EC794901D17C78024A50270940304540A733656F0D CALLER SWAP4 DUP1 LOG4 PUSH1 0x1 SWAP1 JUMP JUMPDEST POP POP SWAP1 JUMP JUMPDEST SWAP1 PUSH1 0x0 SWAP2 DUP1 DUP4 MSTORE DUP3 PUSH1 0x20 MSTORE PUSH1 0x40 DUP4 KECCAK256 SWAP2 PUSH1 0x1 DUP1 PUSH1 0xA0 SHL SUB AND SWAP2 DUP3 DUP5 MSTORE PUSH1 0x20 MSTORE PUSH1 0xFF PUSH1 0x40 DUP5 KECCAK256 SLOAD AND PUSH1 0x0 EQ PUSH2 0x684 JUMPI DUP1 DUP4 MSTORE DUP3 PUSH1 0x20 MSTORE PUSH1 0x40 DUP4 KECCAK256 DUP3 DUP5 MSTORE PUSH1 0x20 MSTORE PUSH1 0x40 DUP4 KECCAK256 PUSH1 0xFF NOT DUP2 SLOAD AND SWAP1 SSTORE PUSH32 0xF6391F5C32D9C69D2A47EA670B442974B53935D1EDC7FD64EB21E047A839171B CALLER SWAP4 DUP1 LOG4 PUSH1 0x1 SWAP1 JUMP INVALID LOG2 PUSH5 0x6970667358 0x22 SLT KECCAK256 CALL 0xD9 0xF GAS SWAP7 KECCAK256 PUSH6 0x4F459B84B8B 0xC9 SWAP16 PREVRANDAO 0xC6 0xC5 SELFBALANCE CALLDATASIZE BLOBHASH SHL AND EQ LT 0xE3 0xBA 0xC1 0xD8 0xFB PUSH14 0xA764736F6C634300081800332F87 DUP9 GT PUSH31 0x7EFF1D82E926EC794901D17C78024A50270940304540A733656F0D00000000 "},"methodIdentifiers":{"DEFAULT_ADMIN_ROLE()":"a217fddf","ORG_ADMIN_ROLE()":"d0ca2f67","archivist()":"f73011af","branch()":"4b72d0d4","documentRegistry()":"a4a1160f","founder()":"4d853ee5","getRoleAdmin(bytes32)":"248a9ca3","grantRole(bytes32,address)":"2f2ff15d","hasRole(bytes32,address)":"91d14854","notary()":"9d54c79d","orgType()":"23a989e1","renounceRole(bytes32,address)":"36568abe","revokeRole(bytes32,address)":"d547741f","setCenter(address,address)":"82c1a089","setModules(address,address)":"d74a5d00","structureRegistry()":"6c378334","supportsInterface(bytes4)":"01ffc9a7"}}}}}