{"contracts/ArbanRegistry.sol":{"ArbanRegistry":{"abi":[{"inputs":[{"internalType":"address","name":"organization_","type":"address"},{"internalType":"address","name":"seatSbt_","type":"address"},{"internalType":"address","name":"structureRegistry_","type":"address"}],"stateMutability":"nonpayable","type":"constructor"},{"inputs":[],"name":"AccessControlBadConfirmation","type":"error"},{"inputs":[{"internalType":"address","name":"account","type":"address"},{"internalType":"bytes32","name":"neededRole","type":"bytes32"}],"name":"AccessControlUnauthorizedAccount","type":"error"},{"inputs":[{"internalType":"uint256","name":"arbanId","type":"uint256"}],"name":"ArbanNotFound","type":"error"},{"inputs":[],"name":"DuplicateSeatId","type":"error"},{"inputs":[],"name":"InvalidCount","type":"error"},{"inputs":[],"name":"InvalidSeatId","type":"error"},{"inputs":[],"name":"NotAuthorizedJoinDoc","type":"error"},{"inputs":[],"name":"NotAuthorizedUpdater","type":"error"},{"inputs":[],"name":"NotOwner","type":"error"},{"inputs":[{"internalType":"uint256","name":"seatId","type":"uint256"}],"name":"NotSeatOwner","type":"error"},{"inputs":[{"internalType":"uint256","name":"seatId","type":"uint256"},{"internalType":"uint256","name":"arbanId","type":"uint256"}],"name":"SeatAlreadyInArban","type":"error"},{"inputs":[],"name":"ZeroAddress","type":"error"},{"anonymous":false,"inputs":[{"indexed":true,"internalType":"uint256","name":"arbanId","type":"uint256"},{"indexed":true,"internalType":"address","name":"arban","type":"address"},{"indexed":true,"internalType":"address","name":"leader","type":"address"},{"indexed":false,"internalType":"uint256[]","name":"seatIds","type":"uint256[]"}],"name":"ArbanCreated","type":"event"},{"anonymous":false,"inputs":[{"indexed":true,"internalType":"uint256","name":"arbanId","type":"uint256"},{"indexed":true,"internalType":"address","name":"oldLeader","type":"address"},{"indexed":true,"internalType":"address","name":"newLeader","type":"address"}],"name":"ArbanLeaderSet","type":"event"},{"anonymous":false,"inputs":[{"indexed":true,"internalType":"address","name":"doc","type":"address"},{"indexed":false,"internalType":"bool","name":"allowed","type":"bool"}],"name":"JoinDocAuthorized","type":"event"},{"anonymous":false,"inputs":[{"indexed":true,"internalType":"address","name":"newOwner","type":"address"}],"name":"OwnerSet","type":"event"},{"anonymous":false,"inputs":[{"indexed":true,"internalType":"bytes32","name":"role","type":"bytes32"},{"indexed":true,"internalType":"bytes32","name":"previousAdminRole","type":"bytes32"},{"indexed":true,"internalType":"bytes32","name":"newAdminRole","type":"bytes32"}],"name":"RoleAdminChanged","type":"event"},{"anonymous":false,"inputs":[{"indexed":true,"internalType":"bytes32","name":"role","type":"bytes32"},{"indexed":true,"internalType":"address","name":"account","type":"address"},{"indexed":true,"internalType":"address","name":"sender","type":"address"}],"name":"RoleGranted","type":"event"},{"anonymous":false,"inputs":[{"indexed":true,"internalType":"bytes32","name":"role","type":"bytes32"},{"indexed":true,"internalType":"address","name":"account","type":"address"},{"indexed":true,"internalType":"address","name":"sender","type":"address"}],"name":"RoleRevoked","type":"event"},{"anonymous":false,"inputs":[{"indexed":true,"internalType":"address","name":"structureRegistry","type":"address"}],"name":"StructureRegistrySet","type":"event"},{"anonymous":false,"inputs":[{"indexed":true,"internalType":"address","name":"upd","type":"address"},{"indexed":false,"internalType":"bool","name":"allowed","type":"bool"}],"name":"UpdaterAuthorized","type":"event"},{"inputs":[],"name":"ADMIN_ROLE","outputs":[{"internalType":"bytes32","name":"","type":"bytes32"}],"stateMutability":"view","type":"function"},{"inputs":[],"name":"DEFAULT_ADMIN_ROLE","outputs":[{"internalType":"bytes32","name":"","type":"bytes32"}],"stateMutability":"view","type":"function"},{"inputs":[{"internalType":"uint256","name":"arbanId","type":"uint256"},{"internalType":"address","name":"newLeader","type":"address"}],"name":"applyArbanLeader","outputs":[],"stateMutability":"nonpayable","type":"function"},{"inputs":[{"internalType":"uint256","name":"","type":"uint256"}],"name":"arbanAddress","outputs":[{"internalType":"address","name":"","type":"address"}],"stateMutability":"view","type":"function"},{"inputs":[{"internalType":"uint256","name":"","type":"uint256"}],"name":"arbanOfSeat","outputs":[{"internalType":"uint256","name":"","type":"uint256"}],"stateMutability":"view","type":"function"},{"inputs":[{"internalType":"address","name":"","type":"address"}],"name":"authorizedJoinDocs","outputs":[{"internalType":"bool","name":"","type":"bool"}],"stateMutability":"view","type":"function"},{"inputs":[{"internalType":"address","name":"","type":"address"}],"name":"authorizedUpdaters","outputs":[{"internalType":"bool","name":"","type":"bool"}],"stateMutability":"view","type":"function"},{"inputs":[{"internalType":"uint256[]","name":"seatIds","type":"uint256[]"},{"internalType":"address","name":"leader","type":"address"}],"name":"createArban","outputs":[{"internalType":"uint256","name":"arbanId","type":"uint256"},{"internalType":"address","name":"arban","type":"address"}],"stateMutability":"nonpayable","type":"function"},{"inputs":[{"internalType":"uint256","name":"arbanId","type":"uint256"},{"internalType":"address","name":"leader","type":"address"},{"internalType":"uint256[]","name":"seatIds","type":"uint256[]"}],"name":"finalizeArbanJoin","outputs":[],"stateMutability":"nonpayable","type":"function"},{"inputs":[{"internalType":"uint256","name":"arbanId","type":"uint256"}],"name":"getMembers","outputs":[{"internalType":"uint256[]","name":"","type":"uint256[]"}],"stateMutability":"view","type":"function"},{"inputs":[{"internalType":"bytes32","name":"role","type":"bytes32"}],"name":"getRoleAdmin","outputs":[{"internalType":"bytes32","name":"","type":"bytes32"}],"stateMutability":"view","type":"function"},{"inputs":[{"internalType":"bytes32","name":"role","type":"bytes32"},{"internalType":"address","name":"account","type":"address"}],"name":"grantRole","outputs":[],"stateMutability":"nonpayable","type":"function"},{"inputs":[{"internalType":"bytes32","name":"role","type":"bytes32"},{"internalType":"address","name":"account","type":"address"}],"name":"hasRole","outputs":[{"internalType":"bool","name":"","type":"bool"}],"stateMutability":"view","type":"function"},{"inputs":[{"internalType":"uint256","name":"","type":"uint256"}],"name":"leaderOfArban","outputs":[{"internalType":"address","name":"","type":"address"}],"stateMutability":"view","type":"function"},{"inputs":[{"internalType":"uint256","name":"arbanId","type":"uint256"}],"name":"memberCount","outputs":[{"internalType":"uint256","name":"","type":"uint256"}],"stateMutability":"view","type":"function"},{"inputs":[],"name":"nextArbanId","outputs":[{"internalType":"uint256","name":"","type":"uint256"}],"stateMutability":"view","type":"function"},{"inputs":[],"name":"organization","outputs":[{"internalType":"address","name":"","type":"address"}],"stateMutability":"view","type":"function"},{"inputs":[],"name":"owner","outputs":[{"internalType":"address","name":"","type":"address"}],"stateMutability":"view","type":"function"},{"inputs":[{"internalType":"bytes32","name":"role","type":"bytes32"},{"internalType":"address","name":"callerConfirmation","type":"address"}],"name":"renounceRole","outputs":[],"stateMutability":"nonpayable","type":"function"},{"inputs":[{"internalType":"bytes32","name":"role","type":"bytes32"},{"internalType":"address","name":"account","type":"address"}],"name":"revokeRole","outputs":[],"stateMutability":"nonpayable","type":"function"},{"inputs":[],"name":"seatSbt","outputs":[{"internalType":"address","name":"","type":"address"}],"stateMutability":"view","type":"function"},{"inputs":[{"internalType":"address","name":"doc","type":"address"},{"internalType":"bool","name":"ok","type":"bool"}],"name":"setJoinDoc","outputs":[],"stateMutability":"nonpayable","type":"function"},{"inputs":[{"internalType":"address","name":"newOwner","type":"address"}],"name":"setOwner","outputs":[],"stateMutability":"nonpayable","type":"function"},{"inputs":[{"internalType":"address","name":"sr","type":"address"}],"name":"setStructureRegistry","outputs":[],"stateMutability":"nonpayable","type":"function"},{"inputs":[{"internalType":"address","name":"upd","type":"address"},{"internalType":"bool","name":"ok","type":"bool"}],"name":"setUpdater","outputs":[],"stateMutability":"nonpayable","type":"function"},{"inputs":[],"name":"structureRegistry","outputs":[{"internalType":"address","name":"","type":"address"}],"stateMutability":"view","type":"function"},{"inputs":[{"internalType":"bytes4","name":"interfaceId","type":"bytes4"}],"name":"supportsInterface","outputs":[{"internalType":"bool","name":"","type":"bool"}],"stateMutability":"view","type":"function"}],"evm":{"bytecode":{"linkReferences":{},"object":"60c0346200015957601f6200245138819003918201601f19168301916001600160401b038311848410176200015e5780849260609460405283398101031262000159576200004d8162000174565b906200006a6040620000626020840162000174565b920162000174565b60016003556001600160a01b039180831615620001475760018060a01b0319933385600154161760015560805260a0521680916002541617600255620000b03362000189565b50620000bc3362000209565b5060405190337f50146d0e3c60aa1d17a70635b05494f864e86144a2201275021014fbf08bafe2600080a27f9d8e607abeee7c37c8f203cd775f3df4578d712649daaf68fc5a4773612f0018600080a26121859081620002ac823960805181818161044801528181610daa015261117a015260a0518181816103d801528181610c9a015261119f0152f35b60405163d92e233d60e01b8152600490fd5b600080fd5b634e487b7160e01b600052604160045260246000fd5b51906001600160a01b03821682036200015957565b6001600160a01b031660008181527fad3228b676f7d3cd4284a5443f17f1962b36e491b30a40b2405849e597ba5fb5602052604081205490919060ff166200020557818052816020526040822081835260205260408220600160ff198254161790553391600080516020620024318339815191528180a4600190565b5090565b6001600160a01b031660008181527f7d7ffb7a348e1c6a02869081a26547b49160dd3df72d1d75a570eb9b698292ec60205260408120549091907fa49807205ce4d355092ef5a8a18f56e8913cf4a201fbe287825b095693c217759060ff16620002a657808352826020526040832082845260205260408320600160ff1982541617905560008051602062002431833981519152339380a4600190565b50509056fe608060408181526004803610156200001657600080fd5b600092833560e01c90816301ffc9a71462001288575080630d6110561462000ee757806313af40351462000e535780631a1533911462000dd957806323bd4d7a1462000d93578063248a9ca31462000d6857806324de06ed1462000d475780632f2ff15d1462000d1757806336568abe1462000cc9578063388841b11462000c8357806350d50f491462000be1578063577d5f2b1462000a385780636c3783341462000a0d5780636e8165e814620009af57806375b238fc14620009725780638814b83b14620009305780638bba9e7814620008fc5780638da5cb5b14620008d15780638ff29cfe146200088f57806391d148541462000846578063a217fddf1462000829578063b2b4eeea146200036f578063b615a21a1462000346578063c477ecab1462000266578063c90d625414620001e4578063d547741f146200019e5763f52fdb36146200016857600080fd5b346200019a5760203660031901126200019a57803583526020908152918190205490516001600160a01b039091168152f35b8280fd5b5090346200019a57806003193601126200019a57620001e09135620001da6001620001c8620012e1565b93838752866020528620015462001445565b62001509565b5080f35b50346200019a5760203660031901126200019a5762000202620012fd565b6001546001600160a01b039391929190841633036200025957505016806001600160601b0360a01b60025416176002557f9d8e607abeee7c37c8f203cd775f3df4578d712649daaf68fc5a4773612f00188280a280f35b516330cd747160e01b8152fd5b5082346200034357602091826003193601126200033f578035808352818452848320549091906001600160a01b0316156200032a5750819392935260078352818120908251808584549182815201908194845286842090845b818110620003155750505081620002d891038262001422565b83519485948186019282875251809352850193925b828110620002fd57505050500390f35b835185528695509381019392810192600101620002ed565b825484529288019260019283019201620002bf565b60249185519163033d81cb60e51b8352820152fd5b5080fd5b80fd5b50346200019a5760203660031901126200019a5760209282913581526005845220549051908152f35b50346200019a57816003193601126200019a5767ffffffffffffffff81358181116200082557620003a4903690840162001314565b9190620003b0620012e1565b956001600160a01b039586881692831562000815576002861080156200080a575b620007fa577f000000000000000000000000000000000000000000000000000000000000000094888616845b888110620006a65750506003549562000416876200137a565b600355835191610bd080840191821184831017620006935788849362000489938f936200158087396001600160a01b037f00000000000000000000000000000000000000000000000000000000000000008116825291821660208201526040810192909252909116606082015260800190565b039084f080156200068757881695858452602099888b52838520986001600160601b0360a01b99898b825416179055855b838110620005f9575087865260068c528486208781549b8c161790558a60025416908162000588575b505083518b81529a8b01829052506001600160fb1b0381116200058457918487877feae4e8dad0af89aea0915f6dd8f6501dc7b99006eaacaa299455d070d2b79a828d85620005809d9e9f7f8d0e4b93b365b4a0643b2389408b7fa889dafbd71a905a7848245e03d1d4260b98859a60051b8091848401378101030190a451988998169280a483526001600160a01b031660208301526040820190565b0390f35b8380fd5b813b15620005f557855163e2f11d4760e01b81529081018981526001600160a01b039093166020840152918691839182908490829060400103925af18015620005eb57620005d9575b8080620004e3565b620005e4906200140d565b38620005d1565b84513d87823e3d90fd5b8680fd5b8c600762000609838789620013a0565b3591828a52600581528b898b20558b8a52526200062981888a20620013c7565b8a3b1562000683578651631089f5ed60e01b8152838101919091528781602481838f5af180156200067957906001929162000667575b5001620004ba565b62000672906200140d565b386200065f565b87513d8a823e3d90fd5b8780fd5b505051903d90823e3d90fd5b634e487b7160e01b875260418b52602487fd5b620006b3818a86620013a0565b358015620007ea576001808301808411620007d7575b8b8110620007aa5750508087526020906005825286882054806200078d575086516331a9108f60e11b81528c81018290526024929081818581895afa91821562000783578a9262000741575b50508d339116036200072c575050600101620003fd565b8651630134c91f60e11b8152808d0191909152fd5b90809250813d83116200077b575b6200075b818362001422565b810103126200077757518d811681036200077757388062000715565b8880fd5b503d6200074f565b89513d8c823e3d90fd5b87516332214c3160e21b8152808e01929092526024820152604490fd5b620007b7818d89620013a0565b358314620007c7578101620006c9565b875163d280c39d60e01b81528d90fd5b634e487b7160e01b895260118d52602489fd5b85516371d8cefb60e01b81528b90fd5b8151631a49577b60e11b81528790fd5b50600a8611620003d1565b815163d92e233d60e01b81528790fd5b8480fd5b5050346200033f57816003193601126200033f5751908152602090f35b50346200019a57816003193601126200019a578160209360ff926200086a620012e1565b903582528186528282206001600160a01b039091168252855220549151911615158152f35b5050346200033f5760203660031901126200033f5760209160ff9082906001600160a01b03620008be620012fd565b1681526009855220541690519015158152f35b5050346200033f57816003193601126200033f5760015490516001600160a01b039091168152602090f35b50346200019a5760203660031901126200019a5735825260066020908152918190205490516001600160a01b039091168152f35b5050346200033f5760203660031901126200033f5760209160ff9082906001600160a01b036200095f620012fd565b1681526008855220541690519015158152f35b5050346200033f57816003193601126200033f57602090517fa49807205ce4d355092ef5a8a18f56e8913cf4a201fbe287825b095693c217758152f35b50346200019a5760203660031901126200019a5780358084526020829052828420549091906001600160a01b031615620009f85750828291602094526007845220549051908152f35b915163033d81cb60e51b815291820152602490fd5b5050346200033f57816003193601126200033f5760025490516001600160a01b039091168152602090f35b50346200019a57816003193601126200019a5780359062000a58620012e1565b92338552600960205260ff81862054161562000bd4578285526020829052808520546001600160a01b039290831691821562000bbe5783861695861562000bb057858852600660205281882080546001600160a01b03198116891790915593889190803b156200019a5782809160248b87519485938492630305dd9960e01b84528b8401525af1801562000ba65762000b94575b5085600254168062000b27575b505050505016907f8d0e4b93b365b4a0643b2389408b7fa889dafbd71a905a7848245e03d1d4260b8480a480f35b803b156200019a57835163e2f11d4760e01b81529485018881526001600160a01b039092166020830152849182908490829060400103925af190811562000b8b575062000b79575b8086818062000af9565b62000b84906200140d565b3862000b6f565b513d88823e3d90fd5b62000b9f906200140d565b3862000aec565b84513d85823e3d90fd5b505163d92e233d60e01b8152fd5b5163033d81cb60e51b8152908101849052602490fd5b5163320db8e160e01b8152fd5b5090346200019a5762000bf43662001348565b6001549092916001600160a01b03918216330362000c73571692831562000c6557507f2d4f3ac69283e35c7b9ebb4336e1ea359f84b36a1f221af238eafe76050b97d2916020918486526008835262000c5b828288209060ff801983541691151516179055565b519015158152a280f35b905163d92e233d60e01b8152fd5b82516330cd747160e01b81528590fd5b5050346200033f57816003193601126200033f57517f00000000000000000000000000000000000000000000000000000000000000006001600160a01b03168152602090f35b509190346200033f57806003193601126200033f5762000ce8620012e1565b90336001600160a01b0383160362000d085750620001e091923562001509565b5163334bd91960e11b81528390fd5b5090346200019a57806003193601126200019a57620001e0913562000d416001620001c8620012e1565b6200148a565b5050346200033f57816003193601126200033f576020906003549051908152f35b50346200019a5760203660031901126200019a57816020936001923581528085522001549051908152f35b5050346200033f57816003193601126200033f57517f00000000000000000000000000000000000000000000000000000000000000006001600160a01b03168152602090f35b5090346200019a5762000dec3662001348565b6001549092916001600160a01b03918216330362000c73571692831562000c6557507f5c001b1d70af3e0a09eed53bc0588d57fec6d23196319ba29c6313eb3321273c916020918486526009835262000c5b828288209060ff801983541691151516179055565b50346200019a5760203660031901126200019a5762000e71620012fd565b60015491906001600160a01b0390818416330362000ed7571692831562000eca5750506001600160a01b03191681176001557f50146d0e3c60aa1d17a70635b05494f864e86144a2201275021014fbf08bafe28280a280f35b5163d92e233d60e01b8152fd5b84516330cd747160e01b81528390fd5b50346200019a5760603660031901126200019a5780359062000f08620012e1565b6044916044359467ffffffffffffffff95868111620006835762000f30903690840162001314565b93903389526020906008825260ff848b2054161562001278576001600160a01b03838116999097908a1562001268576002881080156200125d575b6200124d57908b949392918a86528784528987872054161562001135575b5089855286835288868620541697855b8181106200102d57505050888452506006905282822080546001600160a01b031981168a1790915594803b156200019a5782809160248b87519485938492630305dd9960e01b84528b8401525af1801562000ba65762000b94575085600254168062000b2757505050505016907f8d0e4b93b365b4a0643b2389408b7fa889dafbd71a905a7848245e03d1d4260b8480a480f35b9091929394955062001041818386620013a0565b3580156200112557808e526005808752888f205480159081158f8162001119575b50620010fe5750908f989796959493929162001084575b505060010162000f99565b81895286528c898920558c885260078652620010a3818a8a20620013c7565b8a3b1562000683578851631089f5ed60e01b8152808b01919091528781602481838f5af18015620010f4579060019291620010e2575b81925062001079565b620010ed906200140d565b38620010d9565b89513d8a823e3d90fd5b8b8791858d51926332214c3160e21b84528301526024820152fd5b90508114158f62001062565b87516371d8cefb60e01b81528990fd5b9091929394506003548a036200123657855190610bd080830191821183831017620012235791620011da878f989796959483948f916200158086396001600160a01b037f0000000000000000000000000000000000000000000000000000000000000000811682527f00000000000000000000000000000000000000000000000000000000000000008116602083015260408201929092529116606082015260800190565b039086f0801562001219578a86528784528987872091166001600160601b0360a01b8254161790556200120f6003546200137a565b6003553862000f89565b86513d87823e3d90fd5b634e487b7160e01b8e526041895260248efd5b855163033d81cb60e51b81528088018b9052602490fd5b8551631a49577b60e11b81528790fd5b50600a881162000f6b565b855163d92e233d60e01b81528790fd5b50505051636a845bd960e11b8152fd5b925050346200019a5760203660031901126200019a573563ffffffff60e01b81168091036200019a5760209250637965db0b60e01b8114908115620012cf575b5015158152f35b6301ffc9a760e01b14905038620012c8565b602435906001600160a01b0382168203620012f857565b600080fd5b600435906001600160a01b0382168203620012f857565b9181601f84011215620012f85782359167ffffffffffffffff8311620012f8576020808501948460051b010111620012f857565b6040906003190112620012f8576004356001600160a01b0381168103620012f857906024358015158103620012f85790565b60001981146200138a5760010190565b634e487b7160e01b600052601160045260246000fd5b9190811015620013b15760051b0190565b634e487b7160e01b600052603260045260246000fd5b80549068010000000000000000821015620013f75760018201808255821015620013b15760005260206000200155565b634e487b7160e01b600052604160045260246000fd5b67ffffffffffffffff8111620013f757604052565b90601f8019910116810190811067ffffffffffffffff821117620013f757604052565b80600052600060205260406000203360005260205260ff60406000205416156200146c5750565b6044906040519063e2517d3f60e01b82523360048301526024820152fd5b9060009180835282602052604083209160018060a01b03169182845260205260ff604084205416156000146200150457808352826020526040832082845260205260408320600160ff198254161790557f2f8788117e7eff1d82e926ec794901d17c78024a50270940304540a733656f0d339380a4600190565b505090565b9060009180835282602052604083209160018060a01b03169182845260205260ff604084205416600014620015045780835282602052604083208284526020526040832060ff1981541690557ff6391f5c32d9c69d2a47ea670b442974b53935d1edc7fd64eb21e047a839171b339380a460019056fe60e0346100e457601f610bd038819003918201601f19168301916001600160401b038311848410176100e9578084926080946040528339810103126100e457610047816100ff565b90610054602082016100ff565b6100656060604084015193016100ff565b916001600160a01b038084169283156100d257816100a796166080521660a05260c05260018060a01b031960015416176001556100a181610113565b50610191565b5060405161097e90816102328239608051816103d6015260a051816102a7015260c0518161053d0152f35b60405163538ba4f960e01b8152600490fd5b600080fd5b634e487b7160e01b600052604160045260246000fd5b51906001600160a01b03821682036100e457565b6001600160a01b031660008181527fad3228b676f7d3cd4284a5443f17f1962b36e491b30a40b2405849e597ba5fb5602052604081205490919060ff1661018d57818052816020526040822081835260205260408220600160ff198254161790553391600080516020610bb08339815191528180a4600190565b5090565b6001600160a01b031660008181527fe34ee107d4eab1ddc75517d203004c4945b8356755ef72e04f7037b09e288f2960205260408120549091907f21d2830d54424ced495e8b9a2d9096ce77e272f963440f132cf2276b5578aa2f9060ff1661022c57808352826020526040832082845260205260408320600160ff19825416179055600080516020610bb0833981519152339380a4600190565b50509056fe608060408181526004908136101561001657600080fd5b600092833560e01c90816301ffc9a714610604575080630305dd991461056057806306c81719146105255780631089f5ed1461042457806311aee3801461040557806323bd4d7a146103c1578063248a9ca31461039757806324c0e1c31461036e5780632f2ff15d1461034657806336568abe146102ff57806340eedabb146102d65780637bf6df911461029257806391d148541461024c5780639eab52531461016b578063a217fddf1461014c578063d50c73771461011f5763d547741f146100df57600080fd5b3461011b578060031936011261011b5761011791356101126001610101610658565b9383875286602052862001546106db565b6108b3565b5080f35b8280fd5b50903461011b57602036600319011261011b578160209360ff923581526003855220541690519015158152f35b83823461016757816003193601126101675751908152602090f35b5080fd5b508234610249578060031936011261024957815180916002549384835260208093018095600284527f405787fa12a823e0f2b7631cc41b3ba8828b3321ca811111fa75cd3aa3bb5ace90845b868282106102355750505050849003601f01601f191684019567ffffffffffffffff871185881017610222575085815282865292518583018190528594938501939290915b82811061020b57505050500390f35b8351855286955093810193928101926001016101fc565b634e487b7160e01b835260419052602482fd5b8354855290930192600192830192016101b7565b80fd5b50903461011b578160031936011261011b578160209360ff9261026d610658565b903582528186528282206001600160a01b039091168252855220549151911615158152f35b838234610167578160031936011261016757517f00000000000000000000000000000000000000000000000000000000000000006001600160a01b03168152602090f35b83823461016757816003193601126101675760015490516001600160a01b039091168152602090f35b5082903461016757806003193601126101675761031a610658565b90336001600160a01b0383160361033757506101179192356108b3565b5163334bd91960e11b81528390fd5b503461011b578060031936011261011b5761011791356103696001610101610658565b6107a1565b838234610167578160031936011261016757602090516000805160206109298339815191528152f35b50903461011b57602036600319011261011b57816020936001923581528085522001549051908152f35b838234610167578160031936011261016757517f00000000000000000000000000000000000000000000000000000000000000006001600160a01b03168152602090f35b8382346101675781600319360112610167576020906002549051908152f35b503461011b57602036600319011261011b57813591610441610673565b60025490600a82101561051757838552600360205260ff838620541661050957680100000000000000008210156104f65760018201806002558210156104e357507f405787fa12a823e0f2b7631cc41b3ba8828b3321ca811111fa75cd3aa3bb5ace0182905581835260036020528220805460ff191660011790557f663edc42a721f7c73209441ed31f141cef6912283c680024547d950559c555918280a280f35b634e487b7160e01b855260329052602484fd5b634e487b7160e01b855260419052602484fd5b8251637b89743f60e01b8152fd5b825163470781ed60e01b8152fd5b838234610167578160031936011261016757602090517f00000000000000000000000000000000000000000000000000000000000000008152f35b50903461011b57602036600319011261011b5780356001600160a01b038181169390929084830361060057610593610673565b84156105f35750506105c19083600154938416936bffffffffffffffffffffffff60a01b1617600155610701565b506105cb8161081a565b507f20a41b6af7c8306fdec52386c51d5c48321cd6fde663606ff90de727e964eebe8380a380f35b5163538ba4f960e01b8152fd5b8580fd5b8490843461011b57602036600319011261011b573563ffffffff60e01b811680910361011b5760209250637965db0b60e01b8114908115610647575b5015158152f35b6301ffc9a760e01b14905083610640565b602435906001600160a01b038216820361066e57565b600080fd5b3360009081527fe34ee107d4eab1ddc75517d203004c4945b8356755ef72e04f7037b09e288f2960205260409020546000805160206109298339815191529060ff16156106bd5750565b6044906040519063e2517d3f60e01b82523360048301526024820152fd5b80600052600060205260406000203360005260205260ff60406000205416156106bd5750565b6001600160a01b031660008181527fe34ee107d4eab1ddc75517d203004c4945b8356755ef72e04f7037b09e288f2960205260408120549091906000805160206109298339815191529060ff1661079c57808352826020526040832082845260205260408320600160ff198254161790557f2f8788117e7eff1d82e926ec794901d17c78024a50270940304540a733656f0d339380a4600190565b505090565b9060009180835282602052604083209160018060a01b03169182845260205260ff6040842054161560001461079c57808352826020526040832082845260205260408320600160ff198254161790557f2f8788117e7eff1d82e926ec794901d17c78024a50270940304540a733656f0d339380a4600190565b6001600160a01b031660008181527fe34ee107d4eab1ddc75517d203004c4945b8356755ef72e04f7037b09e288f2960205260408120549091906000805160206109298339815191529060ff161561079c5780835282602052604083208284526020526040832060ff1981541690557ff6391f5c32d9c69d2a47ea670b442974b53935d1edc7fd64eb21e047a839171b339380a4600190565b9060009180835282602052604083209160018060a01b03169182845260205260ff60408420541660001461079c5780835282602052604083208284526020526040832060ff1981541690557ff6391f5c32d9c69d2a47ea670b442974b53935d1edc7fd64eb21e047a839171b339380a460019056fe21d2830d54424ced495e8b9a2d9096ce77e272f963440f132cf2276b5578aa2fa2646970667358221220fd744b343b976a5397c7517c27c8ee76933a8c8ebd306bf234c269f1350eb83264736f6c634300081800332f8788117e7eff1d82e926ec794901d17c78024a50270940304540a733656f0da264697066735822122069476d8a78e766e2d4d875f34cf3033f01a0d03d836239256a61444fbf8a695964736f6c634300081800332f8788117e7eff1d82e926ec794901d17c78024a50270940304540a733656f0d","opcodes":"PUSH1 0xC0 CALLVALUE PUSH3 0x159 JUMPI PUSH1 0x1F PUSH3 0x2451 CODESIZE DUP2 SWAP1 SUB SWAP2 DUP3 ADD PUSH1 0x1F NOT AND DUP4 ADD SWAP2 PUSH1 0x1 PUSH1 0x1 PUSH1 0x40 SHL SUB DUP4 GT DUP5 DUP5 LT OR PUSH3 0x15E JUMPI DUP1 DUP5 SWAP3 PUSH1 0x60 SWAP5 PUSH1 0x40 MSTORE DUP4 CODECOPY DUP2 ADD SUB SLT PUSH3 0x159 JUMPI PUSH3 0x4D DUP2 PUSH3 0x174 JUMP JUMPDEST SWAP1 PUSH3 0x6A PUSH1 0x40 PUSH3 0x62 PUSH1 0x20 DUP5 ADD PUSH3 0x174 JUMP JUMPDEST SWAP3 ADD PUSH3 0x174 JUMP JUMPDEST PUSH1 0x1 PUSH1 0x3 SSTORE PUSH1 0x1 PUSH1 0x1 PUSH1 0xA0 SHL SUB SWAP2 DUP1 DUP4 AND ISZERO PUSH3 0x147 JUMPI PUSH1 0x1 DUP1 PUSH1 0xA0 SHL SUB NOT SWAP4 CALLER DUP6 PUSH1 0x1 SLOAD AND OR PUSH1 0x1 SSTORE PUSH1 0x80 MSTORE PUSH1 0xA0 MSTORE AND DUP1 SWAP2 PUSH1 0x2 SLOAD AND OR PUSH1 0x2 SSTORE PUSH3 0xB0 CALLER PUSH3 0x189 JUMP JUMPDEST POP PUSH3 0xBC CALLER PUSH3 0x209 JUMP JUMPDEST POP PUSH1 0x40 MLOAD SWAP1 CALLER PUSH32 0x50146D0E3C60AA1D17A70635B05494F864E86144A2201275021014FBF08BAFE2 PUSH1 0x0 DUP1 LOG2 PUSH32 0x9D8E607ABEEE7C37C8F203CD775F3DF4578D712649DAAF68FC5A4773612F0018 PUSH1 0x0 DUP1 LOG2 PUSH2 0x2185 SWAP1 DUP2 PUSH3 0x2AC DUP3 CODECOPY PUSH1 0x80 MLOAD DUP2 DUP2 DUP2 PUSH2 0x448 ADD MSTORE DUP2 DUP2 PUSH2 0xDAA ADD MSTORE PUSH2 0x117A ADD MSTORE PUSH1 0xA0 MLOAD DUP2 DUP2 DUP2 PUSH2 0x3D8 ADD MSTORE DUP2 DUP2 PUSH2 0xC9A ADD MSTORE PUSH2 0x119F ADD MSTORE RETURN JUMPDEST PUSH1 0x40 MLOAD PUSH4 0xD92E233D PUSH1 0xE0 SHL DUP2 MSTORE PUSH1 0x4 SWAP1 REVERT JUMPDEST PUSH1 0x0 DUP1 REVERT JUMPDEST PUSH4 0x4E487B71 PUSH1 0xE0 SHL PUSH1 0x0 MSTORE PUSH1 0x41 PUSH1 0x4 MSTORE PUSH1 0x24 PUSH1 0x0 REVERT JUMPDEST MLOAD SWAP1 PUSH1 0x1 PUSH1 0x1 PUSH1 0xA0 SHL SUB DUP3 AND DUP3 SUB PUSH3 0x159 JUMPI JUMP JUMPDEST PUSH1 0x1 PUSH1 0x1 PUSH1 0xA0 SHL SUB AND PUSH1 0x0 DUP2 DUP2 MSTORE PUSH32 0xAD3228B676F7D3CD4284A5443F17F1962B36E491B30A40B2405849E597BA5FB5 PUSH1 0x20 MSTORE PUSH1 0x40 DUP2 KECCAK256 SLOAD SWAP1 SWAP2 SWAP1 PUSH1 0xFF AND PUSH3 0x205 JUMPI DUP2 DUP1 MSTORE DUP2 PUSH1 0x20 MSTORE PUSH1 0x40 DUP3 KECCAK256 DUP2 DUP4 MSTORE PUSH1 0x20 MSTORE PUSH1 0x40 DUP3 KECCAK256 PUSH1 0x1 PUSH1 0xFF NOT DUP3 SLOAD AND OR SWAP1 SSTORE CALLER SWAP2 PUSH1 0x0 DUP1 MLOAD PUSH1 0x20 PUSH3 0x2431 DUP4 CODECOPY DUP2 MLOAD SWAP2 MSTORE DUP2 DUP1 LOG4 PUSH1 0x1 SWAP1 JUMP JUMPDEST POP SWAP1 JUMP JUMPDEST PUSH1 0x1 PUSH1 0x1 PUSH1 0xA0 SHL SUB AND PUSH1 0x0 DUP2 DUP2 MSTORE PUSH32 0x7D7FFB7A348E1C6A02869081A26547B49160DD3DF72D1D75A570EB9B698292EC PUSH1 0x20 MSTORE PUSH1 0x40 DUP2 KECCAK256 SLOAD SWAP1 SWAP2 SWAP1 PUSH32 0xA49807205CE4D355092EF5A8A18F56E8913CF4A201FBE287825B095693C21775 SWAP1 PUSH1 0xFF AND PUSH3 0x2A6 JUMPI DUP1 DUP4 MSTORE DUP3 PUSH1 0x20 MSTORE PUSH1 0x40 DUP4 KECCAK256 DUP3 DUP5 MSTORE PUSH1 0x20 MSTORE PUSH1 0x40 DUP4 KECCAK256 PUSH1 0x1 PUSH1 0xFF NOT DUP3 SLOAD AND OR SWAP1 SSTORE PUSH1 0x0 DUP1 MLOAD PUSH1 0x20 PUSH3 0x2431 DUP4 CODECOPY DUP2 MLOAD SWAP2 MSTORE CALLER SWAP4 DUP1 LOG4 PUSH1 0x1 SWAP1 JUMP JUMPDEST POP POP SWAP1 JUMP INVALID PUSH1 0x80 PUSH1 0x40 DUP2 DUP2 MSTORE PUSH1 0x4 DUP1 CALLDATASIZE LT ISZERO PUSH3 0x16 JUMPI PUSH1 0x0 DUP1 REVERT JUMPDEST PUSH1 0x0 SWAP3 DUP4 CALLDATALOAD PUSH1 0xE0 SHR SWAP1 DUP2 PUSH4 0x1FFC9A7 EQ PUSH3 0x1288 JUMPI POP DUP1 PUSH4 0xD611056 EQ PUSH3 0xEE7 JUMPI DUP1 PUSH4 0x13AF4035 EQ PUSH3 0xE53 JUMPI DUP1 PUSH4 0x1A153391 EQ PUSH3 0xDD9 JUMPI DUP1 PUSH4 0x23BD4D7A EQ PUSH3 0xD93 JUMPI DUP1 PUSH4 0x248A9CA3 EQ PUSH3 0xD68 JUMPI DUP1 PUSH4 0x24DE06ED EQ PUSH3 0xD47 JUMPI DUP1 PUSH4 0x2F2FF15D EQ PUSH3 0xD17 JUMPI DUP1 PUSH4 0x36568ABE EQ PUSH3 0xCC9 JUMPI DUP1 PUSH4 0x388841B1 EQ PUSH3 0xC83 JUMPI DUP1 PUSH4 0x50D50F49 EQ PUSH3 0xBE1 JUMPI DUP1 PUSH4 0x577D5F2B EQ PUSH3 0xA38 JUMPI DUP1 PUSH4 0x6C378334 EQ PUSH3 0xA0D JUMPI DUP1 PUSH4 0x6E8165E8 EQ PUSH3 0x9AF JUMPI DUP1 PUSH4 0x75B238FC EQ PUSH3 0x972 JUMPI DUP1 PUSH4 0x8814B83B EQ PUSH3 0x930 JUMPI DUP1 PUSH4 0x8BBA9E78 EQ PUSH3 0x8FC JUMPI DUP1 PUSH4 0x8DA5CB5B EQ PUSH3 0x8D1 JUMPI DUP1 PUSH4 0x8FF29CFE EQ PUSH3 0x88F JUMPI DUP1 PUSH4 0x91D14854 EQ PUSH3 0x846 JUMPI DUP1 PUSH4 0xA217FDDF EQ PUSH3 0x829 JUMPI DUP1 PUSH4 0xB2B4EEEA EQ PUSH3 0x36F JUMPI DUP1 PUSH4 0xB615A21A EQ PUSH3 0x346 JUMPI DUP1 PUSH4 0xC477ECAB EQ PUSH3 0x266 JUMPI DUP1 PUSH4 0xC90D6254 EQ PUSH3 0x1E4 JUMPI DUP1 PUSH4 0xD547741F EQ PUSH3 0x19E JUMPI PUSH4 0xF52FDB36 EQ PUSH3 0x168 JUMPI PUSH1 0x0 DUP1 REVERT JUMPDEST CALLVALUE PUSH3 0x19A JUMPI PUSH1 0x20 CALLDATASIZE PUSH1 0x3 NOT ADD SLT PUSH3 0x19A JUMPI DUP1 CALLDATALOAD DUP4 MSTORE PUSH1 0x20 SWAP1 DUP2 MSTORE SWAP2 DUP2 SWAP1 KECCAK256 SLOAD SWAP1 MLOAD PUSH1 0x1 PUSH1 0x1 PUSH1 0xA0 SHL SUB SWAP1 SWAP2 AND DUP2 MSTORE RETURN JUMPDEST DUP3 DUP1 REVERT JUMPDEST POP SWAP1 CALLVALUE PUSH3 0x19A JUMPI DUP1 PUSH1 0x3 NOT CALLDATASIZE ADD SLT PUSH3 0x19A JUMPI PUSH3 0x1E0 SWAP2 CALLDATALOAD PUSH3 0x1DA PUSH1 0x1 PUSH3 0x1C8 PUSH3 0x12E1 JUMP JUMPDEST SWAP4 DUP4 DUP8 MSTORE DUP7 PUSH1 0x20 MSTORE DUP7 KECCAK256 ADD SLOAD PUSH3 0x1445 JUMP JUMPDEST PUSH3 0x1509 JUMP JUMPDEST POP DUP1 RETURN JUMPDEST POP CALLVALUE PUSH3 0x19A JUMPI PUSH1 0x20 CALLDATASIZE PUSH1 0x3 NOT ADD SLT PUSH3 0x19A JUMPI PUSH3 0x202 PUSH3 0x12FD JUMP JUMPDEST PUSH1 0x1 SLOAD PUSH1 0x1 PUSH1 0x1 PUSH1 0xA0 SHL SUB SWAP4 SWAP2 SWAP3 SWAP2 SWAP1 DUP5 AND CALLER SUB PUSH3 0x259 JUMPI POP POP AND DUP1 PUSH1 0x1 PUSH1 0x1 PUSH1 0x60 SHL SUB PUSH1 0xA0 SHL PUSH1 0x2 SLOAD AND OR PUSH1 0x2 SSTORE PUSH32 0x9D8E607ABEEE7C37C8F203CD775F3DF4578D712649DAAF68FC5A4773612F0018 DUP3 DUP1 LOG2 DUP1 RETURN JUMPDEST MLOAD PUSH4 0x30CD7471 PUSH1 0xE0 SHL DUP2 MSTORE REVERT JUMPDEST POP DUP3 CALLVALUE PUSH3 0x343 JUMPI PUSH1 0x20 SWAP2 DUP3 PUSH1 0x3 NOT CALLDATASIZE ADD SLT PUSH3 0x33F JUMPI DUP1 CALLDATALOAD DUP1 DUP4 MSTORE DUP2 DUP5 MSTORE DUP5 DUP4 KECCAK256 SLOAD SWAP1 SWAP2 SWAP1 PUSH1 0x1 PUSH1 0x1 PUSH1 0xA0 SHL SUB AND ISZERO PUSH3 0x32A JUMPI POP DUP2 SWAP4 SWAP3 SWAP4 MSTORE PUSH1 0x7 DUP4 MSTORE DUP2 DUP2 KECCAK256 SWAP1 DUP3 MLOAD DUP1 DUP6 DUP5 SLOAD SWAP2 DUP3 DUP2 MSTORE ADD SWAP1 DUP2 SWAP5 DUP5 MSTORE DUP7 DUP5 KECCAK256 SWAP1 DUP5 JUMPDEST DUP2 DUP2 LT PUSH3 0x315 JUMPI POP POP POP DUP2 PUSH3 0x2D8 SWAP2 SUB DUP3 PUSH3 0x1422 JUMP JUMPDEST DUP4 MLOAD SWAP5 DUP6 SWAP5 DUP2 DUP7 ADD SWAP3 DUP3 DUP8 MSTORE MLOAD DUP1 SWAP4 MSTORE DUP6 ADD SWAP4 SWAP3 JUMPDEST DUP3 DUP2 LT PUSH3 0x2FD JUMPI POP POP POP POP SUB SWAP1 RETURN JUMPDEST DUP4 MLOAD DUP6 MSTORE DUP7 SWAP6 POP SWAP4 DUP2 ADD SWAP4 SWAP3 DUP2 ADD SWAP3 PUSH1 0x1 ADD PUSH3 0x2ED JUMP JUMPDEST DUP3 SLOAD DUP5 MSTORE SWAP3 DUP9 ADD SWAP3 PUSH1 0x1 SWAP3 DUP4 ADD SWAP3 ADD PUSH3 0x2BF JUMP JUMPDEST PUSH1 0x24 SWAP2 DUP6 MLOAD SWAP2 PUSH4 0x33D81CB PUSH1 0xE5 SHL DUP4 MSTORE DUP3 ADD MSTORE REVERT JUMPDEST POP DUP1 REVERT JUMPDEST DUP1 REVERT JUMPDEST POP CALLVALUE PUSH3 0x19A JUMPI PUSH1 0x20 CALLDATASIZE PUSH1 0x3 NOT ADD SLT PUSH3 0x19A JUMPI PUSH1 0x20 SWAP3 DUP3 SWAP2 CALLDATALOAD DUP2 MSTORE PUSH1 0x5 DUP5 MSTORE KECCAK256 SLOAD SWAP1 MLOAD SWAP1 DUP2 MSTORE RETURN JUMPDEST POP CALLVALUE PUSH3 0x19A JUMPI DUP2 PUSH1 0x3 NOT CALLDATASIZE ADD SLT PUSH3 0x19A JUMPI PUSH8 0xFFFFFFFFFFFFFFFF DUP2 CALLDATALOAD DUP2 DUP2 GT PUSH3 0x825 JUMPI PUSH3 0x3A4 SWAP1 CALLDATASIZE SWAP1 DUP5 ADD PUSH3 0x1314 JUMP JUMPDEST SWAP2 SWAP1 PUSH3 0x3B0 PUSH3 0x12E1 JUMP JUMPDEST SWAP6 PUSH1 0x1 PUSH1 0x1 PUSH1 0xA0 SHL SUB SWAP6 DUP7 DUP9 AND SWAP3 DUP4 ISZERO PUSH3 0x815 JUMPI PUSH1 0x2 DUP7 LT DUP1 ISZERO PUSH3 0x80A JUMPI JUMPDEST PUSH3 0x7FA JUMPI PUSH32 0x0 SWAP5 DUP9 DUP7 AND DUP5 JUMPDEST DUP9 DUP2 LT PUSH3 0x6A6 JUMPI POP POP PUSH1 0x3 SLOAD SWAP6 PUSH3 0x416 DUP8 PUSH3 0x137A JUMP JUMPDEST PUSH1 0x3 SSTORE DUP4 MLOAD SWAP2 PUSH2 0xBD0 DUP1 DUP5 ADD SWAP2 DUP3 GT DUP5 DUP4 LT OR PUSH3 0x693 JUMPI DUP9 DUP5 SWAP4 PUSH3 0x489 SWAP4 DUP16 SWAP4 PUSH3 0x1580 DUP8 CODECOPY PUSH1 0x1 PUSH1 0x1 PUSH1 0xA0 SHL SUB PUSH32 0x0 DUP2 AND DUP3 MSTORE SWAP2 DUP3 AND PUSH1 0x20 DUP3 ADD MSTORE PUSH1 0x40 DUP2 ADD SWAP3 SWAP1 SWAP3 MSTORE SWAP1 SWAP2 AND PUSH1 0x60 DUP3 ADD MSTORE PUSH1 0x80 ADD SWAP1 JUMP JUMPDEST SUB SWAP1 DUP5 CREATE DUP1 ISZERO PUSH3 0x687 JUMPI DUP9 AND SWAP6 DUP6 DUP5 MSTORE PUSH1 0x20 SWAP10 DUP9 DUP12 MSTORE DUP4 DUP6 KECCAK256 SWAP9 PUSH1 0x1 PUSH1 0x1 PUSH1 0x60 SHL SUB PUSH1 0xA0 SHL SWAP10 DUP10 DUP12 DUP3 SLOAD AND OR SWAP1 SSTORE DUP6 JUMPDEST DUP4 DUP2 LT PUSH3 0x5F9 JUMPI POP DUP8 DUP7 MSTORE PUSH1 0x6 DUP13 MSTORE DUP5 DUP7 KECCAK256 DUP8 DUP2 SLOAD SWAP12 DUP13 AND OR SWAP1 SSTORE DUP11 PUSH1 0x2 SLOAD AND SWAP1 DUP2 PUSH3 0x588 JUMPI JUMPDEST POP POP DUP4 MLOAD DUP12 DUP2 MSTORE SWAP11 DUP12 ADD DUP3 SWAP1 MSTORE POP PUSH1 0x1 PUSH1 0x1 PUSH1 0xFB SHL SUB DUP2 GT PUSH3 0x584 JUMPI SWAP2 DUP5 DUP8 DUP8 PUSH32 0xEAE4E8DAD0AF89AEA0915F6DD8F6501DC7B99006EAACAA299455D070D2B79A82 DUP14 DUP6 PUSH3 0x580 SWAP14 SWAP15 SWAP16 PUSH32 0x8D0E4B93B365B4A0643B2389408B7FA889DAFBD71A905A7848245E03D1D4260B SWAP9 DUP6 SWAP11 PUSH1 0x5 SHL DUP1 SWAP2 DUP5 DUP5 ADD CALLDATACOPY DUP2 ADD SUB ADD SWAP1 LOG4 MLOAD SWAP9 DUP10 SWAP9 AND SWAP3 DUP1 LOG4 DUP4 MSTORE PUSH1 0x1 PUSH1 0x1 PUSH1 0xA0 SHL SUB AND PUSH1 0x20 DUP4 ADD MSTORE PUSH1 0x40 DUP3 ADD SWAP1 JUMP JUMPDEST SUB SWAP1 RETURN JUMPDEST DUP4 DUP1 REVERT JUMPDEST DUP2 EXTCODESIZE ISZERO PUSH3 0x5F5 JUMPI DUP6 MLOAD PUSH4 0xE2F11D47 PUSH1 0xE0 SHL DUP2 MSTORE SWAP1 DUP2 ADD DUP10 DUP2 MSTORE PUSH1 0x1 PUSH1 0x1 PUSH1 0xA0 SHL SUB SWAP1 SWAP4 AND PUSH1 0x20 DUP5 ADD MSTORE SWAP2 DUP7 SWAP2 DUP4 SWAP2 DUP3 SWAP1 DUP5 SWAP1 DUP3 SWAP1 PUSH1 0x40 ADD SUB SWAP3 GAS CALL DUP1 ISZERO PUSH3 0x5EB JUMPI PUSH3 0x5D9 JUMPI JUMPDEST DUP1 DUP1 PUSH3 0x4E3 JUMP JUMPDEST PUSH3 0x5E4 SWAP1 PUSH3 0x140D JUMP JUMPDEST CODESIZE PUSH3 0x5D1 JUMP JUMPDEST DUP5 MLOAD RETURNDATASIZE DUP8 DUP3 RETURNDATACOPY RETURNDATASIZE SWAP1 REVERT JUMPDEST DUP7 DUP1 REVERT JUMPDEST DUP13 PUSH1 0x7 PUSH3 0x609 DUP4 DUP8 DUP10 PUSH3 0x13A0 JUMP JUMPDEST CALLDATALOAD SWAP2 DUP3 DUP11 MSTORE PUSH1 0x5 DUP2 MSTORE DUP12 DUP10 DUP12 KECCAK256 SSTORE DUP12 DUP11 MSTORE MSTORE PUSH3 0x629 DUP2 DUP9 DUP11 KECCAK256 PUSH3 0x13C7 JUMP JUMPDEST DUP11 EXTCODESIZE ISZERO PUSH3 0x683 JUMPI DUP7 MLOAD PUSH4 0x1089F5ED PUSH1 0xE0 SHL DUP2 MSTORE DUP4 DUP2 ADD SWAP2 SWAP1 SWAP2 MSTORE DUP8 DUP2 PUSH1 0x24 DUP2 DUP4 DUP16 GAS CALL DUP1 ISZERO PUSH3 0x679 JUMPI SWAP1 PUSH1 0x1 SWAP3 SWAP2 PUSH3 0x667 JUMPI JUMPDEST POP ADD PUSH3 0x4BA JUMP JUMPDEST PUSH3 0x672 SWAP1 PUSH3 0x140D JUMP JUMPDEST CODESIZE PUSH3 0x65F JUMP JUMPDEST DUP8 MLOAD RETURNDATASIZE DUP11 DUP3 RETURNDATACOPY RETURNDATASIZE SWAP1 REVERT JUMPDEST DUP8 DUP1 REVERT JUMPDEST POP POP MLOAD SWAP1 RETURNDATASIZE SWAP1 DUP3 RETURNDATACOPY RETURNDATASIZE SWAP1 REVERT JUMPDEST PUSH4 0x4E487B71 PUSH1 0xE0 SHL DUP8 MSTORE PUSH1 0x41 DUP12 MSTORE PUSH1 0x24 DUP8 REVERT JUMPDEST PUSH3 0x6B3 DUP2 DUP11 DUP7 PUSH3 0x13A0 JUMP JUMPDEST CALLDATALOAD DUP1 ISZERO PUSH3 0x7EA JUMPI PUSH1 0x1 DUP1 DUP4 ADD DUP1 DUP5 GT PUSH3 0x7D7 JUMPI JUMPDEST DUP12 DUP2 LT PUSH3 0x7AA JUMPI POP POP DUP1 DUP8 MSTORE PUSH1 0x20 SWAP1 PUSH1 0x5 DUP3 MSTORE DUP7 DUP9 KECCAK256 SLOAD DUP1 PUSH3 0x78D JUMPI POP DUP7 MLOAD PUSH4 0x31A9108F PUSH1 0xE1 SHL DUP2 MSTORE DUP13 DUP2 ADD DUP3 SWAP1 MSTORE PUSH1 0x24 SWAP3 SWAP1 DUP2 DUP2 DUP6 DUP2 DUP10 GAS STATICCALL SWAP2 DUP3 ISZERO PUSH3 0x783 JUMPI DUP11 SWAP3 PUSH3 0x741 JUMPI JUMPDEST POP POP DUP14 CALLER SWAP2 AND SUB PUSH3 0x72C JUMPI POP POP PUSH1 0x1 ADD PUSH3 0x3FD JUMP JUMPDEST DUP7 MLOAD PUSH4 0x134C91F PUSH1 0xE1 SHL DUP2 MSTORE DUP1 DUP14 ADD SWAP2 SWAP1 SWAP2 MSTORE REVERT JUMPDEST SWAP1 DUP1 SWAP3 POP DUP2 RETURNDATASIZE DUP4 GT PUSH3 0x77B JUMPI JUMPDEST PUSH3 0x75B DUP2 DUP4 PUSH3 0x1422 JUMP JUMPDEST DUP2 ADD SUB SLT PUSH3 0x777 JUMPI MLOAD DUP14 DUP2 AND DUP2 SUB PUSH3 0x777 JUMPI CODESIZE DUP1 PUSH3 0x715 JUMP JUMPDEST DUP9 DUP1 REVERT JUMPDEST POP RETURNDATASIZE PUSH3 0x74F JUMP JUMPDEST DUP10 MLOAD RETURNDATASIZE DUP13 DUP3 RETURNDATACOPY RETURNDATASIZE SWAP1 REVERT JUMPDEST DUP8 MLOAD PUSH4 0x32214C31 PUSH1 0xE2 SHL DUP2 MSTORE DUP1 DUP15 ADD SWAP3 SWAP1 SWAP3 MSTORE PUSH1 0x24 DUP3 ADD MSTORE PUSH1 0x44 SWAP1 REVERT JUMPDEST PUSH3 0x7B7 DUP2 DUP14 DUP10 PUSH3 0x13A0 JUMP JUMPDEST CALLDATALOAD DUP4 EQ PUSH3 0x7C7 JUMPI DUP2 ADD PUSH3 0x6C9 JUMP JUMPDEST DUP8 MLOAD PUSH4 0xD280C39D PUSH1 0xE0 SHL DUP2 MSTORE DUP14 SWAP1 REVERT JUMPDEST PUSH4 0x4E487B71 PUSH1 0xE0 SHL DUP10 MSTORE PUSH1 0x11 DUP14 MSTORE PUSH1 0x24 DUP10 REVERT JUMPDEST DUP6 MLOAD PUSH4 0x71D8CEFB PUSH1 0xE0 SHL DUP2 MSTORE DUP12 SWAP1 REVERT JUMPDEST DUP2 MLOAD PUSH4 0x1A49577B PUSH1 0xE1 SHL DUP2 MSTORE DUP8 SWAP1 REVERT JUMPDEST POP PUSH1 0xA DUP7 GT PUSH3 0x3D1 JUMP JUMPDEST DUP2 MLOAD PUSH4 0xD92E233D PUSH1 0xE0 SHL DUP2 MSTORE DUP8 SWAP1 REVERT JUMPDEST DUP5 DUP1 REVERT JUMPDEST POP POP CALLVALUE PUSH3 0x33F JUMPI DUP2 PUSH1 0x3 NOT CALLDATASIZE ADD SLT PUSH3 0x33F JUMPI MLOAD SWAP1 DUP2 MSTORE PUSH1 0x20 SWAP1 RETURN JUMPDEST POP CALLVALUE PUSH3 0x19A JUMPI DUP2 PUSH1 0x3 NOT CALLDATASIZE ADD SLT PUSH3 0x19A JUMPI DUP2 PUSH1 0x20 SWAP4 PUSH1 0xFF SWAP3 PUSH3 0x86A PUSH3 0x12E1 JUMP JUMPDEST SWAP1 CALLDATALOAD DUP3 MSTORE DUP2 DUP7 MSTORE DUP3 DUP3 KECCAK256 PUSH1 0x1 PUSH1 0x1 PUSH1 0xA0 SHL SUB SWAP1 SWAP2 AND DUP3 MSTORE DUP6 MSTORE KECCAK256 SLOAD SWAP2 MLOAD SWAP2 AND ISZERO ISZERO DUP2 MSTORE RETURN JUMPDEST POP POP CALLVALUE PUSH3 0x33F JUMPI PUSH1 0x20 CALLDATASIZE PUSH1 0x3 NOT ADD SLT PUSH3 0x33F JUMPI PUSH1 0x20 SWAP2 PUSH1 0xFF SWAP1 DUP3 SWAP1 PUSH1 0x1 PUSH1 0x1 PUSH1 0xA0 SHL SUB PUSH3 0x8BE PUSH3 0x12FD JUMP JUMPDEST AND DUP2 MSTORE PUSH1 0x9 DUP6 MSTORE KECCAK256 SLOAD AND SWAP1 MLOAD SWAP1 ISZERO ISZERO DUP2 MSTORE RETURN JUMPDEST POP POP CALLVALUE PUSH3 0x33F JUMPI DUP2 PUSH1 0x3 NOT CALLDATASIZE ADD SLT PUSH3 0x33F JUMPI PUSH1 0x1 SLOAD SWAP1 MLOAD PUSH1 0x1 PUSH1 0x1 PUSH1 0xA0 SHL SUB SWAP1 SWAP2 AND DUP2 MSTORE PUSH1 0x20 SWAP1 RETURN JUMPDEST POP CALLVALUE PUSH3 0x19A JUMPI PUSH1 0x20 CALLDATASIZE PUSH1 0x3 NOT ADD SLT PUSH3 0x19A JUMPI CALLDATALOAD DUP3 MSTORE PUSH1 0x6 PUSH1 0x20 SWAP1 DUP2 MSTORE SWAP2 DUP2 SWAP1 KECCAK256 SLOAD SWAP1 MLOAD PUSH1 0x1 PUSH1 0x1 PUSH1 0xA0 SHL SUB SWAP1 SWAP2 AND DUP2 MSTORE RETURN JUMPDEST POP POP CALLVALUE PUSH3 0x33F JUMPI PUSH1 0x20 CALLDATASIZE PUSH1 0x3 NOT ADD SLT PUSH3 0x33F JUMPI PUSH1 0x20 SWAP2 PUSH1 0xFF SWAP1 DUP3 SWAP1 PUSH1 0x1 PUSH1 0x1 PUSH1 0xA0 SHL SUB PUSH3 0x95F PUSH3 0x12FD JUMP JUMPDEST AND DUP2 MSTORE PUSH1 0x8 DUP6 MSTORE KECCAK256 SLOAD AND SWAP1 MLOAD SWAP1 ISZERO ISZERO DUP2 MSTORE RETURN JUMPDEST POP POP CALLVALUE PUSH3 0x33F JUMPI DUP2 PUSH1 0x3 NOT CALLDATASIZE ADD SLT PUSH3 0x33F JUMPI PUSH1 0x20 SWAP1 MLOAD PUSH32 0xA49807205CE4D355092EF5A8A18F56E8913CF4A201FBE287825B095693C21775 DUP2 MSTORE RETURN JUMPDEST POP CALLVALUE PUSH3 0x19A JUMPI PUSH1 0x20 CALLDATASIZE PUSH1 0x3 NOT ADD SLT PUSH3 0x19A JUMPI DUP1 CALLDATALOAD DUP1 DUP5 MSTORE PUSH1 0x20 DUP3 SWAP1 MSTORE DUP3 DUP5 KECCAK256 SLOAD SWAP1 SWAP2 SWAP1 PUSH1 0x1 PUSH1 0x1 PUSH1 0xA0 SHL SUB AND ISZERO PUSH3 0x9F8 JUMPI POP DUP3 DUP3 SWAP2 PUSH1 0x20 SWAP5 MSTORE PUSH1 0x7 DUP5 MSTORE KECCAK256 SLOAD SWAP1 MLOAD SWAP1 DUP2 MSTORE RETURN JUMPDEST SWAP2 MLOAD PUSH4 0x33D81CB PUSH1 0xE5 SHL DUP2 MSTORE SWAP2 DUP3 ADD MSTORE PUSH1 0x24 SWAP1 REVERT JUMPDEST POP POP CALLVALUE PUSH3 0x33F JUMPI DUP2 PUSH1 0x3 NOT CALLDATASIZE ADD SLT PUSH3 0x33F JUMPI PUSH1 0x2 SLOAD SWAP1 MLOAD PUSH1 0x1 PUSH1 0x1 PUSH1 0xA0 SHL SUB SWAP1 SWAP2 AND DUP2 MSTORE PUSH1 0x20 SWAP1 RETURN JUMPDEST POP CALLVALUE PUSH3 0x19A JUMPI DUP2 PUSH1 0x3 NOT CALLDATASIZE ADD SLT PUSH3 0x19A JUMPI DUP1 CALLDATALOAD SWAP1 PUSH3 0xA58 PUSH3 0x12E1 JUMP JUMPDEST SWAP3 CALLER DUP6 MSTORE PUSH1 0x9 PUSH1 0x20 MSTORE PUSH1 0xFF DUP2 DUP7 KECCAK256 SLOAD AND ISZERO PUSH3 0xBD4 JUMPI DUP3 DUP6 MSTORE PUSH1 0x20 DUP3 SWAP1 MSTORE DUP1 DUP6 KECCAK256 SLOAD PUSH1 0x1 PUSH1 0x1 PUSH1 0xA0 SHL SUB SWAP3 SWAP1 DUP4 AND SWAP2 DUP3 ISZERO PUSH3 0xBBE JUMPI DUP4 DUP7 AND SWAP6 DUP7 ISZERO PUSH3 0xBB0 JUMPI DUP6 DUP9 MSTORE PUSH1 0x6 PUSH1 0x20 MSTORE DUP2 DUP9 KECCAK256 DUP1 SLOAD PUSH1 0x1 PUSH1 0x1 PUSH1 0xA0 SHL SUB NOT DUP2 AND DUP10 OR SWAP1 SWAP2 SSTORE SWAP4 DUP9 SWAP2 SWAP1 DUP1 EXTCODESIZE ISZERO PUSH3 0x19A JUMPI DUP3 DUP1 SWAP2 PUSH1 0x24 DUP12 DUP8 MLOAD SWAP5 DUP6 SWAP4 DUP5 SWAP3 PUSH4 0x305DD99 PUSH1 0xE0 SHL DUP5 MSTORE DUP12 DUP5 ADD MSTORE GAS CALL DUP1 ISZERO PUSH3 0xBA6 JUMPI PUSH3 0xB94 JUMPI JUMPDEST POP DUP6 PUSH1 0x2 SLOAD AND DUP1 PUSH3 0xB27 JUMPI JUMPDEST POP POP POP POP POP AND SWAP1 PUSH32 0x8D0E4B93B365B4A0643B2389408B7FA889DAFBD71A905A7848245E03D1D4260B DUP5 DUP1 LOG4 DUP1 RETURN JUMPDEST DUP1 EXTCODESIZE ISZERO PUSH3 0x19A JUMPI DUP4 MLOAD PUSH4 0xE2F11D47 PUSH1 0xE0 SHL DUP2 MSTORE SWAP5 DUP6 ADD DUP9 DUP2 MSTORE PUSH1 0x1 PUSH1 0x1 PUSH1 0xA0 SHL SUB SWAP1 SWAP3 AND PUSH1 0x20 DUP4 ADD MSTORE DUP5 SWAP2 DUP3 SWAP1 DUP5 SWAP1 DUP3 SWAP1 PUSH1 0x40 ADD SUB SWAP3 GAS CALL SWAP1 DUP2 ISZERO PUSH3 0xB8B JUMPI POP PUSH3 0xB79 JUMPI JUMPDEST DUP1 DUP7 DUP2 DUP1 PUSH3 0xAF9 JUMP JUMPDEST PUSH3 0xB84 SWAP1 PUSH3 0x140D JUMP JUMPDEST CODESIZE PUSH3 0xB6F JUMP JUMPDEST MLOAD RETURNDATASIZE DUP9 DUP3 RETURNDATACOPY RETURNDATASIZE SWAP1 REVERT JUMPDEST PUSH3 0xB9F SWAP1 PUSH3 0x140D JUMP JUMPDEST CODESIZE PUSH3 0xAEC JUMP JUMPDEST DUP5 MLOAD RETURNDATASIZE DUP6 DUP3 RETURNDATACOPY RETURNDATASIZE SWAP1 REVERT JUMPDEST POP MLOAD PUSH4 0xD92E233D PUSH1 0xE0 SHL DUP2 MSTORE REVERT JUMPDEST MLOAD PUSH4 0x33D81CB PUSH1 0xE5 SHL DUP2 MSTORE SWAP1 DUP2 ADD DUP5 SWAP1 MSTORE PUSH1 0x24 SWAP1 REVERT JUMPDEST MLOAD PUSH4 0x320DB8E1 PUSH1 0xE0 SHL DUP2 MSTORE REVERT JUMPDEST POP SWAP1 CALLVALUE PUSH3 0x19A JUMPI PUSH3 0xBF4 CALLDATASIZE PUSH3 0x1348 JUMP JUMPDEST PUSH1 0x1 SLOAD SWAP1 SWAP3 SWAP2 PUSH1 0x1 PUSH1 0x1 PUSH1 0xA0 SHL SUB SWAP2 DUP3 AND CALLER SUB PUSH3 0xC73 JUMPI AND SWAP3 DUP4 ISZERO PUSH3 0xC65 JUMPI POP PUSH32 0x2D4F3AC69283E35C7B9EBB4336E1EA359F84B36A1F221AF238EAFE76050B97D2 SWAP2 PUSH1 0x20 SWAP2 DUP5 DUP7 MSTORE PUSH1 0x8 DUP4 MSTORE PUSH3 0xC5B DUP3 DUP3 DUP9 KECCAK256 SWAP1 PUSH1 0xFF DUP1 NOT DUP4 SLOAD AND SWAP2 ISZERO ISZERO AND OR SWAP1 SSTORE JUMP JUMPDEST MLOAD SWAP1 ISZERO ISZERO DUP2 MSTORE LOG2 DUP1 RETURN JUMPDEST SWAP1 MLOAD PUSH4 0xD92E233D PUSH1 0xE0 SHL DUP2 MSTORE REVERT JUMPDEST DUP3 MLOAD PUSH4 0x30CD7471 PUSH1 0xE0 SHL DUP2 MSTORE DUP6 SWAP1 REVERT JUMPDEST POP POP CALLVALUE PUSH3 0x33F JUMPI DUP2 PUSH1 0x3 NOT CALLDATASIZE ADD SLT PUSH3 0x33F JUMPI MLOAD PUSH32 0x0 PUSH1 0x1 PUSH1 0x1 PUSH1 0xA0 SHL SUB AND DUP2 MSTORE PUSH1 0x20 SWAP1 RETURN JUMPDEST POP SWAP2 SWAP1 CALLVALUE PUSH3 0x33F JUMPI DUP1 PUSH1 0x3 NOT CALLDATASIZE ADD SLT PUSH3 0x33F JUMPI PUSH3 0xCE8 PUSH3 0x12E1 JUMP JUMPDEST SWAP1 CALLER PUSH1 0x1 PUSH1 0x1 PUSH1 0xA0 SHL SUB DUP4 AND SUB PUSH3 0xD08 JUMPI POP PUSH3 0x1E0 SWAP2 SWAP3 CALLDATALOAD PUSH3 0x1509 JUMP JUMPDEST MLOAD PUSH4 0x334BD919 PUSH1 0xE1 SHL DUP2 MSTORE DUP4 SWAP1 REVERT JUMPDEST POP SWAP1 CALLVALUE PUSH3 0x19A JUMPI DUP1 PUSH1 0x3 NOT CALLDATASIZE ADD SLT PUSH3 0x19A JUMPI PUSH3 0x1E0 SWAP2 CALLDATALOAD PUSH3 0xD41 PUSH1 0x1 PUSH3 0x1C8 PUSH3 0x12E1 JUMP JUMPDEST PUSH3 0x148A JUMP JUMPDEST POP POP CALLVALUE PUSH3 0x33F JUMPI DUP2 PUSH1 0x3 NOT CALLDATASIZE ADD SLT PUSH3 0x33F JUMPI PUSH1 0x20 SWAP1 PUSH1 0x3 SLOAD SWAP1 MLOAD SWAP1 DUP2 MSTORE RETURN JUMPDEST POP CALLVALUE PUSH3 0x19A JUMPI PUSH1 0x20 CALLDATASIZE PUSH1 0x3 NOT ADD SLT PUSH3 0x19A JUMPI DUP2 PUSH1 0x20 SWAP4 PUSH1 0x1 SWAP3 CALLDATALOAD DUP2 MSTORE DUP1 DUP6 MSTORE KECCAK256 ADD SLOAD SWAP1 MLOAD SWAP1 DUP2 MSTORE RETURN JUMPDEST POP POP CALLVALUE PUSH3 0x33F JUMPI DUP2 PUSH1 0x3 NOT CALLDATASIZE ADD SLT PUSH3 0x33F JUMPI MLOAD PUSH32 0x0 PUSH1 0x1 PUSH1 0x1 PUSH1 0xA0 SHL SUB AND DUP2 MSTORE PUSH1 0x20 SWAP1 RETURN JUMPDEST POP SWAP1 CALLVALUE PUSH3 0x19A JUMPI PUSH3 0xDEC CALLDATASIZE PUSH3 0x1348 JUMP JUMPDEST PUSH1 0x1 SLOAD SWAP1 SWAP3 SWAP2 PUSH1 0x1 PUSH1 0x1 PUSH1 0xA0 SHL SUB SWAP2 DUP3 AND CALLER SUB PUSH3 0xC73 JUMPI AND SWAP3 DUP4 ISZERO PUSH3 0xC65 JUMPI POP PUSH32 0x5C001B1D70AF3E0A09EED53BC0588D57FEC6D23196319BA29C6313EB3321273C SWAP2 PUSH1 0x20 SWAP2 DUP5 DUP7 MSTORE PUSH1 0x9 DUP4 MSTORE PUSH3 0xC5B DUP3 DUP3 DUP9 KECCAK256 SWAP1 PUSH1 0xFF DUP1 NOT DUP4 SLOAD AND SWAP2 ISZERO ISZERO AND OR SWAP1 SSTORE JUMP JUMPDEST POP CALLVALUE PUSH3 0x19A JUMPI PUSH1 0x20 CALLDATASIZE PUSH1 0x3 NOT ADD SLT PUSH3 0x19A JUMPI PUSH3 0xE71 PUSH3 0x12FD JUMP JUMPDEST PUSH1 0x1 SLOAD SWAP2 SWAP1 PUSH1 0x1 PUSH1 0x1 PUSH1 0xA0 SHL SUB SWAP1 DUP2 DUP5 AND CALLER SUB PUSH3 0xED7 JUMPI AND SWAP3 DUP4 ISZERO PUSH3 0xECA JUMPI POP POP PUSH1 0x1 PUSH1 0x1 PUSH1 0xA0 SHL SUB NOT AND DUP2 OR PUSH1 0x1 SSTORE PUSH32 0x50146D0E3C60AA1D17A70635B05494F864E86144A2201275021014FBF08BAFE2 DUP3 DUP1 LOG2 DUP1 RETURN JUMPDEST MLOAD PUSH4 0xD92E233D PUSH1 0xE0 SHL DUP2 MSTORE REVERT JUMPDEST DUP5 MLOAD PUSH4 0x30CD7471 PUSH1 0xE0 SHL DUP2 MSTORE DUP4 SWAP1 REVERT JUMPDEST POP CALLVALUE PUSH3 0x19A JUMPI PUSH1 0x60 CALLDATASIZE PUSH1 0x3 NOT ADD SLT PUSH3 0x19A JUMPI DUP1 CALLDATALOAD SWAP1 PUSH3 0xF08 PUSH3 0x12E1 JUMP JUMPDEST PUSH1 0x44 SWAP2 PUSH1 0x44 CALLDATALOAD SWAP5 PUSH8 0xFFFFFFFFFFFFFFFF SWAP6 DUP7 DUP2 GT PUSH3 0x683 JUMPI PUSH3 0xF30 SWAP1 CALLDATASIZE SWAP1 DUP5 ADD PUSH3 0x1314 JUMP JUMPDEST SWAP4 SWAP1 CALLER DUP10 MSTORE PUSH1 0x20 SWAP1 PUSH1 0x8 DUP3 MSTORE PUSH1 0xFF DUP5 DUP12 KECCAK256 SLOAD AND ISZERO PUSH3 0x1278 JUMPI PUSH1 0x1 PUSH1 0x1 PUSH1 0xA0 SHL SUB DUP4 DUP2 AND SWAP10 SWAP1 SWAP8 SWAP1 DUP11 ISZERO PUSH3 0x1268 JUMPI PUSH1 0x2 DUP9 LT DUP1 ISZERO PUSH3 0x125D JUMPI JUMPDEST PUSH3 0x124D JUMPI SWAP1 DUP12 SWAP5 SWAP4 SWAP3 SWAP2 DUP11 DUP7 MSTORE DUP8 DUP5 MSTORE DUP10 DUP8 DUP8 KECCAK256 SLOAD AND ISZERO PUSH3 0x1135 JUMPI JUMPDEST POP DUP10 DUP6 MSTORE DUP7 DUP4 MSTORE DUP9 DUP7 DUP7 KECCAK256 SLOAD AND SWAP8 DUP6 JUMPDEST DUP2 DUP2 LT PUSH3 0x102D JUMPI POP POP POP DUP9 DUP5 MSTORE POP PUSH1 0x6 SWAP1 MSTORE DUP3 DUP3 KECCAK256 DUP1 SLOAD PUSH1 0x1 PUSH1 0x1 PUSH1 0xA0 SHL SUB NOT DUP2 AND DUP11 OR SWAP1 SWAP2 SSTORE SWAP5 DUP1 EXTCODESIZE ISZERO PUSH3 0x19A JUMPI DUP3 DUP1 SWAP2 PUSH1 0x24 DUP12 DUP8 MLOAD SWAP5 DUP6 SWAP4 DUP5 SWAP3 PUSH4 0x305DD99 PUSH1 0xE0 SHL DUP5 MSTORE DUP12 DUP5 ADD MSTORE GAS CALL DUP1 ISZERO PUSH3 0xBA6 JUMPI PUSH3 0xB94 JUMPI POP DUP6 PUSH1 0x2 SLOAD AND DUP1 PUSH3 0xB27 JUMPI POP POP POP POP POP AND SWAP1 PUSH32 0x8D0E4B93B365B4A0643B2389408B7FA889DAFBD71A905A7848245E03D1D4260B DUP5 DUP1 LOG4 DUP1 RETURN JUMPDEST SWAP1 SWAP2 SWAP3 SWAP4 SWAP5 SWAP6 POP PUSH3 0x1041 DUP2 DUP4 DUP7 PUSH3 0x13A0 JUMP JUMPDEST CALLDATALOAD DUP1 ISZERO PUSH3 0x1125 JUMPI DUP1 DUP15 MSTORE PUSH1 0x5 DUP1 DUP8 MSTORE DUP9 DUP16 KECCAK256 SLOAD DUP1 ISZERO SWAP1 DUP2 ISZERO DUP16 DUP2 PUSH3 0x1119 JUMPI JUMPDEST POP PUSH3 0x10FE JUMPI POP SWAP1 DUP16 SWAP9 SWAP8 SWAP7 SWAP6 SWAP5 SWAP4 SWAP3 SWAP2 PUSH3 0x1084 JUMPI JUMPDEST POP POP PUSH1 0x1 ADD PUSH3 0xF99 JUMP JUMPDEST DUP2 DUP10 MSTORE DUP7 MSTORE DUP13 DUP10 DUP10 KECCAK256 SSTORE DUP13 DUP9 MSTORE PUSH1 0x7 DUP7 MSTORE PUSH3 0x10A3 DUP2 DUP11 DUP11 KECCAK256 PUSH3 0x13C7 JUMP JUMPDEST DUP11 EXTCODESIZE ISZERO PUSH3 0x683 JUMPI DUP9 MLOAD PUSH4 0x1089F5ED PUSH1 0xE0 SHL DUP2 MSTORE DUP1 DUP12 ADD SWAP2 SWAP1 SWAP2 MSTORE DUP8 DUP2 PUSH1 0x24 DUP2 DUP4 DUP16 GAS CALL DUP1 ISZERO PUSH3 0x10F4 JUMPI SWAP1 PUSH1 0x1 SWAP3 SWAP2 PUSH3 0x10E2 JUMPI JUMPDEST DUP2 SWAP3 POP PUSH3 0x1079 JUMP JUMPDEST PUSH3 0x10ED SWAP1 PUSH3 0x140D JUMP JUMPDEST CODESIZE PUSH3 0x10D9 JUMP JUMPDEST DUP10 MLOAD RETURNDATASIZE DUP11 DUP3 RETURNDATACOPY RETURNDATASIZE SWAP1 REVERT JUMPDEST DUP12 DUP8 SWAP2 DUP6 DUP14 MLOAD SWAP3 PUSH4 0x32214C31 PUSH1 0xE2 SHL DUP5 MSTORE DUP4 ADD MSTORE PUSH1 0x24 DUP3 ADD MSTORE REVERT JUMPDEST SWAP1 POP DUP2 EQ ISZERO DUP16 PUSH3 0x1062 JUMP JUMPDEST DUP8 MLOAD PUSH4 0x71D8CEFB PUSH1 0xE0 SHL DUP2 MSTORE DUP10 SWAP1 REVERT JUMPDEST SWAP1 SWAP2 SWAP3 SWAP4 SWAP5 POP PUSH1 0x3 SLOAD DUP11 SUB PUSH3 0x1236 JUMPI DUP6 MLOAD SWAP1 PUSH2 0xBD0 DUP1 DUP4 ADD SWAP2 DUP3 GT DUP4 DUP4 LT OR PUSH3 0x1223 JUMPI SWAP2 PUSH3 0x11DA DUP8 DUP16 SWAP9 SWAP8 SWAP7 SWAP6 SWAP5 DUP4 SWAP5 DUP16 SWAP2 PUSH3 0x1580 DUP7 CODECOPY PUSH1 0x1 PUSH1 0x1 PUSH1 0xA0 SHL SUB PUSH32 0x0 DUP2 AND DUP3 MSTORE PUSH32 0x0 DUP2 AND PUSH1 0x20 DUP4 ADD MSTORE PUSH1 0x40 DUP3 ADD SWAP3 SWAP1 SWAP3 MSTORE SWAP2 AND PUSH1 0x60 DUP3 ADD MSTORE PUSH1 0x80 ADD SWAP1 JUMP JUMPDEST SUB SWAP1 DUP7 CREATE DUP1 ISZERO PUSH3 0x1219 JUMPI DUP11 DUP7 MSTORE DUP8 DUP5 MSTORE DUP10 DUP8 DUP8 KECCAK256 SWAP2 AND PUSH1 0x1 PUSH1 0x1 PUSH1 0x60 SHL SUB PUSH1 0xA0 SHL DUP3 SLOAD AND OR SWAP1 SSTORE PUSH3 0x120F PUSH1 0x3 SLOAD PUSH3 0x137A JUMP JUMPDEST PUSH1 0x3 SSTORE CODESIZE PUSH3 0xF89 JUMP JUMPDEST DUP7 MLOAD RETURNDATASIZE DUP8 DUP3 RETURNDATACOPY RETURNDATASIZE SWAP1 REVERT JUMPDEST PUSH4 0x4E487B71 PUSH1 0xE0 SHL DUP15 MSTORE PUSH1 0x41 DUP10 MSTORE PUSH1 0x24 DUP15 REVERT JUMPDEST DUP6 MLOAD PUSH4 0x33D81CB PUSH1 0xE5 SHL DUP2 MSTORE DUP1 DUP9 ADD DUP12 SWAP1 MSTORE PUSH1 0x24 SWAP1 REVERT JUMPDEST DUP6 MLOAD PUSH4 0x1A49577B PUSH1 0xE1 SHL DUP2 MSTORE DUP8 SWAP1 REVERT JUMPDEST POP PUSH1 0xA DUP9 GT PUSH3 0xF6B JUMP JUMPDEST DUP6 MLOAD PUSH4 0xD92E233D PUSH1 0xE0 SHL DUP2 MSTORE DUP8 SWAP1 REVERT JUMPDEST POP POP POP MLOAD PUSH4 0x6A845BD9 PUSH1 0xE1 SHL DUP2 MSTORE REVERT JUMPDEST SWAP3 POP POP CALLVALUE PUSH3 0x19A JUMPI PUSH1 0x20 CALLDATASIZE PUSH1 0x3 NOT ADD SLT PUSH3 0x19A JUMPI CALLDATALOAD PUSH4 0xFFFFFFFF PUSH1 0xE0 SHL DUP2 AND DUP1 SWAP2 SUB PUSH3 0x19A JUMPI PUSH1 0x20 SWAP3 POP PUSH4 0x7965DB0B PUSH1 0xE0 SHL DUP2 EQ SWAP1 DUP2 ISZERO PUSH3 0x12CF JUMPI JUMPDEST POP ISZERO ISZERO DUP2 MSTORE RETURN JUMPDEST PUSH4 0x1FFC9A7 PUSH1 0xE0 SHL EQ SWAP1 POP CODESIZE PUSH3 0x12C8 JUMP JUMPDEST PUSH1 0x24 CALLDATALOAD SWAP1 PUSH1 0x1 PUSH1 0x1 PUSH1 0xA0 SHL SUB DUP3 AND DUP3 SUB PUSH3 0x12F8 JUMPI JUMP JUMPDEST PUSH1 0x0 DUP1 REVERT JUMPDEST PUSH1 0x4 CALLDATALOAD SWAP1 PUSH1 0x1 PUSH1 0x1 PUSH1 0xA0 SHL SUB DUP3 AND DUP3 SUB PUSH3 0x12F8 JUMPI JUMP JUMPDEST SWAP2 DUP2 PUSH1 0x1F DUP5 ADD SLT ISZERO PUSH3 0x12F8 JUMPI DUP3 CALLDATALOAD SWAP2 PUSH8 0xFFFFFFFFFFFFFFFF DUP4 GT PUSH3 0x12F8 JUMPI PUSH1 0x20 DUP1 DUP6 ADD SWAP5 DUP5 PUSH1 0x5 SHL ADD ADD GT PUSH3 0x12F8 JUMPI JUMP JUMPDEST PUSH1 0x40 SWAP1 PUSH1 0x3 NOT ADD SLT PUSH3 0x12F8 JUMPI PUSH1 0x4 CALLDATALOAD PUSH1 0x1 PUSH1 0x1 PUSH1 0xA0 SHL SUB DUP2 AND DUP2 SUB PUSH3 0x12F8 JUMPI SWAP1 PUSH1 0x24 CALLDATALOAD DUP1 ISZERO ISZERO DUP2 SUB PUSH3 0x12F8 JUMPI SWAP1 JUMP JUMPDEST PUSH1 0x0 NOT DUP2 EQ PUSH3 0x138A JUMPI PUSH1 0x1 ADD SWAP1 JUMP JUMPDEST PUSH4 0x4E487B71 PUSH1 0xE0 SHL PUSH1 0x0 MSTORE PUSH1 0x11 PUSH1 0x4 MSTORE PUSH1 0x24 PUSH1 0x0 REVERT JUMPDEST SWAP2 SWAP1 DUP2 LT ISZERO PUSH3 0x13B1 JUMPI PUSH1 0x5 SHL ADD SWAP1 JUMP JUMPDEST PUSH4 0x4E487B71 PUSH1 0xE0 SHL PUSH1 0x0 MSTORE PUSH1 0x32 PUSH1 0x4 MSTORE PUSH1 0x24 PUSH1 0x0 REVERT JUMPDEST DUP1 SLOAD SWAP1 PUSH9 0x10000000000000000 DUP3 LT ISZERO PUSH3 0x13F7 JUMPI PUSH1 0x1 DUP3 ADD DUP1 DUP3 SSTORE DUP3 LT ISZERO PUSH3 0x13B1 JUMPI PUSH1 0x0 MSTORE PUSH1 0x20 PUSH1 0x0 KECCAK256 ADD SSTORE JUMP JUMPDEST PUSH4 0x4E487B71 PUSH1 0xE0 SHL PUSH1 0x0 MSTORE PUSH1 0x41 PUSH1 0x4 MSTORE PUSH1 0x24 PUSH1 0x0 REVERT JUMPDEST PUSH8 0xFFFFFFFFFFFFFFFF DUP2 GT PUSH3 0x13F7 JUMPI PUSH1 0x40 MSTORE JUMP JUMPDEST SWAP1 PUSH1 0x1F DUP1 NOT SWAP2 ADD AND DUP2 ADD SWAP1 DUP2 LT PUSH8 0xFFFFFFFFFFFFFFFF DUP3 GT OR PUSH3 0x13F7 JUMPI PUSH1 0x40 MSTORE JUMP JUMPDEST DUP1 PUSH1 0x0 MSTORE PUSH1 0x0 PUSH1 0x20 MSTORE PUSH1 0x40 PUSH1 0x0 KECCAK256 CALLER PUSH1 0x0 MSTORE PUSH1 0x20 MSTORE PUSH1 0xFF PUSH1 0x40 PUSH1 0x0 KECCAK256 SLOAD AND ISZERO PUSH3 0x146C JUMPI POP JUMP JUMPDEST PUSH1 0x44 SWAP1 PUSH1 0x40 MLOAD SWAP1 PUSH4 0xE2517D3F PUSH1 0xE0 SHL DUP3 MSTORE CALLER PUSH1 0x4 DUP4 ADD MSTORE PUSH1 0x24 DUP3 ADD MSTORE REVERT JUMPDEST SWAP1 PUSH1 0x0 SWAP2 DUP1 DUP4 MSTORE DUP3 PUSH1 0x20 MSTORE PUSH1 0x40 DUP4 KECCAK256 SWAP2 PUSH1 0x1 DUP1 PUSH1 0xA0 SHL SUB AND SWAP2 DUP3 DUP5 MSTORE PUSH1 0x20 MSTORE PUSH1 0xFF PUSH1 0x40 DUP5 KECCAK256 SLOAD AND ISZERO PUSH1 0x0 EQ PUSH3 0x1504 JUMPI DUP1 DUP4 MSTORE DUP3 PUSH1 0x20 MSTORE PUSH1 0x40 DUP4 KECCAK256 DUP3 DUP5 MSTORE PUSH1 0x20 MSTORE PUSH1 0x40 DUP4 KECCAK256 PUSH1 0x1 PUSH1 0xFF NOT DUP3 SLOAD AND OR SWAP1 SSTORE PUSH32 0x2F8788117E7EFF1D82E926EC794901D17C78024A50270940304540A733656F0D CALLER SWAP4 DUP1 LOG4 PUSH1 0x1 SWAP1 JUMP JUMPDEST POP POP SWAP1 JUMP JUMPDEST SWAP1 PUSH1 0x0 SWAP2 DUP1 DUP4 MSTORE DUP3 PUSH1 0x20 MSTORE PUSH1 0x40 DUP4 KECCAK256 SWAP2 PUSH1 0x1 DUP1 PUSH1 0xA0 SHL SUB AND SWAP2 DUP3 DUP5 MSTORE PUSH1 0x20 MSTORE PUSH1 0xFF PUSH1 0x40 DUP5 KECCAK256 SLOAD AND PUSH1 0x0 EQ PUSH3 0x1504 JUMPI DUP1 DUP4 MSTORE DUP3 PUSH1 0x20 MSTORE PUSH1 0x40 DUP4 KECCAK256 DUP3 DUP5 MSTORE PUSH1 0x20 MSTORE PUSH1 0x40 DUP4 KECCAK256 PUSH1 0xFF NOT DUP2 SLOAD AND SWAP1 SSTORE PUSH32 0xF6391F5C32D9C69D2A47EA670B442974B53935D1EDC7FD64EB21E047A839171B CALLER SWAP4 DUP1 LOG4 PUSH1 0x1 SWAP1 JUMP INVALID PUSH1 0xE0 CALLVALUE PUSH2 0xE4 JUMPI PUSH1 0x1F PUSH2 0xBD0 CODESIZE DUP2 SWAP1 SUB SWAP2 DUP3 ADD PUSH1 0x1F NOT AND DUP4 ADD SWAP2 PUSH1 0x1 PUSH1 0x1 PUSH1 0x40 SHL SUB DUP4 GT DUP5 DUP5 LT OR PUSH2 0xE9 JUMPI DUP1 DUP5 SWAP3 PUSH1 0x80 SWAP5 PUSH1 0x40 MSTORE DUP4 CODECOPY DUP2 ADD SUB SLT PUSH2 0xE4 JUMPI PUSH2 0x47 DUP2 PUSH2 0xFF JUMP JUMPDEST SWAP1 PUSH2 0x54 PUSH1 0x20 DUP3 ADD PUSH2 0xFF JUMP JUMPDEST PUSH2 0x65 PUSH1 0x60 PUSH1 0x40 DUP5 ADD MLOAD SWAP4 ADD PUSH2 0xFF JUMP JUMPDEST SWAP2 PUSH1 0x1 PUSH1 0x1 PUSH1 0xA0 SHL SUB DUP1 DUP5 AND SWAP3 DUP4 ISZERO PUSH2 0xD2 JUMPI DUP2 PUSH2 0xA7 SWAP7 AND PUSH1 0x80 MSTORE AND PUSH1 0xA0 MSTORE PUSH1 0xC0 MSTORE PUSH1 0x1 DUP1 PUSH1 0xA0 SHL SUB NOT PUSH1 0x1 SLOAD AND OR PUSH1 0x1 SSTORE PUSH2 0xA1 DUP2 PUSH2 0x113 JUMP JUMPDEST POP PUSH2 0x191 JUMP JUMPDEST POP PUSH1 0x40 MLOAD PUSH2 0x97E SWAP1 DUP2 PUSH2 0x232 DUP3 CODECOPY PUSH1 0x80 MLOAD DUP2 PUSH2 0x3D6 ADD MSTORE PUSH1 0xA0 MLOAD DUP2 PUSH2 0x2A7 ADD MSTORE PUSH1 0xC0 MLOAD DUP2 PUSH2 0x53D ADD MSTORE RETURN JUMPDEST PUSH1 0x40 MLOAD PUSH4 0x538BA4F9 PUSH1 0xE0 SHL DUP2 MSTORE PUSH1 0x4 SWAP1 REVERT JUMPDEST PUSH1 0x0 DUP1 REVERT JUMPDEST PUSH4 0x4E487B71 PUSH1 0xE0 SHL PUSH1 0x0 MSTORE PUSH1 0x41 PUSH1 0x4 MSTORE PUSH1 0x24 PUSH1 0x0 REVERT JUMPDEST MLOAD SWAP1 PUSH1 0x1 PUSH1 0x1 PUSH1 0xA0 SHL SUB DUP3 AND DUP3 SUB PUSH2 0xE4 JUMPI JUMP JUMPDEST PUSH1 0x1 PUSH1 0x1 PUSH1 0xA0 SHL SUB AND PUSH1 0x0 DUP2 DUP2 MSTORE PUSH32 0xAD3228B676F7D3CD4284A5443F17F1962B36E491B30A40B2405849E597BA5FB5 PUSH1 0x20 MSTORE PUSH1 0x40 DUP2 KECCAK256 SLOAD SWAP1 SWAP2 SWAP1 PUSH1 0xFF AND PUSH2 0x18D JUMPI DUP2 DUP1 MSTORE DUP2 PUSH1 0x20 MSTORE PUSH1 0x40 DUP3 KECCAK256 DUP2 DUP4 MSTORE PUSH1 0x20 MSTORE PUSH1 0x40 DUP3 KECCAK256 PUSH1 0x1 PUSH1 0xFF NOT DUP3 SLOAD AND OR SWAP1 SSTORE CALLER SWAP2 PUSH1 0x0 DUP1 MLOAD PUSH1 0x20 PUSH2 0xBB0 DUP4 CODECOPY DUP2 MLOAD SWAP2 MSTORE DUP2 DUP1 LOG4 PUSH1 0x1 SWAP1 JUMP JUMPDEST POP SWAP1 JUMP JUMPDEST PUSH1 0x1 PUSH1 0x1 PUSH1 0xA0 SHL SUB AND PUSH1 0x0 DUP2 DUP2 MSTORE PUSH32 0xE34EE107D4EAB1DDC75517D203004C4945B8356755EF72E04F7037B09E288F29 PUSH1 0x20 MSTORE PUSH1 0x40 DUP2 KECCAK256 SLOAD SWAP1 SWAP2 SWAP1 PUSH32 0x21D2830D54424CED495E8B9A2D9096CE77E272F963440F132CF2276B5578AA2F SWAP1 PUSH1 0xFF AND PUSH2 0x22C JUMPI DUP1 DUP4 MSTORE DUP3 PUSH1 0x20 MSTORE PUSH1 0x40 DUP4 KECCAK256 DUP3 DUP5 MSTORE PUSH1 0x20 MSTORE PUSH1 0x40 DUP4 KECCAK256 PUSH1 0x1 PUSH1 0xFF NOT DUP3 SLOAD AND OR SWAP1 SSTORE PUSH1 0x0 DUP1 MLOAD PUSH1 0x20 PUSH2 0xBB0 DUP4 CODECOPY DUP2 MLOAD SWAP2 MSTORE CALLER SWAP4 DUP1 LOG4 PUSH1 0x1 SWAP1 JUMP JUMPDEST POP POP SWAP1 JUMP INVALID PUSH1 0x80 PUSH1 0x40 DUP2 DUP2 MSTORE PUSH1 0x4 SWAP1 DUP2 CALLDATASIZE LT ISZERO PUSH2 0x16 JUMPI PUSH1 0x0 DUP1 REVERT JUMPDEST PUSH1 0x0 SWAP3 DUP4 CALLDATALOAD PUSH1 0xE0 SHR SWAP1 DUP2 PUSH4 0x1FFC9A7 EQ PUSH2 0x604 JUMPI POP DUP1 PUSH4 0x305DD99 EQ PUSH2 0x560 JUMPI DUP1 PUSH4 0x6C81719 EQ PUSH2 0x525 JUMPI DUP1 PUSH4 0x1089F5ED EQ PUSH2 0x424 JUMPI DUP1 PUSH4 0x11AEE380 EQ PUSH2 0x405 JUMPI DUP1 PUSH4 0x23BD4D7A EQ PUSH2 0x3C1 JUMPI DUP1 PUSH4 0x248A9CA3 EQ PUSH2 0x397 JUMPI DUP1 PUSH4 0x24C0E1C3 EQ PUSH2 0x36E JUMPI DUP1 PUSH4 0x2F2FF15D EQ PUSH2 0x346 JUMPI DUP1 PUSH4 0x36568ABE EQ PUSH2 0x2FF JUMPI DUP1 PUSH4 0x40EEDABB EQ PUSH2 0x2D6 JUMPI DUP1 PUSH4 0x7BF6DF91 EQ PUSH2 0x292 JUMPI DUP1 PUSH4 0x91D14854 EQ PUSH2 0x24C JUMPI DUP1 PUSH4 0x9EAB5253 EQ PUSH2 0x16B JUMPI DUP1 PUSH4 0xA217FDDF EQ PUSH2 0x14C JUMPI DUP1 PUSH4 0xD50C7377 EQ PUSH2 0x11F JUMPI PUSH4 0xD547741F EQ PUSH2 0xDF JUMPI PUSH1 0x0 DUP1 REVERT JUMPDEST CALLVALUE PUSH2 0x11B JUMPI DUP1 PUSH1 0x3 NOT CALLDATASIZE ADD SLT PUSH2 0x11B JUMPI PUSH2 0x117 SWAP2 CALLDATALOAD PUSH2 0x112 PUSH1 0x1 PUSH2 0x101 PUSH2 0x658 JUMP JUMPDEST SWAP4 DUP4 DUP8 MSTORE DUP7 PUSH1 0x20 MSTORE DUP7 KECCAK256 ADD SLOAD PUSH2 0x6DB JUMP JUMPDEST PUSH2 0x8B3 JUMP JUMPDEST POP DUP1 RETURN JUMPDEST DUP3 DUP1 REVERT JUMPDEST POP SWAP1 CALLVALUE PUSH2 0x11B JUMPI PUSH1 0x20 CALLDATASIZE PUSH1 0x3 NOT ADD SLT PUSH2 0x11B JUMPI DUP2 PUSH1 0x20 SWAP4 PUSH1 0xFF SWAP3 CALLDATALOAD DUP2 MSTORE PUSH1 0x3 DUP6 MSTORE KECCAK256 SLOAD AND SWAP1 MLOAD SWAP1 ISZERO ISZERO DUP2 MSTORE RETURN JUMPDEST DUP4 DUP3 CALLVALUE PUSH2 0x167 JUMPI DUP2 PUSH1 0x3 NOT CALLDATASIZE ADD SLT PUSH2 0x167 JUMPI MLOAD SWAP1 DUP2 MSTORE PUSH1 0x20 SWAP1 RETURN JUMPDEST POP DUP1 REVERT JUMPDEST POP DUP3 CALLVALUE PUSH2 0x249 JUMPI DUP1 PUSH1 0x3 NOT CALLDATASIZE ADD SLT PUSH2 0x249 JUMPI DUP2 MLOAD DUP1 SWAP2 PUSH1 0x2 SLOAD SWAP4 DUP5 DUP4 MSTORE PUSH1 0x20 DUP1 SWAP4 ADD DUP1 SWAP6 PUSH1 0x2 DUP5 MSTORE PUSH32 0x405787FA12A823E0F2B7631CC41B3BA8828B3321CA811111FA75CD3AA3BB5ACE SWAP1 DUP5 JUMPDEST DUP7 DUP3 DUP3 LT PUSH2 0x235 JUMPI POP POP POP POP DUP5 SWAP1 SUB PUSH1 0x1F ADD PUSH1 0x1F NOT AND DUP5 ADD SWAP6 PUSH8 0xFFFFFFFFFFFFFFFF DUP8 GT DUP6 DUP9 LT OR PUSH2 0x222 JUMPI POP DUP6 DUP2 MSTORE DUP3 DUP7 MSTORE SWAP3 MLOAD DUP6 DUP4 ADD DUP2 SWAP1 MSTORE DUP6 SWAP5 SWAP4 DUP6 ADD SWAP4 SWAP3 SWAP1 SWAP2 JUMPDEST DUP3 DUP2 LT PUSH2 0x20B JUMPI POP POP POP POP SUB SWAP1 RETURN JUMPDEST DUP4 MLOAD DUP6 MSTORE DUP7 SWAP6 POP SWAP4 DUP2 ADD SWAP4 SWAP3 DUP2 ADD SWAP3 PUSH1 0x1 ADD PUSH2 0x1FC JUMP JUMPDEST PUSH4 0x4E487B71 PUSH1 0xE0 SHL DUP4 MSTORE PUSH1 0x41 SWAP1 MSTORE PUSH1 0x24 DUP3 REVERT JUMPDEST DUP4 SLOAD DUP6 MSTORE SWAP1 SWAP4 ADD SWAP3 PUSH1 0x1 SWAP3 DUP4 ADD SWAP3 ADD PUSH2 0x1B7 JUMP JUMPDEST DUP1 REVERT JUMPDEST POP SWAP1 CALLVALUE PUSH2 0x11B JUMPI DUP2 PUSH1 0x3 NOT CALLDATASIZE ADD SLT PUSH2 0x11B JUMPI DUP2 PUSH1 0x20 SWAP4 PUSH1 0xFF SWAP3 PUSH2 0x26D PUSH2 0x658 JUMP JUMPDEST SWAP1 CALLDATALOAD DUP3 MSTORE DUP2 DUP7 MSTORE DUP3 DUP3 KECCAK256 PUSH1 0x1 PUSH1 0x1 PUSH1 0xA0 SHL SUB SWAP1 SWAP2 AND DUP3 MSTORE DUP6 MSTORE KECCAK256 SLOAD SWAP2 MLOAD SWAP2 AND ISZERO ISZERO DUP2 MSTORE RETURN JUMPDEST DUP4 DUP3 CALLVALUE PUSH2 0x167 JUMPI DUP2 PUSH1 0x3 NOT CALLDATASIZE ADD SLT PUSH2 0x167 JUMPI MLOAD PUSH32 0x0 PUSH1 0x1 PUSH1 0x1 PUSH1 0xA0 SHL SUB AND DUP2 MSTORE PUSH1 0x20 SWAP1 RETURN JUMPDEST DUP4 DUP3 CALLVALUE PUSH2 0x167 JUMPI DUP2 PUSH1 0x3 NOT CALLDATASIZE ADD SLT PUSH2 0x167 JUMPI PUSH1 0x1 SLOAD SWAP1 MLOAD PUSH1 0x1 PUSH1 0x1 PUSH1 0xA0 SHL SUB SWAP1 SWAP2 AND DUP2 MSTORE PUSH1 0x20 SWAP1 RETURN JUMPDEST POP DUP3 SWAP1 CALLVALUE PUSH2 0x167 JUMPI DUP1 PUSH1 0x3 NOT CALLDATASIZE ADD SLT PUSH2 0x167 JUMPI PUSH2 0x31A PUSH2 0x658 JUMP JUMPDEST SWAP1 CALLER PUSH1 0x1 PUSH1 0x1 PUSH1 0xA0 SHL SUB DUP4 AND SUB PUSH2 0x337 JUMPI POP PUSH2 0x117 SWAP2 SWAP3 CALLDATALOAD PUSH2 0x8B3 JUMP JUMPDEST MLOAD PUSH4 0x334BD919 PUSH1 0xE1 SHL DUP2 MSTORE DUP4 SWAP1 REVERT JUMPDEST POP CALLVALUE PUSH2 0x11B JUMPI DUP1 PUSH1 0x3 NOT CALLDATASIZE ADD SLT PUSH2 0x11B JUMPI PUSH2 0x117 SWAP2 CALLDATALOAD PUSH2 0x369 PUSH1 0x1 PUSH2 0x101 PUSH2 0x658 JUMP JUMPDEST PUSH2 0x7A1 JUMP JUMPDEST DUP4 DUP3 CALLVALUE PUSH2 0x167 JUMPI DUP2 PUSH1 0x3 NOT CALLDATASIZE ADD SLT PUSH2 0x167 JUMPI PUSH1 0x20 SWAP1 MLOAD PUSH1 0x0 DUP1 MLOAD PUSH1 0x20 PUSH2 0x929 DUP4 CODECOPY DUP2 MLOAD SWAP2 MSTORE DUP2 MSTORE RETURN JUMPDEST POP SWAP1 CALLVALUE PUSH2 0x11B JUMPI PUSH1 0x20 CALLDATASIZE PUSH1 0x3 NOT ADD SLT PUSH2 0x11B JUMPI DUP2 PUSH1 0x20 SWAP4 PUSH1 0x1 SWAP3 CALLDATALOAD DUP2 MSTORE DUP1 DUP6 MSTORE KECCAK256 ADD SLOAD SWAP1 MLOAD SWAP1 DUP2 MSTORE RETURN JUMPDEST DUP4 DUP3 CALLVALUE PUSH2 0x167 JUMPI DUP2 PUSH1 0x3 NOT CALLDATASIZE ADD SLT PUSH2 0x167 JUMPI MLOAD PUSH32 0x0 PUSH1 0x1 PUSH1 0x1 PUSH1 0xA0 SHL SUB AND DUP2 MSTORE PUSH1 0x20 SWAP1 RETURN JUMPDEST DUP4 DUP3 CALLVALUE PUSH2 0x167 JUMPI DUP2 PUSH1 0x3 NOT CALLDATASIZE ADD SLT PUSH2 0x167 JUMPI PUSH1 0x20 SWAP1 PUSH1 0x2 SLOAD SWAP1 MLOAD SWAP1 DUP2 MSTORE RETURN JUMPDEST POP CALLVALUE PUSH2 0x11B JUMPI PUSH1 0x20 CALLDATASIZE PUSH1 0x3 NOT ADD SLT PUSH2 0x11B JUMPI DUP2 CALLDATALOAD SWAP2 PUSH2 0x441 PUSH2 0x673 JUMP JUMPDEST PUSH1 0x2 SLOAD SWAP1 PUSH1 0xA DUP3 LT ISZERO PUSH2 0x517 JUMPI DUP4 DUP6 MSTORE PUSH1 0x3 PUSH1 0x20 MSTORE PUSH1 0xFF DUP4 DUP7 KECCAK256 SLOAD AND PUSH2 0x509 JUMPI PUSH9 0x10000000000000000 DUP3 LT ISZERO PUSH2 0x4F6 JUMPI PUSH1 0x1 DUP3 ADD DUP1 PUSH1 0x2 SSTORE DUP3 LT ISZERO PUSH2 0x4E3 JUMPI POP PUSH32 0x405787FA12A823E0F2B7631CC41B3BA8828B3321CA811111FA75CD3AA3BB5ACE ADD DUP3 SWAP1 SSTORE DUP2 DUP4 MSTORE PUSH1 0x3 PUSH1 0x20 MSTORE DUP3 KECCAK256 DUP1 SLOAD PUSH1 0xFF NOT AND PUSH1 0x1 OR SWAP1 SSTORE PUSH32 0x663EDC42A721F7C73209441ED31F141CEF6912283C680024547D950559C55591 DUP3 DUP1 LOG2 DUP1 RETURN JUMPDEST PUSH4 0x4E487B71 PUSH1 0xE0 SHL DUP6 MSTORE PUSH1 0x32 SWAP1 MSTORE PUSH1 0x24 DUP5 REVERT JUMPDEST PUSH4 0x4E487B71 PUSH1 0xE0 SHL DUP6 MSTORE PUSH1 0x41 SWAP1 MSTORE PUSH1 0x24 DUP5 REVERT JUMPDEST DUP3 MLOAD PUSH4 0x7B89743F PUSH1 0xE0 SHL DUP2 MSTORE REVERT JUMPDEST DUP3 MLOAD PUSH4 0x470781ED PUSH1 0xE0 SHL DUP2 MSTORE REVERT JUMPDEST DUP4 DUP3 CALLVALUE PUSH2 0x167 JUMPI DUP2 PUSH1 0x3 NOT CALLDATASIZE ADD SLT PUSH2 0x167 JUMPI PUSH1 0x20 SWAP1 MLOAD PUSH32 0x0 DUP2 MSTORE RETURN JUMPDEST POP SWAP1 CALLVALUE PUSH2 0x11B JUMPI PUSH1 0x20 CALLDATASIZE PUSH1 0x3 NOT ADD SLT PUSH2 0x11B JUMPI DUP1 CALLDATALOAD PUSH1 0x1 PUSH1 0x1 PUSH1 0xA0 SHL SUB DUP2 DUP2 AND SWAP4 SWAP1 SWAP3 SWAP1 DUP5 DUP4 SUB PUSH2 0x600 JUMPI PUSH2 0x593 PUSH2 0x673 JUMP JUMPDEST DUP5 ISZERO PUSH2 0x5F3 JUMPI POP POP PUSH2 0x5C1 SWAP1 DUP4 PUSH1 0x1 SLOAD SWAP4 DUP5 AND SWAP4 PUSH12 0xFFFFFFFFFFFFFFFFFFFFFFFF PUSH1 0xA0 SHL AND OR PUSH1 0x1 SSTORE PUSH2 0x701 JUMP JUMPDEST POP PUSH2 0x5CB DUP2 PUSH2 0x81A JUMP JUMPDEST POP PUSH32 0x20A41B6AF7C8306FDEC52386C51D5C48321CD6FDE663606FF90DE727E964EEBE DUP4 DUP1 LOG3 DUP1 RETURN JUMPDEST MLOAD PUSH4 0x538BA4F9 PUSH1 0xE0 SHL DUP2 MSTORE REVERT JUMPDEST DUP6 DUP1 REVERT JUMPDEST DUP5 SWAP1 DUP5 CALLVALUE PUSH2 0x11B JUMPI PUSH1 0x20 CALLDATASIZE PUSH1 0x3 NOT ADD SLT PUSH2 0x11B JUMPI CALLDATALOAD PUSH4 0xFFFFFFFF PUSH1 0xE0 SHL DUP2 AND DUP1 SWAP2 SUB PUSH2 0x11B JUMPI PUSH1 0x20 SWAP3 POP PUSH4 0x7965DB0B PUSH1 0xE0 SHL DUP2 EQ SWAP1 DUP2 ISZERO PUSH2 0x647 JUMPI JUMPDEST POP ISZERO ISZERO DUP2 MSTORE RETURN JUMPDEST PUSH4 0x1FFC9A7 PUSH1 0xE0 SHL EQ SWAP1 POP DUP4 PUSH2 0x640 JUMP JUMPDEST PUSH1 0x24 CALLDATALOAD SWAP1 PUSH1 0x1 PUSH1 0x1 PUSH1 0xA0 SHL SUB DUP3 AND DUP3 SUB PUSH2 0x66E JUMPI JUMP JUMPDEST PUSH1 0x0 DUP1 REVERT JUMPDEST CALLER PUSH1 0x0 SWAP1 DUP2 MSTORE PUSH32 0xE34EE107D4EAB1DDC75517D203004C4945B8356755EF72E04F7037B09E288F29 PUSH1 0x20 MSTORE PUSH1 0x40 SWAP1 KECCAK256 SLOAD PUSH1 0x0 DUP1 MLOAD PUSH1 0x20 PUSH2 0x929 DUP4 CODECOPY DUP2 MLOAD SWAP2 MSTORE SWAP1 PUSH1 0xFF AND ISZERO PUSH2 0x6BD JUMPI POP JUMP JUMPDEST PUSH1 0x44 SWAP1 PUSH1 0x40 MLOAD SWAP1 PUSH4 0xE2517D3F PUSH1 0xE0 SHL DUP3 MSTORE CALLER PUSH1 0x4 DUP4 ADD MSTORE PUSH1 0x24 DUP3 ADD MSTORE REVERT JUMPDEST DUP1 PUSH1 0x0 MSTORE PUSH1 0x0 PUSH1 0x20 MSTORE PUSH1 0x40 PUSH1 0x0 KECCAK256 CALLER PUSH1 0x0 MSTORE PUSH1 0x20 MSTORE PUSH1 0xFF PUSH1 0x40 PUSH1 0x0 KECCAK256 SLOAD AND ISZERO PUSH2 0x6BD JUMPI POP JUMP JUMPDEST PUSH1 0x1 PUSH1 0x1 PUSH1 0xA0 SHL SUB AND PUSH1 0x0 DUP2 DUP2 MSTORE PUSH32 0xE34EE107D4EAB1DDC75517D203004C4945B8356755EF72E04F7037B09E288F29 PUSH1 0x20 MSTORE PUSH1 0x40 DUP2 KECCAK256 SLOAD SWAP1 SWAP2 SWAP1 PUSH1 0x0 DUP1 MLOAD PUSH1 0x20 PUSH2 0x929 DUP4 CODECOPY DUP2 MLOAD SWAP2 MSTORE SWAP1 PUSH1 0xFF AND PUSH2 0x79C JUMPI DUP1 DUP4 MSTORE DUP3 PUSH1 0x20 MSTORE PUSH1 0x40 DUP4 KECCAK256 DUP3 DUP5 MSTORE PUSH1 0x20 MSTORE PUSH1 0x40 DUP4 KECCAK256 PUSH1 0x1 PUSH1 0xFF NOT DUP3 SLOAD AND OR SWAP1 SSTORE PUSH32 0x2F8788117E7EFF1D82E926EC794901D17C78024A50270940304540A733656F0D CALLER SWAP4 DUP1 LOG4 PUSH1 0x1 SWAP1 JUMP JUMPDEST POP POP SWAP1 JUMP JUMPDEST SWAP1 PUSH1 0x0 SWAP2 DUP1 DUP4 MSTORE DUP3 PUSH1 0x20 MSTORE PUSH1 0x40 DUP4 KECCAK256 SWAP2 PUSH1 0x1 DUP1 PUSH1 0xA0 SHL SUB AND SWAP2 DUP3 DUP5 MSTORE PUSH1 0x20 MSTORE PUSH1 0xFF PUSH1 0x40 DUP5 KECCAK256 SLOAD AND ISZERO PUSH1 0x0 EQ PUSH2 0x79C JUMPI DUP1 DUP4 MSTORE DUP3 PUSH1 0x20 MSTORE PUSH1 0x40 DUP4 KECCAK256 DUP3 DUP5 MSTORE PUSH1 0x20 MSTORE PUSH1 0x40 DUP4 KECCAK256 PUSH1 0x1 PUSH1 0xFF NOT DUP3 SLOAD AND OR SWAP1 SSTORE PUSH32 0x2F8788117E7EFF1D82E926EC794901D17C78024A50270940304540A733656F0D CALLER SWAP4 DUP1 LOG4 PUSH1 0x1 SWAP1 JUMP JUMPDEST PUSH1 0x1 PUSH1 0x1 PUSH1 0xA0 SHL SUB AND PUSH1 0x0 DUP2 DUP2 MSTORE PUSH32 0xE34EE107D4EAB1DDC75517D203004C4945B8356755EF72E04F7037B09E288F29 PUSH1 0x20 MSTORE PUSH1 0x40 DUP2 KECCAK256 SLOAD SWAP1 SWAP2 SWAP1 PUSH1 0x0 DUP1 MLOAD PUSH1 0x20 PUSH2 0x929 DUP4 CODECOPY DUP2 MLOAD SWAP2 MSTORE SWAP1 PUSH1 0xFF AND ISZERO PUSH2 0x79C JUMPI DUP1 DUP4 MSTORE DUP3 PUSH1 0x20 MSTORE PUSH1 0x40 DUP4 KECCAK256 DUP3 DUP5 MSTORE PUSH1 0x20 MSTORE PUSH1 0x40 DUP4 KECCAK256 PUSH1 0xFF NOT DUP2 SLOAD AND SWAP1 SSTORE PUSH32 0xF6391F5C32D9C69D2A47EA670B442974B53935D1EDC7FD64EB21E047A839171B CALLER SWAP4 DUP1 LOG4 PUSH1 0x1 SWAP1 JUMP JUMPDEST SWAP1 PUSH1 0x0 SWAP2 DUP1 DUP4 MSTORE DUP3 PUSH1 0x20 MSTORE PUSH1 0x40 DUP4 KECCAK256 SWAP2 PUSH1 0x1 DUP1 PUSH1 0xA0 SHL SUB AND SWAP2 DUP3 DUP5 MSTORE PUSH1 0x20 MSTORE PUSH1 0xFF PUSH1 0x40 DUP5 KECCAK256 SLOAD AND PUSH1 0x0 EQ PUSH2 0x79C JUMPI DUP1 DUP4 MSTORE DUP3 PUSH1 0x20 MSTORE PUSH1 0x40 DUP4 KECCAK256 DUP3 DUP5 MSTORE PUSH1 0x20 MSTORE PUSH1 0x40 DUP4 KECCAK256 PUSH1 0xFF NOT DUP2 SLOAD AND SWAP1 SSTORE PUSH32 0xF6391F5C32D9C69D2A47EA670B442974B53935D1EDC7FD64EB21E047A839171B CALLER SWAP4 DUP1 LOG4 PUSH1 0x1 SWAP1 JUMP INVALID 0x21 0xD2 DUP4 0xD SLOAD TIMESTAMP 0x4C 0xED BLOBHASH MCOPY DUP12 SWAP11 0x2D SWAP1 SWAP7 0xCE PUSH24 0xE272F963440F132CF2276B5578AA2FA26469706673582212 KECCAK256 REVERT PUSH21 0x4B343B976A5397C7517C27C8EE76933A8C8EBD306B CALLCODE CALLVALUE 0xC2 PUSH10 0xF1350EB83264736F6C63 NUMBER STOP ADDMOD XOR STOP CALLER 0x2F DUP8 DUP9 GT PUSH31 0x7EFF1D82E926EC794901D17C78024A50270940304540A733656F0DA2646970 PUSH7 0x73582212206947 PUSH14 0x8A78E766E2D4D875F34CF3033F01 LOG0 0xD0 RETURNDATASIZE DUP4 PUSH3 0x39256A PUSH2 0x444F 0xBF DUP11 PUSH10 0x5964736F6C6343000818 STOP CALLER 0x2F DUP8 DUP9 GT PUSH31 0x7EFF1D82E926EC794901D17C78024A50270940304540A733656F0D00000000 "},"methodIdentifiers":{"ADMIN_ROLE()":"75b238fc","DEFAULT_ADMIN_ROLE()":"a217fddf","applyArbanLeader(uint256,address)":"577d5f2b","arbanAddress(uint256)":"f52fdb36","arbanOfSeat(uint256)":"b615a21a","authorizedJoinDocs(address)":"8814b83b","authorizedUpdaters(address)":"8ff29cfe","createArban(uint256[],address)":"b2b4eeea","finalizeArbanJoin(uint256,address,uint256[])":"0d611056","getMembers(uint256)":"c477ecab","getRoleAdmin(bytes32)":"248a9ca3","grantRole(bytes32,address)":"2f2ff15d","hasRole(bytes32,address)":"91d14854","leaderOfArban(uint256)":"8bba9e78","memberCount(uint256)":"6e8165e8","nextArbanId()":"24de06ed","organization()":"23bd4d7a","owner()":"8da5cb5b","renounceRole(bytes32,address)":"36568abe","revokeRole(bytes32,address)":"d547741f","seatSbt()":"388841b1","setJoinDoc(address,bool)":"50d50f49","setOwner(address)":"13af4035","setStructureRegistry(address)":"c90d6254","setUpdater(address,bool)":"1a153391","structureRegistry()":"6c378334","supportsInterface(bytes4)":"01ffc9a7"}}}}}