{"contracts/SeatSBT.sol":{"SeatSBT":{"abi":[{"inputs":[{"internalType":"address","name":"issuer_","type":"address"}],"stateMutability":"nonpayable","type":"constructor"},{"inputs":[],"name":"ApprovalsDisabled","type":"error"},{"inputs":[],"name":"NonexistentSeat","type":"error"},{"inputs":[],"name":"NotIssuer","type":"error"},{"inputs":[],"name":"SeatExists","type":"error"},{"inputs":[],"name":"Soulbound","type":"error"},{"inputs":[],"name":"Unsupported","type":"error"},{"inputs":[],"name":"ZeroAddress","type":"error"},{"anonymous":false,"inputs":[{"indexed":true,"internalType":"address","name":"to","type":"address"},{"indexed":true,"internalType":"uint256","name":"seatId","type":"uint256"}],"name":"SeatMinted","type":"event"},{"anonymous":false,"inputs":[{"indexed":true,"internalType":"address","name":"from","type":"address"},{"indexed":true,"internalType":"address","name":"to","type":"address"},{"indexed":true,"internalType":"uint256","name":"seatId","type":"uint256"}],"name":"Transfer","type":"event"},{"inputs":[{"internalType":"address","name":"","type":"address"},{"internalType":"uint256","name":"","type":"uint256"}],"name":"approve","outputs":[],"stateMutability":"pure","type":"function"},{"inputs":[{"internalType":"address","name":"account","type":"address"}],"name":"balanceOf","outputs":[{"internalType":"uint256","name":"","type":"uint256"}],"stateMutability":"view","type":"function"},{"inputs":[{"internalType":"uint256","name":"seatId","type":"uint256"}],"name":"exists","outputs":[{"internalType":"bool","name":"","type":"bool"}],"stateMutability":"view","type":"function"},{"inputs":[{"internalType":"uint256","name":"","type":"uint256"}],"name":"getApproved","outputs":[{"internalType":"address","name":"","type":"address"}],"stateMutability":"pure","type":"function"},{"inputs":[{"internalType":"address","name":"","type":"address"},{"internalType":"address","name":"","type":"address"}],"name":"isApprovedForAll","outputs":[{"internalType":"bool","name":"","type":"bool"}],"stateMutability":"pure","type":"function"},{"inputs":[],"name":"issuer","outputs":[{"internalType":"address","name":"","type":"address"}],"stateMutability":"view","type":"function"},{"inputs":[{"internalType":"address","name":"to","type":"address"},{"internalType":"uint256","name":"seatId","type":"uint256"}],"name":"mintSeat","outputs":[],"stateMutability":"nonpayable","type":"function"},{"inputs":[],"name":"name","outputs":[{"internalType":"string","name":"","type":"string"}],"stateMutability":"view","type":"function"},{"inputs":[{"internalType":"uint256","name":"seatId","type":"uint256"}],"name":"ownerOf","outputs":[{"internalType":"address","name":"","type":"address"}],"stateMutability":"view","type":"function"},{"inputs":[{"internalType":"address","name":"","type":"address"},{"internalType":"address","name":"","type":"address"},{"internalType":"uint256","name":"","type":"uint256"}],"name":"safeTransferFrom","outputs":[],"stateMutability":"pure","type":"function"},{"inputs":[{"internalType":"address","name":"","type":"address"},{"internalType":"address","name":"","type":"address"},{"internalType":"uint256","name":"","type":"uint256"},{"internalType":"bytes","name":"","type":"bytes"}],"name":"safeTransferFrom","outputs":[],"stateMutability":"pure","type":"function"},{"inputs":[{"internalType":"address","name":"","type":"address"},{"internalType":"bool","name":"","type":"bool"}],"name":"setApprovalForAll","outputs":[],"stateMutability":"pure","type":"function"},{"inputs":[{"internalType":"bytes4","name":"interfaceId","type":"bytes4"}],"name":"supportsInterface","outputs":[{"internalType":"bool","name":"","type":"bool"}],"stateMutability":"pure","type":"function"},{"inputs":[],"name":"symbol","outputs":[{"internalType":"string","name":"","type":"string"}],"stateMutability":"view","type":"function"},{"inputs":[{"internalType":"uint256","name":"","type":"uint256"}],"name":"tokenURI","outputs":[{"internalType":"string","name":"","type":"string"}],"stateMutability":"pure","type":"function"},{"inputs":[],"name":"totalSupply","outputs":[{"internalType":"uint256","name":"","type":"uint256"}],"stateMutability":"view","type":"function"},{"inputs":[{"internalType":"address","name":"","type":"address"},{"internalType":"address","name":"","type":"address"},{"internalType":"uint256","name":"","type":"uint256"}],"name":"transferFrom","outputs":[],"stateMutability":"pure","type":"function"}],"evm":{"bytecode":{"linkReferences":{},"object":"60a03461008957601f61072238819003918201601f19168301916001600160401b0383118484101761008e5780849260209460405283398101031261008957516001600160a01b03811680820361008957156100775760805260405161067d90816100a58239608051818181610331015261043c0152f35b60405163d92e233d60e01b8152600490fd5b600080fd5b634e487b7160e01b600052604160045260246000fdfe608060408181526004918236101561001657600080fd5b600092833560e01c91826301ffc9a7146105215750816306fdde03146104cf578163081812fc146104b3578163095ea7b31461048a57816318160ddd1461046b5781631d1438481461042757816321528ce71461030657816323b872dd1461030157816342842e0e146103015781634f558e79146102ce5781636352211e1461028557816370a082311461023757816395d89b41146101d3578163a22cb4651461019f578163b88d4fde14610134578163c87b56dd14610110575063e985e9c5146100e057600080fd5b3461010c578060031936011261010c57906020916100fc6105d5565b506101056105f0565b5051908152f35b5080fd5b828434610131576020366003190112610131575051634851657960e11b8152fd5b80fd5b8284346101315760803660031901126101315761014f6105d5565b506101586105f0565b5060643567ffffffffffffffff80821161019b573660238301121561019b578185013590811161019b573691016024011161013157505163a4420a9560e01b8152fd5b8280fd5b8284346101315781600319360112610131576101b96105d5565b5060243580151503610131575051638734687b60e01b8152fd5b83833461010c578160031936011261010c578051918183019083821067ffffffffffffffff83111761022457509261022093825282526314d1505560e21b6020830152519182918261058c565b0390f35b634e487b7160e01b815260418552602490fd5b90503461019b57602036600319011261019b576001600160a01b0361025a6105d5565b169081156102775750828291602094526001845220549051908152f35b825163d92e233d60e01b8152fd5b82843461013157602036600319011261013157823581526020819052819020546001600160a01b03169081156102bf576020925051908152f35b5163fc80d12960e01b81529050fd5b90503461019b57602036600319011261019b573582526020828152918190205490516001600160a01b0390911615158152f35b610606565b9190503461019b578060031936011261019b576103216105d5565b602435926001600160a01b0392917f000000000000000000000000000000000000000000000000000000000000000084163303610418578316928315610409578486528560205282862054166103fb575082845283602052808420826bffffffffffffffffffffffff60a01b82541617905581845260016020528320600181540190556001600254016002558181847fddf252ad1be2c89b69c2b068fc378daa952ba7f163c4a11628f55a4df523b3ef8180a47ff272b1a459ff242d415c4b4b8dbcd8b1b40030b9d9235a6778cdc3f57564f4738380a380f35b9051631182c18f60e11b8152fd5b50905163d92e233d60e01b8152fd5b5090516354ec506360e01b8152fd5b50503461010c578160031936011261010c57517f00000000000000000000000000000000000000000000000000000000000000006001600160a01b03168152602090f35b50503461010c578160031936011261010c576020906002549051908152f35b828434610131578160031936011261013157506104a56105d5565b5051638734687b60e01b8152fd5b50503461010c57602036600319011261010c5751908152602090f35b83833461010c578160031936011261010c578051918183019083821067ffffffffffffffff831117610224575061022093508152600782526614d9585d14d09560ca1b6020830152519182918261058c565b84913461019b57602036600319011261019b573563ffffffff60e01b811680910361019b57602092506301ffc9a760e01b811490811561057b575b811561056a575b5015158152f35b635b5e139f60e01b14905083610563565b6380ac58cd60e01b8114915061055c565b6020808252825181830181905290939260005b8281106105c157505060409293506000838284010152601f8019910116010190565b81810186015184820160400152850161059f565b600435906001600160a01b03821682036105eb57565b600080fd5b602435906001600160a01b03821682036105eb57565b346105eb5760603660031901126105eb576001600160a01b03600435818116036105eb57602435908116036105eb5760405163a4420a9560e01b8152600490fdfea2646970667358221220c9db41d724f70cb1854a8537d236cb3f9971ad955e77a3a069df476a0a39d4c064736f6c63430008180033","opcodes":"PUSH1 0xA0 CALLVALUE PUSH2 0x89 JUMPI PUSH1 0x1F PUSH2 0x722 CODESIZE DUP2 SWAP1 SUB SWAP2 DUP3 ADD PUSH1 0x1F NOT AND DUP4 ADD SWAP2 PUSH1 0x1 PUSH1 0x1 PUSH1 0x40 SHL SUB DUP4 GT DUP5 DUP5 LT OR PUSH2 0x8E JUMPI DUP1 DUP5 SWAP3 PUSH1 0x20 SWAP5 PUSH1 0x40 MSTORE DUP4 CODECOPY DUP2 ADD SUB SLT PUSH2 0x89 JUMPI MLOAD PUSH1 0x1 PUSH1 0x1 PUSH1 0xA0 SHL SUB DUP2 AND DUP1 DUP3 SUB PUSH2 0x89 JUMPI ISZERO PUSH2 0x77 JUMPI PUSH1 0x80 MSTORE PUSH1 0x40 MLOAD PUSH2 0x67D SWAP1 DUP2 PUSH2 0xA5 DUP3 CODECOPY PUSH1 0x80 MLOAD DUP2 DUP2 DUP2 PUSH2 0x331 ADD MSTORE PUSH2 0x43C ADD MSTORE RETURN JUMPDEST PUSH1 0x40 MLOAD PUSH4 0xD92E233D PUSH1 0xE0 SHL DUP2 MSTORE PUSH1 0x4 SWAP1 REVERT JUMPDEST PUSH1 0x0 DUP1 REVERT JUMPDEST PUSH4 0x4E487B71 PUSH1 0xE0 SHL PUSH1 0x0 MSTORE PUSH1 0x41 PUSH1 0x4 MSTORE PUSH1 0x24 PUSH1 0x0 REVERT INVALID PUSH1 0x80 PUSH1 0x40 DUP2 DUP2 MSTORE PUSH1 0x4 SWAP2 DUP3 CALLDATASIZE LT ISZERO PUSH2 0x16 JUMPI PUSH1 0x0 DUP1 REVERT JUMPDEST PUSH1 0x0 SWAP3 DUP4 CALLDATALOAD PUSH1 0xE0 SHR SWAP2 DUP3 PUSH4 0x1FFC9A7 EQ PUSH2 0x521 JUMPI POP DUP2 PUSH4 0x6FDDE03 EQ PUSH2 0x4CF JUMPI DUP2 PUSH4 0x81812FC EQ PUSH2 0x4B3 JUMPI DUP2 PUSH4 0x95EA7B3 EQ PUSH2 0x48A JUMPI DUP2 PUSH4 0x18160DDD EQ PUSH2 0x46B JUMPI DUP2 PUSH4 0x1D143848 EQ PUSH2 0x427 JUMPI DUP2 PUSH4 0x21528CE7 EQ PUSH2 0x306 JUMPI DUP2 PUSH4 0x23B872DD EQ PUSH2 0x301 JUMPI DUP2 PUSH4 0x42842E0E EQ PUSH2 0x301 JUMPI DUP2 PUSH4 0x4F558E79 EQ PUSH2 0x2CE JUMPI DUP2 PUSH4 0x6352211E EQ PUSH2 0x285 JUMPI DUP2 PUSH4 0x70A08231 EQ PUSH2 0x237 JUMPI DUP2 PUSH4 0x95D89B41 EQ PUSH2 0x1D3 JUMPI DUP2 PUSH4 0xA22CB465 EQ PUSH2 0x19F JUMPI DUP2 PUSH4 0xB88D4FDE EQ PUSH2 0x134 JUMPI DUP2 PUSH4 0xC87B56DD EQ PUSH2 0x110 JUMPI POP PUSH4 0xE985E9C5 EQ PUSH2 0xE0 JUMPI PUSH1 0x0 DUP1 REVERT JUMPDEST CALLVALUE PUSH2 0x10C JUMPI DUP1 PUSH1 0x3 NOT CALLDATASIZE ADD SLT PUSH2 0x10C JUMPI SWAP1 PUSH1 0x20 SWAP2 PUSH2 0xFC PUSH2 0x5D5 JUMP JUMPDEST POP PUSH2 0x105 PUSH2 0x5F0 JUMP JUMPDEST POP MLOAD SWAP1 DUP2 MSTORE RETURN JUMPDEST POP DUP1 REVERT JUMPDEST DUP3 DUP5 CALLVALUE PUSH2 0x131 JUMPI PUSH1 0x20 CALLDATASIZE PUSH1 0x3 NOT ADD SLT PUSH2 0x131 JUMPI POP MLOAD PUSH4 0x48516579 PUSH1 0xE1 SHL DUP2 MSTORE REVERT JUMPDEST DUP1 REVERT JUMPDEST DUP3 DUP5 CALLVALUE PUSH2 0x131 JUMPI PUSH1 0x80 CALLDATASIZE PUSH1 0x3 NOT ADD SLT PUSH2 0x131 JUMPI PUSH2 0x14F PUSH2 0x5D5 JUMP JUMPDEST POP PUSH2 0x158 PUSH2 0x5F0 JUMP JUMPDEST POP PUSH1 0x64 CALLDATALOAD PUSH8 0xFFFFFFFFFFFFFFFF DUP1 DUP3 GT PUSH2 0x19B JUMPI CALLDATASIZE PUSH1 0x23 DUP4 ADD SLT ISZERO PUSH2 0x19B JUMPI DUP2 DUP6 ADD CALLDATALOAD SWAP1 DUP2 GT PUSH2 0x19B JUMPI CALLDATASIZE SWAP2 ADD PUSH1 0x24 ADD GT PUSH2 0x131 JUMPI POP MLOAD PUSH4 0xA4420A95 PUSH1 0xE0 SHL DUP2 MSTORE REVERT JUMPDEST DUP3 DUP1 REVERT JUMPDEST DUP3 DUP5 CALLVALUE PUSH2 0x131 JUMPI DUP2 PUSH1 0x3 NOT CALLDATASIZE ADD SLT PUSH2 0x131 JUMPI PUSH2 0x1B9 PUSH2 0x5D5 JUMP JUMPDEST POP PUSH1 0x24 CALLDATALOAD DUP1 ISZERO ISZERO SUB PUSH2 0x131 JUMPI POP MLOAD PUSH4 0x8734687B PUSH1 0xE0 SHL DUP2 MSTORE REVERT JUMPDEST DUP4 DUP4 CALLVALUE PUSH2 0x10C JUMPI DUP2 PUSH1 0x3 NOT CALLDATASIZE ADD SLT PUSH2 0x10C JUMPI DUP1 MLOAD SWAP2 DUP2 DUP4 ADD SWAP1 DUP4 DUP3 LT PUSH8 0xFFFFFFFFFFFFFFFF DUP4 GT OR PUSH2 0x224 JUMPI POP SWAP3 PUSH2 0x220 SWAP4 DUP3 MSTORE DUP3 MSTORE PUSH4 0x14D15055 PUSH1 0xE2 SHL PUSH1 0x20 DUP4 ADD MSTORE MLOAD SWAP2 DUP3 SWAP2 DUP3 PUSH2 0x58C JUMP JUMPDEST SUB SWAP1 RETURN JUMPDEST PUSH4 0x4E487B71 PUSH1 0xE0 SHL DUP2 MSTORE PUSH1 0x41 DUP6 MSTORE PUSH1 0x24 SWAP1 REVERT JUMPDEST SWAP1 POP CALLVALUE PUSH2 0x19B JUMPI PUSH1 0x20 CALLDATASIZE PUSH1 0x3 NOT ADD SLT PUSH2 0x19B JUMPI PUSH1 0x1 PUSH1 0x1 PUSH1 0xA0 SHL SUB PUSH2 0x25A PUSH2 0x5D5 JUMP JUMPDEST AND SWAP1 DUP2 ISZERO PUSH2 0x277 JUMPI POP DUP3 DUP3 SWAP2 PUSH1 0x20 SWAP5 MSTORE PUSH1 0x1 DUP5 MSTORE KECCAK256 SLOAD SWAP1 MLOAD SWAP1 DUP2 MSTORE RETURN JUMPDEST DUP3 MLOAD PUSH4 0xD92E233D PUSH1 0xE0 SHL DUP2 MSTORE REVERT JUMPDEST DUP3 DUP5 CALLVALUE PUSH2 0x131 JUMPI PUSH1 0x20 CALLDATASIZE PUSH1 0x3 NOT ADD SLT PUSH2 0x131 JUMPI DUP3 CALLDATALOAD DUP2 MSTORE PUSH1 0x20 DUP2 SWAP1 MSTORE DUP2 SWAP1 KECCAK256 SLOAD PUSH1 0x1 PUSH1 0x1 PUSH1 0xA0 SHL SUB AND SWAP1 DUP2 ISZERO PUSH2 0x2BF JUMPI PUSH1 0x20 SWAP3 POP MLOAD SWAP1 DUP2 MSTORE RETURN JUMPDEST MLOAD PUSH4 0xFC80D129 PUSH1 0xE0 SHL DUP2 MSTORE SWAP1 POP REVERT JUMPDEST SWAP1 POP CALLVALUE PUSH2 0x19B JUMPI PUSH1 0x20 CALLDATASIZE PUSH1 0x3 NOT ADD SLT PUSH2 0x19B JUMPI CALLDATALOAD DUP3 MSTORE PUSH1 0x20 DUP3 DUP2 MSTORE SWAP2 DUP2 SWAP1 KECCAK256 SLOAD SWAP1 MLOAD PUSH1 0x1 PUSH1 0x1 PUSH1 0xA0 SHL SUB SWAP1 SWAP2 AND ISZERO ISZERO DUP2 MSTORE RETURN JUMPDEST PUSH2 0x606 JUMP JUMPDEST SWAP2 SWAP1 POP CALLVALUE PUSH2 0x19B JUMPI DUP1 PUSH1 0x3 NOT CALLDATASIZE ADD SLT PUSH2 0x19B JUMPI PUSH2 0x321 PUSH2 0x5D5 JUMP JUMPDEST PUSH1 0x24 CALLDATALOAD SWAP3 PUSH1 0x1 PUSH1 0x1 PUSH1 0xA0 SHL SUB SWAP3 SWAP2 PUSH32 0x0 DUP5 AND CALLER SUB PUSH2 0x418 JUMPI DUP4 AND SWAP3 DUP4 ISZERO PUSH2 0x409 JUMPI DUP5 DUP7 MSTORE DUP6 PUSH1 0x20 MSTORE DUP3 DUP7 KECCAK256 SLOAD AND PUSH2 0x3FB JUMPI POP DUP3 DUP5 MSTORE DUP4 PUSH1 0x20 MSTORE DUP1 DUP5 KECCAK256 DUP3 PUSH12 0xFFFFFFFFFFFFFFFFFFFFFFFF PUSH1 0xA0 SHL DUP3 SLOAD AND OR SWAP1 SSTORE DUP2 DUP5 MSTORE PUSH1 0x1 PUSH1 0x20 MSTORE DUP4 KECCAK256 PUSH1 0x1 DUP2 SLOAD ADD SWAP1 SSTORE PUSH1 0x1 PUSH1 0x2 SLOAD ADD PUSH1 0x2 SSTORE DUP2 DUP2 DUP5 PUSH32 0xDDF252AD1BE2C89B69C2B068FC378DAA952BA7F163C4A11628F55A4DF523B3EF DUP2 DUP1 LOG4 PUSH32 0xF272B1A459FF242D415C4B4B8DBCD8B1B40030B9D9235A6778CDC3F57564F473 DUP4 DUP1 LOG3 DUP1 RETURN JUMPDEST SWAP1 MLOAD PUSH4 0x1182C18F PUSH1 0xE1 SHL DUP2 MSTORE REVERT JUMPDEST POP SWAP1 MLOAD PUSH4 0xD92E233D PUSH1 0xE0 SHL DUP2 MSTORE REVERT JUMPDEST POP SWAP1 MLOAD PUSH4 0x54EC5063 PUSH1 0xE0 SHL DUP2 MSTORE REVERT JUMPDEST POP POP CALLVALUE PUSH2 0x10C JUMPI DUP2 PUSH1 0x3 NOT CALLDATASIZE ADD SLT PUSH2 0x10C JUMPI MLOAD PUSH32 0x0 PUSH1 0x1 PUSH1 0x1 PUSH1 0xA0 SHL SUB AND DUP2 MSTORE PUSH1 0x20 SWAP1 RETURN JUMPDEST POP POP CALLVALUE PUSH2 0x10C JUMPI DUP2 PUSH1 0x3 NOT CALLDATASIZE ADD SLT PUSH2 0x10C JUMPI PUSH1 0x20 SWAP1 PUSH1 0x2 SLOAD SWAP1 MLOAD SWAP1 DUP2 MSTORE RETURN JUMPDEST DUP3 DUP5 CALLVALUE PUSH2 0x131 JUMPI DUP2 PUSH1 0x3 NOT CALLDATASIZE ADD SLT PUSH2 0x131 JUMPI POP PUSH2 0x4A5 PUSH2 0x5D5 JUMP JUMPDEST POP MLOAD PUSH4 0x8734687B PUSH1 0xE0 SHL DUP2 MSTORE REVERT JUMPDEST POP POP CALLVALUE PUSH2 0x10C JUMPI PUSH1 0x20 CALLDATASIZE PUSH1 0x3 NOT ADD SLT PUSH2 0x10C JUMPI MLOAD SWAP1 DUP2 MSTORE PUSH1 0x20 SWAP1 RETURN JUMPDEST DUP4 DUP4 CALLVALUE PUSH2 0x10C JUMPI DUP2 PUSH1 0x3 NOT CALLDATASIZE ADD SLT PUSH2 0x10C JUMPI DUP1 MLOAD SWAP2 DUP2 DUP4 ADD SWAP1 DUP4 DUP3 LT PUSH8 0xFFFFFFFFFFFFFFFF DUP4 GT OR PUSH2 0x224 JUMPI POP PUSH2 0x220 SWAP4 POP DUP2 MSTORE PUSH1 0x7 DUP3 MSTORE PUSH7 0x14D9585D14D095 PUSH1 0xCA SHL PUSH1 0x20 DUP4 ADD MSTORE MLOAD SWAP2 DUP3 SWAP2 DUP3 PUSH2 0x58C JUMP JUMPDEST DUP5 SWAP2 CALLVALUE PUSH2 0x19B JUMPI PUSH1 0x20 CALLDATASIZE PUSH1 0x3 NOT ADD SLT PUSH2 0x19B JUMPI CALLDATALOAD PUSH4 0xFFFFFFFF PUSH1 0xE0 SHL DUP2 AND DUP1 SWAP2 SUB PUSH2 0x19B JUMPI PUSH1 0x20 SWAP3 POP PUSH4 0x1FFC9A7 PUSH1 0xE0 SHL DUP2 EQ SWAP1 DUP2 ISZERO PUSH2 0x57B JUMPI JUMPDEST DUP2 ISZERO PUSH2 0x56A JUMPI JUMPDEST POP ISZERO ISZERO DUP2 MSTORE RETURN JUMPDEST PUSH4 0x5B5E139F PUSH1 0xE0 SHL EQ SWAP1 POP DUP4 PUSH2 0x563 JUMP JUMPDEST PUSH4 0x80AC58CD PUSH1 0xE0 SHL DUP2 EQ SWAP2 POP PUSH2 0x55C JUMP JUMPDEST PUSH1 0x20 DUP1 DUP3 MSTORE DUP3 MLOAD DUP2 DUP4 ADD DUP2 SWAP1 MSTORE SWAP1 SWAP4 SWAP3 PUSH1 0x0 JUMPDEST DUP3 DUP2 LT PUSH2 0x5C1 JUMPI POP POP PUSH1 0x40 SWAP3 SWAP4 POP PUSH1 0x0 DUP4 DUP3 DUP5 ADD ADD MSTORE PUSH1 0x1F DUP1 NOT SWAP2 ADD AND ADD ADD SWAP1 JUMP JUMPDEST DUP2 DUP2 ADD DUP7 ADD MLOAD DUP5 DUP3 ADD PUSH1 0x40 ADD MSTORE DUP6 ADD PUSH2 0x59F JUMP JUMPDEST PUSH1 0x4 CALLDATALOAD SWAP1 PUSH1 0x1 PUSH1 0x1 PUSH1 0xA0 SHL SUB DUP3 AND DUP3 SUB PUSH2 0x5EB JUMPI JUMP JUMPDEST PUSH1 0x0 DUP1 REVERT JUMPDEST PUSH1 0x24 CALLDATALOAD SWAP1 PUSH1 0x1 PUSH1 0x1 PUSH1 0xA0 SHL SUB DUP3 AND DUP3 SUB PUSH2 0x5EB JUMPI JUMP JUMPDEST CALLVALUE PUSH2 0x5EB JUMPI PUSH1 0x60 CALLDATASIZE PUSH1 0x3 NOT ADD SLT PUSH2 0x5EB JUMPI PUSH1 0x1 PUSH1 0x1 PUSH1 0xA0 SHL SUB PUSH1 0x4 CALLDATALOAD DUP2 DUP2 AND SUB PUSH2 0x5EB JUMPI PUSH1 0x24 CALLDATALOAD SWAP1 DUP2 AND SUB PUSH2 0x5EB JUMPI PUSH1 0x40 MLOAD PUSH4 0xA4420A95 PUSH1 0xE0 SHL DUP2 MSTORE PUSH1 0x4 SWAP1 REVERT INVALID LOG2 PUSH5 0x6970667358 0x22 SLT KECCAK256 0xC9 0xDB COINBASE 0xD7 0x24 0xF7 0xC 0xB1 DUP6 BLOBBASEFEE DUP6 CALLDATACOPY 0xD2 CALLDATASIZE 0xCB EXTCODEHASH SWAP10 PUSH18 0xAD955E77A3A069DF476A0A39D4C064736F6C PUSH4 0x43000818 STOP CALLER "},"methodIdentifiers":{"approve(address,uint256)":"095ea7b3","balanceOf(address)":"70a08231","exists(uint256)":"4f558e79","getApproved(uint256)":"081812fc","isApprovedForAll(address,address)":"e985e9c5","issuer()":"1d143848","mintSeat(address,uint256)":"21528ce7","name()":"06fdde03","ownerOf(uint256)":"6352211e","safeTransferFrom(address,address,uint256)":"42842e0e","safeTransferFrom(address,address,uint256,bytes)":"b88d4fde","setApprovalForAll(address,bool)":"a22cb465","supportsInterface(bytes4)":"01ffc9a7","symbol()":"95d89b41","tokenURI(uint256)":"c87b56dd","totalSupply()":"18160ddd","transferFrom(address,address,uint256)":"23b872dd"}}}}}