{"contracts/CitizenRegistry.sol":{"CitizenRegistry":{"abi":[{"inputs":[{"internalType":"address","name":"acceptanceRegistry_","type":"address"}],"stateMutability":"nonpayable","type":"constructor"},{"inputs":[],"name":"AlreadyHasSeat","type":"error"},{"inputs":[],"name":"NotAcceptedConstitution","type":"error"},{"inputs":[],"name":"NotOwner","type":"error"},{"inputs":[],"name":"SeatAlreadyExists","type":"error"},{"inputs":[],"name":"ZeroAddress","type":"error"},{"anonymous":false,"inputs":[{"indexed":true,"internalType":"address","name":"activationRegistry","type":"address"}],"name":"ActivationRegistrySet","type":"event"},{"anonymous":false,"inputs":[{"indexed":true,"internalType":"address","name":"citizen","type":"address"},{"indexed":true,"internalType":"uint256","name":"seatId","type":"uint256"},{"indexed":false,"internalType":"uint32","name":"cohortArbanId","type":"uint32"},{"indexed":false,"internalType":"bytes32","name":"ethicsHash","type":"bytes32"}],"name":"CitizenMinted","type":"event"},{"anonymous":false,"inputs":[{"indexed":true,"internalType":"uint256","name":"seatId","type":"uint256"},{"indexed":false,"internalType":"bool","name":"ok","type":"bool"}],"name":"InitialLockHookCalled","type":"event"},{"anonymous":false,"inputs":[{"indexed":true,"internalType":"address","name":"oldOwner","type":"address"},{"indexed":true,"internalType":"address","name":"newOwner","type":"address"}],"name":"OwnerChanged","type":"event"},{"anonymous":false,"inputs":[{"indexed":true,"internalType":"address","name":"seatSbt","type":"address"}],"name":"SeatSBTSet","type":"event"},{"inputs":[],"name":"acceptance","outputs":[{"internalType":"contract IConstitutionAcceptanceRegistry","name":"","type":"address"}],"stateMutability":"view","type":"function"},{"inputs":[],"name":"activationRegistry","outputs":[{"internalType":"address","name":"","type":"address"}],"stateMutability":"view","type":"function"},{"inputs":[{"internalType":"uint256","name":"","type":"uint256"}],"name":"metaOf","outputs":[{"internalType":"uint32","name":"cohort_arban_id","type":"uint32"},{"internalType":"uint16","name":"civ","type":"uint16"},{"internalType":"uint16","name":"dom","type":"uint16"},{"internalType":"uint16","name":"exp","type":"uint16"},{"internalType":"bytes32","name":"ethics_hash","type":"bytes32"},{"internalType":"bool","name":"exists","type":"bool"}],"stateMutability":"view","type":"function"},{"inputs":[],"name":"nextSeatId","outputs":[{"internalType":"uint256","name":"","type":"uint256"}],"stateMutability":"view","type":"function"},{"inputs":[],"name":"owner","outputs":[{"internalType":"address","name":"","type":"address"}],"stateMutability":"view","type":"function"},{"inputs":[{"internalType":"uint256","name":"","type":"uint256"}],"name":"ownerOfSeat","outputs":[{"internalType":"address","name":"","type":"address"}],"stateMutability":"view","type":"function"},{"inputs":[{"internalType":"address","name":"citizen","type":"address"},{"internalType":"uint32","name":"cohortArbanId","type":"uint32"},{"internalType":"uint16","name":"civ","type":"uint16"},{"internalType":"uint16","name":"dom","type":"uint16"},{"internalType":"uint16","name":"exp","type":"uint16"},{"internalType":"bytes32","name":"ethicsHash","type":"bytes32"},{"internalType":"bytes32","name":"reasonDoc","type":"bytes32"}],"name":"registerByOwner","outputs":[{"internalType":"uint256","name":"seatId","type":"uint256"}],"stateMutability":"nonpayable","type":"function"},{"inputs":[{"internalType":"uint32","name":"cohortArbanId","type":"uint32"},{"internalType":"uint16","name":"civ","type":"uint16"},{"internalType":"uint16","name":"dom","type":"uint16"},{"internalType":"uint16","name":"exp","type":"uint16"},{"internalType":"bytes32","name":"ethicsHash","type":"bytes32"},{"internalType":"bytes32","name":"reasonDoc","type":"bytes32"}],"name":"registerSelf","outputs":[{"internalType":"uint256","name":"seatId","type":"uint256"}],"stateMutability":"nonpayable","type":"function"},{"inputs":[{"internalType":"address","name":"","type":"address"}],"name":"seatOf","outputs":[{"internalType":"uint256","name":"","type":"uint256"}],"stateMutability":"view","type":"function"},{"inputs":[],"name":"seatSbt","outputs":[{"internalType":"contract ISeatSBT","name":"","type":"address"}],"stateMutability":"view","type":"function"},{"inputs":[{"internalType":"address","name":"activationRegistry_","type":"address"}],"name":"setActivationRegistry","outputs":[],"stateMutability":"nonpayable","type":"function"},{"inputs":[{"internalType":"address","name":"seatSbt_","type":"address"}],"name":"setSeatSBT","outputs":[],"stateMutability":"nonpayable","type":"function"},{"inputs":[{"internalType":"address","name":"newOwner","type":"address"}],"name":"transferOwnership","outputs":[],"stateMutability":"nonpayable","type":"function"}],"evm":{"bytecode":{"linkReferences":{},"object":"60a0346100cf57601f610db038819003918201601f19168301916001600160401b038311848410176100d4578084926020946040528339810103126100cf57516001600160a01b038116908190036100cf57600160035580156100bd573360018060a01b031960005416176000556080526040513360007fb532073b38c83145e3e5135377a08bf9aab55bc0fd7c1179cd4fb995d2a5159c8180a3610cc590816100eb82396080518181816102e70152818161047801526108090152f35b60405163d92e233d60e01b8152600490fd5b600080fd5b634e487b7160e01b600052604160045260246000fdfe608080604052600436101561001357600080fd5b600090813560e01c9081630cbfc1581461076057508063388841b11461073757806350f18626146103f657806352486580146103875780636d5fba94146103165780636d736689146102d15780638da5cb5b146102aa57806395d823721461028c5780639d8f9738146101d9578063ab97f518146101b0578063b9cd92c314610177578063ebbe630a146101445763f2fde38b146100b057600080fd5b34610141576020366003190112610141576100c9610ab1565b81546001600160a01b03808216923384900361012f571691821561011d5782907fb532073b38c83145e3e5135377a08bf9aab55bc0fd7c1179cd4fb995d2a5159c8580a36001600160a01b03191617815580f35b60405163d92e233d60e01b8152600490fd5b6040516330cd747160e01b8152600490fd5b80fd5b503461014157602036600319011261014157602090600435815260058252604060018060a01b0391205416604051908152f35b5034610141576020366003190112610141576020906040906001600160a01b0361019f610ab1565b168152600483522054604051908152f35b50346101415780600319360112610141576002546040516001600160a01b039091168152602090f35b5034610141576020366003190112610141576101f3610ab1565b81546001600160a01b0391908216330361012f57811690811561011d57600154908116610250576001600160a01b03191681176001557f88b647a8d032c0dbefb29fdee2921089e1522351c7e79ee97cf9d1756b0a35498280a280f35b60405162461bcd60e51b815260206004820152601460248201527314d1505517d4d09517d053149150511657d4d15560621b6044820152606490fd5b50346101415780600319360112610141576020600354604051908152f35b5034610141578060031936011261014157546040516001600160a01b039091168152602090f35b50346101415780600319360112610141576040517f00000000000000000000000000000000000000000000000000000000000000006001600160a01b03168152602090f35b503461014157602036600319011261014157604060c091600435815260066020522080549061ffff9060ff6002600183015492015416916040519363ffffffff81168552818160201c166020860152818160301c16604086015260401c1660608401526080830152151560a0820152f35b5034610141576020366003190112610141576103a1610ab1565b81546001600160a01b0391908216330361012f5716806bffffffffffffffffffffffff60a01b60025416176002557f697a8f2ce68020058f0c2b7dab45e7e884b6737b70d5b8effdac4355dfe3c1bd8280a280f35b50346101415760c03660031901126101415763ffffffff600435818116908181036107325760243561ffff9283821680920361073257610434610ac7565b9161043d610ad8565b6001546001600160a01b039790881696608435959190881561011d57604051809a6334da6b7f60e11b825233600483015281602460209d8e937f0000000000000000000000000000000000000000000000000000000000000000165afa90811561069c578c91610715575b501561070357338b5260048a5260408b20546106f157600354986104cb8a610b69565b600355604051634f558e7960e01b8152600481018b90528b81602481855afa9081156106e6578d916106b9575b506106a757808c913b15610698576040516321528ce760e01b8152336004820152602481018c905291908290604490829084905af1801561069c57918b9c918b9c949361066e575b5094600294610657989461ffff60401b67ffff00000000000065ffff000000008f9760407fa834cb459ed6f8038707a1675f41f4a83a1a9299c489a0343671e6476a80cf829f9d988e9a60019e33835260048952818484205581835260058952838320336bffffffffffffffffffffffff60a01b825416179055606084519e8f906105ca82610b13565b81528a81019d8e52828682019c168c52019a168a5260808d019b8c5260a08d019e8f52815260068752209951169389549751901b16935160301b16935160401b169369ffffffffffffffffffff1916171717178255516001820155019051151560ff801983541691161790556040519182913395836020909392919363ffffffff60408201951681520152565b0390a361066660a43582610b8e565b604051908152f35b610683919395969798999a9b50829450610ae9565b61069857918a918a9998979695949338610540565b5080fd5b6040513d8e823e3d90fd5b60405163dbc24e1560e01b8152600490fd5b6106d991508c8d3d106106df575b6106d18183610b2f565b810190610b51565b386104f8565b503d6106c7565b6040513d8f823e3d90fd5b6040516384cd49b760e01b8152600490fd5b6040516307625d3560e51b8152600490fd5b61072c91508b3d8d116106df576106d18183610b2f565b386104a8565b600080fd5b50346101415780600319360112610141576001546040516001600160a01b039091168152602090f35b9050346106985760e03660031901126106985761077b610ab1565b63ffffffff6024351660243503610aad57610794610ac7565b61079c610ad8565b926084359061ffff82168203610aa95785546001600160a01b03163303610a9a57506001600160a01b0383161561011d576001546001600160a01b031693841561011d576040516334da6b7f60e11b81526001600160a01b038581166004830152602090829060249082907f0000000000000000000000000000000000000000000000000000000000000000165afa908115610a42578791610a7b575b5015610703576001600160a01b0384168652600460205260408620546106f1576003549461086686610b69565b600355604051634f558e7960e01b815260048101879052602081602481855afa908115610a70578891610a51575b506106a757803b15610a4d576040516321528ce760e01b81526001600160a01b0386166004820152602481018790529087908290604490829084905af18015610a425791869594939160209893610a30575b506001600160a01b03851680845260048952604080852088905587855260058a5280852080546001600160a01b0319169092179091555192936002939261092c84610b13565b63ffffffff60243516845261ffff8a85019216825261ffff604085019316835261ffff6060850191168152608084019260a435845263ffffffff604060a087019860018a528b815260068e522095511661ffff60401b67ffff00000000000065ffff00000000885496518f1b16935160301b16935160401b169369ffffffffffffffffffff1916171717178255516001820155019051151560ff801983541691161790557fa834cb459ed6f8038707a1675f41f4a83a1a9299c489a0343671e6476a80cf826040519160018060a01b03169180610a2160a435602435836020909392919363ffffffff60408201951681520152565b0390a361066660c43582610b8e565b92610a3c600294610ae9565b926108e6565b6040513d89823e3d90fd5b8680fd5b610a6a915060203d6020116106df576106d18183610b2f565b38610894565b6040513d8a823e3d90fd5b610a94915060203d6020116106df576106d18183610b2f565b38610839565b6330cd747160e01b8152600490fd5b8580fd5b8280fd5b600435906001600160a01b038216820361073257565b6044359061ffff8216820361073257565b6064359061ffff8216820361073257565b67ffffffffffffffff8111610afd57604052565b634e487b7160e01b600052604160045260246000fd5b60c0810190811067ffffffffffffffff821117610afd57604052565b90601f8019910116810190811067ffffffffffffffff821117610afd57604052565b90816020910312610732575180151581036107325790565b6000198114610b785760010190565b634e487b7160e01b600052601160045260246000fd5b9060018060a01b0360025416908115610c8a57604051906020820190630f56028560e01b8252846024840152604483015260448252608082019167ffffffffffffffff9281811084821117610afd57604052600093849283809351925af1913d15610c5f573d918211610c4b57916020917f4a44e6d7849b4030e1502db1b9574d6fd472bb11c94c3a577e5683bec31202da9360405191610c3885601f19601f8401160184610b2f565b8252833d92013e5b6040519015158152a2565b634e487b7160e01b81526041600452602490fd5b505060207f4a44e6d7849b4030e1502db1b9574d6fd472bb11c94c3a577e5683bec31202da91610c40565b50505056fea2646970667358221220afe451ca42828ffb27e5cd1406a19c68e0c71883b3160a156bce03dce77fff1064736f6c63430008180033","opcodes":"PUSH1 0xA0 CALLVALUE PUSH2 0xCF JUMPI PUSH1 0x1F PUSH2 0xDB0 CODESIZE DUP2 SWAP1 SUB SWAP2 DUP3 ADD PUSH1 0x1F NOT AND DUP4 ADD SWAP2 PUSH1 0x1 PUSH1 0x1 PUSH1 0x40 SHL SUB DUP4 GT DUP5 DUP5 LT OR PUSH2 0xD4 JUMPI DUP1 DUP5 SWAP3 PUSH1 0x20 SWAP5 PUSH1 0x40 MSTORE DUP4 CODECOPY DUP2 ADD SUB SLT PUSH2 0xCF JUMPI MLOAD PUSH1 0x1 PUSH1 0x1 PUSH1 0xA0 SHL SUB DUP2 AND SWAP1 DUP2 SWAP1 SUB PUSH2 0xCF JUMPI PUSH1 0x1 PUSH1 0x3 SSTORE DUP1 ISZERO PUSH2 0xBD JUMPI CALLER PUSH1 0x1 DUP1 PUSH1 0xA0 SHL SUB NOT PUSH1 0x0 SLOAD AND OR PUSH1 0x0 SSTORE PUSH1 0x80 MSTORE PUSH1 0x40 MLOAD CALLER PUSH1 0x0 PUSH32 0xB532073B38C83145E3E5135377A08BF9AAB55BC0FD7C1179CD4FB995D2A5159C DUP2 DUP1 LOG3 PUSH2 0xCC5 SWAP1 DUP2 PUSH2 0xEB DUP3 CODECOPY PUSH1 0x80 MLOAD DUP2 DUP2 DUP2 PUSH2 0x2E7 ADD MSTORE DUP2 DUP2 PUSH2 0x478 ADD MSTORE PUSH2 0x809 ADD MSTORE RETURN JUMPDEST PUSH1 0x40 MLOAD PUSH4 0xD92E233D PUSH1 0xE0 SHL DUP2 MSTORE PUSH1 0x4 SWAP1 REVERT JUMPDEST PUSH1 0x0 DUP1 REVERT JUMPDEST PUSH4 0x4E487B71 PUSH1 0xE0 SHL PUSH1 0x0 MSTORE PUSH1 0x41 PUSH1 0x4 MSTORE PUSH1 0x24 PUSH1 0x0 REVERT INVALID PUSH1 0x80 DUP1 PUSH1 0x40 MSTORE PUSH1 0x4 CALLDATASIZE LT ISZERO PUSH2 0x13 JUMPI PUSH1 0x0 DUP1 REVERT JUMPDEST PUSH1 0x0 SWAP1 DUP2 CALLDATALOAD PUSH1 0xE0 SHR SWAP1 DUP2 PUSH4 0xCBFC158 EQ PUSH2 0x760 JUMPI POP DUP1 PUSH4 0x388841B1 EQ PUSH2 0x737 JUMPI DUP1 PUSH4 0x50F18626 EQ PUSH2 0x3F6 JUMPI DUP1 PUSH4 0x52486580 EQ PUSH2 0x387 JUMPI DUP1 PUSH4 0x6D5FBA94 EQ PUSH2 0x316 JUMPI DUP1 PUSH4 0x6D736689 EQ PUSH2 0x2D1 JUMPI DUP1 PUSH4 0x8DA5CB5B EQ PUSH2 0x2AA JUMPI DUP1 PUSH4 0x95D82372 EQ PUSH2 0x28C JUMPI DUP1 PUSH4 0x9D8F9738 EQ PUSH2 0x1D9 JUMPI DUP1 PUSH4 0xAB97F518 EQ PUSH2 0x1B0 JUMPI DUP1 PUSH4 0xB9CD92C3 EQ PUSH2 0x177 JUMPI DUP1 PUSH4 0xEBBE630A EQ PUSH2 0x144 JUMPI PUSH4 0xF2FDE38B EQ PUSH2 0xB0 JUMPI PUSH1 0x0 DUP1 REVERT JUMPDEST CALLVALUE PUSH2 0x141 JUMPI PUSH1 0x20 CALLDATASIZE PUSH1 0x3 NOT ADD SLT PUSH2 0x141 JUMPI PUSH2 0xC9 PUSH2 0xAB1 JUMP JUMPDEST DUP2 SLOAD PUSH1 0x1 PUSH1 0x1 PUSH1 0xA0 SHL SUB DUP1 DUP3 AND SWAP3 CALLER DUP5 SWAP1 SUB PUSH2 0x12F JUMPI AND SWAP2 DUP3 ISZERO PUSH2 0x11D JUMPI DUP3 SWAP1 PUSH32 0xB532073B38C83145E3E5135377A08BF9AAB55BC0FD7C1179CD4FB995D2A5159C DUP6 DUP1 LOG3 PUSH1 0x1 PUSH1 0x1 PUSH1 0xA0 SHL SUB NOT AND OR DUP2 SSTORE DUP1 RETURN JUMPDEST PUSH1 0x40 MLOAD PUSH4 0xD92E233D PUSH1 0xE0 SHL DUP2 MSTORE PUSH1 0x4 SWAP1 REVERT JUMPDEST PUSH1 0x40 MLOAD PUSH4 0x30CD7471 PUSH1 0xE0 SHL DUP2 MSTORE PUSH1 0x4 SWAP1 REVERT JUMPDEST DUP1 REVERT JUMPDEST POP CALLVALUE PUSH2 0x141 JUMPI PUSH1 0x20 CALLDATASIZE PUSH1 0x3 NOT ADD SLT PUSH2 0x141 JUMPI PUSH1 0x20 SWAP1 PUSH1 0x4 CALLDATALOAD DUP2 MSTORE PUSH1 0x5 DUP3 MSTORE PUSH1 0x40 PUSH1 0x1 DUP1 PUSH1 0xA0 SHL SUB SWAP2 KECCAK256 SLOAD AND PUSH1 0x40 MLOAD SWAP1 DUP2 MSTORE RETURN JUMPDEST POP CALLVALUE PUSH2 0x141 JUMPI PUSH1 0x20 CALLDATASIZE PUSH1 0x3 NOT ADD SLT PUSH2 0x141 JUMPI PUSH1 0x20 SWAP1 PUSH1 0x40 SWAP1 PUSH1 0x1 PUSH1 0x1 PUSH1 0xA0 SHL SUB PUSH2 0x19F PUSH2 0xAB1 JUMP JUMPDEST AND DUP2 MSTORE PUSH1 0x4 DUP4 MSTORE KECCAK256 SLOAD PUSH1 0x40 MLOAD SWAP1 DUP2 MSTORE RETURN JUMPDEST POP CALLVALUE PUSH2 0x141 JUMPI DUP1 PUSH1 0x3 NOT CALLDATASIZE ADD SLT PUSH2 0x141 JUMPI PUSH1 0x2 SLOAD PUSH1 0x40 MLOAD PUSH1 0x1 PUSH1 0x1 PUSH1 0xA0 SHL SUB SWAP1 SWAP2 AND DUP2 MSTORE PUSH1 0x20 SWAP1 RETURN JUMPDEST POP CALLVALUE PUSH2 0x141 JUMPI PUSH1 0x20 CALLDATASIZE PUSH1 0x3 NOT ADD SLT PUSH2 0x141 JUMPI PUSH2 0x1F3 PUSH2 0xAB1 JUMP JUMPDEST DUP2 SLOAD PUSH1 0x1 PUSH1 0x1 PUSH1 0xA0 SHL SUB SWAP2 SWAP1 DUP3 AND CALLER SUB PUSH2 0x12F JUMPI DUP2 AND SWAP1 DUP2 ISZERO PUSH2 0x11D JUMPI PUSH1 0x1 SLOAD SWAP1 DUP2 AND PUSH2 0x250 JUMPI PUSH1 0x1 PUSH1 0x1 PUSH1 0xA0 SHL SUB NOT AND DUP2 OR PUSH1 0x1 SSTORE PUSH32 0x88B647A8D032C0DBEFB29FDEE2921089E1522351C7E79EE97CF9D1756B0A3549 DUP3 DUP1 LOG2 DUP1 RETURN JUMPDEST PUSH1 0x40 MLOAD PUSH3 0x461BCD PUSH1 0xE5 SHL DUP2 MSTORE PUSH1 0x20 PUSH1 0x4 DUP3 ADD MSTORE PUSH1 0x14 PUSH1 0x24 DUP3 ADD MSTORE PUSH20 0x14D1505517D4D09517D053149150511657D4D155 PUSH1 0x62 SHL PUSH1 0x44 DUP3 ADD MSTORE PUSH1 0x64 SWAP1 REVERT JUMPDEST POP CALLVALUE PUSH2 0x141 JUMPI DUP1 PUSH1 0x3 NOT CALLDATASIZE ADD SLT PUSH2 0x141 JUMPI PUSH1 0x20 PUSH1 0x3 SLOAD PUSH1 0x40 MLOAD SWAP1 DUP2 MSTORE RETURN JUMPDEST POP CALLVALUE PUSH2 0x141 JUMPI DUP1 PUSH1 0x3 NOT CALLDATASIZE ADD SLT PUSH2 0x141 JUMPI SLOAD PUSH1 0x40 MLOAD PUSH1 0x1 PUSH1 0x1 PUSH1 0xA0 SHL SUB SWAP1 SWAP2 AND DUP2 MSTORE PUSH1 0x20 SWAP1 RETURN JUMPDEST POP CALLVALUE PUSH2 0x141 JUMPI DUP1 PUSH1 0x3 NOT CALLDATASIZE ADD SLT PUSH2 0x141 JUMPI PUSH1 0x40 MLOAD PUSH32 0x0 PUSH1 0x1 PUSH1 0x1 PUSH1 0xA0 SHL SUB AND DUP2 MSTORE PUSH1 0x20 SWAP1 RETURN JUMPDEST POP CALLVALUE PUSH2 0x141 JUMPI PUSH1 0x20 CALLDATASIZE PUSH1 0x3 NOT ADD SLT PUSH2 0x141 JUMPI PUSH1 0x40 PUSH1 0xC0 SWAP2 PUSH1 0x4 CALLDATALOAD DUP2 MSTORE PUSH1 0x6 PUSH1 0x20 MSTORE KECCAK256 DUP1 SLOAD SWAP1 PUSH2 0xFFFF SWAP1 PUSH1 0xFF PUSH1 0x2 PUSH1 0x1 DUP4 ADD SLOAD SWAP3 ADD SLOAD AND SWAP2 PUSH1 0x40 MLOAD SWAP4 PUSH4 0xFFFFFFFF DUP2 AND DUP6 MSTORE DUP2 DUP2 PUSH1 0x20 SHR AND PUSH1 0x20 DUP7 ADD MSTORE DUP2 DUP2 PUSH1 0x30 SHR AND PUSH1 0x40 DUP7 ADD MSTORE PUSH1 0x40 SHR AND PUSH1 0x60 DUP5 ADD MSTORE PUSH1 0x80 DUP4 ADD MSTORE ISZERO ISZERO PUSH1 0xA0 DUP3 ADD MSTORE RETURN JUMPDEST POP CALLVALUE PUSH2 0x141 JUMPI PUSH1 0x20 CALLDATASIZE PUSH1 0x3 NOT ADD SLT PUSH2 0x141 JUMPI PUSH2 0x3A1 PUSH2 0xAB1 JUMP JUMPDEST DUP2 SLOAD PUSH1 0x1 PUSH1 0x1 PUSH1 0xA0 SHL SUB SWAP2 SWAP1 DUP3 AND CALLER SUB PUSH2 0x12F JUMPI AND DUP1 PUSH12 0xFFFFFFFFFFFFFFFFFFFFFFFF PUSH1 0xA0 SHL PUSH1 0x2 SLOAD AND OR PUSH1 0x2 SSTORE PUSH32 0x697A8F2CE68020058F0C2B7DAB45E7E884B6737B70D5B8EFFDAC4355DFE3C1BD DUP3 DUP1 LOG2 DUP1 RETURN JUMPDEST POP CALLVALUE PUSH2 0x141 JUMPI PUSH1 0xC0 CALLDATASIZE PUSH1 0x3 NOT ADD SLT PUSH2 0x141 JUMPI PUSH4 0xFFFFFFFF PUSH1 0x4 CALLDATALOAD DUP2 DUP2 AND SWAP1 DUP2 DUP2 SUB PUSH2 0x732 JUMPI PUSH1 0x24 CALLDATALOAD PUSH2 0xFFFF SWAP3 DUP4 DUP3 AND DUP1 SWAP3 SUB PUSH2 0x732 JUMPI PUSH2 0x434 PUSH2 0xAC7 JUMP JUMPDEST SWAP2 PUSH2 0x43D PUSH2 0xAD8 JUMP JUMPDEST PUSH1 0x1 SLOAD PUSH1 0x1 PUSH1 0x1 PUSH1 0xA0 SHL SUB SWAP8 SWAP1 DUP9 AND SWAP7 PUSH1 0x84 CALLDATALOAD SWAP6 SWAP2 SWAP1 DUP9 ISZERO PUSH2 0x11D JUMPI PUSH1 0x40 MLOAD DUP1 SWAP11 PUSH4 0x34DA6B7F PUSH1 0xE1 SHL DUP3 MSTORE CALLER PUSH1 0x4 DUP4 ADD MSTORE DUP2 PUSH1 0x24 PUSH1 0x20 SWAP14 DUP15 SWAP4 PUSH32 0x0 AND GAS STATICCALL SWAP1 DUP2 ISZERO PUSH2 0x69C JUMPI DUP13 SWAP2 PUSH2 0x715 JUMPI JUMPDEST POP ISZERO PUSH2 0x703 JUMPI CALLER DUP12 MSTORE PUSH1 0x4 DUP11 MSTORE PUSH1 0x40 DUP12 KECCAK256 SLOAD PUSH2 0x6F1 JUMPI PUSH1 0x3 SLOAD SWAP9 PUSH2 0x4CB DUP11 PUSH2 0xB69 JUMP JUMPDEST PUSH1 0x3 SSTORE PUSH1 0x40 MLOAD PUSH4 0x4F558E79 PUSH1 0xE0 SHL DUP2 MSTORE PUSH1 0x4 DUP2 ADD DUP12 SWAP1 MSTORE DUP12 DUP2 PUSH1 0x24 DUP2 DUP6 GAS STATICCALL SWAP1 DUP2 ISZERO PUSH2 0x6E6 JUMPI DUP14 SWAP2 PUSH2 0x6B9 JUMPI JUMPDEST POP PUSH2 0x6A7 JUMPI DUP1 DUP13 SWAP2 EXTCODESIZE ISZERO PUSH2 0x698 JUMPI PUSH1 0x40 MLOAD PUSH4 0x21528CE7 PUSH1 0xE0 SHL DUP2 MSTORE CALLER PUSH1 0x4 DUP3 ADD MSTORE PUSH1 0x24 DUP2 ADD DUP13 SWAP1 MSTORE SWAP2 SWAP1 DUP3 SWAP1 PUSH1 0x44 SWAP1 DUP3 SWAP1 DUP5 SWAP1 GAS CALL DUP1 ISZERO PUSH2 0x69C JUMPI SWAP2 DUP12 SWAP13 SWAP2 DUP12 SWAP13 SWAP5 SWAP4 PUSH2 0x66E JUMPI JUMPDEST POP SWAP5 PUSH1 0x2 SWAP5 PUSH2 0x657 SWAP9 SWAP5 PUSH2 0xFFFF PUSH1 0x40 SHL PUSH8 0xFFFF000000000000 PUSH6 0xFFFF00000000 DUP16 SWAP8 PUSH1 0x40 PUSH32 0xA834CB459ED6F8038707A1675F41F4A83A1A9299C489A0343671E6476A80CF82 SWAP16 SWAP14 SWAP9 DUP15 SWAP11 PUSH1 0x1 SWAP15 CALLER DUP4 MSTORE PUSH1 0x4 DUP10 MSTORE DUP2 DUP5 DUP5 KECCAK256 SSTORE DUP2 DUP4 MSTORE PUSH1 0x5 DUP10 MSTORE DUP4 DUP4 KECCAK256 CALLER PUSH12 0xFFFFFFFFFFFFFFFFFFFFFFFF PUSH1 0xA0 SHL DUP3 SLOAD AND OR SWAP1 SSTORE PUSH1 0x60 DUP5 MLOAD SWAP15 DUP16 SWAP1 PUSH2 0x5CA DUP3 PUSH2 0xB13 JUMP JUMPDEST DUP2 MSTORE DUP11 DUP2 ADD SWAP14 DUP15 MSTORE DUP3 DUP7 DUP3 ADD SWAP13 AND DUP13 MSTORE ADD SWAP11 AND DUP11 MSTORE PUSH1 0x80 DUP14 ADD SWAP12 DUP13 MSTORE PUSH1 0xA0 DUP14 ADD SWAP15 DUP16 MSTORE DUP2 MSTORE PUSH1 0x6 DUP8 MSTORE KECCAK256 SWAP10 MLOAD AND SWAP4 DUP10 SLOAD SWAP8 MLOAD SWAP1 SHL AND SWAP4 MLOAD PUSH1 0x30 SHL AND SWAP4 MLOAD PUSH1 0x40 SHL AND SWAP4 PUSH10 0xFFFFFFFFFFFFFFFFFFFF NOT AND OR OR OR OR DUP3 SSTORE MLOAD PUSH1 0x1 DUP3 ADD SSTORE ADD SWAP1 MLOAD ISZERO ISZERO PUSH1 0xFF DUP1 NOT DUP4 SLOAD AND SWAP2 AND OR SWAP1 SSTORE PUSH1 0x40 MLOAD SWAP2 DUP3 SWAP2 CALLER SWAP6 DUP4 PUSH1 0x20 SWAP1 SWAP4 SWAP3 SWAP2 SWAP4 PUSH4 0xFFFFFFFF PUSH1 0x40 DUP3 ADD SWAP6 AND DUP2 MSTORE ADD MSTORE JUMP JUMPDEST SUB SWAP1 LOG3 PUSH2 0x666 PUSH1 0xA4 CALLDATALOAD DUP3 PUSH2 0xB8E JUMP JUMPDEST PUSH1 0x40 MLOAD SWAP1 DUP2 MSTORE RETURN JUMPDEST PUSH2 0x683 SWAP2 SWAP4 SWAP6 SWAP7 SWAP8 SWAP9 SWAP10 SWAP11 SWAP12 POP DUP3 SWAP5 POP PUSH2 0xAE9 JUMP JUMPDEST PUSH2 0x698 JUMPI SWAP2 DUP11 SWAP2 DUP11 SWAP10 SWAP9 SWAP8 SWAP7 SWAP6 SWAP5 SWAP4 CODESIZE PUSH2 0x540 JUMP JUMPDEST POP DUP1 REVERT JUMPDEST PUSH1 0x40 MLOAD RETURNDATASIZE DUP15 DUP3 RETURNDATACOPY RETURNDATASIZE SWAP1 REVERT JUMPDEST PUSH1 0x40 MLOAD PUSH4 0xDBC24E15 PUSH1 0xE0 SHL DUP2 MSTORE PUSH1 0x4 SWAP1 REVERT JUMPDEST PUSH2 0x6D9 SWAP2 POP DUP13 DUP14 RETURNDATASIZE LT PUSH2 0x6DF JUMPI JUMPDEST PUSH2 0x6D1 DUP2 DUP4 PUSH2 0xB2F JUMP JUMPDEST DUP2 ADD SWAP1 PUSH2 0xB51 JUMP JUMPDEST CODESIZE PUSH2 0x4F8 JUMP JUMPDEST POP RETURNDATASIZE PUSH2 0x6C7 JUMP JUMPDEST PUSH1 0x40 MLOAD RETURNDATASIZE DUP16 DUP3 RETURNDATACOPY RETURNDATASIZE SWAP1 REVERT JUMPDEST PUSH1 0x40 MLOAD PUSH4 0x84CD49B7 PUSH1 0xE0 SHL DUP2 MSTORE PUSH1 0x4 SWAP1 REVERT JUMPDEST PUSH1 0x40 MLOAD PUSH4 0x7625D35 PUSH1 0xE5 SHL DUP2 MSTORE PUSH1 0x4 SWAP1 REVERT JUMPDEST PUSH2 0x72C SWAP2 POP DUP12 RETURNDATASIZE DUP14 GT PUSH2 0x6DF JUMPI PUSH2 0x6D1 DUP2 DUP4 PUSH2 0xB2F JUMP JUMPDEST CODESIZE PUSH2 0x4A8 JUMP JUMPDEST PUSH1 0x0 DUP1 REVERT JUMPDEST POP CALLVALUE PUSH2 0x141 JUMPI DUP1 PUSH1 0x3 NOT CALLDATASIZE ADD SLT PUSH2 0x141 JUMPI PUSH1 0x1 SLOAD PUSH1 0x40 MLOAD PUSH1 0x1 PUSH1 0x1 PUSH1 0xA0 SHL SUB SWAP1 SWAP2 AND DUP2 MSTORE PUSH1 0x20 SWAP1 RETURN JUMPDEST SWAP1 POP CALLVALUE PUSH2 0x698 JUMPI PUSH1 0xE0 CALLDATASIZE PUSH1 0x3 NOT ADD SLT PUSH2 0x698 JUMPI PUSH2 0x77B PUSH2 0xAB1 JUMP JUMPDEST PUSH4 0xFFFFFFFF PUSH1 0x24 CALLDATALOAD AND PUSH1 0x24 CALLDATALOAD SUB PUSH2 0xAAD JUMPI PUSH2 0x794 PUSH2 0xAC7 JUMP JUMPDEST PUSH2 0x79C PUSH2 0xAD8 JUMP JUMPDEST SWAP3 PUSH1 0x84 CALLDATALOAD SWAP1 PUSH2 0xFFFF DUP3 AND DUP3 SUB PUSH2 0xAA9 JUMPI DUP6 SLOAD PUSH1 0x1 PUSH1 0x1 PUSH1 0xA0 SHL SUB AND CALLER SUB PUSH2 0xA9A JUMPI POP PUSH1 0x1 PUSH1 0x1 PUSH1 0xA0 SHL SUB DUP4 AND ISZERO PUSH2 0x11D JUMPI PUSH1 0x1 SLOAD PUSH1 0x1 PUSH1 0x1 PUSH1 0xA0 SHL SUB AND SWAP4 DUP5 ISZERO PUSH2 0x11D JUMPI PUSH1 0x40 MLOAD PUSH4 0x34DA6B7F PUSH1 0xE1 SHL DUP2 MSTORE PUSH1 0x1 PUSH1 0x1 PUSH1 0xA0 SHL SUB DUP6 DUP2 AND PUSH1 0x4 DUP4 ADD MSTORE PUSH1 0x20 SWAP1 DUP3 SWAP1 PUSH1 0x24 SWAP1 DUP3 SWAP1 PUSH32 0x0 AND GAS STATICCALL SWAP1 DUP2 ISZERO PUSH2 0xA42 JUMPI DUP8 SWAP2 PUSH2 0xA7B JUMPI JUMPDEST POP ISZERO PUSH2 0x703 JUMPI PUSH1 0x1 PUSH1 0x1 PUSH1 0xA0 SHL SUB DUP5 AND DUP7 MSTORE PUSH1 0x4 PUSH1 0x20 MSTORE PUSH1 0x40 DUP7 KECCAK256 SLOAD PUSH2 0x6F1 JUMPI PUSH1 0x3 SLOAD SWAP5 PUSH2 0x866 DUP7 PUSH2 0xB69 JUMP JUMPDEST PUSH1 0x3 SSTORE PUSH1 0x40 MLOAD PUSH4 0x4F558E79 PUSH1 0xE0 SHL DUP2 MSTORE PUSH1 0x4 DUP2 ADD DUP8 SWAP1 MSTORE PUSH1 0x20 DUP2 PUSH1 0x24 DUP2 DUP6 GAS STATICCALL SWAP1 DUP2 ISZERO PUSH2 0xA70 JUMPI DUP9 SWAP2 PUSH2 0xA51 JUMPI JUMPDEST POP PUSH2 0x6A7 JUMPI DUP1 EXTCODESIZE ISZERO PUSH2 0xA4D JUMPI PUSH1 0x40 MLOAD PUSH4 0x21528CE7 PUSH1 0xE0 SHL DUP2 MSTORE PUSH1 0x1 PUSH1 0x1 PUSH1 0xA0 SHL SUB DUP7 AND PUSH1 0x4 DUP3 ADD MSTORE PUSH1 0x24 DUP2 ADD DUP8 SWAP1 MSTORE SWAP1 DUP8 SWAP1 DUP3 SWAP1 PUSH1 0x44 SWAP1 DUP3 SWAP1 DUP5 SWAP1 GAS CALL DUP1 ISZERO PUSH2 0xA42 JUMPI SWAP2 DUP7 SWAP6 SWAP5 SWAP4 SWAP2 PUSH1 0x20 SWAP9 SWAP4 PUSH2 0xA30 JUMPI JUMPDEST POP PUSH1 0x1 PUSH1 0x1 PUSH1 0xA0 SHL SUB DUP6 AND DUP1 DUP5 MSTORE PUSH1 0x4 DUP10 MSTORE PUSH1 0x40 DUP1 DUP6 KECCAK256 DUP9 SWAP1 SSTORE DUP8 DUP6 MSTORE PUSH1 0x5 DUP11 MSTORE DUP1 DUP6 KECCAK256 DUP1 SLOAD PUSH1 0x1 PUSH1 0x1 PUSH1 0xA0 SHL SUB NOT AND SWAP1 SWAP3 OR SWAP1 SWAP2 SSTORE MLOAD SWAP3 SWAP4 PUSH1 0x2 SWAP4 SWAP3 PUSH2 0x92C DUP5 PUSH2 0xB13 JUMP JUMPDEST PUSH4 0xFFFFFFFF PUSH1 0x24 CALLDATALOAD AND DUP5 MSTORE PUSH2 0xFFFF DUP11 DUP6 ADD SWAP3 AND DUP3 MSTORE PUSH2 0xFFFF PUSH1 0x40 DUP6 ADD SWAP4 AND DUP4 MSTORE PUSH2 0xFFFF PUSH1 0x60 DUP6 ADD SWAP2 AND DUP2 MSTORE PUSH1 0x80 DUP5 ADD SWAP3 PUSH1 0xA4 CALLDATALOAD DUP5 MSTORE PUSH4 0xFFFFFFFF PUSH1 0x40 PUSH1 0xA0 DUP8 ADD SWAP9 PUSH1 0x1 DUP11 MSTORE DUP12 DUP2 MSTORE PUSH1 0x6 DUP15 MSTORE KECCAK256 SWAP6 MLOAD AND PUSH2 0xFFFF PUSH1 0x40 SHL PUSH8 0xFFFF000000000000 PUSH6 0xFFFF00000000 DUP9 SLOAD SWAP7 MLOAD DUP16 SHL AND SWAP4 MLOAD PUSH1 0x30 SHL AND SWAP4 MLOAD PUSH1 0x40 SHL AND SWAP4 PUSH10 0xFFFFFFFFFFFFFFFFFFFF NOT AND OR OR OR OR DUP3 SSTORE MLOAD PUSH1 0x1 DUP3 ADD SSTORE ADD SWAP1 MLOAD ISZERO ISZERO PUSH1 0xFF DUP1 NOT DUP4 SLOAD AND SWAP2 AND OR SWAP1 SSTORE PUSH32 0xA834CB459ED6F8038707A1675F41F4A83A1A9299C489A0343671E6476A80CF82 PUSH1 0x40 MLOAD SWAP2 PUSH1 0x1 DUP1 PUSH1 0xA0 SHL SUB AND SWAP2 DUP1 PUSH2 0xA21 PUSH1 0xA4 CALLDATALOAD PUSH1 0x24 CALLDATALOAD DUP4 PUSH1 0x20 SWAP1 SWAP4 SWAP3 SWAP2 SWAP4 PUSH4 0xFFFFFFFF PUSH1 0x40 DUP3 ADD SWAP6 AND DUP2 MSTORE ADD MSTORE JUMP JUMPDEST SUB SWAP1 LOG3 PUSH2 0x666 PUSH1 0xC4 CALLDATALOAD DUP3 PUSH2 0xB8E JUMP JUMPDEST SWAP3 PUSH2 0xA3C PUSH1 0x2 SWAP5 PUSH2 0xAE9 JUMP JUMPDEST SWAP3 PUSH2 0x8E6 JUMP JUMPDEST PUSH1 0x40 MLOAD RETURNDATASIZE DUP10 DUP3 RETURNDATACOPY RETURNDATASIZE SWAP1 REVERT JUMPDEST DUP7 DUP1 REVERT JUMPDEST PUSH2 0xA6A SWAP2 POP PUSH1 0x20 RETURNDATASIZE PUSH1 0x20 GT PUSH2 0x6DF JUMPI PUSH2 0x6D1 DUP2 DUP4 PUSH2 0xB2F JUMP JUMPDEST CODESIZE PUSH2 0x894 JUMP JUMPDEST PUSH1 0x40 MLOAD RETURNDATASIZE DUP11 DUP3 RETURNDATACOPY RETURNDATASIZE SWAP1 REVERT JUMPDEST PUSH2 0xA94 SWAP2 POP PUSH1 0x20 RETURNDATASIZE PUSH1 0x20 GT PUSH2 0x6DF JUMPI PUSH2 0x6D1 DUP2 DUP4 PUSH2 0xB2F JUMP JUMPDEST CODESIZE PUSH2 0x839 JUMP JUMPDEST PUSH4 0x30CD7471 PUSH1 0xE0 SHL DUP2 MSTORE PUSH1 0x4 SWAP1 REVERT JUMPDEST DUP6 DUP1 REVERT JUMPDEST DUP3 DUP1 REVERT JUMPDEST PUSH1 0x4 CALLDATALOAD SWAP1 PUSH1 0x1 PUSH1 0x1 PUSH1 0xA0 SHL SUB DUP3 AND DUP3 SUB PUSH2 0x732 JUMPI JUMP JUMPDEST PUSH1 0x44 CALLDATALOAD SWAP1 PUSH2 0xFFFF DUP3 AND DUP3 SUB PUSH2 0x732 JUMPI JUMP JUMPDEST PUSH1 0x64 CALLDATALOAD SWAP1 PUSH2 0xFFFF DUP3 AND DUP3 SUB PUSH2 0x732 JUMPI JUMP JUMPDEST PUSH8 0xFFFFFFFFFFFFFFFF DUP2 GT PUSH2 0xAFD JUMPI PUSH1 0x40 MSTORE JUMP JUMPDEST PUSH4 0x4E487B71 PUSH1 0xE0 SHL PUSH1 0x0 MSTORE PUSH1 0x41 PUSH1 0x4 MSTORE PUSH1 0x24 PUSH1 0x0 REVERT JUMPDEST PUSH1 0xC0 DUP2 ADD SWAP1 DUP2 LT PUSH8 0xFFFFFFFFFFFFFFFF DUP3 GT OR PUSH2 0xAFD JUMPI PUSH1 0x40 MSTORE JUMP JUMPDEST SWAP1 PUSH1 0x1F DUP1 NOT SWAP2 ADD AND DUP2 ADD SWAP1 DUP2 LT PUSH8 0xFFFFFFFFFFFFFFFF DUP3 GT OR PUSH2 0xAFD JUMPI PUSH1 0x40 MSTORE JUMP JUMPDEST SWAP1 DUP2 PUSH1 0x20 SWAP2 SUB SLT PUSH2 0x732 JUMPI MLOAD DUP1 ISZERO ISZERO DUP2 SUB PUSH2 0x732 JUMPI SWAP1 JUMP JUMPDEST PUSH1 0x0 NOT DUP2 EQ PUSH2 0xB78 JUMPI PUSH1 0x1 ADD SWAP1 JUMP JUMPDEST PUSH4 0x4E487B71 PUSH1 0xE0 SHL PUSH1 0x0 MSTORE PUSH1 0x11 PUSH1 0x4 MSTORE PUSH1 0x24 PUSH1 0x0 REVERT JUMPDEST SWAP1 PUSH1 0x1 DUP1 PUSH1 0xA0 SHL SUB PUSH1 0x2 SLOAD AND SWAP1 DUP2 ISZERO PUSH2 0xC8A JUMPI PUSH1 0x40 MLOAD SWAP1 PUSH1 0x20 DUP3 ADD SWAP1 PUSH4 0xF560285 PUSH1 0xE0 SHL DUP3 MSTORE DUP5 PUSH1 0x24 DUP5 ADD MSTORE PUSH1 0x44 DUP4 ADD MSTORE PUSH1 0x44 DUP3 MSTORE PUSH1 0x80 DUP3 ADD SWAP2 PUSH8 0xFFFFFFFFFFFFFFFF SWAP3 DUP2 DUP2 LT DUP5 DUP3 GT OR PUSH2 0xAFD JUMPI PUSH1 0x40 MSTORE PUSH1 0x0 SWAP4 DUP5 SWAP3 DUP4 DUP1 SWAP4 MLOAD SWAP3 GAS CALL SWAP2 RETURNDATASIZE ISZERO PUSH2 0xC5F JUMPI RETURNDATASIZE SWAP2 DUP3 GT PUSH2 0xC4B JUMPI SWAP2 PUSH1 0x20 SWAP2 PUSH32 0x4A44E6D7849B4030E1502DB1B9574D6FD472BB11C94C3A577E5683BEC31202DA SWAP4 PUSH1 0x40 MLOAD SWAP2 PUSH2 0xC38 DUP6 PUSH1 0x1F NOT PUSH1 0x1F DUP5 ADD AND ADD DUP5 PUSH2 0xB2F JUMP JUMPDEST DUP3 MSTORE DUP4 RETURNDATASIZE SWAP3 ADD RETURNDATACOPY JUMPDEST PUSH1 0x40 MLOAD SWAP1 ISZERO ISZERO DUP2 MSTORE LOG2 JUMP JUMPDEST PUSH4 0x4E487B71 PUSH1 0xE0 SHL DUP2 MSTORE PUSH1 0x41 PUSH1 0x4 MSTORE PUSH1 0x24 SWAP1 REVERT JUMPDEST POP POP PUSH1 0x20 PUSH32 0x4A44E6D7849B4030E1502DB1B9574D6FD472BB11C94C3A577E5683BEC31202DA SWAP2 PUSH2 0xC40 JUMP JUMPDEST POP POP POP JUMP INVALID LOG2 PUSH5 0x6970667358 0x22 SLT KECCAK256 0xAF 0xE4 MLOAD 0xCA TIMESTAMP DUP3 DUP16 0xFB 0x27 0xE5 0xCD EQ MOD LOG1 SWAP13 PUSH9 0xE0C71883B3160A156B 0xCE SUB 0xDC 0xE7 PUSH32 0xFF1064736F6C6343000818003300000000000000000000000000000000000000 "},"methodIdentifiers":{"acceptance()":"6d736689","activationRegistry()":"ab97f518","metaOf(uint256)":"6d5fba94","nextSeatId()":"95d82372","owner()":"8da5cb5b","ownerOfSeat(uint256)":"ebbe630a","registerByOwner(address,uint32,uint16,uint16,uint16,bytes32,bytes32)":"0cbfc158","registerSelf(uint32,uint16,uint16,uint16,bytes32,bytes32)":"50f18626","seatOf(address)":"b9cd92c3","seatSbt()":"388841b1","setActivationRegistry(address)":"52486580","setSeatSBT(address)":"9d8f9738","transferOwnership(address)":"f2fde38b"}}}}}