{"contracts/Organization.sol":{"Organization":{"abi":[{"inputs":[{"internalType":"address","name":"_founder","type":"address"},{"internalType":"enum Organization.OrgType","name":"_orgType","type":"uint8"},{"internalType":"enum Organization.Branch","name":"_branch","type":"uint8"},{"internalType":"address","name":"_notary","type":"address"},{"internalType":"address","name":"_archivist","type":"address"}],"stateMutability":"nonpayable","type":"constructor"},{"inputs":[],"name":"AccessControlBadConfirmation","type":"error"},{"inputs":[{"internalType":"address","name":"account","type":"address"},{"internalType":"bytes32","name":"neededRole","type":"bytes32"}],"name":"AccessControlUnauthorizedAccount","type":"error"},{"inputs":[],"name":"ZERO_ADDRESS","type":"error"},{"anonymous":false,"inputs":[{"indexed":true,"internalType":"address","name":"notary","type":"address"},{"indexed":true,"internalType":"address","name":"archivist","type":"address"}],"name":"CenterUpdated","type":"event"},{"anonymous":false,"inputs":[{"indexed":true,"internalType":"address","name":"structureRegistry","type":"address"},{"indexed":true,"internalType":"address","name":"documentRegistry","type":"address"}],"name":"ModulesUpdated","type":"event"},{"anonymous":false,"inputs":[{"indexed":true,"internalType":"address","name":"org","type":"address"},{"indexed":true,"internalType":"address","name":"founder","type":"address"},{"indexed":false,"internalType":"enum Organization.OrgType","name":"orgType","type":"uint8"},{"indexed":false,"internalType":"enum Organization.Branch","name":"branch","type":"uint8"}],"name":"OrganizationCreated","type":"event"},{"anonymous":false,"inputs":[{"indexed":true,"internalType":"bytes32","name":"role","type":"bytes32"},{"indexed":true,"internalType":"bytes32","name":"previousAdminRole","type":"bytes32"},{"indexed":true,"internalType":"bytes32","name":"newAdminRole","type":"bytes32"}],"name":"RoleAdminChanged","type":"event"},{"anonymous":false,"inputs":[{"indexed":true,"internalType":"bytes32","name":"role","type":"bytes32"},{"indexed":true,"internalType":"address","name":"account","type":"address"},{"indexed":true,"internalType":"address","name":"sender","type":"address"}],"name":"RoleGranted","type":"event"},{"anonymous":false,"inputs":[{"indexed":true,"internalType":"bytes32","name":"role","type":"bytes32"},{"indexed":true,"internalType":"address","name":"account","type":"address"},{"indexed":true,"internalType":"address","name":"sender","type":"address"}],"name":"RoleRevoked","type":"event"},{"inputs":[],"name":"DEFAULT_ADMIN_ROLE","outputs":[{"internalType":"bytes32","name":"","type":"bytes32"}],"stateMutability":"view","type":"function"},{"inputs":[],"name":"ORG_ADMIN_ROLE","outputs":[{"internalType":"bytes32","name":"","type":"bytes32"}],"stateMutability":"view","type":"function"},{"inputs":[],"name":"archivist","outputs":[{"internalType":"address","name":"","type":"address"}],"stateMutability":"view","type":"function"},{"inputs":[],"name":"branch","outputs":[{"internalType":"enum Organization.Branch","name":"","type":"uint8"}],"stateMutability":"view","type":"function"},{"inputs":[],"name":"documentRegistry","outputs":[{"internalType":"address","name":"","type":"address"}],"stateMutability":"view","type":"function"},{"inputs":[],"name":"founder","outputs":[{"internalType":"address","name":"","type":"address"}],"stateMutability":"view","type":"function"},{"inputs":[{"internalType":"bytes32","name":"role","type":"bytes32"}],"name":"getRoleAdmin","outputs":[{"internalType":"bytes32","name":"","type":"bytes32"}],"stateMutability":"view","type":"function"},{"inputs":[{"internalType":"bytes32","name":"role","type":"bytes32"},{"internalType":"address","name":"account","type":"address"}],"name":"grantRole","outputs":[],"stateMutability":"nonpayable","type":"function"},{"inputs":[{"internalType":"bytes32","name":"role","type":"bytes32"},{"internalType":"address","name":"account","type":"address"}],"name":"hasRole","outputs":[{"internalType":"bool","name":"","type":"bool"}],"stateMutability":"view","type":"function"},{"inputs":[],"name":"notary","outputs":[{"internalType":"address","name":"","type":"address"}],"stateMutability":"view","type":"function"},{"inputs":[],"name":"orgType","outputs":[{"internalType":"enum Organization.OrgType","name":"","type":"uint8"}],"stateMutability":"view","type":"function"},{"inputs":[{"internalType":"bytes32","name":"role","type":"bytes32"},{"internalType":"address","name":"callerConfirmation","type":"address"}],"name":"renounceRole","outputs":[],"stateMutability":"nonpayable","type":"function"},{"inputs":[{"internalType":"bytes32","name":"role","type":"bytes32"},{"internalType":"address","name":"account","type":"address"}],"name":"revokeRole","outputs":[],"stateMutability":"nonpayable","type":"function"},{"inputs":[{"internalType":"address","name":"_notary","type":"address"},{"internalType":"address","name":"_archivist","type":"address"}],"name":"setCenter","outputs":[],"stateMutability":"nonpayable","type":"function"},{"inputs":[{"internalType":"address","name":"_structureRegistry","type":"address"},{"internalType":"address","name":"_documentRegistry","type":"address"}],"name":"setModules","outputs":[],"stateMutability":"nonpayable","type":"function"},{"inputs":[],"name":"structureRegistry","outputs":[{"internalType":"address","name":"","type":"address"}],"stateMutability":"view","type":"function"},{"inputs":[{"internalType":"bytes4","name":"interfaceId","type":"bytes4"}],"name":"supportsInterface","outputs":[{"internalType":"bool","name":"","type":"bool"}],"stateMutability":"view","type":"function"}],"evm":{"bytecode":{"linkReferences":{},"object":"60e06040523480156200001157600080fd5b5060405162000afe38038062000afe833981016040819052620000349162000289565b6001600160a01b0385166200005c5760405163538ba4f960e01b815260040160405180910390fd5b6001600160a01b03851660c0528360028111156200007e576200007e62000304565b608081600281111562000095576200009562000304565b905250826004811115620000ad57620000ad62000304565b60a0816004811115620000c457620000c462000304565b905250620000d4600086620001bd565b50620001017f123b642491709420c2370bb98c4e7de2b1bc05c5f9fd95ac4111e12683553c6286620001bd565b50600180546001600160a01b038085166001600160a01b0319928316179092556002805484841692169190911790556040519086169030907f6ea0800c4ae91c90014c4336424489e44c66e01db9fff5710af54833089f05bb906200016a90889088906200031a565b60405180910390a3806001600160a01b0316826001600160a01b03167f53ae3b3eca082f3cd2154629b38b35d9ce679a46ec9909cc132443045248651060405160405180910390a3505050505062000354565b6000828152602081815260408083206001600160a01b038516845290915281205460ff1662000262576000838152602081815260408083206001600160a01b03861684529091529020805460ff19166001179055620002193390565b6001600160a01b0316826001600160a01b0316847f2f8788117e7eff1d82e926ec794901d17c78024a50270940304540a733656f0d60405160405180910390a450600162000266565b5060005b92915050565b80516001600160a01b03811681146200028457600080fd5b919050565b600080600080600060a08688031215620002a257600080fd5b620002ad866200026c565b9450602086015160038110620002c257600080fd5b604087015190945060058110620002d857600080fd5b9250620002e8606087016200026c565b9150620002f8608087016200026c565b90509295509295909350565b634e487b7160e01b600052602160045260246000fd5b604081016003841062000331576200033162000304565b8382526005831062000347576200034762000304565b8260208301529392505050565b60805160a05160c05161077a6200038460003960006101fe015260006101ca0152600061013d015261077a6000f3fe608060405234801561001057600080fd5b506004361061010b5760003560e01c806382c1a089116100a2578063a4a1160f11610071578063a4a1160f1461028c578063d0ca2f671461029f578063d547741f146102c6578063d74a5d00146102d9578063f73011af146102ec57600080fd5b806382c1a0891461024b57806391d148541461025e5780639d54c79d14610271578063a217fddf1461028457600080fd5b806336568abe116100de57806336568abe146101b25780634b72d0d4146101c55780634d853ee5146101f95780636c3783341461023857600080fd5b806301ffc9a71461011057806323a989e114610138578063248a9ca31461016c5780632f2ff15d1461019d575b600080fd5b61012361011e366004610644565b6102ff565b60405190151581526020015b60405180910390f35b61015f7f000000000000000000000000000000000000000000000000000000000000000081565b60405161012f919061068b565b61018f61017a3660046106a5565b60009081526020819052604090206001015490565b60405190815260200161012f565b6101b06101ab3660046106da565b610336565b005b6101b06101c03660046106da565b610361565b6101ec7f000000000000000000000000000000000000000000000000000000000000000081565b60405161012f9190610706565b6102207f000000000000000000000000000000000000000000000000000000000000000081565b6040516001600160a01b03909116815260200161012f565b600354610220906001600160a01b031681565b6101b061025936600461071a565b610399565b61012361026c3660046106da565b610422565b600154610220906001600160a01b031681565b61018f600081565b600454610220906001600160a01b031681565b61018f7f123b642491709420c2370bb98c4e7de2b1bc05c5f9fd95ac4111e12683553c6281565b6101b06102d43660046106da565b61044b565b6101b06102e736600461071a565b610470565b600254610220906001600160a01b031681565b60006001600160e01b03198216637965db0b60e01b148061033057506301ffc9a760e01b6001600160e01b03198316145b92915050565b600082815260208190526040902060010154610351816104f9565b61035b8383610506565b50505050565b6001600160a01b038116331461038a5760405163334bd91960e11b815260040160405180910390fd5b6103948282610598565b505050565b7f123b642491709420c2370bb98c4e7de2b1bc05c5f9fd95ac4111e12683553c626103c3816104f9565b600180546001600160a01b03199081166001600160a01b03868116918217909355600280549092169285169283179091556040517f53ae3b3eca082f3cd2154629b38b35d9ce679a46ec9909cc132443045248651090600090a3505050565b6000918252602082815260408084206001600160a01b0393909316845291905290205460ff1690565b600082815260208190526040902060010154610466816104f9565b61035b8383610598565b7f123b642491709420c2370bb98c4e7de2b1bc05c5f9fd95ac4111e12683553c6261049a816104f9565b600380546001600160a01b03199081166001600160a01b03868116918217909355600480549092169285169283179091556040517f323c4c64ab73ed697a6c978f74508faec97aed0cdf6f5f0ed8d93b8d22dd5f1890600090a3505050565b6105038133610603565b50565b60006105128383610422565b610590576000838152602081815260408083206001600160a01b03861684529091529020805460ff191660011790556105483390565b6001600160a01b0316826001600160a01b0316847f2f8788117e7eff1d82e926ec794901d17c78024a50270940304540a733656f0d60405160405180910390a4506001610330565b506000610330565b60006105a48383610422565b15610590576000838152602081815260408083206001600160a01b0386168085529252808320805460ff1916905551339286917ff6391f5c32d9c69d2a47ea670b442974b53935d1edc7fd64eb21e047a839171b9190a4506001610330565b61060d8282610422565b6106405760405163e2517d3f60e01b81526001600160a01b03821660048201526024810183905260440160405180910390fd5b5050565b60006020828403121561065657600080fd5b81356001600160e01b03198116811461066e57600080fd5b9392505050565b634e487b7160e01b600052602160045260246000fd5b602081016003831061069f5761069f610675565b91905290565b6000602082840312156106b757600080fd5b5035919050565b80356001600160a01b03811681146106d557600080fd5b919050565b600080604083850312156106ed57600080fd5b823591506106fd602084016106be565b90509250929050565b602081016005831061069f5761069f610675565b6000806040838503121561072d57600080fd5b610736836106be565b91506106fd602084016106be56fea26469706673582212200710eb4787224598a0719617fea4631f87d54d1d84210aa7c28e5e380db3d0b664736f6c63430008180033","opcodes":"PUSH1 0xE0 PUSH1 0x40 MSTORE CALLVALUE DUP1 ISZERO PUSH3 0x11 JUMPI PUSH1 0x0 DUP1 REVERT JUMPDEST POP PUSH1 0x40 MLOAD PUSH3 0xAFE CODESIZE SUB DUP1 PUSH3 0xAFE DUP4 CODECOPY DUP2 ADD PUSH1 0x40 DUP2 SWAP1 MSTORE PUSH3 0x34 SWAP2 PUSH3 0x289 JUMP JUMPDEST PUSH1 0x1 PUSH1 0x1 PUSH1 0xA0 SHL SUB DUP6 AND PUSH3 0x5C JUMPI PUSH1 0x40 MLOAD PUSH4 0x538BA4F9 PUSH1 0xE0 SHL DUP2 MSTORE PUSH1 0x4 ADD PUSH1 0x40 MLOAD DUP1 SWAP2 SUB SWAP1 REVERT JUMPDEST PUSH1 0x1 PUSH1 0x1 PUSH1 0xA0 SHL SUB DUP6 AND PUSH1 0xC0 MSTORE DUP4 PUSH1 0x2 DUP2 GT ISZERO PUSH3 0x7E JUMPI PUSH3 0x7E PUSH3 0x304 JUMP JUMPDEST PUSH1 0x80 DUP2 PUSH1 0x2 DUP2 GT ISZERO PUSH3 0x95 JUMPI PUSH3 0x95 PUSH3 0x304 JUMP JUMPDEST SWAP1 MSTORE POP DUP3 PUSH1 0x4 DUP2 GT ISZERO PUSH3 0xAD JUMPI PUSH3 0xAD PUSH3 0x304 JUMP JUMPDEST PUSH1 0xA0 DUP2 PUSH1 0x4 DUP2 GT ISZERO PUSH3 0xC4 JUMPI PUSH3 0xC4 PUSH3 0x304 JUMP JUMPDEST SWAP1 MSTORE POP PUSH3 0xD4 PUSH1 0x0 DUP7 PUSH3 0x1BD JUMP JUMPDEST POP PUSH3 0x101 PUSH32 0x123B642491709420C2370BB98C4E7DE2B1BC05C5F9FD95AC4111E12683553C62 DUP7 PUSH3 0x1BD JUMP JUMPDEST POP PUSH1 0x1 DUP1 SLOAD PUSH1 0x1 PUSH1 0x1 PUSH1 0xA0 SHL SUB DUP1 DUP6 AND PUSH1 0x1 PUSH1 0x1 PUSH1 0xA0 SHL SUB NOT SWAP3 DUP4 AND OR SWAP1 SWAP3 SSTORE PUSH1 0x2 DUP1 SLOAD DUP5 DUP5 AND SWAP3 AND SWAP2 SWAP1 SWAP2 OR SWAP1 SSTORE PUSH1 0x40 MLOAD SWAP1 DUP7 AND SWAP1 ADDRESS SWAP1 PUSH32 0x6EA0800C4AE91C90014C4336424489E44C66E01DB9FFF5710AF54833089F05BB SWAP1 PUSH3 0x16A SWAP1 DUP9 SWAP1 DUP9 SWAP1 PUSH3 0x31A JUMP JUMPDEST PUSH1 0x40 MLOAD DUP1 SWAP2 SUB SWAP1 LOG3 DUP1 PUSH1 0x1 PUSH1 0x1 PUSH1 0xA0 SHL SUB AND DUP3 PUSH1 0x1 PUSH1 0x1 PUSH1 0xA0 SHL SUB AND PUSH32 0x53AE3B3ECA082F3CD2154629B38B35D9CE679A46EC9909CC1324430452486510 PUSH1 0x40 MLOAD PUSH1 0x40 MLOAD DUP1 SWAP2 SUB SWAP1 LOG3 POP POP POP POP POP PUSH3 0x354 JUMP JUMPDEST PUSH1 0x0 DUP3 DUP2 MSTORE PUSH1 0x20 DUP2 DUP2 MSTORE PUSH1 0x40 DUP1 DUP4 KECCAK256 PUSH1 0x1 PUSH1 0x1 PUSH1 0xA0 SHL SUB DUP6 AND DUP5 MSTORE SWAP1 SWAP2 MSTORE DUP2 KECCAK256 SLOAD PUSH1 0xFF AND PUSH3 0x262 JUMPI PUSH1 0x0 DUP4 DUP2 MSTORE PUSH1 0x20 DUP2 DUP2 MSTORE PUSH1 0x40 DUP1 DUP4 KECCAK256 PUSH1 0x1 PUSH1 0x1 PUSH1 0xA0 SHL SUB DUP7 AND DUP5 MSTORE SWAP1 SWAP2 MSTORE SWAP1 KECCAK256 DUP1 SLOAD PUSH1 0xFF NOT AND PUSH1 0x1 OR SWAP1 SSTORE PUSH3 0x219 CALLER SWAP1 JUMP JUMPDEST PUSH1 0x1 PUSH1 0x1 PUSH1 0xA0 SHL SUB AND DUP3 PUSH1 0x1 PUSH1 0x1 PUSH1 0xA0 SHL SUB AND DUP5 PUSH32 0x2F8788117E7EFF1D82E926EC794901D17C78024A50270940304540A733656F0D PUSH1 0x40 MLOAD PUSH1 0x40 MLOAD DUP1 SWAP2 SUB SWAP1 LOG4 POP PUSH1 0x1 PUSH3 0x266 JUMP JUMPDEST POP PUSH1 0x0 JUMPDEST SWAP3 SWAP2 POP POP JUMP JUMPDEST DUP1 MLOAD PUSH1 0x1 PUSH1 0x1 PUSH1 0xA0 SHL SUB DUP2 AND DUP2 EQ PUSH3 0x284 JUMPI PUSH1 0x0 DUP1 REVERT JUMPDEST SWAP2 SWAP1 POP JUMP JUMPDEST PUSH1 0x0 DUP1 PUSH1 0x0 DUP1 PUSH1 0x0 PUSH1 0xA0 DUP7 DUP9 SUB SLT ISZERO PUSH3 0x2A2 JUMPI PUSH1 0x0 DUP1 REVERT JUMPDEST PUSH3 0x2AD DUP7 PUSH3 0x26C JUMP JUMPDEST SWAP5 POP PUSH1 0x20 DUP7 ADD MLOAD PUSH1 0x3 DUP2 LT PUSH3 0x2C2 JUMPI PUSH1 0x0 DUP1 REVERT JUMPDEST PUSH1 0x40 DUP8 ADD MLOAD SWAP1 SWAP5 POP PUSH1 0x5 DUP2 LT PUSH3 0x2D8 JUMPI PUSH1 0x0 DUP1 REVERT JUMPDEST SWAP3 POP PUSH3 0x2E8 PUSH1 0x60 DUP8 ADD PUSH3 0x26C JUMP JUMPDEST SWAP2 POP PUSH3 0x2F8 PUSH1 0x80 DUP8 ADD PUSH3 0x26C JUMP JUMPDEST SWAP1 POP SWAP3 SWAP6 POP SWAP3 SWAP6 SWAP1 SWAP4 POP JUMP JUMPDEST PUSH4 0x4E487B71 PUSH1 0xE0 SHL PUSH1 0x0 MSTORE PUSH1 0x21 PUSH1 0x4 MSTORE PUSH1 0x24 PUSH1 0x0 REVERT JUMPDEST PUSH1 0x40 DUP2 ADD PUSH1 0x3 DUP5 LT PUSH3 0x331 JUMPI PUSH3 0x331 PUSH3 0x304 JUMP JUMPDEST DUP4 DUP3 MSTORE PUSH1 0x5 DUP4 LT PUSH3 0x347 JUMPI PUSH3 0x347 PUSH3 0x304 JUMP JUMPDEST DUP3 PUSH1 0x20 DUP4 ADD MSTORE SWAP4 SWAP3 POP POP POP JUMP JUMPDEST PUSH1 0x80 MLOAD PUSH1 0xA0 MLOAD PUSH1 0xC0 MLOAD PUSH2 0x77A PUSH3 0x384 PUSH1 0x0 CODECOPY PUSH1 0x0 PUSH2 0x1FE ADD MSTORE PUSH1 0x0 PUSH2 0x1CA ADD MSTORE PUSH1 0x0 PUSH2 0x13D ADD MSTORE PUSH2 0x77A PUSH1 0x0 RETURN INVALID PUSH1 0x80 PUSH1 0x40 MSTORE CALLVALUE DUP1 ISZERO PUSH2 0x10 JUMPI PUSH1 0x0 DUP1 REVERT JUMPDEST POP PUSH1 0x4 CALLDATASIZE LT PUSH2 0x10B JUMPI PUSH1 0x0 CALLDATALOAD PUSH1 0xE0 SHR DUP1 PUSH4 0x82C1A089 GT PUSH2 0xA2 JUMPI DUP1 PUSH4 0xA4A1160F GT PUSH2 0x71 JUMPI DUP1 PUSH4 0xA4A1160F EQ PUSH2 0x28C JUMPI DUP1 PUSH4 0xD0CA2F67 EQ PUSH2 0x29F JUMPI DUP1 PUSH4 0xD547741F EQ PUSH2 0x2C6 JUMPI DUP1 PUSH4 0xD74A5D00 EQ PUSH2 0x2D9 JUMPI DUP1 PUSH4 0xF73011AF EQ PUSH2 0x2EC JUMPI PUSH1 0x0 DUP1 REVERT JUMPDEST DUP1 PUSH4 0x82C1A089 EQ PUSH2 0x24B JUMPI DUP1 PUSH4 0x91D14854 EQ PUSH2 0x25E JUMPI DUP1 PUSH4 0x9D54C79D EQ PUSH2 0x271 JUMPI DUP1 PUSH4 0xA217FDDF EQ PUSH2 0x284 JUMPI PUSH1 0x0 DUP1 REVERT JUMPDEST DUP1 PUSH4 0x36568ABE GT PUSH2 0xDE JUMPI DUP1 PUSH4 0x36568ABE EQ PUSH2 0x1B2 JUMPI DUP1 PUSH4 0x4B72D0D4 EQ PUSH2 0x1C5 JUMPI DUP1 PUSH4 0x4D853EE5 EQ PUSH2 0x1F9 JUMPI DUP1 PUSH4 0x6C378334 EQ PUSH2 0x238 JUMPI PUSH1 0x0 DUP1 REVERT JUMPDEST DUP1 PUSH4 0x1FFC9A7 EQ PUSH2 0x110 JUMPI DUP1 PUSH4 0x23A989E1 EQ PUSH2 0x138 JUMPI DUP1 PUSH4 0x248A9CA3 EQ PUSH2 0x16C JUMPI DUP1 PUSH4 0x2F2FF15D EQ PUSH2 0x19D JUMPI JUMPDEST PUSH1 0x0 DUP1 REVERT JUMPDEST PUSH2 0x123 PUSH2 0x11E CALLDATASIZE PUSH1 0x4 PUSH2 0x644 JUMP JUMPDEST PUSH2 0x2FF JUMP JUMPDEST PUSH1 0x40 MLOAD SWAP1 ISZERO ISZERO DUP2 MSTORE PUSH1 0x20 ADD JUMPDEST PUSH1 0x40 MLOAD DUP1 SWAP2 SUB SWAP1 RETURN JUMPDEST PUSH2 0x15F PUSH32 0x0 DUP2 JUMP JUMPDEST PUSH1 0x40 MLOAD PUSH2 0x12F SWAP2 SWAP1 PUSH2 0x68B JUMP JUMPDEST PUSH2 0x18F PUSH2 0x17A CALLDATASIZE PUSH1 0x4 PUSH2 0x6A5 JUMP JUMPDEST PUSH1 0x0 SWAP1 DUP2 MSTORE PUSH1 0x20 DUP2 SWAP1 MSTORE PUSH1 0x40 SWAP1 KECCAK256 PUSH1 0x1 ADD SLOAD SWAP1 JUMP JUMPDEST PUSH1 0x40 MLOAD SWAP1 DUP2 MSTORE PUSH1 0x20 ADD PUSH2 0x12F JUMP JUMPDEST PUSH2 0x1B0 PUSH2 0x1AB CALLDATASIZE PUSH1 0x4 PUSH2 0x6DA JUMP JUMPDEST PUSH2 0x336 JUMP JUMPDEST STOP JUMPDEST PUSH2 0x1B0 PUSH2 0x1C0 CALLDATASIZE PUSH1 0x4 PUSH2 0x6DA JUMP JUMPDEST PUSH2 0x361 JUMP JUMPDEST PUSH2 0x1EC PUSH32 0x0 DUP2 JUMP JUMPDEST PUSH1 0x40 MLOAD PUSH2 0x12F SWAP2 SWAP1 PUSH2 0x706 JUMP JUMPDEST PUSH2 0x220 PUSH32 0x0 DUP2 JUMP JUMPDEST PUSH1 0x40 MLOAD PUSH1 0x1 PUSH1 0x1 PUSH1 0xA0 SHL SUB SWAP1 SWAP2 AND DUP2 MSTORE PUSH1 0x20 ADD PUSH2 0x12F JUMP JUMPDEST PUSH1 0x3 SLOAD PUSH2 0x220 SWAP1 PUSH1 0x1 PUSH1 0x1 PUSH1 0xA0 SHL SUB AND DUP2 JUMP JUMPDEST PUSH2 0x1B0 PUSH2 0x259 CALLDATASIZE PUSH1 0x4 PUSH2 0x71A JUMP JUMPDEST PUSH2 0x399 JUMP JUMPDEST PUSH2 0x123 PUSH2 0x26C CALLDATASIZE PUSH1 0x4 PUSH2 0x6DA JUMP JUMPDEST PUSH2 0x422 JUMP JUMPDEST PUSH1 0x1 SLOAD PUSH2 0x220 SWAP1 PUSH1 0x1 PUSH1 0x1 PUSH1 0xA0 SHL SUB AND DUP2 JUMP JUMPDEST PUSH2 0x18F PUSH1 0x0 DUP2 JUMP JUMPDEST PUSH1 0x4 SLOAD PUSH2 0x220 SWAP1 PUSH1 0x1 PUSH1 0x1 PUSH1 0xA0 SHL SUB AND DUP2 JUMP JUMPDEST PUSH2 0x18F PUSH32 0x123B642491709420C2370BB98C4E7DE2B1BC05C5F9FD95AC4111E12683553C62 DUP2 JUMP JUMPDEST PUSH2 0x1B0 PUSH2 0x2D4 CALLDATASIZE PUSH1 0x4 PUSH2 0x6DA JUMP JUMPDEST PUSH2 0x44B JUMP JUMPDEST PUSH2 0x1B0 PUSH2 0x2E7 CALLDATASIZE PUSH1 0x4 PUSH2 0x71A JUMP JUMPDEST PUSH2 0x470 JUMP JUMPDEST PUSH1 0x2 SLOAD PUSH2 0x220 SWAP1 PUSH1 0x1 PUSH1 0x1 PUSH1 0xA0 SHL SUB AND DUP2 JUMP JUMPDEST PUSH1 0x0 PUSH1 0x1 PUSH1 0x1 PUSH1 0xE0 SHL SUB NOT DUP3 AND PUSH4 0x7965DB0B PUSH1 0xE0 SHL EQ DUP1 PUSH2 0x330 JUMPI POP PUSH4 0x1FFC9A7 PUSH1 0xE0 SHL PUSH1 0x1 PUSH1 0x1 PUSH1 0xE0 SHL SUB NOT DUP4 AND EQ JUMPDEST SWAP3 SWAP2 POP POP JUMP JUMPDEST PUSH1 0x0 DUP3 DUP2 MSTORE PUSH1 0x20 DUP2 SWAP1 MSTORE PUSH1 0x40 SWAP1 KECCAK256 PUSH1 0x1 ADD SLOAD PUSH2 0x351 DUP2 PUSH2 0x4F9 JUMP JUMPDEST PUSH2 0x35B DUP4 DUP4 PUSH2 0x506 JUMP JUMPDEST POP POP POP POP JUMP JUMPDEST PUSH1 0x1 PUSH1 0x1 PUSH1 0xA0 SHL SUB DUP2 AND CALLER EQ PUSH2 0x38A JUMPI PUSH1 0x40 MLOAD PUSH4 0x334BD919 PUSH1 0xE1 SHL DUP2 MSTORE PUSH1 0x4 ADD PUSH1 0x40 MLOAD DUP1 SWAP2 SUB SWAP1 REVERT JUMPDEST PUSH2 0x394 DUP3 DUP3 PUSH2 0x598 JUMP JUMPDEST POP POP POP JUMP JUMPDEST PUSH32 0x123B642491709420C2370BB98C4E7DE2B1BC05C5F9FD95AC4111E12683553C62 PUSH2 0x3C3 DUP2 PUSH2 0x4F9 JUMP JUMPDEST PUSH1 0x1 DUP1 SLOAD PUSH1 0x1 PUSH1 0x1 PUSH1 0xA0 SHL SUB NOT SWAP1 DUP2 AND PUSH1 0x1 PUSH1 0x1 PUSH1 0xA0 SHL SUB DUP7 DUP2 AND SWAP2 DUP3 OR SWAP1 SWAP4 SSTORE PUSH1 0x2 DUP1 SLOAD SWAP1 SWAP3 AND SWAP3 DUP6 AND SWAP3 DUP4 OR SWAP1 SWAP2 SSTORE PUSH1 0x40 MLOAD PUSH32 0x53AE3B3ECA082F3CD2154629B38B35D9CE679A46EC9909CC1324430452486510 SWAP1 PUSH1 0x0 SWAP1 LOG3 POP POP POP JUMP JUMPDEST PUSH1 0x0 SWAP2 DUP3 MSTORE PUSH1 0x20 DUP3 DUP2 MSTORE PUSH1 0x40 DUP1 DUP5 KECCAK256 PUSH1 0x1 PUSH1 0x1 PUSH1 0xA0 SHL SUB SWAP4 SWAP1 SWAP4 AND DUP5 MSTORE SWAP2 SWAP1 MSTORE SWAP1 KECCAK256 SLOAD PUSH1 0xFF AND SWAP1 JUMP JUMPDEST PUSH1 0x0 DUP3 DUP2 MSTORE PUSH1 0x20 DUP2 SWAP1 MSTORE PUSH1 0x40 SWAP1 KECCAK256 PUSH1 0x1 ADD SLOAD PUSH2 0x466 DUP2 PUSH2 0x4F9 JUMP JUMPDEST PUSH2 0x35B DUP4 DUP4 PUSH2 0x598 JUMP JUMPDEST PUSH32 0x123B642491709420C2370BB98C4E7DE2B1BC05C5F9FD95AC4111E12683553C62 PUSH2 0x49A DUP2 PUSH2 0x4F9 JUMP JUMPDEST PUSH1 0x3 DUP1 SLOAD PUSH1 0x1 PUSH1 0x1 PUSH1 0xA0 SHL SUB NOT SWAP1 DUP2 AND PUSH1 0x1 PUSH1 0x1 PUSH1 0xA0 SHL SUB DUP7 DUP2 AND SWAP2 DUP3 OR SWAP1 SWAP4 SSTORE PUSH1 0x4 DUP1 SLOAD SWAP1 SWAP3 AND SWAP3 DUP6 AND SWAP3 DUP4 OR SWAP1 SWAP2 SSTORE PUSH1 0x40 MLOAD PUSH32 0x323C4C64AB73ED697A6C978F74508FAEC97AED0CDF6F5F0ED8D93B8D22DD5F18 SWAP1 PUSH1 0x0 SWAP1 LOG3 POP POP POP JUMP JUMPDEST PUSH2 0x503 DUP2 CALLER PUSH2 0x603 JUMP JUMPDEST POP JUMP JUMPDEST PUSH1 0x0 PUSH2 0x512 DUP4 DUP4 PUSH2 0x422 JUMP JUMPDEST PUSH2 0x590 JUMPI PUSH1 0x0 DUP4 DUP2 MSTORE PUSH1 0x20 DUP2 DUP2 MSTORE PUSH1 0x40 DUP1 DUP4 KECCAK256 PUSH1 0x1 PUSH1 0x1 PUSH1 0xA0 SHL SUB DUP7 AND DUP5 MSTORE SWAP1 SWAP2 MSTORE SWAP1 KECCAK256 DUP1 SLOAD PUSH1 0xFF NOT AND PUSH1 0x1 OR SWAP1 SSTORE PUSH2 0x548 CALLER SWAP1 JUMP JUMPDEST PUSH1 0x1 PUSH1 0x1 PUSH1 0xA0 SHL SUB AND DUP3 PUSH1 0x1 PUSH1 0x1 PUSH1 0xA0 SHL SUB AND DUP5 PUSH32 0x2F8788117E7EFF1D82E926EC794901D17C78024A50270940304540A733656F0D PUSH1 0x40 MLOAD PUSH1 0x40 MLOAD DUP1 SWAP2 SUB SWAP1 LOG4 POP PUSH1 0x1 PUSH2 0x330 JUMP JUMPDEST POP PUSH1 0x0 PUSH2 0x330 JUMP JUMPDEST PUSH1 0x0 PUSH2 0x5A4 DUP4 DUP4 PUSH2 0x422 JUMP JUMPDEST ISZERO PUSH2 0x590 JUMPI PUSH1 0x0 DUP4 DUP2 MSTORE PUSH1 0x20 DUP2 DUP2 MSTORE PUSH1 0x40 DUP1 DUP4 KECCAK256 PUSH1 0x1 PUSH1 0x1 PUSH1 0xA0 SHL SUB DUP7 AND DUP1 DUP6 MSTORE SWAP3 MSTORE DUP1 DUP4 KECCAK256 DUP1 SLOAD PUSH1 0xFF NOT AND SWAP1 SSTORE MLOAD CALLER SWAP3 DUP7 SWAP2 PUSH32 0xF6391F5C32D9C69D2A47EA670B442974B53935D1EDC7FD64EB21E047A839171B SWAP2 SWAP1 LOG4 POP PUSH1 0x1 PUSH2 0x330 JUMP JUMPDEST PUSH2 0x60D DUP3 DUP3 PUSH2 0x422 JUMP JUMPDEST PUSH2 0x640 JUMPI PUSH1 0x40 MLOAD PUSH4 0xE2517D3F PUSH1 0xE0 SHL DUP2 MSTORE PUSH1 0x1 PUSH1 0x1 PUSH1 0xA0 SHL SUB DUP3 AND PUSH1 0x4 DUP3 ADD MSTORE PUSH1 0x24 DUP2 ADD DUP4 SWAP1 MSTORE PUSH1 0x44 ADD PUSH1 0x40 MLOAD DUP1 SWAP2 SUB SWAP1 REVERT JUMPDEST POP POP JUMP JUMPDEST PUSH1 0x0 PUSH1 0x20 DUP3 DUP5 SUB SLT ISZERO PUSH2 0x656 JUMPI PUSH1 0x0 DUP1 REVERT JUMPDEST DUP2 CALLDATALOAD PUSH1 0x1 PUSH1 0x1 PUSH1 0xE0 SHL SUB NOT DUP2 AND DUP2 EQ PUSH2 0x66E JUMPI PUSH1 0x0 DUP1 REVERT JUMPDEST SWAP4 SWAP3 POP POP POP JUMP JUMPDEST PUSH4 0x4E487B71 PUSH1 0xE0 SHL PUSH1 0x0 MSTORE PUSH1 0x21 PUSH1 0x4 MSTORE PUSH1 0x24 PUSH1 0x0 REVERT JUMPDEST PUSH1 0x20 DUP2 ADD PUSH1 0x3 DUP4 LT PUSH2 0x69F JUMPI PUSH2 0x69F PUSH2 0x675 JUMP JUMPDEST SWAP2 SWAP1 MSTORE SWAP1 JUMP JUMPDEST PUSH1 0x0 PUSH1 0x20 DUP3 DUP5 SUB SLT ISZERO PUSH2 0x6B7 JUMPI PUSH1 0x0 DUP1 REVERT JUMPDEST POP CALLDATALOAD SWAP2 SWAP1 POP JUMP JUMPDEST DUP1 CALLDATALOAD PUSH1 0x1 PUSH1 0x1 PUSH1 0xA0 SHL SUB DUP2 AND DUP2 EQ PUSH2 0x6D5 JUMPI PUSH1 0x0 DUP1 REVERT JUMPDEST SWAP2 SWAP1 POP JUMP JUMPDEST PUSH1 0x0 DUP1 PUSH1 0x40 DUP4 DUP6 SUB SLT ISZERO PUSH2 0x6ED JUMPI PUSH1 0x0 DUP1 REVERT JUMPDEST DUP3 CALLDATALOAD SWAP2 POP PUSH2 0x6FD PUSH1 0x20 DUP5 ADD PUSH2 0x6BE JUMP JUMPDEST SWAP1 POP SWAP3 POP SWAP3 SWAP1 POP JUMP JUMPDEST PUSH1 0x20 DUP2 ADD PUSH1 0x5 DUP4 LT PUSH2 0x69F JUMPI PUSH2 0x69F PUSH2 0x675 JUMP JUMPDEST PUSH1 0x0 DUP1 PUSH1 0x40 DUP4 DUP6 SUB SLT ISZERO PUSH2 0x72D JUMPI PUSH1 0x0 DUP1 REVERT JUMPDEST PUSH2 0x736 DUP4 PUSH2 0x6BE JUMP JUMPDEST SWAP2 POP PUSH2 0x6FD PUSH1 0x20 DUP5 ADD PUSH2 0x6BE JUMP INVALID LOG2 PUSH5 0x6970667358 0x22 SLT KECCAK256 SMOD LT 0xEB SELFBALANCE DUP8 0x22 GASLIMIT SWAP9 LOG0 PUSH18 0x9617FEA4631F87D54D1D84210AA7C28E5E38 0xD 0xB3 0xD0 0xB6 PUSH5 0x736F6C6343 STOP ADDMOD XOR STOP CALLER "},"methodIdentifiers":{"DEFAULT_ADMIN_ROLE()":"a217fddf","ORG_ADMIN_ROLE()":"d0ca2f67","archivist()":"f73011af","branch()":"4b72d0d4","documentRegistry()":"a4a1160f","founder()":"4d853ee5","getRoleAdmin(bytes32)":"248a9ca3","grantRole(bytes32,address)":"2f2ff15d","hasRole(bytes32,address)":"91d14854","notary()":"9d54c79d","orgType()":"23a989e1","renounceRole(bytes32,address)":"36568abe","revokeRole(bytes32,address)":"d547741f","setCenter(address,address)":"82c1a089","setModules(address,address)":"d74a5d00","structureRegistry()":"6c378334","supportsInterface(bytes4)":"01ffc9a7"}}}}}