{"contracts/ConstitutionRegistry.sol":{"ConstitutionRegistry":{"abi":[{"inputs":[{"internalType":"address","name":"_khural","type":"address"}],"stateMutability":"nonpayable","type":"constructor"},{"inputs":[],"name":"AlreadyExists","type":"error"},{"inputs":[],"name":"ArticleNotFound","type":"error"},{"inputs":[],"name":"InvalidInput","type":"error"},{"inputs":[],"name":"NotAuthorized","type":"error"},{"inputs":[],"name":"VersionNotFound","type":"error"},{"anonymous":false,"inputs":[{"indexed":true,"internalType":"uint256","name":"articleId","type":"uint256"},{"indexed":false,"internalType":"string","name":"title","type":"string"}],"name":"ArticleCreated","type":"event"},{"anonymous":false,"inputs":[{"indexed":true,"internalType":"uint256","name":"articleId","type":"uint256"}],"name":"ArticleRepealed","type":"event"},{"anonymous":false,"inputs":[{"indexed":true,"internalType":"uint256","name":"articleId","type":"uint256"},{"indexed":true,"internalType":"uint256","name":"version","type":"uint256"}],"name":"VersionActivated","type":"event"},{"anonymous":false,"inputs":[{"indexed":true,"internalType":"uint256","name":"articleId","type":"uint256"},{"indexed":true,"internalType":"uint256","name":"version","type":"uint256"},{"indexed":false,"internalType":"bytes32","name":"contentHash","type":"bytes32"},{"indexed":false,"internalType":"string","name":"uri","type":"string"}],"name":"VersionAdded","type":"event"},{"inputs":[{"internalType":"uint256","name":"articleId","type":"uint256"},{"internalType":"uint256","name":"version","type":"uint256"}],"name":"activateVersion","outputs":[],"stateMutability":"nonpayable","type":"function"},{"inputs":[{"internalType":"uint256","name":"articleId","type":"uint256"},{"internalType":"bytes32","name":"contentHash","type":"bytes32"},{"internalType":"string","name":"uri","type":"string"}],"name":"addVersion","outputs":[],"stateMutability":"nonpayable","type":"function"},{"inputs":[],"name":"articleCount","outputs":[{"internalType":"uint256","name":"","type":"uint256"}],"stateMutability":"view","type":"function"},{"inputs":[{"internalType":"uint256","name":"","type":"uint256"}],"name":"articles","outputs":[{"internalType":"string","name":"title","type":"string"},{"internalType":"bool","name":"exists","type":"bool"},{"internalType":"bool","name":"repealed","type":"bool"},{"internalType":"uint256","name":"latestVersion","type":"uint256"},{"internalType":"uint256","name":"activeVersion","type":"uint256"}],"stateMutability":"view","type":"function"},{"inputs":[{"internalType":"string","name":"title","type":"string"}],"name":"createArticle","outputs":[{"internalType":"uint256","name":"articleId","type":"uint256"}],"stateMutability":"nonpayable","type":"function"},{"inputs":[{"internalType":"uint256","name":"articleId","type":"uint256"}],"name":"getActiveVersion","outputs":[{"components":[{"internalType":"bytes32","name":"contentHash","type":"bytes32"},{"internalType":"string","name":"uri","type":"string"},{"internalType":"uint64","name":"timestamp","type":"uint64"},{"internalType":"bool","name":"exists","type":"bool"}],"internalType":"struct ConstitutionRegistry.Version","name":"","type":"tuple"}],"stateMutability":"view","type":"function"},{"inputs":[{"internalType":"uint256","name":"articleId","type":"uint256"},{"internalType":"uint256","name":"version","type":"uint256"}],"name":"getVersion","outputs":[{"components":[{"internalType":"bytes32","name":"contentHash","type":"bytes32"},{"internalType":"string","name":"uri","type":"string"},{"internalType":"uint64","name":"timestamp","type":"uint64"},{"internalType":"bool","name":"exists","type":"bool"}],"internalType":"struct ConstitutionRegistry.Version","name":"","type":"tuple"}],"stateMutability":"view","type":"function"},{"inputs":[],"name":"khural","outputs":[{"internalType":"address","name":"","type":"address"}],"stateMutability":"view","type":"function"},{"inputs":[{"internalType":"uint256","name":"articleId","type":"uint256"}],"name":"repealArticle","outputs":[],"stateMutability":"nonpayable","type":"function"},{"inputs":[{"internalType":"uint256","name":"","type":"uint256"},{"internalType":"uint256","name":"","type":"uint256"}],"name":"versions","outputs":[{"internalType":"bytes32","name":"contentHash","type":"bytes32"},{"internalType":"string","name":"uri","type":"string"},{"internalType":"uint64","name":"timestamp","type":"uint64"},{"internalType":"bool","name":"exists","type":"bool"}],"stateMutability":"view","type":"function"}],"evm":{"bytecode":{"linkReferences":{},"object":"60a03461009e57601f610e6f38819003918201601f19168301916001600160401b038311848410176100a35780849260209460405283398101031261009e57516001600160a01b03811680820361009e571561008c57608052604051610db590816100ba823960805181818161014101528181610461015281816104a20152818161068d0152610a280152f35b60405163b4fa3fb360e01b8152600490fd5b600080fd5b634e487b7160e01b600052604160045260246000fdfe6080806040526004908136101561001557600080fd5b60003560e01c908163414e28b014610ab6575080635f6268b914610a115780636987b075146109785780636ecec5ea1461065a5780638eb4d2a51461057b578063a3a7bf4114610490578063c6a6267e1461044b578063c97fddbd146103d2578063dc3e7bc61461010b5763edcfafe61461008f57600080fd5b34610106576020366003190112610106573560005260016020526100e260406000206100ba81610c28565b90600181015490600360028201549101549060ff60405195869560a0875260a0870190610ae7565b938181161515602087015260081c1615156040850152606084015260808301520390f35b600080fd5b50346101065760203660031901126101065767ffffffffffffffff9080358281116101065761013d9036908301610b6c565b91907f00000000000000000000000000000000000000000000000000000000000000006001600160a01b031633036103c25782156103b257610180600054610cf2565b928360005560405160a081018181108782111761039d576040526101a5368385610d17565b815260208101956001968781526040830160008152606084019260008452608085019760008952896000528a6020526040600020955190815192831161038857506101f08654610b9a565b601f8111610341575b5099899796959493929160209b8c90601f83116001146102b15791807f530582bd95b2f2e66cb9252f12b2af00a90fe6cec893b899a0e088ebebadbaf69b9c96949260039896946000926102a6575b505060001982891b1c191690821b1787555b8601915115159060ff61ff0084549251151560081b1692169061ffff1916171790555160028401555191015561029b60405192839288845288840191610d5e565b0390a2604051908152f35b015190503880610248565b90876000528d6000209160005b601f198516811061032957509284927f530582bd95b2f2e66cb9252f12b2af00a90fe6cec893b899a0e088ebebadbaf69c9d979592600399979583601f19811610610311575b505050811b01875561025a565b0151600019838b1b60f8161c19169055388080610304565b8282015184558e9c5092850192918f01918f016102be565b866000526020600020601f840160051c8101916020851061037e575b601f0160051c01905b81811061037357506101f9565b600081558c01610366565b909150819061035d565b604190634e487b7160e01b6000525260246000fd5b604185634e487b7160e01b6000525260246000fd5b5060405163b4fa3fb360e01b8152fd5b5060405163ea8e4eb560e01b8152fd5b34610106576103e036610ad1565b90600052600260205260406000209060005260205260406000208054600261040a60018401610c28565b92015460ff61042b6040519485948552608060208601526080850190610ae7565b9167ffffffffffffffff8116604085015260401c16151560608301520390f35b34610106576000366003190112610106576040517f00000000000000000000000000000000000000000000000000000000000000006001600160a01b03168152602090f35b50346101065761049f36610ad1565b917f00000000000000000000000000000000000000000000000000000000000000006001600160a01b0316330361056c5781600052600160205260ff600160406000200154161561055d5781600052600260205260406000208360005260205260ff60026040600020015460401c161561054e5750806000526001602052816003604060002001557fd3403b7bf5c19bfeb1bc336573d9a719003d4d8fa360bfd7542288ddb193778f600080a3005b60405163392d164960e01b8152fd5b60405163522e582d60e11b8152fd5b60405163ea8e4eb560e01b8152fd5b503461010657602080600319360112610106578135610598610ccd565b50806000526001825260ff600160406000200154161561064957806000526001825260036040600020015490811561063857610634935060005260028252604060002090600052815260ff60026040600020604051936105f785610bd4565b8154855261060760018301610c28565b90850152015467ffffffffffffffff8116604084015260401c161515606082015260405191829182610b27565b0390f35b60405163392d164960e01b81528490fd5b60405163522e582d60e11b81528390fd5b50346101065760603660031901126101065760443567ffffffffffffffff81116101065761068b9036908301610b6c565b7f00000000000000000000000000000000000000000000000000000000000000006001600160a01b03163303610967578235600052600160205260ff600160406000200154161561064957602435156109565782356000526001602052604060002060ff600182015460081c16610945576002019161070a8354610cf2565b8093556040519361071a85610bd4565b602435855261072a368484610d17565b946020810195865267ffffffffffffffff421660408201526001606082015281356000526002602052604060002085600052602052604060002095815187555195865167ffffffffffffffff8111610930576107896001830154610b9a565b601f81116108e9575b506020601f8211600114610854579080600293927f07614e033e0a70818b0c5cc24675bf0b66f2701746c676e12447fdb5c16bfef498999a600092610849575b50508160011b916000199060031b1c19161760018201555b019067ffffffffffffffff60408201511668ff000000000000000060608454930151151560401b169168ffffffffffffffffff19161717905561084460405192839260243584526040602085015235956040840191610d5e565b0390a3005b0151905038806107d2565b6001830160005260206000209860005b601f19841681106108d15750917f07614e033e0a70818b0c5cc24675bf0b66f2701746c676e12447fdb5c16bfef49798996001926002959483601f198116106108b8575b505050811b0160018201556107ea565b015160001960f88460031b161c191690553880806108a8565b828201518b556001909a019960209283019201610864565b600183016000526020600020601f830160051c810160208410610929575b601f830160051c8201811061091d575050610792565b60008155600101610907565b5080610907565b604184634e487b7160e01b6000525260246000fd5b60405163b4fa3fb360e01b81528490fd5b60405163b4fa3fb360e01b81528390fd5b60405163ea8e4eb560e01b81528390fd5b50346101065761098736610ad1565b61098f610ccd565b50816000526020916001835260ff6001604060002001541615610a00578060005260028352604060002082600052835260ff60026040600020015460401c161561063857610634935060005260028252604060002090600052815260ff60026040600020604051936105f785610bd4565b60405163522e582d60e11b81528490fd5b5034610106576020366003190112610106578035907f00000000000000000000000000000000000000000000000000000000000000006001600160a01b0316330361056c5781600052600160205260ff600160406000200154161561055d5750806000526001602052600160406000200161010061ff00198254161790557f657797cefac76dad253a58e9e5f0c0018c74c8bb80b316bdd2e518849881abad600080a2005b34610106576000366003190112610106576020906000548152f35b6040906003190112610106576004359060243590565b919082519283825260005b848110610b13575050826000602080949584010152601f8019910116010190565b602081830181015184830182015201610af2565b602081528151602082015260806060610b4e602085015183604086015260a0850190610ae7565b9367ffffffffffffffff604082015116828501520151151591015290565b9181601f840112156101065782359167ffffffffffffffff8311610106576020838186019501011161010657565b90600182811c92168015610bca575b6020831014610bb457565b634e487b7160e01b600052602260045260246000fd5b91607f1691610ba9565b6080810190811067ffffffffffffffff821117610bf057604052565b634e487b7160e01b600052604160045260246000fd5b90601f8019910116810190811067ffffffffffffffff821117610bf057604052565b90604051918260008254610c3b81610b9a565b90818452602094600191600181169081600014610cab5750600114610c6c575b505050610c6a92500383610c06565b565b600090815285812095935091905b818310610c93575050610c6a9350820101388080610c5b565b85548884018501529485019487945091830191610c7a565b92505050610c6a94925060ff191682840152151560051b820101388080610c5b565b60405190610cda82610bd4565b60006060838281528160208201528260408201520152565b6000198114610d015760010190565b634e487b7160e01b600052601160045260246000fd5b92919267ffffffffffffffff8211610bf05760405191610d41601f8201601f191660200184610c06565b829481845281830111610106578281602093846000960137010152565b908060209392818452848401376000828201840152601f01601f191601019056fea26469706673582212204db6ae7e0a90338a6035f2d4d4ade3f5b53d2911e42bfdb28227ad4a3c844c4a64736f6c63430008180033","opcodes":"PUSH1 0xA0 CALLVALUE PUSH2 0x9E JUMPI PUSH1 0x1F PUSH2 0xE6F CODESIZE DUP2 SWAP1 SUB SWAP2 DUP3 ADD PUSH1 0x1F NOT AND DUP4 ADD SWAP2 PUSH1 0x1 PUSH1 0x1 PUSH1 0x40 SHL SUB DUP4 GT DUP5 DUP5 LT OR PUSH2 0xA3 JUMPI DUP1 DUP5 SWAP3 PUSH1 0x20 SWAP5 PUSH1 0x40 MSTORE DUP4 CODECOPY DUP2 ADD SUB SLT PUSH2 0x9E JUMPI MLOAD PUSH1 0x1 PUSH1 0x1 PUSH1 0xA0 SHL SUB DUP2 AND DUP1 DUP3 SUB PUSH2 0x9E JUMPI ISZERO PUSH2 0x8C JUMPI PUSH1 0x80 MSTORE PUSH1 0x40 MLOAD PUSH2 0xDB5 SWAP1 DUP2 PUSH2 0xBA DUP3 CODECOPY PUSH1 0x80 MLOAD DUP2 DUP2 DUP2 PUSH2 0x141 ADD MSTORE DUP2 DUP2 PUSH2 0x461 ADD MSTORE DUP2 DUP2 PUSH2 0x4A2 ADD MSTORE DUP2 DUP2 PUSH2 0x68D ADD MSTORE PUSH2 0xA28 ADD MSTORE RETURN JUMPDEST PUSH1 0x40 MLOAD PUSH4 0xB4FA3FB3 PUSH1 0xE0 SHL DUP2 MSTORE PUSH1 0x4 SWAP1 REVERT JUMPDEST PUSH1 0x0 DUP1 REVERT JUMPDEST PUSH4 0x4E487B71 PUSH1 0xE0 SHL PUSH1 0x0 MSTORE PUSH1 0x41 PUSH1 0x4 MSTORE PUSH1 0x24 PUSH1 0x0 REVERT INVALID PUSH1 0x80 DUP1 PUSH1 0x40 MSTORE PUSH1 0x4 SWAP1 DUP2 CALLDATASIZE LT ISZERO PUSH2 0x15 JUMPI PUSH1 0x0 DUP1 REVERT JUMPDEST PUSH1 0x0 CALLDATALOAD PUSH1 0xE0 SHR SWAP1 DUP2 PUSH4 0x414E28B0 EQ PUSH2 0xAB6 JUMPI POP DUP1 PUSH4 0x5F6268B9 EQ PUSH2 0xA11 JUMPI DUP1 PUSH4 0x6987B075 EQ PUSH2 0x978 JUMPI DUP1 PUSH4 0x6ECEC5EA EQ PUSH2 0x65A JUMPI DUP1 PUSH4 0x8EB4D2A5 EQ PUSH2 0x57B JUMPI DUP1 PUSH4 0xA3A7BF41 EQ PUSH2 0x490 JUMPI DUP1 PUSH4 0xC6A6267E EQ PUSH2 0x44B JUMPI DUP1 PUSH4 0xC97FDDBD EQ PUSH2 0x3D2 JUMPI DUP1 PUSH4 0xDC3E7BC6 EQ PUSH2 0x10B JUMPI PUSH4 0xEDCFAFE6 EQ PUSH2 0x8F JUMPI PUSH1 0x0 DUP1 REVERT JUMPDEST CALLVALUE PUSH2 0x106 JUMPI PUSH1 0x20 CALLDATASIZE PUSH1 0x3 NOT ADD SLT PUSH2 0x106 JUMPI CALLDATALOAD PUSH1 0x0 MSTORE PUSH1 0x1 PUSH1 0x20 MSTORE PUSH2 0xE2 PUSH1 0x40 PUSH1 0x0 KECCAK256 PUSH2 0xBA DUP2 PUSH2 0xC28 JUMP JUMPDEST SWAP1 PUSH1 0x1 DUP2 ADD SLOAD SWAP1 PUSH1 0x3 PUSH1 0x2 DUP3 ADD SLOAD SWAP2 ADD SLOAD SWAP1 PUSH1 0xFF PUSH1 0x40 MLOAD SWAP6 DUP7 SWAP6 PUSH1 0xA0 DUP8 MSTORE PUSH1 0xA0 DUP8 ADD SWAP1 PUSH2 0xAE7 JUMP JUMPDEST SWAP4 DUP2 DUP2 AND ISZERO ISZERO PUSH1 0x20 DUP8 ADD MSTORE PUSH1 0x8 SHR AND ISZERO ISZERO PUSH1 0x40 DUP6 ADD MSTORE PUSH1 0x60 DUP5 ADD MSTORE PUSH1 0x80 DUP4 ADD MSTORE SUB SWAP1 RETURN JUMPDEST PUSH1 0x0 DUP1 REVERT JUMPDEST POP CALLVALUE PUSH2 0x106 JUMPI PUSH1 0x20 CALLDATASIZE PUSH1 0x3 NOT ADD SLT PUSH2 0x106 JUMPI PUSH8 0xFFFFFFFFFFFFFFFF SWAP1 DUP1 CALLDATALOAD DUP3 DUP2 GT PUSH2 0x106 JUMPI PUSH2 0x13D SWAP1 CALLDATASIZE SWAP1 DUP4 ADD PUSH2 0xB6C JUMP JUMPDEST SWAP2 SWAP1 PUSH32 0x0 PUSH1 0x1 PUSH1 0x1 PUSH1 0xA0 SHL SUB AND CALLER SUB PUSH2 0x3C2 JUMPI DUP3 ISZERO PUSH2 0x3B2 JUMPI PUSH2 0x180 PUSH1 0x0 SLOAD PUSH2 0xCF2 JUMP JUMPDEST SWAP3 DUP4 PUSH1 0x0 SSTORE PUSH1 0x40 MLOAD PUSH1 0xA0 DUP2 ADD DUP2 DUP2 LT DUP8 DUP3 GT OR PUSH2 0x39D JUMPI PUSH1 0x40 MSTORE PUSH2 0x1A5 CALLDATASIZE DUP4 DUP6 PUSH2 0xD17 JUMP JUMPDEST DUP2 MSTORE PUSH1 0x20 DUP2 ADD SWAP6 PUSH1 0x1 SWAP7 DUP8 DUP2 MSTORE PUSH1 0x40 DUP4 ADD PUSH1 0x0 DUP2 MSTORE PUSH1 0x60 DUP5 ADD SWAP3 PUSH1 0x0 DUP5 MSTORE PUSH1 0x80 DUP6 ADD SWAP8 PUSH1 0x0 DUP10 MSTORE DUP10 PUSH1 0x0 MSTORE DUP11 PUSH1 0x20 MSTORE PUSH1 0x40 PUSH1 0x0 KECCAK256 SWAP6 MLOAD SWAP1 DUP2 MLOAD SWAP3 DUP4 GT PUSH2 0x388 JUMPI POP PUSH2 0x1F0 DUP7 SLOAD PUSH2 0xB9A JUMP JUMPDEST PUSH1 0x1F DUP2 GT PUSH2 0x341 JUMPI JUMPDEST POP SWAP10 DUP10 SWAP8 SWAP7 SWAP6 SWAP5 SWAP4 SWAP3 SWAP2 PUSH1 0x20 SWAP12 DUP13 SWAP1 PUSH1 0x1F DUP4 GT PUSH1 0x1 EQ PUSH2 0x2B1 JUMPI SWAP2 DUP1 PUSH32 0x530582BD95B2F2E66CB9252F12B2AF00A90FE6CEC893B899A0E088EBEBADBAF6 SWAP12 SWAP13 SWAP7 SWAP5 SWAP3 PUSH1 0x3 SWAP9 SWAP7 SWAP5 PUSH1 0x0 SWAP3 PUSH2 0x2A6 JUMPI JUMPDEST POP POP PUSH1 0x0 NOT DUP3 DUP10 SHL SHR NOT AND SWAP1 DUP3 SHL OR DUP8 SSTORE JUMPDEST DUP7 ADD SWAP2 MLOAD ISZERO ISZERO SWAP1 PUSH1 0xFF PUSH2 0xFF00 DUP5 SLOAD SWAP3 MLOAD ISZERO ISZERO PUSH1 0x8 SHL AND SWAP3 AND SWAP1 PUSH2 0xFFFF NOT AND OR OR SWAP1 SSTORE MLOAD PUSH1 0x2 DUP5 ADD SSTORE MLOAD SWAP2 ADD SSTORE PUSH2 0x29B PUSH1 0x40 MLOAD SWAP3 DUP4 SWAP3 DUP9 DUP5 MSTORE DUP9 DUP5 ADD SWAP2 PUSH2 0xD5E JUMP JUMPDEST SUB SWAP1 LOG2 PUSH1 0x40 MLOAD SWAP1 DUP2 MSTORE RETURN JUMPDEST ADD MLOAD SWAP1 POP CODESIZE DUP1 PUSH2 0x248 JUMP JUMPDEST SWAP1 DUP8 PUSH1 0x0 MSTORE DUP14 PUSH1 0x0 KECCAK256 SWAP2 PUSH1 0x0 JUMPDEST PUSH1 0x1F NOT DUP6 AND DUP2 LT PUSH2 0x329 JUMPI POP SWAP3 DUP5 SWAP3 PUSH32 0x530582BD95B2F2E66CB9252F12B2AF00A90FE6CEC893B899A0E088EBEBADBAF6 SWAP13 SWAP14 SWAP8 SWAP6 SWAP3 PUSH1 0x3 SWAP10 SWAP8 SWAP6 DUP4 PUSH1 0x1F NOT DUP2 AND LT PUSH2 0x311 JUMPI JUMPDEST POP POP POP DUP2 SHL ADD DUP8 SSTORE PUSH2 0x25A JUMP JUMPDEST ADD MLOAD PUSH1 0x0 NOT DUP4 DUP12 SHL PUSH1 0xF8 AND SHR NOT AND SWAP1 SSTORE CODESIZE DUP1 DUP1 PUSH2 0x304 JUMP JUMPDEST DUP3 DUP3 ADD MLOAD DUP5 SSTORE DUP15 SWAP13 POP SWAP3 DUP6 ADD SWAP3 SWAP2 DUP16 ADD SWAP2 DUP16 ADD PUSH2 0x2BE JUMP JUMPDEST DUP7 PUSH1 0x0 MSTORE PUSH1 0x20 PUSH1 0x0 KECCAK256 PUSH1 0x1F DUP5 ADD PUSH1 0x5 SHR DUP2 ADD SWAP2 PUSH1 0x20 DUP6 LT PUSH2 0x37E JUMPI JUMPDEST PUSH1 0x1F ADD PUSH1 0x5 SHR ADD SWAP1 JUMPDEST DUP2 DUP2 LT PUSH2 0x373 JUMPI POP PUSH2 0x1F9 JUMP JUMPDEST PUSH1 0x0 DUP2 SSTORE DUP13 ADD PUSH2 0x366 JUMP JUMPDEST SWAP1 SWAP2 POP DUP2 SWAP1 PUSH2 0x35D JUMP JUMPDEST PUSH1 0x41 SWAP1 PUSH4 0x4E487B71 PUSH1 0xE0 SHL PUSH1 0x0 MSTORE MSTORE PUSH1 0x24 PUSH1 0x0 REVERT JUMPDEST PUSH1 0x41 DUP6 PUSH4 0x4E487B71 PUSH1 0xE0 SHL PUSH1 0x0 MSTORE MSTORE PUSH1 0x24 PUSH1 0x0 REVERT JUMPDEST POP PUSH1 0x40 MLOAD PUSH4 0xB4FA3FB3 PUSH1 0xE0 SHL DUP2 MSTORE REVERT JUMPDEST POP PUSH1 0x40 MLOAD PUSH4 0xEA8E4EB5 PUSH1 0xE0 SHL DUP2 MSTORE REVERT JUMPDEST CALLVALUE PUSH2 0x106 JUMPI PUSH2 0x3E0 CALLDATASIZE PUSH2 0xAD1 JUMP JUMPDEST SWAP1 PUSH1 0x0 MSTORE PUSH1 0x2 PUSH1 0x20 MSTORE PUSH1 0x40 PUSH1 0x0 KECCAK256 SWAP1 PUSH1 0x0 MSTORE PUSH1 0x20 MSTORE PUSH1 0x40 PUSH1 0x0 KECCAK256 DUP1 SLOAD PUSH1 0x2 PUSH2 0x40A PUSH1 0x1 DUP5 ADD PUSH2 0xC28 JUMP JUMPDEST SWAP3 ADD SLOAD PUSH1 0xFF PUSH2 0x42B PUSH1 0x40 MLOAD SWAP5 DUP6 SWAP5 DUP6 MSTORE PUSH1 0x80 PUSH1 0x20 DUP7 ADD MSTORE PUSH1 0x80 DUP6 ADD SWAP1 PUSH2 0xAE7 JUMP JUMPDEST SWAP2 PUSH8 0xFFFFFFFFFFFFFFFF DUP2 AND PUSH1 0x40 DUP6 ADD MSTORE PUSH1 0x40 SHR AND ISZERO ISZERO PUSH1 0x60 DUP4 ADD MSTORE SUB SWAP1 RETURN JUMPDEST CALLVALUE PUSH2 0x106 JUMPI PUSH1 0x0 CALLDATASIZE PUSH1 0x3 NOT ADD SLT PUSH2 0x106 JUMPI PUSH1 0x40 MLOAD PUSH32 0x0 PUSH1 0x1 PUSH1 0x1 PUSH1 0xA0 SHL SUB AND DUP2 MSTORE PUSH1 0x20 SWAP1 RETURN JUMPDEST POP CALLVALUE PUSH2 0x106 JUMPI PUSH2 0x49F CALLDATASIZE PUSH2 0xAD1 JUMP JUMPDEST SWAP2 PUSH32 0x0 PUSH1 0x1 PUSH1 0x1 PUSH1 0xA0 SHL SUB AND CALLER SUB PUSH2 0x56C JUMPI DUP2 PUSH1 0x0 MSTORE PUSH1 0x1 PUSH1 0x20 MSTORE PUSH1 0xFF PUSH1 0x1 PUSH1 0x40 PUSH1 0x0 KECCAK256 ADD SLOAD AND ISZERO PUSH2 0x55D JUMPI DUP2 PUSH1 0x0 MSTORE PUSH1 0x2 PUSH1 0x20 MSTORE PUSH1 0x40 PUSH1 0x0 KECCAK256 DUP4 PUSH1 0x0 MSTORE PUSH1 0x20 MSTORE PUSH1 0xFF PUSH1 0x2 PUSH1 0x40 PUSH1 0x0 KECCAK256 ADD SLOAD PUSH1 0x40 SHR AND ISZERO PUSH2 0x54E JUMPI POP DUP1 PUSH1 0x0 MSTORE PUSH1 0x1 PUSH1 0x20 MSTORE DUP2 PUSH1 0x3 PUSH1 0x40 PUSH1 0x0 KECCAK256 ADD SSTORE PUSH32 0xD3403B7BF5C19BFEB1BC336573D9A719003D4D8FA360BFD7542288DDB193778F PUSH1 0x0 DUP1 LOG3 STOP JUMPDEST PUSH1 0x40 MLOAD PUSH4 0x392D1649 PUSH1 0xE0 SHL DUP2 MSTORE REVERT JUMPDEST PUSH1 0x40 MLOAD PUSH4 0x522E582D PUSH1 0xE1 SHL DUP2 MSTORE REVERT JUMPDEST PUSH1 0x40 MLOAD PUSH4 0xEA8E4EB5 PUSH1 0xE0 SHL DUP2 MSTORE REVERT JUMPDEST POP CALLVALUE PUSH2 0x106 JUMPI PUSH1 0x20 DUP1 PUSH1 0x3 NOT CALLDATASIZE ADD SLT PUSH2 0x106 JUMPI DUP2 CALLDATALOAD PUSH2 0x598 PUSH2 0xCCD JUMP JUMPDEST POP DUP1 PUSH1 0x0 MSTORE PUSH1 0x1 DUP3 MSTORE PUSH1 0xFF PUSH1 0x1 PUSH1 0x40 PUSH1 0x0 KECCAK256 ADD SLOAD AND ISZERO PUSH2 0x649 JUMPI DUP1 PUSH1 0x0 MSTORE PUSH1 0x1 DUP3 MSTORE PUSH1 0x3 PUSH1 0x40 PUSH1 0x0 KECCAK256 ADD SLOAD SWAP1 DUP2 ISZERO PUSH2 0x638 JUMPI PUSH2 0x634 SWAP4 POP PUSH1 0x0 MSTORE PUSH1 0x2 DUP3 MSTORE PUSH1 0x40 PUSH1 0x0 KECCAK256 SWAP1 PUSH1 0x0 MSTORE DUP2 MSTORE PUSH1 0xFF PUSH1 0x2 PUSH1 0x40 PUSH1 0x0 KECCAK256 PUSH1 0x40 MLOAD SWAP4 PUSH2 0x5F7 DUP6 PUSH2 0xBD4 JUMP JUMPDEST DUP2 SLOAD DUP6 MSTORE PUSH2 0x607 PUSH1 0x1 DUP4 ADD PUSH2 0xC28 JUMP JUMPDEST SWAP1 DUP6 ADD MSTORE ADD SLOAD PUSH8 0xFFFFFFFFFFFFFFFF DUP2 AND PUSH1 0x40 DUP5 ADD MSTORE PUSH1 0x40 SHR AND ISZERO ISZERO PUSH1 0x60 DUP3 ADD MSTORE PUSH1 0x40 MLOAD SWAP2 DUP3 SWAP2 DUP3 PUSH2 0xB27 JUMP JUMPDEST SUB SWAP1 RETURN JUMPDEST PUSH1 0x40 MLOAD PUSH4 0x392D1649 PUSH1 0xE0 SHL DUP2 MSTORE DUP5 SWAP1 REVERT JUMPDEST PUSH1 0x40 MLOAD PUSH4 0x522E582D PUSH1 0xE1 SHL DUP2 MSTORE DUP4 SWAP1 REVERT JUMPDEST POP CALLVALUE PUSH2 0x106 JUMPI PUSH1 0x60 CALLDATASIZE PUSH1 0x3 NOT ADD SLT PUSH2 0x106 JUMPI PUSH1 0x44 CALLDATALOAD PUSH8 0xFFFFFFFFFFFFFFFF DUP2 GT PUSH2 0x106 JUMPI PUSH2 0x68B SWAP1 CALLDATASIZE SWAP1 DUP4 ADD PUSH2 0xB6C JUMP JUMPDEST PUSH32 0x0 PUSH1 0x1 PUSH1 0x1 PUSH1 0xA0 SHL SUB AND CALLER SUB PUSH2 0x967 JUMPI DUP3 CALLDATALOAD PUSH1 0x0 MSTORE PUSH1 0x1 PUSH1 0x20 MSTORE PUSH1 0xFF PUSH1 0x1 PUSH1 0x40 PUSH1 0x0 KECCAK256 ADD SLOAD AND ISZERO PUSH2 0x649 JUMPI PUSH1 0x24 CALLDATALOAD ISZERO PUSH2 0x956 JUMPI DUP3 CALLDATALOAD PUSH1 0x0 MSTORE PUSH1 0x1 PUSH1 0x20 MSTORE PUSH1 0x40 PUSH1 0x0 KECCAK256 PUSH1 0xFF PUSH1 0x1 DUP3 ADD SLOAD PUSH1 0x8 SHR AND PUSH2 0x945 JUMPI PUSH1 0x2 ADD SWAP2 PUSH2 0x70A DUP4 SLOAD PUSH2 0xCF2 JUMP JUMPDEST DUP1 SWAP4 SSTORE PUSH1 0x40 MLOAD SWAP4 PUSH2 0x71A DUP6 PUSH2 0xBD4 JUMP JUMPDEST PUSH1 0x24 CALLDATALOAD DUP6 MSTORE PUSH2 0x72A CALLDATASIZE DUP5 DUP5 PUSH2 0xD17 JUMP JUMPDEST SWAP5 PUSH1 0x20 DUP2 ADD SWAP6 DUP7 MSTORE PUSH8 0xFFFFFFFFFFFFFFFF TIMESTAMP AND PUSH1 0x40 DUP3 ADD MSTORE PUSH1 0x1 PUSH1 0x60 DUP3 ADD MSTORE DUP2 CALLDATALOAD PUSH1 0x0 MSTORE PUSH1 0x2 PUSH1 0x20 MSTORE PUSH1 0x40 PUSH1 0x0 KECCAK256 DUP6 PUSH1 0x0 MSTORE PUSH1 0x20 MSTORE PUSH1 0x40 PUSH1 0x0 KECCAK256 SWAP6 DUP2 MLOAD DUP8 SSTORE MLOAD SWAP6 DUP7 MLOAD PUSH8 0xFFFFFFFFFFFFFFFF DUP2 GT PUSH2 0x930 JUMPI PUSH2 0x789 PUSH1 0x1 DUP4 ADD SLOAD PUSH2 0xB9A JUMP JUMPDEST PUSH1 0x1F DUP2 GT PUSH2 0x8E9 JUMPI JUMPDEST POP PUSH1 0x20 PUSH1 0x1F DUP3 GT PUSH1 0x1 EQ PUSH2 0x854 JUMPI SWAP1 DUP1 PUSH1 0x2 SWAP4 SWAP3 PUSH32 0x7614E033E0A70818B0C5CC24675BF0B66F2701746C676E12447FDB5C16BFEF4 SWAP9 SWAP10 SWAP11 PUSH1 0x0 SWAP3 PUSH2 0x849 JUMPI JUMPDEST POP POP DUP2 PUSH1 0x1 SHL SWAP2 PUSH1 0x0 NOT SWAP1 PUSH1 0x3 SHL SHR NOT AND OR PUSH1 0x1 DUP3 ADD SSTORE JUMPDEST ADD SWAP1 PUSH8 0xFFFFFFFFFFFFFFFF PUSH1 0x40 DUP3 ADD MLOAD AND PUSH9 0xFF0000000000000000 PUSH1 0x60 DUP5 SLOAD SWAP4 ADD MLOAD ISZERO ISZERO PUSH1 0x40 SHL AND SWAP2 PUSH9 0xFFFFFFFFFFFFFFFFFF NOT AND OR OR SWAP1 SSTORE PUSH2 0x844 PUSH1 0x40 MLOAD SWAP3 DUP4 SWAP3 PUSH1 0x24 CALLDATALOAD DUP5 MSTORE PUSH1 0x40 PUSH1 0x20 DUP6 ADD MSTORE CALLDATALOAD SWAP6 PUSH1 0x40 DUP5 ADD SWAP2 PUSH2 0xD5E JUMP JUMPDEST SUB SWAP1 LOG3 STOP JUMPDEST ADD MLOAD SWAP1 POP CODESIZE DUP1 PUSH2 0x7D2 JUMP JUMPDEST PUSH1 0x1 DUP4 ADD PUSH1 0x0 MSTORE PUSH1 0x20 PUSH1 0x0 KECCAK256 SWAP9 PUSH1 0x0 JUMPDEST PUSH1 0x1F NOT DUP5 AND DUP2 LT PUSH2 0x8D1 JUMPI POP SWAP2 PUSH32 0x7614E033E0A70818B0C5CC24675BF0B66F2701746C676E12447FDB5C16BFEF4 SWAP8 SWAP9 SWAP10 PUSH1 0x1 SWAP3 PUSH1 0x2 SWAP6 SWAP5 DUP4 PUSH1 0x1F NOT DUP2 AND LT PUSH2 0x8B8 JUMPI JUMPDEST POP POP POP DUP2 SHL ADD PUSH1 0x1 DUP3 ADD SSTORE PUSH2 0x7EA JUMP JUMPDEST ADD MLOAD PUSH1 0x0 NOT PUSH1 0xF8 DUP5 PUSH1 0x3 SHL AND SHR NOT AND SWAP1 SSTORE CODESIZE DUP1 DUP1 PUSH2 0x8A8 JUMP JUMPDEST DUP3 DUP3 ADD MLOAD DUP12 SSTORE PUSH1 0x1 SWAP1 SWAP11 ADD SWAP10 PUSH1 0x20 SWAP3 DUP4 ADD SWAP3 ADD PUSH2 0x864 JUMP JUMPDEST PUSH1 0x1 DUP4 ADD PUSH1 0x0 MSTORE PUSH1 0x20 PUSH1 0x0 KECCAK256 PUSH1 0x1F DUP4 ADD PUSH1 0x5 SHR DUP2 ADD PUSH1 0x20 DUP5 LT PUSH2 0x929 JUMPI JUMPDEST PUSH1 0x1F DUP4 ADD PUSH1 0x5 SHR DUP3 ADD DUP2 LT PUSH2 0x91D JUMPI POP POP PUSH2 0x792 JUMP JUMPDEST PUSH1 0x0 DUP2 SSTORE PUSH1 0x1 ADD PUSH2 0x907 JUMP JUMPDEST POP DUP1 PUSH2 0x907 JUMP JUMPDEST PUSH1 0x41 DUP5 PUSH4 0x4E487B71 PUSH1 0xE0 SHL PUSH1 0x0 MSTORE MSTORE PUSH1 0x24 PUSH1 0x0 REVERT JUMPDEST PUSH1 0x40 MLOAD PUSH4 0xB4FA3FB3 PUSH1 0xE0 SHL DUP2 MSTORE DUP5 SWAP1 REVERT JUMPDEST PUSH1 0x40 MLOAD PUSH4 0xB4FA3FB3 PUSH1 0xE0 SHL DUP2 MSTORE DUP4 SWAP1 REVERT JUMPDEST PUSH1 0x40 MLOAD PUSH4 0xEA8E4EB5 PUSH1 0xE0 SHL DUP2 MSTORE DUP4 SWAP1 REVERT JUMPDEST POP CALLVALUE PUSH2 0x106 JUMPI PUSH2 0x987 CALLDATASIZE PUSH2 0xAD1 JUMP JUMPDEST PUSH2 0x98F PUSH2 0xCCD JUMP JUMPDEST POP DUP2 PUSH1 0x0 MSTORE PUSH1 0x20 SWAP2 PUSH1 0x1 DUP4 MSTORE PUSH1 0xFF PUSH1 0x1 PUSH1 0x40 PUSH1 0x0 KECCAK256 ADD SLOAD AND ISZERO PUSH2 0xA00 JUMPI DUP1 PUSH1 0x0 MSTORE PUSH1 0x2 DUP4 MSTORE PUSH1 0x40 PUSH1 0x0 KECCAK256 DUP3 PUSH1 0x0 MSTORE DUP4 MSTORE PUSH1 0xFF PUSH1 0x2 PUSH1 0x40 PUSH1 0x0 KECCAK256 ADD SLOAD PUSH1 0x40 SHR AND ISZERO PUSH2 0x638 JUMPI PUSH2 0x634 SWAP4 POP PUSH1 0x0 MSTORE PUSH1 0x2 DUP3 MSTORE PUSH1 0x40 PUSH1 0x0 KECCAK256 SWAP1 PUSH1 0x0 MSTORE DUP2 MSTORE PUSH1 0xFF PUSH1 0x2 PUSH1 0x40 PUSH1 0x0 KECCAK256 PUSH1 0x40 MLOAD SWAP4 PUSH2 0x5F7 DUP6 PUSH2 0xBD4 JUMP JUMPDEST PUSH1 0x40 MLOAD PUSH4 0x522E582D PUSH1 0xE1 SHL DUP2 MSTORE DUP5 SWAP1 REVERT JUMPDEST POP CALLVALUE PUSH2 0x106 JUMPI PUSH1 0x20 CALLDATASIZE PUSH1 0x3 NOT ADD SLT PUSH2 0x106 JUMPI DUP1 CALLDATALOAD SWAP1 PUSH32 0x0 PUSH1 0x1 PUSH1 0x1 PUSH1 0xA0 SHL SUB AND CALLER SUB PUSH2 0x56C JUMPI DUP2 PUSH1 0x0 MSTORE PUSH1 0x1 PUSH1 0x20 MSTORE PUSH1 0xFF PUSH1 0x1 PUSH1 0x40 PUSH1 0x0 KECCAK256 ADD SLOAD AND ISZERO PUSH2 0x55D JUMPI POP DUP1 PUSH1 0x0 MSTORE PUSH1 0x1 PUSH1 0x20 MSTORE PUSH1 0x1 PUSH1 0x40 PUSH1 0x0 KECCAK256 ADD PUSH2 0x100 PUSH2 0xFF00 NOT DUP3 SLOAD AND OR SWAP1 SSTORE PUSH32 0x657797CEFAC76DAD253A58E9E5F0C0018C74C8BB80B316BDD2E518849881ABAD PUSH1 0x0 DUP1 LOG2 STOP JUMPDEST CALLVALUE PUSH2 0x106 JUMPI PUSH1 0x0 CALLDATASIZE PUSH1 0x3 NOT ADD SLT PUSH2 0x106 JUMPI PUSH1 0x20 SWAP1 PUSH1 0x0 SLOAD DUP2 MSTORE RETURN JUMPDEST PUSH1 0x40 SWAP1 PUSH1 0x3 NOT ADD SLT PUSH2 0x106 JUMPI PUSH1 0x4 CALLDATALOAD SWAP1 PUSH1 0x24 CALLDATALOAD SWAP1 JUMP JUMPDEST SWAP2 SWAP1 DUP3 MLOAD SWAP3 DUP4 DUP3 MSTORE PUSH1 0x0 JUMPDEST DUP5 DUP2 LT PUSH2 0xB13 JUMPI POP POP DUP3 PUSH1 0x0 PUSH1 0x20 DUP1 SWAP5 SWAP6 DUP5 ADD ADD MSTORE PUSH1 0x1F DUP1 NOT SWAP2 ADD AND ADD ADD SWAP1 JUMP JUMPDEST PUSH1 0x20 DUP2 DUP4 ADD DUP2 ADD MLOAD DUP5 DUP4 ADD DUP3 ADD MSTORE ADD PUSH2 0xAF2 JUMP JUMPDEST PUSH1 0x20 DUP2 MSTORE DUP2 MLOAD PUSH1 0x20 DUP3 ADD MSTORE PUSH1 0x80 PUSH1 0x60 PUSH2 0xB4E PUSH1 0x20 DUP6 ADD MLOAD DUP4 PUSH1 0x40 DUP7 ADD MSTORE PUSH1 0xA0 DUP6 ADD SWAP1 PUSH2 0xAE7 JUMP JUMPDEST SWAP4 PUSH8 0xFFFFFFFFFFFFFFFF PUSH1 0x40 DUP3 ADD MLOAD AND DUP3 DUP6 ADD MSTORE ADD MLOAD ISZERO ISZERO SWAP2 ADD MSTORE SWAP1 JUMP JUMPDEST SWAP2 DUP2 PUSH1 0x1F DUP5 ADD SLT ISZERO PUSH2 0x106 JUMPI DUP3 CALLDATALOAD SWAP2 PUSH8 0xFFFFFFFFFFFFFFFF DUP4 GT PUSH2 0x106 JUMPI PUSH1 0x20 DUP4 DUP2 DUP7 ADD SWAP6 ADD ADD GT PUSH2 0x106 JUMPI JUMP JUMPDEST SWAP1 PUSH1 0x1 DUP3 DUP2 SHR SWAP3 AND DUP1 ISZERO PUSH2 0xBCA JUMPI JUMPDEST PUSH1 0x20 DUP4 LT EQ PUSH2 0xBB4 JUMPI JUMP JUMPDEST PUSH4 0x4E487B71 PUSH1 0xE0 SHL PUSH1 0x0 MSTORE PUSH1 0x22 PUSH1 0x4 MSTORE PUSH1 0x24 PUSH1 0x0 REVERT JUMPDEST SWAP2 PUSH1 0x7F AND SWAP2 PUSH2 0xBA9 JUMP JUMPDEST PUSH1 0x80 DUP2 ADD SWAP1 DUP2 LT PUSH8 0xFFFFFFFFFFFFFFFF DUP3 GT OR PUSH2 0xBF0 JUMPI PUSH1 0x40 MSTORE JUMP JUMPDEST PUSH4 0x4E487B71 PUSH1 0xE0 SHL PUSH1 0x0 MSTORE PUSH1 0x41 PUSH1 0x4 MSTORE PUSH1 0x24 PUSH1 0x0 REVERT JUMPDEST SWAP1 PUSH1 0x1F DUP1 NOT SWAP2 ADD AND DUP2 ADD SWAP1 DUP2 LT PUSH8 0xFFFFFFFFFFFFFFFF DUP3 GT OR PUSH2 0xBF0 JUMPI PUSH1 0x40 MSTORE JUMP JUMPDEST SWAP1 PUSH1 0x40 MLOAD SWAP2 DUP3 PUSH1 0x0 DUP3 SLOAD PUSH2 0xC3B DUP2 PUSH2 0xB9A JUMP JUMPDEST SWAP1 DUP2 DUP5 MSTORE PUSH1 0x20 SWAP5 PUSH1 0x1 SWAP2 PUSH1 0x1 DUP2 AND SWAP1 DUP2 PUSH1 0x0 EQ PUSH2 0xCAB JUMPI POP PUSH1 0x1 EQ PUSH2 0xC6C JUMPI JUMPDEST POP POP POP PUSH2 0xC6A SWAP3 POP SUB DUP4 PUSH2 0xC06 JUMP JUMPDEST JUMP JUMPDEST PUSH1 0x0 SWAP1 DUP2 MSTORE DUP6 DUP2 KECCAK256 SWAP6 SWAP4 POP SWAP2 SWAP1 JUMPDEST DUP2 DUP4 LT PUSH2 0xC93 JUMPI POP POP PUSH2 0xC6A SWAP4 POP DUP3 ADD ADD CODESIZE DUP1 DUP1 PUSH2 0xC5B JUMP JUMPDEST DUP6 SLOAD DUP9 DUP5 ADD DUP6 ADD MSTORE SWAP5 DUP6 ADD SWAP5 DUP8 SWAP5 POP SWAP2 DUP4 ADD SWAP2 PUSH2 0xC7A JUMP JUMPDEST SWAP3 POP POP POP PUSH2 0xC6A SWAP5 SWAP3 POP PUSH1 0xFF NOT AND DUP3 DUP5 ADD MSTORE ISZERO ISZERO PUSH1 0x5 SHL DUP3 ADD ADD CODESIZE DUP1 DUP1 PUSH2 0xC5B JUMP JUMPDEST PUSH1 0x40 MLOAD SWAP1 PUSH2 0xCDA DUP3 PUSH2 0xBD4 JUMP JUMPDEST PUSH1 0x0 PUSH1 0x60 DUP4 DUP3 DUP2 MSTORE DUP2 PUSH1 0x20 DUP3 ADD MSTORE DUP3 PUSH1 0x40 DUP3 ADD MSTORE ADD MSTORE JUMP JUMPDEST PUSH1 0x0 NOT DUP2 EQ PUSH2 0xD01 JUMPI PUSH1 0x1 ADD SWAP1 JUMP JUMPDEST PUSH4 0x4E487B71 PUSH1 0xE0 SHL PUSH1 0x0 MSTORE PUSH1 0x11 PUSH1 0x4 MSTORE PUSH1 0x24 PUSH1 0x0 REVERT JUMPDEST SWAP3 SWAP2 SWAP3 PUSH8 0xFFFFFFFFFFFFFFFF DUP3 GT PUSH2 0xBF0 JUMPI PUSH1 0x40 MLOAD SWAP2 PUSH2 0xD41 PUSH1 0x1F DUP3 ADD PUSH1 0x1F NOT AND PUSH1 0x20 ADD DUP5 PUSH2 0xC06 JUMP JUMPDEST DUP3 SWAP5 DUP2 DUP5 MSTORE DUP2 DUP4 ADD GT PUSH2 0x106 JUMPI DUP3 DUP2 PUSH1 0x20 SWAP4 DUP5 PUSH1 0x0 SWAP7 ADD CALLDATACOPY ADD ADD MSTORE JUMP JUMPDEST SWAP1 DUP1 PUSH1 0x20 SWAP4 SWAP3 DUP2 DUP5 MSTORE DUP5 DUP5 ADD CALLDATACOPY PUSH1 0x0 DUP3 DUP3 ADD DUP5 ADD MSTORE PUSH1 0x1F ADD PUSH1 0x1F NOT AND ADD ADD SWAP1 JUMP INVALID LOG2 PUSH5 0x6970667358 0x22 SLT KECCAK256 0x4D 0xB6 0xAE PUSH31 0xA90338A6035F2D4D4ADE3F5B53D2911E42BFDB28227AD4A3C844C4A64736F PUSH13 0x63430008180033000000000000 "},"methodIdentifiers":{"activateVersion(uint256,uint256)":"a3a7bf41","addVersion(uint256,bytes32,string)":"6ecec5ea","articleCount()":"414e28b0","articles(uint256)":"edcfafe6","createArticle(string)":"dc3e7bc6","getActiveVersion(uint256)":"8eb4d2a5","getVersion(uint256,uint256)":"6987b075","khural()":"c6a6267e","repealArticle(uint256)":"5f6268b9","versions(uint256,uint256)":"c97fddbd"}}}}}