{"contracts/CentralBankOfSiberia.sol":{"CentralBankOfSiberia":{"abi":[{"inputs":[],"stateMutability":"nonpayable","type":"constructor"},{"anonymous":false,"inputs":[{"indexed":true,"internalType":"address","name":"ledger","type":"address"}],"name":"LedgerSet","type":"event"},{"anonymous":false,"inputs":[{"indexed":true,"internalType":"address","name":"reg","type":"address"}],"name":"LicenseRegistrySet","type":"event"},{"anonymous":false,"inputs":[{"indexed":true,"internalType":"address","name":"oldOwner","type":"address"},{"indexed":true,"internalType":"address","name":"newOwner","type":"address"}],"name":"OwnerChanged","type":"event"},{"inputs":[{"internalType":"bytes32","name":"accountId","type":"bytes32"},{"internalType":"address","name":"asset","type":"address"},{"internalType":"uint256","name":"amount","type":"uint256"},{"internalType":"bytes32","name":"memo","type":"bytes32"}],"name":"burnFromAccount","outputs":[],"stateMutability":"nonpayable","type":"function"},{"inputs":[{"internalType":"address","name":"bank","type":"address"},{"internalType":"bytes32","name":"nameHash","type":"bytes32"},{"internalType":"bytes32","name":"metaHash","type":"bytes32"}],"name":"issueBankLicense","outputs":[],"stateMutability":"nonpayable","type":"function"},{"inputs":[],"name":"ledger","outputs":[{"internalType":"contract IAltanBankLedger","name":"","type":"address"}],"stateMutability":"view","type":"function"},{"inputs":[],"name":"licenseRegistry","outputs":[{"internalType":"contract IBankLicenseRegistry","name":"","type":"address"}],"stateMutability":"view","type":"function"},{"inputs":[{"internalType":"bytes32","name":"accountId","type":"bytes32"},{"internalType":"address","name":"asset","type":"address"},{"internalType":"uint256","name":"amount","type":"uint256"},{"internalType":"bytes32","name":"memo","type":"bytes32"}],"name":"mintToAccount","outputs":[],"stateMutability":"nonpayable","type":"function"},{"inputs":[],"name":"owner","outputs":[{"internalType":"address","name":"","type":"address"}],"stateMutability":"view","type":"function"},{"inputs":[{"internalType":"address","name":"bank","type":"address"}],"name":"revokeBankLicense","outputs":[],"stateMutability":"nonpayable","type":"function"},{"inputs":[{"internalType":"address","name":"l","type":"address"}],"name":"setLedger","outputs":[],"stateMutability":"nonpayable","type":"function"},{"inputs":[{"internalType":"address","name":"reg","type":"address"}],"name":"setLicenseRegistry","outputs":[],"stateMutability":"nonpayable","type":"function"},{"inputs":[{"internalType":"address","name":"newOwner","type":"address"}],"name":"transferOwnership","outputs":[],"stateMutability":"nonpayable","type":"function"}],"evm":{"bytecode":{"linkReferences":{},"object":"6080806040523461002857600080546001600160a01b0319163317905561064b908161002e8239f35b600080fdfe604060808152600436101561001357600080fd5b600090813560e01c80633246887d1461044357806346a67069146103bd57806356397c351461039557828163725b8a9b14610307575080638da5cb5b146102e0578063c2fda487146102b457828163f2aaa4cd1461023257508063f2fde38b146101bd578063fd89e223146101455763fe963b4d1461009157600080fd5b819034610142576100a1366104d6565b93929160018060a01b036100b9818854163314610504565b60025416906100c98215156105d8565b813b1561013e578451635b0915df60e01b815260048101949094526001600160a01b03166024840152604483019190915260648201939093529183908390818381608481015b03925af190811561013557506101225750f35b61012b906105ae565b6101325780f35b80fd5b513d84823e3d90fd5b8680fd5b50fd5b82346101325760203660031901126101325761015f6104bb565b81546001600160a01b0391906101789083163314610504565b1661018481151561053c565b600180546001600160a01b031916821790557f9e753ba61f3347ccf390ab8eeb39ba7d6133775597c86f1b507cecfae0271d268280a280f35b8234610132576020366003190112610132576101d76104bb565b81546001600160a01b03808216926101f0338514610504565b1680926101fe82151561053c565b7fb532073b38c83145e3e5135377a08bf9aab55bc0fd7c1179cd4fb995d2a5159c8580a36001600160a01b03191617815580f35b80833461014257610242366104d6565b93929160018060a01b0361025a818854163314610504565b600254169061026a8215156105d8565b813b1561013e57845163e72517b160e01b815260048101949094526001600160a01b031660248401526044830191909152606482019390935291839083908183816084810161010f565b50346102dc57816003193601126102dc5760015490516001600160a01b039091168152602090f35b5080fd5b50346102dc57816003193601126102dc57905490516001600160a01b039091168152602090f35b808334610142576060366003190112610142576103226104bb565b82546001600160a01b0392919061033c9084163314610504565b82600154169261034d841515610574565b833b1561039157606485928385519687948593635ba78eb560e11b8552166004840152602435602484015260443560448401525af190811561013557506101225750f35b8480fd5b50346102dc57816003193601126102dc5760025490516001600160a01b039091168152602090f35b50346102dc5760203660031901126102dc576103d76104bb565b908260018060a01b036103ee818354163314610504565b8060015416936103ff851515610574565b843b1561043f57602490838551968794859363090bbb5760e31b85521660048401525af19081156101355750610433575080f35b61043c906105ae565b80f35b8280fd5b82346101325760203660031901126101325761045d6104bb565b81546001600160a01b0391906104769083163314610504565b1661048281151561053c565b600280546001600160a01b031916821790557fbc62e69a31739e36d57d56991ac20e4e507a7edfff9070e6a11df5a37b8b4e6f8280a280f35b600435906001600160a01b03821682036104d157565b600080fd5b60809060031901126104d157600435906024356001600160a01b03811681036104d157906044359060643590565b1561050b57565b60405162461bcd60e51b81526020600482015260096024820152682727aa2fa7aba722a960b91b6044820152606490fd5b1561054357565b60405162461bcd60e51b81526020600482015260096024820152682d22a927afa0a2222960b91b6044820152606490fd5b1561057b57565b60405162461bcd60e51b815260206004820152600b60248201526a149151d7d393d517d4d15560aa1b6044820152606490fd5b67ffffffffffffffff81116105c257604052565b634e487b7160e01b600052604160045260246000fd5b156105df57565b60405162461bcd60e51b815260206004820152600e60248201526d13115111d15497d393d517d4d15560921b6044820152606490fdfea264697066735822122015b4f8eb98ded721f1d53058f6442946ede49b42ff6752631c78dea81abb465b64736f6c63430008180033","opcodes":"PUSH1 0x80 DUP1 PUSH1 0x40 MSTORE CALLVALUE PUSH2 0x28 JUMPI PUSH1 0x0 DUP1 SLOAD PUSH1 0x1 PUSH1 0x1 PUSH1 0xA0 SHL SUB NOT AND CALLER OR SWAP1 SSTORE PUSH2 0x64B SWAP1 DUP2 PUSH2 0x2E DUP3 CODECOPY RETURN JUMPDEST PUSH1 0x0 DUP1 REVERT INVALID PUSH1 0x40 PUSH1 0x80 DUP2 MSTORE PUSH1 0x4 CALLDATASIZE LT ISZERO PUSH2 0x13 JUMPI PUSH1 0x0 DUP1 REVERT JUMPDEST PUSH1 0x0 SWAP1 DUP2 CALLDATALOAD PUSH1 0xE0 SHR DUP1 PUSH4 0x3246887D EQ PUSH2 0x443 JUMPI DUP1 PUSH4 0x46A67069 EQ PUSH2 0x3BD JUMPI DUP1 PUSH4 0x56397C35 EQ PUSH2 0x395 JUMPI DUP3 DUP2 PUSH4 0x725B8A9B EQ PUSH2 0x307 JUMPI POP DUP1 PUSH4 0x8DA5CB5B EQ PUSH2 0x2E0 JUMPI DUP1 PUSH4 0xC2FDA487 EQ PUSH2 0x2B4 JUMPI DUP3 DUP2 PUSH4 0xF2AAA4CD EQ PUSH2 0x232 JUMPI POP DUP1 PUSH4 0xF2FDE38B EQ PUSH2 0x1BD JUMPI DUP1 PUSH4 0xFD89E223 EQ PUSH2 0x145 JUMPI PUSH4 0xFE963B4D EQ PUSH2 0x91 JUMPI PUSH1 0x0 DUP1 REVERT JUMPDEST DUP2 SWAP1 CALLVALUE PUSH2 0x142 JUMPI PUSH2 0xA1 CALLDATASIZE PUSH2 0x4D6 JUMP JUMPDEST SWAP4 SWAP3 SWAP2 PUSH1 0x1 DUP1 PUSH1 0xA0 SHL SUB PUSH2 0xB9 DUP2 DUP9 SLOAD AND CALLER EQ PUSH2 0x504 JUMP JUMPDEST PUSH1 0x2 SLOAD AND SWAP1 PUSH2 0xC9 DUP3 ISZERO ISZERO PUSH2 0x5D8 JUMP JUMPDEST DUP2 EXTCODESIZE ISZERO PUSH2 0x13E JUMPI DUP5 MLOAD PUSH4 0x5B0915DF PUSH1 0xE0 SHL DUP2 MSTORE PUSH1 0x4 DUP2 ADD SWAP5 SWAP1 SWAP5 MSTORE PUSH1 0x1 PUSH1 0x1 PUSH1 0xA0 SHL SUB AND PUSH1 0x24 DUP5 ADD MSTORE PUSH1 0x44 DUP4 ADD SWAP2 SWAP1 SWAP2 MSTORE PUSH1 0x64 DUP3 ADD SWAP4 SWAP1 SWAP4 MSTORE SWAP2 DUP4 SWAP1 DUP4 SWAP1 DUP2 DUP4 DUP2 PUSH1 0x84 DUP2 ADD JUMPDEST SUB SWAP3 GAS CALL SWAP1 DUP2 ISZERO PUSH2 0x135 JUMPI POP PUSH2 0x122 JUMPI POP RETURN JUMPDEST PUSH2 0x12B SWAP1 PUSH2 0x5AE JUMP JUMPDEST PUSH2 0x132 JUMPI DUP1 RETURN JUMPDEST DUP1 REVERT JUMPDEST MLOAD RETURNDATASIZE DUP5 DUP3 RETURNDATACOPY RETURNDATASIZE SWAP1 REVERT JUMPDEST DUP7 DUP1 REVERT JUMPDEST POP REVERT JUMPDEST DUP3 CALLVALUE PUSH2 0x132 JUMPI PUSH1 0x20 CALLDATASIZE PUSH1 0x3 NOT ADD SLT PUSH2 0x132 JUMPI PUSH2 0x15F PUSH2 0x4BB JUMP JUMPDEST DUP2 SLOAD PUSH1 0x1 PUSH1 0x1 PUSH1 0xA0 SHL SUB SWAP2 SWAP1 PUSH2 0x178 SWAP1 DUP4 AND CALLER EQ PUSH2 0x504 JUMP JUMPDEST AND PUSH2 0x184 DUP2 ISZERO ISZERO PUSH2 0x53C JUMP JUMPDEST PUSH1 0x1 DUP1 SLOAD PUSH1 0x1 PUSH1 0x1 PUSH1 0xA0 SHL SUB NOT AND DUP3 OR SWAP1 SSTORE PUSH32 0x9E753BA61F3347CCF390AB8EEB39BA7D6133775597C86F1B507CECFAE0271D26 DUP3 DUP1 LOG2 DUP1 RETURN JUMPDEST DUP3 CALLVALUE PUSH2 0x132 JUMPI PUSH1 0x20 CALLDATASIZE PUSH1 0x3 NOT ADD SLT PUSH2 0x132 JUMPI PUSH2 0x1D7 PUSH2 0x4BB JUMP JUMPDEST DUP2 SLOAD PUSH1 0x1 PUSH1 0x1 PUSH1 0xA0 SHL SUB DUP1 DUP3 AND SWAP3 PUSH2 0x1F0 CALLER DUP6 EQ PUSH2 0x504 JUMP JUMPDEST AND DUP1 SWAP3 PUSH2 0x1FE DUP3 ISZERO ISZERO PUSH2 0x53C JUMP JUMPDEST PUSH32 0xB532073B38C83145E3E5135377A08BF9AAB55BC0FD7C1179CD4FB995D2A5159C DUP6 DUP1 LOG3 PUSH1 0x1 PUSH1 0x1 PUSH1 0xA0 SHL SUB NOT AND OR DUP2 SSTORE DUP1 RETURN JUMPDEST DUP1 DUP4 CALLVALUE PUSH2 0x142 JUMPI PUSH2 0x242 CALLDATASIZE PUSH2 0x4D6 JUMP JUMPDEST SWAP4 SWAP3 SWAP2 PUSH1 0x1 DUP1 PUSH1 0xA0 SHL SUB PUSH2 0x25A DUP2 DUP9 SLOAD AND CALLER EQ PUSH2 0x504 JUMP JUMPDEST PUSH1 0x2 SLOAD AND SWAP1 PUSH2 0x26A DUP3 ISZERO ISZERO PUSH2 0x5D8 JUMP JUMPDEST DUP2 EXTCODESIZE ISZERO PUSH2 0x13E JUMPI DUP5 MLOAD PUSH4 0xE72517B1 PUSH1 0xE0 SHL DUP2 MSTORE PUSH1 0x4 DUP2 ADD SWAP5 SWAP1 SWAP5 MSTORE PUSH1 0x1 PUSH1 0x1 PUSH1 0xA0 SHL SUB AND PUSH1 0x24 DUP5 ADD MSTORE PUSH1 0x44 DUP4 ADD SWAP2 SWAP1 SWAP2 MSTORE PUSH1 0x64 DUP3 ADD SWAP4 SWAP1 SWAP4 MSTORE SWAP2 DUP4 SWAP1 DUP4 SWAP1 DUP2 DUP4 DUP2 PUSH1 0x84 DUP2 ADD PUSH2 0x10F JUMP JUMPDEST POP CALLVALUE PUSH2 0x2DC JUMPI DUP2 PUSH1 0x3 NOT CALLDATASIZE ADD SLT PUSH2 0x2DC JUMPI PUSH1 0x1 SLOAD SWAP1 MLOAD PUSH1 0x1 PUSH1 0x1 PUSH1 0xA0 SHL SUB SWAP1 SWAP2 AND DUP2 MSTORE PUSH1 0x20 SWAP1 RETURN JUMPDEST POP DUP1 REVERT JUMPDEST POP CALLVALUE PUSH2 0x2DC JUMPI DUP2 PUSH1 0x3 NOT CALLDATASIZE ADD SLT PUSH2 0x2DC JUMPI SWAP1 SLOAD SWAP1 MLOAD PUSH1 0x1 PUSH1 0x1 PUSH1 0xA0 SHL SUB SWAP1 SWAP2 AND DUP2 MSTORE PUSH1 0x20 SWAP1 RETURN JUMPDEST DUP1 DUP4 CALLVALUE PUSH2 0x142 JUMPI PUSH1 0x60 CALLDATASIZE PUSH1 0x3 NOT ADD SLT PUSH2 0x142 JUMPI PUSH2 0x322 PUSH2 0x4BB JUMP JUMPDEST DUP3 SLOAD PUSH1 0x1 PUSH1 0x1 PUSH1 0xA0 SHL SUB SWAP3 SWAP2 SWAP1 PUSH2 0x33C SWAP1 DUP5 AND CALLER EQ PUSH2 0x504 JUMP JUMPDEST DUP3 PUSH1 0x1 SLOAD AND SWAP3 PUSH2 0x34D DUP5 ISZERO ISZERO PUSH2 0x574 JUMP JUMPDEST DUP4 EXTCODESIZE ISZERO PUSH2 0x391 JUMPI PUSH1 0x64 DUP6 SWAP3 DUP4 DUP6 MLOAD SWAP7 DUP8 SWAP5 DUP6 SWAP4 PUSH4 0x5BA78EB5 PUSH1 0xE1 SHL DUP6 MSTORE AND PUSH1 0x4 DUP5 ADD MSTORE PUSH1 0x24 CALLDATALOAD PUSH1 0x24 DUP5 ADD MSTORE PUSH1 0x44 CALLDATALOAD PUSH1 0x44 DUP5 ADD MSTORE GAS CALL SWAP1 DUP2 ISZERO PUSH2 0x135 JUMPI POP PUSH2 0x122 JUMPI POP RETURN JUMPDEST DUP5 DUP1 REVERT JUMPDEST POP CALLVALUE PUSH2 0x2DC JUMPI DUP2 PUSH1 0x3 NOT CALLDATASIZE ADD SLT PUSH2 0x2DC JUMPI PUSH1 0x2 SLOAD SWAP1 MLOAD PUSH1 0x1 PUSH1 0x1 PUSH1 0xA0 SHL SUB SWAP1 SWAP2 AND DUP2 MSTORE PUSH1 0x20 SWAP1 RETURN JUMPDEST POP CALLVALUE PUSH2 0x2DC JUMPI PUSH1 0x20 CALLDATASIZE PUSH1 0x3 NOT ADD SLT PUSH2 0x2DC JUMPI PUSH2 0x3D7 PUSH2 0x4BB JUMP JUMPDEST SWAP1 DUP3 PUSH1 0x1 DUP1 PUSH1 0xA0 SHL SUB PUSH2 0x3EE DUP2 DUP4 SLOAD AND CALLER EQ PUSH2 0x504 JUMP JUMPDEST DUP1 PUSH1 0x1 SLOAD AND SWAP4 PUSH2 0x3FF DUP6 ISZERO ISZERO PUSH2 0x574 JUMP JUMPDEST DUP5 EXTCODESIZE ISZERO PUSH2 0x43F JUMPI PUSH1 0x24 SWAP1 DUP4 DUP6 MLOAD SWAP7 DUP8 SWAP5 DUP6 SWAP4 PUSH4 0x90BBB57 PUSH1 0xE3 SHL DUP6 MSTORE AND PUSH1 0x4 DUP5 ADD MSTORE GAS CALL SWAP1 DUP2 ISZERO PUSH2 0x135 JUMPI POP PUSH2 0x433 JUMPI POP DUP1 RETURN JUMPDEST PUSH2 0x43C SWAP1 PUSH2 0x5AE JUMP JUMPDEST DUP1 RETURN JUMPDEST DUP3 DUP1 REVERT JUMPDEST DUP3 CALLVALUE PUSH2 0x132 JUMPI PUSH1 0x20 CALLDATASIZE PUSH1 0x3 NOT ADD SLT PUSH2 0x132 JUMPI PUSH2 0x45D PUSH2 0x4BB JUMP JUMPDEST DUP2 SLOAD PUSH1 0x1 PUSH1 0x1 PUSH1 0xA0 SHL SUB SWAP2 SWAP1 PUSH2 0x476 SWAP1 DUP4 AND CALLER EQ PUSH2 0x504 JUMP JUMPDEST AND PUSH2 0x482 DUP2 ISZERO ISZERO PUSH2 0x53C JUMP JUMPDEST PUSH1 0x2 DUP1 SLOAD PUSH1 0x1 PUSH1 0x1 PUSH1 0xA0 SHL SUB NOT AND DUP3 OR SWAP1 SSTORE PUSH32 0xBC62E69A31739E36D57D56991AC20E4E507A7EDFFF9070E6A11DF5A37B8B4E6F DUP3 DUP1 LOG2 DUP1 RETURN JUMPDEST PUSH1 0x4 CALLDATALOAD SWAP1 PUSH1 0x1 PUSH1 0x1 PUSH1 0xA0 SHL SUB DUP3 AND DUP3 SUB PUSH2 0x4D1 JUMPI JUMP JUMPDEST PUSH1 0x0 DUP1 REVERT JUMPDEST PUSH1 0x80 SWAP1 PUSH1 0x3 NOT ADD SLT PUSH2 0x4D1 JUMPI PUSH1 0x4 CALLDATALOAD SWAP1 PUSH1 0x24 CALLDATALOAD PUSH1 0x1 PUSH1 0x1 PUSH1 0xA0 SHL SUB DUP2 AND DUP2 SUB PUSH2 0x4D1 JUMPI SWAP1 PUSH1 0x44 CALLDATALOAD SWAP1 PUSH1 0x64 CALLDATALOAD SWAP1 JUMP JUMPDEST ISZERO PUSH2 0x50B JUMPI JUMP JUMPDEST PUSH1 0x40 MLOAD PUSH3 0x461BCD PUSH1 0xE5 SHL DUP2 MSTORE PUSH1 0x20 PUSH1 0x4 DUP3 ADD MSTORE PUSH1 0x9 PUSH1 0x24 DUP3 ADD MSTORE PUSH9 0x2727AA2FA7ABA722A9 PUSH1 0xB9 SHL PUSH1 0x44 DUP3 ADD MSTORE PUSH1 0x64 SWAP1 REVERT JUMPDEST ISZERO PUSH2 0x543 JUMPI JUMP JUMPDEST PUSH1 0x40 MLOAD PUSH3 0x461BCD PUSH1 0xE5 SHL DUP2 MSTORE PUSH1 0x20 PUSH1 0x4 DUP3 ADD MSTORE PUSH1 0x9 PUSH1 0x24 DUP3 ADD MSTORE PUSH9 0x2D22A927AFA0A22229 PUSH1 0xB9 SHL PUSH1 0x44 DUP3 ADD MSTORE PUSH1 0x64 SWAP1 REVERT JUMPDEST ISZERO PUSH2 0x57B JUMPI JUMP JUMPDEST PUSH1 0x40 MLOAD PUSH3 0x461BCD PUSH1 0xE5 SHL DUP2 MSTORE PUSH1 0x20 PUSH1 0x4 DUP3 ADD MSTORE PUSH1 0xB PUSH1 0x24 DUP3 ADD MSTORE PUSH11 0x149151D7D393D517D4D155 PUSH1 0xAA SHL PUSH1 0x44 DUP3 ADD MSTORE PUSH1 0x64 SWAP1 REVERT JUMPDEST PUSH8 0xFFFFFFFFFFFFFFFF DUP2 GT PUSH2 0x5C2 JUMPI PUSH1 0x40 MSTORE JUMP JUMPDEST PUSH4 0x4E487B71 PUSH1 0xE0 SHL PUSH1 0x0 MSTORE PUSH1 0x41 PUSH1 0x4 MSTORE PUSH1 0x24 PUSH1 0x0 REVERT JUMPDEST ISZERO PUSH2 0x5DF JUMPI JUMP JUMPDEST PUSH1 0x40 MLOAD PUSH3 0x461BCD PUSH1 0xE5 SHL DUP2 MSTORE PUSH1 0x20 PUSH1 0x4 DUP3 ADD MSTORE PUSH1 0xE PUSH1 0x24 DUP3 ADD MSTORE PUSH14 0x13115111D15497D393D517D4D155 PUSH1 0x92 SHL PUSH1 0x44 DUP3 ADD MSTORE PUSH1 0x64 SWAP1 REVERT INVALID LOG2 PUSH5 0x6970667358 0x22 SLT KECCAK256 ISZERO 0xB4 0xF8 0xEB SWAP9 0xDE 0xD7 0x21 CALL 0xD5 ADDRESS PC 0xF6 PREVRANDAO 0x29 CHAINID 0xED 0xE4 SWAP12 TIMESTAMP SELFDESTRUCT PUSH8 0x52631C78DEA81ABB CHAINID JUMPDEST PUSH5 0x736F6C6343 STOP ADDMOD XOR STOP CALLER "},"methodIdentifiers":{"burnFromAccount(bytes32,address,uint256,bytes32)":"f2aaa4cd","issueBankLicense(address,bytes32,bytes32)":"725b8a9b","ledger()":"56397c35","licenseRegistry()":"c2fda487","mintToAccount(bytes32,address,uint256,bytes32)":"fe963b4d","owner()":"8da5cb5b","revokeBankLicense(address)":"46a67069","setLedger(address)":"3246887d","setLicenseRegistry(address)":"fd89e223","transferOwnership(address)":"f2fde38b"}}}}}