{"contracts/BankLicenseRegistry.sol":{"BankLicenseRegistry":{"abi":[{"inputs":[{"internalType":"address","name":"cb","type":"address"}],"stateMutability":"nonpayable","type":"constructor"},{"anonymous":false,"inputs":[{"indexed":true,"internalType":"address","name":"cb","type":"address"}],"name":"CentralBankSet","type":"event"},{"anonymous":false,"inputs":[{"indexed":true,"internalType":"address","name":"bank","type":"address"},{"indexed":false,"internalType":"bytes32","name":"nameHash","type":"bytes32"},{"indexed":false,"internalType":"bytes32","name":"metaHash","type":"bytes32"}],"name":"LicenseIssued","type":"event"},{"anonymous":false,"inputs":[{"indexed":true,"internalType":"address","name":"bank","type":"address"}],"name":"LicenseRevoked","type":"event"},{"inputs":[],"name":"centralBank","outputs":[{"internalType":"address","name":"","type":"address"}],"stateMutability":"view","type":"function"},{"inputs":[{"internalType":"address","name":"bank","type":"address"}],"name":"isLicensed","outputs":[{"internalType":"bool","name":"","type":"bool"}],"stateMutability":"view","type":"function"},{"inputs":[{"internalType":"address","name":"bank","type":"address"},{"internalType":"bytes32","name":"nameHash","type":"bytes32"},{"internalType":"bytes32","name":"metaHash","type":"bytes32"}],"name":"issueLicense","outputs":[],"stateMutability":"nonpayable","type":"function"},{"inputs":[{"internalType":"address","name":"","type":"address"}],"name":"licenseOf","outputs":[{"internalType":"bool","name":"active","type":"bool"},{"internalType":"bytes32","name":"nameHash","type":"bytes32"},{"internalType":"bytes32","name":"metaHash","type":"bytes32"},{"internalType":"uint64","name":"issuedAt","type":"uint64"}],"stateMutability":"view","type":"function"},{"inputs":[{"internalType":"address","name":"bank","type":"address"}],"name":"revokeLicense","outputs":[],"stateMutability":"nonpayable","type":"function"},{"inputs":[{"internalType":"address","name":"cb","type":"address"}],"name":"setCentralBank","outputs":[],"stateMutability":"nonpayable","type":"function"}],"evm":{"bytecode":{"linkReferences":{},"object":"6080346100cf57601f6104df38819003918201601f19168301916001600160401b038311848410176100d4578084926020946040528339810103126100cf57516001600160a01b038116908190036100cf57801561009e57600080546001600160a01b0319168217815560405191907fbcf54ac55c42b0bfb8e38409501a5c8ea0e9927b7038dd044fb1956e14f3a26c9080a26103f490816100eb8239f35b60405162461bcd60e51b81526020600482015260096024820152682d22a927afa0a2222960b91b6044820152606490fd5b600080fd5b634e487b7160e01b600052604160045260246000fdfe6080604090808252600436101561001557600080fd5b600090813560e01c908163469c4e98146102c357508063485ddab8146102495780639a4a0fb214610221578063a542c2a4146101df578063b5ce02ae1461016a5763b74f1d6a1461006557600080fd5b346101675760603660031901126101675761007e61032c565b91602435906044359360018060a01b039061009d828654163314610347565b16916100aa831515610386565b67ffffffffffffffff948251608081019681881081891117610153577ff94c5c76f4f87b93fa8f33b256ab588df28d71deb8f8f5cf151e76b23c5a239395969785526001825260036020830192858452868101858152606082019484421686528a8c526001602052888c209251151560ff801985541691161783555160018301555160028201550191511667ffffffffffffffff1982541617905582519182526020820152a280f35b634e487b7160e01b87526041600452602487fd5b80fd5b50346101675760203660031901126101675761018461032c565b8154906001600160a01b039061019d3383851614610347565b1680916101ab821515610386565b6001600160a01b0319161782557fbcf54ac55c42b0bfb8e38409501a5c8ea0e9927b7038dd044fb1956e14f3a26c8280a280f35b50903461021d57602036600319011261021d5760209160ff9082906001600160a01b0361020a61032c565b1681526001855220541690519015158152f35b5080fd5b50903461021d578160031936011261021d57905490516001600160a01b039091168152602090f35b50903461021d57602036600319011261021d5761026461032c565b82546001600160a01b03919061027d9083163314610347565b169061028a821515610386565b81835260016020528220805460ff191690557f5d663bb027a27c27341f8b0d6d24d81d85d4572e74d95dfab66e94fc497aaadd8280a280f35b905082346103285760203660031901126103285760809281906001600160a01b036102ec61032c565b16815260016020522060ff81541691600182015467ffffffffffffffff6003600285015494015416931515855260208501528301526060820152f35b8280fd5b600435906001600160a01b038216820361034257565b600080fd5b1561034e57565b60405162461bcd60e51b815260206004820152601060248201526f4e4f545f43454e5452414c5f42414e4b60801b6044820152606490fd5b1561038d57565b60405162461bcd60e51b81526020600482015260096024820152682d22a927afa0a2222960b91b6044820152606490fdfea264697066735822122083a715131227ffe2cda488a39acd621c011fb11d01636b64b881a7f33051fc8564736f6c63430008180033","opcodes":"PUSH1 0x80 CALLVALUE PUSH2 0xCF JUMPI PUSH1 0x1F PUSH2 0x4DF CODESIZE DUP2 SWAP1 SUB SWAP2 DUP3 ADD PUSH1 0x1F NOT AND DUP4 ADD SWAP2 PUSH1 0x1 PUSH1 0x1 PUSH1 0x40 SHL SUB DUP4 GT DUP5 DUP5 LT OR PUSH2 0xD4 JUMPI DUP1 DUP5 SWAP3 PUSH1 0x20 SWAP5 PUSH1 0x40 MSTORE DUP4 CODECOPY DUP2 ADD SUB SLT PUSH2 0xCF JUMPI MLOAD PUSH1 0x1 PUSH1 0x1 PUSH1 0xA0 SHL SUB DUP2 AND SWAP1 DUP2 SWAP1 SUB PUSH2 0xCF JUMPI DUP1 ISZERO PUSH2 0x9E JUMPI PUSH1 0x0 DUP1 SLOAD PUSH1 0x1 PUSH1 0x1 PUSH1 0xA0 SHL SUB NOT AND DUP3 OR DUP2 SSTORE PUSH1 0x40 MLOAD SWAP2 SWAP1 PUSH32 0xBCF54AC55C42B0BFB8E38409501A5C8EA0E9927B7038DD044FB1956E14F3A26C SWAP1 DUP1 LOG2 PUSH2 0x3F4 SWAP1 DUP2 PUSH2 0xEB DUP3 CODECOPY RETURN JUMPDEST PUSH1 0x40 MLOAD PUSH3 0x461BCD PUSH1 0xE5 SHL DUP2 MSTORE PUSH1 0x20 PUSH1 0x4 DUP3 ADD MSTORE PUSH1 0x9 PUSH1 0x24 DUP3 ADD MSTORE PUSH9 0x2D22A927AFA0A22229 PUSH1 0xB9 SHL PUSH1 0x44 DUP3 ADD MSTORE PUSH1 0x64 SWAP1 REVERT JUMPDEST PUSH1 0x0 DUP1 REVERT JUMPDEST PUSH4 0x4E487B71 PUSH1 0xE0 SHL PUSH1 0x0 MSTORE PUSH1 0x41 PUSH1 0x4 MSTORE PUSH1 0x24 PUSH1 0x0 REVERT INVALID PUSH1 0x80 PUSH1 0x40 SWAP1 DUP1 DUP3 MSTORE PUSH1 0x4 CALLDATASIZE LT ISZERO PUSH2 0x15 JUMPI PUSH1 0x0 DUP1 REVERT JUMPDEST PUSH1 0x0 SWAP1 DUP2 CALLDATALOAD PUSH1 0xE0 SHR SWAP1 DUP2 PUSH4 0x469C4E98 EQ PUSH2 0x2C3 JUMPI POP DUP1 PUSH4 0x485DDAB8 EQ PUSH2 0x249 JUMPI DUP1 PUSH4 0x9A4A0FB2 EQ PUSH2 0x221 JUMPI DUP1 PUSH4 0xA542C2A4 EQ PUSH2 0x1DF JUMPI DUP1 PUSH4 0xB5CE02AE EQ PUSH2 0x16A JUMPI PUSH4 0xB74F1D6A EQ PUSH2 0x65 JUMPI PUSH1 0x0 DUP1 REVERT JUMPDEST CALLVALUE PUSH2 0x167 JUMPI PUSH1 0x60 CALLDATASIZE PUSH1 0x3 NOT ADD SLT PUSH2 0x167 JUMPI PUSH2 0x7E PUSH2 0x32C JUMP JUMPDEST SWAP2 PUSH1 0x24 CALLDATALOAD SWAP1 PUSH1 0x44 CALLDATALOAD SWAP4 PUSH1 0x1 DUP1 PUSH1 0xA0 SHL SUB SWAP1 PUSH2 0x9D DUP3 DUP7 SLOAD AND CALLER EQ PUSH2 0x347 JUMP JUMPDEST AND SWAP2 PUSH2 0xAA DUP4 ISZERO ISZERO PUSH2 0x386 JUMP JUMPDEST PUSH8 0xFFFFFFFFFFFFFFFF SWAP5 DUP3 MLOAD PUSH1 0x80 DUP2 ADD SWAP7 DUP2 DUP9 LT DUP2 DUP10 GT OR PUSH2 0x153 JUMPI PUSH32 0xF94C5C76F4F87B93FA8F33B256AB588DF28D71DEB8F8F5CF151E76B23C5A2393 SWAP6 SWAP7 SWAP8 DUP6 MSTORE PUSH1 0x1 DUP3 MSTORE PUSH1 0x3 PUSH1 0x20 DUP4 ADD SWAP3 DUP6 DUP5 MSTORE DUP7 DUP2 ADD DUP6 DUP2 MSTORE PUSH1 0x60 DUP3 ADD SWAP5 DUP5 TIMESTAMP AND DUP7 MSTORE DUP11 DUP13 MSTORE PUSH1 0x1 PUSH1 0x20 MSTORE DUP9 DUP13 KECCAK256 SWAP3 MLOAD ISZERO ISZERO PUSH1 0xFF DUP1 NOT DUP6 SLOAD AND SWAP2 AND OR DUP4 SSTORE MLOAD PUSH1 0x1 DUP4 ADD SSTORE MLOAD PUSH1 0x2 DUP3 ADD SSTORE ADD SWAP2 MLOAD AND PUSH8 0xFFFFFFFFFFFFFFFF NOT DUP3 SLOAD AND OR SWAP1 SSTORE DUP3 MLOAD SWAP2 DUP3 MSTORE PUSH1 0x20 DUP3 ADD MSTORE LOG2 DUP1 RETURN JUMPDEST PUSH4 0x4E487B71 PUSH1 0xE0 SHL DUP8 MSTORE PUSH1 0x41 PUSH1 0x4 MSTORE PUSH1 0x24 DUP8 REVERT JUMPDEST DUP1 REVERT JUMPDEST POP CALLVALUE PUSH2 0x167 JUMPI PUSH1 0x20 CALLDATASIZE PUSH1 0x3 NOT ADD SLT PUSH2 0x167 JUMPI PUSH2 0x184 PUSH2 0x32C JUMP JUMPDEST DUP2 SLOAD SWAP1 PUSH1 0x1 PUSH1 0x1 PUSH1 0xA0 SHL SUB SWAP1 PUSH2 0x19D CALLER DUP4 DUP6 AND EQ PUSH2 0x347 JUMP JUMPDEST AND DUP1 SWAP2 PUSH2 0x1AB DUP3 ISZERO ISZERO PUSH2 0x386 JUMP JUMPDEST PUSH1 0x1 PUSH1 0x1 PUSH1 0xA0 SHL SUB NOT AND OR DUP3 SSTORE PUSH32 0xBCF54AC55C42B0BFB8E38409501A5C8EA0E9927B7038DD044FB1956E14F3A26C DUP3 DUP1 LOG2 DUP1 RETURN JUMPDEST POP SWAP1 CALLVALUE PUSH2 0x21D JUMPI PUSH1 0x20 CALLDATASIZE PUSH1 0x3 NOT ADD SLT PUSH2 0x21D JUMPI PUSH1 0x20 SWAP2 PUSH1 0xFF SWAP1 DUP3 SWAP1 PUSH1 0x1 PUSH1 0x1 PUSH1 0xA0 SHL SUB PUSH2 0x20A PUSH2 0x32C JUMP JUMPDEST AND DUP2 MSTORE PUSH1 0x1 DUP6 MSTORE KECCAK256 SLOAD AND SWAP1 MLOAD SWAP1 ISZERO ISZERO DUP2 MSTORE RETURN JUMPDEST POP DUP1 REVERT JUMPDEST POP SWAP1 CALLVALUE PUSH2 0x21D JUMPI DUP2 PUSH1 0x3 NOT CALLDATASIZE ADD SLT PUSH2 0x21D JUMPI SWAP1 SLOAD SWAP1 MLOAD PUSH1 0x1 PUSH1 0x1 PUSH1 0xA0 SHL SUB SWAP1 SWAP2 AND DUP2 MSTORE PUSH1 0x20 SWAP1 RETURN JUMPDEST POP SWAP1 CALLVALUE PUSH2 0x21D JUMPI PUSH1 0x20 CALLDATASIZE PUSH1 0x3 NOT ADD SLT PUSH2 0x21D JUMPI PUSH2 0x264 PUSH2 0x32C JUMP JUMPDEST DUP3 SLOAD PUSH1 0x1 PUSH1 0x1 PUSH1 0xA0 SHL SUB SWAP2 SWAP1 PUSH2 0x27D SWAP1 DUP4 AND CALLER EQ PUSH2 0x347 JUMP JUMPDEST AND SWAP1 PUSH2 0x28A DUP3 ISZERO ISZERO PUSH2 0x386 JUMP JUMPDEST DUP2 DUP4 MSTORE PUSH1 0x1 PUSH1 0x20 MSTORE DUP3 KECCAK256 DUP1 SLOAD PUSH1 0xFF NOT AND SWAP1 SSTORE PUSH32 0x5D663BB027A27C27341F8B0D6D24D81D85D4572E74D95DFAB66E94FC497AAADD DUP3 DUP1 LOG2 DUP1 RETURN JUMPDEST SWAP1 POP DUP3 CALLVALUE PUSH2 0x328 JUMPI PUSH1 0x20 CALLDATASIZE PUSH1 0x3 NOT ADD SLT PUSH2 0x328 JUMPI PUSH1 0x80 SWAP3 DUP2 SWAP1 PUSH1 0x1 PUSH1 0x1 PUSH1 0xA0 SHL SUB PUSH2 0x2EC PUSH2 0x32C JUMP JUMPDEST AND DUP2 MSTORE PUSH1 0x1 PUSH1 0x20 MSTORE KECCAK256 PUSH1 0xFF DUP2 SLOAD AND SWAP2 PUSH1 0x1 DUP3 ADD SLOAD PUSH8 0xFFFFFFFFFFFFFFFF PUSH1 0x3 PUSH1 0x2 DUP6 ADD SLOAD SWAP5 ADD SLOAD AND SWAP4 ISZERO ISZERO DUP6 MSTORE PUSH1 0x20 DUP6 ADD MSTORE DUP4 ADD MSTORE PUSH1 0x60 DUP3 ADD MSTORE RETURN JUMPDEST DUP3 DUP1 REVERT JUMPDEST PUSH1 0x4 CALLDATALOAD SWAP1 PUSH1 0x1 PUSH1 0x1 PUSH1 0xA0 SHL SUB DUP3 AND DUP3 SUB PUSH2 0x342 JUMPI JUMP JUMPDEST PUSH1 0x0 DUP1 REVERT JUMPDEST ISZERO PUSH2 0x34E JUMPI JUMP JUMPDEST PUSH1 0x40 MLOAD PUSH3 0x461BCD PUSH1 0xE5 SHL DUP2 MSTORE PUSH1 0x20 PUSH1 0x4 DUP3 ADD MSTORE PUSH1 0x10 PUSH1 0x24 DUP3 ADD MSTORE PUSH16 0x4E4F545F43454E5452414C5F42414E4B PUSH1 0x80 SHL PUSH1 0x44 DUP3 ADD MSTORE PUSH1 0x64 SWAP1 REVERT JUMPDEST ISZERO PUSH2 0x38D JUMPI JUMP JUMPDEST PUSH1 0x40 MLOAD PUSH3 0x461BCD PUSH1 0xE5 SHL DUP2 MSTORE PUSH1 0x20 PUSH1 0x4 DUP3 ADD MSTORE PUSH1 0x9 PUSH1 0x24 DUP3 ADD MSTORE PUSH9 0x2D22A927AFA0A22229 PUSH1 0xB9 SHL PUSH1 0x44 DUP3 ADD MSTORE PUSH1 0x64 SWAP1 REVERT INVALID LOG2 PUSH5 0x6970667358 0x22 SLT KECCAK256 DUP4 0xA7 ISZERO SGT SLT 0x27 SELFDESTRUCT 0xE2 0xCD LOG4 DUP9 LOG3 SWAP11 0xCD PUSH3 0x1C011F 0xB1 SAR ADD PUSH4 0x6B64B881 0xA7 RETURN ADDRESS MLOAD 0xFC DUP6 PUSH5 0x736F6C6343 STOP ADDMOD XOR STOP CALLER "},"methodIdentifiers":{"centralBank()":"9a4a0fb2","isLicensed(address)":"a542c2a4","issueLicense(address,bytes32,bytes32)":"b74f1d6a","licenseOf(address)":"469c4e98","revokeLicense(address)":"485ddab8","setCentralBank(address)":"b5ce02ae"}}}}}