{"contracts/AltanBankLedger.sol":{"AltanBankLedger":{"abi":[{"inputs":[{"internalType":"address","name":"cb","type":"address"},{"internalType":"address","name":"reg","type":"address"}],"stateMutability":"nonpayable","type":"constructor"},{"anonymous":false,"inputs":[{"indexed":true,"internalType":"bytes32","name":"accountId","type":"bytes32"},{"indexed":true,"internalType":"address","name":"asset","type":"address"},{"indexed":false,"internalType":"uint256","name":"amount","type":"uint256"},{"indexed":false,"internalType":"bytes32","name":"memo","type":"bytes32"}],"name":"AccountCredited","type":"event"},{"anonymous":false,"inputs":[{"indexed":true,"internalType":"bytes32","name":"accountId","type":"bytes32"},{"indexed":true,"internalType":"address","name":"asset","type":"address"},{"indexed":false,"internalType":"uint256","name":"amount","type":"uint256"},{"indexed":false,"internalType":"bytes32","name":"memo","type":"bytes32"}],"name":"AccountDebited","type":"event"},{"anonymous":false,"inputs":[{"indexed":true,"internalType":"address","name":"cb","type":"address"}],"name":"CentralBankSet","type":"event"},{"anonymous":false,"inputs":[{"indexed":true,"internalType":"address","name":"reg","type":"address"}],"name":"LicenseRegistrySet","type":"event"},{"anonymous":false,"inputs":[{"indexed":true,"internalType":"bytes32","name":"fromId","type":"bytes32"},{"indexed":true,"internalType":"bytes32","name":"toId","type":"bytes32"},{"indexed":true,"internalType":"address","name":"asset","type":"address"},{"indexed":false,"internalType":"uint256","name":"amount","type":"uint256"},{"indexed":false,"internalType":"bytes32","name":"memo","type":"bytes32"}],"name":"Transfer","type":"event"},{"inputs":[{"internalType":"bytes32","name":"","type":"bytes32"},{"internalType":"address","name":"","type":"address"}],"name":"balanceOf","outputs":[{"internalType":"uint256","name":"","type":"uint256"}],"stateMutability":"view","type":"function"},{"inputs":[{"internalType":"bytes32","name":"accountId","type":"bytes32"},{"internalType":"address","name":"asset","type":"address"},{"internalType":"uint256","name":"amount","type":"uint256"},{"internalType":"bytes32","name":"memo","type":"bytes32"}],"name":"burn","outputs":[],"stateMutability":"nonpayable","type":"function"},{"inputs":[],"name":"centralBank","outputs":[{"internalType":"address","name":"","type":"address"}],"stateMutability":"view","type":"function"},{"inputs":[],"name":"licenseRegistry","outputs":[{"internalType":"contract IBankLicenseRegistryView","name":"","type":"address"}],"stateMutability":"view","type":"function"},{"inputs":[{"internalType":"bytes32","name":"accountId","type":"bytes32"},{"internalType":"address","name":"asset","type":"address"},{"internalType":"uint256","name":"amount","type":"uint256"},{"internalType":"bytes32","name":"memo","type":"bytes32"}],"name":"mint","outputs":[],"stateMutability":"nonpayable","type":"function"},{"inputs":[{"internalType":"address","name":"cb","type":"address"}],"name":"setCentralBank","outputs":[],"stateMutability":"nonpayable","type":"function"},{"inputs":[{"internalType":"address","name":"reg","type":"address"}],"name":"setLicenseRegistry","outputs":[],"stateMutability":"nonpayable","type":"function"},{"inputs":[{"internalType":"bytes32","name":"fromId","type":"bytes32"},{"internalType":"bytes32","name":"toId","type":"bytes32"},{"internalType":"address","name":"asset","type":"address"},{"internalType":"uint256","name":"amount","type":"uint256"},{"internalType":"bytes32","name":"memo","type":"bytes32"}],"name":"transferBetweenAccounts","outputs":[],"stateMutability":"nonpayable","type":"function"}],"evm":{"bytecode":{"linkReferences":{},"object":"60803461010b57601f61078a38819003918201601f19168301916001600160401b0383118484101761011057808492604094855283398101031261010b57610052602061004b83610126565b9201610126565b6001600160a01b03918216919082156100dc577f9e753ba61f3347ccf390ab8eeb39ba7d6133775597c86f1b507cecfae0271d269060018060a01b03199260009185858454161783551680936001541617600155604051937fbcf54ac55c42b0bfb8e38409501a5c8ea0e9927b7038dd044fb1956e14f3a26c8280a280a261064f908161013b8239f35b60405162461bcd60e51b81526020600482015260076024820152662d22a927afa1a160c91b6044820152606490fd5b600080fd5b634e487b7160e01b600052604160045260246000fd5b51906001600160a01b038216820361010b5756fe60806040908082526004918236101561001757600080fd5b600092833560e01c9283632240a9ad1461032b575082635b0915df146102aa5782639a4a0fb214610282578263b5ce02ae1461020d578263c2038236146101be57508163c2fda48714610195578163e72517b1146100f9575063fd89e2231461007f57600080fd5b346100f65760203660031901126100f6576100986104fb565b81546001600160a01b0391906100b190831633146105a2565b166100bd8115156105e1565b600180546001600160a01b031916821790557f9e753ba61f3347ccf390ab8eeb39ba7d6133775597c86f1b507cecfae0271d268280a280f35b80fd5b905034610191577f1d40bf9a212b6c52c84a1ad474e5d654341d65b7fb103ba70a6ef468d05135de9061012b36610516565b865492959394926001600160a01b039061014890821633146105a2565b8588526002602052838820961695868852602052818388205461016d82821015610544565b8689526002602052848920888a52602052038388205582519182526020820152a380f35b5080fd5b90503461019157816003193601126101915760015490516001600160a01b039091168152602090f35b909150346102095781600319360112610209576024356001600160a01b03811691908290036102055792829160209435825260028552828220908252845220549051908152f35b8380fd5b8280fd5b83346100f65760203660031901126100f6576102276104fb565b8154906001600160a01b039061024033838516146105a2565b16809161024e8215156105e1565b6001600160a01b0319161782557fbcf54ac55c42b0bfb8e38409501a5c8ea0e9927b7038dd044fb1956e14f3a26c8280a280f35b838234610191578160031936011261019157905490516001600160a01b039091168152602090f35b838234610191577f4ac19c176659cd50bee0a6326f0f07f170e3fc9202eb4cec9e5555b71daede98906102dc36610516565b865492959394926001600160a01b03906102f990821633146105a2565b858852600260205283882096169586885260205282872061031b83825461057f565b905582519182526020820152a380f35b925090346102055760a0366003190112610205576044356001600160a01b038181169460243594803594938790036104f75760643592600154169182156104c9575083518092632950b0a960e21b8252338383015281602460209586935afa9081156104bf57899161045b575b50156104265750907f124eeb9b70369942e069fe5b84397bc1fb0671a4c51db655d6deb6739a14b004929184885260028152828820878952815281838920546103e382821015610544565b868a5260028352848a20898b528352038389205585885260028152828820878952815282882061041483825461057f565b9055825191825260843590820152a480f35b60649184519162461bcd60e51b835282015260116024820152704e4f545f4c4943454e5345445f42414e4b60781b6044820152fd5b9050823d84116104b8575b601f8101601f1916820167ffffffffffffffff8111838210176104a557849183918852810103126104a1575180151581036104a15738610398565b8880fd5b634e487b7160e01b8b526041845260248bfd5b503d610466565b85513d8b823e3d90fd5b602060649262461bcd60e51b8352820152600b60248201526a149151d7d393d517d4d15560aa1b6044820152fd5b8780fd5b600435906001600160a01b038216820361051157565b600080fd5b608090600319011261051157600435906024356001600160a01b038116810361051157906044359060643590565b1561054b57565b60405162461bcd60e51b815260206004820152600c60248201526b125394d551919250d251539560a21b6044820152606490fd5b9190820180921161058c57565b634e487b7160e01b600052601160045260246000fd5b156105a957565b60405162461bcd60e51b815260206004820152601060248201526f4e4f545f43454e5452414c5f42414e4b60801b6044820152606490fd5b156105e857565b60405162461bcd60e51b81526020600482015260096024820152682d22a927afa0a2222960b91b6044820152606490fdfea26469706673582212205a21839884ab606c2c008801039db0b7e799eb9243c7590f92723f8a29924e2964736f6c63430008180033","opcodes":"PUSH1 0x80 CALLVALUE PUSH2 0x10B JUMPI PUSH1 0x1F PUSH2 0x78A CODESIZE DUP2 SWAP1 SUB SWAP2 DUP3 ADD PUSH1 0x1F NOT AND DUP4 ADD SWAP2 PUSH1 0x1 PUSH1 0x1 PUSH1 0x40 SHL SUB DUP4 GT DUP5 DUP5 LT OR PUSH2 0x110 JUMPI DUP1 DUP5 SWAP3 PUSH1 0x40 SWAP5 DUP6 MSTORE DUP4 CODECOPY DUP2 ADD SUB SLT PUSH2 0x10B JUMPI PUSH2 0x52 PUSH1 0x20 PUSH2 0x4B DUP4 PUSH2 0x126 JUMP JUMPDEST SWAP3 ADD PUSH2 0x126 JUMP JUMPDEST PUSH1 0x1 PUSH1 0x1 PUSH1 0xA0 SHL SUB SWAP2 DUP3 AND SWAP2 SWAP1 DUP3 ISZERO PUSH2 0xDC JUMPI PUSH32 0x9E753BA61F3347CCF390AB8EEB39BA7D6133775597C86F1B507CECFAE0271D26 SWAP1 PUSH1 0x1 DUP1 PUSH1 0xA0 SHL SUB NOT SWAP3 PUSH1 0x0 SWAP2 DUP6 DUP6 DUP5 SLOAD AND OR DUP4 SSTORE AND DUP1 SWAP4 PUSH1 0x1 SLOAD AND OR PUSH1 0x1 SSTORE PUSH1 0x40 MLOAD SWAP4 PUSH32 0xBCF54AC55C42B0BFB8E38409501A5C8EA0E9927B7038DD044FB1956E14F3A26C DUP3 DUP1 LOG2 DUP1 LOG2 PUSH2 0x64F SWAP1 DUP2 PUSH2 0x13B DUP3 CODECOPY RETURN JUMPDEST PUSH1 0x40 MLOAD PUSH3 0x461BCD PUSH1 0xE5 SHL DUP2 MSTORE PUSH1 0x20 PUSH1 0x4 DUP3 ADD MSTORE PUSH1 0x7 PUSH1 0x24 DUP3 ADD MSTORE PUSH7 0x2D22A927AFA1A1 PUSH1 0xC9 SHL PUSH1 0x44 DUP3 ADD MSTORE PUSH1 0x64 SWAP1 REVERT JUMPDEST PUSH1 0x0 DUP1 REVERT JUMPDEST PUSH4 0x4E487B71 PUSH1 0xE0 SHL PUSH1 0x0 MSTORE PUSH1 0x41 PUSH1 0x4 MSTORE PUSH1 0x24 PUSH1 0x0 REVERT JUMPDEST MLOAD SWAP1 PUSH1 0x1 PUSH1 0x1 PUSH1 0xA0 SHL SUB DUP3 AND DUP3 SUB PUSH2 0x10B JUMPI JUMP INVALID PUSH1 0x80 PUSH1 0x40 SWAP1 DUP1 DUP3 MSTORE PUSH1 0x4 SWAP2 DUP3 CALLDATASIZE LT ISZERO PUSH2 0x17 JUMPI PUSH1 0x0 DUP1 REVERT JUMPDEST PUSH1 0x0 SWAP3 DUP4 CALLDATALOAD PUSH1 0xE0 SHR SWAP3 DUP4 PUSH4 0x2240A9AD EQ PUSH2 0x32B JUMPI POP DUP3 PUSH4 0x5B0915DF EQ PUSH2 0x2AA JUMPI DUP3 PUSH4 0x9A4A0FB2 EQ PUSH2 0x282 JUMPI DUP3 PUSH4 0xB5CE02AE EQ PUSH2 0x20D JUMPI DUP3 PUSH4 0xC2038236 EQ PUSH2 0x1BE JUMPI POP DUP2 PUSH4 0xC2FDA487 EQ PUSH2 0x195 JUMPI DUP2 PUSH4 0xE72517B1 EQ PUSH2 0xF9 JUMPI POP PUSH4 0xFD89E223 EQ PUSH2 0x7F JUMPI PUSH1 0x0 DUP1 REVERT JUMPDEST CALLVALUE PUSH2 0xF6 JUMPI PUSH1 0x20 CALLDATASIZE PUSH1 0x3 NOT ADD SLT PUSH2 0xF6 JUMPI PUSH2 0x98 PUSH2 0x4FB JUMP JUMPDEST DUP2 SLOAD PUSH1 0x1 PUSH1 0x1 PUSH1 0xA0 SHL SUB SWAP2 SWAP1 PUSH2 0xB1 SWAP1 DUP4 AND CALLER EQ PUSH2 0x5A2 JUMP JUMPDEST AND PUSH2 0xBD DUP2 ISZERO ISZERO PUSH2 0x5E1 JUMP JUMPDEST PUSH1 0x1 DUP1 SLOAD PUSH1 0x1 PUSH1 0x1 PUSH1 0xA0 SHL SUB NOT AND DUP3 OR SWAP1 SSTORE PUSH32 0x9E753BA61F3347CCF390AB8EEB39BA7D6133775597C86F1B507CECFAE0271D26 DUP3 DUP1 LOG2 DUP1 RETURN JUMPDEST DUP1 REVERT JUMPDEST SWAP1 POP CALLVALUE PUSH2 0x191 JUMPI PUSH32 0x1D40BF9A212B6C52C84A1AD474E5D654341D65B7FB103BA70A6EF468D05135DE SWAP1 PUSH2 0x12B CALLDATASIZE PUSH2 0x516 JUMP JUMPDEST DUP7 SLOAD SWAP3 SWAP6 SWAP4 SWAP5 SWAP3 PUSH1 0x1 PUSH1 0x1 PUSH1 0xA0 SHL SUB SWAP1 PUSH2 0x148 SWAP1 DUP3 AND CALLER EQ PUSH2 0x5A2 JUMP JUMPDEST DUP6 DUP9 MSTORE PUSH1 0x2 PUSH1 0x20 MSTORE DUP4 DUP9 KECCAK256 SWAP7 AND SWAP6 DUP7 DUP9 MSTORE PUSH1 0x20 MSTORE DUP2 DUP4 DUP9 KECCAK256 SLOAD PUSH2 0x16D DUP3 DUP3 LT ISZERO PUSH2 0x544 JUMP JUMPDEST DUP7 DUP10 MSTORE PUSH1 0x2 PUSH1 0x20 MSTORE DUP5 DUP10 KECCAK256 DUP9 DUP11 MSTORE PUSH1 0x20 MSTORE SUB DUP4 DUP9 KECCAK256 SSTORE DUP3 MLOAD SWAP2 DUP3 MSTORE PUSH1 0x20 DUP3 ADD MSTORE LOG3 DUP1 RETURN JUMPDEST POP DUP1 REVERT JUMPDEST SWAP1 POP CALLVALUE PUSH2 0x191 JUMPI DUP2 PUSH1 0x3 NOT CALLDATASIZE ADD SLT PUSH2 0x191 JUMPI PUSH1 0x1 SLOAD SWAP1 MLOAD PUSH1 0x1 PUSH1 0x1 PUSH1 0xA0 SHL SUB SWAP1 SWAP2 AND DUP2 MSTORE PUSH1 0x20 SWAP1 RETURN JUMPDEST SWAP1 SWAP2 POP CALLVALUE PUSH2 0x209 JUMPI DUP2 PUSH1 0x3 NOT CALLDATASIZE ADD SLT PUSH2 0x209 JUMPI PUSH1 0x24 CALLDATALOAD PUSH1 0x1 PUSH1 0x1 PUSH1 0xA0 SHL SUB DUP2 AND SWAP2 SWAP1 DUP3 SWAP1 SUB PUSH2 0x205 JUMPI SWAP3 DUP3 SWAP2 PUSH1 0x20 SWAP5 CALLDATALOAD DUP3 MSTORE PUSH1 0x2 DUP6 MSTORE DUP3 DUP3 KECCAK256 SWAP1 DUP3 MSTORE DUP5 MSTORE KECCAK256 SLOAD SWAP1 MLOAD SWAP1 DUP2 MSTORE RETURN JUMPDEST DUP4 DUP1 REVERT JUMPDEST DUP3 DUP1 REVERT JUMPDEST DUP4 CALLVALUE PUSH2 0xF6 JUMPI PUSH1 0x20 CALLDATASIZE PUSH1 0x3 NOT ADD SLT PUSH2 0xF6 JUMPI PUSH2 0x227 PUSH2 0x4FB JUMP JUMPDEST DUP2 SLOAD SWAP1 PUSH1 0x1 PUSH1 0x1 PUSH1 0xA0 SHL SUB SWAP1 PUSH2 0x240 CALLER DUP4 DUP6 AND EQ PUSH2 0x5A2 JUMP JUMPDEST AND DUP1 SWAP2 PUSH2 0x24E DUP3 ISZERO ISZERO PUSH2 0x5E1 JUMP JUMPDEST PUSH1 0x1 PUSH1 0x1 PUSH1 0xA0 SHL SUB NOT AND OR DUP3 SSTORE PUSH32 0xBCF54AC55C42B0BFB8E38409501A5C8EA0E9927B7038DD044FB1956E14F3A26C DUP3 DUP1 LOG2 DUP1 RETURN JUMPDEST DUP4 DUP3 CALLVALUE PUSH2 0x191 JUMPI DUP2 PUSH1 0x3 NOT CALLDATASIZE ADD SLT PUSH2 0x191 JUMPI SWAP1 SLOAD SWAP1 MLOAD PUSH1 0x1 PUSH1 0x1 PUSH1 0xA0 SHL SUB SWAP1 SWAP2 AND DUP2 MSTORE PUSH1 0x20 SWAP1 RETURN JUMPDEST DUP4 DUP3 CALLVALUE PUSH2 0x191 JUMPI PUSH32 0x4AC19C176659CD50BEE0A6326F0F07F170E3FC9202EB4CEC9E5555B71DAEDE98 SWAP1 PUSH2 0x2DC CALLDATASIZE PUSH2 0x516 JUMP JUMPDEST DUP7 SLOAD SWAP3 SWAP6 SWAP4 SWAP5 SWAP3 PUSH1 0x1 PUSH1 0x1 PUSH1 0xA0 SHL SUB SWAP1 PUSH2 0x2F9 SWAP1 DUP3 AND CALLER EQ PUSH2 0x5A2 JUMP JUMPDEST DUP6 DUP9 MSTORE PUSH1 0x2 PUSH1 0x20 MSTORE DUP4 DUP9 KECCAK256 SWAP7 AND SWAP6 DUP7 DUP9 MSTORE PUSH1 0x20 MSTORE DUP3 DUP8 KECCAK256 PUSH2 0x31B DUP4 DUP3 SLOAD PUSH2 0x57F JUMP JUMPDEST SWAP1 SSTORE DUP3 MLOAD SWAP2 DUP3 MSTORE PUSH1 0x20 DUP3 ADD MSTORE LOG3 DUP1 RETURN JUMPDEST SWAP3 POP SWAP1 CALLVALUE PUSH2 0x205 JUMPI PUSH1 0xA0 CALLDATASIZE PUSH1 0x3 NOT ADD SLT PUSH2 0x205 JUMPI PUSH1 0x44 CALLDATALOAD PUSH1 0x1 PUSH1 0x1 PUSH1 0xA0 SHL SUB DUP2 DUP2 AND SWAP5 PUSH1 0x24 CALLDATALOAD SWAP5 DUP1 CALLDATALOAD SWAP5 SWAP4 DUP8 SWAP1 SUB PUSH2 0x4F7 JUMPI PUSH1 0x64 CALLDATALOAD SWAP3 PUSH1 0x1 SLOAD AND SWAP2 DUP3 ISZERO PUSH2 0x4C9 JUMPI POP DUP4 MLOAD DUP1 SWAP3 PUSH4 0x2950B0A9 PUSH1 0xE2 SHL DUP3 MSTORE CALLER DUP4 DUP4 ADD MSTORE DUP2 PUSH1 0x24 PUSH1 0x20 SWAP6 DUP7 SWAP4 GAS STATICCALL SWAP1 DUP2 ISZERO PUSH2 0x4BF JUMPI DUP10 SWAP2 PUSH2 0x45B JUMPI JUMPDEST POP ISZERO PUSH2 0x426 JUMPI POP SWAP1 PUSH32 0x124EEB9B70369942E069FE5B84397BC1FB0671A4C51DB655D6DEB6739A14B004 SWAP3 SWAP2 DUP5 DUP9 MSTORE PUSH1 0x2 DUP2 MSTORE DUP3 DUP9 KECCAK256 DUP8 DUP10 MSTORE DUP2 MSTORE DUP2 DUP4 DUP10 KECCAK256 SLOAD PUSH2 0x3E3 DUP3 DUP3 LT ISZERO PUSH2 0x544 JUMP JUMPDEST DUP7 DUP11 MSTORE PUSH1 0x2 DUP4 MSTORE DUP5 DUP11 KECCAK256 DUP10 DUP12 MSTORE DUP4 MSTORE SUB DUP4 DUP10 KECCAK256 SSTORE DUP6 DUP9 MSTORE PUSH1 0x2 DUP2 MSTORE DUP3 DUP9 KECCAK256 DUP8 DUP10 MSTORE DUP2 MSTORE DUP3 DUP9 KECCAK256 PUSH2 0x414 DUP4 DUP3 SLOAD PUSH2 0x57F JUMP JUMPDEST SWAP1 SSTORE DUP3 MLOAD SWAP2 DUP3 MSTORE PUSH1 0x84 CALLDATALOAD SWAP1 DUP3 ADD MSTORE LOG4 DUP1 RETURN JUMPDEST PUSH1 0x64 SWAP2 DUP5 MLOAD SWAP2 PUSH3 0x461BCD PUSH1 0xE5 SHL DUP4 MSTORE DUP3 ADD MSTORE PUSH1 0x11 PUSH1 0x24 DUP3 ADD MSTORE PUSH17 0x4E4F545F4C4943454E5345445F42414E4B PUSH1 0x78 SHL PUSH1 0x44 DUP3 ADD MSTORE REVERT JUMPDEST SWAP1 POP DUP3 RETURNDATASIZE DUP5 GT PUSH2 0x4B8 JUMPI JUMPDEST PUSH1 0x1F DUP2 ADD PUSH1 0x1F NOT AND DUP3 ADD PUSH8 0xFFFFFFFFFFFFFFFF DUP2 GT DUP4 DUP3 LT OR PUSH2 0x4A5 JUMPI DUP5 SWAP2 DUP4 SWAP2 DUP9 MSTORE DUP2 ADD SUB SLT PUSH2 0x4A1 JUMPI MLOAD DUP1 ISZERO ISZERO DUP2 SUB PUSH2 0x4A1 JUMPI CODESIZE PUSH2 0x398 JUMP JUMPDEST DUP9 DUP1 REVERT JUMPDEST PUSH4 0x4E487B71 PUSH1 0xE0 SHL DUP12 MSTORE PUSH1 0x41 DUP5 MSTORE PUSH1 0x24 DUP12 REVERT JUMPDEST POP RETURNDATASIZE PUSH2 0x466 JUMP JUMPDEST DUP6 MLOAD RETURNDATASIZE DUP12 DUP3 RETURNDATACOPY RETURNDATASIZE SWAP1 REVERT JUMPDEST PUSH1 0x20 PUSH1 0x64 SWAP3 PUSH3 0x461BCD PUSH1 0xE5 SHL DUP4 MSTORE DUP3 ADD MSTORE PUSH1 0xB PUSH1 0x24 DUP3 ADD MSTORE PUSH11 0x149151D7D393D517D4D155 PUSH1 0xAA SHL PUSH1 0x44 DUP3 ADD MSTORE REVERT JUMPDEST DUP8 DUP1 REVERT JUMPDEST PUSH1 0x4 CALLDATALOAD SWAP1 PUSH1 0x1 PUSH1 0x1 PUSH1 0xA0 SHL SUB DUP3 AND DUP3 SUB PUSH2 0x511 JUMPI JUMP JUMPDEST PUSH1 0x0 DUP1 REVERT JUMPDEST PUSH1 0x80 SWAP1 PUSH1 0x3 NOT ADD SLT PUSH2 0x511 JUMPI PUSH1 0x4 CALLDATALOAD SWAP1 PUSH1 0x24 CALLDATALOAD PUSH1 0x1 PUSH1 0x1 PUSH1 0xA0 SHL SUB DUP2 AND DUP2 SUB PUSH2 0x511 JUMPI SWAP1 PUSH1 0x44 CALLDATALOAD SWAP1 PUSH1 0x64 CALLDATALOAD SWAP1 JUMP JUMPDEST ISZERO PUSH2 0x54B JUMPI JUMP JUMPDEST PUSH1 0x40 MLOAD PUSH3 0x461BCD PUSH1 0xE5 SHL DUP2 MSTORE PUSH1 0x20 PUSH1 0x4 DUP3 ADD MSTORE PUSH1 0xC PUSH1 0x24 DUP3 ADD MSTORE PUSH12 0x125394D551919250D2515395 PUSH1 0xA2 SHL PUSH1 0x44 DUP3 ADD MSTORE PUSH1 0x64 SWAP1 REVERT JUMPDEST SWAP2 SWAP1 DUP3 ADD DUP1 SWAP3 GT PUSH2 0x58C JUMPI JUMP JUMPDEST PUSH4 0x4E487B71 PUSH1 0xE0 SHL PUSH1 0x0 MSTORE PUSH1 0x11 PUSH1 0x4 MSTORE PUSH1 0x24 PUSH1 0x0 REVERT JUMPDEST ISZERO PUSH2 0x5A9 JUMPI JUMP JUMPDEST PUSH1 0x40 MLOAD PUSH3 0x461BCD PUSH1 0xE5 SHL DUP2 MSTORE PUSH1 0x20 PUSH1 0x4 DUP3 ADD MSTORE PUSH1 0x10 PUSH1 0x24 DUP3 ADD MSTORE PUSH16 0x4E4F545F43454E5452414C5F42414E4B PUSH1 0x80 SHL PUSH1 0x44 DUP3 ADD MSTORE PUSH1 0x64 SWAP1 REVERT JUMPDEST ISZERO PUSH2 0x5E8 JUMPI JUMP JUMPDEST PUSH1 0x40 MLOAD PUSH3 0x461BCD PUSH1 0xE5 SHL DUP2 MSTORE PUSH1 0x20 PUSH1 0x4 DUP3 ADD MSTORE PUSH1 0x9 PUSH1 0x24 DUP3 ADD MSTORE PUSH9 0x2D22A927AFA0A22229 PUSH1 0xB9 SHL PUSH1 0x44 DUP3 ADD MSTORE PUSH1 0x64 SWAP1 REVERT INVALID LOG2 PUSH5 0x6970667358 0x22 SLT KECCAK256 GAS 0x21 DUP4 SWAP9 DUP5 0xAB PUSH1 0x6C 0x2C STOP DUP9 ADD SUB SWAP14 0xB0 0xB7 0xE7 SWAP10 0xEB SWAP3 NUMBER 0xC7 MSIZE 0xF SWAP3 PUSH19 0x3F8A29924E2964736F6C634300081800330000 "},"methodIdentifiers":{"balanceOf(bytes32,address)":"c2038236","burn(bytes32,address,uint256,bytes32)":"e72517b1","centralBank()":"9a4a0fb2","licenseRegistry()":"c2fda487","mint(bytes32,address,uint256,bytes32)":"5b0915df","setCentralBank(address)":"b5ce02ae","setLicenseRegistry(address)":"fd89e223","transferBetweenAccounts(bytes32,bytes32,address,uint256,bytes32)":"2240a9ad"}}}}}