{"contracts/TaxAuthorityV2.sol":{"TaxAuthorityV2":{"abi":[{"inputs":[{"internalType":"address","name":"ledgerAddr","type":"address"},{"internalType":"address","name":"licenseRegAddr","type":"address"},{"internalType":"bytes32","name":"confedBudgetAccountId","type":"bytes32"}],"stateMutability":"nonpayable","type":"constructor"},{"anonymous":false,"inputs":[{"indexed":true,"internalType":"uint32","name":"year","type":"uint32"},{"indexed":true,"internalType":"bytes32","name":"taxpayerAccountId","type":"bytes32"},{"indexed":true,"internalType":"bytes32","name":"republicKey","type":"bytes32"},{"indexed":false,"internalType":"uint256","name":"profit","type":"uint256"},{"indexed":false,"internalType":"uint256","name":"taxDue","type":"uint256"}],"name":"Declared","type":"event"},{"anonymous":false,"inputs":[{"indexed":true,"internalType":"uint32","name":"year","type":"uint32"},{"indexed":true,"internalType":"bytes32","name":"taxpayerAccountId","type":"bytes32"},{"indexed":true,"internalType":"bytes32","name":"republicKey","type":"bytes32"},{"indexed":false,"internalType":"uint256","name":"amount","type":"uint256"},{"indexed":false,"internalType":"uint256","name":"repPart","type":"uint256"},{"indexed":false,"internalType":"uint256","name":"confPart","type":"uint256"},{"indexed":false,"internalType":"uint256","name":"totalPaid","type":"uint256"}],"name":"TaxPaid","type":"event"},{"anonymous":false,"inputs":[{"indexed":true,"internalType":"address","name":"caller","type":"address"},{"indexed":false,"internalType":"bool","name":"ok","type":"bool"}],"name":"TrustedBankCallerSet","type":"event"},{"inputs":[],"name":"CONFED_BPS","outputs":[{"internalType":"uint16","name":"","type":"uint16"}],"stateMutability":"view","type":"function"},{"inputs":[],"name":"REPUBLIC_BPS","outputs":[{"internalType":"uint16","name":"","type":"uint16"}],"stateMutability":"view","type":"function"},{"inputs":[],"name":"TAX_BPS","outputs":[{"internalType":"uint16","name":"","type":"uint16"}],"stateMutability":"view","type":"function"},{"inputs":[],"name":"confederationBudgetAccountId","outputs":[{"internalType":"bytes32","name":"","type":"bytes32"}],"stateMutability":"view","type":"function"},{"inputs":[{"internalType":"uint32","name":"year","type":"uint32"},{"internalType":"bytes32","name":"taxpayerAccountId","type":"bytes32"},{"internalType":"bytes32","name":"republicKey","type":"bytes32"},{"internalType":"uint256","name":"profit","type":"uint256"}],"name":"declareProfit","outputs":[],"stateMutability":"nonpayable","type":"function"},{"inputs":[{"internalType":"uint32","name":"year","type":"uint32"},{"internalType":"bytes32","name":"taxpayerAccountId","type":"bytes32"}],"name":"isCompliant","outputs":[{"internalType":"bool","name":"","type":"bool"}],"stateMutability":"view","type":"function"},{"inputs":[],"name":"ledger","outputs":[{"internalType":"contract ILedgerMove","name":"","type":"address"}],"stateMutability":"view","type":"function"},{"inputs":[],"name":"licenseRegistry","outputs":[{"internalType":"contract IBankLicenseRegistryView","name":"","type":"address"}],"stateMutability":"view","type":"function"},{"inputs":[],"name":"owner","outputs":[{"internalType":"address","name":"","type":"address"}],"stateMutability":"view","type":"function"},{"inputs":[{"internalType":"uint32","name":"year","type":"uint32"},{"internalType":"bytes32","name":"taxpayerAccountId","type":"bytes32"},{"internalType":"bytes32","name":"republicKey","type":"bytes32"},{"internalType":"address","name":"asset","type":"address"},{"internalType":"uint256","name":"amount","type":"uint256"},{"internalType":"bytes32","name":"memo","type":"bytes32"}],"name":"payTax","outputs":[],"stateMutability":"nonpayable","type":"function"},{"inputs":[{"internalType":"uint32","name":"","type":"uint32"},{"internalType":"bytes32","name":"","type":"bytes32"}],"name":"recordOf","outputs":[{"internalType":"uint256","name":"declaredProfit","type":"uint256"},{"internalType":"uint256","name":"taxDue","type":"uint256"},{"internalType":"uint256","name":"taxPaid","type":"uint256"},{"internalType":"uint64","name":"declaredAt","type":"uint64"},{"internalType":"uint64","name":"lastPaidAt","type":"uint64"}],"stateMutability":"view","type":"function"},{"inputs":[{"internalType":"bytes32","name":"","type":"bytes32"}],"name":"republicBudgetAccountIdOf","outputs":[{"internalType":"bytes32","name":"","type":"bytes32"}],"stateMutability":"view","type":"function"},{"inputs":[{"internalType":"bytes32","name":"republicKey","type":"bytes32"},{"internalType":"bytes32","name":"budgetAccountId","type":"bytes32"}],"name":"setRepublic","outputs":[],"stateMutability":"nonpayable","type":"function"},{"inputs":[{"internalType":"address","name":"caller","type":"address"},{"internalType":"bool","name":"ok","type":"bool"}],"name":"setTrustedBankCaller","outputs":[],"stateMutability":"nonpayable","type":"function"},{"inputs":[{"internalType":"address","name":"","type":"address"}],"name":"trustedBankCaller","outputs":[{"internalType":"bool","name":"","type":"bool"}],"stateMutability":"view","type":"function"}],"evm":{"bytecode":{"linkReferences":{},"object":"60803461009c57601f610b5738819003918201601f19168301916001600160401b038311848410176100a15780849260609460405283398101031261009c57610047816100b7565b906040610056602083016100b7565b9101519160018060a01b0319913383600054161760005560018060a01b0380921683600154161760015516906002541617600255600455604051610a8b90816100cc8239f35b600080fd5b634e487b7160e01b600052604160045260246000fd5b51906001600160a01b038216820361009c5756fe608080604052600436101561001357600080fd5b600090813560e01c9081630a0f9ce3146109a957508063531763f21461098c57806356397c3514610963578063649bf0af146108ea57806368f4a786146108cd57806375162e491461080d57806376083da0146107ce57806382e1f5061461036f5780638da5cb5b14610348578063af9d0ac2146101fd578063b3ca3ed8146101e0578063c2fda487146101b7578063d5f1258b1461012d578063e17b2190146100f25763fc06a77f146100c657600080fd5b346100ef5760203660031901126100ef5760406020916004358152600583522054604051908152f35b80fd5b50346100ef5760403660031901126100ef5761011860018060a01b038254163314610a1d565b60043581526005602052602435604082205580f35b50346100ef5760403660031901126100ef576101476109dd565b602435908115158092036101b35760207f46e75ecf21bbb6dbace69a72d26bbcc5ac5e8fb894032fdb82607a86e31431c79160018060a01b039061018f828754163314610a1d565b1692838552600382526040852060ff1981541660ff8316179055604051908152a280f35b8280fd5b50346100ef57806003193601126100ef576002546040516001600160a01b039091168152602090f35b50346100ef57806003193601126100ef5760206040516102bc8152f35b50346100ef5760803660031901126100ef576102176109c5565b602435604435916064359081156103155783855260056020526040852054156102dd5763ffffffff169081855260066020526040852083865260205260408520908082556103e89081810291818304036102c7577f4dd0a699b17a093f792e15e6a80909d64db82d4fd2013a6dcd6b3e9683f629a892600361271060409404918260018201550167ffffffffffffffff421667ffffffffffffffff1982541617905582519182526020820152a480f35b634e487b7160e01b600052601160045260246000fd5b60405162461bcd60e51b815260206004820152601060248201526f1491541550931250d7d393d517d4d15560821b6044820152606490fd5b60405162461bcd60e51b815260206004820152600b60248201526a16915493d7d41493d1925560aa1b6044820152606490fd5b50346100ef57806003193601126100ef57546040516001600160a01b039091168152602090f35b50346100ef5760c03660031901126100ef576103896109c5565b6064356001600160a01b03811690036107ca5760843590338352600360205260ff604084205416156106de575b63ffffffff811683526006602052604083206024358452602052604083209160018301549081156106a85760028401548281101561067457811561064157820391821161062d57818111156106255750915b6102bc8084029084159085830414811715610611576127109161012c91828702928784041417156105fd576044358752600560205286604081205460018060a01b036001541690813b156101b357604051632240a9ad60e01b8152602480356004830152810191909152606480356001600160a01b031660448301528685049082015260a480356084830152909291839190829084905af180156105f2576105df575b5060015460045488916001600160a01b0316803b156101b357604051632240a9ad60e01b8152602480356004830152810192909252606480356001600160a01b031660448401528686049083015260a4803560848401528391839190829084905af180156105d4576105bc575b50506002840154938685018095116105a857906003828660028795015501805467ffffffffffffffff60401b4260401b169067ffffffffffffffff60401b19161790556040519687520460208601520460408401526060830152604435917ff008c99bc1d62cc6a8bc0064b83e4bb4183440733f77b82fdf426be94c13da06608063ffffffff602435941692a480f35b634e487b7160e01b88526011600452602488fd5b6105c5906109f3565b6105d0578638610518565b8680fd5b6040513d84823e3d90fd5b6105eb909791976109f3565b95386104ab565b6040513d8a823e3d90fd5b634e487b7160e01b87526011600452602487fd5b634e487b7160e01b86526011600452602486fd5b905091610408565b634e487b7160e01b85526011600452602485fd5b60405162461bcd60e51b815260206004820152600b60248201526a16915493d7d05353d5539560aa1b6044820152606490fd5b60405162461bcd60e51b815260206004820152600c60248201526b1053149150511657d410525160a21b6044820152606490fd5b60405162461bcd60e51b815260206004820152600e60248201526d2727afa222a1a620a920aa24a7a760911b6044820152606490fd5b600254604051632950b0a960e21b815233600482015290602090829060249082906001600160a01b03165afa9081156107bf578491610756575b506103b65760405162461bcd60e51b81526020600482015260116024820152704e4f545f4c4943454e5345445f42414e4b60781b6044820152606490fd5b905060203d6020116107b8575b601f8101601f1916820167ffffffffffffffff8111838210176107a4576020918391604052810103126107a0575180151581036107a05738610718565b8380fd5b634e487b7160e01b86526041600452602486fd5b503d610763565b6040513d86823e3d90fd5b5080fd5b50346100ef5760203660031901126100ef5760209060ff906040906001600160a01b036107f96109dd565b168152600384522054166040519015158152f35b50346100ef5760403660031901126100ef5763ffffffff61082c6109c5565b16815260066020526040812060243582526020526040812060405160a081019067ffffffffffffffff91818110838211176108b95760209450604052825481526080600184015492838684015260036002860154958660408601520154818116606085015260401c1691015280151591826108ae575b50506040519015158152f35b1015905038806108a2565b634e487b7160e01b85526041600452602485fd5b50346100ef57806003193601126100ef5760206040516103e88152f35b50346100ef5760403660031901126100ef57604060a09163ffffffff61090e6109c5565b1681526006602052818120602435825260205220805490600181015490600360028201549101549067ffffffffffffffff9260405194855260208501526040840152818116606084015260401c166080820152f35b50346100ef57806003193601126100ef576001546040516001600160a01b039091168152602090f35b50346100ef57806003193601126100ef57602060405161012c8152f35b9050346107ca57816003193601126107ca576020906004548152f35b6004359063ffffffff821682036109d857565b600080fd5b600435906001600160a01b03821682036109d857565b67ffffffffffffffff8111610a0757604052565b634e487b7160e01b600052604160045260246000fd5b15610a2457565b60405162461bcd60e51b81526020600482015260096024820152682727aa2fa7aba722a960b91b6044820152606490fdfea26469706673582212209d7c059c0a586f6ff7fb0d84ab6369c579f66d5a368fcd80410ade0d29623f8464736f6c63430008180033","opcodes":"PUSH1 0x80 CALLVALUE PUSH2 0x9C JUMPI PUSH1 0x1F PUSH2 0xB57 CODESIZE DUP2 SWAP1 SUB SWAP2 DUP3 ADD PUSH1 0x1F NOT AND DUP4 ADD SWAP2 PUSH1 0x1 PUSH1 0x1 PUSH1 0x40 SHL SUB DUP4 GT DUP5 DUP5 LT OR PUSH2 0xA1 JUMPI DUP1 DUP5 SWAP3 PUSH1 0x60 SWAP5 PUSH1 0x40 MSTORE DUP4 CODECOPY DUP2 ADD SUB SLT PUSH2 0x9C JUMPI PUSH2 0x47 DUP2 PUSH2 0xB7 JUMP JUMPDEST SWAP1 PUSH1 0x40 PUSH2 0x56 PUSH1 0x20 DUP4 ADD PUSH2 0xB7 JUMP JUMPDEST SWAP2 ADD MLOAD SWAP2 PUSH1 0x1 DUP1 PUSH1 0xA0 SHL SUB NOT SWAP2 CALLER DUP4 PUSH1 0x0 SLOAD AND OR PUSH1 0x0 SSTORE PUSH1 0x1 DUP1 PUSH1 0xA0 SHL SUB DUP1 SWAP3 AND DUP4 PUSH1 0x1 SLOAD AND OR PUSH1 0x1 SSTORE AND SWAP1 PUSH1 0x2 SLOAD AND OR PUSH1 0x2 SSTORE PUSH1 0x4 SSTORE PUSH1 0x40 MLOAD PUSH2 0xA8B SWAP1 DUP2 PUSH2 0xCC DUP3 CODECOPY RETURN JUMPDEST PUSH1 0x0 DUP1 REVERT JUMPDEST PUSH4 0x4E487B71 PUSH1 0xE0 SHL PUSH1 0x0 MSTORE PUSH1 0x41 PUSH1 0x4 MSTORE PUSH1 0x24 PUSH1 0x0 REVERT JUMPDEST MLOAD SWAP1 PUSH1 0x1 PUSH1 0x1 PUSH1 0xA0 SHL SUB DUP3 AND DUP3 SUB PUSH2 0x9C JUMPI JUMP INVALID PUSH1 0x80 DUP1 PUSH1 0x40 MSTORE PUSH1 0x4 CALLDATASIZE LT ISZERO PUSH2 0x13 JUMPI PUSH1 0x0 DUP1 REVERT JUMPDEST PUSH1 0x0 SWAP1 DUP2 CALLDATALOAD PUSH1 0xE0 SHR SWAP1 DUP2 PUSH4 0xA0F9CE3 EQ PUSH2 0x9A9 JUMPI POP DUP1 PUSH4 0x531763F2 EQ PUSH2 0x98C JUMPI DUP1 PUSH4 0x56397C35 EQ PUSH2 0x963 JUMPI DUP1 PUSH4 0x649BF0AF EQ PUSH2 0x8EA JUMPI DUP1 PUSH4 0x68F4A786 EQ PUSH2 0x8CD JUMPI DUP1 PUSH4 0x75162E49 EQ PUSH2 0x80D JUMPI DUP1 PUSH4 0x76083DA0 EQ PUSH2 0x7CE JUMPI DUP1 PUSH4 0x82E1F506 EQ PUSH2 0x36F JUMPI DUP1 PUSH4 0x8DA5CB5B EQ PUSH2 0x348 JUMPI DUP1 PUSH4 0xAF9D0AC2 EQ PUSH2 0x1FD JUMPI DUP1 PUSH4 0xB3CA3ED8 EQ PUSH2 0x1E0 JUMPI DUP1 PUSH4 0xC2FDA487 EQ PUSH2 0x1B7 JUMPI DUP1 PUSH4 0xD5F1258B EQ PUSH2 0x12D JUMPI DUP1 PUSH4 0xE17B2190 EQ PUSH2 0xF2 JUMPI PUSH4 0xFC06A77F EQ PUSH2 0xC6 JUMPI PUSH1 0x0 DUP1 REVERT JUMPDEST CALLVALUE PUSH2 0xEF JUMPI PUSH1 0x20 CALLDATASIZE PUSH1 0x3 NOT ADD SLT PUSH2 0xEF JUMPI PUSH1 0x40 PUSH1 0x20 SWAP2 PUSH1 0x4 CALLDATALOAD DUP2 MSTORE PUSH1 0x5 DUP4 MSTORE KECCAK256 SLOAD PUSH1 0x40 MLOAD SWAP1 DUP2 MSTORE RETURN JUMPDEST DUP1 REVERT JUMPDEST POP CALLVALUE PUSH2 0xEF JUMPI PUSH1 0x40 CALLDATASIZE PUSH1 0x3 NOT ADD SLT PUSH2 0xEF JUMPI PUSH2 0x118 PUSH1 0x1 DUP1 PUSH1 0xA0 SHL SUB DUP3 SLOAD AND CALLER EQ PUSH2 0xA1D JUMP JUMPDEST PUSH1 0x4 CALLDATALOAD DUP2 MSTORE PUSH1 0x5 PUSH1 0x20 MSTORE PUSH1 0x24 CALLDATALOAD PUSH1 0x40 DUP3 KECCAK256 SSTORE DUP1 RETURN JUMPDEST POP CALLVALUE PUSH2 0xEF JUMPI PUSH1 0x40 CALLDATASIZE PUSH1 0x3 NOT ADD SLT PUSH2 0xEF JUMPI PUSH2 0x147 PUSH2 0x9DD JUMP JUMPDEST PUSH1 0x24 CALLDATALOAD SWAP1 DUP2 ISZERO ISZERO DUP1 SWAP3 SUB PUSH2 0x1B3 JUMPI PUSH1 0x20 PUSH32 0x46E75ECF21BBB6DBACE69A72D26BBCC5AC5E8FB894032FDB82607A86E31431C7 SWAP2 PUSH1 0x1 DUP1 PUSH1 0xA0 SHL SUB SWAP1 PUSH2 0x18F DUP3 DUP8 SLOAD AND CALLER EQ PUSH2 0xA1D JUMP JUMPDEST AND SWAP3 DUP4 DUP6 MSTORE PUSH1 0x3 DUP3 MSTORE PUSH1 0x40 DUP6 KECCAK256 PUSH1 0xFF NOT DUP2 SLOAD AND PUSH1 0xFF DUP4 AND OR SWAP1 SSTORE PUSH1 0x40 MLOAD SWAP1 DUP2 MSTORE LOG2 DUP1 RETURN JUMPDEST DUP3 DUP1 REVERT JUMPDEST POP CALLVALUE PUSH2 0xEF JUMPI DUP1 PUSH1 0x3 NOT CALLDATASIZE ADD SLT PUSH2 0xEF JUMPI PUSH1 0x2 SLOAD PUSH1 0x40 MLOAD PUSH1 0x1 PUSH1 0x1 PUSH1 0xA0 SHL SUB SWAP1 SWAP2 AND DUP2 MSTORE PUSH1 0x20 SWAP1 RETURN JUMPDEST POP CALLVALUE PUSH2 0xEF JUMPI DUP1 PUSH1 0x3 NOT CALLDATASIZE ADD SLT PUSH2 0xEF JUMPI PUSH1 0x20 PUSH1 0x40 MLOAD PUSH2 0x2BC DUP2 MSTORE RETURN JUMPDEST POP CALLVALUE PUSH2 0xEF JUMPI PUSH1 0x80 CALLDATASIZE PUSH1 0x3 NOT ADD SLT PUSH2 0xEF JUMPI PUSH2 0x217 PUSH2 0x9C5 JUMP JUMPDEST PUSH1 0x24 CALLDATALOAD PUSH1 0x44 CALLDATALOAD SWAP2 PUSH1 0x64 CALLDATALOAD SWAP1 DUP2 ISZERO PUSH2 0x315 JUMPI DUP4 DUP6 MSTORE PUSH1 0x5 PUSH1 0x20 MSTORE PUSH1 0x40 DUP6 KECCAK256 SLOAD ISZERO PUSH2 0x2DD JUMPI PUSH4 0xFFFFFFFF AND SWAP1 DUP2 DUP6 MSTORE PUSH1 0x6 PUSH1 0x20 MSTORE PUSH1 0x40 DUP6 KECCAK256 DUP4 DUP7 MSTORE PUSH1 0x20 MSTORE PUSH1 0x40 DUP6 KECCAK256 SWAP1 DUP1 DUP3 SSTORE PUSH2 0x3E8 SWAP1 DUP2 DUP2 MUL SWAP2 DUP2 DUP4 DIV SUB PUSH2 0x2C7 JUMPI PUSH32 0x4DD0A699B17A093F792E15E6A80909D64DB82D4FD2013A6DCD6B3E9683F629A8 SWAP3 PUSH1 0x3 PUSH2 0x2710 PUSH1 0x40 SWAP5 DIV SWAP2 DUP3 PUSH1 0x1 DUP3 ADD SSTORE ADD PUSH8 0xFFFFFFFFFFFFFFFF TIMESTAMP AND PUSH8 0xFFFFFFFFFFFFFFFF NOT DUP3 SLOAD AND OR SWAP1 SSTORE DUP3 MLOAD SWAP2 DUP3 MSTORE PUSH1 0x20 DUP3 ADD MSTORE LOG4 DUP1 RETURN JUMPDEST PUSH4 0x4E487B71 PUSH1 0xE0 SHL PUSH1 0x0 MSTORE PUSH1 0x11 PUSH1 0x4 MSTORE PUSH1 0x24 PUSH1 0x0 REVERT JUMPDEST PUSH1 0x40 MLOAD PUSH3 0x461BCD PUSH1 0xE5 SHL DUP2 MSTORE PUSH1 0x20 PUSH1 0x4 DUP3 ADD MSTORE PUSH1 0x10 PUSH1 0x24 DUP3 ADD MSTORE PUSH16 0x1491541550931250D7D393D517D4D155 PUSH1 0x82 SHL PUSH1 0x44 DUP3 ADD MSTORE PUSH1 0x64 SWAP1 REVERT JUMPDEST PUSH1 0x40 MLOAD PUSH3 0x461BCD PUSH1 0xE5 SHL DUP2 MSTORE PUSH1 0x20 PUSH1 0x4 DUP3 ADD MSTORE PUSH1 0xB PUSH1 0x24 DUP3 ADD MSTORE PUSH11 0x16915493D7D41493D19255 PUSH1 0xAA SHL PUSH1 0x44 DUP3 ADD MSTORE PUSH1 0x64 SWAP1 REVERT JUMPDEST POP CALLVALUE PUSH2 0xEF JUMPI DUP1 PUSH1 0x3 NOT CALLDATASIZE ADD SLT PUSH2 0xEF JUMPI SLOAD PUSH1 0x40 MLOAD PUSH1 0x1 PUSH1 0x1 PUSH1 0xA0 SHL SUB SWAP1 SWAP2 AND DUP2 MSTORE PUSH1 0x20 SWAP1 RETURN JUMPDEST POP CALLVALUE PUSH2 0xEF JUMPI PUSH1 0xC0 CALLDATASIZE PUSH1 0x3 NOT ADD SLT PUSH2 0xEF JUMPI PUSH2 0x389 PUSH2 0x9C5 JUMP JUMPDEST PUSH1 0x64 CALLDATALOAD PUSH1 0x1 PUSH1 0x1 PUSH1 0xA0 SHL SUB DUP2 AND SWAP1 SUB PUSH2 0x7CA JUMPI PUSH1 0x84 CALLDATALOAD SWAP1 CALLER DUP4 MSTORE PUSH1 0x3 PUSH1 0x20 MSTORE PUSH1 0xFF PUSH1 0x40 DUP5 KECCAK256 SLOAD AND ISZERO PUSH2 0x6DE JUMPI JUMPDEST PUSH4 0xFFFFFFFF DUP2 AND DUP4 MSTORE PUSH1 0x6 PUSH1 0x20 MSTORE PUSH1 0x40 DUP4 KECCAK256 PUSH1 0x24 CALLDATALOAD DUP5 MSTORE PUSH1 0x20 MSTORE PUSH1 0x40 DUP4 KECCAK256 SWAP2 PUSH1 0x1 DUP4 ADD SLOAD SWAP1 DUP2 ISZERO PUSH2 0x6A8 JUMPI PUSH1 0x2 DUP5 ADD SLOAD DUP3 DUP2 LT ISZERO PUSH2 0x674 JUMPI DUP2 ISZERO PUSH2 0x641 JUMPI DUP3 SUB SWAP2 DUP3 GT PUSH2 0x62D JUMPI DUP2 DUP2 GT ISZERO PUSH2 0x625 JUMPI POP SWAP2 JUMPDEST PUSH2 0x2BC DUP1 DUP5 MUL SWAP1 DUP5 ISZERO SWAP1 DUP6 DUP4 DIV EQ DUP2 OR ISZERO PUSH2 0x611 JUMPI PUSH2 0x2710 SWAP2 PUSH2 0x12C SWAP2 DUP3 DUP8 MUL SWAP3 DUP8 DUP5 DIV EQ OR ISZERO PUSH2 0x5FD JUMPI PUSH1 0x44 CALLDATALOAD DUP8 MSTORE PUSH1 0x5 PUSH1 0x20 MSTORE DUP7 PUSH1 0x40 DUP2 KECCAK256 SLOAD PUSH1 0x1 DUP1 PUSH1 0xA0 SHL SUB PUSH1 0x1 SLOAD AND SWAP1 DUP2 EXTCODESIZE ISZERO PUSH2 0x1B3 JUMPI PUSH1 0x40 MLOAD PUSH4 0x2240A9AD PUSH1 0xE0 SHL DUP2 MSTORE PUSH1 0x24 DUP1 CALLDATALOAD PUSH1 0x4 DUP4 ADD MSTORE DUP2 ADD SWAP2 SWAP1 SWAP2 MSTORE PUSH1 0x64 DUP1 CALLDATALOAD PUSH1 0x1 PUSH1 0x1 PUSH1 0xA0 SHL SUB AND PUSH1 0x44 DUP4 ADD MSTORE DUP7 DUP6 DIV SWAP1 DUP3 ADD MSTORE PUSH1 0xA4 DUP1 CALLDATALOAD PUSH1 0x84 DUP4 ADD MSTORE SWAP1 SWAP3 SWAP2 DUP4 SWAP2 SWAP1 DUP3 SWAP1 DUP5 SWAP1 GAS CALL DUP1 ISZERO PUSH2 0x5F2 JUMPI PUSH2 0x5DF JUMPI JUMPDEST POP PUSH1 0x1 SLOAD PUSH1 0x4 SLOAD DUP9 SWAP2 PUSH1 0x1 PUSH1 0x1 PUSH1 0xA0 SHL SUB AND DUP1 EXTCODESIZE ISZERO PUSH2 0x1B3 JUMPI PUSH1 0x40 MLOAD PUSH4 0x2240A9AD PUSH1 0xE0 SHL DUP2 MSTORE PUSH1 0x24 DUP1 CALLDATALOAD PUSH1 0x4 DUP4 ADD MSTORE DUP2 ADD SWAP3 SWAP1 SWAP3 MSTORE PUSH1 0x64 DUP1 CALLDATALOAD PUSH1 0x1 PUSH1 0x1 PUSH1 0xA0 SHL SUB AND PUSH1 0x44 DUP5 ADD MSTORE DUP7 DUP7 DIV SWAP1 DUP4 ADD MSTORE PUSH1 0xA4 DUP1 CALLDATALOAD PUSH1 0x84 DUP5 ADD MSTORE DUP4 SWAP2 DUP4 SWAP2 SWAP1 DUP3 SWAP1 DUP5 SWAP1 GAS CALL DUP1 ISZERO PUSH2 0x5D4 JUMPI PUSH2 0x5BC JUMPI JUMPDEST POP POP PUSH1 0x2 DUP5 ADD SLOAD SWAP4 DUP7 DUP6 ADD DUP1 SWAP6 GT PUSH2 0x5A8 JUMPI SWAP1 PUSH1 0x3 DUP3 DUP7 PUSH1 0x2 DUP8 SWAP6 ADD SSTORE ADD DUP1 SLOAD PUSH8 0xFFFFFFFFFFFFFFFF PUSH1 0x40 SHL TIMESTAMP PUSH1 0x40 SHL AND SWAP1 PUSH8 0xFFFFFFFFFFFFFFFF PUSH1 0x40 SHL NOT AND OR SWAP1 SSTORE PUSH1 0x40 MLOAD SWAP7 DUP8 MSTORE DIV PUSH1 0x20 DUP7 ADD MSTORE DIV PUSH1 0x40 DUP5 ADD MSTORE PUSH1 0x60 DUP4 ADD MSTORE PUSH1 0x44 CALLDATALOAD SWAP2 PUSH32 0xF008C99BC1D62CC6A8BC0064B83E4BB4183440733F77B82FDF426BE94C13DA06 PUSH1 0x80 PUSH4 0xFFFFFFFF PUSH1 0x24 CALLDATALOAD SWAP5 AND SWAP3 LOG4 DUP1 RETURN JUMPDEST PUSH4 0x4E487B71 PUSH1 0xE0 SHL DUP9 MSTORE PUSH1 0x11 PUSH1 0x4 MSTORE PUSH1 0x24 DUP9 REVERT JUMPDEST PUSH2 0x5C5 SWAP1 PUSH2 0x9F3 JUMP JUMPDEST PUSH2 0x5D0 JUMPI DUP7 CODESIZE PUSH2 0x518 JUMP JUMPDEST DUP7 DUP1 REVERT JUMPDEST PUSH1 0x40 MLOAD RETURNDATASIZE DUP5 DUP3 RETURNDATACOPY RETURNDATASIZE SWAP1 REVERT JUMPDEST PUSH2 0x5EB SWAP1 SWAP8 SWAP2 SWAP8 PUSH2 0x9F3 JUMP JUMPDEST SWAP6 CODESIZE PUSH2 0x4AB JUMP JUMPDEST PUSH1 0x40 MLOAD RETURNDATASIZE DUP11 DUP3 RETURNDATACOPY RETURNDATASIZE SWAP1 REVERT JUMPDEST PUSH4 0x4E487B71 PUSH1 0xE0 SHL DUP8 MSTORE PUSH1 0x11 PUSH1 0x4 MSTORE PUSH1 0x24 DUP8 REVERT JUMPDEST PUSH4 0x4E487B71 PUSH1 0xE0 SHL DUP7 MSTORE PUSH1 0x11 PUSH1 0x4 MSTORE PUSH1 0x24 DUP7 REVERT JUMPDEST SWAP1 POP SWAP2 PUSH2 0x408 JUMP JUMPDEST PUSH4 0x4E487B71 PUSH1 0xE0 SHL DUP6 MSTORE PUSH1 0x11 PUSH1 0x4 MSTORE PUSH1 0x24 DUP6 REVERT JUMPDEST PUSH1 0x40 MLOAD PUSH3 0x461BCD PUSH1 0xE5 SHL DUP2 MSTORE PUSH1 0x20 PUSH1 0x4 DUP3 ADD MSTORE PUSH1 0xB PUSH1 0x24 DUP3 ADD MSTORE PUSH11 0x16915493D7D05353D55395 PUSH1 0xAA SHL PUSH1 0x44 DUP3 ADD MSTORE PUSH1 0x64 SWAP1 REVERT JUMPDEST PUSH1 0x40 MLOAD PUSH3 0x461BCD PUSH1 0xE5 SHL DUP2 MSTORE PUSH1 0x20 PUSH1 0x4 DUP3 ADD MSTORE PUSH1 0xC PUSH1 0x24 DUP3 ADD MSTORE PUSH12 0x1053149150511657D4105251 PUSH1 0xA2 SHL PUSH1 0x44 DUP3 ADD MSTORE PUSH1 0x64 SWAP1 REVERT JUMPDEST PUSH1 0x40 MLOAD PUSH3 0x461BCD PUSH1 0xE5 SHL DUP2 MSTORE PUSH1 0x20 PUSH1 0x4 DUP3 ADD MSTORE PUSH1 0xE PUSH1 0x24 DUP3 ADD MSTORE PUSH14 0x2727AFA222A1A620A920AA24A7A7 PUSH1 0x91 SHL PUSH1 0x44 DUP3 ADD MSTORE PUSH1 0x64 SWAP1 REVERT JUMPDEST PUSH1 0x2 SLOAD PUSH1 0x40 MLOAD PUSH4 0x2950B0A9 PUSH1 0xE2 SHL DUP2 MSTORE CALLER PUSH1 0x4 DUP3 ADD MSTORE SWAP1 PUSH1 0x20 SWAP1 DUP3 SWAP1 PUSH1 0x24 SWAP1 DUP3 SWAP1 PUSH1 0x1 PUSH1 0x1 PUSH1 0xA0 SHL SUB AND GAS STATICCALL SWAP1 DUP2 ISZERO PUSH2 0x7BF JUMPI DUP5 SWAP2 PUSH2 0x756 JUMPI JUMPDEST POP PUSH2 0x3B6 JUMPI PUSH1 0x40 MLOAD PUSH3 0x461BCD PUSH1 0xE5 SHL DUP2 MSTORE PUSH1 0x20 PUSH1 0x4 DUP3 ADD MSTORE PUSH1 0x11 PUSH1 0x24 DUP3 ADD MSTORE PUSH17 0x4E4F545F4C4943454E5345445F42414E4B PUSH1 0x78 SHL PUSH1 0x44 DUP3 ADD MSTORE PUSH1 0x64 SWAP1 REVERT JUMPDEST SWAP1 POP PUSH1 0x20 RETURNDATASIZE PUSH1 0x20 GT PUSH2 0x7B8 JUMPI JUMPDEST PUSH1 0x1F DUP2 ADD PUSH1 0x1F NOT AND DUP3 ADD PUSH8 0xFFFFFFFFFFFFFFFF DUP2 GT DUP4 DUP3 LT OR PUSH2 0x7A4 JUMPI PUSH1 0x20 SWAP2 DUP4 SWAP2 PUSH1 0x40 MSTORE DUP2 ADD SUB SLT PUSH2 0x7A0 JUMPI MLOAD DUP1 ISZERO ISZERO DUP2 SUB PUSH2 0x7A0 JUMPI CODESIZE PUSH2 0x718 JUMP JUMPDEST DUP4 DUP1 REVERT JUMPDEST PUSH4 0x4E487B71 PUSH1 0xE0 SHL DUP7 MSTORE PUSH1 0x41 PUSH1 0x4 MSTORE PUSH1 0x24 DUP7 REVERT JUMPDEST POP RETURNDATASIZE PUSH2 0x763 JUMP JUMPDEST PUSH1 0x40 MLOAD RETURNDATASIZE DUP7 DUP3 RETURNDATACOPY RETURNDATASIZE SWAP1 REVERT JUMPDEST POP DUP1 REVERT JUMPDEST POP CALLVALUE PUSH2 0xEF JUMPI PUSH1 0x20 CALLDATASIZE PUSH1 0x3 NOT ADD SLT PUSH2 0xEF JUMPI PUSH1 0x20 SWAP1 PUSH1 0xFF SWAP1 PUSH1 0x40 SWAP1 PUSH1 0x1 PUSH1 0x1 PUSH1 0xA0 SHL SUB PUSH2 0x7F9 PUSH2 0x9DD JUMP JUMPDEST AND DUP2 MSTORE PUSH1 0x3 DUP5 MSTORE KECCAK256 SLOAD AND PUSH1 0x40 MLOAD SWAP1 ISZERO ISZERO DUP2 MSTORE RETURN JUMPDEST POP CALLVALUE PUSH2 0xEF JUMPI PUSH1 0x40 CALLDATASIZE PUSH1 0x3 NOT ADD SLT PUSH2 0xEF JUMPI PUSH4 0xFFFFFFFF PUSH2 0x82C PUSH2 0x9C5 JUMP JUMPDEST AND DUP2 MSTORE PUSH1 0x6 PUSH1 0x20 MSTORE PUSH1 0x40 DUP2 KECCAK256 PUSH1 0x24 CALLDATALOAD DUP3 MSTORE PUSH1 0x20 MSTORE PUSH1 0x40 DUP2 KECCAK256 PUSH1 0x40 MLOAD PUSH1 0xA0 DUP2 ADD SWAP1 PUSH8 0xFFFFFFFFFFFFFFFF SWAP2 DUP2 DUP2 LT DUP4 DUP3 GT OR PUSH2 0x8B9 JUMPI PUSH1 0x20 SWAP5 POP PUSH1 0x40 MSTORE DUP3 SLOAD DUP2 MSTORE PUSH1 0x80 PUSH1 0x1 DUP5 ADD SLOAD SWAP3 DUP4 DUP7 DUP5 ADD MSTORE PUSH1 0x3 PUSH1 0x2 DUP7 ADD SLOAD SWAP6 DUP7 PUSH1 0x40 DUP7 ADD MSTORE ADD SLOAD DUP2 DUP2 AND PUSH1 0x60 DUP6 ADD MSTORE PUSH1 0x40 SHR AND SWAP2 ADD MSTORE DUP1 ISZERO ISZERO SWAP2 DUP3 PUSH2 0x8AE JUMPI JUMPDEST POP POP PUSH1 0x40 MLOAD SWAP1 ISZERO ISZERO DUP2 MSTORE RETURN JUMPDEST LT ISZERO SWAP1 POP CODESIZE DUP1 PUSH2 0x8A2 JUMP JUMPDEST PUSH4 0x4E487B71 PUSH1 0xE0 SHL DUP6 MSTORE PUSH1 0x41 PUSH1 0x4 MSTORE PUSH1 0x24 DUP6 REVERT JUMPDEST POP CALLVALUE PUSH2 0xEF JUMPI DUP1 PUSH1 0x3 NOT CALLDATASIZE ADD SLT PUSH2 0xEF JUMPI PUSH1 0x20 PUSH1 0x40 MLOAD PUSH2 0x3E8 DUP2 MSTORE RETURN JUMPDEST POP CALLVALUE PUSH2 0xEF JUMPI PUSH1 0x40 CALLDATASIZE PUSH1 0x3 NOT ADD SLT PUSH2 0xEF JUMPI PUSH1 0x40 PUSH1 0xA0 SWAP2 PUSH4 0xFFFFFFFF PUSH2 0x90E PUSH2 0x9C5 JUMP JUMPDEST AND DUP2 MSTORE PUSH1 0x6 PUSH1 0x20 MSTORE DUP2 DUP2 KECCAK256 PUSH1 0x24 CALLDATALOAD DUP3 MSTORE PUSH1 0x20 MSTORE KECCAK256 DUP1 SLOAD SWAP1 PUSH1 0x1 DUP2 ADD SLOAD SWAP1 PUSH1 0x3 PUSH1 0x2 DUP3 ADD SLOAD SWAP2 ADD SLOAD SWAP1 PUSH8 0xFFFFFFFFFFFFFFFF SWAP3 PUSH1 0x40 MLOAD SWAP5 DUP6 MSTORE PUSH1 0x20 DUP6 ADD MSTORE PUSH1 0x40 DUP5 ADD MSTORE DUP2 DUP2 AND PUSH1 0x60 DUP5 ADD MSTORE PUSH1 0x40 SHR AND PUSH1 0x80 DUP3 ADD MSTORE RETURN JUMPDEST POP CALLVALUE PUSH2 0xEF JUMPI DUP1 PUSH1 0x3 NOT CALLDATASIZE ADD SLT PUSH2 0xEF JUMPI PUSH1 0x1 SLOAD PUSH1 0x40 MLOAD PUSH1 0x1 PUSH1 0x1 PUSH1 0xA0 SHL SUB SWAP1 SWAP2 AND DUP2 MSTORE PUSH1 0x20 SWAP1 RETURN JUMPDEST POP CALLVALUE PUSH2 0xEF JUMPI DUP1 PUSH1 0x3 NOT CALLDATASIZE ADD SLT PUSH2 0xEF JUMPI PUSH1 0x20 PUSH1 0x40 MLOAD PUSH2 0x12C DUP2 MSTORE RETURN JUMPDEST SWAP1 POP CALLVALUE PUSH2 0x7CA JUMPI DUP2 PUSH1 0x3 NOT CALLDATASIZE ADD SLT PUSH2 0x7CA JUMPI PUSH1 0x20 SWAP1 PUSH1 0x4 SLOAD DUP2 MSTORE RETURN JUMPDEST PUSH1 0x4 CALLDATALOAD SWAP1 PUSH4 0xFFFFFFFF DUP3 AND DUP3 SUB PUSH2 0x9D8 JUMPI JUMP JUMPDEST PUSH1 0x0 DUP1 REVERT JUMPDEST PUSH1 0x4 CALLDATALOAD SWAP1 PUSH1 0x1 PUSH1 0x1 PUSH1 0xA0 SHL SUB DUP3 AND DUP3 SUB PUSH2 0x9D8 JUMPI JUMP JUMPDEST PUSH8 0xFFFFFFFFFFFFFFFF DUP2 GT PUSH2 0xA07 JUMPI PUSH1 0x40 MSTORE JUMP JUMPDEST PUSH4 0x4E487B71 PUSH1 0xE0 SHL PUSH1 0x0 MSTORE PUSH1 0x41 PUSH1 0x4 MSTORE PUSH1 0x24 PUSH1 0x0 REVERT JUMPDEST ISZERO PUSH2 0xA24 JUMPI JUMP JUMPDEST PUSH1 0x40 MLOAD PUSH3 0x461BCD PUSH1 0xE5 SHL DUP2 MSTORE PUSH1 0x20 PUSH1 0x4 DUP3 ADD MSTORE PUSH1 0x9 PUSH1 0x24 DUP3 ADD MSTORE PUSH9 0x2727AA2FA7ABA722A9 PUSH1 0xB9 SHL PUSH1 0x44 DUP3 ADD MSTORE PUSH1 0x64 SWAP1 REVERT INVALID LOG2 PUSH5 0x6970667358 0x22 SLT KECCAK256 SWAP14 PUSH29 0x59C0A586F6FF7FB0D84AB6369C579F66D5A368FCD80410ADE0D29623F DUP5 PUSH5 0x736F6C6343 STOP ADDMOD XOR STOP CALLER "},"methodIdentifiers":{"CONFED_BPS()":"531763f2","REPUBLIC_BPS()":"b3ca3ed8","TAX_BPS()":"68f4a786","confederationBudgetAccountId()":"0a0f9ce3","declareProfit(uint32,bytes32,bytes32,uint256)":"af9d0ac2","isCompliant(uint32,bytes32)":"75162e49","ledger()":"56397c35","licenseRegistry()":"c2fda487","owner()":"8da5cb5b","payTax(uint32,bytes32,bytes32,address,uint256,bytes32)":"82e1f506","recordOf(uint32,bytes32)":"649bf0af","republicBudgetAccountIdOf(bytes32)":"fc06a77f","setRepublic(bytes32,bytes32)":"e17b2190","setTrustedBankCaller(address,bool)":"d5f1258b","trustedBankCaller(address)":"76083da0"}}}}}