{"contracts/StateTreasury.sol":{"StateTreasury":{"abi":[{"inputs":[{"internalType":"bytes32","name":"accountId","type":"bytes32"}],"stateMutability":"nonpayable","type":"constructor"},{"inputs":[],"name":"treasuryAccountId","outputs":[{"internalType":"bytes32","name":"","type":"bytes32"}],"stateMutability":"view","type":"function"}],"evm":{"bytecode":{"linkReferences":{},"object":"60a03461005857601f61010c38819003918201601f19168301916001600160401b0383118484101761005d57808492602094604052833981010312610058575160805260405160989081610074823960805181603b0152f35b600080fd5b634e487b7160e01b600052604160045260246000fdfe6080806040526004361015601257600080fd5b600090813560e01c631b6f404e14602857600080fd5b34605e5781600319360112605e576020907f00000000000000000000000000000000000000000000000000000000000000008152f35b5080fdfea2646970667358221220534b58d02e6bea651b86fb5eb0af360895193216bc97eadb54bbec80ea51150264736f6c63430008180033","opcodes":"PUSH1 0xA0 CALLVALUE PUSH2 0x58 JUMPI PUSH1 0x1F PUSH2 0x10C CODESIZE DUP2 SWAP1 SUB SWAP2 DUP3 ADD PUSH1 0x1F NOT AND DUP4 ADD SWAP2 PUSH1 0x1 PUSH1 0x1 PUSH1 0x40 SHL SUB DUP4 GT DUP5 DUP5 LT OR PUSH2 0x5D JUMPI DUP1 DUP5 SWAP3 PUSH1 0x20 SWAP5 PUSH1 0x40 MSTORE DUP4 CODECOPY DUP2 ADD SUB SLT PUSH2 0x58 JUMPI MLOAD PUSH1 0x80 MSTORE PUSH1 0x40 MLOAD PUSH1 0x98 SWAP1 DUP2 PUSH2 0x74 DUP3 CODECOPY PUSH1 0x80 MLOAD DUP2 PUSH1 0x3B ADD MSTORE RETURN JUMPDEST PUSH1 0x0 DUP1 REVERT JUMPDEST PUSH4 0x4E487B71 PUSH1 0xE0 SHL PUSH1 0x0 MSTORE PUSH1 0x41 PUSH1 0x4 MSTORE PUSH1 0x24 PUSH1 0x0 REVERT INVALID PUSH1 0x80 DUP1 PUSH1 0x40 MSTORE PUSH1 0x4 CALLDATASIZE LT ISZERO PUSH1 0x12 JUMPI PUSH1 0x0 DUP1 REVERT JUMPDEST PUSH1 0x0 SWAP1 DUP2 CALLDATALOAD PUSH1 0xE0 SHR PUSH4 0x1B6F404E EQ PUSH1 0x28 JUMPI PUSH1 0x0 DUP1 REVERT JUMPDEST CALLVALUE PUSH1 0x5E JUMPI DUP2 PUSH1 0x3 NOT CALLDATASIZE ADD SLT PUSH1 0x5E JUMPI PUSH1 0x20 SWAP1 PUSH32 0x0 DUP2 MSTORE RETURN JUMPDEST POP DUP1 REVERT INVALID LOG2 PUSH5 0x6970667358 0x22 SLT KECCAK256 MSTORE8 0x4B PC 0xD0 0x2E PUSH12 0xEA651B86FB5EB0AF36089519 ORIGIN AND 0xBC SWAP8 0xEA 0xDB SLOAD 0xBB 0xEC DUP1 0xEA MLOAD ISZERO MUL PUSH5 0x736F6C6343 STOP ADDMOD XOR STOP CALLER "},"methodIdentifiers":{"treasuryAccountId()":"1b6f404e"}}}}}