{"contracts/FeeEngine.sol":{"FeeEngine":{"abi":[{"inputs":[{"internalType":"address","name":"ledgerAddr","type":"address"},{"internalType":"bytes32","name":"sinkAccountId","type":"bytes32"}],"stateMutability":"nonpayable","type":"constructor"},{"anonymous":false,"inputs":[{"indexed":true,"internalType":"address","name":"collector","type":"address"},{"indexed":false,"internalType":"bool","name":"ok","type":"bool"}],"name":"CollectorSet","type":"event"},{"anonymous":false,"inputs":[{"indexed":true,"internalType":"bytes32","name":"payerAccountId","type":"bytes32"},{"indexed":true,"internalType":"bytes32","name":"sinkAccountId","type":"bytes32"},{"indexed":true,"internalType":"address","name":"asset","type":"address"},{"indexed":false,"internalType":"uint256","name":"fee","type":"uint256"},{"indexed":false,"internalType":"bytes32","name":"memo","type":"bytes32"}],"name":"FeeCollected","type":"event"},{"anonymous":false,"inputs":[{"indexed":false,"internalType":"uint256","name":"amount","type":"uint256"},{"indexed":false,"internalType":"uint256","name":"fee","type":"uint256"}],"name":"FeeQuoted","type":"event"},{"anonymous":false,"inputs":[{"indexed":true,"internalType":"bytes32","name":"feeSinkAccountId","type":"bytes32"}],"name":"FeeSinkSet","type":"event"},{"anonymous":false,"inputs":[{"indexed":true,"internalType":"address","name":"ledger","type":"address"}],"name":"LedgerSet","type":"event"},{"anonymous":false,"inputs":[{"indexed":true,"internalType":"address","name":"oldOwner","type":"address"},{"indexed":true,"internalType":"address","name":"newOwner","type":"address"}],"name":"OwnerChanged","type":"event"},{"inputs":[],"name":"FEE_BPS","outputs":[{"internalType":"uint16","name":"","type":"uint16"}],"stateMutability":"view","type":"function"},{"inputs":[{"internalType":"bytes32","name":"payerAccountId","type":"bytes32"},{"internalType":"address","name":"asset","type":"address"},{"internalType":"uint256","name":"amount","type":"uint256"},{"internalType":"bytes32","name":"memo","type":"bytes32"}],"name":"collectFee","outputs":[{"internalType":"uint256","name":"fee","type":"uint256"}],"stateMutability":"nonpayable","type":"function"},{"inputs":[],"name":"feeSinkAccountId","outputs":[{"internalType":"bytes32","name":"","type":"bytes32"}],"stateMutability":"view","type":"function"},{"inputs":[{"internalType":"address","name":"","type":"address"}],"name":"isCollector","outputs":[{"internalType":"bool","name":"","type":"bool"}],"stateMutability":"view","type":"function"},{"inputs":[],"name":"ledger","outputs":[{"internalType":"contract IAltanBankLedgerFeeOps","name":"","type":"address"}],"stateMutability":"view","type":"function"},{"inputs":[],"name":"owner","outputs":[{"internalType":"address","name":"","type":"address"}],"stateMutability":"view","type":"function"},{"inputs":[{"internalType":"uint256","name":"amount","type":"uint256"}],"name":"quoteFee","outputs":[{"internalType":"uint256","name":"","type":"uint256"}],"stateMutability":"pure","type":"function"},{"inputs":[{"internalType":"address","name":"collector","type":"address"},{"internalType":"bool","name":"ok","type":"bool"}],"name":"setCollector","outputs":[],"stateMutability":"nonpayable","type":"function"},{"inputs":[{"internalType":"bytes32","name":"sinkAccountId","type":"bytes32"}],"name":"setFeeSink","outputs":[],"stateMutability":"nonpayable","type":"function"},{"inputs":[{"internalType":"address","name":"ledgerAddr","type":"address"}],"name":"setLedger","outputs":[],"stateMutability":"nonpayable","type":"function"},{"inputs":[{"internalType":"address","name":"newOwner","type":"address"}],"name":"transferOwnership","outputs":[],"stateMutability":"nonpayable","type":"function"}],"evm":{"bytecode":{"linkReferences":{},"object":"6080346100cd57601f61070238819003918201601f19168301916001600160401b038311848410176100d25780849260409485528339810103126100cd5780516001600160a01b03811691908290036100cd57602001517fcc4cdb0a041745498b0d19f6700f523c5bd8797e8ac6808d5030dd39af56a09e60018060a01b0319836000913381845416178355600154161760015582600255604051937fbc62e69a31739e36d57d56991ac20e4e507a7edfff9070e6a11df5a37b8b4e6f8280a280a261061990816100e98239f35b600080fd5b634e487b7160e01b600052604160045260246000fdfe604060808152600436101561001357600080fd5b600090813560e01c9081632205f568146103c95781633246887d1461035157816356397c3514610328578163581b3a051461030957816362129804146102cb5781638da5cb5b146102a35781639d709b9a14610218578163a0f7a330146101c4578163bf333f2c146101a8578163df2cc13f14610111575063f2fde38b1461009a57600080fd5b3461010e57602036600319011261010e576100b36103ea565b81546001600160a01b03808216926100cc338514610436565b1680926100da82151561046e565b7fb532073b38c83145e3e5135377a08bf9aab55bc0fd7c1179cd4fb995d2a5159c8580a36001600160a01b03191617815580f35b80fd5b9050346101a457806003193601126101a45761012b6103ea565b602435908115158092036101a0577fdd0c37342e4622f900a3159af866c907f3197be55727e1cabbfc4e213e23b3049160209160018060a01b0390610174828854163314610436565b169361018185151561046e565b8486526003835280862060ff1981541660ff841617905551908152a280f35b8380fd5b5080fd5b9050346101a457816003193601126101a4576020905160038152f35b823461010e57602036600319011261010e576004356101ed60018060a01b038354163314610436565b806002557fcc4cdb0a041745498b0d19f6700f523c5bd8797e8ac6808d5030dd39af56a09e8280a280f35b9050346101a45760803660031901126101a457602435916001600160a01b038316830361010e578160ff913381526003602052205416156102705761026960209260643590604435906004356104a6565b9051908152f35b5162461bcd60e51b815260206004820152600d60248201526c2727aa2fa1a7a62622a1aa27a960991b6044820152606490fd5b9050346101a457816003193601126101a457905490516001600160a01b039091168152602090f35b9050346101a45760203660031901126101a45760209160ff9082906001600160a01b036102f66103ea565b1681526003855220541690519015158152f35b9050346101a457816003193601126101a4576020906002549051908152f35b9050346101a457816003193601126101a45760015490516001600160a01b039091168152602090f35b823461010e57602036600319011261010e5761036b6103ea565b81546001600160a01b0391906103849083163314610436565b1661039081151561046e565b600180546001600160a01b031916821790557fbc62e69a31739e36d57d56991ac20e4e507a7edfff9070e6a11df5a37b8b4e6f8280a280f35b9050346101a45760203660031901126101a457602090610269600435610405565b600435906001600160a01b038216820361040057565b600080fd5b60038102908082046003149015171561042057612710900490565b634e487b7160e01b600052601160045260246000fd5b1561043d57565b60405162461bcd60e51b81526020600482015260096024820152682727aa2fa7aba722a960b91b6044820152606490fd5b1561047557565b60405162461bcd60e51b81526020600482015260096024820152682d22a927afa0a2222960b91b6044820152606490fd5b93929091936104b485610405565b947f9dc575e8f65a8105f6e4384c04f904189d58d6c2c38e63b74dca83b52f11c150604080928151908152886020820152a185156105d9576001546002546001600160a01b0391821695919291863b156104005760a46000928385519687948593632240a9ad60e01b85528a6004860152602485015216998a60448401528c60648401528960848401525af180156105ce57610580575b7f0adb7bfbf5bba1b66e4a7820bf833df76ec4c9c4ece17df4a8080e814e84d1ef9150600254938151908882526020820152a4565b67ffffffffffffffff82116105b8577f0adb7bfbf5bba1b66e4a7820bf833df76ec4c9c4ece17df4a8080e814e84d1ef91815261054b565b634e487b7160e01b600052604160045260246000fd5b50513d6000823e3d90fd5b506000945050505056fea2646970667358221220da82c474aa68d70e657b55f12cae22e127dd61ff66e5da1a43da665b3e5b287e64736f6c63430008180033","opcodes":"PUSH1 0x80 CALLVALUE PUSH2 0xCD JUMPI PUSH1 0x1F PUSH2 0x702 CODESIZE DUP2 SWAP1 SUB SWAP2 DUP3 ADD PUSH1 0x1F NOT AND DUP4 ADD SWAP2 PUSH1 0x1 PUSH1 0x1 PUSH1 0x40 SHL SUB DUP4 GT DUP5 DUP5 LT OR PUSH2 0xD2 JUMPI DUP1 DUP5 SWAP3 PUSH1 0x40 SWAP5 DUP6 MSTORE DUP4 CODECOPY DUP2 ADD SUB SLT PUSH2 0xCD JUMPI DUP1 MLOAD PUSH1 0x1 PUSH1 0x1 PUSH1 0xA0 SHL SUB DUP2 AND SWAP2 SWAP1 DUP3 SWAP1 SUB PUSH2 0xCD JUMPI PUSH1 0x20 ADD MLOAD PUSH32 0xCC4CDB0A041745498B0D19F6700F523C5BD8797E8AC6808D5030DD39AF56A09E PUSH1 0x1 DUP1 PUSH1 0xA0 SHL SUB NOT DUP4 PUSH1 0x0 SWAP2 CALLER DUP2 DUP5 SLOAD AND OR DUP4 SSTORE PUSH1 0x1 SLOAD AND OR PUSH1 0x1 SSTORE DUP3 PUSH1 0x2 SSTORE PUSH1 0x40 MLOAD SWAP4 PUSH32 0xBC62E69A31739E36D57D56991AC20E4E507A7EDFFF9070E6A11DF5A37B8B4E6F DUP3 DUP1 LOG2 DUP1 LOG2 PUSH2 0x619 SWAP1 DUP2 PUSH2 0xE9 DUP3 CODECOPY RETURN JUMPDEST PUSH1 0x0 DUP1 REVERT JUMPDEST PUSH4 0x4E487B71 PUSH1 0xE0 SHL PUSH1 0x0 MSTORE PUSH1 0x41 PUSH1 0x4 MSTORE PUSH1 0x24 PUSH1 0x0 REVERT INVALID PUSH1 0x40 PUSH1 0x80 DUP2 MSTORE PUSH1 0x4 CALLDATASIZE LT ISZERO PUSH2 0x13 JUMPI PUSH1 0x0 DUP1 REVERT JUMPDEST PUSH1 0x0 SWAP1 DUP2 CALLDATALOAD PUSH1 0xE0 SHR SWAP1 DUP2 PUSH4 0x2205F568 EQ PUSH2 0x3C9 JUMPI DUP2 PUSH4 0x3246887D EQ PUSH2 0x351 JUMPI DUP2 PUSH4 0x56397C35 EQ PUSH2 0x328 JUMPI DUP2 PUSH4 0x581B3A05 EQ PUSH2 0x309 JUMPI DUP2 PUSH4 0x62129804 EQ PUSH2 0x2CB JUMPI DUP2 PUSH4 0x8DA5CB5B EQ PUSH2 0x2A3 JUMPI DUP2 PUSH4 0x9D709B9A EQ PUSH2 0x218 JUMPI DUP2 PUSH4 0xA0F7A330 EQ PUSH2 0x1C4 JUMPI DUP2 PUSH4 0xBF333F2C EQ PUSH2 0x1A8 JUMPI DUP2 PUSH4 0xDF2CC13F EQ PUSH2 0x111 JUMPI POP PUSH4 0xF2FDE38B EQ PUSH2 0x9A JUMPI PUSH1 0x0 DUP1 REVERT JUMPDEST CALLVALUE PUSH2 0x10E JUMPI PUSH1 0x20 CALLDATASIZE PUSH1 0x3 NOT ADD SLT PUSH2 0x10E JUMPI PUSH2 0xB3 PUSH2 0x3EA JUMP JUMPDEST DUP2 SLOAD PUSH1 0x1 PUSH1 0x1 PUSH1 0xA0 SHL SUB DUP1 DUP3 AND SWAP3 PUSH2 0xCC CALLER DUP6 EQ PUSH2 0x436 JUMP JUMPDEST AND DUP1 SWAP3 PUSH2 0xDA DUP3 ISZERO ISZERO PUSH2 0x46E JUMP JUMPDEST PUSH32 0xB532073B38C83145E3E5135377A08BF9AAB55BC0FD7C1179CD4FB995D2A5159C DUP6 DUP1 LOG3 PUSH1 0x1 PUSH1 0x1 PUSH1 0xA0 SHL SUB NOT AND OR DUP2 SSTORE DUP1 RETURN JUMPDEST DUP1 REVERT JUMPDEST SWAP1 POP CALLVALUE PUSH2 0x1A4 JUMPI DUP1 PUSH1 0x3 NOT CALLDATASIZE ADD SLT PUSH2 0x1A4 JUMPI PUSH2 0x12B PUSH2 0x3EA JUMP JUMPDEST PUSH1 0x24 CALLDATALOAD SWAP1 DUP2 ISZERO ISZERO DUP1 SWAP3 SUB PUSH2 0x1A0 JUMPI PUSH32 0xDD0C37342E4622F900A3159AF866C907F3197BE55727E1CABBFC4E213E23B304 SWAP2 PUSH1 0x20 SWAP2 PUSH1 0x1 DUP1 PUSH1 0xA0 SHL SUB SWAP1 PUSH2 0x174 DUP3 DUP9 SLOAD AND CALLER EQ PUSH2 0x436 JUMP JUMPDEST AND SWAP4 PUSH2 0x181 DUP6 ISZERO ISZERO PUSH2 0x46E JUMP JUMPDEST DUP5 DUP7 MSTORE PUSH1 0x3 DUP4 MSTORE DUP1 DUP7 KECCAK256 PUSH1 0xFF NOT DUP2 SLOAD AND PUSH1 0xFF DUP5 AND OR SWAP1 SSTORE MLOAD SWAP1 DUP2 MSTORE LOG2 DUP1 RETURN JUMPDEST DUP4 DUP1 REVERT JUMPDEST POP DUP1 REVERT JUMPDEST SWAP1 POP CALLVALUE PUSH2 0x1A4 JUMPI DUP2 PUSH1 0x3 NOT CALLDATASIZE ADD SLT PUSH2 0x1A4 JUMPI PUSH1 0x20 SWAP1 MLOAD PUSH1 0x3 DUP2 MSTORE RETURN JUMPDEST DUP3 CALLVALUE PUSH2 0x10E JUMPI PUSH1 0x20 CALLDATASIZE PUSH1 0x3 NOT ADD SLT PUSH2 0x10E JUMPI PUSH1 0x4 CALLDATALOAD PUSH2 0x1ED PUSH1 0x1 DUP1 PUSH1 0xA0 SHL SUB DUP4 SLOAD AND CALLER EQ PUSH2 0x436 JUMP JUMPDEST DUP1 PUSH1 0x2 SSTORE PUSH32 0xCC4CDB0A041745498B0D19F6700F523C5BD8797E8AC6808D5030DD39AF56A09E DUP3 DUP1 LOG2 DUP1 RETURN JUMPDEST SWAP1 POP CALLVALUE PUSH2 0x1A4 JUMPI PUSH1 0x80 CALLDATASIZE PUSH1 0x3 NOT ADD SLT PUSH2 0x1A4 JUMPI PUSH1 0x24 CALLDATALOAD SWAP2 PUSH1 0x1 PUSH1 0x1 PUSH1 0xA0 SHL SUB DUP4 AND DUP4 SUB PUSH2 0x10E JUMPI DUP2 PUSH1 0xFF SWAP2 CALLER DUP2 MSTORE PUSH1 0x3 PUSH1 0x20 MSTORE KECCAK256 SLOAD AND ISZERO PUSH2 0x270 JUMPI PUSH2 0x269 PUSH1 0x20 SWAP3 PUSH1 0x64 CALLDATALOAD SWAP1 PUSH1 0x44 CALLDATALOAD SWAP1 PUSH1 0x4 CALLDATALOAD PUSH2 0x4A6 JUMP JUMPDEST SWAP1 MLOAD SWAP1 DUP2 MSTORE RETURN JUMPDEST MLOAD PUSH3 0x461BCD PUSH1 0xE5 SHL DUP2 MSTORE PUSH1 0x20 PUSH1 0x4 DUP3 ADD MSTORE PUSH1 0xD PUSH1 0x24 DUP3 ADD MSTORE PUSH13 0x2727AA2FA1A7A62622A1AA27A9 PUSH1 0x99 SHL PUSH1 0x44 DUP3 ADD MSTORE PUSH1 0x64 SWAP1 REVERT JUMPDEST SWAP1 POP CALLVALUE PUSH2 0x1A4 JUMPI DUP2 PUSH1 0x3 NOT CALLDATASIZE ADD SLT PUSH2 0x1A4 JUMPI SWAP1 SLOAD SWAP1 MLOAD PUSH1 0x1 PUSH1 0x1 PUSH1 0xA0 SHL SUB SWAP1 SWAP2 AND DUP2 MSTORE PUSH1 0x20 SWAP1 RETURN JUMPDEST SWAP1 POP CALLVALUE PUSH2 0x1A4 JUMPI PUSH1 0x20 CALLDATASIZE PUSH1 0x3 NOT ADD SLT PUSH2 0x1A4 JUMPI PUSH1 0x20 SWAP2 PUSH1 0xFF SWAP1 DUP3 SWAP1 PUSH1 0x1 PUSH1 0x1 PUSH1 0xA0 SHL SUB PUSH2 0x2F6 PUSH2 0x3EA JUMP JUMPDEST AND DUP2 MSTORE PUSH1 0x3 DUP6 MSTORE KECCAK256 SLOAD AND SWAP1 MLOAD SWAP1 ISZERO ISZERO DUP2 MSTORE RETURN JUMPDEST SWAP1 POP CALLVALUE PUSH2 0x1A4 JUMPI DUP2 PUSH1 0x3 NOT CALLDATASIZE ADD SLT PUSH2 0x1A4 JUMPI PUSH1 0x20 SWAP1 PUSH1 0x2 SLOAD SWAP1 MLOAD SWAP1 DUP2 MSTORE RETURN JUMPDEST SWAP1 POP CALLVALUE PUSH2 0x1A4 JUMPI DUP2 PUSH1 0x3 NOT CALLDATASIZE ADD SLT PUSH2 0x1A4 JUMPI PUSH1 0x1 SLOAD SWAP1 MLOAD PUSH1 0x1 PUSH1 0x1 PUSH1 0xA0 SHL SUB SWAP1 SWAP2 AND DUP2 MSTORE PUSH1 0x20 SWAP1 RETURN JUMPDEST DUP3 CALLVALUE PUSH2 0x10E JUMPI PUSH1 0x20 CALLDATASIZE PUSH1 0x3 NOT ADD SLT PUSH2 0x10E JUMPI PUSH2 0x36B PUSH2 0x3EA JUMP JUMPDEST DUP2 SLOAD PUSH1 0x1 PUSH1 0x1 PUSH1 0xA0 SHL SUB SWAP2 SWAP1 PUSH2 0x384 SWAP1 DUP4 AND CALLER EQ PUSH2 0x436 JUMP JUMPDEST AND PUSH2 0x390 DUP2 ISZERO ISZERO PUSH2 0x46E JUMP JUMPDEST PUSH1 0x1 DUP1 SLOAD PUSH1 0x1 PUSH1 0x1 PUSH1 0xA0 SHL SUB NOT AND DUP3 OR SWAP1 SSTORE PUSH32 0xBC62E69A31739E36D57D56991AC20E4E507A7EDFFF9070E6A11DF5A37B8B4E6F DUP3 DUP1 LOG2 DUP1 RETURN JUMPDEST SWAP1 POP CALLVALUE PUSH2 0x1A4 JUMPI PUSH1 0x20 CALLDATASIZE PUSH1 0x3 NOT ADD SLT PUSH2 0x1A4 JUMPI PUSH1 0x20 SWAP1 PUSH2 0x269 PUSH1 0x4 CALLDATALOAD PUSH2 0x405 JUMP JUMPDEST PUSH1 0x4 CALLDATALOAD SWAP1 PUSH1 0x1 PUSH1 0x1 PUSH1 0xA0 SHL SUB DUP3 AND DUP3 SUB PUSH2 0x400 JUMPI JUMP JUMPDEST PUSH1 0x0 DUP1 REVERT JUMPDEST PUSH1 0x3 DUP2 MUL SWAP1 DUP1 DUP3 DIV PUSH1 0x3 EQ SWAP1 ISZERO OR ISZERO PUSH2 0x420 JUMPI PUSH2 0x2710 SWAP1 DIV SWAP1 JUMP JUMPDEST PUSH4 0x4E487B71 PUSH1 0xE0 SHL PUSH1 0x0 MSTORE PUSH1 0x11 PUSH1 0x4 MSTORE PUSH1 0x24 PUSH1 0x0 REVERT JUMPDEST ISZERO PUSH2 0x43D JUMPI JUMP JUMPDEST PUSH1 0x40 MLOAD PUSH3 0x461BCD PUSH1 0xE5 SHL DUP2 MSTORE PUSH1 0x20 PUSH1 0x4 DUP3 ADD MSTORE PUSH1 0x9 PUSH1 0x24 DUP3 ADD MSTORE PUSH9 0x2727AA2FA7ABA722A9 PUSH1 0xB9 SHL PUSH1 0x44 DUP3 ADD MSTORE PUSH1 0x64 SWAP1 REVERT JUMPDEST ISZERO PUSH2 0x475 JUMPI JUMP JUMPDEST PUSH1 0x40 MLOAD PUSH3 0x461BCD PUSH1 0xE5 SHL DUP2 MSTORE PUSH1 0x20 PUSH1 0x4 DUP3 ADD MSTORE PUSH1 0x9 PUSH1 0x24 DUP3 ADD MSTORE PUSH9 0x2D22A927AFA0A22229 PUSH1 0xB9 SHL PUSH1 0x44 DUP3 ADD MSTORE PUSH1 0x64 SWAP1 REVERT JUMPDEST SWAP4 SWAP3 SWAP1 SWAP2 SWAP4 PUSH2 0x4B4 DUP6 PUSH2 0x405 JUMP JUMPDEST SWAP5 PUSH32 0x9DC575E8F65A8105F6E4384C04F904189D58D6C2C38E63B74DCA83B52F11C150 PUSH1 0x40 DUP1 SWAP3 DUP2 MLOAD SWAP1 DUP2 MSTORE DUP9 PUSH1 0x20 DUP3 ADD MSTORE LOG1 DUP6 ISZERO PUSH2 0x5D9 JUMPI PUSH1 0x1 SLOAD PUSH1 0x2 SLOAD PUSH1 0x1 PUSH1 0x1 PUSH1 0xA0 SHL SUB SWAP2 DUP3 AND SWAP6 SWAP2 SWAP3 SWAP2 DUP7 EXTCODESIZE ISZERO PUSH2 0x400 JUMPI PUSH1 0xA4 PUSH1 0x0 SWAP3 DUP4 DUP6 MLOAD SWAP7 DUP8 SWAP5 DUP6 SWAP4 PUSH4 0x2240A9AD PUSH1 0xE0 SHL DUP6 MSTORE DUP11 PUSH1 0x4 DUP7 ADD MSTORE PUSH1 0x24 DUP6 ADD MSTORE AND SWAP10 DUP11 PUSH1 0x44 DUP5 ADD MSTORE DUP13 PUSH1 0x64 DUP5 ADD MSTORE DUP10 PUSH1 0x84 DUP5 ADD MSTORE GAS CALL DUP1 ISZERO PUSH2 0x5CE JUMPI PUSH2 0x580 JUMPI JUMPDEST PUSH32 0xADB7BFBF5BBA1B66E4A7820BF833DF76EC4C9C4ECE17DF4A8080E814E84D1EF SWAP2 POP PUSH1 0x2 SLOAD SWAP4 DUP2 MLOAD SWAP1 DUP9 DUP3 MSTORE PUSH1 0x20 DUP3 ADD MSTORE LOG4 JUMP JUMPDEST PUSH8 0xFFFFFFFFFFFFFFFF DUP3 GT PUSH2 0x5B8 JUMPI PUSH32 0xADB7BFBF5BBA1B66E4A7820BF833DF76EC4C9C4ECE17DF4A8080E814E84D1EF SWAP2 DUP2 MSTORE PUSH2 0x54B JUMP JUMPDEST PUSH4 0x4E487B71 PUSH1 0xE0 SHL PUSH1 0x0 MSTORE PUSH1 0x41 PUSH1 0x4 MSTORE PUSH1 0x24 PUSH1 0x0 REVERT JUMPDEST POP MLOAD RETURNDATASIZE PUSH1 0x0 DUP3 RETURNDATACOPY RETURNDATASIZE SWAP1 REVERT JUMPDEST POP PUSH1 0x0 SWAP5 POP POP POP POP JUMP INVALID LOG2 PUSH5 0x6970667358 0x22 SLT KECCAK256 0xDA DUP3 0xC4 PUSH21 0xAA68D70E657B55F12CAE22E127DD61FF66E5DA1A43 0xDA PUSH7 0x5B3E5B287E6473 PUSH16 0x6C634300081800330000000000000000 "},"methodIdentifiers":{"FEE_BPS()":"bf333f2c","collectFee(bytes32,address,uint256,bytes32)":"9d709b9a","feeSinkAccountId()":"581b3a05","isCollector(address)":"62129804","ledger()":"56397c35","owner()":"8da5cb5b","quoteFee(uint256)":"2205f568","setCollector(address,bool)":"df2cc13f","setFeeSink(bytes32)":"a0f7a330","setLedger(address)":"3246887d","transferOwnership(address)":"f2fde38b"}}}}}