{"contracts/TaxEngine.sol":{"TaxEngine":{"abi":[{"inputs":[{"internalType":"address","name":"ledgerAddr","type":"address"},{"internalType":"bytes32","name":"confedAccountId","type":"bytes32"}],"stateMutability":"nonpayable","type":"constructor"},{"anonymous":false,"inputs":[{"indexed":true,"internalType":"address","name":"collector","type":"address"},{"indexed":false,"internalType":"bool","name":"ok","type":"bool"}],"name":"CollectorSet","type":"event"},{"anonymous":false,"inputs":[{"indexed":true,"internalType":"bytes32","name":"confederationAccountId","type":"bytes32"}],"name":"ConfederationSet","type":"event"},{"anonymous":false,"inputs":[{"indexed":true,"internalType":"address","name":"ledger","type":"address"}],"name":"LedgerSet","type":"event"},{"anonymous":false,"inputs":[{"indexed":true,"internalType":"address","name":"oldOwner","type":"address"},{"indexed":true,"internalType":"address","name":"newOwner","type":"address"}],"name":"OwnerChanged","type":"event"},{"anonymous":false,"inputs":[{"indexed":true,"internalType":"bytes32","name":"republicKey","type":"bytes32"},{"indexed":true,"internalType":"bytes32","name":"republicAccountId","type":"bytes32"}],"name":"RepublicSet","type":"event"},{"anonymous":false,"inputs":[{"indexed":true,"internalType":"bytes32","name":"payerAccountId","type":"bytes32"},{"indexed":true,"internalType":"bytes32","name":"republicKey","type":"bytes32"},{"indexed":true,"internalType":"bytes32","name":"republicAccountId","type":"bytes32"},{"indexed":false,"internalType":"bytes32","name":"confederationAccountId","type":"bytes32"},{"indexed":false,"internalType":"address","name":"asset","type":"address"},{"indexed":false,"internalType":"uint256","name":"amount","type":"uint256"},{"indexed":false,"internalType":"uint256","name":"republicTax","type":"uint256"},{"indexed":false,"internalType":"uint256","name":"confedTax","type":"uint256"},{"indexed":false,"internalType":"bytes32","name":"memo","type":"bytes32"}],"name":"TaxCollected","type":"event"},{"inputs":[],"name":"CONFED_BPS","outputs":[{"internalType":"uint16","name":"","type":"uint16"}],"stateMutability":"view","type":"function"},{"inputs":[],"name":"REPUBLIC_BPS","outputs":[{"internalType":"uint16","name":"","type":"uint16"}],"stateMutability":"view","type":"function"},{"inputs":[],"name":"TAX_BPS","outputs":[{"internalType":"uint16","name":"","type":"uint16"}],"stateMutability":"view","type":"function"},{"inputs":[{"internalType":"bytes32","name":"payerAccountId","type":"bytes32"},{"internalType":"bytes32","name":"republicKey","type":"bytes32"},{"internalType":"address","name":"asset","type":"address"},{"internalType":"uint256","name":"amount","type":"uint256"},{"internalType":"bytes32","name":"memo","type":"bytes32"}],"name":"collectTax","outputs":[{"internalType":"uint256","name":"republicTax","type":"uint256"},{"internalType":"uint256","name":"confedTax","type":"uint256"}],"stateMutability":"nonpayable","type":"function"},{"inputs":[],"name":"confederationAccountId","outputs":[{"internalType":"bytes32","name":"","type":"bytes32"}],"stateMutability":"view","type":"function"},{"inputs":[{"internalType":"address","name":"","type":"address"}],"name":"isCollector","outputs":[{"internalType":"bool","name":"","type":"bool"}],"stateMutability":"view","type":"function"},{"inputs":[],"name":"ledger","outputs":[{"internalType":"contract IAltanBankLedgerTaxOps","name":"","type":"address"}],"stateMutability":"view","type":"function"},{"inputs":[],"name":"owner","outputs":[{"internalType":"address","name":"","type":"address"}],"stateMutability":"view","type":"function"},{"inputs":[{"internalType":"uint256","name":"amount","type":"uint256"}],"name":"quoteTax","outputs":[{"internalType":"uint256","name":"republicTax","type":"uint256"},{"internalType":"uint256","name":"confedTax","type":"uint256"}],"stateMutability":"pure","type":"function"},{"inputs":[{"internalType":"bytes32","name":"","type":"bytes32"}],"name":"republicAccountIdOf","outputs":[{"internalType":"bytes32","name":"","type":"bytes32"}],"stateMutability":"view","type":"function"},{"inputs":[{"internalType":"address","name":"collector","type":"address"},{"internalType":"bool","name":"ok","type":"bool"}],"name":"setCollector","outputs":[],"stateMutability":"nonpayable","type":"function"},{"inputs":[{"internalType":"bytes32","name":"confedAccountId","type":"bytes32"}],"name":"setConfederationAccount","outputs":[],"stateMutability":"nonpayable","type":"function"},{"inputs":[{"internalType":"address","name":"ledgerAddr","type":"address"}],"name":"setLedger","outputs":[],"stateMutability":"nonpayable","type":"function"},{"inputs":[{"internalType":"bytes32","name":"republicKey","type":"bytes32"},{"internalType":"bytes32","name":"republicAccountId","type":"bytes32"}],"name":"setRepublic","outputs":[],"stateMutability":"nonpayable","type":"function"},{"inputs":[{"internalType":"address","name":"newOwner","type":"address"}],"name":"transferOwnership","outputs":[],"stateMutability":"nonpayable","type":"function"}],"evm":{"bytecode":{"linkReferences":{},"object":"6080346100cd57601f61090338819003918201601f19168301916001600160401b038311848410176100d25780849260409485528339810103126100cd5780516001600160a01b03811691908290036100cd57602001517ff57c54b22f212bf820775c15cc72bf43e7e958cd3f8fb62b47fb00e3e90f176c60018060a01b0319836000913381845416178355600154161760015582600255604051937fbc62e69a31739e36d57d56991ac20e4e507a7edfff9070e6a11df5a37b8b4e6f8280a280a261081a90816100e98239f35b600080fd5b634e487b7160e01b600052604160045260246000fdfe60806040908082526004918236101561001757600080fd5b600092833560e01c928362b796471461045b575082631d3b0fd9146104325782633246887d146103ba5782634fa1e29914610367578263531763f21461034a57826356397c351461032157826362129804146102e357826368f4a786146102c65782638da5cb5b1461029e5782639c89d4eb1461027f578263b3ca3ed81461025e578263df2cc13f146101ce578263e17b21901461016b578263f034e3c31461014257505063f2fde38b146100cb57600080fd5b3461013f57602036600319011261013f576100e46106e7565b81546001600160a01b03808216926100fd33851461072c565b16809261010b821515610764565b7fb532073b38c83145e3e5135377a08bf9aab55bc0fd7c1179cd4fb995d2a5159c8580a36001600160a01b03191617815580f35b80fd5b833461013f57602036600319011261013f575061015f903561079c565b82519182526020820152f35b909150346101ca57816003193601126101ca5735602435809261019860018060a01b03865416331461072c565b82855260036020528420557fa6fd76701d496f2a088f8b04c4d154b93f9473a3ec731129f57973852f92e5e48380a380f35b8280fd5b9150346101ca57806003193601126101ca576101e86106e7565b60243580151580910361025a577fdd0c37342e4622f900a3159af866c907f3197be55727e1cabbfc4e213e23b3049260209260018060a01b039061023082895416331461072c565b169461023d861515610764565b858752835280862060ff1981541660ff841617905551908152a280f35b8480fd5b83823461027b578160031936011261027b57602090516102bc8152f35b5080fd5b83823461027b578160031936011261027b576020906002549051908152f35b83823461027b578160031936011261027b57905490516001600160a01b039091168152602090f35b83823461027b578160031936011261027b57602090516103e88152f35b909150346101ca5760203660031901126101ca5760209260ff918391906001600160a01b036103106106e7565b168252855220541690519015158152f35b83823461027b578160031936011261027b5760015490516001600160a01b039091168152602090f35b83823461027b578160031936011261027b576020905161012c8152f35b83903461027b57602036600319011261027b573561038f60018060a01b03835416331461072c565b806002557ff57c54b22f212bf820775c15cc72bf43e7e958cd3f8fb62b47fb00e3e90f176c8280a280f35b833461013f57602036600319011261013f576103d46106e7565b81546001600160a01b0391906103ed908316331461072c565b166103f9811515610764565b600180546001600160a01b031916821790557fbc62e69a31739e36d57d56991ac20e4e507a7edfff9070e6a11df5a37b8b4e6f8280a280f35b909150346101ca5760203660031901126101ca5760209282913581526003845220549051908152f35b908491346101ca5760a03660031901126101ca576001600160a01b039260443590602435908435908684169081850361013f576064356084359133815260209789895260ff8c83205416156106b65750858152600388528a812054968715610680576002541561064c576104ce8361079c565b9a909b8c6105bd575b8b610534575b505050509160c0917f2b95c5fdf7d72b5a089a744a0760efbc9bc7eb8dd617e96cddfbcfe09544d97393600254928c51938452898401528b83015289606083015288608083015260a0820152a48351928352820152f35b6001541660025491813b1561025a578e51632240a9ad60e01b815290810189815260208101939093526001600160a01b039093166040830152606082018c905260808201869052839183919082908490829060a00103925af180156105b35761059f575b80806104dd565b6105a98291610702565b61013f5780610598565b8c513d84823e3d90fd5b8060015416803b1561025a57848f8f928b838f936106198d8b988b9351998a9889978896632240a9ad60e01b885287019192608093969594919660a08401978452602084015260018060a01b0316604083015260608201520152565b03925af180156106415761062e575b506104d7565b61063a90949194610702565b928e610628565b508e513d86823e3d90fd5b8b5162461bcd60e51b8152808b018a9052600e60248201526d10d3d391915117d393d517d4d15560921b6044820152606490fd5b8b5162461bcd60e51b8152808b018a9052601060248201526f1491541550931250d7d393d517d4d15560821b6044820152606490fd5b62461bcd60e51b8152898101899052600d60248201526c2727aa2fa1a7a62622a1aa27a960991b6044820152606490fd5b600435906001600160a01b03821682036106fd57565b600080fd5b67ffffffffffffffff811161071657604052565b634e487b7160e01b600052604160045260246000fd5b1561073357565b60405162461bcd60e51b81526020600482015260096024820152682727aa2fa7aba722a960b91b6044820152606490fd5b1561076b57565b60405162461bcd60e51b81526020600482015260096024820152682d22a927afa0a2222960b91b6044820152606490fd5b906102bc9182810290801593818304148417156107ce576127108092049361012c8083029283041417156107ce570490565b634e487b7160e01b600052601160045260246000fdfea2646970667358221220ffe010945a01e7f8c9e839e9dcb6761faba2a4f9989ece81aa9ee007d734a44764736f6c63430008180033","opcodes":"PUSH1 0x80 CALLVALUE PUSH2 0xCD JUMPI PUSH1 0x1F PUSH2 0x903 CODESIZE DUP2 SWAP1 SUB SWAP2 DUP3 ADD PUSH1 0x1F NOT AND DUP4 ADD SWAP2 PUSH1 0x1 PUSH1 0x1 PUSH1 0x40 SHL SUB DUP4 GT DUP5 DUP5 LT OR PUSH2 0xD2 JUMPI DUP1 DUP5 SWAP3 PUSH1 0x40 SWAP5 DUP6 MSTORE DUP4 CODECOPY DUP2 ADD SUB SLT PUSH2 0xCD JUMPI DUP1 MLOAD PUSH1 0x1 PUSH1 0x1 PUSH1 0xA0 SHL SUB DUP2 AND SWAP2 SWAP1 DUP3 SWAP1 SUB PUSH2 0xCD JUMPI PUSH1 0x20 ADD MLOAD PUSH32 0xF57C54B22F212BF820775C15CC72BF43E7E958CD3F8FB62B47FB00E3E90F176C PUSH1 0x1 DUP1 PUSH1 0xA0 SHL SUB NOT DUP4 PUSH1 0x0 SWAP2 CALLER DUP2 DUP5 SLOAD AND OR DUP4 SSTORE PUSH1 0x1 SLOAD AND OR PUSH1 0x1 SSTORE DUP3 PUSH1 0x2 SSTORE PUSH1 0x40 MLOAD SWAP4 PUSH32 0xBC62E69A31739E36D57D56991AC20E4E507A7EDFFF9070E6A11DF5A37B8B4E6F DUP3 DUP1 LOG2 DUP1 LOG2 PUSH2 0x81A SWAP1 DUP2 PUSH2 0xE9 DUP3 CODECOPY RETURN JUMPDEST PUSH1 0x0 DUP1 REVERT JUMPDEST PUSH4 0x4E487B71 PUSH1 0xE0 SHL PUSH1 0x0 MSTORE PUSH1 0x41 PUSH1 0x4 MSTORE PUSH1 0x24 PUSH1 0x0 REVERT INVALID PUSH1 0x80 PUSH1 0x40 SWAP1 DUP1 DUP3 MSTORE PUSH1 0x4 SWAP2 DUP3 CALLDATASIZE LT ISZERO PUSH2 0x17 JUMPI PUSH1 0x0 DUP1 REVERT JUMPDEST PUSH1 0x0 SWAP3 DUP4 CALLDATALOAD PUSH1 0xE0 SHR SWAP3 DUP4 PUSH3 0xB79647 EQ PUSH2 0x45B JUMPI POP DUP3 PUSH4 0x1D3B0FD9 EQ PUSH2 0x432 JUMPI DUP3 PUSH4 0x3246887D EQ PUSH2 0x3BA JUMPI DUP3 PUSH4 0x4FA1E299 EQ PUSH2 0x367 JUMPI DUP3 PUSH4 0x531763F2 EQ PUSH2 0x34A JUMPI DUP3 PUSH4 0x56397C35 EQ PUSH2 0x321 JUMPI DUP3 PUSH4 0x62129804 EQ PUSH2 0x2E3 JUMPI DUP3 PUSH4 0x68F4A786 EQ PUSH2 0x2C6 JUMPI DUP3 PUSH4 0x8DA5CB5B EQ PUSH2 0x29E JUMPI DUP3 PUSH4 0x9C89D4EB EQ PUSH2 0x27F JUMPI DUP3 PUSH4 0xB3CA3ED8 EQ PUSH2 0x25E JUMPI DUP3 PUSH4 0xDF2CC13F EQ PUSH2 0x1CE JUMPI DUP3 PUSH4 0xE17B2190 EQ PUSH2 0x16B JUMPI DUP3 PUSH4 0xF034E3C3 EQ PUSH2 0x142 JUMPI POP POP PUSH4 0xF2FDE38B EQ PUSH2 0xCB JUMPI PUSH1 0x0 DUP1 REVERT JUMPDEST CALLVALUE PUSH2 0x13F JUMPI PUSH1 0x20 CALLDATASIZE PUSH1 0x3 NOT ADD SLT PUSH2 0x13F JUMPI PUSH2 0xE4 PUSH2 0x6E7 JUMP JUMPDEST DUP2 SLOAD PUSH1 0x1 PUSH1 0x1 PUSH1 0xA0 SHL SUB DUP1 DUP3 AND SWAP3 PUSH2 0xFD CALLER DUP6 EQ PUSH2 0x72C JUMP JUMPDEST AND DUP1 SWAP3 PUSH2 0x10B DUP3 ISZERO ISZERO PUSH2 0x764 JUMP JUMPDEST PUSH32 0xB532073B38C83145E3E5135377A08BF9AAB55BC0FD7C1179CD4FB995D2A5159C DUP6 DUP1 LOG3 PUSH1 0x1 PUSH1 0x1 PUSH1 0xA0 SHL SUB NOT AND OR DUP2 SSTORE DUP1 RETURN JUMPDEST DUP1 REVERT JUMPDEST DUP4 CALLVALUE PUSH2 0x13F JUMPI PUSH1 0x20 CALLDATASIZE PUSH1 0x3 NOT ADD SLT PUSH2 0x13F JUMPI POP PUSH2 0x15F SWAP1 CALLDATALOAD PUSH2 0x79C JUMP JUMPDEST DUP3 MLOAD SWAP2 DUP3 MSTORE PUSH1 0x20 DUP3 ADD MSTORE RETURN JUMPDEST SWAP1 SWAP2 POP CALLVALUE PUSH2 0x1CA JUMPI DUP2 PUSH1 0x3 NOT CALLDATASIZE ADD SLT PUSH2 0x1CA JUMPI CALLDATALOAD PUSH1 0x24 CALLDATALOAD DUP1 SWAP3 PUSH2 0x198 PUSH1 0x1 DUP1 PUSH1 0xA0 SHL SUB DUP7 SLOAD AND CALLER EQ PUSH2 0x72C JUMP JUMPDEST DUP3 DUP6 MSTORE PUSH1 0x3 PUSH1 0x20 MSTORE DUP5 KECCAK256 SSTORE PUSH32 0xA6FD76701D496F2A088F8B04C4D154B93F9473A3EC731129F57973852F92E5E4 DUP4 DUP1 LOG3 DUP1 RETURN JUMPDEST DUP3 DUP1 REVERT JUMPDEST SWAP2 POP CALLVALUE PUSH2 0x1CA JUMPI DUP1 PUSH1 0x3 NOT CALLDATASIZE ADD SLT PUSH2 0x1CA JUMPI PUSH2 0x1E8 PUSH2 0x6E7 JUMP JUMPDEST PUSH1 0x24 CALLDATALOAD DUP1 ISZERO ISZERO DUP1 SWAP2 SUB PUSH2 0x25A JUMPI PUSH32 0xDD0C37342E4622F900A3159AF866C907F3197BE55727E1CABBFC4E213E23B304 SWAP3 PUSH1 0x20 SWAP3 PUSH1 0x1 DUP1 PUSH1 0xA0 SHL SUB SWAP1 PUSH2 0x230 DUP3 DUP10 SLOAD AND CALLER EQ PUSH2 0x72C JUMP JUMPDEST AND SWAP5 PUSH2 0x23D DUP7 ISZERO ISZERO PUSH2 0x764 JUMP JUMPDEST DUP6 DUP8 MSTORE DUP4 MSTORE DUP1 DUP7 KECCAK256 PUSH1 0xFF NOT DUP2 SLOAD AND PUSH1 0xFF DUP5 AND OR SWAP1 SSTORE MLOAD SWAP1 DUP2 MSTORE LOG2 DUP1 RETURN JUMPDEST DUP5 DUP1 REVERT JUMPDEST DUP4 DUP3 CALLVALUE PUSH2 0x27B JUMPI DUP2 PUSH1 0x3 NOT CALLDATASIZE ADD SLT PUSH2 0x27B JUMPI PUSH1 0x20 SWAP1 MLOAD PUSH2 0x2BC DUP2 MSTORE RETURN JUMPDEST POP DUP1 REVERT JUMPDEST DUP4 DUP3 CALLVALUE PUSH2 0x27B JUMPI DUP2 PUSH1 0x3 NOT CALLDATASIZE ADD SLT PUSH2 0x27B JUMPI PUSH1 0x20 SWAP1 PUSH1 0x2 SLOAD SWAP1 MLOAD SWAP1 DUP2 MSTORE RETURN JUMPDEST DUP4 DUP3 CALLVALUE PUSH2 0x27B JUMPI DUP2 PUSH1 0x3 NOT CALLDATASIZE ADD SLT PUSH2 0x27B JUMPI SWAP1 SLOAD SWAP1 MLOAD PUSH1 0x1 PUSH1 0x1 PUSH1 0xA0 SHL SUB SWAP1 SWAP2 AND DUP2 MSTORE PUSH1 0x20 SWAP1 RETURN JUMPDEST DUP4 DUP3 CALLVALUE PUSH2 0x27B JUMPI DUP2 PUSH1 0x3 NOT CALLDATASIZE ADD SLT PUSH2 0x27B JUMPI PUSH1 0x20 SWAP1 MLOAD PUSH2 0x3E8 DUP2 MSTORE RETURN JUMPDEST SWAP1 SWAP2 POP CALLVALUE PUSH2 0x1CA JUMPI PUSH1 0x20 CALLDATASIZE PUSH1 0x3 NOT ADD SLT PUSH2 0x1CA JUMPI PUSH1 0x20 SWAP3 PUSH1 0xFF SWAP2 DUP4 SWAP2 SWAP1 PUSH1 0x1 PUSH1 0x1 PUSH1 0xA0 SHL SUB PUSH2 0x310 PUSH2 0x6E7 JUMP JUMPDEST AND DUP3 MSTORE DUP6 MSTORE KECCAK256 SLOAD AND SWAP1 MLOAD SWAP1 ISZERO ISZERO DUP2 MSTORE RETURN JUMPDEST DUP4 DUP3 CALLVALUE PUSH2 0x27B JUMPI DUP2 PUSH1 0x3 NOT CALLDATASIZE ADD SLT PUSH2 0x27B JUMPI PUSH1 0x1 SLOAD SWAP1 MLOAD PUSH1 0x1 PUSH1 0x1 PUSH1 0xA0 SHL SUB SWAP1 SWAP2 AND DUP2 MSTORE PUSH1 0x20 SWAP1 RETURN JUMPDEST DUP4 DUP3 CALLVALUE PUSH2 0x27B JUMPI DUP2 PUSH1 0x3 NOT CALLDATASIZE ADD SLT PUSH2 0x27B JUMPI PUSH1 0x20 SWAP1 MLOAD PUSH2 0x12C DUP2 MSTORE RETURN JUMPDEST DUP4 SWAP1 CALLVALUE PUSH2 0x27B JUMPI PUSH1 0x20 CALLDATASIZE PUSH1 0x3 NOT ADD SLT PUSH2 0x27B JUMPI CALLDATALOAD PUSH2 0x38F PUSH1 0x1 DUP1 PUSH1 0xA0 SHL SUB DUP4 SLOAD AND CALLER EQ PUSH2 0x72C JUMP JUMPDEST DUP1 PUSH1 0x2 SSTORE PUSH32 0xF57C54B22F212BF820775C15CC72BF43E7E958CD3F8FB62B47FB00E3E90F176C DUP3 DUP1 LOG2 DUP1 RETURN JUMPDEST DUP4 CALLVALUE PUSH2 0x13F JUMPI PUSH1 0x20 CALLDATASIZE PUSH1 0x3 NOT ADD SLT PUSH2 0x13F JUMPI PUSH2 0x3D4 PUSH2 0x6E7 JUMP JUMPDEST DUP2 SLOAD PUSH1 0x1 PUSH1 0x1 PUSH1 0xA0 SHL SUB SWAP2 SWAP1 PUSH2 0x3ED SWAP1 DUP4 AND CALLER EQ PUSH2 0x72C JUMP JUMPDEST AND PUSH2 0x3F9 DUP2 ISZERO ISZERO PUSH2 0x764 JUMP JUMPDEST PUSH1 0x1 DUP1 SLOAD PUSH1 0x1 PUSH1 0x1 PUSH1 0xA0 SHL SUB NOT AND DUP3 OR SWAP1 SSTORE PUSH32 0xBC62E69A31739E36D57D56991AC20E4E507A7EDFFF9070E6A11DF5A37B8B4E6F DUP3 DUP1 LOG2 DUP1 RETURN JUMPDEST SWAP1 SWAP2 POP CALLVALUE PUSH2 0x1CA JUMPI PUSH1 0x20 CALLDATASIZE PUSH1 0x3 NOT ADD SLT PUSH2 0x1CA JUMPI PUSH1 0x20 SWAP3 DUP3 SWAP2 CALLDATALOAD DUP2 MSTORE PUSH1 0x3 DUP5 MSTORE KECCAK256 SLOAD SWAP1 MLOAD SWAP1 DUP2 MSTORE RETURN JUMPDEST SWAP1 DUP5 SWAP2 CALLVALUE PUSH2 0x1CA JUMPI PUSH1 0xA0 CALLDATASIZE PUSH1 0x3 NOT ADD SLT PUSH2 0x1CA JUMPI PUSH1 0x1 PUSH1 0x1 PUSH1 0xA0 SHL SUB SWAP3 PUSH1 0x44 CALLDATALOAD SWAP1 PUSH1 0x24 CALLDATALOAD SWAP1 DUP5 CALLDATALOAD SWAP1 DUP7 DUP5 AND SWAP1 DUP2 DUP6 SUB PUSH2 0x13F JUMPI PUSH1 0x64 CALLDATALOAD PUSH1 0x84 CALLDATALOAD SWAP2 CALLER DUP2 MSTORE PUSH1 0x20 SWAP8 DUP10 DUP10 MSTORE PUSH1 0xFF DUP13 DUP4 KECCAK256 SLOAD AND ISZERO PUSH2 0x6B6 JUMPI POP DUP6 DUP2 MSTORE PUSH1 0x3 DUP9 MSTORE DUP11 DUP2 KECCAK256 SLOAD SWAP7 DUP8 ISZERO PUSH2 0x680 JUMPI PUSH1 0x2 SLOAD ISZERO PUSH2 0x64C JUMPI PUSH2 0x4CE DUP4 PUSH2 0x79C JUMP JUMPDEST SWAP11 SWAP1 SWAP12 DUP13 PUSH2 0x5BD JUMPI JUMPDEST DUP12 PUSH2 0x534 JUMPI JUMPDEST POP POP POP POP SWAP2 PUSH1 0xC0 SWAP2 PUSH32 0x2B95C5FDF7D72B5A089A744A0760EFBC9BC7EB8DD617E96CDDFBCFE09544D973 SWAP4 PUSH1 0x2 SLOAD SWAP3 DUP13 MLOAD SWAP4 DUP5 MSTORE DUP10 DUP5 ADD MSTORE DUP12 DUP4 ADD MSTORE DUP10 PUSH1 0x60 DUP4 ADD MSTORE DUP9 PUSH1 0x80 DUP4 ADD MSTORE PUSH1 0xA0 DUP3 ADD MSTORE LOG4 DUP4 MLOAD SWAP3 DUP4 MSTORE DUP3 ADD MSTORE RETURN JUMPDEST PUSH1 0x1 SLOAD AND PUSH1 0x2 SLOAD SWAP2 DUP2 EXTCODESIZE ISZERO PUSH2 0x25A JUMPI DUP15 MLOAD PUSH4 0x2240A9AD PUSH1 0xE0 SHL DUP2 MSTORE SWAP1 DUP2 ADD DUP10 DUP2 MSTORE PUSH1 0x20 DUP2 ADD SWAP4 SWAP1 SWAP4 MSTORE PUSH1 0x1 PUSH1 0x1 PUSH1 0xA0 SHL SUB SWAP1 SWAP4 AND PUSH1 0x40 DUP4 ADD MSTORE PUSH1 0x60 DUP3 ADD DUP13 SWAP1 MSTORE PUSH1 0x80 DUP3 ADD DUP7 SWAP1 MSTORE DUP4 SWAP2 DUP4 SWAP2 SWAP1 DUP3 SWAP1 DUP5 SWAP1 DUP3 SWAP1 PUSH1 0xA0 ADD SUB SWAP3 GAS CALL DUP1 ISZERO PUSH2 0x5B3 JUMPI PUSH2 0x59F JUMPI JUMPDEST DUP1 DUP1 PUSH2 0x4DD JUMP JUMPDEST PUSH2 0x5A9 DUP3 SWAP2 PUSH2 0x702 JUMP JUMPDEST PUSH2 0x13F JUMPI DUP1 PUSH2 0x598 JUMP JUMPDEST DUP13 MLOAD RETURNDATASIZE DUP5 DUP3 RETURNDATACOPY RETURNDATASIZE SWAP1 REVERT JUMPDEST DUP1 PUSH1 0x1 SLOAD AND DUP1 EXTCODESIZE ISZERO PUSH2 0x25A JUMPI DUP5 DUP16 DUP16 SWAP3 DUP12 DUP4 DUP16 SWAP4 PUSH2 0x619 DUP14 DUP12 SWAP9 DUP12 SWAP4 MLOAD SWAP10 DUP11 SWAP9 DUP10 SWAP8 DUP9 SWAP7 PUSH4 0x2240A9AD PUSH1 0xE0 SHL DUP9 MSTORE DUP8 ADD SWAP2 SWAP3 PUSH1 0x80 SWAP4 SWAP7 SWAP6 SWAP5 SWAP2 SWAP7 PUSH1 0xA0 DUP5 ADD SWAP8 DUP5 MSTORE PUSH1 0x20 DUP5 ADD MSTORE PUSH1 0x1 DUP1 PUSH1 0xA0 SHL SUB AND PUSH1 0x40 DUP4 ADD MSTORE PUSH1 0x60 DUP3 ADD MSTORE ADD MSTORE JUMP JUMPDEST SUB SWAP3 GAS CALL DUP1 ISZERO PUSH2 0x641 JUMPI PUSH2 0x62E JUMPI JUMPDEST POP PUSH2 0x4D7 JUMP JUMPDEST PUSH2 0x63A SWAP1 SWAP5 SWAP2 SWAP5 PUSH2 0x702 JUMP JUMPDEST SWAP3 DUP15 PUSH2 0x628 JUMP JUMPDEST POP DUP15 MLOAD RETURNDATASIZE DUP7 DUP3 RETURNDATACOPY RETURNDATASIZE SWAP1 REVERT JUMPDEST DUP12 MLOAD PUSH3 0x461BCD PUSH1 0xE5 SHL DUP2 MSTORE DUP1 DUP12 ADD DUP11 SWAP1 MSTORE PUSH1 0xE PUSH1 0x24 DUP3 ADD MSTORE PUSH14 0x10D3D391915117D393D517D4D155 PUSH1 0x92 SHL PUSH1 0x44 DUP3 ADD MSTORE PUSH1 0x64 SWAP1 REVERT JUMPDEST DUP12 MLOAD PUSH3 0x461BCD PUSH1 0xE5 SHL DUP2 MSTORE DUP1 DUP12 ADD DUP11 SWAP1 MSTORE PUSH1 0x10 PUSH1 0x24 DUP3 ADD MSTORE PUSH16 0x1491541550931250D7D393D517D4D155 PUSH1 0x82 SHL PUSH1 0x44 DUP3 ADD MSTORE PUSH1 0x64 SWAP1 REVERT JUMPDEST PUSH3 0x461BCD PUSH1 0xE5 SHL DUP2 MSTORE DUP10 DUP2 ADD DUP10 SWAP1 MSTORE PUSH1 0xD PUSH1 0x24 DUP3 ADD MSTORE PUSH13 0x2727AA2FA1A7A62622A1AA27A9 PUSH1 0x99 SHL PUSH1 0x44 DUP3 ADD MSTORE PUSH1 0x64 SWAP1 REVERT JUMPDEST PUSH1 0x4 CALLDATALOAD SWAP1 PUSH1 0x1 PUSH1 0x1 PUSH1 0xA0 SHL SUB DUP3 AND DUP3 SUB PUSH2 0x6FD JUMPI JUMP JUMPDEST PUSH1 0x0 DUP1 REVERT JUMPDEST PUSH8 0xFFFFFFFFFFFFFFFF DUP2 GT PUSH2 0x716 JUMPI PUSH1 0x40 MSTORE JUMP JUMPDEST PUSH4 0x4E487B71 PUSH1 0xE0 SHL PUSH1 0x0 MSTORE PUSH1 0x41 PUSH1 0x4 MSTORE PUSH1 0x24 PUSH1 0x0 REVERT JUMPDEST ISZERO PUSH2 0x733 JUMPI JUMP JUMPDEST PUSH1 0x40 MLOAD PUSH3 0x461BCD PUSH1 0xE5 SHL DUP2 MSTORE PUSH1 0x20 PUSH1 0x4 DUP3 ADD MSTORE PUSH1 0x9 PUSH1 0x24 DUP3 ADD MSTORE PUSH9 0x2727AA2FA7ABA722A9 PUSH1 0xB9 SHL PUSH1 0x44 DUP3 ADD MSTORE PUSH1 0x64 SWAP1 REVERT JUMPDEST ISZERO PUSH2 0x76B JUMPI JUMP JUMPDEST PUSH1 0x40 MLOAD PUSH3 0x461BCD PUSH1 0xE5 SHL DUP2 MSTORE PUSH1 0x20 PUSH1 0x4 DUP3 ADD MSTORE PUSH1 0x9 PUSH1 0x24 DUP3 ADD MSTORE PUSH9 0x2D22A927AFA0A22229 PUSH1 0xB9 SHL PUSH1 0x44 DUP3 ADD MSTORE PUSH1 0x64 SWAP1 REVERT JUMPDEST SWAP1 PUSH2 0x2BC SWAP2 DUP3 DUP2 MUL SWAP1 DUP1 ISZERO SWAP4 DUP2 DUP4 DIV EQ DUP5 OR ISZERO PUSH2 0x7CE JUMPI PUSH2 0x2710 DUP1 SWAP3 DIV SWAP4 PUSH2 0x12C DUP1 DUP4 MUL SWAP3 DUP4 DIV EQ OR ISZERO PUSH2 0x7CE JUMPI DIV SWAP1 JUMP JUMPDEST PUSH4 0x4E487B71 PUSH1 0xE0 SHL PUSH1 0x0 MSTORE PUSH1 0x11 PUSH1 0x4 MSTORE PUSH1 0x24 PUSH1 0x0 REVERT INVALID LOG2 PUSH5 0x6970667358 0x22 SLT KECCAK256 SELFDESTRUCT 0xE0 LT SWAP5 GAS ADD 0xE7 0xF8 0xC9 0xE8 CODECOPY 0xE9 0xDC 0xB6 PUSH23 0x1FABA2A4F9989ECE81AA9EE007D734A44764736F6C6343 STOP ADDMOD XOR STOP CALLER "},"methodIdentifiers":{"CONFED_BPS()":"531763f2","REPUBLIC_BPS()":"b3ca3ed8","TAX_BPS()":"68f4a786","collectTax(bytes32,bytes32,address,uint256,bytes32)":"00b79647","confederationAccountId()":"9c89d4eb","isCollector(address)":"62129804","ledger()":"56397c35","owner()":"8da5cb5b","quoteTax(uint256)":"f034e3c3","republicAccountIdOf(bytes32)":"1d3b0fd9","setCollector(address,bool)":"df2cc13f","setConfederationAccount(bytes32)":"4fa1e299","setLedger(address)":"3246887d","setRepublic(bytes32,bytes32)":"e17b2190","transferOwnership(address)":"f2fde38b"}}}}}