{"contracts/KhuralLawProcess.sol":{"KhuralLawProcess":{"abi":[{"inputs":[{"internalType":"address","name":"_tumenAuth","type":"address"},{"internalType":"address","name":"_lawRegistry","type":"address"},{"internalType":"uint32","name":"_quorum","type":"uint32"},{"internalType":"uint32","name":"_superMajorityBps","type":"uint32"},{"internalType":"uint64","name":"_timelockSeconds","type":"uint64"}],"stateMutability":"nonpayable","type":"constructor"},{"inputs":[],"name":"AlreadyExecuted","type":"error"},{"inputs":[],"name":"AlreadyVoted","type":"error"},{"inputs":[],"name":"InvalidInput","type":"error"},{"inputs":[],"name":"NotExecutable","type":"error"},{"inputs":[],"name":"NotTumenLeader","type":"error"},{"inputs":[],"name":"ProposalNotFound","type":"error"},{"anonymous":false,"inputs":[{"indexed":true,"internalType":"uint256","name":"proposalId","type":"uint256"},{"indexed":true,"internalType":"uint256","name":"lawId","type":"uint256"},{"indexed":false,"internalType":"uint256","name":"activatedVersion","type":"uint256"}],"name":"Executed","type":"event"},{"anonymous":false,"inputs":[{"indexed":true,"internalType":"uint256","name":"proposalId","type":"uint256"},{"indexed":true,"internalType":"uint256","name":"lawId","type":"uint256"},{"indexed":false,"internalType":"string","name":"title","type":"string"},{"indexed":false,"internalType":"bytes32","name":"contentHash","type":"bytes32"},{"indexed":false,"internalType":"string","name":"uri","type":"string"}],"name":"ProposalCreated","type":"event"},{"anonymous":false,"inputs":[{"indexed":true,"internalType":"uint256","name":"proposalId","type":"uint256"},{"indexed":true,"internalType":"address","name":"voter","type":"address"},{"indexed":false,"internalType":"bool","name":"support","type":"bool"}],"name":"Voted","type":"event"},{"inputs":[{"internalType":"uint256","name":"proposalId","type":"uint256"}],"name":"canExecute","outputs":[{"internalType":"bool","name":"ok","type":"bool"}],"stateMutability":"view","type":"function"},{"inputs":[{"internalType":"uint256","name":"proposalId","type":"uint256"}],"name":"execute","outputs":[],"stateMutability":"nonpayable","type":"function"},{"inputs":[],"name":"lawRegistry","outputs":[{"internalType":"contract ILawRegistry","name":"","type":"address"}],"stateMutability":"view","type":"function"},{"inputs":[],"name":"proposalCount","outputs":[{"internalType":"uint256","name":"","type":"uint256"}],"stateMutability":"view","type":"function"},{"inputs":[{"internalType":"uint256","name":"","type":"uint256"}],"name":"proposals","outputs":[{"internalType":"uint256","name":"lawId","type":"uint256"},{"internalType":"string","name":"title","type":"string"},{"internalType":"bytes32","name":"contentHash","type":"bytes32"},{"internalType":"string","name":"uri","type":"string"},{"internalType":"uint64","name":"createdAt","type":"uint64"},{"internalType":"uint64","name":"executeAfter","type":"uint64"},{"internalType":"uint32","name":"forVotes","type":"uint32"},{"internalType":"uint32","name":"againstVotes","type":"uint32"},{"internalType":"bool","name":"executed","type":"bool"},{"internalType":"bool","name":"exists","type":"bool"}],"stateMutability":"view","type":"function"},{"inputs":[{"internalType":"uint256","name":"lawId","type":"uint256"},{"internalType":"bytes32","name":"contentHash","type":"bytes32"},{"internalType":"string","name":"uri","type":"string"}],"name":"proposeAmendLaw","outputs":[{"internalType":"uint256","name":"pid","type":"uint256"}],"stateMutability":"nonpayable","type":"function"},{"inputs":[{"internalType":"string","name":"title","type":"string"},{"internalType":"bytes32","name":"contentHash","type":"bytes32"},{"internalType":"string","name":"uri","type":"string"}],"name":"proposeNewLaw","outputs":[{"internalType":"uint256","name":"pid","type":"uint256"}],"stateMutability":"nonpayable","type":"function"},{"inputs":[],"name":"quorum","outputs":[{"internalType":"uint32","name":"","type":"uint32"}],"stateMutability":"view","type":"function"},{"inputs":[],"name":"superMajorityBps","outputs":[{"internalType":"uint32","name":"","type":"uint32"}],"stateMutability":"view","type":"function"},{"inputs":[],"name":"timelockSeconds","outputs":[{"internalType":"uint64","name":"","type":"uint64"}],"stateMutability":"view","type":"function"},{"inputs":[],"name":"tumenAuth","outputs":[{"internalType":"contract ITumenAuthority","name":"","type":"address"}],"stateMutability":"view","type":"function"},{"inputs":[{"internalType":"uint256","name":"proposalId","type":"uint256"},{"internalType":"bool","name":"support","type":"bool"}],"name":"vote","outputs":[],"stateMutability":"nonpayable","type":"function"},{"inputs":[{"internalType":"uint256","name":"","type":"uint256"},{"internalType":"address","name":"","type":"address"}],"name":"voted","outputs":[{"internalType":"bool","name":"","type":"bool"}],"stateMutability":"view","type":"function"}],"evm":{"bytecode":{"linkReferences":{},"object":"60803462000162576001600160401b0390601f6200171c38819003918201601f191683019291908484118385101762000167578160a09284926040968752833981010312620001625762000053816200017d565b9062000062602082016200017d565b936200007084830162000192565b926080620000816060850162000192565b930151918216820362000162576001600160a01b039081168015801562000157575b620001465763ffffffff91828516801590811562000139575b50620001285767ffffffff000000009495969760018060a01b031992836000541617600055169060015416176001556005549168010000000000000000600160801b0390871b1694169060018060801b031916179160201b161717600555516115779081620001a58239f35b865163b4fa3fb360e01b8152600490fd5b61271091501138620000bc565b855163b4fa3fb360e01b8152600490fd5b5081871615620000a3565b600080fd5b634e487b7160e01b600052604160045260246000fd5b51906001600160a01b03821682036200016257565b519063ffffffff82168203620001625756fe6080604052600436101561001257600080fd5b6000803560e01c8063013cf08b1461104b57806308109e3414610b835780631703a01814610b5f5780635277b4ae14610b125780635ccde30114610ae957806365a1f3c314610abf5780636bc7b7f01461059a5780636c3d9d1c1461057457806396f543e71461054d578063c9d27afe146103bb578063cc63604a14610392578063da35c664146103745763fe0d94c1146100ac57600080fd5b34610371576020806003193601126102415760043560018060a01b0360248382865416604051928380926326aab85360e21b82523360048301525afa908115610366578591610339575b50156103275781845260038352604084209260048401805460ff8160c81c16156103155760ff8160c01c166103035761012e856113a7565b156102f15760ff60c01b1916600160c01b179055835493841561026c575b8260015416866002830154823b156102415760405192839163376762f560e11b83528960048401526024830152606060448301528183816101936064820160038a0161148b565b03925af180156102615761024e575b5054610245578460ff60015b1692836101e4575b50507f3e504bb8b225ad41f613b0c3c4205cdd752d1615b4d77cd1773417282fcfb5d991604051908152a380f35b60015416803b156102415781809160446040518094819363a3a7bf4160e01b83528b60048401528960248401525af1801561023657156101b65761022790611188565b6102325784386101b6565b8480fd5b6040513d84823e3d90fd5b5080fd5b8460ff816101ae565b61025a90969196611188565b94386101a2565b6040513d89823e3d90fd5b935081600154168160405180926350bac85560e11b825282600483015281898161029c6024820160018d0161148b565b03925af19081156102e65786916102b5575b509361014c565b90508181813d83116102df575b6102cc818361119b565b810103126102db5751386102ae565b8580fd5b503d6102c2565b6040513d88823e3d90fd5b6040516323f70a7560e11b8152600490fd5b604051630dc1019760e01b8152600490fd5b60405163635e873760e01b8152600490fd5b60405163f0f9435f60e01b8152600490fd5b6103599150843d861161035f575b610351818361119b565b8101906112d3565b386100f6565b503d610347565b6040513d87823e3d90fd5b80fd5b50346103715780600319360112610371576020600254604051908152f35b50346103715760203660031901126103715760206103b16004356113a7565b6040519015158152f35b50346103715760403660031901126103715760043560243590811515918281036105495783546040516326aab85360e21b81523360048201526020918290829060249082906001600160a01b03165afa9081156102e657869161052c575b501561032757828552600381526004604086200160ff815460c81c1615610315578386526004825260408620338752825260ff60408720541661051a5783865260048252604080872033885283528620805460ff191660011790557ff2913dbe661ee2acc4a046d8fbcdc792373bda34c41c6086484b5345e5785e5f92156104de57806104b263ffffffff6104d2935460801c16611392565b815463ffffffff60801b191660809190911b63ffffffff60801b16179055565b6040519384523393a380f35b806104f563ffffffff610515935460a01c16611392565b815463ffffffff60a01b191660a09190911b63ffffffff60a01b16179055565b6104d2565b604051637c9a1cf960e01b8152600490fd5b6105439150823d841161035f57610351818361119b565b38610419565b8380fd5b5034610371578060031936011261037157546040516001600160a01b039091168152602090f35b5034610371578060031936011261037157602060055463ffffffff60405191831c168152f35b5034610371576060366003190112610371576044356001600160401b038111610241576105cb9036906004016112a1565b82546040516326aab85360e21b815233600482015290602090829060249082906001600160a01b03165afa908115610ab4578491610a95575b50156103275760043515610a835760243515610a83576106256002546112eb565b91826002556001600160401b0342169061064d6001600160401b0360055460401c1683611310565b6040519061065a82611156565b600435825260405193602085018581106001600160401b03821117610a6f57906001600160401b0392916040528886526020840195865260243560408501526106a436888761132b565b606085015260808401521660a08201528560c08201528560e08201528561010082015260016101208201528486526003602052604086209281518455518051906001600160401b038211610996578190610701600187015461111c565b601f8111610a1f575b50602090601f83116001146109b55789926109aa575b50508160011b916000199060031b1c19161760018401555b6040810151600284015560608101518051906001600160401b03821161099657610765600386015461111c565b601f8111610952575b50918791879493602099508990601f83116001146108cc57968261012093600493600080516020611522833981519152999a88926108c1575b50508160011b916000199060031b1c19161760038201555b01916001600160401b0360808201511683549067ffffffffffffffff60401b60a084015160401b16916001600160801b0319161717835561084e63ffffffff61082a8160c085015116869081549063ffffffff60801b9060801b169063ffffffff60801b1916179055565b60e0830151855463ffffffff60a01b1916911660a01b63ffffffff60a01b16178455565b610100810151835460ff60c01b191690151560c01b60ff60c01b161783550151151581549060ff60c81b9060c81b169060ff60c81b19161790556108b66040519283926060845260608401526024358984015260806040840152600435966080840191611371565b0390a3604051908152f35b0151905038806107a7565b6003889392980185528a852090855b601f19841681106109385750826101209492600080516020611522833981519152999a600193600496601f1981161061091f575b505050811b0160038201556107bf565b015160001960f88460031b161c1916905538808061090f565b818a01518355988c01988b98506001909201918c016108db565b60038601895260208920601f840160051c81016020851061098f575b601f830160051c8201811061098457505061076e565b8a815560010161096e565b508061096e565b634e487b7160e01b88526041600452602488fd5b015190503880610720565b600187018a5260208a209250601f1984168a5b818110610a0757509084600195949392106109ee575b505050811b016001840155610738565b015160001960f88460031b161c191690553880806109de565b929360206001819287860151815501950193016109c8565b90915060018601895260208920601f840160051c810160208510610a68575b90849392915b601f830160051c82018110610a5a57505061070a565b8b8155859450600101610a44565b5080610a3e565b634e487b7160e01b89526041600452602489fd5b60405163b4fa3fb360e01b8152600490fd5b610aae915060203d60201161035f57610351818361119b565b38610604565b6040513d86823e3d90fd5b503461037157806003193601126103715760206001600160401b0360055460401c16604051908152f35b50346103715780600319360112610371576001546040516001600160a01b039091168152602090f35b5034610371576040366003190112610371576024356001600160a01b0381169081900361024157604060209260ff9260043582526004855282822090825284522054166040519015158152f35b5034610371578060031936011261037157602063ffffffff60055416604051908152f35b5034610371576060366003190112610371576004356001600160401b03811161024157610bb49036906004016112a1565b90916044356001600160401b03811161024157610bd59036906004016112a1565b82546040516326aab85360e21b81523360048201529294919290602090829060249082906001600160a01b03165afa908115610ab457849161102c575b5015610327578015610a835760243515610a8357610c316002546112eb565b93846002556001600160401b034216610c586001600160401b0360055460401c1682611310565b906001600160401b0360405192610c6e84611156565b878452610c7c36878c61132b565b92602085019384526024356040860152610c9736898861132b565b606086015260808501521660a08301528560c08301528560e08301528561010083015260016101208301528686526003602052604086209082518255518051906001600160401b038211610996578190610cf4600185015461111c565b601f8111610fdc575b50602090601f8311600114610f72578992610f67575b50508160011b916000199060031b1c19161760018201555b6040820151600282015560608201518051906001600160401b03821161099657610d58600384015461111c565b601f8111610f23575b50918895939160209a95938b908a601f8411600114610e945793836108b6979694610120946004946000805160206115228339815191529d9e9892610e89575b50508160011b916000199060031b1c19161760038201555b01916001600160401b0360808201511683549067ffffffffffffffff60401b60a084015160401b16916001600160801b03191617178355610e2463ffffffff61082a8160c085015116869081549063ffffffff60801b9060801b169063ffffffff60801b1916179055565b610100810151835460ff60c01b191690151560c01b60ff60c01b161783550151815460ff60c81b191690151560c81b60ff60c81b16179055604051606080825290958695610e7492870191611371565b916024358b8601528483036040860152611371565b015190503880610da1565b5060038493929a9594018b528c8b20908b5b601f1984168110610f095750926001836004936000805160206115228339815191529c9d6108b69a99989761012097601f19811610610ef0575b505050811b016003820155610db9565b015160001960f88460031b161c19169055388080610ee0565b818c015183559a8e019a8d9a506001909201918e01610ea6565b60038401895260208920601f840160051c810160208510610f60575b601f830160051c82018110610f55575050610d61565b8a8155600101610f3f565b5080610f3f565b015190503880610d13565b600185018a5260208a209250601f1984168a5b818110610fc45750908460019594939210610fab575b505050811b016001820155610d2b565b015160001960f88460031b161c19169055388080610f9b565b92936020600181928786015181550195019301610f85565b90915060018401895260208920601f840160051c810160208510611025575b90849392915b601f830160051c82018110611017575050610cfd565b8b8155859450600101611001565b5080610ffb565b611045915060203d60201161035f57610351818361119b565b38610c12565b50346103715760203660031901126103715760409060043581526003602052208054611079600183016111bc565b9160ff6002820154916004611090600383016111bc565b910154906110d66001600160401b039463ffffffff926110c3604051998a99610140908b528060208c01528a0190611261565b9160408901528782036060890152611261565b9380831660808701528260401c1660a0860152808260801c1660c08601528160a01c1660e0850152818160c01c16151561010085015260c81c1615156101208301520390f35b90600182811c9216801561114c575b602083101461113657565b634e487b7160e01b600052602260045260246000fd5b91607f169161112b565b61014081019081106001600160401b0382111761117257604052565b634e487b7160e01b600052604160045260246000fd5b6001600160401b03811161117257604052565b90601f801991011681019081106001600160401b0382111761117257604052565b906040519182600082546111cf8161111c565b9081845260209460019160018116908160001461123f5750600114611200575b5050506111fe9250038361119b565b565b600090815285812095935091905b8183106112275750506111fe93508201013880806111ef565b8554888401850152948501948794509183019161120e565b925050506111fe94925060ff191682840152151560051b8201013880806111ef565b919082519283825260005b84811061128d575050826000602080949584010152601f8019910116010190565b60208183018101518483018201520161126c565b9181601f840112156112ce578235916001600160401b0383116112ce57602083818601950101116112ce57565b600080fd5b908160209103126112ce575180151581036112ce5790565b60001981146112fa5760010190565b634e487b7160e01b600052601160045260246000fd5b9190916001600160401b03808094169116019182116112fa57565b9291926001600160401b0382116111725760405191611354601f8201601f19166020018461119b565b8294818452818301116112ce578281602093846000960137010152565b908060209392818452848401376000828201840152601f01601f1916010190565b90600163ffffffff809316019182116112fa57565b60009081526003602052600460408220015460ff8160c81c1615801561147e575b61147a576001600160401b038160401c16421061147a5763ffffffff9182808360801c169260a01c1682019283831161146657600554818116851061145e576127109384810294818604149015171561144a5760201c16928381029381850414901517156114365750101590565b634e487b7160e01b81526011600452602490fd5b634e487b7160e01b83526011600452602483fd5b505091505090565b634e487b7160e01b82526011600452602482fd5b5090565b5060ff8160c01c166113c8565b80546000939261149a8261111c565b9182825260209360019160018116908160001461150257506001146114c1575b5050505050565b90939495506000929192528360002092846000945b8386106114ee575050505001019038808080806114ba565b8054858701830152940193859082016114d6565b60ff19168685015250505090151560051b0101915038808080806114ba56fe1820cf890d0d2fdc82b51b128558bf5c69c18a11ef05891666e558611da3559fa264697066735822122088cb03a35dd50d91da693c2f6df2d3a88e19215c4e24bb5f743685b1e0ea5c4a64736f6c63430008180033","opcodes":"PUSH1 0x80 CALLVALUE PUSH3 0x162 JUMPI PUSH1 0x1 PUSH1 0x1 PUSH1 0x40 SHL SUB SWAP1 PUSH1 0x1F PUSH3 0x171C CODESIZE DUP2 SWAP1 SUB SWAP2 DUP3 ADD PUSH1 0x1F NOT AND DUP4 ADD SWAP3 SWAP2 SWAP1 DUP5 DUP5 GT DUP4 DUP6 LT OR PUSH3 0x167 JUMPI DUP2 PUSH1 0xA0 SWAP3 DUP5 SWAP3 PUSH1 0x40 SWAP7 DUP8 MSTORE DUP4 CODECOPY DUP2 ADD SUB SLT PUSH3 0x162 JUMPI PUSH3 0x53 DUP2 PUSH3 0x17D JUMP JUMPDEST SWAP1 PUSH3 0x62 PUSH1 0x20 DUP3 ADD PUSH3 0x17D JUMP JUMPDEST SWAP4 PUSH3 0x70 DUP5 DUP4 ADD PUSH3 0x192 JUMP JUMPDEST SWAP3 PUSH1 0x80 PUSH3 0x81 PUSH1 0x60 DUP6 ADD PUSH3 0x192 JUMP JUMPDEST SWAP4 ADD MLOAD SWAP2 DUP3 AND DUP3 SUB PUSH3 0x162 JUMPI PUSH1 0x1 PUSH1 0x1 PUSH1 0xA0 SHL SUB SWAP1 DUP2 AND DUP1 ISZERO DUP1 ISZERO PUSH3 0x157 JUMPI JUMPDEST PUSH3 0x146 JUMPI PUSH4 0xFFFFFFFF SWAP2 DUP3 DUP6 AND DUP1 ISZERO SWAP1 DUP2 ISZERO PUSH3 0x139 JUMPI JUMPDEST POP PUSH3 0x128 JUMPI PUSH8 0xFFFFFFFF00000000 SWAP5 SWAP6 SWAP7 SWAP8 PUSH1 0x1 DUP1 PUSH1 0xA0 SHL SUB NOT SWAP3 DUP4 PUSH1 0x0 SLOAD AND OR PUSH1 0x0 SSTORE AND SWAP1 PUSH1 0x1 SLOAD AND OR PUSH1 0x1 SSTORE PUSH1 0x5 SLOAD SWAP2 PUSH9 0x10000000000000000 PUSH1 0x1 PUSH1 0x80 SHL SUB SWAP1 DUP8 SHL AND SWAP5 AND SWAP1 PUSH1 0x1 DUP1 PUSH1 0x80 SHL SUB NOT AND OR SWAP2 PUSH1 0x20 SHL AND OR OR PUSH1 0x5 SSTORE MLOAD PUSH2 0x1577 SWAP1 DUP2 PUSH3 0x1A5 DUP3 CODECOPY RETURN JUMPDEST DUP7 MLOAD PUSH4 0xB4FA3FB3 PUSH1 0xE0 SHL DUP2 MSTORE PUSH1 0x4 SWAP1 REVERT JUMPDEST PUSH2 0x2710 SWAP2 POP GT CODESIZE PUSH3 0xBC JUMP JUMPDEST DUP6 MLOAD PUSH4 0xB4FA3FB3 PUSH1 0xE0 SHL DUP2 MSTORE PUSH1 0x4 SWAP1 REVERT JUMPDEST POP DUP2 DUP8 AND ISZERO PUSH3 0xA3 JUMP JUMPDEST PUSH1 0x0 DUP1 REVERT JUMPDEST PUSH4 0x4E487B71 PUSH1 0xE0 SHL PUSH1 0x0 MSTORE PUSH1 0x41 PUSH1 0x4 MSTORE PUSH1 0x24 PUSH1 0x0 REVERT JUMPDEST MLOAD SWAP1 PUSH1 0x1 PUSH1 0x1 PUSH1 0xA0 SHL SUB DUP3 AND DUP3 SUB PUSH3 0x162 JUMPI JUMP JUMPDEST MLOAD SWAP1 PUSH4 0xFFFFFFFF DUP3 AND DUP3 SUB PUSH3 0x162 JUMPI JUMP INVALID PUSH1 0x80 PUSH1 0x40 MSTORE PUSH1 0x4 CALLDATASIZE LT ISZERO PUSH2 0x12 JUMPI PUSH1 0x0 DUP1 REVERT JUMPDEST PUSH1 0x0 DUP1 CALLDATALOAD PUSH1 0xE0 SHR DUP1 PUSH4 0x13CF08B EQ PUSH2 0x104B JUMPI DUP1 PUSH4 0x8109E34 EQ PUSH2 0xB83 JUMPI DUP1 PUSH4 0x1703A018 EQ PUSH2 0xB5F JUMPI DUP1 PUSH4 0x5277B4AE EQ PUSH2 0xB12 JUMPI DUP1 PUSH4 0x5CCDE301 EQ PUSH2 0xAE9 JUMPI DUP1 PUSH4 0x65A1F3C3 EQ PUSH2 0xABF JUMPI DUP1 PUSH4 0x6BC7B7F0 EQ PUSH2 0x59A JUMPI DUP1 PUSH4 0x6C3D9D1C EQ PUSH2 0x574 JUMPI DUP1 PUSH4 0x96F543E7 EQ PUSH2 0x54D JUMPI DUP1 PUSH4 0xC9D27AFE EQ PUSH2 0x3BB JUMPI DUP1 PUSH4 0xCC63604A EQ PUSH2 0x392 JUMPI DUP1 PUSH4 0xDA35C664 EQ PUSH2 0x374 JUMPI PUSH4 0xFE0D94C1 EQ PUSH2 0xAC JUMPI PUSH1 0x0 DUP1 REVERT JUMPDEST CALLVALUE PUSH2 0x371 JUMPI PUSH1 0x20 DUP1 PUSH1 0x3 NOT CALLDATASIZE ADD SLT PUSH2 0x241 JUMPI PUSH1 0x4 CALLDATALOAD PUSH1 0x1 DUP1 PUSH1 0xA0 SHL SUB PUSH1 0x24 DUP4 DUP3 DUP7 SLOAD AND PUSH1 0x40 MLOAD SWAP3 DUP4 DUP1 SWAP3 PUSH4 0x26AAB853 PUSH1 0xE2 SHL DUP3 MSTORE CALLER PUSH1 0x4 DUP4 ADD MSTORE GAS STATICCALL SWAP1 DUP2 ISZERO PUSH2 0x366 JUMPI DUP6 SWAP2 PUSH2 0x339 JUMPI JUMPDEST POP ISZERO PUSH2 0x327 JUMPI DUP2 DUP5 MSTORE PUSH1 0x3 DUP4 MSTORE PUSH1 0x40 DUP5 KECCAK256 SWAP3 PUSH1 0x4 DUP5 ADD DUP1 SLOAD PUSH1 0xFF DUP2 PUSH1 0xC8 SHR AND ISZERO PUSH2 0x315 JUMPI PUSH1 0xFF DUP2 PUSH1 0xC0 SHR AND PUSH2 0x303 JUMPI PUSH2 0x12E DUP6 PUSH2 0x13A7 JUMP JUMPDEST ISZERO PUSH2 0x2F1 JUMPI PUSH1 0xFF PUSH1 0xC0 SHL NOT AND PUSH1 0x1 PUSH1 0xC0 SHL OR SWAP1 SSTORE DUP4 SLOAD SWAP4 DUP5 ISZERO PUSH2 0x26C JUMPI JUMPDEST DUP3 PUSH1 0x1 SLOAD AND DUP7 PUSH1 0x2 DUP4 ADD SLOAD DUP3 EXTCODESIZE ISZERO PUSH2 0x241 JUMPI PUSH1 0x40 MLOAD SWAP3 DUP4 SWAP2 PUSH4 0x376762F5 PUSH1 0xE1 SHL DUP4 MSTORE DUP10 PUSH1 0x4 DUP5 ADD MSTORE PUSH1 0x24 DUP4 ADD MSTORE PUSH1 0x60 PUSH1 0x44 DUP4 ADD MSTORE DUP2 DUP4 DUP2 PUSH2 0x193 PUSH1 0x64 DUP3 ADD PUSH1 0x3 DUP11 ADD PUSH2 0x148B JUMP JUMPDEST SUB SWAP3 GAS CALL DUP1 ISZERO PUSH2 0x261 JUMPI PUSH2 0x24E JUMPI JUMPDEST POP SLOAD PUSH2 0x245 JUMPI DUP5 PUSH1 0xFF PUSH1 0x1 JUMPDEST AND SWAP3 DUP4 PUSH2 0x1E4 JUMPI JUMPDEST POP POP PUSH32 0x3E504BB8B225AD41F613B0C3C4205CDD752D1615B4D77CD1773417282FCFB5D9 SWAP2 PUSH1 0x40 MLOAD SWAP1 DUP2 MSTORE LOG3 DUP1 RETURN JUMPDEST PUSH1 0x1 SLOAD AND DUP1 EXTCODESIZE ISZERO PUSH2 0x241 JUMPI DUP2 DUP1 SWAP2 PUSH1 0x44 PUSH1 0x40 MLOAD DUP1 SWAP5 DUP2 SWAP4 PUSH4 0xA3A7BF41 PUSH1 0xE0 SHL DUP4 MSTORE DUP12 PUSH1 0x4 DUP5 ADD MSTORE DUP10 PUSH1 0x24 DUP5 ADD MSTORE GAS CALL DUP1 ISZERO PUSH2 0x236 JUMPI ISZERO PUSH2 0x1B6 JUMPI PUSH2 0x227 SWAP1 PUSH2 0x1188 JUMP JUMPDEST PUSH2 0x232 JUMPI DUP5 CODESIZE PUSH2 0x1B6 JUMP JUMPDEST DUP5 DUP1 REVERT JUMPDEST PUSH1 0x40 MLOAD RETURNDATASIZE DUP5 DUP3 RETURNDATACOPY RETURNDATASIZE SWAP1 REVERT JUMPDEST POP DUP1 REVERT JUMPDEST DUP5 PUSH1 0xFF DUP2 PUSH2 0x1AE JUMP JUMPDEST PUSH2 0x25A SWAP1 SWAP7 SWAP2 SWAP7 PUSH2 0x1188 JUMP JUMPDEST SWAP5 CODESIZE PUSH2 0x1A2 JUMP JUMPDEST PUSH1 0x40 MLOAD RETURNDATASIZE DUP10 DUP3 RETURNDATACOPY RETURNDATASIZE SWAP1 REVERT JUMPDEST SWAP4 POP DUP2 PUSH1 0x1 SLOAD AND DUP2 PUSH1 0x40 MLOAD DUP1 SWAP3 PUSH4 0x50BAC855 PUSH1 0xE1 SHL DUP3 MSTORE DUP3 PUSH1 0x4 DUP4 ADD MSTORE DUP2 DUP10 DUP2 PUSH2 0x29C PUSH1 0x24 DUP3 ADD PUSH1 0x1 DUP14 ADD PUSH2 0x148B JUMP JUMPDEST SUB SWAP3 GAS CALL SWAP1 DUP2 ISZERO PUSH2 0x2E6 JUMPI DUP7 SWAP2 PUSH2 0x2B5 JUMPI JUMPDEST POP SWAP4 PUSH2 0x14C JUMP JUMPDEST SWAP1 POP DUP2 DUP2 DUP2 RETURNDATASIZE DUP4 GT PUSH2 0x2DF JUMPI JUMPDEST PUSH2 0x2CC DUP2 DUP4 PUSH2 0x119B JUMP JUMPDEST DUP2 ADD SUB SLT PUSH2 0x2DB JUMPI MLOAD CODESIZE PUSH2 0x2AE JUMP JUMPDEST DUP6 DUP1 REVERT JUMPDEST POP RETURNDATASIZE PUSH2 0x2C2 JUMP JUMPDEST PUSH1 0x40 MLOAD RETURNDATASIZE DUP9 DUP3 RETURNDATACOPY RETURNDATASIZE SWAP1 REVERT JUMPDEST PUSH1 0x40 MLOAD PUSH4 0x23F70A75 PUSH1 0xE1 SHL DUP2 MSTORE PUSH1 0x4 SWAP1 REVERT JUMPDEST PUSH1 0x40 MLOAD PUSH4 0xDC10197 PUSH1 0xE0 SHL DUP2 MSTORE PUSH1 0x4 SWAP1 REVERT JUMPDEST PUSH1 0x40 MLOAD PUSH4 0x635E8737 PUSH1 0xE0 SHL DUP2 MSTORE PUSH1 0x4 SWAP1 REVERT JUMPDEST PUSH1 0x40 MLOAD PUSH4 0xF0F9435F PUSH1 0xE0 SHL DUP2 MSTORE PUSH1 0x4 SWAP1 REVERT JUMPDEST PUSH2 0x359 SWAP2 POP DUP5 RETURNDATASIZE DUP7 GT PUSH2 0x35F JUMPI JUMPDEST PUSH2 0x351 DUP2 DUP4 PUSH2 0x119B JUMP JUMPDEST DUP2 ADD SWAP1 PUSH2 0x12D3 JUMP JUMPDEST CODESIZE PUSH2 0xF6 JUMP JUMPDEST POP RETURNDATASIZE PUSH2 0x347 JUMP JUMPDEST PUSH1 0x40 MLOAD RETURNDATASIZE DUP8 DUP3 RETURNDATACOPY RETURNDATASIZE SWAP1 REVERT JUMPDEST DUP1 REVERT JUMPDEST POP CALLVALUE PUSH2 0x371 JUMPI DUP1 PUSH1 0x3 NOT CALLDATASIZE ADD SLT PUSH2 0x371 JUMPI PUSH1 0x20 PUSH1 0x2 SLOAD PUSH1 0x40 MLOAD SWAP1 DUP2 MSTORE RETURN JUMPDEST POP CALLVALUE PUSH2 0x371 JUMPI PUSH1 0x20 CALLDATASIZE PUSH1 0x3 NOT ADD SLT PUSH2 0x371 JUMPI PUSH1 0x20 PUSH2 0x3B1 PUSH1 0x4 CALLDATALOAD PUSH2 0x13A7 JUMP JUMPDEST PUSH1 0x40 MLOAD SWAP1 ISZERO ISZERO DUP2 MSTORE RETURN JUMPDEST POP CALLVALUE PUSH2 0x371 JUMPI PUSH1 0x40 CALLDATASIZE PUSH1 0x3 NOT ADD SLT PUSH2 0x371 JUMPI PUSH1 0x4 CALLDATALOAD PUSH1 0x24 CALLDATALOAD SWAP1 DUP2 ISZERO ISZERO SWAP2 DUP3 DUP2 SUB PUSH2 0x549 JUMPI DUP4 SLOAD PUSH1 0x40 MLOAD PUSH4 0x26AAB853 PUSH1 0xE2 SHL DUP2 MSTORE CALLER PUSH1 0x4 DUP3 ADD MSTORE PUSH1 0x20 SWAP2 DUP3 SWAP1 DUP3 SWAP1 PUSH1 0x24 SWAP1 DUP3 SWAP1 PUSH1 0x1 PUSH1 0x1 PUSH1 0xA0 SHL SUB AND GAS STATICCALL SWAP1 DUP2 ISZERO PUSH2 0x2E6 JUMPI DUP7 SWAP2 PUSH2 0x52C JUMPI JUMPDEST POP ISZERO PUSH2 0x327 JUMPI DUP3 DUP6 MSTORE PUSH1 0x3 DUP2 MSTORE PUSH1 0x4 PUSH1 0x40 DUP7 KECCAK256 ADD PUSH1 0xFF DUP2 SLOAD PUSH1 0xC8 SHR AND ISZERO PUSH2 0x315 JUMPI DUP4 DUP7 MSTORE PUSH1 0x4 DUP3 MSTORE PUSH1 0x40 DUP7 KECCAK256 CALLER DUP8 MSTORE DUP3 MSTORE PUSH1 0xFF PUSH1 0x40 DUP8 KECCAK256 SLOAD AND PUSH2 0x51A JUMPI DUP4 DUP7 MSTORE PUSH1 0x4 DUP3 MSTORE PUSH1 0x40 DUP1 DUP8 KECCAK256 CALLER DUP9 MSTORE DUP4 MSTORE DUP7 KECCAK256 DUP1 SLOAD PUSH1 0xFF NOT AND PUSH1 0x1 OR SWAP1 SSTORE PUSH32 0xF2913DBE661EE2ACC4A046D8FBCDC792373BDA34C41C6086484B5345E5785E5F SWAP3 ISZERO PUSH2 0x4DE JUMPI DUP1 PUSH2 0x4B2 PUSH4 0xFFFFFFFF PUSH2 0x4D2 SWAP4 SLOAD PUSH1 0x80 SHR AND PUSH2 0x1392 JUMP JUMPDEST DUP2 SLOAD PUSH4 0xFFFFFFFF PUSH1 0x80 SHL NOT AND PUSH1 0x80 SWAP2 SWAP1 SWAP2 SHL PUSH4 0xFFFFFFFF PUSH1 0x80 SHL AND OR SWAP1 SSTORE JUMP JUMPDEST PUSH1 0x40 MLOAD SWAP4 DUP5 MSTORE CALLER SWAP4 LOG3 DUP1 RETURN JUMPDEST DUP1 PUSH2 0x4F5 PUSH4 0xFFFFFFFF PUSH2 0x515 SWAP4 SLOAD PUSH1 0xA0 SHR AND PUSH2 0x1392 JUMP JUMPDEST DUP2 SLOAD PUSH4 0xFFFFFFFF PUSH1 0xA0 SHL NOT AND PUSH1 0xA0 SWAP2 SWAP1 SWAP2 SHL PUSH4 0xFFFFFFFF PUSH1 0xA0 SHL AND OR SWAP1 SSTORE JUMP JUMPDEST PUSH2 0x4D2 JUMP JUMPDEST PUSH1 0x40 MLOAD PUSH4 0x7C9A1CF9 PUSH1 0xE0 SHL DUP2 MSTORE PUSH1 0x4 SWAP1 REVERT JUMPDEST PUSH2 0x543 SWAP2 POP DUP3 RETURNDATASIZE DUP5 GT PUSH2 0x35F JUMPI PUSH2 0x351 DUP2 DUP4 PUSH2 0x119B JUMP JUMPDEST CODESIZE PUSH2 0x419 JUMP JUMPDEST DUP4 DUP1 REVERT JUMPDEST POP CALLVALUE PUSH2 0x371 JUMPI DUP1 PUSH1 0x3 NOT CALLDATASIZE ADD SLT PUSH2 0x371 JUMPI SLOAD PUSH1 0x40 MLOAD PUSH1 0x1 PUSH1 0x1 PUSH1 0xA0 SHL SUB SWAP1 SWAP2 AND DUP2 MSTORE PUSH1 0x20 SWAP1 RETURN JUMPDEST POP CALLVALUE PUSH2 0x371 JUMPI DUP1 PUSH1 0x3 NOT CALLDATASIZE ADD SLT PUSH2 0x371 JUMPI PUSH1 0x20 PUSH1 0x5 SLOAD PUSH4 0xFFFFFFFF PUSH1 0x40 MLOAD SWAP2 DUP4 SHR AND DUP2 MSTORE RETURN JUMPDEST POP CALLVALUE PUSH2 0x371 JUMPI PUSH1 0x60 CALLDATASIZE PUSH1 0x3 NOT ADD SLT PUSH2 0x371 JUMPI PUSH1 0x44 CALLDATALOAD PUSH1 0x1 PUSH1 0x1 PUSH1 0x40 SHL SUB DUP2 GT PUSH2 0x241 JUMPI PUSH2 0x5CB SWAP1 CALLDATASIZE SWAP1 PUSH1 0x4 ADD PUSH2 0x12A1 JUMP JUMPDEST DUP3 SLOAD PUSH1 0x40 MLOAD PUSH4 0x26AAB853 PUSH1 0xE2 SHL DUP2 MSTORE CALLER PUSH1 0x4 DUP3 ADD MSTORE SWAP1 PUSH1 0x20 SWAP1 DUP3 SWAP1 PUSH1 0x24 SWAP1 DUP3 SWAP1 PUSH1 0x1 PUSH1 0x1 PUSH1 0xA0 SHL SUB AND GAS STATICCALL SWAP1 DUP2 ISZERO PUSH2 0xAB4 JUMPI DUP5 SWAP2 PUSH2 0xA95 JUMPI JUMPDEST POP ISZERO PUSH2 0x327 JUMPI PUSH1 0x4 CALLDATALOAD ISZERO PUSH2 0xA83 JUMPI PUSH1 0x24 CALLDATALOAD ISZERO PUSH2 0xA83 JUMPI PUSH2 0x625 PUSH1 0x2 SLOAD PUSH2 0x12EB JUMP JUMPDEST SWAP2 DUP3 PUSH1 0x2 SSTORE PUSH1 0x1 PUSH1 0x1 PUSH1 0x40 SHL SUB TIMESTAMP AND SWAP1 PUSH2 0x64D PUSH1 0x1 PUSH1 0x1 PUSH1 0x40 SHL SUB PUSH1 0x5 SLOAD PUSH1 0x40 SHR AND DUP4 PUSH2 0x1310 JUMP JUMPDEST PUSH1 0x40 MLOAD SWAP1 PUSH2 0x65A DUP3 PUSH2 0x1156 JUMP JUMPDEST PUSH1 0x4 CALLDATALOAD DUP3 MSTORE PUSH1 0x40 MLOAD SWAP4 PUSH1 0x20 DUP6 ADD DUP6 DUP2 LT PUSH1 0x1 PUSH1 0x1 PUSH1 0x40 SHL SUB DUP3 GT OR PUSH2 0xA6F JUMPI SWAP1 PUSH1 0x1 PUSH1 0x1 PUSH1 0x40 SHL SUB SWAP3 SWAP2 PUSH1 0x40 MSTORE DUP9 DUP7 MSTORE PUSH1 0x20 DUP5 ADD SWAP6 DUP7 MSTORE PUSH1 0x24 CALLDATALOAD PUSH1 0x40 DUP6 ADD MSTORE PUSH2 0x6A4 CALLDATASIZE DUP9 DUP8 PUSH2 0x132B JUMP JUMPDEST PUSH1 0x60 DUP6 ADD MSTORE PUSH1 0x80 DUP5 ADD MSTORE AND PUSH1 0xA0 DUP3 ADD MSTORE DUP6 PUSH1 0xC0 DUP3 ADD MSTORE DUP6 PUSH1 0xE0 DUP3 ADD MSTORE DUP6 PUSH2 0x100 DUP3 ADD MSTORE PUSH1 0x1 PUSH2 0x120 DUP3 ADD MSTORE DUP5 DUP7 MSTORE PUSH1 0x3 PUSH1 0x20 MSTORE PUSH1 0x40 DUP7 KECCAK256 SWAP3 DUP2 MLOAD DUP5 SSTORE MLOAD DUP1 MLOAD SWAP1 PUSH1 0x1 PUSH1 0x1 PUSH1 0x40 SHL SUB DUP3 GT PUSH2 0x996 JUMPI DUP2 SWAP1 PUSH2 0x701 PUSH1 0x1 DUP8 ADD SLOAD PUSH2 0x111C JUMP JUMPDEST PUSH1 0x1F DUP2 GT PUSH2 0xA1F JUMPI JUMPDEST POP PUSH1 0x20 SWAP1 PUSH1 0x1F DUP4 GT PUSH1 0x1 EQ PUSH2 0x9B5 JUMPI DUP10 SWAP3 PUSH2 0x9AA JUMPI JUMPDEST POP POP DUP2 PUSH1 0x1 SHL SWAP2 PUSH1 0x0 NOT SWAP1 PUSH1 0x3 SHL SHR NOT AND OR PUSH1 0x1 DUP5 ADD SSTORE JUMPDEST PUSH1 0x40 DUP2 ADD MLOAD PUSH1 0x2 DUP5 ADD SSTORE PUSH1 0x60 DUP2 ADD MLOAD DUP1 MLOAD SWAP1 PUSH1 0x1 PUSH1 0x1 PUSH1 0x40 SHL SUB DUP3 GT PUSH2 0x996 JUMPI PUSH2 0x765 PUSH1 0x3 DUP7 ADD SLOAD PUSH2 0x111C JUMP JUMPDEST PUSH1 0x1F DUP2 GT PUSH2 0x952 JUMPI JUMPDEST POP SWAP2 DUP8 SWAP2 DUP8 SWAP5 SWAP4 PUSH1 0x20 SWAP10 POP DUP10 SWAP1 PUSH1 0x1F DUP4 GT PUSH1 0x1 EQ PUSH2 0x8CC JUMPI SWAP7 DUP3 PUSH2 0x120 SWAP4 PUSH1 0x4 SWAP4 PUSH1 0x0 DUP1 MLOAD PUSH1 0x20 PUSH2 0x1522 DUP4 CODECOPY DUP2 MLOAD SWAP2 MSTORE SWAP10 SWAP11 DUP9 SWAP3 PUSH2 0x8C1 JUMPI JUMPDEST POP POP DUP2 PUSH1 0x1 SHL SWAP2 PUSH1 0x0 NOT SWAP1 PUSH1 0x3 SHL SHR NOT AND OR PUSH1 0x3 DUP3 ADD SSTORE JUMPDEST ADD SWAP2 PUSH1 0x1 PUSH1 0x1 PUSH1 0x40 SHL SUB PUSH1 0x80 DUP3 ADD MLOAD AND DUP4 SLOAD SWAP1 PUSH8 0xFFFFFFFFFFFFFFFF PUSH1 0x40 SHL PUSH1 0xA0 DUP5 ADD MLOAD PUSH1 0x40 SHL AND SWAP2 PUSH1 0x1 PUSH1 0x1 PUSH1 0x80 SHL SUB NOT AND OR OR DUP4 SSTORE PUSH2 0x84E PUSH4 0xFFFFFFFF PUSH2 0x82A DUP2 PUSH1 0xC0 DUP6 ADD MLOAD AND DUP7 SWAP1 DUP2 SLOAD SWAP1 PUSH4 0xFFFFFFFF PUSH1 0x80 SHL SWAP1 PUSH1 0x80 SHL AND SWAP1 PUSH4 0xFFFFFFFF PUSH1 0x80 SHL NOT AND OR SWAP1 SSTORE JUMP JUMPDEST PUSH1 0xE0 DUP4 ADD MLOAD DUP6 SLOAD PUSH4 0xFFFFFFFF PUSH1 0xA0 SHL NOT AND SWAP2 AND PUSH1 0xA0 SHL PUSH4 0xFFFFFFFF PUSH1 0xA0 SHL AND OR DUP5 SSTORE JUMP JUMPDEST PUSH2 0x100 DUP2 ADD MLOAD DUP4 SLOAD PUSH1 0xFF PUSH1 0xC0 SHL NOT AND SWAP1 ISZERO ISZERO PUSH1 0xC0 SHL PUSH1 0xFF PUSH1 0xC0 SHL AND OR DUP4 SSTORE ADD MLOAD ISZERO ISZERO DUP2 SLOAD SWAP1 PUSH1 0xFF PUSH1 0xC8 SHL SWAP1 PUSH1 0xC8 SHL AND SWAP1 PUSH1 0xFF PUSH1 0xC8 SHL NOT AND OR SWAP1 SSTORE PUSH2 0x8B6 PUSH1 0x40 MLOAD SWAP3 DUP4 SWAP3 PUSH1 0x60 DUP5 MSTORE PUSH1 0x60 DUP5 ADD MSTORE PUSH1 0x24 CALLDATALOAD DUP10 DUP5 ADD MSTORE PUSH1 0x80 PUSH1 0x40 DUP5 ADD MSTORE PUSH1 0x4 CALLDATALOAD SWAP7 PUSH1 0x80 DUP5 ADD SWAP2 PUSH2 0x1371 JUMP JUMPDEST SUB SWAP1 LOG3 PUSH1 0x40 MLOAD SWAP1 DUP2 MSTORE RETURN JUMPDEST ADD MLOAD SWAP1 POP CODESIZE DUP1 PUSH2 0x7A7 JUMP JUMPDEST PUSH1 0x3 DUP9 SWAP4 SWAP3 SWAP9 ADD DUP6 MSTORE DUP11 DUP6 KECCAK256 SWAP1 DUP6 JUMPDEST PUSH1 0x1F NOT DUP5 AND DUP2 LT PUSH2 0x938 JUMPI POP DUP3 PUSH2 0x120 SWAP5 SWAP3 PUSH1 0x0 DUP1 MLOAD PUSH1 0x20 PUSH2 0x1522 DUP4 CODECOPY DUP2 MLOAD SWAP2 MSTORE SWAP10 SWAP11 PUSH1 0x1 SWAP4 PUSH1 0x4 SWAP7 PUSH1 0x1F NOT DUP2 AND LT PUSH2 0x91F JUMPI JUMPDEST POP POP POP DUP2 SHL ADD PUSH1 0x3 DUP3 ADD SSTORE PUSH2 0x7BF JUMP JUMPDEST ADD MLOAD PUSH1 0x0 NOT PUSH1 0xF8 DUP5 PUSH1 0x3 SHL AND SHR NOT AND SWAP1 SSTORE CODESIZE DUP1 DUP1 PUSH2 0x90F JUMP JUMPDEST DUP2 DUP11 ADD MLOAD DUP4 SSTORE SWAP9 DUP13 ADD SWAP9 DUP12 SWAP9 POP PUSH1 0x1 SWAP1 SWAP3 ADD SWAP2 DUP13 ADD PUSH2 0x8DB JUMP JUMPDEST PUSH1 0x3 DUP7 ADD DUP10 MSTORE PUSH1 0x20 DUP10 KECCAK256 PUSH1 0x1F DUP5 ADD PUSH1 0x5 SHR DUP2 ADD PUSH1 0x20 DUP6 LT PUSH2 0x98F JUMPI JUMPDEST PUSH1 0x1F DUP4 ADD PUSH1 0x5 SHR DUP3 ADD DUP2 LT PUSH2 0x984 JUMPI POP POP PUSH2 0x76E JUMP JUMPDEST DUP11 DUP2 SSTORE PUSH1 0x1 ADD PUSH2 0x96E JUMP JUMPDEST POP DUP1 PUSH2 0x96E JUMP JUMPDEST PUSH4 0x4E487B71 PUSH1 0xE0 SHL DUP9 MSTORE PUSH1 0x41 PUSH1 0x4 MSTORE PUSH1 0x24 DUP9 REVERT JUMPDEST ADD MLOAD SWAP1 POP CODESIZE DUP1 PUSH2 0x720 JUMP JUMPDEST PUSH1 0x1 DUP8 ADD DUP11 MSTORE PUSH1 0x20 DUP11 KECCAK256 SWAP3 POP PUSH1 0x1F NOT DUP5 AND DUP11 JUMPDEST DUP2 DUP2 LT PUSH2 0xA07 JUMPI POP SWAP1 DUP5 PUSH1 0x1 SWAP6 SWAP5 SWAP4 SWAP3 LT PUSH2 0x9EE JUMPI JUMPDEST POP POP POP DUP2 SHL ADD PUSH1 0x1 DUP5 ADD SSTORE PUSH2 0x738 JUMP JUMPDEST ADD MLOAD PUSH1 0x0 NOT PUSH1 0xF8 DUP5 PUSH1 0x3 SHL AND SHR NOT AND SWAP1 SSTORE CODESIZE DUP1 DUP1 PUSH2 0x9DE JUMP JUMPDEST SWAP3 SWAP4 PUSH1 0x20 PUSH1 0x1 DUP2 SWAP3 DUP8 DUP7 ADD MLOAD DUP2 SSTORE ADD SWAP6 ADD SWAP4 ADD PUSH2 0x9C8 JUMP JUMPDEST SWAP1 SWAP2 POP PUSH1 0x1 DUP7 ADD DUP10 MSTORE PUSH1 0x20 DUP10 KECCAK256 PUSH1 0x1F DUP5 ADD PUSH1 0x5 SHR DUP2 ADD PUSH1 0x20 DUP6 LT PUSH2 0xA68 JUMPI JUMPDEST SWAP1 DUP5 SWAP4 SWAP3 SWAP2 JUMPDEST PUSH1 0x1F DUP4 ADD PUSH1 0x5 SHR DUP3 ADD DUP2 LT PUSH2 0xA5A JUMPI POP POP PUSH2 0x70A JUMP JUMPDEST DUP12 DUP2 SSTORE DUP6 SWAP5 POP PUSH1 0x1 ADD PUSH2 0xA44 JUMP JUMPDEST POP DUP1 PUSH2 0xA3E JUMP JUMPDEST PUSH4 0x4E487B71 PUSH1 0xE0 SHL DUP10 MSTORE PUSH1 0x41 PUSH1 0x4 MSTORE PUSH1 0x24 DUP10 REVERT JUMPDEST PUSH1 0x40 MLOAD PUSH4 0xB4FA3FB3 PUSH1 0xE0 SHL DUP2 MSTORE PUSH1 0x4 SWAP1 REVERT JUMPDEST PUSH2 0xAAE SWAP2 POP PUSH1 0x20 RETURNDATASIZE PUSH1 0x20 GT PUSH2 0x35F JUMPI PUSH2 0x351 DUP2 DUP4 PUSH2 0x119B JUMP JUMPDEST CODESIZE PUSH2 0x604 JUMP JUMPDEST PUSH1 0x40 MLOAD RETURNDATASIZE DUP7 DUP3 RETURNDATACOPY RETURNDATASIZE SWAP1 REVERT JUMPDEST POP CALLVALUE PUSH2 0x371 JUMPI DUP1 PUSH1 0x3 NOT CALLDATASIZE ADD SLT PUSH2 0x371 JUMPI PUSH1 0x20 PUSH1 0x1 PUSH1 0x1 PUSH1 0x40 SHL SUB PUSH1 0x5 SLOAD PUSH1 0x40 SHR AND PUSH1 0x40 MLOAD SWAP1 DUP2 MSTORE RETURN JUMPDEST POP CALLVALUE PUSH2 0x371 JUMPI DUP1 PUSH1 0x3 NOT CALLDATASIZE ADD SLT PUSH2 0x371 JUMPI PUSH1 0x1 SLOAD PUSH1 0x40 MLOAD PUSH1 0x1 PUSH1 0x1 PUSH1 0xA0 SHL SUB SWAP1 SWAP2 AND DUP2 MSTORE PUSH1 0x20 SWAP1 RETURN JUMPDEST POP CALLVALUE PUSH2 0x371 JUMPI PUSH1 0x40 CALLDATASIZE PUSH1 0x3 NOT ADD SLT PUSH2 0x371 JUMPI PUSH1 0x24 CALLDATALOAD PUSH1 0x1 PUSH1 0x1 PUSH1 0xA0 SHL SUB DUP2 AND SWAP1 DUP2 SWAP1 SUB PUSH2 0x241 JUMPI PUSH1 0x40 PUSH1 0x20 SWAP3 PUSH1 0xFF SWAP3 PUSH1 0x4 CALLDATALOAD DUP3 MSTORE PUSH1 0x4 DUP6 MSTORE DUP3 DUP3 KECCAK256 SWAP1 DUP3 MSTORE DUP5 MSTORE KECCAK256 SLOAD AND PUSH1 0x40 MLOAD SWAP1 ISZERO ISZERO DUP2 MSTORE RETURN JUMPDEST POP CALLVALUE PUSH2 0x371 JUMPI DUP1 PUSH1 0x3 NOT CALLDATASIZE ADD SLT PUSH2 0x371 JUMPI PUSH1 0x20 PUSH4 0xFFFFFFFF PUSH1 0x5 SLOAD AND PUSH1 0x40 MLOAD SWAP1 DUP2 MSTORE RETURN JUMPDEST POP CALLVALUE PUSH2 0x371 JUMPI PUSH1 0x60 CALLDATASIZE PUSH1 0x3 NOT ADD SLT PUSH2 0x371 JUMPI PUSH1 0x4 CALLDATALOAD PUSH1 0x1 PUSH1 0x1 PUSH1 0x40 SHL SUB DUP2 GT PUSH2 0x241 JUMPI PUSH2 0xBB4 SWAP1 CALLDATASIZE SWAP1 PUSH1 0x4 ADD PUSH2 0x12A1 JUMP JUMPDEST SWAP1 SWAP2 PUSH1 0x44 CALLDATALOAD PUSH1 0x1 PUSH1 0x1 PUSH1 0x40 SHL SUB DUP2 GT PUSH2 0x241 JUMPI PUSH2 0xBD5 SWAP1 CALLDATASIZE SWAP1 PUSH1 0x4 ADD PUSH2 0x12A1 JUMP JUMPDEST DUP3 SLOAD PUSH1 0x40 MLOAD PUSH4 0x26AAB853 PUSH1 0xE2 SHL DUP2 MSTORE CALLER PUSH1 0x4 DUP3 ADD MSTORE SWAP3 SWAP5 SWAP2 SWAP3 SWAP1 PUSH1 0x20 SWAP1 DUP3 SWAP1 PUSH1 0x24 SWAP1 DUP3 SWAP1 PUSH1 0x1 PUSH1 0x1 PUSH1 0xA0 SHL SUB AND GAS STATICCALL SWAP1 DUP2 ISZERO PUSH2 0xAB4 JUMPI DUP5 SWAP2 PUSH2 0x102C JUMPI JUMPDEST POP ISZERO PUSH2 0x327 JUMPI DUP1 ISZERO PUSH2 0xA83 JUMPI PUSH1 0x24 CALLDATALOAD ISZERO PUSH2 0xA83 JUMPI PUSH2 0xC31 PUSH1 0x2 SLOAD PUSH2 0x12EB JUMP JUMPDEST SWAP4 DUP5 PUSH1 0x2 SSTORE PUSH1 0x1 PUSH1 0x1 PUSH1 0x40 SHL SUB TIMESTAMP AND PUSH2 0xC58 PUSH1 0x1 PUSH1 0x1 PUSH1 0x40 SHL SUB PUSH1 0x5 SLOAD PUSH1 0x40 SHR AND DUP3 PUSH2 0x1310 JUMP JUMPDEST SWAP1 PUSH1 0x1 PUSH1 0x1 PUSH1 0x40 SHL SUB PUSH1 0x40 MLOAD SWAP3 PUSH2 0xC6E DUP5 PUSH2 0x1156 JUMP JUMPDEST DUP8 DUP5 MSTORE PUSH2 0xC7C CALLDATASIZE DUP8 DUP13 PUSH2 0x132B JUMP JUMPDEST SWAP3 PUSH1 0x20 DUP6 ADD SWAP4 DUP5 MSTORE PUSH1 0x24 CALLDATALOAD PUSH1 0x40 DUP7 ADD MSTORE PUSH2 0xC97 CALLDATASIZE DUP10 DUP9 PUSH2 0x132B JUMP JUMPDEST PUSH1 0x60 DUP7 ADD MSTORE PUSH1 0x80 DUP6 ADD MSTORE AND PUSH1 0xA0 DUP4 ADD MSTORE DUP6 PUSH1 0xC0 DUP4 ADD MSTORE DUP6 PUSH1 0xE0 DUP4 ADD MSTORE DUP6 PUSH2 0x100 DUP4 ADD MSTORE PUSH1 0x1 PUSH2 0x120 DUP4 ADD MSTORE DUP7 DUP7 MSTORE PUSH1 0x3 PUSH1 0x20 MSTORE PUSH1 0x40 DUP7 KECCAK256 SWAP1 DUP3 MLOAD DUP3 SSTORE MLOAD DUP1 MLOAD SWAP1 PUSH1 0x1 PUSH1 0x1 PUSH1 0x40 SHL SUB DUP3 GT PUSH2 0x996 JUMPI DUP2 SWAP1 PUSH2 0xCF4 PUSH1 0x1 DUP6 ADD SLOAD PUSH2 0x111C JUMP JUMPDEST PUSH1 0x1F DUP2 GT PUSH2 0xFDC JUMPI JUMPDEST POP PUSH1 0x20 SWAP1 PUSH1 0x1F DUP4 GT PUSH1 0x1 EQ PUSH2 0xF72 JUMPI DUP10 SWAP3 PUSH2 0xF67 JUMPI JUMPDEST POP POP DUP2 PUSH1 0x1 SHL SWAP2 PUSH1 0x0 NOT SWAP1 PUSH1 0x3 SHL SHR NOT AND OR PUSH1 0x1 DUP3 ADD SSTORE JUMPDEST PUSH1 0x40 DUP3 ADD MLOAD PUSH1 0x2 DUP3 ADD SSTORE PUSH1 0x60 DUP3 ADD MLOAD DUP1 MLOAD SWAP1 PUSH1 0x1 PUSH1 0x1 PUSH1 0x40 SHL SUB DUP3 GT PUSH2 0x996 JUMPI PUSH2 0xD58 PUSH1 0x3 DUP5 ADD SLOAD PUSH2 0x111C JUMP JUMPDEST PUSH1 0x1F DUP2 GT PUSH2 0xF23 JUMPI JUMPDEST POP SWAP2 DUP9 SWAP6 SWAP4 SWAP2 PUSH1 0x20 SWAP11 SWAP6 SWAP4 DUP12 SWAP1 DUP11 PUSH1 0x1F DUP5 GT PUSH1 0x1 EQ PUSH2 0xE94 JUMPI SWAP4 DUP4 PUSH2 0x8B6 SWAP8 SWAP7 SWAP5 PUSH2 0x120 SWAP5 PUSH1 0x4 SWAP5 PUSH1 0x0 DUP1 MLOAD PUSH1 0x20 PUSH2 0x1522 DUP4 CODECOPY DUP2 MLOAD SWAP2 MSTORE SWAP14 SWAP15 SWAP9 SWAP3 PUSH2 0xE89 JUMPI JUMPDEST POP POP DUP2 PUSH1 0x1 SHL SWAP2 PUSH1 0x0 NOT SWAP1 PUSH1 0x3 SHL SHR NOT AND OR PUSH1 0x3 DUP3 ADD SSTORE JUMPDEST ADD SWAP2 PUSH1 0x1 PUSH1 0x1 PUSH1 0x40 SHL SUB PUSH1 0x80 DUP3 ADD MLOAD AND DUP4 SLOAD SWAP1 PUSH8 0xFFFFFFFFFFFFFFFF PUSH1 0x40 SHL PUSH1 0xA0 DUP5 ADD MLOAD PUSH1 0x40 SHL AND SWAP2 PUSH1 0x1 PUSH1 0x1 PUSH1 0x80 SHL SUB NOT AND OR OR DUP4 SSTORE PUSH2 0xE24 PUSH4 0xFFFFFFFF PUSH2 0x82A DUP2 PUSH1 0xC0 DUP6 ADD MLOAD AND DUP7 SWAP1 DUP2 SLOAD SWAP1 PUSH4 0xFFFFFFFF PUSH1 0x80 SHL SWAP1 PUSH1 0x80 SHL AND SWAP1 PUSH4 0xFFFFFFFF PUSH1 0x80 SHL NOT AND OR SWAP1 SSTORE JUMP JUMPDEST PUSH2 0x100 DUP2 ADD MLOAD DUP4 SLOAD PUSH1 0xFF PUSH1 0xC0 SHL NOT AND SWAP1 ISZERO ISZERO PUSH1 0xC0 SHL PUSH1 0xFF PUSH1 0xC0 SHL AND OR DUP4 SSTORE ADD MLOAD DUP2 SLOAD PUSH1 0xFF PUSH1 0xC8 SHL NOT AND SWAP1 ISZERO ISZERO PUSH1 0xC8 SHL PUSH1 0xFF PUSH1 0xC8 SHL AND OR SWAP1 SSTORE PUSH1 0x40 MLOAD PUSH1 0x60 DUP1 DUP3 MSTORE SWAP1 SWAP6 DUP7 SWAP6 PUSH2 0xE74 SWAP3 DUP8 ADD SWAP2 PUSH2 0x1371 JUMP JUMPDEST SWAP2 PUSH1 0x24 CALLDATALOAD DUP12 DUP7 ADD MSTORE DUP5 DUP4 SUB PUSH1 0x40 DUP7 ADD MSTORE PUSH2 0x1371 JUMP JUMPDEST ADD MLOAD SWAP1 POP CODESIZE DUP1 PUSH2 0xDA1 JUMP JUMPDEST POP PUSH1 0x3 DUP5 SWAP4 SWAP3 SWAP11 SWAP6 SWAP5 ADD DUP12 MSTORE DUP13 DUP12 KECCAK256 SWAP1 DUP12 JUMPDEST PUSH1 0x1F NOT DUP5 AND DUP2 LT PUSH2 0xF09 JUMPI POP SWAP3 PUSH1 0x1 DUP4 PUSH1 0x4 SWAP4 PUSH1 0x0 DUP1 MLOAD PUSH1 0x20 PUSH2 0x1522 DUP4 CODECOPY DUP2 MLOAD SWAP2 MSTORE SWAP13 SWAP14 PUSH2 0x8B6 SWAP11 SWAP10 SWAP9 SWAP8 PUSH2 0x120 SWAP8 PUSH1 0x1F NOT DUP2 AND LT PUSH2 0xEF0 JUMPI JUMPDEST POP POP POP DUP2 SHL ADD PUSH1 0x3 DUP3 ADD SSTORE PUSH2 0xDB9 JUMP JUMPDEST ADD MLOAD PUSH1 0x0 NOT PUSH1 0xF8 DUP5 PUSH1 0x3 SHL AND SHR NOT AND SWAP1 SSTORE CODESIZE DUP1 DUP1 PUSH2 0xEE0 JUMP JUMPDEST DUP2 DUP13 ADD MLOAD DUP4 SSTORE SWAP11 DUP15 ADD SWAP11 DUP14 SWAP11 POP PUSH1 0x1 SWAP1 SWAP3 ADD SWAP2 DUP15 ADD PUSH2 0xEA6 JUMP JUMPDEST PUSH1 0x3 DUP5 ADD DUP10 MSTORE PUSH1 0x20 DUP10 KECCAK256 PUSH1 0x1F DUP5 ADD PUSH1 0x5 SHR DUP2 ADD PUSH1 0x20 DUP6 LT PUSH2 0xF60 JUMPI JUMPDEST PUSH1 0x1F DUP4 ADD PUSH1 0x5 SHR DUP3 ADD DUP2 LT PUSH2 0xF55 JUMPI POP POP PUSH2 0xD61 JUMP JUMPDEST DUP11 DUP2 SSTORE PUSH1 0x1 ADD PUSH2 0xF3F JUMP JUMPDEST POP DUP1 PUSH2 0xF3F JUMP JUMPDEST ADD MLOAD SWAP1 POP CODESIZE DUP1 PUSH2 0xD13 JUMP JUMPDEST PUSH1 0x1 DUP6 ADD DUP11 MSTORE PUSH1 0x20 DUP11 KECCAK256 SWAP3 POP PUSH1 0x1F NOT DUP5 AND DUP11 JUMPDEST DUP2 DUP2 LT PUSH2 0xFC4 JUMPI POP SWAP1 DUP5 PUSH1 0x1 SWAP6 SWAP5 SWAP4 SWAP3 LT PUSH2 0xFAB JUMPI JUMPDEST POP POP POP DUP2 SHL ADD PUSH1 0x1 DUP3 ADD SSTORE PUSH2 0xD2B JUMP JUMPDEST ADD MLOAD PUSH1 0x0 NOT PUSH1 0xF8 DUP5 PUSH1 0x3 SHL AND SHR NOT AND SWAP1 SSTORE CODESIZE DUP1 DUP1 PUSH2 0xF9B JUMP JUMPDEST SWAP3 SWAP4 PUSH1 0x20 PUSH1 0x1 DUP2 SWAP3 DUP8 DUP7 ADD MLOAD DUP2 SSTORE ADD SWAP6 ADD SWAP4 ADD PUSH2 0xF85 JUMP JUMPDEST SWAP1 SWAP2 POP PUSH1 0x1 DUP5 ADD DUP10 MSTORE PUSH1 0x20 DUP10 KECCAK256 PUSH1 0x1F DUP5 ADD PUSH1 0x5 SHR DUP2 ADD PUSH1 0x20 DUP6 LT PUSH2 0x1025 JUMPI JUMPDEST SWAP1 DUP5 SWAP4 SWAP3 SWAP2 JUMPDEST PUSH1 0x1F DUP4 ADD PUSH1 0x5 SHR DUP3 ADD DUP2 LT PUSH2 0x1017 JUMPI POP POP PUSH2 0xCFD JUMP JUMPDEST DUP12 DUP2 SSTORE DUP6 SWAP5 POP PUSH1 0x1 ADD PUSH2 0x1001 JUMP JUMPDEST POP DUP1 PUSH2 0xFFB JUMP JUMPDEST PUSH2 0x1045 SWAP2 POP PUSH1 0x20 RETURNDATASIZE PUSH1 0x20 GT PUSH2 0x35F JUMPI PUSH2 0x351 DUP2 DUP4 PUSH2 0x119B JUMP JUMPDEST CODESIZE PUSH2 0xC12 JUMP JUMPDEST POP CALLVALUE PUSH2 0x371 JUMPI PUSH1 0x20 CALLDATASIZE PUSH1 0x3 NOT ADD SLT PUSH2 0x371 JUMPI PUSH1 0x40 SWAP1 PUSH1 0x4 CALLDATALOAD DUP2 MSTORE PUSH1 0x3 PUSH1 0x20 MSTORE KECCAK256 DUP1 SLOAD PUSH2 0x1079 PUSH1 0x1 DUP4 ADD PUSH2 0x11BC JUMP JUMPDEST SWAP2 PUSH1 0xFF PUSH1 0x2 DUP3 ADD SLOAD SWAP2 PUSH1 0x4 PUSH2 0x1090 PUSH1 0x3 DUP4 ADD PUSH2 0x11BC JUMP JUMPDEST SWAP2 ADD SLOAD SWAP1 PUSH2 0x10D6 PUSH1 0x1 PUSH1 0x1 PUSH1 0x40 SHL SUB SWAP5 PUSH4 0xFFFFFFFF SWAP3 PUSH2 0x10C3 PUSH1 0x40 MLOAD SWAP10 DUP11 SWAP10 PUSH2 0x140 SWAP1 DUP12 MSTORE DUP1 PUSH1 0x20 DUP13 ADD MSTORE DUP11 ADD SWAP1 PUSH2 0x1261 JUMP JUMPDEST SWAP2 PUSH1 0x40 DUP10 ADD MSTORE DUP8 DUP3 SUB PUSH1 0x60 DUP10 ADD MSTORE PUSH2 0x1261 JUMP JUMPDEST SWAP4 DUP1 DUP4 AND PUSH1 0x80 DUP8 ADD MSTORE DUP3 PUSH1 0x40 SHR AND PUSH1 0xA0 DUP7 ADD MSTORE DUP1 DUP3 PUSH1 0x80 SHR AND PUSH1 0xC0 DUP7 ADD MSTORE DUP2 PUSH1 0xA0 SHR AND PUSH1 0xE0 DUP6 ADD MSTORE DUP2 DUP2 PUSH1 0xC0 SHR AND ISZERO ISZERO PUSH2 0x100 DUP6 ADD MSTORE PUSH1 0xC8 SHR AND ISZERO ISZERO PUSH2 0x120 DUP4 ADD MSTORE SUB SWAP1 RETURN JUMPDEST SWAP1 PUSH1 0x1 DUP3 DUP2 SHR SWAP3 AND DUP1 ISZERO PUSH2 0x114C JUMPI JUMPDEST PUSH1 0x20 DUP4 LT EQ PUSH2 0x1136 JUMPI JUMP JUMPDEST PUSH4 0x4E487B71 PUSH1 0xE0 SHL PUSH1 0x0 MSTORE PUSH1 0x22 PUSH1 0x4 MSTORE PUSH1 0x24 PUSH1 0x0 REVERT JUMPDEST SWAP2 PUSH1 0x7F AND SWAP2 PUSH2 0x112B JUMP JUMPDEST PUSH2 0x140 DUP2 ADD SWAP1 DUP2 LT PUSH1 0x1 PUSH1 0x1 PUSH1 0x40 SHL SUB DUP3 GT OR PUSH2 0x1172 JUMPI PUSH1 0x40 MSTORE JUMP JUMPDEST PUSH4 0x4E487B71 PUSH1 0xE0 SHL PUSH1 0x0 MSTORE PUSH1 0x41 PUSH1 0x4 MSTORE PUSH1 0x24 PUSH1 0x0 REVERT JUMPDEST PUSH1 0x1 PUSH1 0x1 PUSH1 0x40 SHL SUB DUP2 GT PUSH2 0x1172 JUMPI PUSH1 0x40 MSTORE JUMP JUMPDEST SWAP1 PUSH1 0x1F DUP1 NOT SWAP2 ADD AND DUP2 ADD SWAP1 DUP2 LT PUSH1 0x1 PUSH1 0x1 PUSH1 0x40 SHL SUB DUP3 GT OR PUSH2 0x1172 JUMPI PUSH1 0x40 MSTORE JUMP JUMPDEST SWAP1 PUSH1 0x40 MLOAD SWAP2 DUP3 PUSH1 0x0 DUP3 SLOAD PUSH2 0x11CF DUP2 PUSH2 0x111C JUMP JUMPDEST SWAP1 DUP2 DUP5 MSTORE PUSH1 0x20 SWAP5 PUSH1 0x1 SWAP2 PUSH1 0x1 DUP2 AND SWAP1 DUP2 PUSH1 0x0 EQ PUSH2 0x123F JUMPI POP PUSH1 0x1 EQ PUSH2 0x1200 JUMPI JUMPDEST POP POP POP PUSH2 0x11FE SWAP3 POP SUB DUP4 PUSH2 0x119B JUMP JUMPDEST JUMP JUMPDEST PUSH1 0x0 SWAP1 DUP2 MSTORE DUP6 DUP2 KECCAK256 SWAP6 SWAP4 POP SWAP2 SWAP1 JUMPDEST DUP2 DUP4 LT PUSH2 0x1227 JUMPI POP POP PUSH2 0x11FE SWAP4 POP DUP3 ADD ADD CODESIZE DUP1 DUP1 PUSH2 0x11EF JUMP JUMPDEST DUP6 SLOAD DUP9 DUP5 ADD DUP6 ADD MSTORE SWAP5 DUP6 ADD SWAP5 DUP8 SWAP5 POP SWAP2 DUP4 ADD SWAP2 PUSH2 0x120E JUMP JUMPDEST SWAP3 POP POP POP PUSH2 0x11FE SWAP5 SWAP3 POP PUSH1 0xFF NOT AND DUP3 DUP5 ADD MSTORE ISZERO ISZERO PUSH1 0x5 SHL DUP3 ADD ADD CODESIZE DUP1 DUP1 PUSH2 0x11EF JUMP JUMPDEST SWAP2 SWAP1 DUP3 MLOAD SWAP3 DUP4 DUP3 MSTORE PUSH1 0x0 JUMPDEST DUP5 DUP2 LT PUSH2 0x128D JUMPI POP POP DUP3 PUSH1 0x0 PUSH1 0x20 DUP1 SWAP5 SWAP6 DUP5 ADD ADD MSTORE PUSH1 0x1F DUP1 NOT SWAP2 ADD AND ADD ADD SWAP1 JUMP JUMPDEST PUSH1 0x20 DUP2 DUP4 ADD DUP2 ADD MLOAD DUP5 DUP4 ADD DUP3 ADD MSTORE ADD PUSH2 0x126C JUMP JUMPDEST SWAP2 DUP2 PUSH1 0x1F DUP5 ADD SLT ISZERO PUSH2 0x12CE JUMPI DUP3 CALLDATALOAD SWAP2 PUSH1 0x1 PUSH1 0x1 PUSH1 0x40 SHL SUB DUP4 GT PUSH2 0x12CE JUMPI PUSH1 0x20 DUP4 DUP2 DUP7 ADD SWAP6 ADD ADD GT PUSH2 0x12CE JUMPI JUMP JUMPDEST PUSH1 0x0 DUP1 REVERT JUMPDEST SWAP1 DUP2 PUSH1 0x20 SWAP2 SUB SLT PUSH2 0x12CE JUMPI MLOAD DUP1 ISZERO ISZERO DUP2 SUB PUSH2 0x12CE JUMPI SWAP1 JUMP JUMPDEST PUSH1 0x0 NOT DUP2 EQ PUSH2 0x12FA JUMPI PUSH1 0x1 ADD SWAP1 JUMP JUMPDEST PUSH4 0x4E487B71 PUSH1 0xE0 SHL PUSH1 0x0 MSTORE PUSH1 0x11 PUSH1 0x4 MSTORE PUSH1 0x24 PUSH1 0x0 REVERT JUMPDEST SWAP2 SWAP1 SWAP2 PUSH1 0x1 PUSH1 0x1 PUSH1 0x40 SHL SUB DUP1 DUP1 SWAP5 AND SWAP2 AND ADD SWAP2 DUP3 GT PUSH2 0x12FA JUMPI JUMP JUMPDEST SWAP3 SWAP2 SWAP3 PUSH1 0x1 PUSH1 0x1 PUSH1 0x40 SHL SUB DUP3 GT PUSH2 0x1172 JUMPI PUSH1 0x40 MLOAD SWAP2 PUSH2 0x1354 PUSH1 0x1F DUP3 ADD PUSH1 0x1F NOT AND PUSH1 0x20 ADD DUP5 PUSH2 0x119B JUMP JUMPDEST DUP3 SWAP5 DUP2 DUP5 MSTORE DUP2 DUP4 ADD GT PUSH2 0x12CE JUMPI DUP3 DUP2 PUSH1 0x20 SWAP4 DUP5 PUSH1 0x0 SWAP7 ADD CALLDATACOPY ADD ADD MSTORE JUMP JUMPDEST SWAP1 DUP1 PUSH1 0x20 SWAP4 SWAP3 DUP2 DUP5 MSTORE DUP5 DUP5 ADD CALLDATACOPY PUSH1 0x0 DUP3 DUP3 ADD DUP5 ADD MSTORE PUSH1 0x1F ADD PUSH1 0x1F NOT AND ADD ADD SWAP1 JUMP JUMPDEST SWAP1 PUSH1 0x1 PUSH4 0xFFFFFFFF DUP1 SWAP4 AND ADD SWAP2 DUP3 GT PUSH2 0x12FA JUMPI JUMP JUMPDEST PUSH1 0x0 SWAP1 DUP2 MSTORE PUSH1 0x3 PUSH1 0x20 MSTORE PUSH1 0x4 PUSH1 0x40 DUP3 KECCAK256 ADD SLOAD PUSH1 0xFF DUP2 PUSH1 0xC8 SHR AND ISZERO DUP1 ISZERO PUSH2 0x147E JUMPI JUMPDEST PUSH2 0x147A JUMPI PUSH1 0x1 PUSH1 0x1 PUSH1 0x40 SHL SUB DUP2 PUSH1 0x40 SHR AND TIMESTAMP LT PUSH2 0x147A JUMPI PUSH4 0xFFFFFFFF SWAP2 DUP3 DUP1 DUP4 PUSH1 0x80 SHR AND SWAP3 PUSH1 0xA0 SHR AND DUP3 ADD SWAP3 DUP4 DUP4 GT PUSH2 0x1466 JUMPI PUSH1 0x5 SLOAD DUP2 DUP2 AND DUP6 LT PUSH2 0x145E JUMPI PUSH2 0x2710 SWAP4 DUP5 DUP2 MUL SWAP5 DUP2 DUP7 DIV EQ SWAP1 ISZERO OR ISZERO PUSH2 0x144A JUMPI PUSH1 0x20 SHR AND SWAP3 DUP4 DUP2 MUL SWAP4 DUP2 DUP6 DIV EQ SWAP1 ISZERO OR ISZERO PUSH2 0x1436 JUMPI POP LT ISZERO SWAP1 JUMP JUMPDEST PUSH4 0x4E487B71 PUSH1 0xE0 SHL DUP2 MSTORE PUSH1 0x11 PUSH1 0x4 MSTORE PUSH1 0x24 SWAP1 REVERT JUMPDEST PUSH4 0x4E487B71 PUSH1 0xE0 SHL DUP4 MSTORE PUSH1 0x11 PUSH1 0x4 MSTORE PUSH1 0x24 DUP4 REVERT JUMPDEST POP POP SWAP2 POP POP SWAP1 JUMP JUMPDEST PUSH4 0x4E487B71 PUSH1 0xE0 SHL DUP3 MSTORE PUSH1 0x11 PUSH1 0x4 MSTORE PUSH1 0x24 DUP3 REVERT JUMPDEST POP SWAP1 JUMP JUMPDEST POP PUSH1 0xFF DUP2 PUSH1 0xC0 SHR AND PUSH2 0x13C8 JUMP JUMPDEST DUP1 SLOAD PUSH1 0x0 SWAP4 SWAP3 PUSH2 0x149A DUP3 PUSH2 0x111C JUMP JUMPDEST SWAP2 DUP3 DUP3 MSTORE PUSH1 0x20 SWAP4 PUSH1 0x1 SWAP2 PUSH1 0x1 DUP2 AND SWAP1 DUP2 PUSH1 0x0 EQ PUSH2 0x1502 JUMPI POP PUSH1 0x1 EQ PUSH2 0x14C1 JUMPI JUMPDEST POP POP POP POP POP JUMP JUMPDEST SWAP1 SWAP4 SWAP5 SWAP6 POP PUSH1 0x0 SWAP3 SWAP2 SWAP3 MSTORE DUP4 PUSH1 0x0 KECCAK256 SWAP3 DUP5 PUSH1 0x0 SWAP5 JUMPDEST DUP4 DUP7 LT PUSH2 0x14EE JUMPI POP POP POP POP ADD ADD SWAP1 CODESIZE DUP1 DUP1 DUP1 DUP1 PUSH2 0x14BA JUMP JUMPDEST DUP1 SLOAD DUP6 DUP8 ADD DUP4 ADD MSTORE SWAP5 ADD SWAP4 DUP6 SWAP1 DUP3 ADD PUSH2 0x14D6 JUMP JUMPDEST PUSH1 0xFF NOT AND DUP7 DUP6 ADD MSTORE POP POP POP SWAP1 ISZERO ISZERO PUSH1 0x5 SHL ADD ADD SWAP2 POP CODESIZE DUP1 DUP1 DUP1 DUP1 PUSH2 0x14BA JUMP INVALID XOR KECCAK256 0xCF DUP10 0xD 0xD 0x2F 0xDC DUP3 0xB5 SHL SLT DUP6 PC 0xBF TLOAD PUSH10 0xC18A11EF05891666E558 PUSH2 0x1DA3 SSTORE SWAP16 LOG2 PUSH5 0x6970667358 0x22 SLT KECCAK256 DUP9 0xCB SUB LOG3 TSTORE 0xD5 0xD SWAP2 0xDA PUSH10 0x3C2F6DF2D3A88E19215C 0x4E 0x24 0xBB PUSH0 PUSH21 0x3685B1E0EA5C4A64736F6C63430008180033000000 "},"methodIdentifiers":{"canExecute(uint256)":"cc63604a","execute(uint256)":"fe0d94c1","lawRegistry()":"5ccde301","proposalCount()":"da35c664","proposals(uint256)":"013cf08b","proposeAmendLaw(uint256,bytes32,string)":"6bc7b7f0","proposeNewLaw(string,bytes32,string)":"08109e34","quorum()":"1703a018","superMajorityBps()":"6c3d9d1c","timelockSeconds()":"65a1f3c3","tumenAuth()":"96f543e7","vote(uint256,bool)":"c9d27afe","voted(uint256,address)":"5277b4ae"}}}}}