{"contracts/LawRegistry.sol":{"LawRegistry":{"abi":[{"inputs":[{"internalType":"address","name":"_authority","type":"address"}],"stateMutability":"nonpayable","type":"constructor"},{"inputs":[],"name":"InvalidInput","type":"error"},{"inputs":[],"name":"LawNotFound","type":"error"},{"inputs":[],"name":"NotAuthorized","type":"error"},{"inputs":[],"name":"VersionNotFound","type":"error"},{"anonymous":false,"inputs":[{"indexed":true,"internalType":"uint256","name":"lawId","type":"uint256"},{"indexed":false,"internalType":"string","name":"title","type":"string"}],"name":"LawCreated","type":"event"},{"anonymous":false,"inputs":[{"indexed":true,"internalType":"uint256","name":"lawId","type":"uint256"}],"name":"LawRepealed","type":"event"},{"anonymous":false,"inputs":[{"indexed":true,"internalType":"uint256","name":"lawId","type":"uint256"},{"indexed":true,"internalType":"uint256","name":"version","type":"uint256"}],"name":"LawVersionActivated","type":"event"},{"anonymous":false,"inputs":[{"indexed":true,"internalType":"uint256","name":"lawId","type":"uint256"},{"indexed":true,"internalType":"uint256","name":"version","type":"uint256"},{"indexed":false,"internalType":"bytes32","name":"contentHash","type":"bytes32"},{"indexed":false,"internalType":"string","name":"uri","type":"string"}],"name":"LawVersionAdded","type":"event"},{"inputs":[{"internalType":"uint256","name":"lawId","type":"uint256"},{"internalType":"uint256","name":"version","type":"uint256"}],"name":"activateVersion","outputs":[],"stateMutability":"nonpayable","type":"function"},{"inputs":[{"internalType":"uint256","name":"lawId","type":"uint256"},{"internalType":"bytes32","name":"contentHash","type":"bytes32"},{"internalType":"string","name":"uri","type":"string"}],"name":"addVersion","outputs":[],"stateMutability":"nonpayable","type":"function"},{"inputs":[],"name":"authority","outputs":[{"internalType":"address","name":"","type":"address"}],"stateMutability":"view","type":"function"},{"inputs":[{"internalType":"string","name":"title","type":"string"}],"name":"createLaw","outputs":[{"internalType":"uint256","name":"lawId","type":"uint256"}],"stateMutability":"nonpayable","type":"function"},{"inputs":[{"internalType":"uint256","name":"lawId","type":"uint256"}],"name":"getActiveVersion","outputs":[{"components":[{"internalType":"bytes32","name":"contentHash","type":"bytes32"},{"internalType":"string","name":"uri","type":"string"},{"internalType":"uint64","name":"timestamp","type":"uint64"},{"internalType":"bool","name":"exists","type":"bool"}],"internalType":"struct LawRegistry.Version","name":"","type":"tuple"}],"stateMutability":"view","type":"function"},{"inputs":[],"name":"lawCount","outputs":[{"internalType":"uint256","name":"","type":"uint256"}],"stateMutability":"view","type":"function"},{"inputs":[{"internalType":"uint256","name":"","type":"uint256"}],"name":"laws","outputs":[{"internalType":"string","name":"title","type":"string"},{"internalType":"bool","name":"exists","type":"bool"},{"internalType":"bool","name":"repealed","type":"bool"},{"internalType":"uint256","name":"latestVersion","type":"uint256"},{"internalType":"uint256","name":"activeVersion","type":"uint256"}],"stateMutability":"view","type":"function"},{"inputs":[{"internalType":"uint256","name":"lawId","type":"uint256"}],"name":"repealLaw","outputs":[],"stateMutability":"nonpayable","type":"function"},{"inputs":[{"internalType":"address","name":"_authority","type":"address"}],"name":"setAuthority","outputs":[],"stateMutability":"nonpayable","type":"function"},{"inputs":[{"internalType":"uint256","name":"","type":"uint256"},{"internalType":"uint256","name":"","type":"uint256"}],"name":"versions","outputs":[{"internalType":"bytes32","name":"contentHash","type":"bytes32"},{"internalType":"string","name":"uri","type":"string"},{"internalType":"uint64","name":"timestamp","type":"uint64"},{"internalType":"bool","name":"exists","type":"bool"}],"stateMutability":"view","type":"function"}],"evm":{"bytecode":{"linkReferences":{},"object":"60803461008c57601f610d7938819003918201601f19168301916001600160401b038311848410176100915780849260209460405283398101031261008c57516001600160a01b0381169081900361008c57801561007a57600080546001600160a01b031916919091179055604051610cd190816100a88239f35b60405163b4fa3fb360e01b8152600490fd5b600080fd5b634e487b7160e01b600052604160045260246000fdfe60808060405260048036101561001457600080fd5b60003560e01c91826352e575f2146109c2575081636ecec5ea146106b25781637a9e5e4b146106595781637ebdee0d146105e25781638eb4d2a5146104d3578163a17590aa14610222578163a3a7bf411461015457508063bf7e214f1461012b578063c37d1d921461010d5763c97fddbd1461008f57600080fd5b346101085761009d36610bf8565b9060005260036020526040600020906000526020526040600020805460026100c760018401610b13565b92015460ff6100e86040519485948552608060208601526080850190610bb8565b9167ffffffffffffffff8116604085015260401c16151560608301520390f35b600080fd5b34610108576000366003190112610108576020600154604051908152f35b34610108576000366003190112610108576000546040516001600160a01b039091168152602090f35b346101085761016236610bf8565b6000549092906001600160a01b031633036102135781600052600260205260ff60016040600020015416156102045781600052600360205260406000208360005260205260ff60026040600020015460401c16156101f55750806000526002602052816003604060002001557f1097d040138f831995dbb8a7326df5f35a4555acb79b358211acfae816511def600080a3005b60405163392d164960e01b8152fd5b6040516318cdb89560e01b8152fd5b60405163ea8e4eb560e01b8152fd5b346101085760203660031901126101085767ffffffffffffffff8135818111610108576102529036908401610a57565b6000549193916001600160a01b031633036104c35780156104b357610278600154610c0e565b92836001556040519060a082018281108282111761049e5760405261029e368488610c33565b8252602082016001815260408301600081526060840192600084526080850196600088528860005260026020526040600020955190815192831161048957506102e78654610a85565b601f8111610441575b5091602099959391899795938b90601f83116001146103aa57918060039694927f306b38a74bb75d01b2ad9d87271f272c1b1cb0b3aaae0a841940767b505a6c7f9b9c969460009261039f575b50508160011b9160001990881b1c19161786555b60018601915115159060ff61ff0084549251151560081b1692169061ffff1916171790555160028401555191015561039460405192839288845288840191610c7a565b0390a2604051908152f35b015190508e8061033d565b999493929190866000528c6000209a60005b601f19841681106104275750917f306b38a74bb75d01b2ad9d87271f272c1b1cb0b3aaae0a841940767b505a6c7f9a9b6001926003989796959483601f1981161061040f575b505050811b018655610351565b0151600019838a1b60f8161c191690558e8080610402565b828201518d556001909c019b8d9b50918e01918e016103bc565b866000526020600020601f840160051c8101916020851061047f575b601f0160051c01905b81811061047357506102f0565b60008155600101610466565b909150819061045d565b604190634e487b7160e01b6000525260246000fd5b604185634e487b7160e01b6000525260246000fd5b5060405163b4fa3fb360e01b8152fd5b5060405163ea8e4eb560e01b8152fd5b346101085760209081600319360112610108578035600060606040516104f881610abf565b82815281868201528260408201520152806000526002835260ff60016040600020015416156105d25780600052600283526003604060002001549182156101f5575060005260038252604060002090600052815260406000206040519061055e82610abf565b80548252600261057060018301610b13565b91848401928352015467ffffffffffffffff6105be6040850193828416855260ff606087019460401c16151584526040519687968188525190870152516080604087015260a0860190610bb8565b925116606084015251151560808301520390f35b506040516318cdb89560e01b8152fd5b3461010857602036600319011261010857356000526002602052610635604060002061060d81610b13565b90600181015490600360028201549101549060ff60405195869560a0875260a0870190610bb8565b938181161515602087015260081c1615156040850152606084015260808301520390f35b34610108576020366003190112610108576001600160a01b03813581811692908390036101085760005491821633036102135782156106a357506001600160a01b03191617600055005b60405163b4fa3fb360e01b8152fd5b346101085760603660031901126101085760443567ffffffffffffffff8111610108576106e29036908301610a57565b6000546001600160a01b031633036109b1578235600052600260205260ff60016040600020015416156109a0576024351561098f5782356000526002602052604060002060ff600182015460081c1661097e57600201916107438354610c0e565b8093556040519361075385610abf565b6024358552610763368484610c33565b946020810195865267ffffffffffffffff421660408201526001606082015281356000526003602052604060002085600052602052604060002095815187555195865167ffffffffffffffff8111610969576107c26001830154610a85565b601f8111610922575b506020601f821160011461088d579080600293927f54e56fc0a8b5b3a99c1c256b39251f7a8ed1809d0760a938f7be5caada49cda398999a600092610882575b50508160011b916000199060031b1c19161760018201555b019067ffffffffffffffff60408201511668ff000000000000000060608454930151151560401b169168ffffffffffffffffff19161717905561087d60405192839260243584526040602085015235956040840191610c7a565b0390a3005b015190508a8061080b565b6001830160005260206000209860005b601f198416811061090a5750917f54e56fc0a8b5b3a99c1c256b39251f7a8ed1809d0760a938f7be5caada49cda39798996001926002959483601f198116106108f1575b505050811b016001820155610823565b015160001960f88460031b161c191690558a80806108e1565b828201518b556001909a01996020928301920161089d565b600183016000526020600020601f830160051c810160208410610962575b601f830160051c820181106109565750506107cb565b60008155600101610940565b5080610940565b604184634e487b7160e01b6000525260246000fd5b60405163b4fa3fb360e01b81528490fd5b60405163b4fa3fb360e01b81528390fd5b6040516318cdb89560e01b81528390fd5b60405163ea8e4eb560e01b81528390fd5b903461010857602036600319011261010857600054813592906001600160a01b03163303610a4b575081600052600260205260ff60016040600020015416156102045750806000526002602052600160406000200161010061ff00198254161790557fba08eac850036499d28a5d35e8c77eceee42bde4ebeaddb25c5d5b86c3250e31600080a2005b63ea8e4eb560e01b8152fd5b9181601f840112156101085782359167ffffffffffffffff8311610108576020838186019501011161010857565b90600182811c92168015610ab5575b6020831014610a9f57565b634e487b7160e01b600052602260045260246000fd5b91607f1691610a94565b6080810190811067ffffffffffffffff821117610adb57604052565b634e487b7160e01b600052604160045260246000fd5b90601f8019910116810190811067ffffffffffffffff821117610adb57604052565b90604051918260008254610b2681610a85565b90818452602094600191600181169081600014610b965750600114610b57575b505050610b5592500383610af1565b565b600090815285812095935091905b818310610b7e575050610b559350820101388080610b46565b85548884018501529485019487945091830191610b65565b92505050610b5594925060ff191682840152151560051b820101388080610b46565b919082519283825260005b848110610be4575050826000602080949584010152601f8019910116010190565b602081830181015184830182015201610bc3565b6040906003190112610108576004359060243590565b6000198114610c1d5760010190565b634e487b7160e01b600052601160045260246000fd5b92919267ffffffffffffffff8211610adb5760405191610c5d601f8201601f191660200184610af1565b829481845281830111610108578281602093846000960137010152565b908060209392818452848401376000828201840152601f01601f191601019056fea264697066735822122054fa6c97c342a1f23d450808c52d93c49b0ab0ad25dfcaa70f25ca0700fab77464736f6c63430008180033","opcodes":"PUSH1 0x80 CALLVALUE PUSH2 0x8C JUMPI PUSH1 0x1F PUSH2 0xD79 CODESIZE DUP2 SWAP1 SUB SWAP2 DUP3 ADD PUSH1 0x1F NOT AND DUP4 ADD SWAP2 PUSH1 0x1 PUSH1 0x1 PUSH1 0x40 SHL SUB DUP4 GT DUP5 DUP5 LT OR PUSH2 0x91 JUMPI DUP1 DUP5 SWAP3 PUSH1 0x20 SWAP5 PUSH1 0x40 MSTORE DUP4 CODECOPY DUP2 ADD SUB SLT PUSH2 0x8C JUMPI MLOAD PUSH1 0x1 PUSH1 0x1 PUSH1 0xA0 SHL SUB DUP2 AND SWAP1 DUP2 SWAP1 SUB PUSH2 0x8C JUMPI DUP1 ISZERO PUSH2 0x7A JUMPI PUSH1 0x0 DUP1 SLOAD PUSH1 0x1 PUSH1 0x1 PUSH1 0xA0 SHL SUB NOT AND SWAP2 SWAP1 SWAP2 OR SWAP1 SSTORE PUSH1 0x40 MLOAD PUSH2 0xCD1 SWAP1 DUP2 PUSH2 0xA8 DUP3 CODECOPY RETURN JUMPDEST PUSH1 0x40 MLOAD PUSH4 0xB4FA3FB3 PUSH1 0xE0 SHL DUP2 MSTORE PUSH1 0x4 SWAP1 REVERT JUMPDEST PUSH1 0x0 DUP1 REVERT JUMPDEST PUSH4 0x4E487B71 PUSH1 0xE0 SHL PUSH1 0x0 MSTORE PUSH1 0x41 PUSH1 0x4 MSTORE PUSH1 0x24 PUSH1 0x0 REVERT INVALID PUSH1 0x80 DUP1 PUSH1 0x40 MSTORE PUSH1 0x4 DUP1 CALLDATASIZE LT ISZERO PUSH2 0x14 JUMPI PUSH1 0x0 DUP1 REVERT JUMPDEST PUSH1 0x0 CALLDATALOAD PUSH1 0xE0 SHR SWAP2 DUP3 PUSH4 0x52E575F2 EQ PUSH2 0x9C2 JUMPI POP DUP2 PUSH4 0x6ECEC5EA EQ PUSH2 0x6B2 JUMPI DUP2 PUSH4 0x7A9E5E4B EQ PUSH2 0x659 JUMPI DUP2 PUSH4 0x7EBDEE0D EQ PUSH2 0x5E2 JUMPI DUP2 PUSH4 0x8EB4D2A5 EQ PUSH2 0x4D3 JUMPI DUP2 PUSH4 0xA17590AA EQ PUSH2 0x222 JUMPI DUP2 PUSH4 0xA3A7BF41 EQ PUSH2 0x154 JUMPI POP DUP1 PUSH4 0xBF7E214F EQ PUSH2 0x12B JUMPI DUP1 PUSH4 0xC37D1D92 EQ PUSH2 0x10D JUMPI PUSH4 0xC97FDDBD EQ PUSH2 0x8F JUMPI PUSH1 0x0 DUP1 REVERT JUMPDEST CALLVALUE PUSH2 0x108 JUMPI PUSH2 0x9D CALLDATASIZE PUSH2 0xBF8 JUMP JUMPDEST SWAP1 PUSH1 0x0 MSTORE PUSH1 0x3 PUSH1 0x20 MSTORE PUSH1 0x40 PUSH1 0x0 KECCAK256 SWAP1 PUSH1 0x0 MSTORE PUSH1 0x20 MSTORE PUSH1 0x40 PUSH1 0x0 KECCAK256 DUP1 SLOAD PUSH1 0x2 PUSH2 0xC7 PUSH1 0x1 DUP5 ADD PUSH2 0xB13 JUMP JUMPDEST SWAP3 ADD SLOAD PUSH1 0xFF PUSH2 0xE8 PUSH1 0x40 MLOAD SWAP5 DUP6 SWAP5 DUP6 MSTORE PUSH1 0x80 PUSH1 0x20 DUP7 ADD MSTORE PUSH1 0x80 DUP6 ADD SWAP1 PUSH2 0xBB8 JUMP JUMPDEST SWAP2 PUSH8 0xFFFFFFFFFFFFFFFF DUP2 AND PUSH1 0x40 DUP6 ADD MSTORE PUSH1 0x40 SHR AND ISZERO ISZERO PUSH1 0x60 DUP4 ADD MSTORE SUB SWAP1 RETURN JUMPDEST PUSH1 0x0 DUP1 REVERT JUMPDEST CALLVALUE PUSH2 0x108 JUMPI PUSH1 0x0 CALLDATASIZE PUSH1 0x3 NOT ADD SLT PUSH2 0x108 JUMPI PUSH1 0x20 PUSH1 0x1 SLOAD PUSH1 0x40 MLOAD SWAP1 DUP2 MSTORE RETURN JUMPDEST CALLVALUE PUSH2 0x108 JUMPI PUSH1 0x0 CALLDATASIZE PUSH1 0x3 NOT ADD SLT PUSH2 0x108 JUMPI PUSH1 0x0 SLOAD PUSH1 0x40 MLOAD PUSH1 0x1 PUSH1 0x1 PUSH1 0xA0 SHL SUB SWAP1 SWAP2 AND DUP2 MSTORE PUSH1 0x20 SWAP1 RETURN JUMPDEST CALLVALUE PUSH2 0x108 JUMPI PUSH2 0x162 CALLDATASIZE PUSH2 0xBF8 JUMP JUMPDEST PUSH1 0x0 SLOAD SWAP1 SWAP3 SWAP1 PUSH1 0x1 PUSH1 0x1 PUSH1 0xA0 SHL SUB AND CALLER SUB PUSH2 0x213 JUMPI DUP2 PUSH1 0x0 MSTORE PUSH1 0x2 PUSH1 0x20 MSTORE PUSH1 0xFF PUSH1 0x1 PUSH1 0x40 PUSH1 0x0 KECCAK256 ADD SLOAD AND ISZERO PUSH2 0x204 JUMPI DUP2 PUSH1 0x0 MSTORE PUSH1 0x3 PUSH1 0x20 MSTORE PUSH1 0x40 PUSH1 0x0 KECCAK256 DUP4 PUSH1 0x0 MSTORE PUSH1 0x20 MSTORE PUSH1 0xFF PUSH1 0x2 PUSH1 0x40 PUSH1 0x0 KECCAK256 ADD SLOAD PUSH1 0x40 SHR AND ISZERO PUSH2 0x1F5 JUMPI POP DUP1 PUSH1 0x0 MSTORE PUSH1 0x2 PUSH1 0x20 MSTORE DUP2 PUSH1 0x3 PUSH1 0x40 PUSH1 0x0 KECCAK256 ADD SSTORE PUSH32 0x1097D040138F831995DBB8A7326DF5F35A4555ACB79B358211ACFAE816511DEF PUSH1 0x0 DUP1 LOG3 STOP JUMPDEST PUSH1 0x40 MLOAD PUSH4 0x392D1649 PUSH1 0xE0 SHL DUP2 MSTORE REVERT JUMPDEST PUSH1 0x40 MLOAD PUSH4 0x18CDB895 PUSH1 0xE0 SHL DUP2 MSTORE REVERT JUMPDEST PUSH1 0x40 MLOAD PUSH4 0xEA8E4EB5 PUSH1 0xE0 SHL DUP2 MSTORE REVERT JUMPDEST CALLVALUE PUSH2 0x108 JUMPI PUSH1 0x20 CALLDATASIZE PUSH1 0x3 NOT ADD SLT PUSH2 0x108 JUMPI PUSH8 0xFFFFFFFFFFFFFFFF DUP2 CALLDATALOAD DUP2 DUP2 GT PUSH2 0x108 JUMPI PUSH2 0x252 SWAP1 CALLDATASIZE SWAP1 DUP5 ADD PUSH2 0xA57 JUMP JUMPDEST PUSH1 0x0 SLOAD SWAP2 SWAP4 SWAP2 PUSH1 0x1 PUSH1 0x1 PUSH1 0xA0 SHL SUB AND CALLER SUB PUSH2 0x4C3 JUMPI DUP1 ISZERO PUSH2 0x4B3 JUMPI PUSH2 0x278 PUSH1 0x1 SLOAD PUSH2 0xC0E JUMP JUMPDEST SWAP3 DUP4 PUSH1 0x1 SSTORE PUSH1 0x40 MLOAD SWAP1 PUSH1 0xA0 DUP3 ADD DUP3 DUP2 LT DUP3 DUP3 GT OR PUSH2 0x49E JUMPI PUSH1 0x40 MSTORE PUSH2 0x29E CALLDATASIZE DUP5 DUP9 PUSH2 0xC33 JUMP JUMPDEST DUP3 MSTORE PUSH1 0x20 DUP3 ADD PUSH1 0x1 DUP2 MSTORE PUSH1 0x40 DUP4 ADD PUSH1 0x0 DUP2 MSTORE PUSH1 0x60 DUP5 ADD SWAP3 PUSH1 0x0 DUP5 MSTORE PUSH1 0x80 DUP6 ADD SWAP7 PUSH1 0x0 DUP9 MSTORE DUP9 PUSH1 0x0 MSTORE PUSH1 0x2 PUSH1 0x20 MSTORE PUSH1 0x40 PUSH1 0x0 KECCAK256 SWAP6 MLOAD SWAP1 DUP2 MLOAD SWAP3 DUP4 GT PUSH2 0x489 JUMPI POP PUSH2 0x2E7 DUP7 SLOAD PUSH2 0xA85 JUMP JUMPDEST PUSH1 0x1F DUP2 GT PUSH2 0x441 JUMPI JUMPDEST POP SWAP2 PUSH1 0x20 SWAP10 SWAP6 SWAP4 SWAP2 DUP10 SWAP8 SWAP6 SWAP4 DUP12 SWAP1 PUSH1 0x1F DUP4 GT PUSH1 0x1 EQ PUSH2 0x3AA JUMPI SWAP2 DUP1 PUSH1 0x3 SWAP7 SWAP5 SWAP3 PUSH32 0x306B38A74BB75D01B2AD9D87271F272C1B1CB0B3AAAE0A841940767B505A6C7F SWAP12 SWAP13 SWAP7 SWAP5 PUSH1 0x0 SWAP3 PUSH2 0x39F JUMPI JUMPDEST POP POP DUP2 PUSH1 0x1 SHL SWAP2 PUSH1 0x0 NOT SWAP1 DUP9 SHL SHR NOT AND OR DUP7 SSTORE JUMPDEST PUSH1 0x1 DUP7 ADD SWAP2 MLOAD ISZERO ISZERO SWAP1 PUSH1 0xFF PUSH2 0xFF00 DUP5 SLOAD SWAP3 MLOAD ISZERO ISZERO PUSH1 0x8 SHL AND SWAP3 AND SWAP1 PUSH2 0xFFFF NOT AND OR OR SWAP1 SSTORE MLOAD PUSH1 0x2 DUP5 ADD SSTORE MLOAD SWAP2 ADD SSTORE PUSH2 0x394 PUSH1 0x40 MLOAD SWAP3 DUP4 SWAP3 DUP9 DUP5 MSTORE DUP9 DUP5 ADD SWAP2 PUSH2 0xC7A JUMP JUMPDEST SUB SWAP1 LOG2 PUSH1 0x40 MLOAD SWAP1 DUP2 MSTORE RETURN JUMPDEST ADD MLOAD SWAP1 POP DUP15 DUP1 PUSH2 0x33D JUMP JUMPDEST SWAP10 SWAP5 SWAP4 SWAP3 SWAP2 SWAP1 DUP7 PUSH1 0x0 MSTORE DUP13 PUSH1 0x0 KECCAK256 SWAP11 PUSH1 0x0 JUMPDEST PUSH1 0x1F NOT DUP5 AND DUP2 LT PUSH2 0x427 JUMPI POP SWAP2 PUSH32 0x306B38A74BB75D01B2AD9D87271F272C1B1CB0B3AAAE0A841940767B505A6C7F SWAP11 SWAP12 PUSH1 0x1 SWAP3 PUSH1 0x3 SWAP9 SWAP8 SWAP7 SWAP6 SWAP5 DUP4 PUSH1 0x1F NOT DUP2 AND LT PUSH2 0x40F JUMPI JUMPDEST POP POP POP DUP2 SHL ADD DUP7 SSTORE PUSH2 0x351 JUMP JUMPDEST ADD MLOAD PUSH1 0x0 NOT DUP4 DUP11 SHL PUSH1 0xF8 AND SHR NOT AND SWAP1 SSTORE DUP15 DUP1 DUP1 PUSH2 0x402 JUMP JUMPDEST DUP3 DUP3 ADD MLOAD DUP14 SSTORE PUSH1 0x1 SWAP1 SWAP13 ADD SWAP12 DUP14 SWAP12 POP SWAP2 DUP15 ADD SWAP2 DUP15 ADD PUSH2 0x3BC JUMP JUMPDEST DUP7 PUSH1 0x0 MSTORE PUSH1 0x20 PUSH1 0x0 KECCAK256 PUSH1 0x1F DUP5 ADD PUSH1 0x5 SHR DUP2 ADD SWAP2 PUSH1 0x20 DUP6 LT PUSH2 0x47F JUMPI JUMPDEST PUSH1 0x1F ADD PUSH1 0x5 SHR ADD SWAP1 JUMPDEST DUP2 DUP2 LT PUSH2 0x473 JUMPI POP PUSH2 0x2F0 JUMP JUMPDEST PUSH1 0x0 DUP2 SSTORE PUSH1 0x1 ADD PUSH2 0x466 JUMP JUMPDEST SWAP1 SWAP2 POP DUP2 SWAP1 PUSH2 0x45D JUMP JUMPDEST PUSH1 0x41 SWAP1 PUSH4 0x4E487B71 PUSH1 0xE0 SHL PUSH1 0x0 MSTORE MSTORE PUSH1 0x24 PUSH1 0x0 REVERT JUMPDEST PUSH1 0x41 DUP6 PUSH4 0x4E487B71 PUSH1 0xE0 SHL PUSH1 0x0 MSTORE MSTORE PUSH1 0x24 PUSH1 0x0 REVERT JUMPDEST POP PUSH1 0x40 MLOAD PUSH4 0xB4FA3FB3 PUSH1 0xE0 SHL DUP2 MSTORE REVERT JUMPDEST POP PUSH1 0x40 MLOAD PUSH4 0xEA8E4EB5 PUSH1 0xE0 SHL DUP2 MSTORE REVERT JUMPDEST CALLVALUE PUSH2 0x108 JUMPI PUSH1 0x20 SWAP1 DUP2 PUSH1 0x3 NOT CALLDATASIZE ADD SLT PUSH2 0x108 JUMPI DUP1 CALLDATALOAD PUSH1 0x0 PUSH1 0x60 PUSH1 0x40 MLOAD PUSH2 0x4F8 DUP2 PUSH2 0xABF JUMP JUMPDEST DUP3 DUP2 MSTORE DUP2 DUP7 DUP3 ADD MSTORE DUP3 PUSH1 0x40 DUP3 ADD MSTORE ADD MSTORE DUP1 PUSH1 0x0 MSTORE PUSH1 0x2 DUP4 MSTORE PUSH1 0xFF PUSH1 0x1 PUSH1 0x40 PUSH1 0x0 KECCAK256 ADD SLOAD AND ISZERO PUSH2 0x5D2 JUMPI DUP1 PUSH1 0x0 MSTORE PUSH1 0x2 DUP4 MSTORE PUSH1 0x3 PUSH1 0x40 PUSH1 0x0 KECCAK256 ADD SLOAD SWAP2 DUP3 ISZERO PUSH2 0x1F5 JUMPI POP PUSH1 0x0 MSTORE PUSH1 0x3 DUP3 MSTORE PUSH1 0x40 PUSH1 0x0 KECCAK256 SWAP1 PUSH1 0x0 MSTORE DUP2 MSTORE PUSH1 0x40 PUSH1 0x0 KECCAK256 PUSH1 0x40 MLOAD SWAP1 PUSH2 0x55E DUP3 PUSH2 0xABF JUMP JUMPDEST DUP1 SLOAD DUP3 MSTORE PUSH1 0x2 PUSH2 0x570 PUSH1 0x1 DUP4 ADD PUSH2 0xB13 JUMP JUMPDEST SWAP2 DUP5 DUP5 ADD SWAP3 DUP4 MSTORE ADD SLOAD PUSH8 0xFFFFFFFFFFFFFFFF PUSH2 0x5BE PUSH1 0x40 DUP6 ADD SWAP4 DUP3 DUP5 AND DUP6 MSTORE PUSH1 0xFF PUSH1 0x60 DUP8 ADD SWAP5 PUSH1 0x40 SHR AND ISZERO ISZERO DUP5 MSTORE PUSH1 0x40 MLOAD SWAP7 DUP8 SWAP7 DUP2 DUP9 MSTORE MLOAD SWAP1 DUP8 ADD MSTORE MLOAD PUSH1 0x80 PUSH1 0x40 DUP8 ADD MSTORE PUSH1 0xA0 DUP7 ADD SWAP1 PUSH2 0xBB8 JUMP JUMPDEST SWAP3 MLOAD AND PUSH1 0x60 DUP5 ADD MSTORE MLOAD ISZERO ISZERO PUSH1 0x80 DUP4 ADD MSTORE SUB SWAP1 RETURN JUMPDEST POP PUSH1 0x40 MLOAD PUSH4 0x18CDB895 PUSH1 0xE0 SHL DUP2 MSTORE REVERT JUMPDEST CALLVALUE PUSH2 0x108 JUMPI PUSH1 0x20 CALLDATASIZE PUSH1 0x3 NOT ADD SLT PUSH2 0x108 JUMPI CALLDATALOAD PUSH1 0x0 MSTORE PUSH1 0x2 PUSH1 0x20 MSTORE PUSH2 0x635 PUSH1 0x40 PUSH1 0x0 KECCAK256 PUSH2 0x60D DUP2 PUSH2 0xB13 JUMP JUMPDEST SWAP1 PUSH1 0x1 DUP2 ADD SLOAD SWAP1 PUSH1 0x3 PUSH1 0x2 DUP3 ADD SLOAD SWAP2 ADD SLOAD SWAP1 PUSH1 0xFF PUSH1 0x40 MLOAD SWAP6 DUP7 SWAP6 PUSH1 0xA0 DUP8 MSTORE PUSH1 0xA0 DUP8 ADD SWAP1 PUSH2 0xBB8 JUMP JUMPDEST SWAP4 DUP2 DUP2 AND ISZERO ISZERO PUSH1 0x20 DUP8 ADD MSTORE PUSH1 0x8 SHR AND ISZERO ISZERO PUSH1 0x40 DUP6 ADD MSTORE PUSH1 0x60 DUP5 ADD MSTORE PUSH1 0x80 DUP4 ADD MSTORE SUB SWAP1 RETURN JUMPDEST CALLVALUE PUSH2 0x108 JUMPI PUSH1 0x20 CALLDATASIZE PUSH1 0x3 NOT ADD SLT PUSH2 0x108 JUMPI PUSH1 0x1 PUSH1 0x1 PUSH1 0xA0 SHL SUB DUP2 CALLDATALOAD DUP2 DUP2 AND SWAP3 SWAP1 DUP4 SWAP1 SUB PUSH2 0x108 JUMPI PUSH1 0x0 SLOAD SWAP2 DUP3 AND CALLER SUB PUSH2 0x213 JUMPI DUP3 ISZERO PUSH2 0x6A3 JUMPI POP PUSH1 0x1 PUSH1 0x1 PUSH1 0xA0 SHL SUB NOT AND OR PUSH1 0x0 SSTORE STOP JUMPDEST PUSH1 0x40 MLOAD PUSH4 0xB4FA3FB3 PUSH1 0xE0 SHL DUP2 MSTORE REVERT JUMPDEST CALLVALUE PUSH2 0x108 JUMPI PUSH1 0x60 CALLDATASIZE PUSH1 0x3 NOT ADD SLT PUSH2 0x108 JUMPI PUSH1 0x44 CALLDATALOAD PUSH8 0xFFFFFFFFFFFFFFFF DUP2 GT PUSH2 0x108 JUMPI PUSH2 0x6E2 SWAP1 CALLDATASIZE SWAP1 DUP4 ADD PUSH2 0xA57 JUMP JUMPDEST PUSH1 0x0 SLOAD PUSH1 0x1 PUSH1 0x1 PUSH1 0xA0 SHL SUB AND CALLER SUB PUSH2 0x9B1 JUMPI DUP3 CALLDATALOAD PUSH1 0x0 MSTORE PUSH1 0x2 PUSH1 0x20 MSTORE PUSH1 0xFF PUSH1 0x1 PUSH1 0x40 PUSH1 0x0 KECCAK256 ADD SLOAD AND ISZERO PUSH2 0x9A0 JUMPI PUSH1 0x24 CALLDATALOAD ISZERO PUSH2 0x98F JUMPI DUP3 CALLDATALOAD PUSH1 0x0 MSTORE PUSH1 0x2 PUSH1 0x20 MSTORE PUSH1 0x40 PUSH1 0x0 KECCAK256 PUSH1 0xFF PUSH1 0x1 DUP3 ADD SLOAD PUSH1 0x8 SHR AND PUSH2 0x97E JUMPI PUSH1 0x2 ADD SWAP2 PUSH2 0x743 DUP4 SLOAD PUSH2 0xC0E JUMP JUMPDEST DUP1 SWAP4 SSTORE PUSH1 0x40 MLOAD SWAP4 PUSH2 0x753 DUP6 PUSH2 0xABF JUMP JUMPDEST PUSH1 0x24 CALLDATALOAD DUP6 MSTORE PUSH2 0x763 CALLDATASIZE DUP5 DUP5 PUSH2 0xC33 JUMP JUMPDEST SWAP5 PUSH1 0x20 DUP2 ADD SWAP6 DUP7 MSTORE PUSH8 0xFFFFFFFFFFFFFFFF TIMESTAMP AND PUSH1 0x40 DUP3 ADD MSTORE PUSH1 0x1 PUSH1 0x60 DUP3 ADD MSTORE DUP2 CALLDATALOAD PUSH1 0x0 MSTORE PUSH1 0x3 PUSH1 0x20 MSTORE PUSH1 0x40 PUSH1 0x0 KECCAK256 DUP6 PUSH1 0x0 MSTORE PUSH1 0x20 MSTORE PUSH1 0x40 PUSH1 0x0 KECCAK256 SWAP6 DUP2 MLOAD DUP8 SSTORE MLOAD SWAP6 DUP7 MLOAD PUSH8 0xFFFFFFFFFFFFFFFF DUP2 GT PUSH2 0x969 JUMPI PUSH2 0x7C2 PUSH1 0x1 DUP4 ADD SLOAD PUSH2 0xA85 JUMP JUMPDEST PUSH1 0x1F DUP2 GT PUSH2 0x922 JUMPI JUMPDEST POP PUSH1 0x20 PUSH1 0x1F DUP3 GT PUSH1 0x1 EQ PUSH2 0x88D JUMPI SWAP1 DUP1 PUSH1 0x2 SWAP4 SWAP3 PUSH32 0x54E56FC0A8B5B3A99C1C256B39251F7A8ED1809D0760A938F7BE5CAADA49CDA3 SWAP9 SWAP10 SWAP11 PUSH1 0x0 SWAP3 PUSH2 0x882 JUMPI JUMPDEST POP POP DUP2 PUSH1 0x1 SHL SWAP2 PUSH1 0x0 NOT SWAP1 PUSH1 0x3 SHL SHR NOT AND OR PUSH1 0x1 DUP3 ADD SSTORE JUMPDEST ADD SWAP1 PUSH8 0xFFFFFFFFFFFFFFFF PUSH1 0x40 DUP3 ADD MLOAD AND PUSH9 0xFF0000000000000000 PUSH1 0x60 DUP5 SLOAD SWAP4 ADD MLOAD ISZERO ISZERO PUSH1 0x40 SHL AND SWAP2 PUSH9 0xFFFFFFFFFFFFFFFFFF NOT AND OR OR SWAP1 SSTORE PUSH2 0x87D PUSH1 0x40 MLOAD SWAP3 DUP4 SWAP3 PUSH1 0x24 CALLDATALOAD DUP5 MSTORE PUSH1 0x40 PUSH1 0x20 DUP6 ADD MSTORE CALLDATALOAD SWAP6 PUSH1 0x40 DUP5 ADD SWAP2 PUSH2 0xC7A JUMP JUMPDEST SUB SWAP1 LOG3 STOP JUMPDEST ADD MLOAD SWAP1 POP DUP11 DUP1 PUSH2 0x80B JUMP JUMPDEST PUSH1 0x1 DUP4 ADD PUSH1 0x0 MSTORE PUSH1 0x20 PUSH1 0x0 KECCAK256 SWAP9 PUSH1 0x0 JUMPDEST PUSH1 0x1F NOT DUP5 AND DUP2 LT PUSH2 0x90A JUMPI POP SWAP2 PUSH32 0x54E56FC0A8B5B3A99C1C256B39251F7A8ED1809D0760A938F7BE5CAADA49CDA3 SWAP8 SWAP9 SWAP10 PUSH1 0x1 SWAP3 PUSH1 0x2 SWAP6 SWAP5 DUP4 PUSH1 0x1F NOT DUP2 AND LT PUSH2 0x8F1 JUMPI JUMPDEST POP POP POP DUP2 SHL ADD PUSH1 0x1 DUP3 ADD SSTORE PUSH2 0x823 JUMP JUMPDEST ADD MLOAD PUSH1 0x0 NOT PUSH1 0xF8 DUP5 PUSH1 0x3 SHL AND SHR NOT AND SWAP1 SSTORE DUP11 DUP1 DUP1 PUSH2 0x8E1 JUMP JUMPDEST DUP3 DUP3 ADD MLOAD DUP12 SSTORE PUSH1 0x1 SWAP1 SWAP11 ADD SWAP10 PUSH1 0x20 SWAP3 DUP4 ADD SWAP3 ADD PUSH2 0x89D JUMP JUMPDEST PUSH1 0x1 DUP4 ADD PUSH1 0x0 MSTORE PUSH1 0x20 PUSH1 0x0 KECCAK256 PUSH1 0x1F DUP4 ADD PUSH1 0x5 SHR DUP2 ADD PUSH1 0x20 DUP5 LT PUSH2 0x962 JUMPI JUMPDEST PUSH1 0x1F DUP4 ADD PUSH1 0x5 SHR DUP3 ADD DUP2 LT PUSH2 0x956 JUMPI POP POP PUSH2 0x7CB JUMP JUMPDEST PUSH1 0x0 DUP2 SSTORE PUSH1 0x1 ADD PUSH2 0x940 JUMP JUMPDEST POP DUP1 PUSH2 0x940 JUMP JUMPDEST PUSH1 0x41 DUP5 PUSH4 0x4E487B71 PUSH1 0xE0 SHL PUSH1 0x0 MSTORE MSTORE PUSH1 0x24 PUSH1 0x0 REVERT JUMPDEST PUSH1 0x40 MLOAD PUSH4 0xB4FA3FB3 PUSH1 0xE0 SHL DUP2 MSTORE DUP5 SWAP1 REVERT JUMPDEST PUSH1 0x40 MLOAD PUSH4 0xB4FA3FB3 PUSH1 0xE0 SHL DUP2 MSTORE DUP4 SWAP1 REVERT JUMPDEST PUSH1 0x40 MLOAD PUSH4 0x18CDB895 PUSH1 0xE0 SHL DUP2 MSTORE DUP4 SWAP1 REVERT JUMPDEST PUSH1 0x40 MLOAD PUSH4 0xEA8E4EB5 PUSH1 0xE0 SHL DUP2 MSTORE DUP4 SWAP1 REVERT JUMPDEST SWAP1 CALLVALUE PUSH2 0x108 JUMPI PUSH1 0x20 CALLDATASIZE PUSH1 0x3 NOT ADD SLT PUSH2 0x108 JUMPI PUSH1 0x0 SLOAD DUP2 CALLDATALOAD SWAP3 SWAP1 PUSH1 0x1 PUSH1 0x1 PUSH1 0xA0 SHL SUB AND CALLER SUB PUSH2 0xA4B JUMPI POP DUP2 PUSH1 0x0 MSTORE PUSH1 0x2 PUSH1 0x20 MSTORE PUSH1 0xFF PUSH1 0x1 PUSH1 0x40 PUSH1 0x0 KECCAK256 ADD SLOAD AND ISZERO PUSH2 0x204 JUMPI POP DUP1 PUSH1 0x0 MSTORE PUSH1 0x2 PUSH1 0x20 MSTORE PUSH1 0x1 PUSH1 0x40 PUSH1 0x0 KECCAK256 ADD PUSH2 0x100 PUSH2 0xFF00 NOT DUP3 SLOAD AND OR SWAP1 SSTORE PUSH32 0xBA08EAC850036499D28A5D35E8C77ECEEE42BDE4EBEADDB25C5D5B86C3250E31 PUSH1 0x0 DUP1 LOG2 STOP JUMPDEST PUSH4 0xEA8E4EB5 PUSH1 0xE0 SHL DUP2 MSTORE REVERT JUMPDEST SWAP2 DUP2 PUSH1 0x1F DUP5 ADD SLT ISZERO PUSH2 0x108 JUMPI DUP3 CALLDATALOAD SWAP2 PUSH8 0xFFFFFFFFFFFFFFFF DUP4 GT PUSH2 0x108 JUMPI PUSH1 0x20 DUP4 DUP2 DUP7 ADD SWAP6 ADD ADD GT PUSH2 0x108 JUMPI JUMP JUMPDEST SWAP1 PUSH1 0x1 DUP3 DUP2 SHR SWAP3 AND DUP1 ISZERO PUSH2 0xAB5 JUMPI JUMPDEST PUSH1 0x20 DUP4 LT EQ PUSH2 0xA9F JUMPI JUMP JUMPDEST PUSH4 0x4E487B71 PUSH1 0xE0 SHL PUSH1 0x0 MSTORE PUSH1 0x22 PUSH1 0x4 MSTORE PUSH1 0x24 PUSH1 0x0 REVERT JUMPDEST SWAP2 PUSH1 0x7F AND SWAP2 PUSH2 0xA94 JUMP JUMPDEST PUSH1 0x80 DUP2 ADD SWAP1 DUP2 LT PUSH8 0xFFFFFFFFFFFFFFFF DUP3 GT OR PUSH2 0xADB JUMPI PUSH1 0x40 MSTORE JUMP JUMPDEST PUSH4 0x4E487B71 PUSH1 0xE0 SHL PUSH1 0x0 MSTORE PUSH1 0x41 PUSH1 0x4 MSTORE PUSH1 0x24 PUSH1 0x0 REVERT JUMPDEST SWAP1 PUSH1 0x1F DUP1 NOT SWAP2 ADD AND DUP2 ADD SWAP1 DUP2 LT PUSH8 0xFFFFFFFFFFFFFFFF DUP3 GT OR PUSH2 0xADB JUMPI PUSH1 0x40 MSTORE JUMP JUMPDEST SWAP1 PUSH1 0x40 MLOAD SWAP2 DUP3 PUSH1 0x0 DUP3 SLOAD PUSH2 0xB26 DUP2 PUSH2 0xA85 JUMP JUMPDEST SWAP1 DUP2 DUP5 MSTORE PUSH1 0x20 SWAP5 PUSH1 0x1 SWAP2 PUSH1 0x1 DUP2 AND SWAP1 DUP2 PUSH1 0x0 EQ PUSH2 0xB96 JUMPI POP PUSH1 0x1 EQ PUSH2 0xB57 JUMPI JUMPDEST POP POP POP PUSH2 0xB55 SWAP3 POP SUB DUP4 PUSH2 0xAF1 JUMP JUMPDEST JUMP JUMPDEST PUSH1 0x0 SWAP1 DUP2 MSTORE DUP6 DUP2 KECCAK256 SWAP6 SWAP4 POP SWAP2 SWAP1 JUMPDEST DUP2 DUP4 LT PUSH2 0xB7E JUMPI POP POP PUSH2 0xB55 SWAP4 POP DUP3 ADD ADD CODESIZE DUP1 DUP1 PUSH2 0xB46 JUMP JUMPDEST DUP6 SLOAD DUP9 DUP5 ADD DUP6 ADD MSTORE SWAP5 DUP6 ADD SWAP5 DUP8 SWAP5 POP SWAP2 DUP4 ADD SWAP2 PUSH2 0xB65 JUMP JUMPDEST SWAP3 POP POP POP PUSH2 0xB55 SWAP5 SWAP3 POP PUSH1 0xFF NOT AND DUP3 DUP5 ADD MSTORE ISZERO ISZERO PUSH1 0x5 SHL DUP3 ADD ADD CODESIZE DUP1 DUP1 PUSH2 0xB46 JUMP JUMPDEST SWAP2 SWAP1 DUP3 MLOAD SWAP3 DUP4 DUP3 MSTORE PUSH1 0x0 JUMPDEST DUP5 DUP2 LT PUSH2 0xBE4 JUMPI POP POP DUP3 PUSH1 0x0 PUSH1 0x20 DUP1 SWAP5 SWAP6 DUP5 ADD ADD MSTORE PUSH1 0x1F DUP1 NOT SWAP2 ADD AND ADD ADD SWAP1 JUMP JUMPDEST PUSH1 0x20 DUP2 DUP4 ADD DUP2 ADD MLOAD DUP5 DUP4 ADD DUP3 ADD MSTORE ADD PUSH2 0xBC3 JUMP JUMPDEST PUSH1 0x40 SWAP1 PUSH1 0x3 NOT ADD SLT PUSH2 0x108 JUMPI PUSH1 0x4 CALLDATALOAD SWAP1 PUSH1 0x24 CALLDATALOAD SWAP1 JUMP JUMPDEST PUSH1 0x0 NOT DUP2 EQ PUSH2 0xC1D JUMPI PUSH1 0x1 ADD SWAP1 JUMP JUMPDEST PUSH4 0x4E487B71 PUSH1 0xE0 SHL PUSH1 0x0 MSTORE PUSH1 0x11 PUSH1 0x4 MSTORE PUSH1 0x24 PUSH1 0x0 REVERT JUMPDEST SWAP3 SWAP2 SWAP3 PUSH8 0xFFFFFFFFFFFFFFFF DUP3 GT PUSH2 0xADB JUMPI PUSH1 0x40 MLOAD SWAP2 PUSH2 0xC5D PUSH1 0x1F DUP3 ADD PUSH1 0x1F NOT AND PUSH1 0x20 ADD DUP5 PUSH2 0xAF1 JUMP JUMPDEST DUP3 SWAP5 DUP2 DUP5 MSTORE DUP2 DUP4 ADD GT PUSH2 0x108 JUMPI DUP3 DUP2 PUSH1 0x20 SWAP4 DUP5 PUSH1 0x0 SWAP7 ADD CALLDATACOPY ADD ADD MSTORE JUMP JUMPDEST SWAP1 DUP1 PUSH1 0x20 SWAP4 SWAP3 DUP2 DUP5 MSTORE DUP5 DUP5 ADD CALLDATACOPY PUSH1 0x0 DUP3 DUP3 ADD DUP5 ADD MSTORE PUSH1 0x1F ADD PUSH1 0x1F NOT AND ADD ADD SWAP1 JUMP INVALID LOG2 PUSH5 0x6970667358 0x22 SLT KECCAK256 SLOAD STATICCALL PUSH13 0x97C342A1F23D450808C52D93C4 SWAP12 EXP 0xB0 0xAD 0x25 0xDF 0xCA 0xA7 0xF 0x25 0xCA SMOD STOP STATICCALL 0xB7 PUSH21 0x64736F6C6343000818003300000000000000000000 "},"methodIdentifiers":{"activateVersion(uint256,uint256)":"a3a7bf41","addVersion(uint256,bytes32,string)":"6ecec5ea","authority()":"bf7e214f","createLaw(string)":"a17590aa","getActiveVersion(uint256)":"8eb4d2a5","lawCount()":"c37d1d92","laws(uint256)":"7ebdee0d","repealLaw(uint256)":"52e575f2","setAuthority(address)":"7a9e5e4b","versions(uint256,uint256)":"c97fddbd"}}}}}