{"contracts/ConstitutionModuleRegistry.sol":{"ConstitutionModuleRegistry":{"abi":[{"inputs":[],"stateMutability":"nonpayable","type":"constructor"},{"inputs":[],"name":"Frozen","type":"error"},{"inputs":[],"name":"InvalidInput","type":"error"},{"inputs":[],"name":"KeyNotFound","type":"error"},{"inputs":[],"name":"NotOwner","type":"error"},{"anonymous":false,"inputs":[{"indexed":true,"internalType":"bytes32","name":"key","type":"bytes32"},{"indexed":false,"internalType":"bool","name":"frozen","type":"bool"}],"name":"ModuleFrozen","type":"event"},{"anonymous":false,"inputs":[{"indexed":true,"internalType":"bytes32","name":"key","type":"bytes32"},{"indexed":true,"internalType":"address","name":"module","type":"address"},{"indexed":false,"internalType":"bool","name":"frozen","type":"bool"}],"name":"ModuleSet","type":"event"},{"anonymous":false,"inputs":[{"indexed":true,"internalType":"address","name":"oldOwner","type":"address"},{"indexed":true,"internalType":"address","name":"newOwner","type":"address"}],"name":"OwnerChanged","type":"event"},{"inputs":[{"internalType":"bytes32","name":"","type":"bytes32"}],"name":"frozenModule","outputs":[{"internalType":"bool","name":"","type":"bool"}],"stateMutability":"view","type":"function"},{"inputs":[{"internalType":"uint256","name":"index","type":"uint256"}],"name":"moduleKeyAt","outputs":[{"internalType":"bytes32","name":"","type":"bytes32"}],"stateMutability":"view","type":"function"},{"inputs":[{"internalType":"uint256","name":"","type":"uint256"}],"name":"moduleKeys","outputs":[{"internalType":"bytes32","name":"","type":"bytes32"}],"stateMutability":"view","type":"function"},{"inputs":[],"name":"moduleKeysLength","outputs":[{"internalType":"uint256","name":"","type":"uint256"}],"stateMutability":"view","type":"function"},{"inputs":[{"internalType":"bytes32","name":"","type":"bytes32"}],"name":"moduleOf","outputs":[{"internalType":"address","name":"","type":"address"}],"stateMutability":"view","type":"function"},{"inputs":[],"name":"owner","outputs":[{"internalType":"address","name":"","type":"address"}],"stateMutability":"view","type":"function"},{"inputs":[{"internalType":"bytes32","name":"key","type":"bytes32"},{"internalType":"bool","name":"frozen","type":"bool"}],"name":"setFrozen","outputs":[],"stateMutability":"nonpayable","type":"function"},{"inputs":[{"internalType":"bytes32","name":"key","type":"bytes32"},{"internalType":"address","name":"module","type":"address"},{"internalType":"bool","name":"freezeAfter","type":"bool"}],"name":"setModule","outputs":[],"stateMutability":"nonpayable","type":"function"},{"inputs":[{"internalType":"address","name":"newOwner","type":"address"}],"name":"transferOwnership","outputs":[],"stateMutability":"nonpayable","type":"function"}],"evm":{"bytecode":{"linkReferences":{},"object":"6080806040523461004f57600080546001600160a01b031916339081178255907fb532073b38c83145e3e5135377a08bf9aab55bc0fd7c1179cd4fb995d2a5159c8180a36104ef90816100558239f35b600080fdfe6080604081815260048036101561001557600080fd5b600092833560e01c90816331b4a9581461043b5750806350493f61146104105780635d5cf7ac146102685780637264a036146101c25780638da5cb5b1461019a578063d93194f114610170578063df90c7101461014d578063dfcfab561461011c5763f2fde38b1461008657600080fd5b34610118576020366003190112610118576001600160a01b03813581811693919290849003610114578454928316918233036101075784156100fa57505082907fb532073b38c83145e3e5135377a08bf9aab55bc0fd7c1179cd4fb995d2a5159c8580a36001600160a01b03191617815580f35b5163b4fa3fb360e01b8152fd5b516330cd747160e01b8152fd5b8480fd5b8280fd5b50913461014a57602036600319011261014a575061013c6020923561046c565b91905490519160031b1c8152f35b80fd5b50503461016c578160031936011261016c576020906001549051908152f35b5080fd5b503461011857602036600319011261011857359160015483101561014a575061013c60209261046c565b50503461016c578160031936011261016c57905490516001600160a01b039091168152602090f35b5034610118578160031936011261011857803591602435918215158093036101145784546001600160a01b0316330361025a57838552600260205260ff82862054161561024c57916020917f6cf65a1b072b9d240bd643d6550f5328f8855b300004ff53c139c3e66793d4c693858752835280862060ff1981541660ff841617905551908152a280f35b90516317cfd1e760e21b8152fd5b90516330cd747160e01b8152fd5b5091903461016c57606036600319011261016c576024356001600160a01b03818116928535928490036101145760443591821515830361040c5785541633036103fd5782156103ee5783156103ee578285526020916002835260ff8287205416156000146103a15783865260028352818620600160ff198254161790556001546801000000000000000081101561038e579061032f8260017f8e93898f21af1243332f75814d0884c121e7f6b3132c3395703a159b9a0fdd8a9798999a940160015561046c565b81549060031b9088821b91600019901b19161790555b8588526003845282882080546001600160a01b03191688179055610378575b825260ff818720541690519015158152a380f35b808352818720805460ff19166001179055610364565b634e487b7160e01b875260418852602487fd5b86839495969792935260ff83882054166103df57907f8e93898f21af1243332f75814d0884c121e7f6b3132c3395703a159b9a0fdd8a939291610345565b50905163a8cab3d160e01b8152fd5b5163b4fa3fb360e01b81528590fd5b516330cd747160e01b81528590fd5b8580fd5b503461011857602036600319011261011857816020938260ff93358252855220541690519015158152f35b905083833461016c57602036600319011261016c579235815260036020908152929020546001600160a01b03168152f35b6001548110156104a35760016000527fb10e2d527612073b26eecdfd717e6a320cf44b4afac2b0732d9fcbe2b7fa0cf60190600090565b634e487b7160e01b600052603260045260246000fdfea2646970667358221220e36e14ea4f3719f612a9ed763d7df2035c963a76d5159e07995684dfc76a76ef64736f6c63430008180033","opcodes":"PUSH1 0x80 DUP1 PUSH1 0x40 MSTORE CALLVALUE PUSH2 0x4F JUMPI PUSH1 0x0 DUP1 SLOAD PUSH1 0x1 PUSH1 0x1 PUSH1 0xA0 SHL SUB NOT AND CALLER SWAP1 DUP2 OR DUP3 SSTORE SWAP1 PUSH32 0xB532073B38C83145E3E5135377A08BF9AAB55BC0FD7C1179CD4FB995D2A5159C DUP2 DUP1 LOG3 PUSH2 0x4EF SWAP1 DUP2 PUSH2 0x55 DUP3 CODECOPY RETURN JUMPDEST PUSH1 0x0 DUP1 REVERT INVALID PUSH1 0x80 PUSH1 0x40 DUP2 DUP2 MSTORE PUSH1 0x4 DUP1 CALLDATASIZE LT ISZERO PUSH2 0x15 JUMPI PUSH1 0x0 DUP1 REVERT JUMPDEST PUSH1 0x0 SWAP3 DUP4 CALLDATALOAD PUSH1 0xE0 SHR SWAP1 DUP2 PUSH4 0x31B4A958 EQ PUSH2 0x43B JUMPI POP DUP1 PUSH4 0x50493F61 EQ PUSH2 0x410 JUMPI DUP1 PUSH4 0x5D5CF7AC EQ PUSH2 0x268 JUMPI DUP1 PUSH4 0x7264A036 EQ PUSH2 0x1C2 JUMPI DUP1 PUSH4 0x8DA5CB5B EQ PUSH2 0x19A JUMPI DUP1 PUSH4 0xD93194F1 EQ PUSH2 0x170 JUMPI DUP1 PUSH4 0xDF90C710 EQ PUSH2 0x14D JUMPI DUP1 PUSH4 0xDFCFAB56 EQ PUSH2 0x11C JUMPI PUSH4 0xF2FDE38B EQ PUSH2 0x86 JUMPI PUSH1 0x0 DUP1 REVERT JUMPDEST CALLVALUE PUSH2 0x118 JUMPI PUSH1 0x20 CALLDATASIZE PUSH1 0x3 NOT ADD SLT PUSH2 0x118 JUMPI PUSH1 0x1 PUSH1 0x1 PUSH1 0xA0 SHL SUB DUP2 CALLDATALOAD DUP2 DUP2 AND SWAP4 SWAP2 SWAP3 SWAP1 DUP5 SWAP1 SUB PUSH2 0x114 JUMPI DUP5 SLOAD SWAP3 DUP4 AND SWAP2 DUP3 CALLER SUB PUSH2 0x107 JUMPI DUP5 ISZERO PUSH2 0xFA JUMPI POP POP DUP3 SWAP1 PUSH32 0xB532073B38C83145E3E5135377A08BF9AAB55BC0FD7C1179CD4FB995D2A5159C DUP6 DUP1 LOG3 PUSH1 0x1 PUSH1 0x1 PUSH1 0xA0 SHL SUB NOT AND OR DUP2 SSTORE DUP1 RETURN JUMPDEST MLOAD PUSH4 0xB4FA3FB3 PUSH1 0xE0 SHL DUP2 MSTORE REVERT JUMPDEST MLOAD PUSH4 0x30CD7471 PUSH1 0xE0 SHL DUP2 MSTORE REVERT JUMPDEST DUP5 DUP1 REVERT JUMPDEST DUP3 DUP1 REVERT JUMPDEST POP SWAP2 CALLVALUE PUSH2 0x14A JUMPI PUSH1 0x20 CALLDATASIZE PUSH1 0x3 NOT ADD SLT PUSH2 0x14A JUMPI POP PUSH2 0x13C PUSH1 0x20 SWAP3 CALLDATALOAD PUSH2 0x46C JUMP JUMPDEST SWAP2 SWAP1 SLOAD SWAP1 MLOAD SWAP2 PUSH1 0x3 SHL SHR DUP2 MSTORE RETURN JUMPDEST DUP1 REVERT JUMPDEST POP POP CALLVALUE PUSH2 0x16C JUMPI DUP2 PUSH1 0x3 NOT CALLDATASIZE ADD SLT PUSH2 0x16C JUMPI PUSH1 0x20 SWAP1 PUSH1 0x1 SLOAD SWAP1 MLOAD SWAP1 DUP2 MSTORE RETURN JUMPDEST POP DUP1 REVERT JUMPDEST POP CALLVALUE PUSH2 0x118 JUMPI PUSH1 0x20 CALLDATASIZE PUSH1 0x3 NOT ADD SLT PUSH2 0x118 JUMPI CALLDATALOAD SWAP2 PUSH1 0x1 SLOAD DUP4 LT ISZERO PUSH2 0x14A JUMPI POP PUSH2 0x13C PUSH1 0x20 SWAP3 PUSH2 0x46C JUMP JUMPDEST POP POP CALLVALUE PUSH2 0x16C JUMPI DUP2 PUSH1 0x3 NOT CALLDATASIZE ADD SLT PUSH2 0x16C JUMPI SWAP1 SLOAD SWAP1 MLOAD PUSH1 0x1 PUSH1 0x1 PUSH1 0xA0 SHL SUB SWAP1 SWAP2 AND DUP2 MSTORE PUSH1 0x20 SWAP1 RETURN JUMPDEST POP CALLVALUE PUSH2 0x118 JUMPI DUP2 PUSH1 0x3 NOT CALLDATASIZE ADD SLT PUSH2 0x118 JUMPI DUP1 CALLDATALOAD SWAP2 PUSH1 0x24 CALLDATALOAD SWAP2 DUP3 ISZERO ISZERO DUP1 SWAP4 SUB PUSH2 0x114 JUMPI DUP5 SLOAD PUSH1 0x1 PUSH1 0x1 PUSH1 0xA0 SHL SUB AND CALLER SUB PUSH2 0x25A JUMPI DUP4 DUP6 MSTORE PUSH1 0x2 PUSH1 0x20 MSTORE PUSH1 0xFF DUP3 DUP7 KECCAK256 SLOAD AND ISZERO PUSH2 0x24C JUMPI SWAP2 PUSH1 0x20 SWAP2 PUSH32 0x6CF65A1B072B9D240BD643D6550F5328F8855B300004FF53C139C3E66793D4C6 SWAP4 DUP6 DUP8 MSTORE DUP4 MSTORE DUP1 DUP7 KECCAK256 PUSH1 0xFF NOT DUP2 SLOAD AND PUSH1 0xFF DUP5 AND OR SWAP1 SSTORE MLOAD SWAP1 DUP2 MSTORE LOG2 DUP1 RETURN JUMPDEST SWAP1 MLOAD PUSH4 0x17CFD1E7 PUSH1 0xE2 SHL DUP2 MSTORE REVERT JUMPDEST SWAP1 MLOAD PUSH4 0x30CD7471 PUSH1 0xE0 SHL DUP2 MSTORE REVERT JUMPDEST POP SWAP2 SWAP1 CALLVALUE PUSH2 0x16C JUMPI PUSH1 0x60 CALLDATASIZE PUSH1 0x3 NOT ADD SLT PUSH2 0x16C JUMPI PUSH1 0x24 CALLDATALOAD PUSH1 0x1 PUSH1 0x1 PUSH1 0xA0 SHL SUB DUP2 DUP2 AND SWAP3 DUP6 CALLDATALOAD SWAP3 DUP5 SWAP1 SUB PUSH2 0x114 JUMPI PUSH1 0x44 CALLDATALOAD SWAP2 DUP3 ISZERO ISZERO DUP4 SUB PUSH2 0x40C JUMPI DUP6 SLOAD AND CALLER SUB PUSH2 0x3FD JUMPI DUP3 ISZERO PUSH2 0x3EE JUMPI DUP4 ISZERO PUSH2 0x3EE JUMPI DUP3 DUP6 MSTORE PUSH1 0x20 SWAP2 PUSH1 0x2 DUP4 MSTORE PUSH1 0xFF DUP3 DUP8 KECCAK256 SLOAD AND ISZERO PUSH1 0x0 EQ PUSH2 0x3A1 JUMPI DUP4 DUP7 MSTORE PUSH1 0x2 DUP4 MSTORE DUP2 DUP7 KECCAK256 PUSH1 0x1 PUSH1 0xFF NOT DUP3 SLOAD AND OR SWAP1 SSTORE PUSH1 0x1 SLOAD PUSH9 0x10000000000000000 DUP2 LT ISZERO PUSH2 0x38E JUMPI SWAP1 PUSH2 0x32F DUP3 PUSH1 0x1 PUSH32 0x8E93898F21AF1243332F75814D0884C121E7F6B3132C3395703A159B9A0FDD8A SWAP8 SWAP9 SWAP10 SWAP11 SWAP5 ADD PUSH1 0x1 SSTORE PUSH2 0x46C JUMP JUMPDEST DUP2 SLOAD SWAP1 PUSH1 0x3 SHL SWAP1 DUP9 DUP3 SHL SWAP2 PUSH1 0x0 NOT SWAP1 SHL NOT AND OR SWAP1 SSTORE JUMPDEST DUP6 DUP9 MSTORE PUSH1 0x3 DUP5 MSTORE DUP3 DUP9 KECCAK256 DUP1 SLOAD PUSH1 0x1 PUSH1 0x1 PUSH1 0xA0 SHL SUB NOT AND DUP9 OR SWAP1 SSTORE PUSH2 0x378 JUMPI JUMPDEST DUP3 MSTORE PUSH1 0xFF DUP2 DUP8 KECCAK256 SLOAD AND SWAP1 MLOAD SWAP1 ISZERO ISZERO DUP2 MSTORE LOG3 DUP1 RETURN JUMPDEST DUP1 DUP4 MSTORE DUP2 DUP8 KECCAK256 DUP1 SLOAD PUSH1 0xFF NOT AND PUSH1 0x1 OR SWAP1 SSTORE PUSH2 0x364 JUMP JUMPDEST PUSH4 0x4E487B71 PUSH1 0xE0 SHL DUP8 MSTORE PUSH1 0x41 DUP9 MSTORE PUSH1 0x24 DUP8 REVERT JUMPDEST DUP7 DUP4 SWAP5 SWAP6 SWAP7 SWAP8 SWAP3 SWAP4 MSTORE PUSH1 0xFF DUP4 DUP9 KECCAK256 SLOAD AND PUSH2 0x3DF JUMPI SWAP1 PUSH32 0x8E93898F21AF1243332F75814D0884C121E7F6B3132C3395703A159B9A0FDD8A SWAP4 SWAP3 SWAP2 PUSH2 0x345 JUMP JUMPDEST POP SWAP1 MLOAD PUSH4 0xA8CAB3D1 PUSH1 0xE0 SHL DUP2 MSTORE REVERT JUMPDEST MLOAD PUSH4 0xB4FA3FB3 PUSH1 0xE0 SHL DUP2 MSTORE DUP6 SWAP1 REVERT JUMPDEST MLOAD PUSH4 0x30CD7471 PUSH1 0xE0 SHL DUP2 MSTORE DUP6 SWAP1 REVERT JUMPDEST DUP6 DUP1 REVERT JUMPDEST POP CALLVALUE PUSH2 0x118 JUMPI PUSH1 0x20 CALLDATASIZE PUSH1 0x3 NOT ADD SLT PUSH2 0x118 JUMPI DUP2 PUSH1 0x20 SWAP4 DUP3 PUSH1 0xFF SWAP4 CALLDATALOAD DUP3 MSTORE DUP6 MSTORE KECCAK256 SLOAD AND SWAP1 MLOAD SWAP1 ISZERO ISZERO DUP2 MSTORE RETURN JUMPDEST SWAP1 POP DUP4 DUP4 CALLVALUE PUSH2 0x16C JUMPI PUSH1 0x20 CALLDATASIZE PUSH1 0x3 NOT ADD SLT PUSH2 0x16C JUMPI SWAP3 CALLDATALOAD DUP2 MSTORE PUSH1 0x3 PUSH1 0x20 SWAP1 DUP2 MSTORE SWAP3 SWAP1 KECCAK256 SLOAD PUSH1 0x1 PUSH1 0x1 PUSH1 0xA0 SHL SUB AND DUP2 MSTORE RETURN JUMPDEST PUSH1 0x1 SLOAD DUP2 LT ISZERO PUSH2 0x4A3 JUMPI PUSH1 0x1 PUSH1 0x0 MSTORE PUSH32 0xB10E2D527612073B26EECDFD717E6A320CF44B4AFAC2B0732D9FCBE2B7FA0CF6 ADD SWAP1 PUSH1 0x0 SWAP1 JUMP JUMPDEST PUSH4 0x4E487B71 PUSH1 0xE0 SHL PUSH1 0x0 MSTORE PUSH1 0x32 PUSH1 0x4 MSTORE PUSH1 0x24 PUSH1 0x0 REVERT INVALID LOG2 PUSH5 0x6970667358 0x22 SLT KECCAK256 0xE3 PUSH15 0x14EA4F3719F612A9ED763D7DF2035C SWAP7 GASPRICE PUSH23 0xD5159E07995684DFC76A76EF64736F6C63430008180033 "},"methodIdentifiers":{"frozenModule(bytes32)":"50493f61","moduleKeyAt(uint256)":"dfcfab56","moduleKeys(uint256)":"d93194f1","moduleKeysLength()":"df90c710","moduleOf(bytes32)":"31b4a958","owner()":"8da5cb5b","setFrozen(bytes32,bool)":"7264a036","setModule(bytes32,address,bool)":"5d5cf7ac","transferOwnership(address)":"f2fde38b"}}}}}