{"contracts/BankTaxPayer.sol":{"BankTaxPayer":{"abi":[{"inputs":[{"internalType":"address","name":"taxAuthorityAddr","type":"address"}],"stateMutability":"nonpayable","type":"constructor"},{"anonymous":false,"inputs":[{"indexed":true,"internalType":"address","name":"oldOwner","type":"address"},{"indexed":true,"internalType":"address","name":"newOwner","type":"address"}],"name":"OwnerChanged","type":"event"},{"anonymous":false,"inputs":[{"indexed":true,"internalType":"address","name":"taxAuthority","type":"address"}],"name":"TaxAuthoritySet","type":"event"},{"inputs":[],"name":"owner","outputs":[{"internalType":"address","name":"","type":"address"}],"stateMutability":"view","type":"function"},{"inputs":[{"internalType":"uint32","name":"year","type":"uint32"},{"internalType":"bytes32","name":"taxpayerAccountId","type":"bytes32"},{"internalType":"bytes32","name":"republicKey","type":"bytes32"},{"internalType":"address","name":"asset","type":"address"},{"internalType":"uint256","name":"amount","type":"uint256"},{"internalType":"bytes32","name":"memo","type":"bytes32"}],"name":"payTaxForClient","outputs":[],"stateMutability":"nonpayable","type":"function"},{"inputs":[{"internalType":"address","name":"taxAuthorityAddr","type":"address"}],"name":"setTaxAuthority","outputs":[],"stateMutability":"nonpayable","type":"function"},{"inputs":[],"name":"taxAuthority","outputs":[{"internalType":"contract ITaxAuthorityBankOnly","name":"","type":"address"}],"stateMutability":"view","type":"function"},{"inputs":[{"internalType":"address","name":"newOwner","type":"address"}],"name":"transferOwnership","outputs":[],"stateMutability":"nonpayable","type":"function"}],"evm":{"bytecode":{"linkReferences":{},"object":"6080346100a157601f6103f738819003918201601f19168301916001600160401b038311848410176100a6578084926020946040528339810103126100a157516001600160a01b038116908190036100a1578060018060a01b0319338160005416176000556001541617600155604051907f373d8bdbb013bebe6563b87a256bcaf9379ced052a621593be2879af03bafca9600080a261033a90816100bd8239f35b600080fd5b634e487b7160e01b600052604160045260246000fdfe604060808152600436101561001357600080fd5b600090813560e01c9081633b07fa57146102015781636a879d59146101245781636f6768b1146100fb5781638da5cb5b146100cf575063f2fde38b1461005857600080fd5b346100cc5760203660031901126100cc57610071610279565b81546001600160a01b038082169261008a338514610294565b1680926100988215156102cc565b7fb532073b38c83145e3e5135377a08bf9aab55bc0fd7c1179cd4fb995d2a5159c8580a36001600160a01b03191617815580f35b80fd5b9050346100f757816003193601126100f757905490516001600160a01b039091168152602090f35b5080fd5b9050346100f757816003193601126100f75760015490516001600160a01b039091168152602090f35b9050346100f75760c03660031901126100f7576004359063ffffffff82168092036101fd57826064356001600160a01b03818116918290036101fd5761016e818454163314610294565b6001541693843b156101fd5760c4908385519687948593634170fa8360e11b85526004850152602435602485015260443560448501526064840152608435608484015260a43560a48401525af180156101f3576101c9578280f35b67ffffffffffffffff82116101df575238808280f35b634e487b7160e01b83526041600452602483fd5b81513d85823e3d90fd5b8280fd5b82346100cc5760203660031901126100cc5761021b610279565b81546001600160a01b0391906102349083163314610294565b166102408115156102cc565b600180546001600160a01b031916821790557f373d8bdbb013bebe6563b87a256bcaf9379ced052a621593be2879af03bafca98280a280f35b600435906001600160a01b038216820361028f57565b600080fd5b1561029b57565b60405162461bcd60e51b81526020600482015260096024820152682727aa2fa7aba722a960b91b6044820152606490fd5b156102d357565b60405162461bcd60e51b81526020600482015260096024820152682d22a927afa0a2222960b91b6044820152606490fdfea26469706673582212201a52f8e705f1f7f3a4833dcc6f8db51497a79cfe374841cc776f232b8a1547ca64736f6c63430008180033","opcodes":"PUSH1 0x80 CALLVALUE PUSH2 0xA1 JUMPI PUSH1 0x1F PUSH2 0x3F7 CODESIZE DUP2 SWAP1 SUB SWAP2 DUP3 ADD PUSH1 0x1F NOT AND DUP4 ADD SWAP2 PUSH1 0x1 PUSH1 0x1 PUSH1 0x40 SHL SUB DUP4 GT DUP5 DUP5 LT OR PUSH2 0xA6 JUMPI DUP1 DUP5 SWAP3 PUSH1 0x20 SWAP5 PUSH1 0x40 MSTORE DUP4 CODECOPY DUP2 ADD SUB SLT PUSH2 0xA1 JUMPI MLOAD PUSH1 0x1 PUSH1 0x1 PUSH1 0xA0 SHL SUB DUP2 AND SWAP1 DUP2 SWAP1 SUB PUSH2 0xA1 JUMPI DUP1 PUSH1 0x1 DUP1 PUSH1 0xA0 SHL SUB NOT CALLER DUP2 PUSH1 0x0 SLOAD AND OR PUSH1 0x0 SSTORE PUSH1 0x1 SLOAD AND OR PUSH1 0x1 SSTORE PUSH1 0x40 MLOAD SWAP1 PUSH32 0x373D8BDBB013BEBE6563B87A256BCAF9379CED052A621593BE2879AF03BAFCA9 PUSH1 0x0 DUP1 LOG2 PUSH2 0x33A SWAP1 DUP2 PUSH2 0xBD DUP3 CODECOPY RETURN JUMPDEST PUSH1 0x0 DUP1 REVERT JUMPDEST PUSH4 0x4E487B71 PUSH1 0xE0 SHL PUSH1 0x0 MSTORE PUSH1 0x41 PUSH1 0x4 MSTORE PUSH1 0x24 PUSH1 0x0 REVERT INVALID PUSH1 0x40 PUSH1 0x80 DUP2 MSTORE PUSH1 0x4 CALLDATASIZE LT ISZERO PUSH2 0x13 JUMPI PUSH1 0x0 DUP1 REVERT JUMPDEST PUSH1 0x0 SWAP1 DUP2 CALLDATALOAD PUSH1 0xE0 SHR SWAP1 DUP2 PUSH4 0x3B07FA57 EQ PUSH2 0x201 JUMPI DUP2 PUSH4 0x6A879D59 EQ PUSH2 0x124 JUMPI DUP2 PUSH4 0x6F6768B1 EQ PUSH2 0xFB JUMPI DUP2 PUSH4 0x8DA5CB5B EQ PUSH2 0xCF JUMPI POP PUSH4 0xF2FDE38B EQ PUSH2 0x58 JUMPI PUSH1 0x0 DUP1 REVERT JUMPDEST CALLVALUE PUSH2 0xCC JUMPI PUSH1 0x20 CALLDATASIZE PUSH1 0x3 NOT ADD SLT PUSH2 0xCC JUMPI PUSH2 0x71 PUSH2 0x279 JUMP JUMPDEST DUP2 SLOAD PUSH1 0x1 PUSH1 0x1 PUSH1 0xA0 SHL SUB DUP1 DUP3 AND SWAP3 PUSH2 0x8A CALLER DUP6 EQ PUSH2 0x294 JUMP JUMPDEST AND DUP1 SWAP3 PUSH2 0x98 DUP3 ISZERO ISZERO PUSH2 0x2CC JUMP JUMPDEST PUSH32 0xB532073B38C83145E3E5135377A08BF9AAB55BC0FD7C1179CD4FB995D2A5159C DUP6 DUP1 LOG3 PUSH1 0x1 PUSH1 0x1 PUSH1 0xA0 SHL SUB NOT AND OR DUP2 SSTORE DUP1 RETURN JUMPDEST DUP1 REVERT JUMPDEST SWAP1 POP CALLVALUE PUSH2 0xF7 JUMPI DUP2 PUSH1 0x3 NOT CALLDATASIZE ADD SLT PUSH2 0xF7 JUMPI SWAP1 SLOAD SWAP1 MLOAD PUSH1 0x1 PUSH1 0x1 PUSH1 0xA0 SHL SUB SWAP1 SWAP2 AND DUP2 MSTORE PUSH1 0x20 SWAP1 RETURN JUMPDEST POP DUP1 REVERT JUMPDEST SWAP1 POP CALLVALUE PUSH2 0xF7 JUMPI DUP2 PUSH1 0x3 NOT CALLDATASIZE ADD SLT PUSH2 0xF7 JUMPI PUSH1 0x1 SLOAD SWAP1 MLOAD PUSH1 0x1 PUSH1 0x1 PUSH1 0xA0 SHL SUB SWAP1 SWAP2 AND DUP2 MSTORE PUSH1 0x20 SWAP1 RETURN JUMPDEST SWAP1 POP CALLVALUE PUSH2 0xF7 JUMPI PUSH1 0xC0 CALLDATASIZE PUSH1 0x3 NOT ADD SLT PUSH2 0xF7 JUMPI PUSH1 0x4 CALLDATALOAD SWAP1 PUSH4 0xFFFFFFFF DUP3 AND DUP1 SWAP3 SUB PUSH2 0x1FD JUMPI DUP3 PUSH1 0x64 CALLDATALOAD PUSH1 0x1 PUSH1 0x1 PUSH1 0xA0 SHL SUB DUP2 DUP2 AND SWAP2 DUP3 SWAP1 SUB PUSH2 0x1FD JUMPI PUSH2 0x16E DUP2 DUP5 SLOAD AND CALLER EQ PUSH2 0x294 JUMP JUMPDEST PUSH1 0x1 SLOAD AND SWAP4 DUP5 EXTCODESIZE ISZERO PUSH2 0x1FD JUMPI PUSH1 0xC4 SWAP1 DUP4 DUP6 MLOAD SWAP7 DUP8 SWAP5 DUP6 SWAP4 PUSH4 0x4170FA83 PUSH1 0xE1 SHL DUP6 MSTORE PUSH1 0x4 DUP6 ADD MSTORE PUSH1 0x24 CALLDATALOAD PUSH1 0x24 DUP6 ADD MSTORE PUSH1 0x44 CALLDATALOAD PUSH1 0x44 DUP6 ADD MSTORE PUSH1 0x64 DUP5 ADD MSTORE PUSH1 0x84 CALLDATALOAD PUSH1 0x84 DUP5 ADD MSTORE PUSH1 0xA4 CALLDATALOAD PUSH1 0xA4 DUP5 ADD MSTORE GAS CALL DUP1 ISZERO PUSH2 0x1F3 JUMPI PUSH2 0x1C9 JUMPI DUP3 DUP1 RETURN JUMPDEST PUSH8 0xFFFFFFFFFFFFFFFF DUP3 GT PUSH2 0x1DF JUMPI MSTORE CODESIZE DUP1 DUP3 DUP1 RETURN JUMPDEST PUSH4 0x4E487B71 PUSH1 0xE0 SHL DUP4 MSTORE PUSH1 0x41 PUSH1 0x4 MSTORE PUSH1 0x24 DUP4 REVERT JUMPDEST DUP2 MLOAD RETURNDATASIZE DUP6 DUP3 RETURNDATACOPY RETURNDATASIZE SWAP1 REVERT JUMPDEST DUP3 DUP1 REVERT JUMPDEST DUP3 CALLVALUE PUSH2 0xCC JUMPI PUSH1 0x20 CALLDATASIZE PUSH1 0x3 NOT ADD SLT PUSH2 0xCC JUMPI PUSH2 0x21B PUSH2 0x279 JUMP JUMPDEST DUP2 SLOAD PUSH1 0x1 PUSH1 0x1 PUSH1 0xA0 SHL SUB SWAP2 SWAP1 PUSH2 0x234 SWAP1 DUP4 AND CALLER EQ PUSH2 0x294 JUMP JUMPDEST AND PUSH2 0x240 DUP2 ISZERO ISZERO PUSH2 0x2CC JUMP JUMPDEST PUSH1 0x1 DUP1 SLOAD PUSH1 0x1 PUSH1 0x1 PUSH1 0xA0 SHL SUB NOT AND DUP3 OR SWAP1 SSTORE PUSH32 0x373D8BDBB013BEBE6563B87A256BCAF9379CED052A621593BE2879AF03BAFCA9 DUP3 DUP1 LOG2 DUP1 RETURN JUMPDEST PUSH1 0x4 CALLDATALOAD SWAP1 PUSH1 0x1 PUSH1 0x1 PUSH1 0xA0 SHL SUB DUP3 AND DUP3 SUB PUSH2 0x28F JUMPI JUMP JUMPDEST PUSH1 0x0 DUP1 REVERT JUMPDEST ISZERO PUSH2 0x29B JUMPI JUMP JUMPDEST PUSH1 0x40 MLOAD PUSH3 0x461BCD PUSH1 0xE5 SHL DUP2 MSTORE PUSH1 0x20 PUSH1 0x4 DUP3 ADD MSTORE PUSH1 0x9 PUSH1 0x24 DUP3 ADD MSTORE PUSH9 0x2727AA2FA7ABA722A9 PUSH1 0xB9 SHL PUSH1 0x44 DUP3 ADD MSTORE PUSH1 0x64 SWAP1 REVERT JUMPDEST ISZERO PUSH2 0x2D3 JUMPI JUMP JUMPDEST PUSH1 0x40 MLOAD PUSH3 0x461BCD PUSH1 0xE5 SHL DUP2 MSTORE PUSH1 0x20 PUSH1 0x4 DUP3 ADD MSTORE PUSH1 0x9 PUSH1 0x24 DUP3 ADD MSTORE PUSH9 0x2D22A927AFA0A22229 PUSH1 0xB9 SHL PUSH1 0x44 DUP3 ADD MSTORE PUSH1 0x64 SWAP1 REVERT INVALID LOG2 PUSH5 0x6970667358 0x22 SLT KECCAK256 BYTE MSTORE 0xF8 0xE7 SDIV CALL 0xF7 RETURN LOG4 DUP4 RETURNDATASIZE 0xCC PUSH16 0x8DB51497A79CFE374841CC776F232B8A ISZERO SELFBALANCE 0xCA PUSH5 0x736F6C6343 STOP ADDMOD XOR STOP CALLER "},"methodIdentifiers":{"owner()":"8da5cb5b","payTaxForClient(uint32,bytes32,bytes32,address,uint256,bytes32)":"6a879d59","setTaxAuthority(address)":"3b07fa57","taxAuthority()":"6f6768b1","transferOwnership(address)":"f2fde38b"}}}}}