{"contracts/TaxAuthority.sol":{"TaxAuthority":{"abi":[{"inputs":[{"internalType":"address","name":"ledgerAddr","type":"address"},{"internalType":"address","name":"licenseRegAddr","type":"address"},{"internalType":"bytes32","name":"confedBudgetAccountId","type":"bytes32"}],"stateMutability":"nonpayable","type":"constructor"},{"anonymous":false,"inputs":[{"indexed":true,"internalType":"uint32","name":"year","type":"uint32"},{"indexed":true,"internalType":"bytes32","name":"taxpayerAccountId","type":"bytes32"},{"indexed":true,"internalType":"bytes32","name":"republicKey","type":"bytes32"},{"indexed":false,"internalType":"uint256","name":"profit","type":"uint256"},{"indexed":false,"internalType":"uint256","name":"taxDue","type":"uint256"}],"name":"Declared","type":"event"},{"anonymous":false,"inputs":[{"indexed":true,"internalType":"uint32","name":"year","type":"uint32"},{"indexed":true,"internalType":"bytes32","name":"taxpayerAccountId","type":"bytes32"},{"indexed":true,"internalType":"bytes32","name":"republicKey","type":"bytes32"},{"indexed":false,"internalType":"uint256","name":"amount","type":"uint256"},{"indexed":false,"internalType":"uint256","name":"repPart","type":"uint256"},{"indexed":false,"internalType":"uint256","name":"confPart","type":"uint256"},{"indexed":false,"internalType":"uint256","name":"totalPaid","type":"uint256"}],"name":"TaxPaid","type":"event"},{"inputs":[],"name":"CONFED_BPS","outputs":[{"internalType":"uint16","name":"","type":"uint16"}],"stateMutability":"view","type":"function"},{"inputs":[],"name":"REPUBLIC_BPS","outputs":[{"internalType":"uint16","name":"","type":"uint16"}],"stateMutability":"view","type":"function"},{"inputs":[],"name":"TAX_BPS","outputs":[{"internalType":"uint16","name":"","type":"uint16"}],"stateMutability":"view","type":"function"},{"inputs":[],"name":"confederationBudgetAccountId","outputs":[{"internalType":"bytes32","name":"","type":"bytes32"}],"stateMutability":"view","type":"function"},{"inputs":[{"internalType":"uint32","name":"year","type":"uint32"},{"internalType":"bytes32","name":"taxpayerAccountId","type":"bytes32"},{"internalType":"bytes32","name":"republicKey","type":"bytes32"},{"internalType":"uint256","name":"profit","type":"uint256"}],"name":"declareProfit","outputs":[],"stateMutability":"nonpayable","type":"function"},{"inputs":[{"internalType":"uint32","name":"year","type":"uint32"},{"internalType":"bytes32","name":"taxpayerAccountId","type":"bytes32"}],"name":"isCompliant","outputs":[{"internalType":"bool","name":"","type":"bool"}],"stateMutability":"view","type":"function"},{"inputs":[],"name":"ledger","outputs":[{"internalType":"contract ILedgerMove","name":"","type":"address"}],"stateMutability":"view","type":"function"},{"inputs":[],"name":"licenseRegistry","outputs":[{"internalType":"contract IBankLicenseRegistryView","name":"","type":"address"}],"stateMutability":"view","type":"function"},{"inputs":[],"name":"owner","outputs":[{"internalType":"address","name":"","type":"address"}],"stateMutability":"view","type":"function"},{"inputs":[{"internalType":"uint32","name":"year","type":"uint32"},{"internalType":"bytes32","name":"taxpayerAccountId","type":"bytes32"},{"internalType":"bytes32","name":"republicKey","type":"bytes32"},{"internalType":"address","name":"asset","type":"address"},{"internalType":"uint256","name":"amount","type":"uint256"},{"internalType":"bytes32","name":"memo","type":"bytes32"}],"name":"payTax","outputs":[],"stateMutability":"nonpayable","type":"function"},{"inputs":[{"internalType":"uint32","name":"","type":"uint32"},{"internalType":"bytes32","name":"","type":"bytes32"}],"name":"recordOf","outputs":[{"internalType":"uint256","name":"declaredProfit","type":"uint256"},{"internalType":"uint256","name":"taxDue","type":"uint256"},{"internalType":"uint256","name":"taxPaid","type":"uint256"},{"internalType":"uint64","name":"declaredAt","type":"uint64"},{"internalType":"uint64","name":"lastPaidAt","type":"uint64"}],"stateMutability":"view","type":"function"},{"inputs":[{"internalType":"bytes32","name":"","type":"bytes32"}],"name":"republicBudgetAccountIdOf","outputs":[{"internalType":"bytes32","name":"","type":"bytes32"}],"stateMutability":"view","type":"function"},{"inputs":[{"internalType":"bytes32","name":"republicKey","type":"bytes32"},{"internalType":"bytes32","name":"budgetAccountId","type":"bytes32"}],"name":"setRepublic","outputs":[],"stateMutability":"nonpayable","type":"function"}],"evm":{"bytecode":{"linkReferences":{},"object":"60803461009c57601f610a0e38819003918201601f19168301916001600160401b038311848410176100a15780849260609460405283398101031261009c57610047816100b7565b906040610056602083016100b7565b9101519160018060a01b0319913383600054161760005560018060a01b038092168360015416176001551690600254161760025560035560405161094290816100cc8239f35b600080fd5b634e487b7160e01b600052604160045260246000fd5b51906001600160a01b038216820361009c5756fe608080604052600436101561001357600080fd5b600090813560e01c9081630a0f9ce3146108ae57508063531763f21461089157806356397c3514610868578063649bf0af146107ef57806368f4a786146107d257806375162e491461071257806382e1f506146102fd5780638da5cb5b146102d6578063af9d0ac21461018b578063b3ca3ed81461016e578063c2fda48714610145578063e17b2190146100dc5763fc06a77f146100b057600080fd5b346100d95760203660031901126100d95760406020916004358152600483522054604051908152f35b80fd5b50346100d95760403660031901126100d95780546001600160a01b031633036101145760043581526004602052602435604082205580f35b60405162461bcd60e51b81526020600482015260096024820152682727aa2fa7aba722a960b91b6044820152606490fd5b50346100d957806003193601126100d9576002546040516001600160a01b039091168152602090f35b50346100d957806003193601126100d95760206040516102bc8152f35b50346100d95760803660031901126100d9576101a56108ca565b602435604435916064359081156102a357838552600460205260408520541561026b5763ffffffff169081855260056020526040852083865260205260408520908082556103e8908181029181830403610255577f4dd0a699b17a093f792e15e6a80909d64db82d4fd2013a6dcd6b3e9683f629a892600361271060409404918260018201550167ffffffffffffffff421667ffffffffffffffff1982541617905582519182526020820152a480f35b634e487b7160e01b600052601160045260246000fd5b60405162461bcd60e51b815260206004820152601060248201526f1491541550931250d7d393d517d4d15560821b6044820152606490fd5b60405162461bcd60e51b815260206004820152600b60248201526a16915493d7d41493d1925560aa1b6044820152606490fd5b50346100d957806003193601126100d957546040516001600160a01b039091168152602090f35b50346100d95760c03660031901126100d9576103176108ca565b6064356001600160a01b038116900361070e57600254604051632950b0a960e21b81523360048201526084359291602090829060249082906001600160a01b03165afa90811561070357849161069a575b50156106615763ffffffff8116835260056020526040832060243584526020526040832091600183015490811561062b576002840154828110156105f75782039182116105e357818111156105db5750915b6102bc80840290841590858304148117156105c7576127109161012c91828702928784041417156105b3576044358752600460205286604081205460018060a01b036001541690813b1561059157604051632240a9ad60e01b8152602480356004830152810191909152606480356001600160a01b031660448301528685049082015260a480356084830152909291839190829084905af180156105a857610595575b5060015460035488916001600160a01b0316803b1561059157604051632240a9ad60e01b8152602480356004830152810192909252606480356001600160a01b031660448401528686049083015260a4803560848401528391839190829084905af180156105865761056e575b505060028401549386850180951161055a57906003828660028795015501805467ffffffffffffffff60401b4260401b169067ffffffffffffffff60401b19161790556040519687520460208601520460408401526060830152604435917ff008c99bc1d62cc6a8bc0064b83e4bb4183440733f77b82fdf426be94c13da06608063ffffffff602435941692a480f35b634e487b7160e01b88526011600452602488fd5b610577906108e2565b6105825786386104ca565b8680fd5b6040513d84823e3d90fd5b8280fd5b6105a1909791976108e2565b953861045d565b6040513d8a823e3d90fd5b634e487b7160e01b87526011600452602487fd5b634e487b7160e01b86526011600452602486fd5b9050916103ba565b634e487b7160e01b85526011600452602485fd5b60405162461bcd60e51b815260206004820152600c60248201526b1053149150511657d410525160a21b6044820152606490fd5b60405162461bcd60e51b815260206004820152600e60248201526d2727afa222a1a620a920aa24a7a760911b6044820152606490fd5b60405162461bcd60e51b81526020600482015260116024820152704e4f545f4c4943454e5345445f42414e4b60781b6044820152606490fd5b905060203d6020116106fc575b601f8101601f1916820167ffffffffffffffff8111838210176106e8576020918391604052810103126106e4575180151581036106e45738610368565b8380fd5b634e487b7160e01b86526041600452602486fd5b503d6106a7565b6040513d86823e3d90fd5b5080fd5b50346100d95760403660031901126100d95763ffffffff6107316108ca565b16815260056020526040812060243582526020526040812060405160a081019067ffffffffffffffff91818110838211176107be5760209450604052825481526080600184015492838684015260036002860154958660408601520154818116606085015260401c1691015280151591826107b3575b50506040519015158152f35b1015905038806107a7565b634e487b7160e01b85526041600452602485fd5b50346100d957806003193601126100d95760206040516103e88152f35b50346100d95760403660031901126100d957604060a09163ffffffff6108136108ca565b1681526005602052818120602435825260205220805490600181015490600360028201549101549067ffffffffffffffff9260405194855260208501526040840152818116606084015260401c166080820152f35b50346100d957806003193601126100d9576001546040516001600160a01b039091168152602090f35b50346100d957806003193601126100d957602060405161012c8152f35b90503461070e578160031936011261070e576020906003548152f35b6004359063ffffffff821682036108dd57565b600080fd5b67ffffffffffffffff81116108f657604052565b634e487b7160e01b600052604160045260246000fdfea2646970667358221220cc3d6b05ffdac015cd52a49ee62658643cf65cca6f394f4110eb74f2c5593c3f64736f6c63430008180033","opcodes":"PUSH1 0x80 CALLVALUE PUSH2 0x9C JUMPI PUSH1 0x1F PUSH2 0xA0E CODESIZE DUP2 SWAP1 SUB SWAP2 DUP3 ADD PUSH1 0x1F NOT AND DUP4 ADD SWAP2 PUSH1 0x1 PUSH1 0x1 PUSH1 0x40 SHL SUB DUP4 GT DUP5 DUP5 LT OR PUSH2 0xA1 JUMPI DUP1 DUP5 SWAP3 PUSH1 0x60 SWAP5 PUSH1 0x40 MSTORE DUP4 CODECOPY DUP2 ADD SUB SLT PUSH2 0x9C JUMPI PUSH2 0x47 DUP2 PUSH2 0xB7 JUMP JUMPDEST SWAP1 PUSH1 0x40 PUSH2 0x56 PUSH1 0x20 DUP4 ADD PUSH2 0xB7 JUMP JUMPDEST SWAP2 ADD MLOAD SWAP2 PUSH1 0x1 DUP1 PUSH1 0xA0 SHL SUB NOT SWAP2 CALLER DUP4 PUSH1 0x0 SLOAD AND OR PUSH1 0x0 SSTORE PUSH1 0x1 DUP1 PUSH1 0xA0 SHL SUB DUP1 SWAP3 AND DUP4 PUSH1 0x1 SLOAD AND OR PUSH1 0x1 SSTORE AND SWAP1 PUSH1 0x2 SLOAD AND OR PUSH1 0x2 SSTORE PUSH1 0x3 SSTORE PUSH1 0x40 MLOAD PUSH2 0x942 SWAP1 DUP2 PUSH2 0xCC DUP3 CODECOPY RETURN JUMPDEST PUSH1 0x0 DUP1 REVERT JUMPDEST PUSH4 0x4E487B71 PUSH1 0xE0 SHL PUSH1 0x0 MSTORE PUSH1 0x41 PUSH1 0x4 MSTORE PUSH1 0x24 PUSH1 0x0 REVERT JUMPDEST MLOAD SWAP1 PUSH1 0x1 PUSH1 0x1 PUSH1 0xA0 SHL SUB DUP3 AND DUP3 SUB PUSH2 0x9C JUMPI JUMP INVALID PUSH1 0x80 DUP1 PUSH1 0x40 MSTORE PUSH1 0x4 CALLDATASIZE LT ISZERO PUSH2 0x13 JUMPI PUSH1 0x0 DUP1 REVERT JUMPDEST PUSH1 0x0 SWAP1 DUP2 CALLDATALOAD PUSH1 0xE0 SHR SWAP1 DUP2 PUSH4 0xA0F9CE3 EQ PUSH2 0x8AE JUMPI POP DUP1 PUSH4 0x531763F2 EQ PUSH2 0x891 JUMPI DUP1 PUSH4 0x56397C35 EQ PUSH2 0x868 JUMPI DUP1 PUSH4 0x649BF0AF EQ PUSH2 0x7EF JUMPI DUP1 PUSH4 0x68F4A786 EQ PUSH2 0x7D2 JUMPI DUP1 PUSH4 0x75162E49 EQ PUSH2 0x712 JUMPI DUP1 PUSH4 0x82E1F506 EQ PUSH2 0x2FD JUMPI DUP1 PUSH4 0x8DA5CB5B EQ PUSH2 0x2D6 JUMPI DUP1 PUSH4 0xAF9D0AC2 EQ PUSH2 0x18B JUMPI DUP1 PUSH4 0xB3CA3ED8 EQ PUSH2 0x16E JUMPI DUP1 PUSH4 0xC2FDA487 EQ PUSH2 0x145 JUMPI DUP1 PUSH4 0xE17B2190 EQ PUSH2 0xDC JUMPI PUSH4 0xFC06A77F EQ PUSH2 0xB0 JUMPI PUSH1 0x0 DUP1 REVERT JUMPDEST CALLVALUE PUSH2 0xD9 JUMPI PUSH1 0x20 CALLDATASIZE PUSH1 0x3 NOT ADD SLT PUSH2 0xD9 JUMPI PUSH1 0x40 PUSH1 0x20 SWAP2 PUSH1 0x4 CALLDATALOAD DUP2 MSTORE PUSH1 0x4 DUP4 MSTORE KECCAK256 SLOAD PUSH1 0x40 MLOAD SWAP1 DUP2 MSTORE RETURN JUMPDEST DUP1 REVERT JUMPDEST POP CALLVALUE PUSH2 0xD9 JUMPI PUSH1 0x40 CALLDATASIZE PUSH1 0x3 NOT ADD SLT PUSH2 0xD9 JUMPI DUP1 SLOAD PUSH1 0x1 PUSH1 0x1 PUSH1 0xA0 SHL SUB AND CALLER SUB PUSH2 0x114 JUMPI PUSH1 0x4 CALLDATALOAD DUP2 MSTORE PUSH1 0x4 PUSH1 0x20 MSTORE PUSH1 0x24 CALLDATALOAD PUSH1 0x40 DUP3 KECCAK256 SSTORE DUP1 RETURN JUMPDEST PUSH1 0x40 MLOAD PUSH3 0x461BCD PUSH1 0xE5 SHL DUP2 MSTORE PUSH1 0x20 PUSH1 0x4 DUP3 ADD MSTORE PUSH1 0x9 PUSH1 0x24 DUP3 ADD MSTORE PUSH9 0x2727AA2FA7ABA722A9 PUSH1 0xB9 SHL PUSH1 0x44 DUP3 ADD MSTORE PUSH1 0x64 SWAP1 REVERT JUMPDEST POP CALLVALUE PUSH2 0xD9 JUMPI DUP1 PUSH1 0x3 NOT CALLDATASIZE ADD SLT PUSH2 0xD9 JUMPI PUSH1 0x2 SLOAD PUSH1 0x40 MLOAD PUSH1 0x1 PUSH1 0x1 PUSH1 0xA0 SHL SUB SWAP1 SWAP2 AND DUP2 MSTORE PUSH1 0x20 SWAP1 RETURN JUMPDEST POP CALLVALUE PUSH2 0xD9 JUMPI DUP1 PUSH1 0x3 NOT CALLDATASIZE ADD SLT PUSH2 0xD9 JUMPI PUSH1 0x20 PUSH1 0x40 MLOAD PUSH2 0x2BC DUP2 MSTORE RETURN JUMPDEST POP CALLVALUE PUSH2 0xD9 JUMPI PUSH1 0x80 CALLDATASIZE PUSH1 0x3 NOT ADD SLT PUSH2 0xD9 JUMPI PUSH2 0x1A5 PUSH2 0x8CA JUMP JUMPDEST PUSH1 0x24 CALLDATALOAD PUSH1 0x44 CALLDATALOAD SWAP2 PUSH1 0x64 CALLDATALOAD SWAP1 DUP2 ISZERO PUSH2 0x2A3 JUMPI DUP4 DUP6 MSTORE PUSH1 0x4 PUSH1 0x20 MSTORE PUSH1 0x40 DUP6 KECCAK256 SLOAD ISZERO PUSH2 0x26B JUMPI PUSH4 0xFFFFFFFF AND SWAP1 DUP2 DUP6 MSTORE PUSH1 0x5 PUSH1 0x20 MSTORE PUSH1 0x40 DUP6 KECCAK256 DUP4 DUP7 MSTORE PUSH1 0x20 MSTORE PUSH1 0x40 DUP6 KECCAK256 SWAP1 DUP1 DUP3 SSTORE PUSH2 0x3E8 SWAP1 DUP2 DUP2 MUL SWAP2 DUP2 DUP4 DIV SUB PUSH2 0x255 JUMPI PUSH32 0x4DD0A699B17A093F792E15E6A80909D64DB82D4FD2013A6DCD6B3E9683F629A8 SWAP3 PUSH1 0x3 PUSH2 0x2710 PUSH1 0x40 SWAP5 DIV SWAP2 DUP3 PUSH1 0x1 DUP3 ADD SSTORE ADD PUSH8 0xFFFFFFFFFFFFFFFF TIMESTAMP AND PUSH8 0xFFFFFFFFFFFFFFFF NOT DUP3 SLOAD AND OR SWAP1 SSTORE DUP3 MLOAD SWAP2 DUP3 MSTORE PUSH1 0x20 DUP3 ADD MSTORE LOG4 DUP1 RETURN JUMPDEST PUSH4 0x4E487B71 PUSH1 0xE0 SHL PUSH1 0x0 MSTORE PUSH1 0x11 PUSH1 0x4 MSTORE PUSH1 0x24 PUSH1 0x0 REVERT JUMPDEST PUSH1 0x40 MLOAD PUSH3 0x461BCD PUSH1 0xE5 SHL DUP2 MSTORE PUSH1 0x20 PUSH1 0x4 DUP3 ADD MSTORE PUSH1 0x10 PUSH1 0x24 DUP3 ADD MSTORE PUSH16 0x1491541550931250D7D393D517D4D155 PUSH1 0x82 SHL PUSH1 0x44 DUP3 ADD MSTORE PUSH1 0x64 SWAP1 REVERT JUMPDEST PUSH1 0x40 MLOAD PUSH3 0x461BCD PUSH1 0xE5 SHL DUP2 MSTORE PUSH1 0x20 PUSH1 0x4 DUP3 ADD MSTORE PUSH1 0xB PUSH1 0x24 DUP3 ADD MSTORE PUSH11 0x16915493D7D41493D19255 PUSH1 0xAA SHL PUSH1 0x44 DUP3 ADD MSTORE PUSH1 0x64 SWAP1 REVERT JUMPDEST POP CALLVALUE PUSH2 0xD9 JUMPI DUP1 PUSH1 0x3 NOT CALLDATASIZE ADD SLT PUSH2 0xD9 JUMPI SLOAD PUSH1 0x40 MLOAD PUSH1 0x1 PUSH1 0x1 PUSH1 0xA0 SHL SUB SWAP1 SWAP2 AND DUP2 MSTORE PUSH1 0x20 SWAP1 RETURN JUMPDEST POP CALLVALUE PUSH2 0xD9 JUMPI PUSH1 0xC0 CALLDATASIZE PUSH1 0x3 NOT ADD SLT PUSH2 0xD9 JUMPI PUSH2 0x317 PUSH2 0x8CA JUMP JUMPDEST PUSH1 0x64 CALLDATALOAD PUSH1 0x1 PUSH1 0x1 PUSH1 0xA0 SHL SUB DUP2 AND SWAP1 SUB PUSH2 0x70E JUMPI PUSH1 0x2 SLOAD PUSH1 0x40 MLOAD PUSH4 0x2950B0A9 PUSH1 0xE2 SHL DUP2 MSTORE CALLER PUSH1 0x4 DUP3 ADD MSTORE PUSH1 0x84 CALLDATALOAD SWAP3 SWAP2 PUSH1 0x20 SWAP1 DUP3 SWAP1 PUSH1 0x24 SWAP1 DUP3 SWAP1 PUSH1 0x1 PUSH1 0x1 PUSH1 0xA0 SHL SUB AND GAS STATICCALL SWAP1 DUP2 ISZERO PUSH2 0x703 JUMPI DUP5 SWAP2 PUSH2 0x69A JUMPI JUMPDEST POP ISZERO PUSH2 0x661 JUMPI PUSH4 0xFFFFFFFF DUP2 AND DUP4 MSTORE PUSH1 0x5 PUSH1 0x20 MSTORE PUSH1 0x40 DUP4 KECCAK256 PUSH1 0x24 CALLDATALOAD DUP5 MSTORE PUSH1 0x20 MSTORE PUSH1 0x40 DUP4 KECCAK256 SWAP2 PUSH1 0x1 DUP4 ADD SLOAD SWAP1 DUP2 ISZERO PUSH2 0x62B JUMPI PUSH1 0x2 DUP5 ADD SLOAD DUP3 DUP2 LT ISZERO PUSH2 0x5F7 JUMPI DUP3 SUB SWAP2 DUP3 GT PUSH2 0x5E3 JUMPI DUP2 DUP2 GT ISZERO PUSH2 0x5DB JUMPI POP SWAP2 JUMPDEST PUSH2 0x2BC DUP1 DUP5 MUL SWAP1 DUP5 ISZERO SWAP1 DUP6 DUP4 DIV EQ DUP2 OR ISZERO PUSH2 0x5C7 JUMPI PUSH2 0x2710 SWAP2 PUSH2 0x12C SWAP2 DUP3 DUP8 MUL SWAP3 DUP8 DUP5 DIV EQ OR ISZERO PUSH2 0x5B3 JUMPI PUSH1 0x44 CALLDATALOAD DUP8 MSTORE PUSH1 0x4 PUSH1 0x20 MSTORE DUP7 PUSH1 0x40 DUP2 KECCAK256 SLOAD PUSH1 0x1 DUP1 PUSH1 0xA0 SHL SUB PUSH1 0x1 SLOAD AND SWAP1 DUP2 EXTCODESIZE ISZERO PUSH2 0x591 JUMPI PUSH1 0x40 MLOAD PUSH4 0x2240A9AD PUSH1 0xE0 SHL DUP2 MSTORE PUSH1 0x24 DUP1 CALLDATALOAD PUSH1 0x4 DUP4 ADD MSTORE DUP2 ADD SWAP2 SWAP1 SWAP2 MSTORE PUSH1 0x64 DUP1 CALLDATALOAD PUSH1 0x1 PUSH1 0x1 PUSH1 0xA0 SHL SUB AND PUSH1 0x44 DUP4 ADD MSTORE DUP7 DUP6 DIV SWAP1 DUP3 ADD MSTORE PUSH1 0xA4 DUP1 CALLDATALOAD PUSH1 0x84 DUP4 ADD MSTORE SWAP1 SWAP3 SWAP2 DUP4 SWAP2 SWAP1 DUP3 SWAP1 DUP5 SWAP1 GAS CALL DUP1 ISZERO PUSH2 0x5A8 JUMPI PUSH2 0x595 JUMPI JUMPDEST POP PUSH1 0x1 SLOAD PUSH1 0x3 SLOAD DUP9 SWAP2 PUSH1 0x1 PUSH1 0x1 PUSH1 0xA0 SHL SUB AND DUP1 EXTCODESIZE ISZERO PUSH2 0x591 JUMPI PUSH1 0x40 MLOAD PUSH4 0x2240A9AD PUSH1 0xE0 SHL DUP2 MSTORE PUSH1 0x24 DUP1 CALLDATALOAD PUSH1 0x4 DUP4 ADD MSTORE DUP2 ADD SWAP3 SWAP1 SWAP3 MSTORE PUSH1 0x64 DUP1 CALLDATALOAD PUSH1 0x1 PUSH1 0x1 PUSH1 0xA0 SHL SUB AND PUSH1 0x44 DUP5 ADD MSTORE DUP7 DUP7 DIV SWAP1 DUP4 ADD MSTORE PUSH1 0xA4 DUP1 CALLDATALOAD PUSH1 0x84 DUP5 ADD MSTORE DUP4 SWAP2 DUP4 SWAP2 SWAP1 DUP3 SWAP1 DUP5 SWAP1 GAS CALL DUP1 ISZERO PUSH2 0x586 JUMPI PUSH2 0x56E JUMPI JUMPDEST POP POP PUSH1 0x2 DUP5 ADD SLOAD SWAP4 DUP7 DUP6 ADD DUP1 SWAP6 GT PUSH2 0x55A JUMPI SWAP1 PUSH1 0x3 DUP3 DUP7 PUSH1 0x2 DUP8 SWAP6 ADD SSTORE ADD DUP1 SLOAD PUSH8 0xFFFFFFFFFFFFFFFF PUSH1 0x40 SHL TIMESTAMP PUSH1 0x40 SHL AND SWAP1 PUSH8 0xFFFFFFFFFFFFFFFF PUSH1 0x40 SHL NOT AND OR SWAP1 SSTORE PUSH1 0x40 MLOAD SWAP7 DUP8 MSTORE DIV PUSH1 0x20 DUP7 ADD MSTORE DIV PUSH1 0x40 DUP5 ADD MSTORE PUSH1 0x60 DUP4 ADD MSTORE PUSH1 0x44 CALLDATALOAD SWAP2 PUSH32 0xF008C99BC1D62CC6A8BC0064B83E4BB4183440733F77B82FDF426BE94C13DA06 PUSH1 0x80 PUSH4 0xFFFFFFFF PUSH1 0x24 CALLDATALOAD SWAP5 AND SWAP3 LOG4 DUP1 RETURN JUMPDEST PUSH4 0x4E487B71 PUSH1 0xE0 SHL DUP9 MSTORE PUSH1 0x11 PUSH1 0x4 MSTORE PUSH1 0x24 DUP9 REVERT JUMPDEST PUSH2 0x577 SWAP1 PUSH2 0x8E2 JUMP JUMPDEST PUSH2 0x582 JUMPI DUP7 CODESIZE PUSH2 0x4CA JUMP JUMPDEST DUP7 DUP1 REVERT JUMPDEST PUSH1 0x40 MLOAD RETURNDATASIZE DUP5 DUP3 RETURNDATACOPY RETURNDATASIZE SWAP1 REVERT JUMPDEST DUP3 DUP1 REVERT JUMPDEST PUSH2 0x5A1 SWAP1 SWAP8 SWAP2 SWAP8 PUSH2 0x8E2 JUMP JUMPDEST SWAP6 CODESIZE PUSH2 0x45D JUMP JUMPDEST PUSH1 0x40 MLOAD RETURNDATASIZE DUP11 DUP3 RETURNDATACOPY RETURNDATASIZE SWAP1 REVERT JUMPDEST PUSH4 0x4E487B71 PUSH1 0xE0 SHL DUP8 MSTORE PUSH1 0x11 PUSH1 0x4 MSTORE PUSH1 0x24 DUP8 REVERT JUMPDEST PUSH4 0x4E487B71 PUSH1 0xE0 SHL DUP7 MSTORE PUSH1 0x11 PUSH1 0x4 MSTORE PUSH1 0x24 DUP7 REVERT JUMPDEST SWAP1 POP SWAP2 PUSH2 0x3BA JUMP JUMPDEST PUSH4 0x4E487B71 PUSH1 0xE0 SHL DUP6 MSTORE PUSH1 0x11 PUSH1 0x4 MSTORE PUSH1 0x24 DUP6 REVERT JUMPDEST PUSH1 0x40 MLOAD PUSH3 0x461BCD PUSH1 0xE5 SHL DUP2 MSTORE PUSH1 0x20 PUSH1 0x4 DUP3 ADD MSTORE PUSH1 0xC PUSH1 0x24 DUP3 ADD MSTORE PUSH12 0x1053149150511657D4105251 PUSH1 0xA2 SHL PUSH1 0x44 DUP3 ADD MSTORE PUSH1 0x64 SWAP1 REVERT JUMPDEST PUSH1 0x40 MLOAD PUSH3 0x461BCD PUSH1 0xE5 SHL DUP2 MSTORE PUSH1 0x20 PUSH1 0x4 DUP3 ADD MSTORE PUSH1 0xE PUSH1 0x24 DUP3 ADD MSTORE PUSH14 0x2727AFA222A1A620A920AA24A7A7 PUSH1 0x91 SHL PUSH1 0x44 DUP3 ADD MSTORE PUSH1 0x64 SWAP1 REVERT JUMPDEST PUSH1 0x40 MLOAD PUSH3 0x461BCD PUSH1 0xE5 SHL DUP2 MSTORE PUSH1 0x20 PUSH1 0x4 DUP3 ADD MSTORE PUSH1 0x11 PUSH1 0x24 DUP3 ADD MSTORE PUSH17 0x4E4F545F4C4943454E5345445F42414E4B PUSH1 0x78 SHL PUSH1 0x44 DUP3 ADD MSTORE PUSH1 0x64 SWAP1 REVERT JUMPDEST SWAP1 POP PUSH1 0x20 RETURNDATASIZE PUSH1 0x20 GT PUSH2 0x6FC JUMPI JUMPDEST PUSH1 0x1F DUP2 ADD PUSH1 0x1F NOT AND DUP3 ADD PUSH8 0xFFFFFFFFFFFFFFFF DUP2 GT DUP4 DUP3 LT OR PUSH2 0x6E8 JUMPI PUSH1 0x20 SWAP2 DUP4 SWAP2 PUSH1 0x40 MSTORE DUP2 ADD SUB SLT PUSH2 0x6E4 JUMPI MLOAD DUP1 ISZERO ISZERO DUP2 SUB PUSH2 0x6E4 JUMPI CODESIZE PUSH2 0x368 JUMP JUMPDEST DUP4 DUP1 REVERT JUMPDEST PUSH4 0x4E487B71 PUSH1 0xE0 SHL DUP7 MSTORE PUSH1 0x41 PUSH1 0x4 MSTORE PUSH1 0x24 DUP7 REVERT JUMPDEST POP RETURNDATASIZE PUSH2 0x6A7 JUMP JUMPDEST PUSH1 0x40 MLOAD RETURNDATASIZE DUP7 DUP3 RETURNDATACOPY RETURNDATASIZE SWAP1 REVERT JUMPDEST POP DUP1 REVERT JUMPDEST POP CALLVALUE PUSH2 0xD9 JUMPI PUSH1 0x40 CALLDATASIZE PUSH1 0x3 NOT ADD SLT PUSH2 0xD9 JUMPI PUSH4 0xFFFFFFFF PUSH2 0x731 PUSH2 0x8CA JUMP JUMPDEST AND DUP2 MSTORE PUSH1 0x5 PUSH1 0x20 MSTORE PUSH1 0x40 DUP2 KECCAK256 PUSH1 0x24 CALLDATALOAD DUP3 MSTORE PUSH1 0x20 MSTORE PUSH1 0x40 DUP2 KECCAK256 PUSH1 0x40 MLOAD PUSH1 0xA0 DUP2 ADD SWAP1 PUSH8 0xFFFFFFFFFFFFFFFF SWAP2 DUP2 DUP2 LT DUP4 DUP3 GT OR PUSH2 0x7BE JUMPI PUSH1 0x20 SWAP5 POP PUSH1 0x40 MSTORE DUP3 SLOAD DUP2 MSTORE PUSH1 0x80 PUSH1 0x1 DUP5 ADD SLOAD SWAP3 DUP4 DUP7 DUP5 ADD MSTORE PUSH1 0x3 PUSH1 0x2 DUP7 ADD SLOAD SWAP6 DUP7 PUSH1 0x40 DUP7 ADD MSTORE ADD SLOAD DUP2 DUP2 AND PUSH1 0x60 DUP6 ADD MSTORE PUSH1 0x40 SHR AND SWAP2 ADD MSTORE DUP1 ISZERO ISZERO SWAP2 DUP3 PUSH2 0x7B3 JUMPI JUMPDEST POP POP PUSH1 0x40 MLOAD SWAP1 ISZERO ISZERO DUP2 MSTORE RETURN JUMPDEST LT ISZERO SWAP1 POP CODESIZE DUP1 PUSH2 0x7A7 JUMP JUMPDEST PUSH4 0x4E487B71 PUSH1 0xE0 SHL DUP6 MSTORE PUSH1 0x41 PUSH1 0x4 MSTORE PUSH1 0x24 DUP6 REVERT JUMPDEST POP CALLVALUE PUSH2 0xD9 JUMPI DUP1 PUSH1 0x3 NOT CALLDATASIZE ADD SLT PUSH2 0xD9 JUMPI PUSH1 0x20 PUSH1 0x40 MLOAD PUSH2 0x3E8 DUP2 MSTORE RETURN JUMPDEST POP CALLVALUE PUSH2 0xD9 JUMPI PUSH1 0x40 CALLDATASIZE PUSH1 0x3 NOT ADD SLT PUSH2 0xD9 JUMPI PUSH1 0x40 PUSH1 0xA0 SWAP2 PUSH4 0xFFFFFFFF PUSH2 0x813 PUSH2 0x8CA JUMP JUMPDEST AND DUP2 MSTORE PUSH1 0x5 PUSH1 0x20 MSTORE DUP2 DUP2 KECCAK256 PUSH1 0x24 CALLDATALOAD DUP3 MSTORE PUSH1 0x20 MSTORE KECCAK256 DUP1 SLOAD SWAP1 PUSH1 0x1 DUP2 ADD SLOAD SWAP1 PUSH1 0x3 PUSH1 0x2 DUP3 ADD SLOAD SWAP2 ADD SLOAD SWAP1 PUSH8 0xFFFFFFFFFFFFFFFF SWAP3 PUSH1 0x40 MLOAD SWAP5 DUP6 MSTORE PUSH1 0x20 DUP6 ADD MSTORE PUSH1 0x40 DUP5 ADD MSTORE DUP2 DUP2 AND PUSH1 0x60 DUP5 ADD MSTORE PUSH1 0x40 SHR AND PUSH1 0x80 DUP3 ADD MSTORE RETURN JUMPDEST POP CALLVALUE PUSH2 0xD9 JUMPI DUP1 PUSH1 0x3 NOT CALLDATASIZE ADD SLT PUSH2 0xD9 JUMPI PUSH1 0x1 SLOAD PUSH1 0x40 MLOAD PUSH1 0x1 PUSH1 0x1 PUSH1 0xA0 SHL SUB SWAP1 SWAP2 AND DUP2 MSTORE PUSH1 0x20 SWAP1 RETURN JUMPDEST POP CALLVALUE PUSH2 0xD9 JUMPI DUP1 PUSH1 0x3 NOT CALLDATASIZE ADD SLT PUSH2 0xD9 JUMPI PUSH1 0x20 PUSH1 0x40 MLOAD PUSH2 0x12C DUP2 MSTORE RETURN JUMPDEST SWAP1 POP CALLVALUE PUSH2 0x70E JUMPI DUP2 PUSH1 0x3 NOT CALLDATASIZE ADD SLT PUSH2 0x70E JUMPI PUSH1 0x20 SWAP1 PUSH1 0x3 SLOAD DUP2 MSTORE RETURN JUMPDEST PUSH1 0x4 CALLDATALOAD SWAP1 PUSH4 0xFFFFFFFF DUP3 AND DUP3 SUB PUSH2 0x8DD JUMPI JUMP JUMPDEST PUSH1 0x0 DUP1 REVERT JUMPDEST PUSH8 0xFFFFFFFFFFFFFFFF DUP2 GT PUSH2 0x8F6 JUMPI PUSH1 0x40 MSTORE JUMP JUMPDEST PUSH4 0x4E487B71 PUSH1 0xE0 SHL PUSH1 0x0 MSTORE PUSH1 0x41 PUSH1 0x4 MSTORE PUSH1 0x24 PUSH1 0x0 REVERT INVALID LOG2 PUSH5 0x6970667358 0x22 SLT KECCAK256 0xCC RETURNDATASIZE PUSH12 0x5FFDAC015CD52A49EE62658 PUSH5 0x3CF65CCA6F CODECOPY 0x4F COINBASE LT 0xEB PUSH21 0xF2C5593C3F64736F6C634300081800330000000000 "},"methodIdentifiers":{"CONFED_BPS()":"531763f2","REPUBLIC_BPS()":"b3ca3ed8","TAX_BPS()":"68f4a786","confederationBudgetAccountId()":"0a0f9ce3","declareProfit(uint32,bytes32,bytes32,uint256)":"af9d0ac2","isCompliant(uint32,bytes32)":"75162e49","ledger()":"56397c35","licenseRegistry()":"c2fda487","owner()":"8da5cb5b","payTax(uint32,bytes32,bytes32,address,uint256,bytes32)":"82e1f506","recordOf(uint32,bytes32)":"649bf0af","republicBudgetAccountIdOf(bytes32)":"fc06a77f","setRepublic(bytes32,bytes32)":"e17b2190"}}}}}