{"contracts/ActivationRegistry.sol":{"ActivationRegistry":{"abi":[{"inputs":[{"internalType":"address","name":"seatSbt","type":"address"},{"internalType":"address","name":"supremeCourt","type":"address"},{"internalType":"address","name":"constitutionAcceptance","type":"address"}],"stateMutability":"nonpayable","type":"constructor"},{"anonymous":false,"inputs":[{"indexed":true,"internalType":"address","name":"acceptanceRegistry","type":"address"}],"name":"AcceptanceRegistrySet","type":"event"},{"anonymous":false,"inputs":[{"indexed":true,"internalType":"uint256","name":"seatId","type":"uint256"}],"name":"Activated","type":"event"},{"anonymous":false,"inputs":[{"indexed":true,"internalType":"uint256","name":"seatId","type":"uint256"},{"indexed":true,"internalType":"address","name":"validator","type":"address"},{"indexed":false,"internalType":"uint8","name":"approvals","type":"uint8"}],"name":"ActivationApproved","type":"event"},{"anonymous":false,"inputs":[{"indexed":true,"internalType":"uint256","name":"seatId","type":"uint256"},{"indexed":true,"internalType":"address","name":"requester","type":"address"}],"name":"ActivationRequested","type":"event"},{"anonymous":false,"inputs":[{"indexed":true,"internalType":"address","name":"oldOwner","type":"address"},{"indexed":true,"internalType":"address","name":"newOwner","type":"address"}],"name":"OwnerChanged","type":"event"},{"anonymous":false,"inputs":[{"indexed":true,"internalType":"address","name":"seatSbt","type":"address"}],"name":"SeatSBTSet","type":"event"},{"anonymous":false,"inputs":[{"indexed":true,"internalType":"uint256","name":"seatId","type":"uint256"},{"indexed":false,"internalType":"enum ActivationRegistry.Status","name":"status","type":"uint8"}],"name":"StatusSet","type":"event"},{"anonymous":false,"inputs":[{"indexed":true,"internalType":"address","name":"supremeCourt","type":"address"}],"name":"SupremeCourtSet","type":"event"},{"anonymous":false,"inputs":[{"indexed":false,"internalType":"uint8","name":"k","type":"uint8"}],"name":"ThresholdSet","type":"event"},{"anonymous":false,"inputs":[{"indexed":true,"internalType":"address","name":"validator","type":"address"},{"indexed":false,"internalType":"bool","name":"ok","type":"bool"}],"name":"ValidatorSet","type":"event"},{"inputs":[],"name":"acceptance","outputs":[{"internalType":"contract IConstitutionAcceptanceRegistry","name":"","type":"address"}],"stateMutability":"view","type":"function"},{"inputs":[{"internalType":"uint256","name":"","type":"uint256"}],"name":"approvalsCount","outputs":[{"internalType":"uint8","name":"","type":"uint8"}],"stateMutability":"view","type":"function"},{"inputs":[{"internalType":"uint256","name":"seatId","type":"uint256"}],"name":"approveActivation","outputs":[],"stateMutability":"nonpayable","type":"function"},{"inputs":[{"internalType":"uint256","name":"","type":"uint256"},{"internalType":"address","name":"","type":"address"}],"name":"approvedBy","outputs":[{"internalType":"bool","name":"","type":"bool"}],"stateMutability":"view","type":"function"},{"inputs":[],"name":"court","outputs":[{"internalType":"contract ISupremeCourt","name":"","type":"address"}],"stateMutability":"view","type":"function"},{"inputs":[{"internalType":"uint256","name":"seatId","type":"uint256"}],"name":"isActive","outputs":[{"internalType":"bool","name":"","type":"bool"}],"stateMutability":"view","type":"function"},{"inputs":[{"internalType":"address","name":"","type":"address"}],"name":"isValidator","outputs":[{"internalType":"bool","name":"","type":"bool"}],"stateMutability":"view","type":"function"},{"inputs":[],"name":"owner","outputs":[{"internalType":"address","name":"","type":"address"}],"stateMutability":"view","type":"function"},{"inputs":[{"internalType":"uint256","name":"seatId","type":"uint256"}],"name":"requestActivation","outputs":[],"stateMutability":"nonpayable","type":"function"},{"inputs":[{"internalType":"uint256","name":"seatId","type":"uint256"}],"name":"resetApprovals","outputs":[],"stateMutability":"nonpayable","type":"function"},{"inputs":[],"name":"seat","outputs":[{"internalType":"contract ISeatSBT","name":"","type":"address"}],"stateMutability":"view","type":"function"},{"inputs":[{"internalType":"address","name":"constitutionAcceptance","type":"address"}],"name":"setAcceptanceRegistry","outputs":[],"stateMutability":"nonpayable","type":"function"},{"inputs":[{"internalType":"uint256","name":"seatId","type":"uint256"},{"internalType":"bool","name":"banned","type":"bool"}],"name":"setLocalBanned","outputs":[],"stateMutability":"nonpayable","type":"function"},{"inputs":[{"internalType":"address","name":"seatSbt","type":"address"}],"name":"setSeatSBT","outputs":[],"stateMutability":"nonpayable","type":"function"},{"inputs":[{"internalType":"address","name":"supremeCourt","type":"address"}],"name":"setSupremeCourt","outputs":[],"stateMutability":"nonpayable","type":"function"},{"inputs":[{"internalType":"uint8","name":"k","type":"uint8"}],"name":"setThreshold","outputs":[],"stateMutability":"nonpayable","type":"function"},{"inputs":[{"internalType":"address","name":"v","type":"address"},{"internalType":"bool","name":"ok","type":"bool"}],"name":"setValidator","outputs":[],"stateMutability":"nonpayable","type":"function"},{"inputs":[{"internalType":"uint256","name":"","type":"uint256"}],"name":"statusOf","outputs":[{"internalType":"enum ActivationRegistry.Status","name":"","type":"uint8"}],"stateMutability":"view","type":"function"},{"inputs":[{"internalType":"uint256","name":"seatId","type":"uint256"}],"name":"statusWithCourt","outputs":[{"internalType":"enum ActivationRegistry.Status","name":"status","type":"uint8"},{"internalType":"bool","name":"frozen","type":"bool"},{"internalType":"bool","name":"banned","type":"bool"}],"stateMutability":"view","type":"function"},{"inputs":[],"name":"thresholdK","outputs":[{"internalType":"uint8","name":"","type":"uint8"}],"stateMutability":"view","type":"function"},{"inputs":[{"internalType":"address","name":"newOwner","type":"address"}],"name":"transferOwnership","outputs":[],"stateMutability":"nonpayable","type":"function"}],"evm":{"bytecode":{"linkReferences":{},"object":"60803461013957601f61107e38819003918201601f19168301916001600160401b0383118484101761013e578084926060946040528339810103126101395761004781610154565b7fbfe19833cb9cab9b877ed6ab99e3d7f0696f290d375c8061f749b994d430b7d2610080604061007960208601610154565b9401610154565b60038054600080546001600160a01b0319908116331782556001805482166001600160a01b03988916908117909155600280549092169888169889179091556001600160a81b031990921693909516928317600360a01b1790915560405194919391907f88b647a8d032c0dbefb29fdee2921089e1522351c7e79ee97cf9d1756b0a35498380a27ff1a2c9a9b5d78f9e299a681ca01b9d840c85b836e7f3a9e100cdbc28f5d51b248280a280a2610f1590816101698239f35b600080fd5b634e487b7160e01b600052604160045260246000fd5b51906001600160a01b03821682036101395756fe6080604081815260048036101561001557600080fd5b600092833560e01c908162971a3014610c5a5750806308dd1738146109f45780630ce109a21461080f5780631d238411146107ea57806325af5356146107725780632681cb71146106fa5780634623c91d1461066b5780636d736689146106425780637291c0d91461058a5780637bba6c0e146104625780637bf6df911461043957806382afd23b1461041057806385667f1c146103c25780638da5cb5b1461039657806393f36aca1461035b5780639d8f9738146102e3578063abaf742a146102b9578063ad35efd414610288578063e5a98603146101c0578063f2fde38b146101485763facd743b1461010957600080fd5b346101445760203660031901126101445760209260ff918391906001600160a01b03610133610c7f565b168252855220541690519015158152f35b8280fd5b83346101bd5760203660031901126101bd57610162610c7f565b81546001600160a01b038082169261017b338514610d55565b168092610189821515610d8d565b7fb532073b38c83145e3e5135377a08bf9aab55bc0fd7c1179cd4fb995d2a5159c8580a36001600160a01b03191617815580f35b80fd5b50903461014457602036600319011261014457813560ff811692838203610284576101f560018060a01b038654163314610d55565b83151580610279575b1561024e57506003805460ff60a01b191660a09290921b60ff60a01b16919091179055519081527f19bdbd56c4c049b2d3a1186973e76905fb6843c0ede29b881e1e2a34e3bdbd9a90602090a180f35b606490602084519162461bcd60e51b835282015260056024820152644241445f4b60d81b6044820152fd5b5060328411156101fe565b8480fd5b50346101445760203660031901126101445760ff826020946102b7933581526005865220541691518092610ca9565bf35b5034610144576020366003190112610144578160209360ff92358152600685522054169051908152f35b83346101bd5760203660031901126101bd576102fd610c7f565b81546001600160a01b0391906103169083163314610d55565b16610322811515610d8d565b600180546001600160a01b031916821790557f88b647a8d032c0dbefb29fdee2921089e1522351c7e79ee97cf9d1756b0a35498280a280f35b50346101445760203660031901126101445761038160018060a01b038454163314610d55565b35825260066020528120805460ff1916905580f35b5050346103be57816003193601126103be57905490516001600160a01b039091168152602090f35b5080fd5b50346101445781600319360112610144576024356001600160a01b038116919082900361040c5760209360ff92849235825260078652828220908252855220541690519015158152f35b8380fd5b5091346101bd5760203660031901126101bd575061043060209235610dc5565b90519015158152f35b5050346103be57816003193601126103be5760015490516001600160a01b039091168152602090f35b509034610144576020918260031936011261040c578035928385526005815260ff83862054169360018060a01b036002541690811515938460001461058357855163074cfea560e41b81528181018390528481602481875afa90811561057957899161055c575b50945b15610550579060248492875194859384926341d2050760e01b84528301525afa9081156105465760609691610519575b50915b61050b84518096610ca9565b151590840152151590820152f35b6105399150823d841161053f575b6105318183610ccc565b810190610d04565b386104fc565b503d610527565b84513d88823e3d90fd5b505050606094916104ff565b6105739150853d871161053f576105318183610ccc565b386104c9565b87513d8b823e3d90fd5b87946104cc565b5090346101445780600319360112610144578135916105a7610c9a565b6105bb60018060a01b038654163314610d55565b1561063b5760035b838552600560205282852091808210156106285750916020917fa909728a788c844aea3b8a365bf540ccd759c996d6658adfb86fe9bc5efd901f9360ff801983541691161790558385526005825261062460ff828720541691518092610ca9565ba280f35b634e487b7160e01b865260219052602485fd5b60016105c3565b5050346103be57816003193601126103be5760035490516001600160a01b039091168152602090f35b50903461014457806003193601126101445760207f6b3b7d0d26ec99d080840dca1323c7147d1868adc66a4290afb8101d7908320d916106a9610c7f565b906106b2610c9a565b865490926001600160a01b03916106cc9083163314610d55565b16946106d9861515610d8d565b85875283528086209115159160ff1981541660ff841617905551908152a280f35b83346101bd5760203660031901126101bd57610714610c7f565b81546001600160a01b03919061072d9083163314610d55565b16610739811515610d8d565b600380546001600160a01b031916821790557fbfe19833cb9cab9b877ed6ab99e3d7f0696f290d375c8061f749b994d430b7d28280a280f35b83346101bd5760203660031901126101bd5761078c610c7f565b81546001600160a01b0391906107a59083163314610d55565b166107b1811515610d8d565b600280546001600160a01b031916821790557ff1a2c9a9b5d78f9e299a681ca01b9d840c85b836e7f3a9e100cdbc28f5d51b248280a280f35b5050346103be57816003193601126103be5760209060ff60035460a01c169051908152f35b509034610144576020918260031936011261040c5780359233855281815260ff91828487205416156109c35784865260058252828487205416818110156109b057600161085c9114610d1c565b84865260078252838620338752825282848720541661097c578486526007825283862033875282528386209260ff199360018582541617905585875260068352600181868920541601918183116109695750858752600683528085882092169182858254161790558451828152867fac29522fd73975c7ca3455b778f40cadcfb52a118d85cd586bb5df887c6fbdb4853393a360035460a01c161115610900578480f35b83927fa909728a788c844aea3b8a365bf540ccd759c996d6658adfb86fe9bc5efd901f92848752600583526002828820918254161790555160028152a27f3ec796be1be7d03bff3a62b9fa594a60e947c1809bced06d929f145308ae57ce8280a2388080808480f35b634e487b7160e01b885260119052602487fd5b60649184519162461bcd60e51b8352820152601060248201526f1053149150511657d054141493d5915160821b6044820152fd5b634e487b7160e01b875260218252602487fd5b60649184519162461bcd60e51b8352820152600d60248201526c2727aa2fab20a624a220aa27a960991b6044820152fd5b50346101445760208060031936011261040c57600354823593906001600160a01b039081168015610c225782516334da6b7f60e11b81523386820152602494929183908290879082905afa908115610bc7578891610c05575b5015610bd15780828592600154168551938480926331a9108f60e11b82528b8b8301525afa918215610bc7578892610b8b575b5033911603610b59578486526005815260ff828720541684811015610b475760ff929160059115610b05575b86885252852054169180831015610af45750506001610acb9114610d1c565b33907f94e1fdfc3140811b5683cd2853eb14d53333c12bfa2b190c0143a67aa82d5c5c8380a380f35b634e487b7160e01b85526021905283fd5b86885281815282882060018519825416179055867fa909728a788c844aea3b8a365bf540ccd759c996d6658adfb86fe9bc5efd901f82855160018152a2610aac565b634e487b7160e01b8752602185528387fd5b905162461bcd60e51b815292830152600e908201526d2727aa2fa9a2a0aa2fa7aba722a960911b604482015260649150fd5b9091508281813d8311610bc0575b610ba38183610ccc565b81010312610bbc57518181168103610bbc579038610a80565b8780fd5b503d610b99565b84513d8a823e3d90fd5b825162461bcd60e51b8152808601839052600f818601526e2727afa1a7a729aa24aa2aaa24a7a760891b6044820152606490fd5b610c1c9150833d851161053f576105318183610ccc565b38610a4d565b50505162461bcd60e51b81529182015260126024820152711050d0d15415105390d157d393d517d4d15560721b604482015260649150fd5b8490346103be57816003193601126103be576002546001600160a01b03168152602090f35b600435906001600160a01b0382168203610c9557565b600080fd5b602435908115158203610c9557565b906004821015610cb65752565b634e487b7160e01b600052602160045260246000fd5b90601f8019910116810190811067ffffffffffffffff821117610cee57604052565b634e487b7160e01b600052604160045260246000fd5b90816020910312610c9557518015158103610c955790565b15610d2357565b60405162461bcd60e51b815260206004820152600a6024820152691393d517d313d0d2d15160b21b6044820152606490fd5b15610d5c57565b60405162461bcd60e51b81526020600482015260096024820152682727aa2fa7aba722a960b91b6044820152606490fd5b15610d9457565b60405162461bcd60e51b81526020600482015260096024820152682d22a927afa0a2222960b91b6044820152606490fd5b6000908082526020906005825260ff6040842054166004811015610ecb57600203610ec6576002546001600160a01b03169081610e06575b50505050600190565b6040516341d2050760e01b8152600481018290528381602481865afa908115610ebb578591610e9e575b50610e9857829060246040518094819363074cfea560e41b835260048301525afa918215610e8d578392610e70575b5050610e6d57808080610dfd565b90565b610e869250803d1061053f576105318183610ccc565b3880610e5f565b6040513d85823e3d90fd5b50505090565b610eb59150843d861161053f576105318183610ccc565b38610e30565b6040513d87823e3d90fd5b505090565b634e487b7160e01b84526021600452602484fdfea2646970667358221220521355c03f260ba6dc2580ed608db81c93f964f0d53c43cb316524fbeb9607b164736f6c63430008180033","opcodes":"PUSH1 0x80 CALLVALUE PUSH2 0x139 JUMPI PUSH1 0x1F PUSH2 0x107E CODESIZE DUP2 SWAP1 SUB SWAP2 DUP3 ADD PUSH1 0x1F NOT AND DUP4 ADD SWAP2 PUSH1 0x1 PUSH1 0x1 PUSH1 0x40 SHL SUB DUP4 GT DUP5 DUP5 LT OR PUSH2 0x13E JUMPI DUP1 DUP5 SWAP3 PUSH1 0x60 SWAP5 PUSH1 0x40 MSTORE DUP4 CODECOPY DUP2 ADD SUB SLT PUSH2 0x139 JUMPI PUSH2 0x47 DUP2 PUSH2 0x154 JUMP JUMPDEST PUSH32 0xBFE19833CB9CAB9B877ED6AB99E3D7F0696F290D375C8061F749B994D430B7D2 PUSH2 0x80 PUSH1 0x40 PUSH2 0x79 PUSH1 0x20 DUP7 ADD PUSH2 0x154 JUMP JUMPDEST SWAP5 ADD PUSH2 0x154 JUMP JUMPDEST PUSH1 0x3 DUP1 SLOAD PUSH1 0x0 DUP1 SLOAD PUSH1 0x1 PUSH1 0x1 PUSH1 0xA0 SHL SUB NOT SWAP1 DUP2 AND CALLER OR DUP3 SSTORE PUSH1 0x1 DUP1 SLOAD DUP3 AND PUSH1 0x1 PUSH1 0x1 PUSH1 0xA0 SHL SUB SWAP9 DUP10 AND SWAP1 DUP2 OR SWAP1 SWAP2 SSTORE PUSH1 0x2 DUP1 SLOAD SWAP1 SWAP3 AND SWAP9 DUP9 AND SWAP9 DUP10 OR SWAP1 SWAP2 SSTORE PUSH1 0x1 PUSH1 0x1 PUSH1 0xA8 SHL SUB NOT SWAP1 SWAP3 AND SWAP4 SWAP1 SWAP6 AND SWAP3 DUP4 OR PUSH1 0x3 PUSH1 0xA0 SHL OR SWAP1 SWAP2 SSTORE PUSH1 0x40 MLOAD SWAP5 SWAP2 SWAP4 SWAP2 SWAP1 PUSH32 0x88B647A8D032C0DBEFB29FDEE2921089E1522351C7E79EE97CF9D1756B0A3549 DUP4 DUP1 LOG2 PUSH32 0xF1A2C9A9B5D78F9E299A681CA01B9D840C85B836E7F3A9E100CDBC28F5D51B24 DUP3 DUP1 LOG2 DUP1 LOG2 PUSH2 0xF15 SWAP1 DUP2 PUSH2 0x169 DUP3 CODECOPY RETURN JUMPDEST PUSH1 0x0 DUP1 REVERT JUMPDEST PUSH4 0x4E487B71 PUSH1 0xE0 SHL PUSH1 0x0 MSTORE PUSH1 0x41 PUSH1 0x4 MSTORE PUSH1 0x24 PUSH1 0x0 REVERT JUMPDEST MLOAD SWAP1 PUSH1 0x1 PUSH1 0x1 PUSH1 0xA0 SHL SUB DUP3 AND DUP3 SUB PUSH2 0x139 JUMPI JUMP INVALID PUSH1 0x80 PUSH1 0x40 DUP2 DUP2 MSTORE PUSH1 0x4 DUP1 CALLDATASIZE LT ISZERO PUSH2 0x15 JUMPI PUSH1 0x0 DUP1 REVERT JUMPDEST PUSH1 0x0 SWAP3 DUP4 CALLDATALOAD PUSH1 0xE0 SHR SWAP1 DUP2 PUSH3 0x971A30 EQ PUSH2 0xC5A JUMPI POP DUP1 PUSH4 0x8DD1738 EQ PUSH2 0x9F4 JUMPI DUP1 PUSH4 0xCE109A2 EQ PUSH2 0x80F JUMPI DUP1 PUSH4 0x1D238411 EQ PUSH2 0x7EA JUMPI DUP1 PUSH4 0x25AF5356 EQ PUSH2 0x772 JUMPI DUP1 PUSH4 0x2681CB71 EQ PUSH2 0x6FA JUMPI DUP1 PUSH4 0x4623C91D EQ PUSH2 0x66B JUMPI DUP1 PUSH4 0x6D736689 EQ PUSH2 0x642 JUMPI DUP1 PUSH4 0x7291C0D9 EQ PUSH2 0x58A JUMPI DUP1 PUSH4 0x7BBA6C0E EQ PUSH2 0x462 JUMPI DUP1 PUSH4 0x7BF6DF91 EQ PUSH2 0x439 JUMPI DUP1 PUSH4 0x82AFD23B EQ PUSH2 0x410 JUMPI DUP1 PUSH4 0x85667F1C EQ PUSH2 0x3C2 JUMPI DUP1 PUSH4 0x8DA5CB5B EQ PUSH2 0x396 JUMPI DUP1 PUSH4 0x93F36ACA EQ PUSH2 0x35B JUMPI DUP1 PUSH4 0x9D8F9738 EQ PUSH2 0x2E3 JUMPI DUP1 PUSH4 0xABAF742A EQ PUSH2 0x2B9 JUMPI DUP1 PUSH4 0xAD35EFD4 EQ PUSH2 0x288 JUMPI DUP1 PUSH4 0xE5A98603 EQ PUSH2 0x1C0 JUMPI DUP1 PUSH4 0xF2FDE38B EQ PUSH2 0x148 JUMPI PUSH4 0xFACD743B EQ PUSH2 0x109 JUMPI PUSH1 0x0 DUP1 REVERT JUMPDEST CALLVALUE PUSH2 0x144 JUMPI PUSH1 0x20 CALLDATASIZE PUSH1 0x3 NOT ADD SLT PUSH2 0x144 JUMPI PUSH1 0x20 SWAP3 PUSH1 0xFF SWAP2 DUP4 SWAP2 SWAP1 PUSH1 0x1 PUSH1 0x1 PUSH1 0xA0 SHL SUB PUSH2 0x133 PUSH2 0xC7F JUMP JUMPDEST AND DUP3 MSTORE DUP6 MSTORE KECCAK256 SLOAD AND SWAP1 MLOAD SWAP1 ISZERO ISZERO DUP2 MSTORE RETURN JUMPDEST DUP3 DUP1 REVERT JUMPDEST DUP4 CALLVALUE PUSH2 0x1BD JUMPI PUSH1 0x20 CALLDATASIZE PUSH1 0x3 NOT ADD SLT PUSH2 0x1BD JUMPI PUSH2 0x162 PUSH2 0xC7F JUMP JUMPDEST DUP2 SLOAD PUSH1 0x1 PUSH1 0x1 PUSH1 0xA0 SHL SUB DUP1 DUP3 AND SWAP3 PUSH2 0x17B CALLER DUP6 EQ PUSH2 0xD55 JUMP JUMPDEST AND DUP1 SWAP3 PUSH2 0x189 DUP3 ISZERO ISZERO PUSH2 0xD8D JUMP JUMPDEST PUSH32 0xB532073B38C83145E3E5135377A08BF9AAB55BC0FD7C1179CD4FB995D2A5159C DUP6 DUP1 LOG3 PUSH1 0x1 PUSH1 0x1 PUSH1 0xA0 SHL SUB NOT AND OR DUP2 SSTORE DUP1 RETURN JUMPDEST DUP1 REVERT JUMPDEST POP SWAP1 CALLVALUE PUSH2 0x144 JUMPI PUSH1 0x20 CALLDATASIZE PUSH1 0x3 NOT ADD SLT PUSH2 0x144 JUMPI DUP2 CALLDATALOAD PUSH1 0xFF DUP2 AND SWAP3 DUP4 DUP3 SUB PUSH2 0x284 JUMPI PUSH2 0x1F5 PUSH1 0x1 DUP1 PUSH1 0xA0 SHL SUB DUP7 SLOAD AND CALLER EQ PUSH2 0xD55 JUMP JUMPDEST DUP4 ISZERO ISZERO DUP1 PUSH2 0x279 JUMPI JUMPDEST ISZERO PUSH2 0x24E JUMPI POP PUSH1 0x3 DUP1 SLOAD PUSH1 0xFF PUSH1 0xA0 SHL NOT AND PUSH1 0xA0 SWAP3 SWAP1 SWAP3 SHL PUSH1 0xFF PUSH1 0xA0 SHL AND SWAP2 SWAP1 SWAP2 OR SWAP1 SSTORE MLOAD SWAP1 DUP2 MSTORE PUSH32 0x19BDBD56C4C049B2D3A1186973E76905FB6843C0EDE29B881E1E2A34E3BDBD9A SWAP1 PUSH1 0x20 SWAP1 LOG1 DUP1 RETURN JUMPDEST PUSH1 0x64 SWAP1 PUSH1 0x20 DUP5 MLOAD SWAP2 PUSH3 0x461BCD PUSH1 0xE5 SHL DUP4 MSTORE DUP3 ADD MSTORE PUSH1 0x5 PUSH1 0x24 DUP3 ADD MSTORE PUSH5 0x4241445F4B PUSH1 0xD8 SHL PUSH1 0x44 DUP3 ADD MSTORE REVERT JUMPDEST POP PUSH1 0x32 DUP5 GT ISZERO PUSH2 0x1FE JUMP JUMPDEST DUP5 DUP1 REVERT JUMPDEST POP CALLVALUE PUSH2 0x144 JUMPI PUSH1 0x20 CALLDATASIZE PUSH1 0x3 NOT ADD SLT PUSH2 0x144 JUMPI PUSH1 0xFF DUP3 PUSH1 0x20 SWAP5 PUSH2 0x2B7 SWAP4 CALLDATALOAD DUP2 MSTORE PUSH1 0x5 DUP7 MSTORE KECCAK256 SLOAD AND SWAP2 MLOAD DUP1 SWAP3 PUSH2 0xCA9 JUMP JUMPDEST RETURN JUMPDEST POP CALLVALUE PUSH2 0x144 JUMPI PUSH1 0x20 CALLDATASIZE PUSH1 0x3 NOT ADD SLT PUSH2 0x144 JUMPI DUP2 PUSH1 0x20 SWAP4 PUSH1 0xFF SWAP3 CALLDATALOAD DUP2 MSTORE PUSH1 0x6 DUP6 MSTORE KECCAK256 SLOAD AND SWAP1 MLOAD SWAP1 DUP2 MSTORE RETURN JUMPDEST DUP4 CALLVALUE PUSH2 0x1BD JUMPI PUSH1 0x20 CALLDATASIZE PUSH1 0x3 NOT ADD SLT PUSH2 0x1BD JUMPI PUSH2 0x2FD PUSH2 0xC7F JUMP JUMPDEST DUP2 SLOAD PUSH1 0x1 PUSH1 0x1 PUSH1 0xA0 SHL SUB SWAP2 SWAP1 PUSH2 0x316 SWAP1 DUP4 AND CALLER EQ PUSH2 0xD55 JUMP JUMPDEST AND PUSH2 0x322 DUP2 ISZERO ISZERO PUSH2 0xD8D JUMP JUMPDEST PUSH1 0x1 DUP1 SLOAD PUSH1 0x1 PUSH1 0x1 PUSH1 0xA0 SHL SUB NOT AND DUP3 OR SWAP1 SSTORE PUSH32 0x88B647A8D032C0DBEFB29FDEE2921089E1522351C7E79EE97CF9D1756B0A3549 DUP3 DUP1 LOG2 DUP1 RETURN JUMPDEST POP CALLVALUE PUSH2 0x144 JUMPI PUSH1 0x20 CALLDATASIZE PUSH1 0x3 NOT ADD SLT PUSH2 0x144 JUMPI PUSH2 0x381 PUSH1 0x1 DUP1 PUSH1 0xA0 SHL SUB DUP5 SLOAD AND CALLER EQ PUSH2 0xD55 JUMP JUMPDEST CALLDATALOAD DUP3 MSTORE PUSH1 0x6 PUSH1 0x20 MSTORE DUP2 KECCAK256 DUP1 SLOAD PUSH1 0xFF NOT AND SWAP1 SSTORE DUP1 RETURN JUMPDEST POP POP CALLVALUE PUSH2 0x3BE JUMPI DUP2 PUSH1 0x3 NOT CALLDATASIZE ADD SLT PUSH2 0x3BE JUMPI SWAP1 SLOAD SWAP1 MLOAD PUSH1 0x1 PUSH1 0x1 PUSH1 0xA0 SHL SUB SWAP1 SWAP2 AND DUP2 MSTORE PUSH1 0x20 SWAP1 RETURN JUMPDEST POP DUP1 REVERT JUMPDEST POP CALLVALUE PUSH2 0x144 JUMPI DUP2 PUSH1 0x3 NOT CALLDATASIZE ADD SLT PUSH2 0x144 JUMPI PUSH1 0x24 CALLDATALOAD PUSH1 0x1 PUSH1 0x1 PUSH1 0xA0 SHL SUB DUP2 AND SWAP2 SWAP1 DUP3 SWAP1 SUB PUSH2 0x40C JUMPI PUSH1 0x20 SWAP4 PUSH1 0xFF SWAP3 DUP5 SWAP3 CALLDATALOAD DUP3 MSTORE PUSH1 0x7 DUP7 MSTORE DUP3 DUP3 KECCAK256 SWAP1 DUP3 MSTORE DUP6 MSTORE KECCAK256 SLOAD AND SWAP1 MLOAD SWAP1 ISZERO ISZERO DUP2 MSTORE RETURN JUMPDEST DUP4 DUP1 REVERT JUMPDEST POP SWAP2 CALLVALUE PUSH2 0x1BD JUMPI PUSH1 0x20 CALLDATASIZE PUSH1 0x3 NOT ADD SLT PUSH2 0x1BD JUMPI POP PUSH2 0x430 PUSH1 0x20 SWAP3 CALLDATALOAD PUSH2 0xDC5 JUMP JUMPDEST SWAP1 MLOAD SWAP1 ISZERO ISZERO DUP2 MSTORE RETURN JUMPDEST POP POP CALLVALUE PUSH2 0x3BE JUMPI DUP2 PUSH1 0x3 NOT CALLDATASIZE ADD SLT PUSH2 0x3BE JUMPI PUSH1 0x1 SLOAD SWAP1 MLOAD PUSH1 0x1 PUSH1 0x1 PUSH1 0xA0 SHL SUB SWAP1 SWAP2 AND DUP2 MSTORE PUSH1 0x20 SWAP1 RETURN JUMPDEST POP SWAP1 CALLVALUE PUSH2 0x144 JUMPI PUSH1 0x20 SWAP2 DUP3 PUSH1 0x3 NOT CALLDATASIZE ADD SLT PUSH2 0x40C JUMPI DUP1 CALLDATALOAD SWAP3 DUP4 DUP6 MSTORE PUSH1 0x5 DUP2 MSTORE PUSH1 0xFF DUP4 DUP7 KECCAK256 SLOAD AND SWAP4 PUSH1 0x1 DUP1 PUSH1 0xA0 SHL SUB PUSH1 0x2 SLOAD AND SWAP1 DUP2 ISZERO ISZERO SWAP4 DUP5 PUSH1 0x0 EQ PUSH2 0x583 JUMPI DUP6 MLOAD PUSH4 0x74CFEA5 PUSH1 0xE4 SHL DUP2 MSTORE DUP2 DUP2 ADD DUP4 SWAP1 MSTORE DUP5 DUP2 PUSH1 0x24 DUP2 DUP8 GAS STATICCALL SWAP1 DUP2 ISZERO PUSH2 0x579 JUMPI DUP10 SWAP2 PUSH2 0x55C JUMPI JUMPDEST POP SWAP5 JUMPDEST ISZERO PUSH2 0x550 JUMPI SWAP1 PUSH1 0x24 DUP5 SWAP3 DUP8 MLOAD SWAP5 DUP6 SWAP4 DUP5 SWAP3 PUSH4 0x41D20507 PUSH1 0xE0 SHL DUP5 MSTORE DUP4 ADD MSTORE GAS STATICCALL SWAP1 DUP2 ISZERO PUSH2 0x546 JUMPI PUSH1 0x60 SWAP7 SWAP2 PUSH2 0x519 JUMPI JUMPDEST POP SWAP2 JUMPDEST PUSH2 0x50B DUP5 MLOAD DUP1 SWAP7 PUSH2 0xCA9 JUMP JUMPDEST ISZERO ISZERO SWAP1 DUP5 ADD MSTORE ISZERO ISZERO SWAP1 DUP3 ADD MSTORE RETURN JUMPDEST PUSH2 0x539 SWAP2 POP DUP3 RETURNDATASIZE DUP5 GT PUSH2 0x53F JUMPI JUMPDEST PUSH2 0x531 DUP2 DUP4 PUSH2 0xCCC JUMP JUMPDEST DUP2 ADD SWAP1 PUSH2 0xD04 JUMP JUMPDEST CODESIZE PUSH2 0x4FC JUMP JUMPDEST POP RETURNDATASIZE PUSH2 0x527 JUMP JUMPDEST DUP5 MLOAD RETURNDATASIZE DUP9 DUP3 RETURNDATACOPY RETURNDATASIZE SWAP1 REVERT JUMPDEST POP POP POP PUSH1 0x60 SWAP5 SWAP2 PUSH2 0x4FF JUMP JUMPDEST PUSH2 0x573 SWAP2 POP DUP6 RETURNDATASIZE DUP8 GT PUSH2 0x53F JUMPI PUSH2 0x531 DUP2 DUP4 PUSH2 0xCCC JUMP JUMPDEST CODESIZE PUSH2 0x4C9 JUMP JUMPDEST DUP8 MLOAD RETURNDATASIZE DUP12 DUP3 RETURNDATACOPY RETURNDATASIZE SWAP1 REVERT JUMPDEST DUP8 SWAP5 PUSH2 0x4CC JUMP JUMPDEST POP SWAP1 CALLVALUE PUSH2 0x144 JUMPI DUP1 PUSH1 0x3 NOT CALLDATASIZE ADD SLT PUSH2 0x144 JUMPI DUP2 CALLDATALOAD SWAP2 PUSH2 0x5A7 PUSH2 0xC9A JUMP JUMPDEST PUSH2 0x5BB PUSH1 0x1 DUP1 PUSH1 0xA0 SHL SUB DUP7 SLOAD AND CALLER EQ PUSH2 0xD55 JUMP JUMPDEST ISZERO PUSH2 0x63B JUMPI PUSH1 0x3 JUMPDEST DUP4 DUP6 MSTORE PUSH1 0x5 PUSH1 0x20 MSTORE DUP3 DUP6 KECCAK256 SWAP2 DUP1 DUP3 LT ISZERO PUSH2 0x628 JUMPI POP SWAP2 PUSH1 0x20 SWAP2 PUSH32 0xA909728A788C844AEA3B8A365BF540CCD759C996D6658ADFB86FE9BC5EFD901F SWAP4 PUSH1 0xFF DUP1 NOT DUP4 SLOAD AND SWAP2 AND OR SWAP1 SSTORE DUP4 DUP6 MSTORE PUSH1 0x5 DUP3 MSTORE PUSH2 0x624 PUSH1 0xFF DUP3 DUP8 KECCAK256 SLOAD AND SWAP2 MLOAD DUP1 SWAP3 PUSH2 0xCA9 JUMP JUMPDEST LOG2 DUP1 RETURN JUMPDEST PUSH4 0x4E487B71 PUSH1 0xE0 SHL DUP7 MSTORE PUSH1 0x21 SWAP1 MSTORE PUSH1 0x24 DUP6 REVERT JUMPDEST PUSH1 0x1 PUSH2 0x5C3 JUMP JUMPDEST POP POP CALLVALUE PUSH2 0x3BE JUMPI DUP2 PUSH1 0x3 NOT CALLDATASIZE ADD SLT PUSH2 0x3BE JUMPI PUSH1 0x3 SLOAD SWAP1 MLOAD PUSH1 0x1 PUSH1 0x1 PUSH1 0xA0 SHL SUB SWAP1 SWAP2 AND DUP2 MSTORE PUSH1 0x20 SWAP1 RETURN JUMPDEST POP SWAP1 CALLVALUE PUSH2 0x144 JUMPI DUP1 PUSH1 0x3 NOT CALLDATASIZE ADD SLT PUSH2 0x144 JUMPI PUSH1 0x20 PUSH32 0x6B3B7D0D26EC99D080840DCA1323C7147D1868ADC66A4290AFB8101D7908320D SWAP2 PUSH2 0x6A9 PUSH2 0xC7F JUMP JUMPDEST SWAP1 PUSH2 0x6B2 PUSH2 0xC9A JUMP JUMPDEST DUP7 SLOAD SWAP1 SWAP3 PUSH1 0x1 PUSH1 0x1 PUSH1 0xA0 SHL SUB SWAP2 PUSH2 0x6CC SWAP1 DUP4 AND CALLER EQ PUSH2 0xD55 JUMP JUMPDEST AND SWAP5 PUSH2 0x6D9 DUP7 ISZERO ISZERO PUSH2 0xD8D JUMP JUMPDEST DUP6 DUP8 MSTORE DUP4 MSTORE DUP1 DUP7 KECCAK256 SWAP2 ISZERO ISZERO SWAP2 PUSH1 0xFF NOT DUP2 SLOAD AND PUSH1 0xFF DUP5 AND OR SWAP1 SSTORE MLOAD SWAP1 DUP2 MSTORE LOG2 DUP1 RETURN JUMPDEST DUP4 CALLVALUE PUSH2 0x1BD JUMPI PUSH1 0x20 CALLDATASIZE PUSH1 0x3 NOT ADD SLT PUSH2 0x1BD JUMPI PUSH2 0x714 PUSH2 0xC7F JUMP JUMPDEST DUP2 SLOAD PUSH1 0x1 PUSH1 0x1 PUSH1 0xA0 SHL SUB SWAP2 SWAP1 PUSH2 0x72D SWAP1 DUP4 AND CALLER EQ PUSH2 0xD55 JUMP JUMPDEST AND PUSH2 0x739 DUP2 ISZERO ISZERO PUSH2 0xD8D JUMP JUMPDEST PUSH1 0x3 DUP1 SLOAD PUSH1 0x1 PUSH1 0x1 PUSH1 0xA0 SHL SUB NOT AND DUP3 OR SWAP1 SSTORE PUSH32 0xBFE19833CB9CAB9B877ED6AB99E3D7F0696F290D375C8061F749B994D430B7D2 DUP3 DUP1 LOG2 DUP1 RETURN JUMPDEST DUP4 CALLVALUE PUSH2 0x1BD JUMPI PUSH1 0x20 CALLDATASIZE PUSH1 0x3 NOT ADD SLT PUSH2 0x1BD JUMPI PUSH2 0x78C PUSH2 0xC7F JUMP JUMPDEST DUP2 SLOAD PUSH1 0x1 PUSH1 0x1 PUSH1 0xA0 SHL SUB SWAP2 SWAP1 PUSH2 0x7A5 SWAP1 DUP4 AND CALLER EQ PUSH2 0xD55 JUMP JUMPDEST AND PUSH2 0x7B1 DUP2 ISZERO ISZERO PUSH2 0xD8D JUMP JUMPDEST PUSH1 0x2 DUP1 SLOAD PUSH1 0x1 PUSH1 0x1 PUSH1 0xA0 SHL SUB NOT AND DUP3 OR SWAP1 SSTORE PUSH32 0xF1A2C9A9B5D78F9E299A681CA01B9D840C85B836E7F3A9E100CDBC28F5D51B24 DUP3 DUP1 LOG2 DUP1 RETURN JUMPDEST POP POP CALLVALUE PUSH2 0x3BE JUMPI DUP2 PUSH1 0x3 NOT CALLDATASIZE ADD SLT PUSH2 0x3BE JUMPI PUSH1 0x20 SWAP1 PUSH1 0xFF PUSH1 0x3 SLOAD PUSH1 0xA0 SHR AND SWAP1 MLOAD SWAP1 DUP2 MSTORE RETURN JUMPDEST POP SWAP1 CALLVALUE PUSH2 0x144 JUMPI PUSH1 0x20 SWAP2 DUP3 PUSH1 0x3 NOT CALLDATASIZE ADD SLT PUSH2 0x40C JUMPI DUP1 CALLDATALOAD SWAP3 CALLER DUP6 MSTORE DUP2 DUP2 MSTORE PUSH1 0xFF SWAP2 DUP3 DUP5 DUP8 KECCAK256 SLOAD AND ISZERO PUSH2 0x9C3 JUMPI DUP5 DUP7 MSTORE PUSH1 0x5 DUP3 MSTORE DUP3 DUP5 DUP8 KECCAK256 SLOAD AND DUP2 DUP2 LT ISZERO PUSH2 0x9B0 JUMPI PUSH1 0x1 PUSH2 0x85C SWAP2 EQ PUSH2 0xD1C JUMP JUMPDEST DUP5 DUP7 MSTORE PUSH1 0x7 DUP3 MSTORE DUP4 DUP7 KECCAK256 CALLER DUP8 MSTORE DUP3 MSTORE DUP3 DUP5 DUP8 KECCAK256 SLOAD AND PUSH2 0x97C JUMPI DUP5 DUP7 MSTORE PUSH1 0x7 DUP3 MSTORE DUP4 DUP7 KECCAK256 CALLER DUP8 MSTORE DUP3 MSTORE DUP4 DUP7 KECCAK256 SWAP3 PUSH1 0xFF NOT SWAP4 PUSH1 0x1 DUP6 DUP3 SLOAD AND OR SWAP1 SSTORE DUP6 DUP8 MSTORE PUSH1 0x6 DUP4 MSTORE PUSH1 0x1 DUP2 DUP7 DUP10 KECCAK256 SLOAD AND ADD SWAP2 DUP2 DUP4 GT PUSH2 0x969 JUMPI POP DUP6 DUP8 MSTORE PUSH1 0x6 DUP4 MSTORE DUP1 DUP6 DUP9 KECCAK256 SWAP3 AND SWAP2 DUP3 DUP6 DUP3 SLOAD AND OR SWAP1 SSTORE DUP5 MLOAD DUP3 DUP2 MSTORE DUP7 PUSH32 0xAC29522FD73975C7CA3455B778F40CADCFB52A118D85CD586BB5DF887C6FBDB4 DUP6 CALLER SWAP4 LOG3 PUSH1 0x3 SLOAD PUSH1 0xA0 SHR AND GT ISZERO PUSH2 0x900 JUMPI DUP5 DUP1 RETURN JUMPDEST DUP4 SWAP3 PUSH32 0xA909728A788C844AEA3B8A365BF540CCD759C996D6658ADFB86FE9BC5EFD901F SWAP3 DUP5 DUP8 MSTORE PUSH1 0x5 DUP4 MSTORE PUSH1 0x2 DUP3 DUP9 KECCAK256 SWAP2 DUP3 SLOAD AND OR SWAP1 SSTORE MLOAD PUSH1 0x2 DUP2 MSTORE LOG2 PUSH32 0x3EC796BE1BE7D03BFF3A62B9FA594A60E947C1809BCED06D929F145308AE57CE DUP3 DUP1 LOG2 CODESIZE DUP1 DUP1 DUP1 DUP5 DUP1 RETURN JUMPDEST PUSH4 0x4E487B71 PUSH1 0xE0 SHL DUP9 MSTORE PUSH1 0x11 SWAP1 MSTORE PUSH1 0x24 DUP8 REVERT JUMPDEST PUSH1 0x64 SWAP2 DUP5 MLOAD SWAP2 PUSH3 0x461BCD PUSH1 0xE5 SHL DUP4 MSTORE DUP3 ADD MSTORE PUSH1 0x10 PUSH1 0x24 DUP3 ADD MSTORE PUSH16 0x1053149150511657D054141493D59151 PUSH1 0x82 SHL PUSH1 0x44 DUP3 ADD MSTORE REVERT JUMPDEST PUSH4 0x4E487B71 PUSH1 0xE0 SHL DUP8 MSTORE PUSH1 0x21 DUP3 MSTORE PUSH1 0x24 DUP8 REVERT JUMPDEST PUSH1 0x64 SWAP2 DUP5 MLOAD SWAP2 PUSH3 0x461BCD PUSH1 0xE5 SHL DUP4 MSTORE DUP3 ADD MSTORE PUSH1 0xD PUSH1 0x24 DUP3 ADD MSTORE PUSH13 0x2727AA2FAB20A624A220AA27A9 PUSH1 0x99 SHL PUSH1 0x44 DUP3 ADD MSTORE REVERT JUMPDEST POP CALLVALUE PUSH2 0x144 JUMPI PUSH1 0x20 DUP1 PUSH1 0x3 NOT CALLDATASIZE ADD SLT PUSH2 0x40C JUMPI PUSH1 0x3 SLOAD DUP3 CALLDATALOAD SWAP4 SWAP1 PUSH1 0x1 PUSH1 0x1 PUSH1 0xA0 SHL SUB SWAP1 DUP2 AND DUP1 ISZERO PUSH2 0xC22 JUMPI DUP3 MLOAD PUSH4 0x34DA6B7F PUSH1 0xE1 SHL DUP2 MSTORE CALLER DUP7 DUP3 ADD MSTORE PUSH1 0x24 SWAP5 SWAP3 SWAP2 DUP4 SWAP1 DUP3 SWAP1 DUP8 SWAP1 DUP3 SWAP1 GAS STATICCALL SWAP1 DUP2 ISZERO PUSH2 0xBC7 JUMPI DUP9 SWAP2 PUSH2 0xC05 JUMPI JUMPDEST POP ISZERO PUSH2 0xBD1 JUMPI DUP1 DUP3 DUP6 SWAP3 PUSH1 0x1 SLOAD AND DUP6 MLOAD SWAP4 DUP5 DUP1 SWAP3 PUSH4 0x31A9108F PUSH1 0xE1 SHL DUP3 MSTORE DUP12 DUP12 DUP4 ADD MSTORE GAS STATICCALL SWAP2 DUP3 ISZERO PUSH2 0xBC7 JUMPI DUP9 SWAP3 PUSH2 0xB8B JUMPI JUMPDEST POP CALLER SWAP2 AND SUB PUSH2 0xB59 JUMPI DUP5 DUP7 MSTORE PUSH1 0x5 DUP2 MSTORE PUSH1 0xFF DUP3 DUP8 KECCAK256 SLOAD AND DUP5 DUP2 LT ISZERO PUSH2 0xB47 JUMPI PUSH1 0xFF SWAP3 SWAP2 PUSH1 0x5 SWAP2 ISZERO PUSH2 0xB05 JUMPI JUMPDEST DUP7 DUP9 MSTORE MSTORE DUP6 KECCAK256 SLOAD AND SWAP2 DUP1 DUP4 LT ISZERO PUSH2 0xAF4 JUMPI POP POP PUSH1 0x1 PUSH2 0xACB SWAP2 EQ PUSH2 0xD1C JUMP JUMPDEST CALLER SWAP1 PUSH32 0x94E1FDFC3140811B5683CD2853EB14D53333C12BFA2B190C0143A67AA82D5C5C DUP4 DUP1 LOG3 DUP1 RETURN JUMPDEST PUSH4 0x4E487B71 PUSH1 0xE0 SHL DUP6 MSTORE PUSH1 0x21 SWAP1 MSTORE DUP4 REVERT JUMPDEST DUP7 DUP9 MSTORE DUP2 DUP2 MSTORE DUP3 DUP9 KECCAK256 PUSH1 0x1 DUP6 NOT DUP3 SLOAD AND OR SWAP1 SSTORE DUP7 PUSH32 0xA909728A788C844AEA3B8A365BF540CCD759C996D6658ADFB86FE9BC5EFD901F DUP3 DUP6 MLOAD PUSH1 0x1 DUP2 MSTORE LOG2 PUSH2 0xAAC JUMP JUMPDEST PUSH4 0x4E487B71 PUSH1 0xE0 SHL DUP8 MSTORE PUSH1 0x21 DUP6 MSTORE DUP4 DUP8 REVERT JUMPDEST SWAP1 MLOAD PUSH3 0x461BCD PUSH1 0xE5 SHL DUP2 MSTORE SWAP3 DUP4 ADD MSTORE PUSH1 0xE SWAP1 DUP3 ADD MSTORE PUSH14 0x2727AA2FA9A2A0AA2FA7ABA722A9 PUSH1 0x91 SHL PUSH1 0x44 DUP3 ADD MSTORE PUSH1 0x64 SWAP2 POP REVERT JUMPDEST SWAP1 SWAP2 POP DUP3 DUP2 DUP2 RETURNDATASIZE DUP4 GT PUSH2 0xBC0 JUMPI JUMPDEST PUSH2 0xBA3 DUP2 DUP4 PUSH2 0xCCC JUMP JUMPDEST DUP2 ADD SUB SLT PUSH2 0xBBC JUMPI MLOAD DUP2 DUP2 AND DUP2 SUB PUSH2 0xBBC JUMPI SWAP1 CODESIZE PUSH2 0xA80 JUMP JUMPDEST DUP8 DUP1 REVERT JUMPDEST POP RETURNDATASIZE PUSH2 0xB99 JUMP JUMPDEST DUP5 MLOAD RETURNDATASIZE DUP11 DUP3 RETURNDATACOPY RETURNDATASIZE SWAP1 REVERT JUMPDEST DUP3 MLOAD PUSH3 0x461BCD PUSH1 0xE5 SHL DUP2 MSTORE DUP1 DUP7 ADD DUP4 SWAP1 MSTORE PUSH1 0xF DUP2 DUP7 ADD MSTORE PUSH15 0x2727AFA1A7A729AA24AA2AAA24A7A7 PUSH1 0x89 SHL PUSH1 0x44 DUP3 ADD MSTORE PUSH1 0x64 SWAP1 REVERT JUMPDEST PUSH2 0xC1C SWAP2 POP DUP4 RETURNDATASIZE DUP6 GT PUSH2 0x53F JUMPI PUSH2 0x531 DUP2 DUP4 PUSH2 0xCCC JUMP JUMPDEST CODESIZE PUSH2 0xA4D JUMP JUMPDEST POP POP MLOAD PUSH3 0x461BCD PUSH1 0xE5 SHL DUP2 MSTORE SWAP2 DUP3 ADD MSTORE PUSH1 0x12 PUSH1 0x24 DUP3 ADD MSTORE PUSH18 0x1050D0D15415105390D157D393D517D4D155 PUSH1 0x72 SHL PUSH1 0x44 DUP3 ADD MSTORE PUSH1 0x64 SWAP2 POP REVERT JUMPDEST DUP5 SWAP1 CALLVALUE PUSH2 0x3BE JUMPI DUP2 PUSH1 0x3 NOT CALLDATASIZE ADD SLT PUSH2 0x3BE JUMPI PUSH1 0x2 SLOAD PUSH1 0x1 PUSH1 0x1 PUSH1 0xA0 SHL SUB AND DUP2 MSTORE PUSH1 0x20 SWAP1 RETURN JUMPDEST PUSH1 0x4 CALLDATALOAD SWAP1 PUSH1 0x1 PUSH1 0x1 PUSH1 0xA0 SHL SUB DUP3 AND DUP3 SUB PUSH2 0xC95 JUMPI JUMP JUMPDEST PUSH1 0x0 DUP1 REVERT JUMPDEST PUSH1 0x24 CALLDATALOAD SWAP1 DUP2 ISZERO ISZERO DUP3 SUB PUSH2 0xC95 JUMPI JUMP JUMPDEST SWAP1 PUSH1 0x4 DUP3 LT ISZERO PUSH2 0xCB6 JUMPI MSTORE JUMP JUMPDEST PUSH4 0x4E487B71 PUSH1 0xE0 SHL PUSH1 0x0 MSTORE PUSH1 0x21 PUSH1 0x4 MSTORE PUSH1 0x24 PUSH1 0x0 REVERT JUMPDEST SWAP1 PUSH1 0x1F DUP1 NOT SWAP2 ADD AND DUP2 ADD SWAP1 DUP2 LT PUSH8 0xFFFFFFFFFFFFFFFF DUP3 GT OR PUSH2 0xCEE JUMPI PUSH1 0x40 MSTORE JUMP JUMPDEST PUSH4 0x4E487B71 PUSH1 0xE0 SHL PUSH1 0x0 MSTORE PUSH1 0x41 PUSH1 0x4 MSTORE PUSH1 0x24 PUSH1 0x0 REVERT JUMPDEST SWAP1 DUP2 PUSH1 0x20 SWAP2 SUB SLT PUSH2 0xC95 JUMPI MLOAD DUP1 ISZERO ISZERO DUP2 SUB PUSH2 0xC95 JUMPI SWAP1 JUMP JUMPDEST ISZERO PUSH2 0xD23 JUMPI JUMP JUMPDEST PUSH1 0x40 MLOAD PUSH3 0x461BCD PUSH1 0xE5 SHL DUP2 MSTORE PUSH1 0x20 PUSH1 0x4 DUP3 ADD MSTORE PUSH1 0xA PUSH1 0x24 DUP3 ADD MSTORE PUSH10 0x1393D517D313D0D2D151 PUSH1 0xB2 SHL PUSH1 0x44 DUP3 ADD MSTORE PUSH1 0x64 SWAP1 REVERT JUMPDEST ISZERO PUSH2 0xD5C JUMPI JUMP JUMPDEST PUSH1 0x40 MLOAD PUSH3 0x461BCD PUSH1 0xE5 SHL DUP2 MSTORE PUSH1 0x20 PUSH1 0x4 DUP3 ADD MSTORE PUSH1 0x9 PUSH1 0x24 DUP3 ADD MSTORE PUSH9 0x2727AA2FA7ABA722A9 PUSH1 0xB9 SHL PUSH1 0x44 DUP3 ADD MSTORE PUSH1 0x64 SWAP1 REVERT JUMPDEST ISZERO PUSH2 0xD94 JUMPI JUMP JUMPDEST PUSH1 0x40 MLOAD PUSH3 0x461BCD PUSH1 0xE5 SHL DUP2 MSTORE PUSH1 0x20 PUSH1 0x4 DUP3 ADD MSTORE PUSH1 0x9 PUSH1 0x24 DUP3 ADD MSTORE PUSH9 0x2D22A927AFA0A22229 PUSH1 0xB9 SHL PUSH1 0x44 DUP3 ADD MSTORE PUSH1 0x64 SWAP1 REVERT JUMPDEST PUSH1 0x0 SWAP1 DUP1 DUP3 MSTORE PUSH1 0x20 SWAP1 PUSH1 0x5 DUP3 MSTORE PUSH1 0xFF PUSH1 0x40 DUP5 KECCAK256 SLOAD AND PUSH1 0x4 DUP2 LT ISZERO PUSH2 0xECB JUMPI PUSH1 0x2 SUB PUSH2 0xEC6 JUMPI PUSH1 0x2 SLOAD PUSH1 0x1 PUSH1 0x1 PUSH1 0xA0 SHL SUB AND SWAP1 DUP2 PUSH2 0xE06 JUMPI JUMPDEST POP POP POP POP PUSH1 0x1 SWAP1 JUMP JUMPDEST PUSH1 0x40 MLOAD PUSH4 0x41D20507 PUSH1 0xE0 SHL DUP2 MSTORE PUSH1 0x4 DUP2 ADD DUP3 SWAP1 MSTORE DUP4 DUP2 PUSH1 0x24 DUP2 DUP7 GAS STATICCALL SWAP1 DUP2 ISZERO PUSH2 0xEBB JUMPI DUP6 SWAP2 PUSH2 0xE9E JUMPI JUMPDEST POP PUSH2 0xE98 JUMPI DUP3 SWAP1 PUSH1 0x24 PUSH1 0x40 MLOAD DUP1 SWAP5 DUP2 SWAP4 PUSH4 0x74CFEA5 PUSH1 0xE4 SHL DUP4 MSTORE PUSH1 0x4 DUP4 ADD MSTORE GAS STATICCALL SWAP2 DUP3 ISZERO PUSH2 0xE8D JUMPI DUP4 SWAP3 PUSH2 0xE70 JUMPI JUMPDEST POP POP PUSH2 0xE6D JUMPI DUP1 DUP1 DUP1 PUSH2 0xDFD JUMP JUMPDEST SWAP1 JUMP JUMPDEST PUSH2 0xE86 SWAP3 POP DUP1 RETURNDATASIZE LT PUSH2 0x53F JUMPI PUSH2 0x531 DUP2 DUP4 PUSH2 0xCCC JUMP JUMPDEST CODESIZE DUP1 PUSH2 0xE5F JUMP JUMPDEST PUSH1 0x40 MLOAD RETURNDATASIZE DUP6 DUP3 RETURNDATACOPY RETURNDATASIZE SWAP1 REVERT JUMPDEST POP POP POP SWAP1 JUMP JUMPDEST PUSH2 0xEB5 SWAP2 POP DUP5 RETURNDATASIZE DUP7 GT PUSH2 0x53F JUMPI PUSH2 0x531 DUP2 DUP4 PUSH2 0xCCC JUMP JUMPDEST CODESIZE PUSH2 0xE30 JUMP JUMPDEST PUSH1 0x40 MLOAD RETURNDATASIZE DUP8 DUP3 RETURNDATACOPY RETURNDATASIZE SWAP1 REVERT JUMPDEST POP POP SWAP1 JUMP JUMPDEST PUSH4 0x4E487B71 PUSH1 0xE0 SHL DUP5 MSTORE PUSH1 0x21 PUSH1 0x4 MSTORE PUSH1 0x24 DUP5 REVERT INVALID LOG2 PUSH5 0x6970667358 0x22 SLT KECCAK256 MSTORE SGT SSTORE 0xC0 EXTCODEHASH 0x26 SIGNEXTEND 0xA6 0xDC 0x25 DUP1 0xED PUSH1 0x8D 0xB8 SHR SWAP4 0xF9 PUSH5 0xF0D53C43CB BALANCE PUSH6 0x24FBEB9607B1 PUSH5 0x736F6C6343 STOP ADDMOD XOR STOP CALLER "},"methodIdentifiers":{"acceptance()":"6d736689","approvalsCount(uint256)":"abaf742a","approveActivation(uint256)":"0ce109a2","approvedBy(uint256,address)":"85667f1c","court()":"00971a30","isActive(uint256)":"82afd23b","isValidator(address)":"facd743b","owner()":"8da5cb5b","requestActivation(uint256)":"08dd1738","resetApprovals(uint256)":"93f36aca","seat()":"7bf6df91","setAcceptanceRegistry(address)":"2681cb71","setLocalBanned(uint256,bool)":"7291c0d9","setSeatSBT(address)":"9d8f9738","setSupremeCourt(address)":"25af5356","setThreshold(uint8)":"e5a98603","setValidator(address,bool)":"4623c91d","statusOf(uint256)":"ad35efd4","statusWithCourt(uint256)":"7bba6c0e","thresholdK()":"1d238411","transferOwnership(address)":"f2fde38b"}}}}}