{"contracts/ConstitutionAcceptanceRegistry.sol":{"ConstitutionAcceptanceRegistry":{"abi":[{"inputs":[{"internalType":"bytes32","name":"_constitutionHash","type":"bytes32"},{"internalType":"bytes32","name":"_versionHash","type":"bytes32"}],"stateMutability":"nonpayable","type":"constructor"},{"anonymous":false,"inputs":[{"indexed":true,"internalType":"address","name":"user","type":"address"},{"indexed":true,"internalType":"uint256","name":"seatId","type":"uint256"},{"indexed":true,"internalType":"bytes32","name":"constitutionHash","type":"bytes32"},{"indexed":false,"internalType":"bytes32","name":"versionHash","type":"bytes32"},{"indexed":false,"internalType":"uint64","name":"acceptedAt","type":"uint64"}],"name":"ConstitutionAccepted","type":"event"},{"anonymous":false,"inputs":[{"indexed":true,"internalType":"bytes32","name":"constitutionHash","type":"bytes32"},{"indexed":true,"internalType":"bytes32","name":"versionHash","type":"bytes32"}],"name":"ConstitutionSet","type":"event"},{"anonymous":false,"inputs":[{"indexed":true,"internalType":"address","name":"oldOwner","type":"address"},{"indexed":true,"internalType":"address","name":"newOwner","type":"address"}],"name":"OwnerChanged","type":"event"},{"inputs":[],"name":"EIP712_VERSION","outputs":[{"internalType":"string","name":"","type":"string"}],"stateMutability":"view","type":"function"},{"inputs":[],"name":"NAME","outputs":[{"internalType":"string","name":"","type":"string"}],"stateMutability":"view","type":"function"},{"inputs":[{"internalType":"uint256","name":"seatId","type":"uint256"}],"name":"acceptDirect","outputs":[],"stateMutability":"nonpayable","type":"function"},{"inputs":[{"internalType":"address","name":"user","type":"address"},{"internalType":"uint256","name":"seatId","type":"uint256"},{"internalType":"uint256","name":"deadline","type":"uint256"},{"internalType":"uint8","name":"v","type":"uint8"},{"internalType":"bytes32","name":"r","type":"bytes32"},{"internalType":"bytes32","name":"s","type":"bytes32"}],"name":"acceptWithSig","outputs":[],"stateMutability":"nonpayable","type":"function"},{"inputs":[{"internalType":"address","name":"user","type":"address"},{"internalType":"uint256","name":"seatId","type":"uint256"},{"internalType":"bytes32","name":"_constitutionHash","type":"bytes32"},{"internalType":"bytes32","name":"_versionHash","type":"bytes32"},{"internalType":"uint256","name":"nonce","type":"uint256"},{"internalType":"uint256","name":"deadline","type":"uint256"}],"name":"acceptanceDigest","outputs":[{"internalType":"bytes32","name":"","type":"bytes32"}],"stateMutability":"view","type":"function"},{"inputs":[{"internalType":"address","name":"","type":"address"}],"name":"acceptanceOf","outputs":[{"internalType":"uint64","name":"acceptedAt","type":"uint64"},{"internalType":"bytes32","name":"constitutionHash","type":"bytes32"},{"internalType":"bytes32","name":"versionHash","type":"bytes32"}],"stateMutability":"view","type":"function"},{"inputs":[{"internalType":"uint256","name":"","type":"uint256"}],"name":"acceptanceOfSeat","outputs":[{"internalType":"uint64","name":"acceptedAt","type":"uint64"},{"internalType":"bytes32","name":"constitutionHash","type":"bytes32"},{"internalType":"bytes32","name":"versionHash","type":"bytes32"}],"stateMutability":"view","type":"function"},{"inputs":[],"name":"constitutionHash","outputs":[{"internalType":"bytes32","name":"","type":"bytes32"}],"stateMutability":"view","type":"function"},{"inputs":[],"name":"domainSeparator","outputs":[{"internalType":"bytes32","name":"","type":"bytes32"}],"stateMutability":"view","type":"function"},{"inputs":[{"internalType":"address","name":"user","type":"address"}],"name":"hasAccepted","outputs":[{"internalType":"bool","name":"","type":"bool"}],"stateMutability":"view","type":"function"},{"inputs":[{"internalType":"uint256","name":"seatId","type":"uint256"}],"name":"hasAcceptedSeat","outputs":[{"internalType":"bool","name":"","type":"bool"}],"stateMutability":"view","type":"function"},{"inputs":[{"internalType":"address","name":"","type":"address"}],"name":"nonces","outputs":[{"internalType":"uint256","name":"","type":"uint256"}],"stateMutability":"view","type":"function"},{"inputs":[],"name":"owner","outputs":[{"internalType":"address","name":"","type":"address"}],"stateMutability":"view","type":"function"},{"inputs":[{"internalType":"bytes32","name":"_constitutionHash","type":"bytes32"},{"internalType":"bytes32","name":"_versionHash","type":"bytes32"}],"name":"setConstitution","outputs":[],"stateMutability":"nonpayable","type":"function"},{"inputs":[{"internalType":"address","name":"newOwner","type":"address"}],"name":"transferOwnership","outputs":[],"stateMutability":"nonpayable","type":"function"},{"inputs":[],"name":"versionHash","outputs":[{"internalType":"bytes32","name":"","type":"bytes32"}],"stateMutability":"view","type":"function"}],"evm":{"bytecode":{"linkReferences":{},"object":"60803461009257601f610ae938819003918201601f19168301916001600160401b0383118484101761009757808492604094855283398101031261009257602081519101513360018060a01b031960005416176000558160015580600255604051917f277656689352aa78d61489ab0182c5a512fbc2073ea1d16f476040e91c45665f600080a3610a3b90816100ae8239f35b600080fd5b634e487b7160e01b600052604160045260246000fdfe608060408181526004918236101561001657600080fd5b600092833560e01c918263152b5c0f14610662575081634c1973af146106285781636921d741146104af57816369b4d6fe1461047257816372d7e356146104275781637b374f82146103cd5781637ecebe001461039557816389b533cd146103145781638da5cb5b146102ec5781639e957174146102c4578163a3f4df7e1461026f578163c7d93fd414610250578163eb6ffd20146101e0578163eccec5a8146101a3578163f2fde38b146100fb575063f698da25146100d557600080fd5b346100f757816003193601126100f7576020906100f0610826565b9051908152f35b5080fd5b90503461019f57602036600319011261019f5761011661067e565b8354916001600160a01b03808416926101303385146107ee565b1693841561017057505082907fb532073b38c83145e3e5135377a08bf9aab55bc0fd7c1179cd4fb995d2a5159c8580a36001600160a01b03191617815580f35b906020606492519162461bcd60e51b835282015260096024820152682d22a927afa0a2222960b91b6044820152fd5b8280fd5b5050346100f757816003193601126100f75780516101dc916101c4826106cb565b60018252603160f81b602083015251918291826106e7565b0390f35b5050346100f75760203660031901126100f7579081906001600160a01b0361020661067e565b168152600360205220906101dc67ffffffffffffffff835416916002600185015494015490519384938460409194939267ffffffffffffffff606083019616825260208201520152565b5050346100f757816003193601126100f7576020906001549051908152f35b5050346100f757816003193601126100f75780516101dc91610290826106cb565b601d82527f414c54414e20436f6e737469747574696f6e20416363657074616e6365000000602083015251918291826106e7565b8390346100f75760203660031901126100f7576102e99060015460025491353361091b565b80f35b5050346100f757816003193601126100f757905490516001600160a01b039091168152602090f35b90503461019f57602036600319011261019f576020928183923582528452209080805161034081610699565b67ffffffffffffffff84541690818152600260018601549586888401520154928391015215159283610389575b508261037d575b50519015158152f35b60025414915038610374565b6001541492503861036d565b5050346100f75760203660031901126100f75760209181906001600160a01b036103bd61067e565b1681526005845220549051908152f35b9190503461019f573660031901126100f75735602435906103f860018060a01b0384541633146107ee565b80600155816002557f277656689352aa78d61489ab0182c5a512fbc2073ea1d16f476040e91c45665f8380a380f35b90503461019f57602036600319011261019f578035835260209081529181902080546001820154600290920154925167ffffffffffffffff9091168152928301526040820152606090f35b5050346100f75760203660031901126100f75760209181906001600160a01b0361049a61067e565b16815260038452209080805161034081610699565b905082346106255760c0366003190112610625576104cb61067e565b6024356044359160643560ff8116809103610621576001600160a01b038281169182156105f2578542116105c1579186979891602061052898608088966001549b8c9b8a6002549e8f908a8852600589528b8820549c8d93610730565b908751918252848201526084358782015260a435606082015282805260015afa156105b75781908951160361058a576001830180931161057757876102e998995052600560205287205561091b565b634e487b7160e01b885260118952602488fd5b815162461bcd60e51b81526020818b015260076024820152664241445f53494760c81b6044820152606490fd5b82513d8a823e3d90fd5b885162461bcd60e51b81526020818a0152600b60248201526a14d251d7d156141254915160aa1b6044820152606490fd5b885162461bcd60e51b81526020818a015260096024820152682d22a927afaaa9a2a960b91b6044820152606490fd5b8480fd5b80fd5b5050346100f75760c03660031901126100f7576020906100f061064961067e565b60a4359060843590606435906044359060243590610730565b8490346100f757816003193601126100f7576020906002548152f35b600435906001600160a01b038216820361069457565b600080fd5b6060810190811067ffffffffffffffff8211176106b557604052565b634e487b7160e01b600052604160045260246000fd5b6040810190811067ffffffffffffffff8211176106b557604052565b6020808252825181830181905290939260005b82811061071c57505060409293506000838284010152601f8019910116010190565b8181018601518482016040015285016106fa565b9391949290946040519560208701957fe20cf6e255f7220020e90f94f56f370cfec5973d0366438bd48c3e6c6fead3da875260018060a01b031660408801526060870152608086015260a085015260c084015260e083015260e0825261010082019167ffffffffffffffff92818110848211176106b5576040525190206107b5610826565b9160405191602083019361190160f01b855260228401526042830152604282526080820190828210908211176106b55760405251902090565b156107f557565b60405162461bcd60e51b81526020600482015260096024820152682727aa2fa7aba722a960b91b6044820152606490fd5b7f414c54414e20436f6e737469747574696f6e20416363657074616e63650000006020604051610855816106cb565b601d81520152603160f81b602060405161086e816106cb565b60018152015260405160208101907f8b73c3c69bb8fe3d512ecc4cf759cc79239f7b179b0ffacaa9a75d522b39400f82527f9b0c3f60de9d3a57474b6830ecaa3f96458c623afa6c1f4af57846212985f53a60408201527fc89efdaa54c0f20c7adf612882df0950f5a951637e0307cdcb4c672f298b8bc660608201524660808201523060a082015260a0815260c0810181811067ffffffffffffffff8211176106b55760405251902090565b9091927fbcd0b384fef7c143643f59967eac7747a3aebb65a8e9560e1af39e0d79e4584c9067ffffffffffffffff9081421660409283519061095c82610699565b8282526020820191898352600286820198868a5260018060a01b03169889600052600360205283886000209351169467ffffffffffffffff19958685541617845551600184015551910155876109bc575b505082519182526020820152a4565b6002908551926109cb84610699565b84845260208401908b8252878501928784528b600052600460205288600020955116908554161784555160018401555191015538806109ad56fea264697066735822122042fd5907a10b022c9e28bed79cdeba7dd14875a92e192a6076d10f9bda8122e664736f6c63430008180033","opcodes":"PUSH1 0x80 CALLVALUE PUSH2 0x92 JUMPI PUSH1 0x1F PUSH2 0xAE9 CODESIZE DUP2 SWAP1 SUB SWAP2 DUP3 ADD PUSH1 0x1F NOT AND DUP4 ADD SWAP2 PUSH1 0x1 PUSH1 0x1 PUSH1 0x40 SHL SUB DUP4 GT DUP5 DUP5 LT OR PUSH2 0x97 JUMPI DUP1 DUP5 SWAP3 PUSH1 0x40 SWAP5 DUP6 MSTORE DUP4 CODECOPY DUP2 ADD SUB SLT PUSH2 0x92 JUMPI PUSH1 0x20 DUP2 MLOAD SWAP2 ADD MLOAD CALLER PUSH1 0x1 DUP1 PUSH1 0xA0 SHL SUB NOT PUSH1 0x0 SLOAD AND OR PUSH1 0x0 SSTORE DUP2 PUSH1 0x1 SSTORE DUP1 PUSH1 0x2 SSTORE PUSH1 0x40 MLOAD SWAP2 PUSH32 0x277656689352AA78D61489AB0182C5A512FBC2073EA1D16F476040E91C45665F PUSH1 0x0 DUP1 LOG3 PUSH2 0xA3B SWAP1 DUP2 PUSH2 0xAE DUP3 CODECOPY RETURN JUMPDEST PUSH1 0x0 DUP1 REVERT JUMPDEST PUSH4 0x4E487B71 PUSH1 0xE0 SHL PUSH1 0x0 MSTORE PUSH1 0x41 PUSH1 0x4 MSTORE PUSH1 0x24 PUSH1 0x0 REVERT INVALID PUSH1 0x80 PUSH1 0x40 DUP2 DUP2 MSTORE PUSH1 0x4 SWAP2 DUP3 CALLDATASIZE LT ISZERO PUSH2 0x16 JUMPI PUSH1 0x0 DUP1 REVERT JUMPDEST PUSH1 0x0 SWAP3 DUP4 CALLDATALOAD PUSH1 0xE0 SHR SWAP2 DUP3 PUSH4 0x152B5C0F EQ PUSH2 0x662 JUMPI POP DUP2 PUSH4 0x4C1973AF EQ PUSH2 0x628 JUMPI DUP2 PUSH4 0x6921D741 EQ PUSH2 0x4AF JUMPI DUP2 PUSH4 0x69B4D6FE EQ PUSH2 0x472 JUMPI DUP2 PUSH4 0x72D7E356 EQ PUSH2 0x427 JUMPI DUP2 PUSH4 0x7B374F82 EQ PUSH2 0x3CD JUMPI DUP2 PUSH4 0x7ECEBE00 EQ PUSH2 0x395 JUMPI DUP2 PUSH4 0x89B533CD EQ PUSH2 0x314 JUMPI DUP2 PUSH4 0x8DA5CB5B EQ PUSH2 0x2EC JUMPI DUP2 PUSH4 0x9E957174 EQ PUSH2 0x2C4 JUMPI DUP2 PUSH4 0xA3F4DF7E EQ PUSH2 0x26F JUMPI DUP2 PUSH4 0xC7D93FD4 EQ PUSH2 0x250 JUMPI DUP2 PUSH4 0xEB6FFD20 EQ PUSH2 0x1E0 JUMPI DUP2 PUSH4 0xECCEC5A8 EQ PUSH2 0x1A3 JUMPI DUP2 PUSH4 0xF2FDE38B EQ PUSH2 0xFB JUMPI POP PUSH4 0xF698DA25 EQ PUSH2 0xD5 JUMPI PUSH1 0x0 DUP1 REVERT JUMPDEST CALLVALUE PUSH2 0xF7 JUMPI DUP2 PUSH1 0x3 NOT CALLDATASIZE ADD SLT PUSH2 0xF7 JUMPI PUSH1 0x20 SWAP1 PUSH2 0xF0 PUSH2 0x826 JUMP JUMPDEST SWAP1 MLOAD SWAP1 DUP2 MSTORE RETURN JUMPDEST POP DUP1 REVERT JUMPDEST SWAP1 POP CALLVALUE PUSH2 0x19F JUMPI PUSH1 0x20 CALLDATASIZE PUSH1 0x3 NOT ADD SLT PUSH2 0x19F JUMPI PUSH2 0x116 PUSH2 0x67E JUMP JUMPDEST DUP4 SLOAD SWAP2 PUSH1 0x1 PUSH1 0x1 PUSH1 0xA0 SHL SUB DUP1 DUP5 AND SWAP3 PUSH2 0x130 CALLER DUP6 EQ PUSH2 0x7EE JUMP JUMPDEST AND SWAP4 DUP5 ISZERO PUSH2 0x170 JUMPI POP POP DUP3 SWAP1 PUSH32 0xB532073B38C83145E3E5135377A08BF9AAB55BC0FD7C1179CD4FB995D2A5159C DUP6 DUP1 LOG3 PUSH1 0x1 PUSH1 0x1 PUSH1 0xA0 SHL SUB NOT AND OR DUP2 SSTORE DUP1 RETURN JUMPDEST SWAP1 PUSH1 0x20 PUSH1 0x64 SWAP3 MLOAD SWAP2 PUSH3 0x461BCD PUSH1 0xE5 SHL DUP4 MSTORE DUP3 ADD MSTORE PUSH1 0x9 PUSH1 0x24 DUP3 ADD MSTORE PUSH9 0x2D22A927AFA0A22229 PUSH1 0xB9 SHL PUSH1 0x44 DUP3 ADD MSTORE REVERT JUMPDEST DUP3 DUP1 REVERT JUMPDEST POP POP CALLVALUE PUSH2 0xF7 JUMPI DUP2 PUSH1 0x3 NOT CALLDATASIZE ADD SLT PUSH2 0xF7 JUMPI DUP1 MLOAD PUSH2 0x1DC SWAP2 PUSH2 0x1C4 DUP3 PUSH2 0x6CB JUMP JUMPDEST PUSH1 0x1 DUP3 MSTORE PUSH1 0x31 PUSH1 0xF8 SHL PUSH1 0x20 DUP4 ADD MSTORE MLOAD SWAP2 DUP3 SWAP2 DUP3 PUSH2 0x6E7 JUMP JUMPDEST SUB SWAP1 RETURN JUMPDEST POP POP CALLVALUE PUSH2 0xF7 JUMPI PUSH1 0x20 CALLDATASIZE PUSH1 0x3 NOT ADD SLT PUSH2 0xF7 JUMPI SWAP1 DUP2 SWAP1 PUSH1 0x1 PUSH1 0x1 PUSH1 0xA0 SHL SUB PUSH2 0x206 PUSH2 0x67E JUMP JUMPDEST AND DUP2 MSTORE PUSH1 0x3 PUSH1 0x20 MSTORE KECCAK256 SWAP1 PUSH2 0x1DC PUSH8 0xFFFFFFFFFFFFFFFF DUP4 SLOAD AND SWAP2 PUSH1 0x2 PUSH1 0x1 DUP6 ADD SLOAD SWAP5 ADD SLOAD SWAP1 MLOAD SWAP4 DUP5 SWAP4 DUP5 PUSH1 0x40 SWAP2 SWAP5 SWAP4 SWAP3 PUSH8 0xFFFFFFFFFFFFFFFF PUSH1 0x60 DUP4 ADD SWAP7 AND DUP3 MSTORE PUSH1 0x20 DUP3 ADD MSTORE ADD MSTORE JUMP JUMPDEST POP POP CALLVALUE PUSH2 0xF7 JUMPI DUP2 PUSH1 0x3 NOT CALLDATASIZE ADD SLT PUSH2 0xF7 JUMPI PUSH1 0x20 SWAP1 PUSH1 0x1 SLOAD SWAP1 MLOAD SWAP1 DUP2 MSTORE RETURN JUMPDEST POP POP CALLVALUE PUSH2 0xF7 JUMPI DUP2 PUSH1 0x3 NOT CALLDATASIZE ADD SLT PUSH2 0xF7 JUMPI DUP1 MLOAD PUSH2 0x1DC SWAP2 PUSH2 0x290 DUP3 PUSH2 0x6CB JUMP JUMPDEST PUSH1 0x1D DUP3 MSTORE PUSH32 0x414C54414E20436F6E737469747574696F6E20416363657074616E6365000000 PUSH1 0x20 DUP4 ADD MSTORE MLOAD SWAP2 DUP3 SWAP2 DUP3 PUSH2 0x6E7 JUMP JUMPDEST DUP4 SWAP1 CALLVALUE PUSH2 0xF7 JUMPI PUSH1 0x20 CALLDATASIZE PUSH1 0x3 NOT ADD SLT PUSH2 0xF7 JUMPI PUSH2 0x2E9 SWAP1 PUSH1 0x1 SLOAD PUSH1 0x2 SLOAD SWAP2 CALLDATALOAD CALLER PUSH2 0x91B JUMP JUMPDEST DUP1 RETURN JUMPDEST POP POP CALLVALUE PUSH2 0xF7 JUMPI DUP2 PUSH1 0x3 NOT CALLDATASIZE ADD SLT PUSH2 0xF7 JUMPI SWAP1 SLOAD SWAP1 MLOAD PUSH1 0x1 PUSH1 0x1 PUSH1 0xA0 SHL SUB SWAP1 SWAP2 AND DUP2 MSTORE PUSH1 0x20 SWAP1 RETURN JUMPDEST SWAP1 POP CALLVALUE PUSH2 0x19F JUMPI PUSH1 0x20 CALLDATASIZE PUSH1 0x3 NOT ADD SLT PUSH2 0x19F JUMPI PUSH1 0x20 SWAP3 DUP2 DUP4 SWAP3 CALLDATALOAD DUP3 MSTORE DUP5 MSTORE KECCAK256 SWAP1 DUP1 DUP1 MLOAD PUSH2 0x340 DUP2 PUSH2 0x699 JUMP JUMPDEST PUSH8 0xFFFFFFFFFFFFFFFF DUP5 SLOAD AND SWAP1 DUP2 DUP2 MSTORE PUSH1 0x2 PUSH1 0x1 DUP7 ADD SLOAD SWAP6 DUP7 DUP9 DUP5 ADD MSTORE ADD SLOAD SWAP3 DUP4 SWAP2 ADD MSTORE ISZERO ISZERO SWAP3 DUP4 PUSH2 0x389 JUMPI JUMPDEST POP DUP3 PUSH2 0x37D JUMPI JUMPDEST POP MLOAD SWAP1 ISZERO ISZERO DUP2 MSTORE RETURN JUMPDEST PUSH1 0x2 SLOAD EQ SWAP2 POP CODESIZE PUSH2 0x374 JUMP JUMPDEST PUSH1 0x1 SLOAD EQ SWAP3 POP CODESIZE PUSH2 0x36D JUMP JUMPDEST POP POP CALLVALUE PUSH2 0xF7 JUMPI PUSH1 0x20 CALLDATASIZE PUSH1 0x3 NOT ADD SLT PUSH2 0xF7 JUMPI PUSH1 0x20 SWAP2 DUP2 SWAP1 PUSH1 0x1 PUSH1 0x1 PUSH1 0xA0 SHL SUB PUSH2 0x3BD PUSH2 0x67E JUMP JUMPDEST AND DUP2 MSTORE PUSH1 0x5 DUP5 MSTORE KECCAK256 SLOAD SWAP1 MLOAD SWAP1 DUP2 MSTORE RETURN JUMPDEST SWAP2 SWAP1 POP CALLVALUE PUSH2 0x19F JUMPI CALLDATASIZE PUSH1 0x3 NOT ADD SLT PUSH2 0xF7 JUMPI CALLDATALOAD PUSH1 0x24 CALLDATALOAD SWAP1 PUSH2 0x3F8 PUSH1 0x1 DUP1 PUSH1 0xA0 SHL SUB DUP5 SLOAD AND CALLER EQ PUSH2 0x7EE JUMP JUMPDEST DUP1 PUSH1 0x1 SSTORE DUP2 PUSH1 0x2 SSTORE PUSH32 0x277656689352AA78D61489AB0182C5A512FBC2073EA1D16F476040E91C45665F DUP4 DUP1 LOG3 DUP1 RETURN JUMPDEST SWAP1 POP CALLVALUE PUSH2 0x19F JUMPI PUSH1 0x20 CALLDATASIZE PUSH1 0x3 NOT ADD SLT PUSH2 0x19F JUMPI DUP1 CALLDATALOAD DUP4 MSTORE PUSH1 0x20 SWAP1 DUP2 MSTORE SWAP2 DUP2 SWAP1 KECCAK256 DUP1 SLOAD PUSH1 0x1 DUP3 ADD SLOAD PUSH1 0x2 SWAP1 SWAP3 ADD SLOAD SWAP3 MLOAD PUSH8 0xFFFFFFFFFFFFFFFF SWAP1 SWAP2 AND DUP2 MSTORE SWAP3 DUP4 ADD MSTORE PUSH1 0x40 DUP3 ADD MSTORE PUSH1 0x60 SWAP1 RETURN JUMPDEST POP POP CALLVALUE PUSH2 0xF7 JUMPI PUSH1 0x20 CALLDATASIZE PUSH1 0x3 NOT ADD SLT PUSH2 0xF7 JUMPI PUSH1 0x20 SWAP2 DUP2 SWAP1 PUSH1 0x1 PUSH1 0x1 PUSH1 0xA0 SHL SUB PUSH2 0x49A PUSH2 0x67E JUMP JUMPDEST AND DUP2 MSTORE PUSH1 0x3 DUP5 MSTORE KECCAK256 SWAP1 DUP1 DUP1 MLOAD PUSH2 0x340 DUP2 PUSH2 0x699 JUMP JUMPDEST SWAP1 POP DUP3 CALLVALUE PUSH2 0x625 JUMPI PUSH1 0xC0 CALLDATASIZE PUSH1 0x3 NOT ADD SLT PUSH2 0x625 JUMPI PUSH2 0x4CB PUSH2 0x67E JUMP JUMPDEST PUSH1 0x24 CALLDATALOAD PUSH1 0x44 CALLDATALOAD SWAP2 PUSH1 0x64 CALLDATALOAD PUSH1 0xFF DUP2 AND DUP1 SWAP2 SUB PUSH2 0x621 JUMPI PUSH1 0x1 PUSH1 0x1 PUSH1 0xA0 SHL SUB DUP3 DUP2 AND SWAP2 DUP3 ISZERO PUSH2 0x5F2 JUMPI DUP6 TIMESTAMP GT PUSH2 0x5C1 JUMPI SWAP2 DUP7 SWAP8 SWAP9 SWAP2 PUSH1 0x20 PUSH2 0x528 SWAP9 PUSH1 0x80 DUP9 SWAP7 PUSH1 0x1 SLOAD SWAP12 DUP13 SWAP12 DUP11 PUSH1 0x2 SLOAD SWAP15 DUP16 SWAP1 DUP11 DUP9 MSTORE PUSH1 0x5 DUP10 MSTORE DUP12 DUP9 KECCAK256 SLOAD SWAP13 DUP14 SWAP4 PUSH2 0x730 JUMP JUMPDEST SWAP1 DUP8 MLOAD SWAP2 DUP3 MSTORE DUP5 DUP3 ADD MSTORE PUSH1 0x84 CALLDATALOAD DUP8 DUP3 ADD MSTORE PUSH1 0xA4 CALLDATALOAD PUSH1 0x60 DUP3 ADD MSTORE DUP3 DUP1 MSTORE PUSH1 0x1 GAS STATICCALL ISZERO PUSH2 0x5B7 JUMPI DUP2 SWAP1 DUP10 MLOAD AND SUB PUSH2 0x58A JUMPI PUSH1 0x1 DUP4 ADD DUP1 SWAP4 GT PUSH2 0x577 JUMPI DUP8 PUSH2 0x2E9 SWAP9 SWAP10 POP MSTORE PUSH1 0x5 PUSH1 0x20 MSTORE DUP8 KECCAK256 SSTORE PUSH2 0x91B JUMP JUMPDEST PUSH4 0x4E487B71 PUSH1 0xE0 SHL DUP9 MSTORE PUSH1 0x11 DUP10 MSTORE PUSH1 0x24 DUP9 REVERT JUMPDEST DUP2 MLOAD PUSH3 0x461BCD PUSH1 0xE5 SHL DUP2 MSTORE PUSH1 0x20 DUP2 DUP12 ADD MSTORE PUSH1 0x7 PUSH1 0x24 DUP3 ADD MSTORE PUSH7 0x4241445F534947 PUSH1 0xC8 SHL PUSH1 0x44 DUP3 ADD MSTORE PUSH1 0x64 SWAP1 REVERT JUMPDEST DUP3 MLOAD RETURNDATASIZE DUP11 DUP3 RETURNDATACOPY RETURNDATASIZE SWAP1 REVERT JUMPDEST DUP9 MLOAD PUSH3 0x461BCD PUSH1 0xE5 SHL DUP2 MSTORE PUSH1 0x20 DUP2 DUP11 ADD MSTORE PUSH1 0xB PUSH1 0x24 DUP3 ADD MSTORE PUSH11 0x14D251D7D1561412549151 PUSH1 0xAA SHL PUSH1 0x44 DUP3 ADD MSTORE PUSH1 0x64 SWAP1 REVERT JUMPDEST DUP9 MLOAD PUSH3 0x461BCD PUSH1 0xE5 SHL DUP2 MSTORE PUSH1 0x20 DUP2 DUP11 ADD MSTORE PUSH1 0x9 PUSH1 0x24 DUP3 ADD MSTORE PUSH9 0x2D22A927AFAAA9A2A9 PUSH1 0xB9 SHL PUSH1 0x44 DUP3 ADD MSTORE PUSH1 0x64 SWAP1 REVERT JUMPDEST DUP5 DUP1 REVERT JUMPDEST DUP1 REVERT JUMPDEST POP POP CALLVALUE PUSH2 0xF7 JUMPI PUSH1 0xC0 CALLDATASIZE PUSH1 0x3 NOT ADD SLT PUSH2 0xF7 JUMPI PUSH1 0x20 SWAP1 PUSH2 0xF0 PUSH2 0x649 PUSH2 0x67E JUMP JUMPDEST PUSH1 0xA4 CALLDATALOAD SWAP1 PUSH1 0x84 CALLDATALOAD SWAP1 PUSH1 0x64 CALLDATALOAD SWAP1 PUSH1 0x44 CALLDATALOAD SWAP1 PUSH1 0x24 CALLDATALOAD SWAP1 PUSH2 0x730 JUMP JUMPDEST DUP5 SWAP1 CALLVALUE PUSH2 0xF7 JUMPI DUP2 PUSH1 0x3 NOT CALLDATASIZE ADD SLT PUSH2 0xF7 JUMPI PUSH1 0x20 SWAP1 PUSH1 0x2 SLOAD DUP2 MSTORE RETURN JUMPDEST PUSH1 0x4 CALLDATALOAD SWAP1 PUSH1 0x1 PUSH1 0x1 PUSH1 0xA0 SHL SUB DUP3 AND DUP3 SUB PUSH2 0x694 JUMPI JUMP JUMPDEST PUSH1 0x0 DUP1 REVERT JUMPDEST PUSH1 0x60 DUP2 ADD SWAP1 DUP2 LT PUSH8 0xFFFFFFFFFFFFFFFF DUP3 GT OR PUSH2 0x6B5 JUMPI PUSH1 0x40 MSTORE JUMP JUMPDEST PUSH4 0x4E487B71 PUSH1 0xE0 SHL PUSH1 0x0 MSTORE PUSH1 0x41 PUSH1 0x4 MSTORE PUSH1 0x24 PUSH1 0x0 REVERT JUMPDEST PUSH1 0x40 DUP2 ADD SWAP1 DUP2 LT PUSH8 0xFFFFFFFFFFFFFFFF DUP3 GT OR PUSH2 0x6B5 JUMPI PUSH1 0x40 MSTORE JUMP JUMPDEST PUSH1 0x20 DUP1 DUP3 MSTORE DUP3 MLOAD DUP2 DUP4 ADD DUP2 SWAP1 MSTORE SWAP1 SWAP4 SWAP3 PUSH1 0x0 JUMPDEST DUP3 DUP2 LT PUSH2 0x71C JUMPI POP POP PUSH1 0x40 SWAP3 SWAP4 POP PUSH1 0x0 DUP4 DUP3 DUP5 ADD ADD MSTORE PUSH1 0x1F DUP1 NOT SWAP2 ADD AND ADD ADD SWAP1 JUMP JUMPDEST DUP2 DUP2 ADD DUP7 ADD MLOAD DUP5 DUP3 ADD PUSH1 0x40 ADD MSTORE DUP6 ADD PUSH2 0x6FA JUMP JUMPDEST SWAP4 SWAP2 SWAP5 SWAP3 SWAP1 SWAP5 PUSH1 0x40 MLOAD SWAP6 PUSH1 0x20 DUP8 ADD SWAP6 PUSH32 0xE20CF6E255F7220020E90F94F56F370CFEC5973D0366438BD48C3E6C6FEAD3DA DUP8 MSTORE PUSH1 0x1 DUP1 PUSH1 0xA0 SHL SUB AND PUSH1 0x40 DUP9 ADD MSTORE PUSH1 0x60 DUP8 ADD MSTORE PUSH1 0x80 DUP7 ADD MSTORE PUSH1 0xA0 DUP6 ADD MSTORE PUSH1 0xC0 DUP5 ADD MSTORE PUSH1 0xE0 DUP4 ADD MSTORE PUSH1 0xE0 DUP3 MSTORE PUSH2 0x100 DUP3 ADD SWAP2 PUSH8 0xFFFFFFFFFFFFFFFF SWAP3 DUP2 DUP2 LT DUP5 DUP3 GT OR PUSH2 0x6B5 JUMPI PUSH1 0x40 MSTORE MLOAD SWAP1 KECCAK256 PUSH2 0x7B5 PUSH2 0x826 JUMP JUMPDEST SWAP2 PUSH1 0x40 MLOAD SWAP2 PUSH1 0x20 DUP4 ADD SWAP4 PUSH2 0x1901 PUSH1 0xF0 SHL DUP6 MSTORE PUSH1 0x22 DUP5 ADD MSTORE PUSH1 0x42 DUP4 ADD MSTORE PUSH1 0x42 DUP3 MSTORE PUSH1 0x80 DUP3 ADD SWAP1 DUP3 DUP3 LT SWAP1 DUP3 GT OR PUSH2 0x6B5 JUMPI PUSH1 0x40 MSTORE MLOAD SWAP1 KECCAK256 SWAP1 JUMP JUMPDEST ISZERO PUSH2 0x7F5 JUMPI JUMP JUMPDEST PUSH1 0x40 MLOAD PUSH3 0x461BCD PUSH1 0xE5 SHL DUP2 MSTORE PUSH1 0x20 PUSH1 0x4 DUP3 ADD MSTORE PUSH1 0x9 PUSH1 0x24 DUP3 ADD MSTORE PUSH9 0x2727AA2FA7ABA722A9 PUSH1 0xB9 SHL PUSH1 0x44 DUP3 ADD MSTORE PUSH1 0x64 SWAP1 REVERT JUMPDEST PUSH32 0x414C54414E20436F6E737469747574696F6E20416363657074616E6365000000 PUSH1 0x20 PUSH1 0x40 MLOAD PUSH2 0x855 DUP2 PUSH2 0x6CB JUMP JUMPDEST PUSH1 0x1D DUP2 MSTORE ADD MSTORE PUSH1 0x31 PUSH1 0xF8 SHL PUSH1 0x20 PUSH1 0x40 MLOAD PUSH2 0x86E DUP2 PUSH2 0x6CB JUMP JUMPDEST PUSH1 0x1 DUP2 MSTORE ADD MSTORE PUSH1 0x40 MLOAD PUSH1 0x20 DUP2 ADD SWAP1 PUSH32 0x8B73C3C69BB8FE3D512ECC4CF759CC79239F7B179B0FFACAA9A75D522B39400F DUP3 MSTORE PUSH32 0x9B0C3F60DE9D3A57474B6830ECAA3F96458C623AFA6C1F4AF57846212985F53A PUSH1 0x40 DUP3 ADD MSTORE PUSH32 0xC89EFDAA54C0F20C7ADF612882DF0950F5A951637E0307CDCB4C672F298B8BC6 PUSH1 0x60 DUP3 ADD MSTORE CHAINID PUSH1 0x80 DUP3 ADD MSTORE ADDRESS PUSH1 0xA0 DUP3 ADD MSTORE PUSH1 0xA0 DUP2 MSTORE PUSH1 0xC0 DUP2 ADD DUP2 DUP2 LT PUSH8 0xFFFFFFFFFFFFFFFF DUP3 GT OR PUSH2 0x6B5 JUMPI PUSH1 0x40 MSTORE MLOAD SWAP1 KECCAK256 SWAP1 JUMP JUMPDEST SWAP1 SWAP2 SWAP3 PUSH32 0xBCD0B384FEF7C143643F59967EAC7747A3AEBB65A8E9560E1AF39E0D79E4584C SWAP1 PUSH8 0xFFFFFFFFFFFFFFFF SWAP1 DUP2 TIMESTAMP AND PUSH1 0x40 SWAP3 DUP4 MLOAD SWAP1 PUSH2 0x95C DUP3 PUSH2 0x699 JUMP JUMPDEST DUP3 DUP3 MSTORE PUSH1 0x20 DUP3 ADD SWAP2 DUP10 DUP4 MSTORE PUSH1 0x2 DUP7 DUP3 ADD SWAP9 DUP7 DUP11 MSTORE PUSH1 0x1 DUP1 PUSH1 0xA0 SHL SUB AND SWAP9 DUP10 PUSH1 0x0 MSTORE PUSH1 0x3 PUSH1 0x20 MSTORE DUP4 DUP9 PUSH1 0x0 KECCAK256 SWAP4 MLOAD AND SWAP5 PUSH8 0xFFFFFFFFFFFFFFFF NOT SWAP6 DUP7 DUP6 SLOAD AND OR DUP5 SSTORE MLOAD PUSH1 0x1 DUP5 ADD SSTORE MLOAD SWAP2 ADD SSTORE DUP8 PUSH2 0x9BC JUMPI JUMPDEST POP POP DUP3 MLOAD SWAP2 DUP3 MSTORE PUSH1 0x20 DUP3 ADD MSTORE LOG4 JUMP JUMPDEST PUSH1 0x2 SWAP1 DUP6 MLOAD SWAP3 PUSH2 0x9CB DUP5 PUSH2 0x699 JUMP JUMPDEST DUP5 DUP5 MSTORE PUSH1 0x20 DUP5 ADD SWAP1 DUP12 DUP3 MSTORE DUP8 DUP6 ADD SWAP3 DUP8 DUP5 MSTORE DUP12 PUSH1 0x0 MSTORE PUSH1 0x4 PUSH1 0x20 MSTORE DUP9 PUSH1 0x0 KECCAK256 SWAP6 MLOAD AND SWAP1 DUP6 SLOAD AND OR DUP5 SSTORE MLOAD PUSH1 0x1 DUP5 ADD SSTORE MLOAD SWAP2 ADD SSTORE CODESIZE DUP1 PUSH2 0x9AD JUMP INVALID LOG2 PUSH5 0x6970667358 0x22 SLT KECCAK256 TIMESTAMP REVERT MSIZE SMOD LOG1 SIGNEXTEND MUL 0x2C SWAP15 0x28 0xBE 0xD7 SWAP13 0xDE 0xBA PUSH30 0xD14875A92E192A6076D10F9BDA8122E664736F6C63430008180033000000 "},"methodIdentifiers":{"EIP712_VERSION()":"eccec5a8","NAME()":"a3f4df7e","acceptDirect(uint256)":"9e957174","acceptWithSig(address,uint256,uint256,uint8,bytes32,bytes32)":"6921d741","acceptanceDigest(address,uint256,bytes32,bytes32,uint256,uint256)":"4c1973af","acceptanceOf(address)":"eb6ffd20","acceptanceOfSeat(uint256)":"72d7e356","constitutionHash()":"c7d93fd4","domainSeparator()":"f698da25","hasAccepted(address)":"69b4d6fe","hasAcceptedSeat(uint256)":"89b533cd","nonces(address)":"7ecebe00","owner()":"8da5cb5b","setConstitution(bytes32,bytes32)":"7b374f82","transferOwnership(address)":"f2fde38b","versionHash()":"152b5c0f"}}}}}