{"contracts/PaymentRouter.sol":{"PaymentRouter":{"abi":[{"inputs":[{"internalType":"address","name":"ledgerAddr","type":"address"},{"internalType":"address","name":"feeAddr","type":"address"},{"internalType":"address","name":"taxAddr","type":"address"}],"stateMutability":"nonpayable","type":"constructor"},{"anonymous":false,"inputs":[{"indexed":true,"internalType":"address","name":"oldOwner","type":"address"},{"indexed":true,"internalType":"address","name":"newOwner","type":"address"}],"name":"OwnerChanged","type":"event"},{"anonymous":false,"inputs":[{"indexed":true,"internalType":"bytes32","name":"payer","type":"bytes32"},{"indexed":true,"internalType":"bytes32","name":"payee","type":"bytes32"},{"indexed":true,"internalType":"bytes32","name":"republicKey","type":"bytes32"},{"indexed":false,"internalType":"address","name":"asset","type":"address"},{"indexed":false,"internalType":"uint256","name":"amount","type":"uint256"},{"indexed":false,"internalType":"uint256","name":"fee","type":"uint256"},{"indexed":false,"internalType":"uint256","name":"republicTax","type":"uint256"},{"indexed":false,"internalType":"uint256","name":"confedTax","type":"uint256"},{"indexed":false,"internalType":"uint256","name":"netAmount","type":"uint256"},{"indexed":false,"internalType":"bytes32","name":"memo","type":"bytes32"}],"name":"Routed","type":"event"},{"anonymous":false,"inputs":[{"indexed":true,"internalType":"address","name":"ledger","type":"address"},{"indexed":true,"internalType":"address","name":"feeEngine","type":"address"},{"indexed":true,"internalType":"address","name":"taxEngine","type":"address"}],"name":"Wired","type":"event"},{"inputs":[],"name":"feeEngine","outputs":[{"internalType":"contract IFeeEngine","name":"","type":"address"}],"stateMutability":"view","type":"function"},{"inputs":[],"name":"ledger","outputs":[{"internalType":"contract ILedger","name":"","type":"address"}],"stateMutability":"view","type":"function"},{"inputs":[],"name":"owner","outputs":[{"internalType":"address","name":"","type":"address"}],"stateMutability":"view","type":"function"},{"inputs":[{"internalType":"bytes32","name":"payerAccountId","type":"bytes32"},{"internalType":"bytes32","name":"payeeAccountId","type":"bytes32"},{"internalType":"bytes32","name":"republicKey","type":"bytes32"},{"internalType":"address","name":"asset","type":"address"},{"internalType":"uint256","name":"amount","type":"uint256"},{"internalType":"bytes32","name":"memo","type":"bytes32"}],"name":"pay","outputs":[{"internalType":"uint256","name":"netAmount","type":"uint256"}],"stateMutability":"nonpayable","type":"function"},{"inputs":[],"name":"taxEngine","outputs":[{"internalType":"contract ITaxEngine","name":"","type":"address"}],"stateMutability":"view","type":"function"},{"inputs":[{"internalType":"address","name":"newOwner","type":"address"}],"name":"transferOwnership","outputs":[],"stateMutability":"nonpayable","type":"function"}],"evm":{"bytecode":{"linkReferences":{},"object":"6080346100d457601f61064d38819003918201601f19168301916001600160401b038311848410176100d9578084926060946040528339810103126100d457610047816100ef565b61005f6040610058602085016100ef565b93016100ef565b60018060a01b0319913383600054161760005560018060a01b038080921694858560015416176001551691828460025416176002551680926003541617600355604051927f909da40a476e699e9b1275419501ea894c9f1e09165e866d3ddfbd0148c40d76600080a461054990816101048239f35b600080fd5b634e487b7160e01b600052604160045260246000fd5b51906001600160a01b03821682036100d45756fe608080604052600436101561001357600080fd5b60003560e01c90816356397c35146104c0575080636bf22168146104975780638da5cb5b1461046e578063e31b309114610445578063f2fde38b146103725763fdad1e6a1461006157600080fd5b346102b95760c03660031901126102b9576024356064356001600160a01b03811690036102b95760009060018060a01b036002541660405190634eb84dcd60e11b8252600435600483015260018060a01b03606435166024830152608435604483015260a43560648301528160848160209687945af19081156102ad57600091610345575b5060018060a01b03600354169160408051809462b7964760e01b82528160008161014860a435608435606435604435600435600487019192608093969594919660a08401978452602084015260018060a01b0316604083015260608201520152565b03925af180156102ad5760009360009161030d575b506101718161016c8686610506565b610506565b9384608435106102d457608435858103116102be578460843503610201575b6040519360018060a01b0360643516855260843587860152604085015260608401526080830152826084350360a083015260a43560c0830152604435917fc703e6589b2a197b8e9f6459a95e6afde6e71d4af20db80dfba4663b8d13569060e060043592a460405190608435038152f35b6001546001600160a01b0316803b156102b95760006040518092632240a9ad60e01b825281838161026a60a4358d608435036064358d600435600487019192608093969594919660a08401978452602084015260018060a01b0316604083015260608201520152565b03925af180156102ad5761027f575b50610190565b67ffffffffffffffff81116102975760405238610279565b634e487b7160e01b600052604160045260246000fd5b6040513d6000823e3d90fd5b600080fd5b634e487b7160e01b600052601160045260246000fd5b60405162461bcd60e51b8152600481018790526011602482015270414d4f554e545f4c545f4348415247455360781b6044820152606490fd5b9350506040833d60401161033d575b81610329604093836104e4565b810103126102b9578383519301513861015d565b3d915061031c565b90508281813d831161036b575b61035c81836104e4565b810103126102b95751386100e6565b503d610352565b346102b95760203660031901126102b9576004356001600160a01b03818116918290036102b9576000549081168033036104145782156103e35782907fb532073b38c83145e3e5135377a08bf9aab55bc0fd7c1179cd4fb995d2a5159c600080a36001600160a01b03191617600055005b60405162461bcd60e51b81526020600482015260096024820152682d22a927afa0a2222960b91b6044820152606490fd5b60405162461bcd60e51b81526020600482015260096024820152682727aa2fa7aba722a960b91b6044820152606490fd5b346102b95760003660031901126102b9576002546040516001600160a01b039091168152602090f35b346102b95760003660031901126102b9576000546040516001600160a01b039091168152602090f35b346102b95760003660031901126102b9576003546040516001600160a01b039091168152602090f35b346102b95760003660031901126102b9576001546001600160a01b03168152602090f35b90601f8019910116810190811067ffffffffffffffff82111761029757604052565b919082018092116102be5756fea26469706673582212201a5e541e3847176f75381c2f4866b4bb5a4e0c62444da591db44e9cb7b13225464736f6c63430008180033","opcodes":"PUSH1 0x80 CALLVALUE PUSH2 0xD4 JUMPI PUSH1 0x1F PUSH2 0x64D CODESIZE DUP2 SWAP1 SUB SWAP2 DUP3 ADD PUSH1 0x1F NOT AND DUP4 ADD SWAP2 PUSH1 0x1 PUSH1 0x1 PUSH1 0x40 SHL SUB DUP4 GT DUP5 DUP5 LT OR PUSH2 0xD9 JUMPI DUP1 DUP5 SWAP3 PUSH1 0x60 SWAP5 PUSH1 0x40 MSTORE DUP4 CODECOPY DUP2 ADD SUB SLT PUSH2 0xD4 JUMPI PUSH2 0x47 DUP2 PUSH2 0xEF JUMP JUMPDEST PUSH2 0x5F PUSH1 0x40 PUSH2 0x58 PUSH1 0x20 DUP6 ADD PUSH2 0xEF JUMP JUMPDEST SWAP4 ADD PUSH2 0xEF JUMP JUMPDEST PUSH1 0x1 DUP1 PUSH1 0xA0 SHL SUB NOT SWAP2 CALLER DUP4 PUSH1 0x0 SLOAD AND OR PUSH1 0x0 SSTORE PUSH1 0x1 DUP1 PUSH1 0xA0 SHL SUB DUP1 DUP1 SWAP3 AND SWAP5 DUP6 DUP6 PUSH1 0x1 SLOAD AND OR PUSH1 0x1 SSTORE AND SWAP2 DUP3 DUP5 PUSH1 0x2 SLOAD AND OR PUSH1 0x2 SSTORE AND DUP1 SWAP3 PUSH1 0x3 SLOAD AND OR PUSH1 0x3 SSTORE PUSH1 0x40 MLOAD SWAP3 PUSH32 0x909DA40A476E699E9B1275419501EA894C9F1E09165E866D3DDFBD0148C40D76 PUSH1 0x0 DUP1 LOG4 PUSH2 0x549 SWAP1 DUP2 PUSH2 0x104 DUP3 CODECOPY RETURN JUMPDEST PUSH1 0x0 DUP1 REVERT JUMPDEST PUSH4 0x4E487B71 PUSH1 0xE0 SHL PUSH1 0x0 MSTORE PUSH1 0x41 PUSH1 0x4 MSTORE PUSH1 0x24 PUSH1 0x0 REVERT JUMPDEST MLOAD SWAP1 PUSH1 0x1 PUSH1 0x1 PUSH1 0xA0 SHL SUB DUP3 AND DUP3 SUB PUSH2 0xD4 JUMPI JUMP INVALID PUSH1 0x80 DUP1 PUSH1 0x40 MSTORE PUSH1 0x4 CALLDATASIZE LT ISZERO PUSH2 0x13 JUMPI PUSH1 0x0 DUP1 REVERT JUMPDEST PUSH1 0x0 CALLDATALOAD PUSH1 0xE0 SHR SWAP1 DUP2 PUSH4 0x56397C35 EQ PUSH2 0x4C0 JUMPI POP DUP1 PUSH4 0x6BF22168 EQ PUSH2 0x497 JUMPI DUP1 PUSH4 0x8DA5CB5B EQ PUSH2 0x46E JUMPI DUP1 PUSH4 0xE31B3091 EQ PUSH2 0x445 JUMPI DUP1 PUSH4 0xF2FDE38B EQ PUSH2 0x372 JUMPI PUSH4 0xFDAD1E6A EQ PUSH2 0x61 JUMPI PUSH1 0x0 DUP1 REVERT JUMPDEST CALLVALUE PUSH2 0x2B9 JUMPI PUSH1 0xC0 CALLDATASIZE PUSH1 0x3 NOT ADD SLT PUSH2 0x2B9 JUMPI PUSH1 0x24 CALLDATALOAD PUSH1 0x64 CALLDATALOAD PUSH1 0x1 PUSH1 0x1 PUSH1 0xA0 SHL SUB DUP2 AND SWAP1 SUB PUSH2 0x2B9 JUMPI PUSH1 0x0 SWAP1 PUSH1 0x1 DUP1 PUSH1 0xA0 SHL SUB PUSH1 0x2 SLOAD AND PUSH1 0x40 MLOAD SWAP1 PUSH4 0x4EB84DCD PUSH1 0xE1 SHL DUP3 MSTORE PUSH1 0x4 CALLDATALOAD PUSH1 0x4 DUP4 ADD MSTORE PUSH1 0x1 DUP1 PUSH1 0xA0 SHL SUB PUSH1 0x64 CALLDATALOAD AND PUSH1 0x24 DUP4 ADD MSTORE PUSH1 0x84 CALLDATALOAD PUSH1 0x44 DUP4 ADD MSTORE PUSH1 0xA4 CALLDATALOAD PUSH1 0x64 DUP4 ADD MSTORE DUP2 PUSH1 0x84 DUP2 PUSH1 0x20 SWAP7 DUP8 SWAP5 GAS CALL SWAP1 DUP2 ISZERO PUSH2 0x2AD JUMPI PUSH1 0x0 SWAP2 PUSH2 0x345 JUMPI JUMPDEST POP PUSH1 0x1 DUP1 PUSH1 0xA0 SHL SUB PUSH1 0x3 SLOAD AND SWAP2 PUSH1 0x40 DUP1 MLOAD DUP1 SWAP5 PUSH3 0xB79647 PUSH1 0xE0 SHL DUP3 MSTORE DUP2 PUSH1 0x0 DUP2 PUSH2 0x148 PUSH1 0xA4 CALLDATALOAD PUSH1 0x84 CALLDATALOAD PUSH1 0x64 CALLDATALOAD PUSH1 0x44 CALLDATALOAD PUSH1 0x4 CALLDATALOAD PUSH1 0x4 DUP8 ADD SWAP2 SWAP3 PUSH1 0x80 SWAP4 SWAP7 SWAP6 SWAP5 SWAP2 SWAP7 PUSH1 0xA0 DUP5 ADD SWAP8 DUP5 MSTORE PUSH1 0x20 DUP5 ADD MSTORE PUSH1 0x1 DUP1 PUSH1 0xA0 SHL SUB AND PUSH1 0x40 DUP4 ADD MSTORE PUSH1 0x60 DUP3 ADD MSTORE ADD MSTORE JUMP JUMPDEST SUB SWAP3 GAS CALL DUP1 ISZERO PUSH2 0x2AD JUMPI PUSH1 0x0 SWAP4 PUSH1 0x0 SWAP2 PUSH2 0x30D JUMPI JUMPDEST POP PUSH2 0x171 DUP2 PUSH2 0x16C DUP7 DUP7 PUSH2 0x506 JUMP JUMPDEST PUSH2 0x506 JUMP JUMPDEST SWAP4 DUP5 PUSH1 0x84 CALLDATALOAD LT PUSH2 0x2D4 JUMPI PUSH1 0x84 CALLDATALOAD DUP6 DUP2 SUB GT PUSH2 0x2BE JUMPI DUP5 PUSH1 0x84 CALLDATALOAD SUB PUSH2 0x201 JUMPI JUMPDEST PUSH1 0x40 MLOAD SWAP4 PUSH1 0x1 DUP1 PUSH1 0xA0 SHL SUB PUSH1 0x64 CALLDATALOAD AND DUP6 MSTORE PUSH1 0x84 CALLDATALOAD DUP8 DUP7 ADD MSTORE PUSH1 0x40 DUP6 ADD MSTORE PUSH1 0x60 DUP5 ADD MSTORE PUSH1 0x80 DUP4 ADD MSTORE DUP3 PUSH1 0x84 CALLDATALOAD SUB PUSH1 0xA0 DUP4 ADD MSTORE PUSH1 0xA4 CALLDATALOAD PUSH1 0xC0 DUP4 ADD MSTORE PUSH1 0x44 CALLDATALOAD SWAP2 PUSH32 0xC703E6589B2A197B8E9F6459A95E6AFDE6E71D4AF20DB80DFBA4663B8D135690 PUSH1 0xE0 PUSH1 0x4 CALLDATALOAD SWAP3 LOG4 PUSH1 0x40 MLOAD SWAP1 PUSH1 0x84 CALLDATALOAD SUB DUP2 MSTORE RETURN JUMPDEST PUSH1 0x1 SLOAD PUSH1 0x1 PUSH1 0x1 PUSH1 0xA0 SHL SUB AND DUP1 EXTCODESIZE ISZERO PUSH2 0x2B9 JUMPI PUSH1 0x0 PUSH1 0x40 MLOAD DUP1 SWAP3 PUSH4 0x2240A9AD PUSH1 0xE0 SHL DUP3 MSTORE DUP2 DUP4 DUP2 PUSH2 0x26A PUSH1 0xA4 CALLDATALOAD DUP14 PUSH1 0x84 CALLDATALOAD SUB PUSH1 0x64 CALLDATALOAD DUP14 PUSH1 0x4 CALLDATALOAD PUSH1 0x4 DUP8 ADD SWAP2 SWAP3 PUSH1 0x80 SWAP4 SWAP7 SWAP6 SWAP5 SWAP2 SWAP7 PUSH1 0xA0 DUP5 ADD SWAP8 DUP5 MSTORE PUSH1 0x20 DUP5 ADD MSTORE PUSH1 0x1 DUP1 PUSH1 0xA0 SHL SUB AND PUSH1 0x40 DUP4 ADD MSTORE PUSH1 0x60 DUP3 ADD MSTORE ADD MSTORE JUMP JUMPDEST SUB SWAP3 GAS CALL DUP1 ISZERO PUSH2 0x2AD JUMPI PUSH2 0x27F JUMPI JUMPDEST POP PUSH2 0x190 JUMP JUMPDEST PUSH8 0xFFFFFFFFFFFFFFFF DUP2 GT PUSH2 0x297 JUMPI PUSH1 0x40 MSTORE CODESIZE PUSH2 0x279 JUMP JUMPDEST PUSH4 0x4E487B71 PUSH1 0xE0 SHL PUSH1 0x0 MSTORE PUSH1 0x41 PUSH1 0x4 MSTORE PUSH1 0x24 PUSH1 0x0 REVERT JUMPDEST PUSH1 0x40 MLOAD RETURNDATASIZE PUSH1 0x0 DUP3 RETURNDATACOPY RETURNDATASIZE SWAP1 REVERT JUMPDEST PUSH1 0x0 DUP1 REVERT JUMPDEST PUSH4 0x4E487B71 PUSH1 0xE0 SHL PUSH1 0x0 MSTORE PUSH1 0x11 PUSH1 0x4 MSTORE PUSH1 0x24 PUSH1 0x0 REVERT JUMPDEST PUSH1 0x40 MLOAD PUSH3 0x461BCD PUSH1 0xE5 SHL DUP2 MSTORE PUSH1 0x4 DUP2 ADD DUP8 SWAP1 MSTORE PUSH1 0x11 PUSH1 0x24 DUP3 ADD MSTORE PUSH17 0x414D4F554E545F4C545F43484152474553 PUSH1 0x78 SHL PUSH1 0x44 DUP3 ADD MSTORE PUSH1 0x64 SWAP1 REVERT JUMPDEST SWAP4 POP POP PUSH1 0x40 DUP4 RETURNDATASIZE PUSH1 0x40 GT PUSH2 0x33D JUMPI JUMPDEST DUP2 PUSH2 0x329 PUSH1 0x40 SWAP4 DUP4 PUSH2 0x4E4 JUMP JUMPDEST DUP2 ADD SUB SLT PUSH2 0x2B9 JUMPI DUP4 DUP4 MLOAD SWAP4 ADD MLOAD CODESIZE PUSH2 0x15D JUMP JUMPDEST RETURNDATASIZE SWAP2 POP PUSH2 0x31C JUMP JUMPDEST SWAP1 POP DUP3 DUP2 DUP2 RETURNDATASIZE DUP4 GT PUSH2 0x36B JUMPI JUMPDEST PUSH2 0x35C DUP2 DUP4 PUSH2 0x4E4 JUMP JUMPDEST DUP2 ADD SUB SLT PUSH2 0x2B9 JUMPI MLOAD CODESIZE PUSH2 0xE6 JUMP JUMPDEST POP RETURNDATASIZE PUSH2 0x352 JUMP JUMPDEST CALLVALUE PUSH2 0x2B9 JUMPI PUSH1 0x20 CALLDATASIZE PUSH1 0x3 NOT ADD SLT PUSH2 0x2B9 JUMPI PUSH1 0x4 CALLDATALOAD PUSH1 0x1 PUSH1 0x1 PUSH1 0xA0 SHL SUB DUP2 DUP2 AND SWAP2 DUP3 SWAP1 SUB PUSH2 0x2B9 JUMPI PUSH1 0x0 SLOAD SWAP1 DUP2 AND DUP1 CALLER SUB PUSH2 0x414 JUMPI DUP3 ISZERO PUSH2 0x3E3 JUMPI DUP3 SWAP1 PUSH32 0xB532073B38C83145E3E5135377A08BF9AAB55BC0FD7C1179CD4FB995D2A5159C PUSH1 0x0 DUP1 LOG3 PUSH1 0x1 PUSH1 0x1 PUSH1 0xA0 SHL SUB NOT AND OR PUSH1 0x0 SSTORE STOP JUMPDEST PUSH1 0x40 MLOAD PUSH3 0x461BCD PUSH1 0xE5 SHL DUP2 MSTORE PUSH1 0x20 PUSH1 0x4 DUP3 ADD MSTORE PUSH1 0x9 PUSH1 0x24 DUP3 ADD MSTORE PUSH9 0x2D22A927AFA0A22229 PUSH1 0xB9 SHL PUSH1 0x44 DUP3 ADD MSTORE PUSH1 0x64 SWAP1 REVERT JUMPDEST PUSH1 0x40 MLOAD PUSH3 0x461BCD PUSH1 0xE5 SHL DUP2 MSTORE PUSH1 0x20 PUSH1 0x4 DUP3 ADD MSTORE PUSH1 0x9 PUSH1 0x24 DUP3 ADD MSTORE PUSH9 0x2727AA2FA7ABA722A9 PUSH1 0xB9 SHL PUSH1 0x44 DUP3 ADD MSTORE PUSH1 0x64 SWAP1 REVERT JUMPDEST CALLVALUE PUSH2 0x2B9 JUMPI PUSH1 0x0 CALLDATASIZE PUSH1 0x3 NOT ADD SLT PUSH2 0x2B9 JUMPI PUSH1 0x2 SLOAD PUSH1 0x40 MLOAD PUSH1 0x1 PUSH1 0x1 PUSH1 0xA0 SHL SUB SWAP1 SWAP2 AND DUP2 MSTORE PUSH1 0x20 SWAP1 RETURN JUMPDEST CALLVALUE PUSH2 0x2B9 JUMPI PUSH1 0x0 CALLDATASIZE PUSH1 0x3 NOT ADD SLT PUSH2 0x2B9 JUMPI PUSH1 0x0 SLOAD PUSH1 0x40 MLOAD PUSH1 0x1 PUSH1 0x1 PUSH1 0xA0 SHL SUB SWAP1 SWAP2 AND DUP2 MSTORE PUSH1 0x20 SWAP1 RETURN JUMPDEST CALLVALUE PUSH2 0x2B9 JUMPI PUSH1 0x0 CALLDATASIZE PUSH1 0x3 NOT ADD SLT PUSH2 0x2B9 JUMPI PUSH1 0x3 SLOAD PUSH1 0x40 MLOAD PUSH1 0x1 PUSH1 0x1 PUSH1 0xA0 SHL SUB SWAP1 SWAP2 AND DUP2 MSTORE PUSH1 0x20 SWAP1 RETURN JUMPDEST CALLVALUE PUSH2 0x2B9 JUMPI PUSH1 0x0 CALLDATASIZE PUSH1 0x3 NOT ADD SLT PUSH2 0x2B9 JUMPI PUSH1 0x1 SLOAD PUSH1 0x1 PUSH1 0x1 PUSH1 0xA0 SHL SUB AND DUP2 MSTORE PUSH1 0x20 SWAP1 RETURN JUMPDEST SWAP1 PUSH1 0x1F DUP1 NOT SWAP2 ADD AND DUP2 ADD SWAP1 DUP2 LT PUSH8 0xFFFFFFFFFFFFFFFF DUP3 GT OR PUSH2 0x297 JUMPI PUSH1 0x40 MSTORE JUMP JUMPDEST SWAP2 SWAP1 DUP3 ADD DUP1 SWAP3 GT PUSH2 0x2BE JUMPI JUMP INVALID LOG2 PUSH5 0x6970667358 0x22 SLT KECCAK256 BYTE MCOPY SLOAD 0x1E CODESIZE SELFBALANCE OR PUSH16 0x75381C2F4866B4BB5A4E0C62444DA591 0xDB PREVRANDAO 0xE9 0xCB PUSH28 0x13225464736F6C634300081800330000000000000000000000000000 "},"methodIdentifiers":{"feeEngine()":"e31b3091","ledger()":"56397c35","owner()":"8da5cb5b","pay(bytes32,bytes32,bytes32,address,uint256,bytes32)":"fdad1e6a","taxEngine()":"6bf22168","transferOwnership(address)":"f2fde38b"}}}}}