{
  "_format": "hh-sol-artifact-1",
  "contractName": "NotaryHub",
  "sourceName": "contracts/NotaryHub.sol",
  "abi": [
    {
      "inputs": [
        {
          "internalType": "address",
          "name": "structureRegistry_",
          "type": "address"
        },
        {
          "internalType": "address",
          "name": "docRegistry_",
          "type": "address"
        },
        {
          "internalType": "address",
          "name": "chairmanRegistry_",
          "type": "address"
        }
      ],
      "stateMutability": "nonpayable",
      "type": "constructor"
    },
    {
      "inputs": [],
      "name": "ChairmanRegistryNotSet",
      "type": "error"
    },
    {
      "inputs": [],
      "name": "InvalidCount",
      "type": "error"
    },
    {
      "inputs": [],
      "name": "NotActiveNotary",
      "type": "error"
    },
    {
      "inputs": [],
      "name": "NotOwner",
      "type": "error"
    },
    {
      "inputs": [],
      "name": "WrongNotaryGrade",
      "type": "error"
    },
    {
      "inputs": [],
      "name": "ZeroAddress",
      "type": "error"
    },
    {
      "anonymous": false,
      "inputs": [
        {
          "indexed": true,
          "internalType": "uint256",
          "name": "docId",
          "type": "uint256"
        },
        {
          "indexed": true,
          "internalType": "uint256",
          "name": "arbanId",
          "type": "uint256"
        },
        {
          "indexed": true,
          "internalType": "address",
          "name": "docAddress",
          "type": "address"
        },
        {
          "indexed": false,
          "internalType": "address",
          "name": "leader",
          "type": "address"
        },
        {
          "indexed": false,
          "internalType": "uint256",
          "name": "minSignatures",
          "type": "uint256"
        },
        {
          "indexed": false,
          "internalType": "bytes32",
          "name": "docHash",
          "type": "bytes32"
        }
      ],
      "name": "ArbanJoinDocIssued",
      "type": "event"
    },
    {
      "anonymous": false,
      "inputs": [
        {
          "indexed": true,
          "internalType": "uint256",
          "name": "docId",
          "type": "uint256"
        },
        {
          "indexed": true,
          "internalType": "uint256",
          "name": "arbanId",
          "type": "uint256"
        },
        {
          "indexed": true,
          "internalType": "address",
          "name": "docAddress",
          "type": "address"
        },
        {
          "indexed": false,
          "internalType": "address",
          "name": "newLeaderCitizenAccount",
          "type": "address"
        },
        {
          "indexed": false,
          "internalType": "uint256",
          "name": "minSignatures",
          "type": "uint256"
        },
        {
          "indexed": false,
          "internalType": "bytes32",
          "name": "docHash",
          "type": "bytes32"
        }
      ],
      "name": "ArbanLeaderAppointmentIssued",
      "type": "event"
    },
    {
      "anonymous": false,
      "inputs": [
        {
          "indexed": true,
          "internalType": "uint256",
          "name": "docId",
          "type": "uint256"
        },
        {
          "indexed": true,
          "internalType": "address",
          "name": "docAddress",
          "type": "address"
        },
        {
          "indexed": false,
          "internalType": "bytes32",
          "name": "docHash",
          "type": "bytes32"
        }
      ],
      "name": "ChairmanDocumentIssued",
      "type": "event"
    },
    {
      "anonymous": false,
      "inputs": [
        {
          "indexed": true,
          "internalType": "address",
          "name": "chairmanRegistry",
          "type": "address"
        }
      ],
      "name": "ChairmanRegistrySet",
      "type": "event"
    },
    {
      "anonymous": false,
      "inputs": [
        {
          "indexed": true,
          "internalType": "uint256",
          "name": "docId",
          "type": "uint256"
        },
        {
          "indexed": true,
          "internalType": "uint256",
          "name": "myanganId",
          "type": "uint256"
        },
        {
          "indexed": true,
          "internalType": "address",
          "name": "docAddress",
          "type": "address"
        },
        {
          "indexed": false,
          "internalType": "bytes32",
          "name": "docHash",
          "type": "bytes32"
        }
      ],
      "name": "MyanganDocumentIssued",
      "type": "event"
    },
    {
      "anonymous": false,
      "inputs": [
        {
          "indexed": true,
          "internalType": "uint256",
          "name": "docId",
          "type": "uint256"
        },
        {
          "indexed": true,
          "internalType": "uint256",
          "name": "myanganId",
          "type": "uint256"
        },
        {
          "indexed": true,
          "internalType": "address",
          "name": "docAddress",
          "type": "address"
        },
        {
          "indexed": false,
          "internalType": "address",
          "name": "newLeader",
          "type": "address"
        },
        {
          "indexed": false,
          "internalType": "bytes32",
          "name": "docHash",
          "type": "bytes32"
        }
      ],
      "name": "MyanganLeaderAppointmentIssued",
      "type": "event"
    },
    {
      "anonymous": false,
      "inputs": [
        {
          "indexed": true,
          "internalType": "address",
          "name": "notary",
          "type": "address"
        },
        {
          "indexed": false,
          "internalType": "enum NotaryHub.NotaryGrade",
          "name": "grade",
          "type": "uint8"
        },
        {
          "indexed": false,
          "internalType": "bool",
          "name": "active",
          "type": "bool"
        }
      ],
      "name": "NotarySet",
      "type": "event"
    },
    {
      "anonymous": false,
      "inputs": [
        {
          "indexed": true,
          "internalType": "address",
          "name": "newOwner",
          "type": "address"
        }
      ],
      "name": "OwnerSet",
      "type": "event"
    },
    {
      "anonymous": false,
      "inputs": [
        {
          "indexed": true,
          "internalType": "uint256",
          "name": "docId",
          "type": "uint256"
        },
        {
          "indexed": true,
          "internalType": "uint256",
          "name": "tumenId",
          "type": "uint256"
        },
        {
          "indexed": true,
          "internalType": "address",
          "name": "docAddress",
          "type": "address"
        },
        {
          "indexed": false,
          "internalType": "bytes32",
          "name": "docHash",
          "type": "bytes32"
        }
      ],
      "name": "TumenDocumentIssued",
      "type": "event"
    },
    {
      "anonymous": false,
      "inputs": [
        {
          "indexed": true,
          "internalType": "uint256",
          "name": "docId",
          "type": "uint256"
        },
        {
          "indexed": true,
          "internalType": "uint256",
          "name": "tumenId",
          "type": "uint256"
        },
        {
          "indexed": true,
          "internalType": "address",
          "name": "docAddress",
          "type": "address"
        },
        {
          "indexed": false,
          "internalType": "address",
          "name": "newLeader",
          "type": "address"
        },
        {
          "indexed": false,
          "internalType": "bytes32",
          "name": "docHash",
          "type": "bytes32"
        }
      ],
      "name": "TumenLeaderAppointmentIssued",
      "type": "event"
    },
    {
      "anonymous": false,
      "inputs": [
        {
          "indexed": true,
          "internalType": "uint256",
          "name": "docId",
          "type": "uint256"
        },
        {
          "indexed": true,
          "internalType": "uint256",
          "name": "zunId",
          "type": "uint256"
        },
        {
          "indexed": true,
          "internalType": "address",
          "name": "docAddress",
          "type": "address"
        },
        {
          "indexed": false,
          "internalType": "bytes32",
          "name": "docHash",
          "type": "bytes32"
        }
      ],
      "name": "ZunDocumentIssued",
      "type": "event"
    },
    {
      "anonymous": false,
      "inputs": [
        {
          "indexed": true,
          "internalType": "uint256",
          "name": "docId",
          "type": "uint256"
        },
        {
          "indexed": true,
          "internalType": "uint256",
          "name": "zunId",
          "type": "uint256"
        },
        {
          "indexed": true,
          "internalType": "address",
          "name": "docAddress",
          "type": "address"
        },
        {
          "indexed": false,
          "internalType": "address",
          "name": "newLeader",
          "type": "address"
        },
        {
          "indexed": false,
          "internalType": "bytes32",
          "name": "docHash",
          "type": "bytes32"
        }
      ],
      "name": "ZunLeaderAppointmentIssued",
      "type": "event"
    },
    {
      "inputs": [
        {
          "internalType": "address",
          "name": "",
          "type": "address"
        }
      ],
      "name": "active",
      "outputs": [
        {
          "internalType": "bool",
          "name": "",
          "type": "bool"
        }
      ],
      "stateMutability": "view",
      "type": "function"
    },
    {
      "inputs": [],
      "name": "chairmanRegistry",
      "outputs": [
        {
          "internalType": "address",
          "name": "",
          "type": "address"
        }
      ],
      "stateMutability": "view",
      "type": "function"
    },
    {
      "inputs": [],
      "name": "docRegistry",
      "outputs": [
        {
          "internalType": "contract DocumentRegistry",
          "name": "",
          "type": "address"
        }
      ],
      "stateMutability": "view",
      "type": "function"
    },
    {
      "inputs": [
        {
          "internalType": "address",
          "name": "arbanRegistry",
          "type": "address"
        },
        {
          "internalType": "address",
          "name": "citizenRegistry",
          "type": "address"
        },
        {
          "internalType": "uint256",
          "name": "arbanId",
          "type": "uint256"
        },
        {
          "internalType": "address",
          "name": "leaderCitizenAccount",
          "type": "address"
        },
        {
          "internalType": "uint256[]",
          "name": "seatIds",
          "type": "uint256[]"
        },
        {
          "internalType": "uint256",
          "name": "minSignatures",
          "type": "uint256"
        },
        {
          "internalType": "bytes32",
          "name": "docHash",
          "type": "bytes32"
        }
      ],
      "name": "issueArbanJoinDoc",
      "outputs": [
        {
          "internalType": "uint256",
          "name": "docId",
          "type": "uint256"
        },
        {
          "internalType": "address",
          "name": "docAddress",
          "type": "address"
        }
      ],
      "stateMutability": "nonpayable",
      "type": "function"
    },
    {
      "inputs": [
        {
          "internalType": "address",
          "name": "arbanRegistry",
          "type": "address"
        },
        {
          "internalType": "address",
          "name": "citizenRegistry",
          "type": "address"
        },
        {
          "internalType": "uint256",
          "name": "arbanId",
          "type": "uint256"
        },
        {
          "internalType": "address",
          "name": "newLeaderCitizenAccount",
          "type": "address"
        },
        {
          "internalType": "uint256",
          "name": "minSignatures",
          "type": "uint256"
        },
        {
          "internalType": "bytes32",
          "name": "docHash",
          "type": "bytes32"
        }
      ],
      "name": "issueArbanLeaderAppointment",
      "outputs": [
        {
          "internalType": "uint256",
          "name": "docId",
          "type": "uint256"
        },
        {
          "internalType": "address",
          "name": "docAddress",
          "type": "address"
        }
      ],
      "stateMutability": "nonpayable",
      "type": "function"
    },
    {
      "inputs": [
        {
          "internalType": "bytes32",
          "name": "docHash",
          "type": "bytes32"
        }
      ],
      "name": "issueChairmanResolution",
      "outputs": [
        {
          "internalType": "uint256",
          "name": "docId",
          "type": "uint256"
        },
        {
          "internalType": "address",
          "name": "docAddress",
          "type": "address"
        }
      ],
      "stateMutability": "nonpayable",
      "type": "function"
    },
    {
      "inputs": [
        {
          "internalType": "uint256",
          "name": "myanganId",
          "type": "uint256"
        },
        {
          "internalType": "address",
          "name": "newLeader",
          "type": "address"
        },
        {
          "internalType": "bytes32",
          "name": "docHash",
          "type": "bytes32"
        }
      ],
      "name": "issueMyanganLeaderAppointment",
      "outputs": [
        {
          "internalType": "uint256",
          "name": "docId",
          "type": "uint256"
        },
        {
          "internalType": "address",
          "name": "docAddress",
          "type": "address"
        }
      ],
      "stateMutability": "nonpayable",
      "type": "function"
    },
    {
      "inputs": [
        {
          "internalType": "uint256",
          "name": "myanganId",
          "type": "uint256"
        },
        {
          "internalType": "bytes32",
          "name": "docHash",
          "type": "bytes32"
        }
      ],
      "name": "issueMyanganResolution",
      "outputs": [
        {
          "internalType": "uint256",
          "name": "docId",
          "type": "uint256"
        },
        {
          "internalType": "address",
          "name": "docAddress",
          "type": "address"
        }
      ],
      "stateMutability": "nonpayable",
      "type": "function"
    },
    {
      "inputs": [
        {
          "internalType": "uint256",
          "name": "tumenId",
          "type": "uint256"
        },
        {
          "internalType": "address",
          "name": "newLeader",
          "type": "address"
        },
        {
          "internalType": "bytes32",
          "name": "docHash",
          "type": "bytes32"
        }
      ],
      "name": "issueTumenLeaderAppointment",
      "outputs": [
        {
          "internalType": "uint256",
          "name": "docId",
          "type": "uint256"
        },
        {
          "internalType": "address",
          "name": "docAddress",
          "type": "address"
        }
      ],
      "stateMutability": "nonpayable",
      "type": "function"
    },
    {
      "inputs": [
        {
          "internalType": "uint256",
          "name": "tumenId",
          "type": "uint256"
        },
        {
          "internalType": "bytes32",
          "name": "docHash",
          "type": "bytes32"
        }
      ],
      "name": "issueTumenResolution",
      "outputs": [
        {
          "internalType": "uint256",
          "name": "docId",
          "type": "uint256"
        },
        {
          "internalType": "address",
          "name": "docAddress",
          "type": "address"
        }
      ],
      "stateMutability": "nonpayable",
      "type": "function"
    },
    {
      "inputs": [
        {
          "internalType": "uint256",
          "name": "zunId",
          "type": "uint256"
        },
        {
          "internalType": "address",
          "name": "newLeader",
          "type": "address"
        },
        {
          "internalType": "bytes32",
          "name": "docHash",
          "type": "bytes32"
        }
      ],
      "name": "issueZunLeaderAppointment",
      "outputs": [
        {
          "internalType": "uint256",
          "name": "docId",
          "type": "uint256"
        },
        {
          "internalType": "address",
          "name": "docAddress",
          "type": "address"
        }
      ],
      "stateMutability": "nonpayable",
      "type": "function"
    },
    {
      "inputs": [
        {
          "internalType": "uint256",
          "name": "zunId",
          "type": "uint256"
        },
        {
          "internalType": "bytes32",
          "name": "docHash",
          "type": "bytes32"
        }
      ],
      "name": "issueZunResolution",
      "outputs": [
        {
          "internalType": "uint256",
          "name": "docId",
          "type": "uint256"
        },
        {
          "internalType": "address",
          "name": "docAddress",
          "type": "address"
        }
      ],
      "stateMutability": "nonpayable",
      "type": "function"
    },
    {
      "inputs": [
        {
          "internalType": "address",
          "name": "",
          "type": "address"
        }
      ],
      "name": "notaryGrade",
      "outputs": [
        {
          "internalType": "enum NotaryHub.NotaryGrade",
          "name": "",
          "type": "uint8"
        }
      ],
      "stateMutability": "view",
      "type": "function"
    },
    {
      "inputs": [],
      "name": "owner",
      "outputs": [
        {
          "internalType": "address",
          "name": "",
          "type": "address"
        }
      ],
      "stateMutability": "view",
      "type": "function"
    },
    {
      "inputs": [
        {
          "internalType": "address",
          "name": "chairmanRegistry_",
          "type": "address"
        }
      ],
      "name": "setChairmanRegistry",
      "outputs": [],
      "stateMutability": "nonpayable",
      "type": "function"
    },
    {
      "inputs": [
        {
          "internalType": "address",
          "name": "notary",
          "type": "address"
        },
        {
          "internalType": "enum NotaryHub.NotaryGrade",
          "name": "grade",
          "type": "uint8"
        },
        {
          "internalType": "bool",
          "name": "isActive",
          "type": "bool"
        }
      ],
      "name": "setNotary",
      "outputs": [],
      "stateMutability": "nonpayable",
      "type": "function"
    },
    {
      "inputs": [
        {
          "internalType": "address",
          "name": "newOwner",
          "type": "address"
        }
      ],
      "name": "setOwner",
      "outputs": [],
      "stateMutability": "nonpayable",
      "type": "function"
    },
    {
      "inputs": [],
      "name": "structureRegistry",
      "outputs": [
        {
          "internalType": "address",
          "name": "",
          "type": "address"
        }
      ],
      "stateMutability": "view",
      "type": "function"
    }
  ],
  "bytecode": "0x60c0346200019c57601f62006d4838819003918201601f19168301916001600160401b03831184841017620001a1578084926060946040528339810103126200019c576200004d81620001b7565b906200006a60406200006260208401620001b7565b9201620001b7565b6001600160a01b039083821615801562000191575b6200017f578160018060a01b031993600095338688541617875560a0521660805216809160015416176001557f75a2e44047312e642e37bc571e05c6cbe9a1a42e1f42900f0ea1f63d7a80b3e060405192337f50146d0e3c60aa1d17a70635b05494f864e86144a2201275021014fbf08bafe28280a280a2616b7b9081620001cd823960805181818161013f015281816102db01528181610585015281816108f601528181610b5701528181610dff015281816110410152818161138e015281816117ab01526119b0015260a0518181816101cf015281816104f301528181610cbd01528181610d6d01528181610f35015281816116a1015261191e0152f35b60405163d92e233d60e01b8152600490fd5b50818316156200007f565b600080fd5b634e487b7160e01b600052604160045260246000fd5b51906001600160a01b03821682036200019c5756fe60808060405260043610156200001457600080fd5b600090813560e01c90816305043a0e146200189a575080630b5563e6146200164057806313af403514620015ce57806334d0672b146200158457806340d973f614620014c357806341ae005214620011fb5780634ea7132714620011b857806355eb12921462001132578063598a37821462000ed457806369af040a1462000cec5780636c3783341462000ca55780638da5cb5b1462000c7c57806398c06bca1462000a7157806399db1ba91462000698578063a3d3950e1462000472578063bc324f1e146200016e578063ddb2f1cc14620001275763eb0d560114620000fa57600080fd5b3462000124578060031936011262000124576001546040516001600160a01b039091168152602090f35b80fd5b503462000124578060031936011262000124576040517f00000000000000000000000000000000000000000000000000000000000000006001600160a01b03168152602090f35b50346200012457620001803662001af5565b90913384526020916003835260ff6040862054161562000460573385526002835260ff60408620541660068110156200044c576002036200043a576001600160a01b03938085161562000428577f0000000000000000000000000000000000000000000000000000000000000000946040516109608082019082821067ffffffffffffffff8311176200041457916200024a81928b94620059ce84396001600160a01b03808c168252602082018a9052871660408201526060810188905233608082015260a00190565b039082f0801562000407578216968216803b156200040357818091604460405180948193631a15339160e01b83528d6004840152600160248401525af18015620003f857620003dc575b505060405163a70be6e360e01b81526001600482015260248101859052604481018490523360648201526001600160a01b0387166084820152908590829060a49082908b907f0000000000000000000000000000000000000000000000000000000000000000165af1948515620003d1578697969562000371575b5050604080516001600160a01b039092168252602082019290925284917f2b485a66415934f502a3f86b9b2eb9ecffdcefe6a0e47df1941bbfcb3fac08109190819081015b0390a4604080519182526001600160a01b03929092166020820152f35b80929396508195503d8311620003c9575b6200038e818362001b70565b81010312620003c45791519284927f2b485a66415934f502a3f86b9b2eb9ecffdcefe6a0e47df1941bbfcb3fac0810386200030f565b600080fd5b503d62000382565b6040513d89823e3d90fd5b620003e79062001b45565b620003f457863862000294565b8680fd5b6040513d84823e3d90fd5b5080fd5b50604051903d90823e3d90fd5b634e487b7160e01b8a52604160045260248afd5b60405163d92e233d60e01b8152600490fd5b6040516313d3febb60e21b8152600490fd5b634e487b7160e01b86526021600452602486fd5b604051639498d51560e01b8152600490fd5b50346200012457620004843662001a99565b903383526020906003825260ff6040852054161562000460573384526002825260ff604085205416600681101562000684576002036200043a576040516108188082019082821067ffffffffffffffff831117620006705782916200052f916200632e84396001600160a01b037f0000000000000000000000000000000000000000000000000000000000000000168152602081018590526040810187905233606082015260800190565b039085f0918215620006655760405163a70be6e360e01b81526001600482015260248101839052604481018590523360648201526001600160a01b03938416608482018190529490938290859060a49082908a907f0000000000000000000000000000000000000000000000000000000000000000165af19384156200065a5785969594620005ff575b5084917ff38744655ce88d10812a0b1201ec7143e363491beba4a53c4ab364ce8599eabd91604051908152a4604080519182526001600160a01b03929092166020820152f35b8280965081955091923d831162000652575b6200061d818362001b70565b81010312620003c45791519284927ff38744655ce88d10812a0b1201ec7143e363491beba4a53c4ab364ce8599eabd620005b9565b503d62000611565b6040513d88823e3d90fd5b6040513d86823e3d90fd5b634e487b7160e01b87526041600452602487fd5b634e487b7160e01b85526021600452602485fd5b5034620001245760e03660031901126200012457620006b662001ab0565b620006c062001ac7565b604435620006cd62001ade565b9167ffffffffffffffff806084351162000a6d5736602360843501121562000a6d5780608435600401351162000a6d573660246084356004013560051b60843501011162000a6d5760c43591338752600360205260ff604088205416156200046057338752600260205260ff604088205416600681101562000a59576001036200043a576001600160a01b03861615801562000a47575b801562000a35575b620004285760026084356004013510801562000a24575b62000a0057600260a43510801562000a12575b62000a00576040519182610b5f81011090610b5f840111176200067057908691610b5f62001b9483396001600160a01b03878116610b5f84019081529181166020830152604082018690528616606082015260e060808201819052600460843501359101819052610100906001600160fb1b0310620009fc576084356004013560051b60246084350182610b5f8501013760a43560a0610b5f840101528360c0610b5f84010152816084356004013560051b610b5f82010103019082f0801562000407576001600160a01b03908116959081163b1562000403576040516350d50f4960e01b815260048101879052600160248201529082908290604490829084906001600160a01b03165af18015620003f857620009e0575b505060405163a70be6e360e01b81526000600482015260248101839052604481018290523360648201526001600160a01b0385166084820152926020848060a481010381897f00000000000000000000000000000000000000000000000000000000000000006001600160a01b03165af19384156200065a578596959462000981575b50604080516001600160a01b03909216825260a435602083015281019190915283907facf03d5cba235dc05f161a5bfb4c09e8e020bbc21b8f4cecd4a70f6b5b262a8990806060810162000354565b93509093506020833d602011620009d7575b81620009a26020938362001b70565b81010312620003c45791519284927facf03d5cba235dc05f161a5bfb4c09e8e020bbc21b8f4cecd4a70f6b5b262a8962000932565b3d915062000993565b620009eb9062001b45565b620009f8578438620008af565b8480fd5b8280fd5b604051631a49577b60e11b8152600490fd5b506084356004013560a4351162000796565b50600a608435600401351162000783565b506001600160a01b038516156200076c565b506001600160a01b0381161562000764565b634e487b7160e01b88526021600452602488fd5b8580fd5b503462000124576020806003193601126200040357600435903383526003815260ff6040842054161562000460573383526002815260ff604084205416600681101562000c68576005036200043a576001546001600160a01b0392908316801562000c565760405190610445908183019183831067ffffffffffffffff84111762000c4257928092606092899796956200329a84398152848682015233604082015203019084f0801562000c3757848391169460a46040518096819363a70be6e360e01b83526004808401528160248401528660448401523360648401528960848401527f0000000000000000000000000000000000000000000000000000000000000000165af192831562000c2c578495949362000bd1575b5083917fa135891e52fef0349a49066faa3ccb065925f4864441b06b8c01253ac6794c9f91604051908152a3604080519182526001600160a01b03929092166020820152f35b8280955081945091923d831162000c24575b62000bef818362001b70565b81010312620003c45790519183917fa135891e52fef0349a49066faa3ccb065925f4864441b06b8c01253ac6794c9f62000b8b565b503d62000be3565b6040513d87823e3d90fd5b6040513d85823e3d90fd5b634e487b7160e01b88526041600452602488fd5b6040516343c2139960e11b8152600490fd5b634e487b7160e01b84526021600452602484fd5b50346200012457806003193601126200012457546040516001600160a01b039091168152602090f35b503462000124578060031936011262000124576040517f00000000000000000000000000000000000000000000000000000000000000006001600160a01b03168152602090f35b5034620001245762000cfe3662001a99565b903383526020906003825260ff6040852054161562000460573384526002825260ff604085205416600681101562000684576004036200043a576040516108188082019082821067ffffffffffffffff8311176200067057829162000da991620051b684396001600160a01b037f0000000000000000000000000000000000000000000000000000000000000000168152602081018590526040810187905233606082015260800190565b039085f0918215620006655760405163a70be6e360e01b81526003600482015260248101839052604481018590523360648201526001600160a01b03938416608482018190529490938290859060a49082908a907f0000000000000000000000000000000000000000000000000000000000000000165af19384156200065a578596959462000e79575b5084917f034e39d71dd9caed060e1ccf5adcdb26860ea6fefc335188ab347406b5bb4d7191604051908152a4604080519182526001600160a01b03929092166020820152f35b8280965081955091923d831162000ecc575b62000e97818362001b70565b81010312620003c45791519284927f034e39d71dd9caed060e1ccf5adcdb26860ea6fefc335188ab347406b5bb4d7162000e33565b503d62000e8b565b5034620001245762000ee63662001af5565b90913384526020916003835260ff6040862054161562000460573385526002835260ff60408620541660068110156200044c576003036200043a576001600160a01b03938085161562000428577f00000000000000000000000000000000000000000000000000000000000000009460405161095f8082019082821067ffffffffffffffff83111762000414579162000fb081928b94620036df84396001600160a01b03808c168252602082018a9052871660408201526060810188905233608082015260a00190565b039082f0801562000407578216968216803b156200040357818091604460405180948193631a15339160e01b83528d6004840152600160248401525af18015620003f8576200111a575b505060405163a70be6e360e01b81526002600482015260248101859052604481018490523360648201526001600160a01b0387166084820152908590829060a49082908b907f0000000000000000000000000000000000000000000000000000000000000000165af1948515620003d15786979695620010bf575b5050604080516001600160a01b039092168252602082019290925284917f2ee7b58ba002d67752abde1452c18c5597ba6da657bb31117635d2f9a0f6e3a591908190810162000354565b80929396508195503d831162001112575b620010dc818362001b70565b81010312620003c45791519284927f2ee7b58ba002d67752abde1452c18c5597ba6da657bb31117635d2f9a0f6e3a53862001075565b503d620010d0565b620011259062001b45565b620003f457863862000ffa565b50346200012457602036600319011262000124576200115062001ab0565b81546001600160a01b03919082163303620011a65716806bffffffffffffffffffffffff60a01b60015416176001557f75a2e44047312e642e37bc571e05c6cbe9a1a42e1f42900f0ea1f63d7a80b3e08280a280f35b6040516330cd747160e01b8152600490fd5b503462000124576020366003190112620001245760209060ff906040906001600160a01b03620011e762001ab0565b168152600384522054166040519015158152f35b5034620001245760c036600319011262000124576200121962001ab0565b6200122362001ac7565b906044356200123162001ade565b6084359060a4353387526020946003865260ff6040892054161562000460573388526002865260ff6040892054166006811015620014af576001036200043a576001600160a01b039081169687158015620014a4575b801562001499575b6200042857851562000a00576002851080156200148e575b62000a005760405190610ba7908183019183831067ffffffffffffffff8411176200147a579280928560c0938e96620026f385398d8352168b82015289604082015285881660608201528860808201528660a082015203019082f080156200040757821697803b15620004035781809160448b6040519485938492631a15339160e01b84526004840152600160248401525af18015620003f8576200145e575b505060405163a70be6e360e01b81526000600482015260248101869052604481018390523360648201526001600160a01b0388166084820152908690829060a49082908c907f0000000000000000000000000000000000000000000000000000000000000000165af195861562001453578798979662001413575b5050604080516001600160a01b03909316835260208301939093529181019190915283907fbcfed4ee60e21b30ec4119450adc92fb1c31ca778f47ce378cb9ebdc5f8f279d90806060810162000354565b8092949750819396503d83116200144b575b62001431818362001b70565b81010312620003c4575193859390918162000354620013c2565b503d62001425565b6040513d8a823e3d90fd5b620014699062001b45565b6200147657873862001347565b8780fd5b634e487b7160e01b8c52604160045260248cfd5b50600a8511620012a7565b50818416156200128f565b508181161562001287565b634e487b7160e01b89526021600452602489fd5b5034620001245760603660031901126200012457620014e162001ab0565b6024356006811015620009fc5760443591821515809303620015805783546001600160a01b03929083163303620011a6577f12022ba30ddb9b04714f0b52921d9e83a554b92163ef06d6533d0ade8e3bfaf6926040921693848652600260205282862060ff19908181541660ff851617905585875260036020528387209081541660ff8316179055620015778351809362001b21565b6020820152a280f35b8380fd5b503462000124576020366003190112620001245760209060ff906040906001600160a01b03620015b362001ab0565b16815260028452205416620015cc604051809262001b21565bf35b5034620001245760203660031901126200012457620015ec62001ab0565b8154906001600160a01b03908183163303620011a6571690811562000428576001600160a01b031916811782557f50146d0e3c60aa1d17a70635b05494f864e86144a2201275021014fbf08bafe28280a280f35b50346200012457620016523662001af5565b90913384526020916003835260ff6040862054161562000460573385526002835260ff60408620541660068110156200044c576004036200043a576001600160a01b03938085161562000428577f0000000000000000000000000000000000000000000000000000000000000000946040516109608082019082821067ffffffffffffffff8311176200041457916200171c81928b946200485684396001600160a01b03808c168252602082018a9052871660408201526060810188905233608082015260a00190565b039082f0801562000407578216968216803b1562000403578190604460405180948193631a15339160e01b83528c6004840152600160248401525af18015620014535762001884575b5060405163a70be6e360e01b81526003600482015260248101859052604481018490523360648201526001600160a01b0387166084820152908590829060a49082908b907f0000000000000000000000000000000000000000000000000000000000000000165af1948515620003d1578697969562001829575b5050604080516001600160a01b039092168252602082019290925284917f1e2958df0b71ad9b3f20b45515d00de361a894ab01242330019c8951c6063ac791908190810162000354565b80929396508195503d83116200187c575b62001846818362001b70565b81010312620003c45791519284927f1e2958df0b71ad9b3f20b45515d00de361a894ab01242330019c8951c6063ac738620017df565b503d6200183a565b620018929097919762001b45565b953862001765565b9050346200040357620018ad3662001a99565b91903384526020916003835260ff6040862054161562001a8a57503384526002825260ff604085205416600681101562000684576003036200043a576040516108188082019082821067ffffffffffffffff831117620006705782916200195a916200403e84396001600160a01b037f0000000000000000000000000000000000000000000000000000000000000000168152602081018590526040810187905233606082015260800190565b039085f0918215620006655760405163a70be6e360e01b81526002600482015260248101839052604481018590523360648201526001600160a01b03938416608482018190529490938290859060a49082908a907f0000000000000000000000000000000000000000000000000000000000000000165af19384156200065a57868697969562001a2c575b505084917fc2d3608935d0f9db0591ac55cb3ee9b0ba468cfe2cce696dc5aa2093bd7cd08c91604051908152a4604080519182526001600160a01b03929092166020820152f35b919394509180955082813d831162001a82575b62001a4b818362001b70565b8101031262000124575051928492917fc2d3608935d0f9db0591ac55cb3ee9b0ba468cfe2cce696dc5aa2093bd7cd08c38620019e5565b503d62001a3f565b639498d51560e01b8152600490fd5b6040906003190112620003c4576004359060243590565b600435906001600160a01b0382168203620003c457565b602435906001600160a01b0382168203620003c457565b606435906001600160a01b0382168203620003c457565b6060906003190112620003c457600435906024356001600160a01b0381168103620003c4579060443590565b90600682101562001b2f5752565b634e487b7160e01b600052602160045260246000fd5b67ffffffffffffffff811162001b5a57604052565b634e487b7160e01b600052604160045260246000fd5b90601f8019910116810190811067ffffffffffffffff82111762001b5a5760405256fe6040610140815234620002f35762000b5f803803806200001f81620002f8565b928339810160e082820312620002f3576200003a826200031e565b926020936200004b8585016200031e565b828501516200005d606087016200031e565b60808701516001600160401b039691939190878111620002f357880181601f82011215620002f3578051978811620001be578760051b8a80620000a2818401620002f8565b809b81520191830101928311620002f3578a809201905b838210620002e3575050505060a087015160c090970151936001600160a01b03808216158015620002d8575b620002c757841615620002b6578215620001fb57865160028110908115620002aa575b50620001fb576002881080156200029f575b620001fb5760805260a05260c05260e05261012093845261010090815260005b8351811015620002395762000150818562000333565b5190811562000228576001918282018083116200021257835b620001d4575b506000549268010000000000000000841015620001be57830180600055831015620001a85760019260008052886000200155016200013a565b634e487b7160e01b600052603260045260246000fd5b634e487b7160e01b600052604160045260246000fd5b86518110156200020c57620001ea818862000333565b518214620001fb5783018362000169565b85516367ee0b4d60e11b8152600490fd5b6200016f565b634e487b7160e01b600052601160045260246000fd5b83516367ee0b4d60e11b8152600490fd5b5083825190610816928362000349843960805183818160c70152610193015260a0518381816104180152610581015260c0518381816101f901526104f3015260e0518381816102380152610331015251826103e001525181818161015e015261048b0152f35b50865188116200011a565b600a9150113862000108565b855163d92e233d60e01b8152600490fd5b865163d92e233d60e01b8152600490fd5b5080831615620000e5565b81518152908201908201620000b9565b600080fd5b6040519190601f01601f191682016001600160401b03811183821017620001be57604052565b51906001600160a01b0382168203620002f357565b8051821015620001a85760209160051b01019056fe608060408181526004918236101561001657600080fd5b600092833560e01c918263049878f3146105165750816306c81719146104db5781630f5f2db8146104ae578163238acaa2146104735781632641e00714610447578163386ca89d146104035781633d6df0d5146103c85781633d8a025c1461036057816340eedabb1461031c5781634bb278f31461013b575080635f3d8f4a1461011d578063b3f05b97146100fa5763df5d55a6146100b457600080fd5b346100f657816003193601126100f657517f00000000000000000000000000000000000000000000000000000000000000006001600160a01b03168152602090f35b5080fd5b50346100f657816003193601126100f65760209060ff6003541690519015158152f35b50346100f657816003193601126100f6576020906002549051908152f35b9190503461031857826003193601126103185760035460ff811661030a576002547f0000000000000000000000000000000000000000000000000000000000000000908181106102ee57505060ff19166001176003557f00000000000000000000000000000000000000000000000000000000000000006001600160a01b039081169190823b156102c95781516350d50f4960e01b8152308582015260016024820152858160448183885af180156102e4576102cd575b50908492917f000000000000000000000000000000000000000000000000000000000000000094833b156102c9578593859284519586936306b0882b60e11b85528401527f00000000000000000000000000000000000000000000000000000000000000001660248301526060604483015281838161027360648201610787565b03925af19081156102c057506102ac575b50807f839cf22e1ba87ce2f5b9bbf46cf0175a09eed52febdfaac8852478e68203c76391a280f35b6102b5906106e6565b6100f6578138610284565b513d84823e3d90fd5b8480fd5b6102db9095919392956106e6565b939091386101f2565b83513d88823e3d90fd5b8492506044935192633ce0c9e960e11b84528301526024820152fd5b505163475a253560e01b8152fd5b8280fd5b5050346100f657816003193601126100f657517f00000000000000000000000000000000000000000000000000000000000000006001600160a01b03168152602090f35b5050346100f657816003193601126100f65780516103888161038181610787565b0382610710565b815192839260208080860192818752855180945286019401925b8281106103b157505050500390f35b8351855286955093810193928101926001016103a2565b5050346100f657816003193601126100f657602090517f00000000000000000000000000000000000000000000000000000000000000008152f35b5050346100f657816003193601126100f657517f00000000000000000000000000000000000000000000000000000000000000006001600160a01b03168152602090f35b828434610470576020366003190112610470575061046760209235610732565b90519015158152f35b80fd5b5050346100f657816003193601126100f657602090517f00000000000000000000000000000000000000000000000000000000000000008152f35b905034610318576020366003190112610318578160209360ff923581526001855220541690519015158152f35b5050346100f657816003193601126100f657602090517f00000000000000000000000000000000000000000000000000000000000000008152f35b849184346106e2576020806003193601126102c95782359360ff600354166106d4575083156106c65761054884610732565b156106b0578385526001815260ff828620541661069a57815163aa9b77db60e01b81528381018590526001600160a01b039082816024817f000000000000000000000000000000000000000000000000000000000000000086165afa908115610690578791610656575b50168015610647578033036106255750600190848652528320600160ff198254161790556002549060018201809211610612575060025533907fc0081eeafa0d002abcd7d58d84b6e688d1526b9c3d915a282212ba08c49a17a78380a380f35b634e487b7160e01b845260119052602483fd5b916064949150519263a705575160e01b84528301526024820152336044820152fd5b50505163d92e233d60e01b8152fd5b90508281813d8311610689575b61066d8183610710565b810103126106855751818116810361068557876105b2565b8680fd5b503d610663565b84513d89823e3d90fd5b50916024925191636697534160e01b8352820152fd5b509160249251916379d98c7560e11b8352820152fd5b50516367ee0b4d60e11b8152fd5b63475a253560e01b81528390fd5b8380fd5b67ffffffffffffffff81116106fa57604052565b634e487b7160e01b600052604160045260246000fd5b90601f8019910116810190811067ffffffffffffffff8211176106fa57604052565b600090600054915b82811061074957505050600090565b6000805281817f290decd9548b62a8d60345a988386fc84ba6bc95484008f6362f93160ef3e56301541461077f5760010161073a565b505050600190565b600080548083528180526020928301927f290decd9548b62a8d60345a988386fc84ba6bc95484008f6362f93160ef3e56392905b8282106107c9575050505090565b8354855293840193600193840193909101906107bb56fea26469706673582212202b5cb5667490d033c1eaf376aeb425ed96ee583761ba57f5b01ae71eeb1a67a264736f6c6343000818003361014060409080825234620003955760c08162000ba780380380916200002682856200039a565b83398101031262000395576200003c81620003d4565b9160206200004c818401620003d4565b9082840151936200006060608201620003d4565b60a060808301519201519360018060a01b039788811698891580156200038a575b620003795783161562000368578715620003575760805260a0528560c05260e0526101009283526101209481865284519363c477ecab60e01b8552600491828601526000928386602481819c5afa9586156200034d57849662000291575b5085516002811090811562000285575b5062000275576002811090811562000269575b506200025a57825b8551811015620001f457620001208187620003e9565b518015620001e4576001808301808411620001d257815b62000195575b508554906801000000000000000082101562000183578101808755811015620001715785805286862001556001016200010a565b634e487b7160e01b8652603285528a86fd5b634e487b7160e01b8752604186528b87fd5b8851811015620001cc57620001ab818a620003e9565b518314620001bc5781018162000137565b89516367ee0b4d60e11b81528690fd5b6200013d565b634e487b7160e01b8752601186528b87fd5b87516367ee0b4d60e11b81528490fd5b5086865190610792928362000415843960805183818160c701526101d6015260a05183818161041801526104b1015260c05183818161020301526106ac015260e051838181610131015261024a015251826103e00152518181816101a101526106450152f35b5084516367ee0b4d60e11b8152fd5b90508551103862000102565b86516367ee0b4d60e11b81528390fd5b600a91501138620000ef565b9095503d8085833e620002a581836200039a565b81018582820312620003495781516001600160401b03928382116200032e570181601f820112156200034557805192831162000332578260051b90895193620002f1898401866200039a565b845287808501928201019283116200032e5787809101915b8383106200031d57505050509438620000df565b825181529181019188910162000309565b8680fd5b634e487b7160e01b865260418552602486fd5b8580fd5b8480fd5b87513d86823e3d90fd5b86516367ee0b4d60e11b8152600490fd5b865163d92e233d60e01b8152600490fd5b875163d92e233d60e01b8152600490fd5b508083161562000081565b600080fd5b601f909101601f19168101906001600160401b03821190821017620003be57604052565b634e487b7160e01b600052604160045260246000fd5b51906001600160a01b03821682036200039557565b8051821015620003fe5760209160051b010190565b634e487b7160e01b600052603260045260246000fdfe608060408181526004918236101561001657600080fd5b600092833560e01c91826306c8171914610695575081630f5f2db814610668578163238acaa21461062d5781632641e007146106045781632fb1b25f14610447578163386ca89d146104035781633d6df0d5146103c85781633d8a025c146103145781634bb278f31461017e575080635f3d8f4a14610160578063a24ed8aa1461011d578063b3f05b97146100fa5763df5d55a6146100b457600080fd5b346100f657816003193601126100f657517f00000000000000000000000000000000000000000000000000000000000000006001600160a01b03168152602090f35b5080fd5b50346100f657816003193601126100f65760209060ff6003541690519015158152f35b50346100f657816003193601126100f657517f00000000000000000000000000000000000000000000000000000000000000006001600160a01b03168152602090f35b50346100f657816003193601126100f6576020906002549051908152f35b9190503461031057826003193601126103105760035460ff8116610302576002547f0000000000000000000000000000000000000000000000000000000000000000908181106102e657505060ff19166001176003557f00000000000000000000000000000000000000000000000000000000000000006001600160a01b03908116927f0000000000000000000000000000000000000000000000000000000000000000928592909190853b156102e2578390604484518096819363577d5f2b60e01b835289878401527f000000000000000000000000000000000000000000000000000000000000000016998a60248401525af180156102d8576102a8575b5050507f7b1990f6546bb8c366883c6dbadda7cbb52114d60570d3f7ab226e6a59f35bf28380a380f35b67ffffffffffffffff83969496116102c55750529138808061027e565b634e487b7160e01b845260419052602483fd5b82513d88823e3d90fd5b8380fd5b8492506044935192633ce0c9e960e11b84528301526024820152fd5b505163475a253560e01b8152fd5b8280fd5b8284346103c557806003193601126103c557908051918290805491828552602080950180938380527f290decd9548b62a8d60345a988386fc84ba6bc95484008f6362f93160ef3e56390845b8181106103b15750505081610376910382610724565b83519485948186019282875251809352850193925b82811061039a57505050500390f35b83518552869550938101939281019260010161038b565b825484529288019260019283019201610360565b80fd5b5050346100f657816003193601126100f657602090517f00000000000000000000000000000000000000000000000000000000000000008152f35b5050346100f657816003193601126100f657517f00000000000000000000000000000000000000000000000000000000000000006001600160a01b03168152602090f35b90503461031057602091826003193601126102e25781359260ff600354166103025783156105f657610478846106cf565b156105e0578385526001815260ff82862054166105ca57815163aa9b77db60e01b81528381018590526001600160a01b039082816024817f000000000000000000000000000000000000000000000000000000000000000086165afa9081156105c0578791610586575b50168015610577578033036105555750600190848652528320600160ff198254161790556002549060018201809211610542575060025533907f80bc357386c693c2d6ad5938af6765eacd7d7790c17e39c014ab30def63941658380a380f35b634e487b7160e01b845260119052602483fd5b916064949150519263a705575160e01b84528301526024820152336044820152fd5b50505163d92e233d60e01b8152fd5b90508281813d83116105b9575b61059d8183610724565b810103126105b5575181811681036105b557386104e2565b8680fd5b503d610593565b84513d89823e3d90fd5b50916024925191636697534160e01b8352820152fd5b509160249251916379d98c7560e11b8352820152fd5b50516367ee0b4d60e11b8152fd5b8284346103c55760203660031901126103c55750610624602092356106cf565b90519015158152f35b5050346100f657816003193601126100f657602090517f00000000000000000000000000000000000000000000000000000000000000008152f35b905034610310576020366003190112610310578160209360ff923581526001855220541690519015158152f35b8490346100f657816003193601126100f6576020907f00000000000000000000000000000000000000000000000000000000000000008152f35b600090600054915b8281106106e657505050600090565b6000805281817f290decd9548b62a8d60345a988386fc84ba6bc95484008f6362f93160ef3e56301541461071c576001016106d7565b505050600190565b90601f8019910116810190811067ffffffffffffffff82111761074657604052565b634e487b7160e01b600052604160045260246000fdfea26469706673582212208af53e30bdecb2cdc721ce412edf7a1190bec862ed1035f1116c62054dfafd4064736f6c6343000818003360e03461009c57601f61044538819003918201601f19168301916001600160401b038311848410176100a15780849260609460405283398101031261009c57610047816100b7565b906100596040602083015192016100b7565b6001600160a01b0390921660805260a05260c05260405161037990816100cc823960805181818160850152610214015260a051816101ad015260c0518160ed0152f35b600080fd5b634e487b7160e01b600052604160045260246000fd5b51906001600160a01b038216820361009c5756fe608060408181526004918236101561001657600080fd5b600092833560e01c918263232a6b9d14610321575081632ca15122146101d05781633d6df0d5146101955781634bb278f31461011c575080639d54c79d146100d9578063b3f05b97146100b85763eb0d56011461007257600080fd5b346100b457816003193601126100b457517f00000000000000000000000000000000000000000000000000000000000000006001600160a01b03168152602090f35b5080fd5b50346100b457816003193601126100b45760ff602092541690519015158152f35b50346100b457816003193601126100b457517f00000000000000000000000000000000000000000000000000000000000000006001600160a01b03168152602090f35b90503461019157826003193601126101915782549160ff83166101845760ff8360081c16156101775760ff1983166001178455837f6823b073d48d6e3a7d385eeb601452d680e74bb46afe3255a7d778f3a9b176818180a180f35b516314e52a5b60e31b8152fd5b51632b372a4360e01b8152fd5b8280fd5b5050346100b457816003193601126100b457602090517f00000000000000000000000000000000000000000000000000000000000000008152f35b90503461019157826003193601126101915782549160ff83166101845760ff8360081c166103145780516387f7b97560e01b81526001600160a01b039060208185817f000000000000000000000000000000000000000000000000000000000000000086165afa90811561030a5786916102a3575b50168033149081159161029a575b5061028d5761ff0019831661010017845583337f568aebae0f7dc6c96727fb4cdfdf7add45fec43fffd69b3fa71ea0898a27f8cc8280a280f35b516308ef146b60e21b8152fd5b90501538610253565b905060203d602011610303575b601f8101601f1916820167ffffffffffffffff8111838210176102f05760209183918652810103126102ec575181811681036102ec5738610245565b8580fd5b634e487b7160e01b885260418652602488fd5b503d6102b0565b83513d88823e3d90fd5b5163585eb56560e11b8152fd5b8490346100b457816003193601126100b45760ff6020925460081c1615158152f3fea2646970667358221220b36e438720f2167b07f97b22cb7f3694205c440a0f744579fde209d79f099ae464736f6c63430008180033610120346100ff57601f61095f38819003918201601f19168301916001600160401b038311848410176101045780849260a0946040528339810103126100ff576100488161011a565b90602081015161005a6040830161011a565b9061006c60806060850151940161011a565b936001600160a01b0390838216156100ed571660805260a05260c05260e052610100908152604051610830918261012f833960805182818161018b0152818161021001526106ac015260a05182818160ce0152818161023401526106df015260c05182818161010501526102c4015260e05182610492015251816101480152f35b604051634a018bd960e01b8152600490fd5b600080fd5b634e487b7160e01b600052604160045260246000fd5b51906001600160a01b03821682036100ff5756fe608060408181526004918236101561001657600080fd5b600092833560e01c9182630555ff4114610583575081632ca15122146104b55781633d6df0d51461047a5781634bb278f3146101d8575080635f3d8f4a146101ba5780637b103999146101775780639d54c79d14610134578063a24ed8aa146100f1578063a45926d4146100b75763b3f05b971461009357600080fd5b346100b357816003193601126100b35760ff602092541690519015158152f35b5080fd5b50346100b357816003193601126100b357602090517f00000000000000000000000000000000000000000000000000000000000000008152f35b50346100b357816003193601126100b357517f00000000000000000000000000000000000000000000000000000000000000006001600160a01b03168152602090f35b50346100b357816003193601126100b357517f00000000000000000000000000000000000000000000000000000000000000006001600160a01b03168152602090f35b50346100b357816003193601126100b357517f00000000000000000000000000000000000000000000000000000000000000006001600160a01b03168152602090f35b50346100b357816003193601126100b3576020906002549051908152f35b90503461047657826003193601126104765782549160ff9160ff841661046857600a93600a600254106104595760018060a01b0390817f00000000000000000000000000000000000000000000000000000000000000001695867f000000000000000000000000000000000000000000000000000000000000000096865163727360cd60e11b8152888782015261014090818160248181975afa91821561044f578c92610422575b5050908a97969594939291885b84811061036057505050505060019060ff1916178455853b1561035c5783906044845180968193626770b760e81b835289878401527f000000000000000000000000000000000000000000000000000000000000000016998a60248401525af1801561035257610322575b5050507f7b1990f6546bb8c366883c6dbadda7cbb52114d60570d3f7ab226e6a59f35bf28380a380f35b67ffffffffffffffff839694961161033f575052913880806102f8565b634e487b7160e01b845260419052602483fd5b82513d88823e3d90fd5b8380fd5b909192939495969798610373828461065b565b518a5190635d7234b760e11b82528a820152808d818860209485935afa90811561041857908a9184916103eb575b501680159283156103d6575b5050506103c657600101908b989796959493929161028d565b885163e246dc6360e01b81528890fd5b60019350525282898d2054161538808e6103ad565b61040b9150833d8511610411575b61040381836105bf565b810190610682565b386103a1565b503d6103f9565b8c513d85823e3d90fd5b6104419250803d10610448575b61043981836105bf565b8101906105f7565b3880610280565b503d61042f565b89513d8e823e3d90fd5b50905163e246dc6360e01b8152fd5b9051632b372a4360e01b8152fd5b8280fd5b5050346100b357816003193601126100b357602090517f00000000000000000000000000000000000000000000000000000000000000008152f35b9190503461047657826003193601126104765760ff83541661057657338352600160205260ff8184205416610569576104ed336106a1565b1561055c573383526001602052808320600160ff198254161790556002549160018301809311610549575081600255519081527ff4b7ab5b8fc49d6d35d323cae6a96e1441b461f862dfc5aff92e806e2839b5b060203392a280f35b634e487b7160e01b845260119052602483fd5b51630e7081c560e31b8152fd5b5163585eb56560e11b8152fd5b51632b372a4360e01b8152fd5b9291503461035c57602036600319011261035c57356001600160a01b0381169081900361035c5783526001602090815292205460ff1615158152f35b90601f8019910116810190811067ffffffffffffffff8211176105e157604052565b634e487b7160e01b600052604160045260246000fd5b9061014080838303126106565781601f84011215610656576040519281840184811067ffffffffffffffff8211176105e1576040528391810192831161065657905b8282106106465750505090565b8151815260209182019101610639565b600080fd5b90600a81101561066c5760051b0190565b634e487b7160e01b600052603260045260246000fd5b9081602091031261065657516001600160a01b03811681036106565790565b60018060a01b0390817f000000000000000000000000000000000000000000000000000000000000000016916040805163727360cd60e11b815260047f00000000000000000000000000000000000000000000000000000000000000006004830152610140956024928781602481855afa9788156107ee576000986107cf575b505060005b600a811061073b575050505050505050600090565b610745818961065b565b51855190635d7234b760e11b82528482015260209081818781875afa9182156107c457908892916000926107a7575b5050168688168114908161079d575b5061079057600101610726565b5050505050505050600190565b9050151538610783565b6107bd9250803d106104115761040381836105bf565b3880610774565b87513d6000823e3d90fd5b6107e6929850803d106104485761043981836105bf565b953880610721565b6040513d6000823e3d90fdfea2646970667358221220a5f6911fb2494db4a58fbacb94822541d206657785e6a82566045a4e02c4bf4164736f6c63430008180033610100346100c357601f61081838819003918201601f19168301916001600160401b038311848410176100c8578084926080946040528339810103126100c357610048816100de565b90602081015161005f6060604084015193016100de565b6001600160a01b0390931660805260a05260c05260e05260405161072590816100f3823960805181818161013d015281816101f901526105a1015260a05181818160c3015281816101c501526105d4015260c05181610390015260e0518160fa0152f35b600080fd5b634e487b7160e01b600052604160045260246000fd5b51906001600160a01b03821682036100c35756fe608060408181526004918236101561001657600080fd5b600092833560e01c9182630555ff4114610474575081632ca15122146103b35781633d6df0d5146103785781634bb278f31461018a575080635f3d8f4a1461016c5780637b103999146101295780639d54c79d146100e6578063a45926d4146100ac5763b3f05b971461008857600080fd5b346100a857816003193601126100a85760ff602092541690519015158152f35b5080fd5b50346100a857816003193601126100a857602090517f00000000000000000000000000000000000000000000000000000000000000008152f35b50346100a857816003193601126100a857517f00000000000000000000000000000000000000000000000000000000000000006001600160a01b03168152602090f35b50346100a857816003193601126100a857517f00000000000000000000000000000000000000000000000000000000000000006001600160a01b03168152602090f35b50346100a857816003193601126100a8576020906002549051908152f35b90503461037457826003193601126103745782549060ff9260ff831661036757600a90600a6002541061035857805163727360cd60e11b81527f0000000000000000000000000000000000000000000000000000000000000000848201819052956024916001600160a01b03907f00000000000000000000000000000000000000000000000000000000000000008216906101409081818781865afa91821561034e578c92610321575b50508a5b8781106102725760ff198a166001178c558b8b7f839cf22e1ba87ce2f5b9bbf46cf0175a09eed52febdfaac8852478e68203c7638280a280f35b8b61027d8284610550565b51885190635d7234b760e11b82528b82015260209081818a81895afa9081156103175790879184916102ea575b501680159283156102d5575b5050506102c557600101610238565b865163e246dc6360e01b81528990fd5b60019350525284878d2054161538808e6102b6565b61030a9150833d8511610310575b61030281836104b4565b810190610577565b386102aa565b503d6102f8565b8a513d85823e3d90fd5b6103409250803d10610347575b61033881836104b4565b8101906104ec565b3880610234565b503d61032e565b87513d8e823e3d90fd5b5163e246dc6360e01b81529050fd5b51632b372a4360e01b8152fd5b8280fd5b5050346100a857816003193601126100a857602090517f00000000000000000000000000000000000000000000000000000000000000008152f35b9190503461037457826003193601126103745760ff83541661036757338352600160205260ff8184205416610467576103eb33610596565b1561045a573383526001602052808320600160ff198254161790556002549160018301809311610447575081600255519081527ff4b7ab5b8fc49d6d35d323cae6a96e1441b461f862dfc5aff92e806e2839b5b060203392a280f35b634e487b7160e01b845260119052602483fd5b51630e7081c560e31b8152fd5b5163585eb56560e11b8152fd5b929150346104b05760203660031901126104b057356001600160a01b038116908190036104b05783526001602090815292205460ff1615158152f35b8380fd5b90601f8019910116810190811067ffffffffffffffff8211176104d657604052565b634e487b7160e01b600052604160045260246000fd5b90610140808383031261054b5781601f8401121561054b576040519281840184811067ffffffffffffffff8211176104d6576040528391810192831161054b57905b82821061053b5750505090565b815181526020918201910161052e565b600080fd5b90600a8110156105615760051b0190565b634e487b7160e01b600052603260045260246000fd5b9081602091031261054b57516001600160a01b038116810361054b5790565b60018060a01b0390817f000000000000000000000000000000000000000000000000000000000000000016916040805163727360cd60e11b815260047f00000000000000000000000000000000000000000000000000000000000000006004830152610140956024928781602481855afa9788156106e3576000986106c4575b505060005b600a8110610630575050505050505050600090565b61063a8189610550565b51855190635d7234b760e11b82528482015260209081818781875afa9182156106b9579088929160009261069c575b50501686881681149081610692575b506106855760010161061b565b5050505050505050600190565b9050151538610678565b6106b29250803d106103105761030281836104b4565b3880610669565b87513d6000823e3d90fd5b6106db929850803d106103475761033881836104b4565b953880610616565b6040513d6000823e3d90fdfea26469706673582212202539958ff80154ac71aeb65a3f151f672b09081c3e50e594f7417d4f5088007364736f6c63430008180033610120346100ff57601f61096038819003918201601f19168301916001600160401b038311848410176101045780849260a0946040528339810103126100ff576100488161011a565b90602081015161005a6040830161011a565b9061006c60806060850151940161011a565b936001600160a01b0390838216156100ed571660805260a05260c05260e052610100908152604051610831918261012f833960805182818161018b0152818161021001526106ad015260a05182818160a90152818161023401526106e0015260c05182818161010501526102c5015260e05182610493015251816101480152f35b604051634a018bd960e01b8152600490fd5b600080fd5b634e487b7160e01b600052604160045260246000fd5b51906001600160a01b03821682036100ff5756fe608060408181526004918236101561001657600080fd5b600092833560e01c9182630555ff4114610584575081632ca15122146104b65781633d6df0d51461047b5781634bb278f3146101d8575080635f3d8f4a146101ba5780637b103999146101775780639d54c79d14610134578063a24ed8aa146100f1578063b3f05b97146100d05763c31465921461009357600080fd5b346100cc57816003193601126100cc57602090517f00000000000000000000000000000000000000000000000000000000000000008152f35b5080fd5b50346100cc57816003193601126100cc5760ff602092541690519015158152f35b50346100cc57816003193601126100cc57517f00000000000000000000000000000000000000000000000000000000000000006001600160a01b03168152602090f35b50346100cc57816003193601126100cc57517f00000000000000000000000000000000000000000000000000000000000000006001600160a01b03168152602090f35b50346100cc57816003193601126100cc57517f00000000000000000000000000000000000000000000000000000000000000006001600160a01b03168152602090f35b50346100cc57816003193601126100cc576020906002549051908152f35b90503461047757826003193601126104775782549160ff9160ff841661046957600a93600a6002541061045a5760018060a01b0390817f00000000000000000000000000000000000000000000000000000000000000001695867f0000000000000000000000000000000000000000000000000000000000000000968651630470383360e11b8152888782015261014090818160248181975afa918215610450578c92610423575b5050908a97969594939291885b84811061036157505050505060019060ff1916178455853b1561035d57839060448451809681936308d917b960e41b835289878401527f000000000000000000000000000000000000000000000000000000000000000016998a60248401525af1801561035357610323575b5050507f7b1990f6546bb8c366883c6dbadda7cbb52114d60570d3f7ab226e6a59f35bf28380a380f35b67ffffffffffffffff8396949611610340575052913880806102f9565b634e487b7160e01b845260419052602483fd5b82513d88823e3d90fd5b8380fd5b909192939495969798610374828461065c565b518a51906315a4419760e01b82528a820152808d818860209485935afa90811561041957908a9184916103ec575b501680159283156103d7575b5050506103c757600101908b989796959493929161028d565b885163e246dc6360e01b81528890fd5b60019350525282898d2054161538808e6103ae565b61040c9150833d8511610412575b61040481836105c0565b810190610683565b386103a2565b503d6103fa565b8c513d85823e3d90fd5b6104429250803d10610449575b61043a81836105c0565b8101906105f8565b3880610280565b503d610430565b89513d8e823e3d90fd5b50905163e246dc6360e01b8152fd5b9051632b372a4360e01b8152fd5b8280fd5b5050346100cc57816003193601126100cc57602090517f00000000000000000000000000000000000000000000000000000000000000008152f35b9190503461047757826003193601126104775760ff83541661057757338352600160205260ff818420541661056a576104ee336106a2565b1561055d573383526001602052808320600160ff19825416179055600254916001830180931161054a575081600255519081527ff4b7ab5b8fc49d6d35d323cae6a96e1441b461f862dfc5aff92e806e2839b5b060203392a280f35b634e487b7160e01b845260119052602483fd5b51639774382760e01b8152fd5b5163585eb56560e11b8152fd5b51632b372a4360e01b8152fd5b9291503461035d57602036600319011261035d57356001600160a01b0381169081900361035d5783526001602090815292205460ff1615158152f35b90601f8019910116810190811067ffffffffffffffff8211176105e257604052565b634e487b7160e01b600052604160045260246000fd5b9061014080838303126106575781601f84011215610657576040519281840184811067ffffffffffffffff8211176105e2576040528391810192831161065757905b8282106106475750505090565b815181526020918201910161063a565b600080fd5b90600a81101561066d5760051b0190565b634e487b7160e01b600052603260045260246000fd5b9081602091031261065757516001600160a01b03811681036106575790565b60018060a01b0390817f0000000000000000000000000000000000000000000000000000000000000000169160408051630470383360e11b815260047f00000000000000000000000000000000000000000000000000000000000000006004830152610140956024928781602481855afa9788156107ef576000986107d0575b505060005b600a811061073c575050505050505050600090565b610746818961065c565b518551906315a4419760e01b82528482015260209081818781875afa9182156107c557908892916000926107a8575b5050168688168114908161079e575b5061079157600101610727565b5050505050505050600190565b9050151538610784565b6107be9250803d106104125761040481836105c0565b3880610775565b87513d6000823e3d90fd5b6107e7929850803d106104495761043a81836105c0565b953880610722565b6040513d6000823e3d90fdfea2646970667358221220dafbfcf7fbfbf1e2c53bbee6f7ba392ef9d35ba7669ad2057c3b3a0756b30daa64736f6c63430008180033610100346100c357601f61081838819003918201601f19168301916001600160401b038311848410176100c8578084926080946040528339810103126100c357610048816100de565b90602081015161005f6060604084015193016100de565b6001600160a01b0390931660805260a05260c05260e05260405161072590816100f3823960805181818161013d015281816101f901526105a1015260a051818181609e015281816101c501526105d4015260c05181610390015260e0518160fa0152f35b600080fd5b634e487b7160e01b600052604160045260246000fd5b51906001600160a01b03821682036100c35756fe608060408181526004918236101561001657600080fd5b600092833560e01c9182630555ff4114610474575081632ca15122146103b35781633d6df0d5146103785781634bb278f31461018a575080635f3d8f4a1461016c5780637b103999146101295780639d54c79d146100e6578063b3f05b97146100c55763c31465921461008857600080fd5b346100c157816003193601126100c157602090517f00000000000000000000000000000000000000000000000000000000000000008152f35b5080fd5b50346100c157816003193601126100c15760ff602092541690519015158152f35b50346100c157816003193601126100c157517f00000000000000000000000000000000000000000000000000000000000000006001600160a01b03168152602090f35b50346100c157816003193601126100c157517f00000000000000000000000000000000000000000000000000000000000000006001600160a01b03168152602090f35b50346100c157816003193601126100c1576020906002549051908152f35b90503461037457826003193601126103745782549060ff9260ff831661036757600a90600a60025410610358578051630470383360e11b81527f0000000000000000000000000000000000000000000000000000000000000000848201819052956024916001600160a01b03907f00000000000000000000000000000000000000000000000000000000000000008216906101409081818781865afa91821561034e578c92610321575b50508a5b8781106102725760ff198a166001178c558b8b7f839cf22e1ba87ce2f5b9bbf46cf0175a09eed52febdfaac8852478e68203c7638280a280f35b8b61027d8284610550565b518851906315a4419760e01b82528b82015260209081818a81895afa9081156103175790879184916102ea575b501680159283156102d5575b5050506102c557600101610238565b865163e246dc6360e01b81528990fd5b60019350525284878d2054161538808e6102b6565b61030a9150833d8511610310575b61030281836104b4565b810190610577565b386102aa565b503d6102f8565b8a513d85823e3d90fd5b6103409250803d10610347575b61033881836104b4565b8101906104ec565b3880610234565b503d61032e565b87513d8e823e3d90fd5b5163e246dc6360e01b81529050fd5b51632b372a4360e01b8152fd5b8280fd5b5050346100c157816003193601126100c157602090517f00000000000000000000000000000000000000000000000000000000000000008152f35b9190503461037457826003193601126103745760ff83541661036757338352600160205260ff8184205416610467576103eb33610596565b1561045a573383526001602052808320600160ff198254161790556002549160018301809311610447575081600255519081527ff4b7ab5b8fc49d6d35d323cae6a96e1441b461f862dfc5aff92e806e2839b5b060203392a280f35b634e487b7160e01b845260119052602483fd5b51639774382760e01b8152fd5b5163585eb56560e11b8152fd5b929150346104b05760203660031901126104b057356001600160a01b038116908190036104b05783526001602090815292205460ff1615158152f35b8380fd5b90601f8019910116810190811067ffffffffffffffff8211176104d657604052565b634e487b7160e01b600052604160045260246000fd5b90610140808383031261054b5781601f8401121561054b576040519281840184811067ffffffffffffffff8211176104d6576040528391810192831161054b57905b82821061053b5750505090565b815181526020918201910161052e565b600080fd5b90600a8110156105615760051b0190565b634e487b7160e01b600052603260045260246000fd5b9081602091031261054b57516001600160a01b038116810361054b5790565b60018060a01b0390817f0000000000000000000000000000000000000000000000000000000000000000169160408051630470383360e11b815260047f00000000000000000000000000000000000000000000000000000000000000006004830152610140956024928781602481855afa9788156106e3576000986106c4575b505060005b600a8110610630575050505050505050600090565b61063a8189610550565b518551906315a4419760e01b82528482015260209081818781875afa9182156106b9579088929160009261069c575b50501686881681149081610692575b506106855760010161061b565b5050505050505050600190565b9050151538610678565b6106b29250803d106103105761030281836104b4565b3880610669565b87513d6000823e3d90fd5b6106db929850803d106103475761033881836104b4565b953880610616565b6040513d6000823e3d90fdfea26469706673582212205b6717b5ff061acb5102f34d81ffdf09122d69f0ac2321fa2b50124b5ffb3c9b64736f6c63430008180033610120346100ff57601f61096038819003918201601f19168301916001600160401b038311848410176101045780849260a0946040528339810103126100ff576100488161011a565b90602081015161005a6040830161011a565b9061006c60806060850151940161011a565b936001600160a01b0390838216156100ed571660805260a05260c05260e052610100908152604051610831918261012f833960805182818161018b0152818161021001526106ad015260a05182818160a90152818161023401526106e0015260c05182818161010501526102c5015260e05182610493015251816101480152f35b604051634a018bd960e01b8152600490fd5b600080fd5b634e487b7160e01b600052604160045260246000fd5b51906001600160a01b03821682036100ff5756fe608060408181526004918236101561001657600080fd5b600092833560e01c9182630555ff4114610584575081632ca15122146104b65781633d6df0d51461047b5781634bb278f3146101d8575080635f3d8f4a146101ba5780637b103999146101775780639d54c79d14610134578063a24ed8aa146100f1578063b3f05b97146100d05763bbe648c61461009357600080fd5b346100cc57816003193601126100cc57602090517f00000000000000000000000000000000000000000000000000000000000000008152f35b5080fd5b50346100cc57816003193601126100cc5760ff602092541690519015158152f35b50346100cc57816003193601126100cc57517f00000000000000000000000000000000000000000000000000000000000000006001600160a01b03168152602090f35b50346100cc57816003193601126100cc57517f00000000000000000000000000000000000000000000000000000000000000006001600160a01b03168152602090f35b50346100cc57816003193601126100cc57517f00000000000000000000000000000000000000000000000000000000000000006001600160a01b03168152602090f35b50346100cc57816003193601126100cc576020906002549051908152f35b90503461047757826003193601126104775782549160ff9160ff841661046957600a93600a6002541061045a5760018060a01b0390817f00000000000000000000000000000000000000000000000000000000000000001695867f0000000000000000000000000000000000000000000000000000000000000000968651631a4e7cb360e11b8152888782015261014090818160248181975afa918215610450578c92610423575b5050908a97969594939291885b84811061036157505050505060019060ff1916178455853b1561035d578390604484518096819363a8b9ec4760e01b835289878401527f000000000000000000000000000000000000000000000000000000000000000016998a60248401525af1801561035357610323575b5050507f7b1990f6546bb8c366883c6dbadda7cbb52114d60570d3f7ab226e6a59f35bf28380a380f35b67ffffffffffffffff8396949611610340575052913880806102f9565b634e487b7160e01b845260419052602483fd5b82513d88823e3d90fd5b8380fd5b909192939495969798610374828461065c565b518a5190637b58b8f360e01b82528a820152808d818860209485935afa90811561041957908a9184916103ec575b501680159283156103d7575b5050506103c757600101908b989796959493929161028d565b885163e246dc6360e01b81528890fd5b60019350525282898d2054161538808e6103ae565b61040c9150833d8511610412575b61040481836105c0565b810190610683565b386103a2565b503d6103fa565b8c513d85823e3d90fd5b6104429250803d10610449575b61043a81836105c0565b8101906105f8565b3880610280565b503d610430565b89513d8e823e3d90fd5b50905163e246dc6360e01b8152fd5b9051632b372a4360e01b8152fd5b8280fd5b5050346100cc57816003193601126100cc57602090517f00000000000000000000000000000000000000000000000000000000000000008152f35b9190503461047757826003193601126104775760ff83541661057757338352600160205260ff818420541661056a576104ee336106a2565b1561055d573383526001602052808320600160ff19825416179055600254916001830180931161054a575081600255519081527ff4b7ab5b8fc49d6d35d323cae6a96e1441b461f862dfc5aff92e806e2839b5b060203392a280f35b634e487b7160e01b845260119052602483fd5b5163fe6f104360e01b8152fd5b5163585eb56560e11b8152fd5b51632b372a4360e01b8152fd5b9291503461035d57602036600319011261035d57356001600160a01b0381169081900361035d5783526001602090815292205460ff1615158152f35b90601f8019910116810190811067ffffffffffffffff8211176105e257604052565b634e487b7160e01b600052604160045260246000fd5b9061014080838303126106575781601f84011215610657576040519281840184811067ffffffffffffffff8211176105e2576040528391810192831161065757905b8282106106475750505090565b815181526020918201910161063a565b600080fd5b90600a81101561066d5760051b0190565b634e487b7160e01b600052603260045260246000fd5b9081602091031261065757516001600160a01b03811681036106575790565b60018060a01b0390817f0000000000000000000000000000000000000000000000000000000000000000169160408051631a4e7cb360e11b815260047f00000000000000000000000000000000000000000000000000000000000000006004830152610140956024928781602481855afa9788156107ef576000986107d0575b505060005b600a811061073c575050505050505050600090565b610746818961065c565b51855190637b58b8f360e01b82528482015260209081818781875afa9182156107c557908892916000926107a8575b5050168688168114908161079e575b5061079157600101610727565b5050505050505050600190565b9050151538610784565b6107be9250803d106104125761040481836105c0565b3880610775565b87513d6000823e3d90fd5b6107e7929850803d106104495761043a81836105c0565b953880610722565b6040513d6000823e3d90fdfea2646970667358221220605b9d6da74d58bbf67aeca4232e3f1fa944024bee10a676c326c0e4039b9d7964736f6c63430008180033610100346100c357601f61081838819003918201601f19168301916001600160401b038311848410176100c8578084926080946040528339810103126100c357610048816100de565b90602081015161005f6060604084015193016100de565b6001600160a01b0390931660805260a05260c05260e05260405161072590816100f3823960805181818161013d015281816101f901526105a1015260a051818181609e015281816101c501526105d4015260c05181610390015260e0518160fa0152f35b600080fd5b634e487b7160e01b600052604160045260246000fd5b51906001600160a01b03821682036100c35756fe608060408181526004918236101561001657600080fd5b600092833560e01c9182630555ff4114610474575081632ca15122146103b35781633d6df0d5146103785781634bb278f31461018a575080635f3d8f4a1461016c5780637b103999146101295780639d54c79d146100e6578063b3f05b97146100c55763bbe648c61461008857600080fd5b346100c157816003193601126100c157602090517f00000000000000000000000000000000000000000000000000000000000000008152f35b5080fd5b50346100c157816003193601126100c15760ff602092541690519015158152f35b50346100c157816003193601126100c157517f00000000000000000000000000000000000000000000000000000000000000006001600160a01b03168152602090f35b50346100c157816003193601126100c157517f00000000000000000000000000000000000000000000000000000000000000006001600160a01b03168152602090f35b50346100c157816003193601126100c1576020906002549051908152f35b90503461037457826003193601126103745782549060ff9260ff831661036757600a90600a60025410610358578051631a4e7cb360e11b81527f0000000000000000000000000000000000000000000000000000000000000000848201819052956024916001600160a01b03907f00000000000000000000000000000000000000000000000000000000000000008216906101409081818781865afa91821561034e578c92610321575b50508a5b8781106102725760ff198a166001178c558b8b7f839cf22e1ba87ce2f5b9bbf46cf0175a09eed52febdfaac8852478e68203c7638280a280f35b8b61027d8284610550565b51885190637b58b8f360e01b82528b82015260209081818a81895afa9081156103175790879184916102ea575b501680159283156102d5575b5050506102c557600101610238565b865163e246dc6360e01b81528990fd5b60019350525284878d2054161538808e6102b6565b61030a9150833d8511610310575b61030281836104b4565b810190610577565b386102aa565b503d6102f8565b8a513d85823e3d90fd5b6103409250803d10610347575b61033881836104b4565b8101906104ec565b3880610234565b503d61032e565b87513d8e823e3d90fd5b5163e246dc6360e01b81529050fd5b51632b372a4360e01b8152fd5b8280fd5b5050346100c157816003193601126100c157602090517f00000000000000000000000000000000000000000000000000000000000000008152f35b9190503461037457826003193601126103745760ff83541661036757338352600160205260ff8184205416610467576103eb33610596565b1561045a573383526001602052808320600160ff198254161790556002549160018301809311610447575081600255519081527ff4b7ab5b8fc49d6d35d323cae6a96e1441b461f862dfc5aff92e806e2839b5b060203392a280f35b634e487b7160e01b845260119052602483fd5b5163fe6f104360e01b8152fd5b5163585eb56560e11b8152fd5b929150346104b05760203660031901126104b057356001600160a01b038116908190036104b05783526001602090815292205460ff1615158152f35b8380fd5b90601f8019910116810190811067ffffffffffffffff8211176104d657604052565b634e487b7160e01b600052604160045260246000fd5b90610140808383031261054b5781601f8401121561054b576040519281840184811067ffffffffffffffff8211176104d6576040528391810192831161054b57905b82821061053b5750505090565b815181526020918201910161052e565b600080fd5b90600a8110156105615760051b0190565b634e487b7160e01b600052603260045260246000fd5b9081602091031261054b57516001600160a01b038116810361054b5790565b60018060a01b0390817f0000000000000000000000000000000000000000000000000000000000000000169160408051631a4e7cb360e11b815260047f00000000000000000000000000000000000000000000000000000000000000006004830152610140956024928781602481855afa9788156106e3576000986106c4575b505060005b600a8110610630575050505050505050600090565b61063a8189610550565b51855190637b58b8f360e01b82528482015260209081818781875afa9182156106b9579088929160009261069c575b50501686881681149081610692575b506106855760010161061b565b5050505050505050600190565b9050151538610678565b6106b29250803d106103105761030281836104b4565b3880610669565b87513d6000823e3d90fd5b6106db929850803d106103475761033881836104b4565b953880610616565b6040513d6000823e3d90fdfea2646970667358221220c1675e6f8c8df4ca3796b2b577f1a0ba10869d2bb38f6f0c883488e5e4527d4d64736f6c63430008180033a26469706673582212203ff5891c704f7469776666a616b5f7b8e62139772cd809e9a8592d6602a3190664736f6c63430008180033",
  "linkReferences": {},
  "deployedLinkReferences": {}
}