{
  "_format": "hh-sol-artifact-1",
  "contractName": "ConstitutionAcceptanceRegistry",
  "sourceName": "contracts/ConstitutionAcceptanceRegistry.sol",
  "abi": [
    {
      "inputs": [
        {
          "internalType": "bytes32",
          "name": "_constitutionHash",
          "type": "bytes32"
        },
        {
          "internalType": "bytes32",
          "name": "_versionHash",
          "type": "bytes32"
        }
      ],
      "stateMutability": "nonpayable",
      "type": "constructor"
    },
    {
      "anonymous": false,
      "inputs": [
        {
          "indexed": true,
          "internalType": "address",
          "name": "user",
          "type": "address"
        },
        {
          "indexed": true,
          "internalType": "uint256",
          "name": "seatId",
          "type": "uint256"
        },
        {
          "indexed": true,
          "internalType": "bytes32",
          "name": "constitutionHash",
          "type": "bytes32"
        },
        {
          "indexed": false,
          "internalType": "bytes32",
          "name": "versionHash",
          "type": "bytes32"
        },
        {
          "indexed": false,
          "internalType": "uint64",
          "name": "acceptedAt",
          "type": "uint64"
        }
      ],
      "name": "ConstitutionAccepted",
      "type": "event"
    },
    {
      "anonymous": false,
      "inputs": [
        {
          "indexed": true,
          "internalType": "bytes32",
          "name": "constitutionHash",
          "type": "bytes32"
        },
        {
          "indexed": true,
          "internalType": "bytes32",
          "name": "versionHash",
          "type": "bytes32"
        }
      ],
      "name": "ConstitutionSet",
      "type": "event"
    },
    {
      "anonymous": false,
      "inputs": [
        {
          "indexed": true,
          "internalType": "address",
          "name": "oldOwner",
          "type": "address"
        },
        {
          "indexed": true,
          "internalType": "address",
          "name": "newOwner",
          "type": "address"
        }
      ],
      "name": "OwnerChanged",
      "type": "event"
    },
    {
      "inputs": [],
      "name": "EIP712_VERSION",
      "outputs": [
        {
          "internalType": "string",
          "name": "",
          "type": "string"
        }
      ],
      "stateMutability": "view",
      "type": "function"
    },
    {
      "inputs": [],
      "name": "NAME",
      "outputs": [
        {
          "internalType": "string",
          "name": "",
          "type": "string"
        }
      ],
      "stateMutability": "view",
      "type": "function"
    },
    {
      "inputs": [
        {
          "internalType": "uint256",
          "name": "seatId",
          "type": "uint256"
        }
      ],
      "name": "acceptDirect",
      "outputs": [],
      "stateMutability": "nonpayable",
      "type": "function"
    },
    {
      "inputs": [
        {
          "internalType": "address",
          "name": "user",
          "type": "address"
        },
        {
          "internalType": "uint256",
          "name": "seatId",
          "type": "uint256"
        },
        {
          "internalType": "uint256",
          "name": "deadline",
          "type": "uint256"
        },
        {
          "internalType": "uint8",
          "name": "v",
          "type": "uint8"
        },
        {
          "internalType": "bytes32",
          "name": "r",
          "type": "bytes32"
        },
        {
          "internalType": "bytes32",
          "name": "s",
          "type": "bytes32"
        }
      ],
      "name": "acceptWithSig",
      "outputs": [],
      "stateMutability": "nonpayable",
      "type": "function"
    },
    {
      "inputs": [
        {
          "internalType": "address",
          "name": "user",
          "type": "address"
        },
        {
          "internalType": "uint256",
          "name": "seatId",
          "type": "uint256"
        },
        {
          "internalType": "bytes32",
          "name": "_constitutionHash",
          "type": "bytes32"
        },
        {
          "internalType": "bytes32",
          "name": "_versionHash",
          "type": "bytes32"
        },
        {
          "internalType": "uint256",
          "name": "nonce",
          "type": "uint256"
        },
        {
          "internalType": "uint256",
          "name": "deadline",
          "type": "uint256"
        }
      ],
      "name": "acceptanceDigest",
      "outputs": [
        {
          "internalType": "bytes32",
          "name": "",
          "type": "bytes32"
        }
      ],
      "stateMutability": "view",
      "type": "function"
    },
    {
      "inputs": [
        {
          "internalType": "address",
          "name": "",
          "type": "address"
        }
      ],
      "name": "acceptanceOf",
      "outputs": [
        {
          "internalType": "uint64",
          "name": "acceptedAt",
          "type": "uint64"
        },
        {
          "internalType": "bytes32",
          "name": "constitutionHash",
          "type": "bytes32"
        },
        {
          "internalType": "bytes32",
          "name": "versionHash",
          "type": "bytes32"
        }
      ],
      "stateMutability": "view",
      "type": "function"
    },
    {
      "inputs": [
        {
          "internalType": "uint256",
          "name": "",
          "type": "uint256"
        }
      ],
      "name": "acceptanceOfSeat",
      "outputs": [
        {
          "internalType": "uint64",
          "name": "acceptedAt",
          "type": "uint64"
        },
        {
          "internalType": "bytes32",
          "name": "constitutionHash",
          "type": "bytes32"
        },
        {
          "internalType": "bytes32",
          "name": "versionHash",
          "type": "bytes32"
        }
      ],
      "stateMutability": "view",
      "type": "function"
    },
    {
      "inputs": [],
      "name": "constitutionHash",
      "outputs": [
        {
          "internalType": "bytes32",
          "name": "",
          "type": "bytes32"
        }
      ],
      "stateMutability": "view",
      "type": "function"
    },
    {
      "inputs": [],
      "name": "domainSeparator",
      "outputs": [
        {
          "internalType": "bytes32",
          "name": "",
          "type": "bytes32"
        }
      ],
      "stateMutability": "view",
      "type": "function"
    },
    {
      "inputs": [
        {
          "internalType": "address",
          "name": "user",
          "type": "address"
        }
      ],
      "name": "hasAccepted",
      "outputs": [
        {
          "internalType": "bool",
          "name": "",
          "type": "bool"
        }
      ],
      "stateMutability": "view",
      "type": "function"
    },
    {
      "inputs": [
        {
          "internalType": "uint256",
          "name": "seatId",
          "type": "uint256"
        }
      ],
      "name": "hasAcceptedSeat",
      "outputs": [
        {
          "internalType": "bool",
          "name": "",
          "type": "bool"
        }
      ],
      "stateMutability": "view",
      "type": "function"
    },
    {
      "inputs": [
        {
          "internalType": "address",
          "name": "",
          "type": "address"
        }
      ],
      "name": "nonces",
      "outputs": [
        {
          "internalType": "uint256",
          "name": "",
          "type": "uint256"
        }
      ],
      "stateMutability": "view",
      "type": "function"
    },
    {
      "inputs": [],
      "name": "owner",
      "outputs": [
        {
          "internalType": "address",
          "name": "",
          "type": "address"
        }
      ],
      "stateMutability": "view",
      "type": "function"
    },
    {
      "inputs": [
        {
          "internalType": "bytes32",
          "name": "_constitutionHash",
          "type": "bytes32"
        },
        {
          "internalType": "bytes32",
          "name": "_versionHash",
          "type": "bytes32"
        }
      ],
      "name": "setConstitution",
      "outputs": [],
      "stateMutability": "nonpayable",
      "type": "function"
    },
    {
      "inputs": [
        {
          "internalType": "address",
          "name": "newOwner",
          "type": "address"
        }
      ],
      "name": "transferOwnership",
      "outputs": [],
      "stateMutability": "nonpayable",
      "type": "function"
    },
    {
      "inputs": [],
      "name": "versionHash",
      "outputs": [
        {
          "internalType": "bytes32",
          "name": "",
          "type": "bytes32"
        }
      ],
      "stateMutability": "view",
      "type": "function"
    }
  ],
  "bytecode": "0x60803461009257601f610ae938819003918201601f19168301916001600160401b0383118484101761009757808492604094855283398101031261009257602081519101513360018060a01b031960005416176000558160015580600255604051917f277656689352aa78d61489ab0182c5a512fbc2073ea1d16f476040e91c45665f600080a3610a3b90816100ae8239f35b600080fd5b634e487b7160e01b600052604160045260246000fdfe608060408181526004918236101561001657600080fd5b600092833560e01c918263152b5c0f14610662575081634c1973af146106285781636921d741146104af57816369b4d6fe1461047257816372d7e356146104275781637b374f82146103cd5781637ecebe001461039557816389b533cd146103145781638da5cb5b146102ec5781639e957174146102c4578163a3f4df7e1461026f578163c7d93fd414610250578163eb6ffd20146101e0578163eccec5a8146101a3578163f2fde38b146100fb575063f698da25146100d557600080fd5b346100f757816003193601126100f7576020906100f0610826565b9051908152f35b5080fd5b90503461019f57602036600319011261019f5761011661067e565b8354916001600160a01b03808416926101303385146107ee565b1693841561017057505082907fb532073b38c83145e3e5135377a08bf9aab55bc0fd7c1179cd4fb995d2a5159c8580a36001600160a01b03191617815580f35b906020606492519162461bcd60e51b835282015260096024820152682d22a927afa0a2222960b91b6044820152fd5b8280fd5b5050346100f757816003193601126100f75780516101dc916101c4826106cb565b60018252603160f81b602083015251918291826106e7565b0390f35b5050346100f75760203660031901126100f7579081906001600160a01b0361020661067e565b168152600360205220906101dc67ffffffffffffffff835416916002600185015494015490519384938460409194939267ffffffffffffffff606083019616825260208201520152565b5050346100f757816003193601126100f7576020906001549051908152f35b5050346100f757816003193601126100f75780516101dc91610290826106cb565b601d82527f414c54414e20436f6e737469747574696f6e20416363657074616e6365000000602083015251918291826106e7565b8390346100f75760203660031901126100f7576102e99060015460025491353361091b565b80f35b5050346100f757816003193601126100f757905490516001600160a01b039091168152602090f35b90503461019f57602036600319011261019f576020928183923582528452209080805161034081610699565b67ffffffffffffffff84541690818152600260018601549586888401520154928391015215159283610389575b508261037d575b50519015158152f35b60025414915038610374565b6001541492503861036d565b5050346100f75760203660031901126100f75760209181906001600160a01b036103bd61067e565b1681526005845220549051908152f35b9190503461019f573660031901126100f75735602435906103f860018060a01b0384541633146107ee565b80600155816002557f277656689352aa78d61489ab0182c5a512fbc2073ea1d16f476040e91c45665f8380a380f35b90503461019f57602036600319011261019f578035835260209081529181902080546001820154600290920154925167ffffffffffffffff9091168152928301526040820152606090f35b5050346100f75760203660031901126100f75760209181906001600160a01b0361049a61067e565b16815260038452209080805161034081610699565b905082346106255760c0366003190112610625576104cb61067e565b6024356044359160643560ff8116809103610621576001600160a01b038281169182156105f2578542116105c1579186979891602061052898608088966001549b8c9b8a6002549e8f908a8852600589528b8820549c8d93610730565b908751918252848201526084358782015260a435606082015282805260015afa156105b75781908951160361058a576001830180931161057757876102e998995052600560205287205561091b565b634e487b7160e01b885260118952602488fd5b815162461bcd60e51b81526020818b015260076024820152664241445f53494760c81b6044820152606490fd5b82513d8a823e3d90fd5b885162461bcd60e51b81526020818a0152600b60248201526a14d251d7d156141254915160aa1b6044820152606490fd5b885162461bcd60e51b81526020818a015260096024820152682d22a927afaaa9a2a960b91b6044820152606490fd5b8480fd5b80fd5b5050346100f75760c03660031901126100f7576020906100f061064961067e565b60a4359060843590606435906044359060243590610730565b8490346100f757816003193601126100f7576020906002548152f35b600435906001600160a01b038216820361069457565b600080fd5b6060810190811067ffffffffffffffff8211176106b557604052565b634e487b7160e01b600052604160045260246000fd5b6040810190811067ffffffffffffffff8211176106b557604052565b6020808252825181830181905290939260005b82811061071c57505060409293506000838284010152601f8019910116010190565b8181018601518482016040015285016106fa565b9391949290946040519560208701957fe20cf6e255f7220020e90f94f56f370cfec5973d0366438bd48c3e6c6fead3da875260018060a01b031660408801526060870152608086015260a085015260c084015260e083015260e0825261010082019167ffffffffffffffff92818110848211176106b5576040525190206107b5610826565b9160405191602083019361190160f01b855260228401526042830152604282526080820190828210908211176106b55760405251902090565b156107f557565b60405162461bcd60e51b81526020600482015260096024820152682727aa2fa7aba722a960b91b6044820152606490fd5b7f414c54414e20436f6e737469747574696f6e20416363657074616e63650000006020604051610855816106cb565b601d81520152603160f81b602060405161086e816106cb565b60018152015260405160208101907f8b73c3c69bb8fe3d512ecc4cf759cc79239f7b179b0ffacaa9a75d522b39400f82527f9b0c3f60de9d3a57474b6830ecaa3f96458c623afa6c1f4af57846212985f53a60408201527fc89efdaa54c0f20c7adf612882df0950f5a951637e0307cdcb4c672f298b8bc660608201524660808201523060a082015260a0815260c0810181811067ffffffffffffffff8211176106b55760405251902090565b9091927fbcd0b384fef7c143643f59967eac7747a3aebb65a8e9560e1af39e0d79e4584c9067ffffffffffffffff9081421660409283519061095c82610699565b8282526020820191898352600286820198868a5260018060a01b03169889600052600360205283886000209351169467ffffffffffffffff19958685541617845551600184015551910155876109bc575b505082519182526020820152a4565b6002908551926109cb84610699565b84845260208401908b8252878501928784528b600052600460205288600020955116908554161784555160018401555191015538806109ad56fea264697066735822122042fd5907a10b022c9e28bed79cdeba7dd14875a92e192a6076d10f9bda8122e664736f6c63430008180033",
  "linkReferences": {},
  "deployedLinkReferences": {}
}