{
  "_format": "hh-sol-artifact-1",
  "contractName": "ZunResolution",
  "sourceName": "contracts/ZunResolution.sol",
  "abi": [
    {
      "inputs": [
        {
          "internalType": "address",
          "name": "registry_",
          "type": "address"
        },
        {
          "internalType": "uint256",
          "name": "zunId_",
          "type": "uint256"
        },
        {
          "internalType": "bytes32",
          "name": "docHash_",
          "type": "bytes32"
        },
        {
          "internalType": "address",
          "name": "notary_",
          "type": "address"
        }
      ],
      "stateMutability": "nonpayable",
      "type": "constructor"
    },
    {
      "inputs": [],
      "name": "AlreadySigned",
      "type": "error"
    },
    {
      "inputs": [],
      "name": "FinalizedAlready",
      "type": "error"
    },
    {
      "inputs": [],
      "name": "NotEnoughSignatures",
      "type": "error"
    },
    {
      "inputs": [],
      "name": "NotLeaderOfThisZun",
      "type": "error"
    },
    {
      "anonymous": false,
      "inputs": [
        {
          "indexed": true,
          "internalType": "uint256",
          "name": "zunId",
          "type": "uint256"
        }
      ],
      "name": "Finalized",
      "type": "event"
    },
    {
      "anonymous": false,
      "inputs": [
        {
          "indexed": true,
          "internalType": "address",
          "name": "signer",
          "type": "address"
        },
        {
          "indexed": false,
          "internalType": "uint256",
          "name": "signedCount",
          "type": "uint256"
        }
      ],
      "name": "Signed",
      "type": "event"
    },
    {
      "inputs": [],
      "name": "docHash",
      "outputs": [
        {
          "internalType": "bytes32",
          "name": "",
          "type": "bytes32"
        }
      ],
      "stateMutability": "view",
      "type": "function"
    },
    {
      "inputs": [],
      "name": "finalize",
      "outputs": [],
      "stateMutability": "nonpayable",
      "type": "function"
    },
    {
      "inputs": [],
      "name": "finalized",
      "outputs": [
        {
          "internalType": "bool",
          "name": "",
          "type": "bool"
        }
      ],
      "stateMutability": "view",
      "type": "function"
    },
    {
      "inputs": [],
      "name": "notary",
      "outputs": [
        {
          "internalType": "address",
          "name": "",
          "type": "address"
        }
      ],
      "stateMutability": "view",
      "type": "function"
    },
    {
      "inputs": [],
      "name": "registry",
      "outputs": [
        {
          "internalType": "contract IStructureRegistry",
          "name": "",
          "type": "address"
        }
      ],
      "stateMutability": "view",
      "type": "function"
    },
    {
      "inputs": [],
      "name": "sign",
      "outputs": [],
      "stateMutability": "nonpayable",
      "type": "function"
    },
    {
      "inputs": [
        {
          "internalType": "address",
          "name": "",
          "type": "address"
        }
      ],
      "name": "signed",
      "outputs": [
        {
          "internalType": "bool",
          "name": "",
          "type": "bool"
        }
      ],
      "stateMutability": "view",
      "type": "function"
    },
    {
      "inputs": [],
      "name": "signedCount",
      "outputs": [
        {
          "internalType": "uint256",
          "name": "",
          "type": "uint256"
        }
      ],
      "stateMutability": "view",
      "type": "function"
    },
    {
      "inputs": [],
      "name": "zunId",
      "outputs": [
        {
          "internalType": "uint256",
          "name": "",
          "type": "uint256"
        }
      ],
      "stateMutability": "view",
      "type": "function"
    }
  ],
  "bytecode": "0x610100346100c357601f61081838819003918201601f19168301916001600160401b038311848410176100c8578084926080946040528339810103126100c357610048816100de565b90602081015161005f6060604084015193016100de565b6001600160a01b0390931660805260a05260c05260e05260405161072590816100f3823960805181818161013d015281816101f901526105a1015260a051818181609e015281816101c501526105d4015260c05181610390015260e0518160fa0152f35b600080fd5b634e487b7160e01b600052604160045260246000fd5b51906001600160a01b03821682036100c35756fe608060408181526004918236101561001657600080fd5b600092833560e01c9182630555ff4114610474575081632ca15122146103b35781633d6df0d5146103785781634bb278f31461018a575080635f3d8f4a1461016c5780637b103999146101295780639d54c79d146100e6578063b3f05b97146100c55763bbe648c61461008857600080fd5b346100c157816003193601126100c157602090517f00000000000000000000000000000000000000000000000000000000000000008152f35b5080fd5b50346100c157816003193601126100c15760ff602092541690519015158152f35b50346100c157816003193601126100c157517f00000000000000000000000000000000000000000000000000000000000000006001600160a01b03168152602090f35b50346100c157816003193601126100c157517f00000000000000000000000000000000000000000000000000000000000000006001600160a01b03168152602090f35b50346100c157816003193601126100c1576020906002549051908152f35b90503461037457826003193601126103745782549060ff9260ff831661036757600a90600a60025410610358578051631a4e7cb360e11b81527f0000000000000000000000000000000000000000000000000000000000000000848201819052956024916001600160a01b03907f00000000000000000000000000000000000000000000000000000000000000008216906101409081818781865afa91821561034e578c92610321575b50508a5b8781106102725760ff198a166001178c558b8b7f839cf22e1ba87ce2f5b9bbf46cf0175a09eed52febdfaac8852478e68203c7638280a280f35b8b61027d8284610550565b51885190637b58b8f360e01b82528b82015260209081818a81895afa9081156103175790879184916102ea575b501680159283156102d5575b5050506102c557600101610238565b865163e246dc6360e01b81528990fd5b60019350525284878d2054161538808e6102b6565b61030a9150833d8511610310575b61030281836104b4565b810190610577565b386102aa565b503d6102f8565b8a513d85823e3d90fd5b6103409250803d10610347575b61033881836104b4565b8101906104ec565b3880610234565b503d61032e565b87513d8e823e3d90fd5b5163e246dc6360e01b81529050fd5b51632b372a4360e01b8152fd5b8280fd5b5050346100c157816003193601126100c157602090517f00000000000000000000000000000000000000000000000000000000000000008152f35b9190503461037457826003193601126103745760ff83541661036757338352600160205260ff8184205416610467576103eb33610596565b1561045a573383526001602052808320600160ff198254161790556002549160018301809311610447575081600255519081527ff4b7ab5b8fc49d6d35d323cae6a96e1441b461f862dfc5aff92e806e2839b5b060203392a280f35b634e487b7160e01b845260119052602483fd5b5163fe6f104360e01b8152fd5b5163585eb56560e11b8152fd5b929150346104b05760203660031901126104b057356001600160a01b038116908190036104b05783526001602090815292205460ff1615158152f35b8380fd5b90601f8019910116810190811067ffffffffffffffff8211176104d657604052565b634e487b7160e01b600052604160045260246000fd5b90610140808383031261054b5781601f8401121561054b576040519281840184811067ffffffffffffffff8211176104d6576040528391810192831161054b57905b82821061053b5750505090565b815181526020918201910161052e565b600080fd5b90600a8110156105615760051b0190565b634e487b7160e01b600052603260045260246000fd5b9081602091031261054b57516001600160a01b038116810361054b5790565b60018060a01b0390817f0000000000000000000000000000000000000000000000000000000000000000169160408051631a4e7cb360e11b815260047f00000000000000000000000000000000000000000000000000000000000000006004830152610140956024928781602481855afa9788156106e3576000986106c4575b505060005b600a8110610630575050505050505050600090565b61063a8189610550565b51855190637b58b8f360e01b82528482015260209081818781875afa9182156106b9579088929160009261069c575b50501686881681149081610692575b506106855760010161061b565b5050505050505050600190565b9050151538610678565b6106b29250803d106103105761030281836104b4565b3880610669565b87513d6000823e3d90fd5b6106db929850803d106103475761033881836104b4565b953880610616565b6040513d6000823e3d90fdfea2646970667358221220c1675e6f8c8df4ca3796b2b577f1a0ba10869d2bb38f6f0c883488e5e4527d4d64736f6c63430008180033",
  "linkReferences": {},
  "deployedLinkReferences": {}
}