{
  "_format": "hh-sol-artifact-1",
  "contractName": "ArbanRegistry",
  "sourceName": "contracts/ArbanRegistry.sol",
  "abi": [
    {
      "inputs": [
        {
          "internalType": "address",
          "name": "organization_",
          "type": "address"
        },
        {
          "internalType": "address",
          "name": "seatSbt_",
          "type": "address"
        },
        {
          "internalType": "address",
          "name": "structureRegistry_",
          "type": "address"
        }
      ],
      "stateMutability": "nonpayable",
      "type": "constructor"
    },
    {
      "inputs": [],
      "name": "AccessControlBadConfirmation",
      "type": "error"
    },
    {
      "inputs": [
        {
          "internalType": "address",
          "name": "account",
          "type": "address"
        },
        {
          "internalType": "bytes32",
          "name": "neededRole",
          "type": "bytes32"
        }
      ],
      "name": "AccessControlUnauthorizedAccount",
      "type": "error"
    },
    {
      "inputs": [
        {
          "internalType": "uint256",
          "name": "arbanId",
          "type": "uint256"
        }
      ],
      "name": "ArbanNotFound",
      "type": "error"
    },
    {
      "inputs": [],
      "name": "DuplicateSeatId",
      "type": "error"
    },
    {
      "inputs": [],
      "name": "InvalidCount",
      "type": "error"
    },
    {
      "inputs": [],
      "name": "InvalidSeatId",
      "type": "error"
    },
    {
      "inputs": [],
      "name": "NotAuthorizedJoinDoc",
      "type": "error"
    },
    {
      "inputs": [],
      "name": "NotAuthorizedUpdater",
      "type": "error"
    },
    {
      "inputs": [],
      "name": "NotOwner",
      "type": "error"
    },
    {
      "inputs": [
        {
          "internalType": "uint256",
          "name": "seatId",
          "type": "uint256"
        }
      ],
      "name": "NotSeatOwner",
      "type": "error"
    },
    {
      "inputs": [
        {
          "internalType": "uint256",
          "name": "seatId",
          "type": "uint256"
        },
        {
          "internalType": "uint256",
          "name": "arbanId",
          "type": "uint256"
        }
      ],
      "name": "SeatAlreadyInArban",
      "type": "error"
    },
    {
      "inputs": [],
      "name": "ZeroAddress",
      "type": "error"
    },
    {
      "anonymous": false,
      "inputs": [
        {
          "indexed": true,
          "internalType": "uint256",
          "name": "arbanId",
          "type": "uint256"
        },
        {
          "indexed": true,
          "internalType": "address",
          "name": "arban",
          "type": "address"
        },
        {
          "indexed": true,
          "internalType": "address",
          "name": "leader",
          "type": "address"
        },
        {
          "indexed": false,
          "internalType": "uint256[]",
          "name": "seatIds",
          "type": "uint256[]"
        }
      ],
      "name": "ArbanCreated",
      "type": "event"
    },
    {
      "anonymous": false,
      "inputs": [
        {
          "indexed": true,
          "internalType": "uint256",
          "name": "arbanId",
          "type": "uint256"
        },
        {
          "indexed": true,
          "internalType": "address",
          "name": "oldLeader",
          "type": "address"
        },
        {
          "indexed": true,
          "internalType": "address",
          "name": "newLeader",
          "type": "address"
        }
      ],
      "name": "ArbanLeaderSet",
      "type": "event"
    },
    {
      "anonymous": false,
      "inputs": [
        {
          "indexed": true,
          "internalType": "address",
          "name": "doc",
          "type": "address"
        },
        {
          "indexed": false,
          "internalType": "bool",
          "name": "allowed",
          "type": "bool"
        }
      ],
      "name": "JoinDocAuthorized",
      "type": "event"
    },
    {
      "anonymous": false,
      "inputs": [
        {
          "indexed": true,
          "internalType": "address",
          "name": "newOwner",
          "type": "address"
        }
      ],
      "name": "OwnerSet",
      "type": "event"
    },
    {
      "anonymous": false,
      "inputs": [
        {
          "indexed": true,
          "internalType": "bytes32",
          "name": "role",
          "type": "bytes32"
        },
        {
          "indexed": true,
          "internalType": "bytes32",
          "name": "previousAdminRole",
          "type": "bytes32"
        },
        {
          "indexed": true,
          "internalType": "bytes32",
          "name": "newAdminRole",
          "type": "bytes32"
        }
      ],
      "name": "RoleAdminChanged",
      "type": "event"
    },
    {
      "anonymous": false,
      "inputs": [
        {
          "indexed": true,
          "internalType": "bytes32",
          "name": "role",
          "type": "bytes32"
        },
        {
          "indexed": true,
          "internalType": "address",
          "name": "account",
          "type": "address"
        },
        {
          "indexed": true,
          "internalType": "address",
          "name": "sender",
          "type": "address"
        }
      ],
      "name": "RoleGranted",
      "type": "event"
    },
    {
      "anonymous": false,
      "inputs": [
        {
          "indexed": true,
          "internalType": "bytes32",
          "name": "role",
          "type": "bytes32"
        },
        {
          "indexed": true,
          "internalType": "address",
          "name": "account",
          "type": "address"
        },
        {
          "indexed": true,
          "internalType": "address",
          "name": "sender",
          "type": "address"
        }
      ],
      "name": "RoleRevoked",
      "type": "event"
    },
    {
      "anonymous": false,
      "inputs": [
        {
          "indexed": true,
          "internalType": "address",
          "name": "structureRegistry",
          "type": "address"
        }
      ],
      "name": "StructureRegistrySet",
      "type": "event"
    },
    {
      "anonymous": false,
      "inputs": [
        {
          "indexed": true,
          "internalType": "address",
          "name": "upd",
          "type": "address"
        },
        {
          "indexed": false,
          "internalType": "bool",
          "name": "allowed",
          "type": "bool"
        }
      ],
      "name": "UpdaterAuthorized",
      "type": "event"
    },
    {
      "inputs": [],
      "name": "ADMIN_ROLE",
      "outputs": [
        {
          "internalType": "bytes32",
          "name": "",
          "type": "bytes32"
        }
      ],
      "stateMutability": "view",
      "type": "function"
    },
    {
      "inputs": [],
      "name": "DEFAULT_ADMIN_ROLE",
      "outputs": [
        {
          "internalType": "bytes32",
          "name": "",
          "type": "bytes32"
        }
      ],
      "stateMutability": "view",
      "type": "function"
    },
    {
      "inputs": [
        {
          "internalType": "uint256",
          "name": "arbanId",
          "type": "uint256"
        },
        {
          "internalType": "address",
          "name": "newLeader",
          "type": "address"
        }
      ],
      "name": "applyArbanLeader",
      "outputs": [],
      "stateMutability": "nonpayable",
      "type": "function"
    },
    {
      "inputs": [
        {
          "internalType": "uint256",
          "name": "",
          "type": "uint256"
        }
      ],
      "name": "arbanAddress",
      "outputs": [
        {
          "internalType": "address",
          "name": "",
          "type": "address"
        }
      ],
      "stateMutability": "view",
      "type": "function"
    },
    {
      "inputs": [
        {
          "internalType": "uint256",
          "name": "",
          "type": "uint256"
        }
      ],
      "name": "arbanOfSeat",
      "outputs": [
        {
          "internalType": "uint256",
          "name": "",
          "type": "uint256"
        }
      ],
      "stateMutability": "view",
      "type": "function"
    },
    {
      "inputs": [
        {
          "internalType": "address",
          "name": "",
          "type": "address"
        }
      ],
      "name": "authorizedJoinDocs",
      "outputs": [
        {
          "internalType": "bool",
          "name": "",
          "type": "bool"
        }
      ],
      "stateMutability": "view",
      "type": "function"
    },
    {
      "inputs": [
        {
          "internalType": "address",
          "name": "",
          "type": "address"
        }
      ],
      "name": "authorizedUpdaters",
      "outputs": [
        {
          "internalType": "bool",
          "name": "",
          "type": "bool"
        }
      ],
      "stateMutability": "view",
      "type": "function"
    },
    {
      "inputs": [
        {
          "internalType": "uint256[]",
          "name": "seatIds",
          "type": "uint256[]"
        },
        {
          "internalType": "address",
          "name": "leader",
          "type": "address"
        }
      ],
      "name": "createArban",
      "outputs": [
        {
          "internalType": "uint256",
          "name": "arbanId",
          "type": "uint256"
        },
        {
          "internalType": "address",
          "name": "arban",
          "type": "address"
        }
      ],
      "stateMutability": "nonpayable",
      "type": "function"
    },
    {
      "inputs": [
        {
          "internalType": "uint256",
          "name": "arbanId",
          "type": "uint256"
        },
        {
          "internalType": "address",
          "name": "leader",
          "type": "address"
        },
        {
          "internalType": "uint256[]",
          "name": "seatIds",
          "type": "uint256[]"
        }
      ],
      "name": "finalizeArbanJoin",
      "outputs": [],
      "stateMutability": "nonpayable",
      "type": "function"
    },
    {
      "inputs": [
        {
          "internalType": "uint256",
          "name": "arbanId",
          "type": "uint256"
        }
      ],
      "name": "getMembers",
      "outputs": [
        {
          "internalType": "uint256[]",
          "name": "",
          "type": "uint256[]"
        }
      ],
      "stateMutability": "view",
      "type": "function"
    },
    {
      "inputs": [
        {
          "internalType": "bytes32",
          "name": "role",
          "type": "bytes32"
        }
      ],
      "name": "getRoleAdmin",
      "outputs": [
        {
          "internalType": "bytes32",
          "name": "",
          "type": "bytes32"
        }
      ],
      "stateMutability": "view",
      "type": "function"
    },
    {
      "inputs": [
        {
          "internalType": "bytes32",
          "name": "role",
          "type": "bytes32"
        },
        {
          "internalType": "address",
          "name": "account",
          "type": "address"
        }
      ],
      "name": "grantRole",
      "outputs": [],
      "stateMutability": "nonpayable",
      "type": "function"
    },
    {
      "inputs": [
        {
          "internalType": "bytes32",
          "name": "role",
          "type": "bytes32"
        },
        {
          "internalType": "address",
          "name": "account",
          "type": "address"
        }
      ],
      "name": "hasRole",
      "outputs": [
        {
          "internalType": "bool",
          "name": "",
          "type": "bool"
        }
      ],
      "stateMutability": "view",
      "type": "function"
    },
    {
      "inputs": [
        {
          "internalType": "uint256",
          "name": "",
          "type": "uint256"
        }
      ],
      "name": "leaderOfArban",
      "outputs": [
        {
          "internalType": "address",
          "name": "",
          "type": "address"
        }
      ],
      "stateMutability": "view",
      "type": "function"
    },
    {
      "inputs": [
        {
          "internalType": "uint256",
          "name": "arbanId",
          "type": "uint256"
        }
      ],
      "name": "memberCount",
      "outputs": [
        {
          "internalType": "uint256",
          "name": "",
          "type": "uint256"
        }
      ],
      "stateMutability": "view",
      "type": "function"
    },
    {
      "inputs": [],
      "name": "nextArbanId",
      "outputs": [
        {
          "internalType": "uint256",
          "name": "",
          "type": "uint256"
        }
      ],
      "stateMutability": "view",
      "type": "function"
    },
    {
      "inputs": [],
      "name": "organization",
      "outputs": [
        {
          "internalType": "address",
          "name": "",
          "type": "address"
        }
      ],
      "stateMutability": "view",
      "type": "function"
    },
    {
      "inputs": [],
      "name": "owner",
      "outputs": [
        {
          "internalType": "address",
          "name": "",
          "type": "address"
        }
      ],
      "stateMutability": "view",
      "type": "function"
    },
    {
      "inputs": [
        {
          "internalType": "bytes32",
          "name": "role",
          "type": "bytes32"
        },
        {
          "internalType": "address",
          "name": "callerConfirmation",
          "type": "address"
        }
      ],
      "name": "renounceRole",
      "outputs": [],
      "stateMutability": "nonpayable",
      "type": "function"
    },
    {
      "inputs": [
        {
          "internalType": "bytes32",
          "name": "role",
          "type": "bytes32"
        },
        {
          "internalType": "address",
          "name": "account",
          "type": "address"
        }
      ],
      "name": "revokeRole",
      "outputs": [],
      "stateMutability": "nonpayable",
      "type": "function"
    },
    {
      "inputs": [],
      "name": "seatSbt",
      "outputs": [
        {
          "internalType": "address",
          "name": "",
          "type": "address"
        }
      ],
      "stateMutability": "view",
      "type": "function"
    },
    {
      "inputs": [
        {
          "internalType": "address",
          "name": "doc",
          "type": "address"
        },
        {
          "internalType": "bool",
          "name": "ok",
          "type": "bool"
        }
      ],
      "name": "setJoinDoc",
      "outputs": [],
      "stateMutability": "nonpayable",
      "type": "function"
    },
    {
      "inputs": [
        {
          "internalType": "address",
          "name": "newOwner",
          "type": "address"
        }
      ],
      "name": "setOwner",
      "outputs": [],
      "stateMutability": "nonpayable",
      "type": "function"
    },
    {
      "inputs": [
        {
          "internalType": "address",
          "name": "sr",
          "type": "address"
        }
      ],
      "name": "setStructureRegistry",
      "outputs": [],
      "stateMutability": "nonpayable",
      "type": "function"
    },
    {
      "inputs": [
        {
          "internalType": "address",
          "name": "upd",
          "type": "address"
        },
        {
          "internalType": "bool",
          "name": "ok",
          "type": "bool"
        }
      ],
      "name": "setUpdater",
      "outputs": [],
      "stateMutability": "nonpayable",
      "type": "function"
    },
    {
      "inputs": [],
      "name": "structureRegistry",
      "outputs": [
        {
          "internalType": "address",
          "name": "",
          "type": "address"
        }
      ],
      "stateMutability": "view",
      "type": "function"
    },
    {
      "inputs": [
        {
          "internalType": "bytes4",
          "name": "interfaceId",
          "type": "bytes4"
        }
      ],
      "name": "supportsInterface",
      "outputs": [
        {
          "internalType": "bool",
          "name": "",
          "type": "bool"
        }
      ],
      "stateMutability": "view",
      "type": "function"
    }
  ],
  "bytecode": "0x60c0346200015957601f6200245138819003918201601f19168301916001600160401b038311848410176200015e5780849260609460405283398101031262000159576200004d8162000174565b906200006a6040620000626020840162000174565b920162000174565b60016003556001600160a01b039180831615620001475760018060a01b0319933385600154161760015560805260a0521680916002541617600255620000b03362000189565b50620000bc3362000209565b5060405190337f50146d0e3c60aa1d17a70635b05494f864e86144a2201275021014fbf08bafe2600080a27f9d8e607abeee7c37c8f203cd775f3df4578d712649daaf68fc5a4773612f0018600080a26121859081620002ac823960805181818161044801528181610daa015261117a015260a0518181816103d801528181610c9a015261119f0152f35b60405163d92e233d60e01b8152600490fd5b600080fd5b634e487b7160e01b600052604160045260246000fd5b51906001600160a01b03821682036200015957565b6001600160a01b031660008181527fad3228b676f7d3cd4284a5443f17f1962b36e491b30a40b2405849e597ba5fb5602052604081205490919060ff166200020557818052816020526040822081835260205260408220600160ff198254161790553391600080516020620024318339815191528180a4600190565b5090565b6001600160a01b031660008181527f7d7ffb7a348e1c6a02869081a26547b49160dd3df72d1d75a570eb9b698292ec60205260408120549091907fa49807205ce4d355092ef5a8a18f56e8913cf4a201fbe287825b095693c217759060ff16620002a657808352826020526040832082845260205260408320600160ff1982541617905560008051602062002431833981519152339380a4600190565b50509056fe608060408181526004803610156200001657600080fd5b600092833560e01c90816301ffc9a71462001288575080630d6110561462000ee757806313af40351462000e535780631a1533911462000dd957806323bd4d7a1462000d93578063248a9ca31462000d6857806324de06ed1462000d475780632f2ff15d1462000d1757806336568abe1462000cc9578063388841b11462000c8357806350d50f491462000be1578063577d5f2b1462000a385780636c3783341462000a0d5780636e8165e814620009af57806375b238fc14620009725780638814b83b14620009305780638bba9e7814620008fc5780638da5cb5b14620008d15780638ff29cfe146200088f57806391d148541462000846578063a217fddf1462000829578063b2b4eeea146200036f578063b615a21a1462000346578063c477ecab1462000266578063c90d625414620001e4578063d547741f146200019e5763f52fdb36146200016857600080fd5b346200019a5760203660031901126200019a57803583526020908152918190205490516001600160a01b039091168152f35b8280fd5b5090346200019a57806003193601126200019a57620001e09135620001da6001620001c8620012e1565b93838752866020528620015462001445565b62001509565b5080f35b50346200019a5760203660031901126200019a5762000202620012fd565b6001546001600160a01b039391929190841633036200025957505016806001600160601b0360a01b60025416176002557f9d8e607abeee7c37c8f203cd775f3df4578d712649daaf68fc5a4773612f00188280a280f35b516330cd747160e01b8152fd5b5082346200034357602091826003193601126200033f578035808352818452848320549091906001600160a01b0316156200032a5750819392935260078352818120908251808584549182815201908194845286842090845b818110620003155750505081620002d891038262001422565b83519485948186019282875251809352850193925b828110620002fd57505050500390f35b835185528695509381019392810192600101620002ed565b825484529288019260019283019201620002bf565b60249185519163033d81cb60e51b8352820152fd5b5080fd5b80fd5b50346200019a5760203660031901126200019a5760209282913581526005845220549051908152f35b50346200019a57816003193601126200019a5767ffffffffffffffff81358181116200082557620003a4903690840162001314565b9190620003b0620012e1565b956001600160a01b039586881692831562000815576002861080156200080a575b620007fa577f000000000000000000000000000000000000000000000000000000000000000094888616845b888110620006a65750506003549562000416876200137a565b600355835191610bd080840191821184831017620006935788849362000489938f936200158087396001600160a01b037f00000000000000000000000000000000000000000000000000000000000000008116825291821660208201526040810192909252909116606082015260800190565b039084f080156200068757881695858452602099888b52838520986001600160601b0360a01b99898b825416179055855b838110620005f9575087865260068c528486208781549b8c161790558a60025416908162000588575b505083518b81529a8b01829052506001600160fb1b0381116200058457918487877feae4e8dad0af89aea0915f6dd8f6501dc7b99006eaacaa299455d070d2b79a828d85620005809d9e9f7f8d0e4b93b365b4a0643b2389408b7fa889dafbd71a905a7848245e03d1d4260b98859a60051b8091848401378101030190a451988998169280a483526001600160a01b031660208301526040820190565b0390f35b8380fd5b813b15620005f557855163e2f11d4760e01b81529081018981526001600160a01b039093166020840152918691839182908490829060400103925af18015620005eb57620005d9575b8080620004e3565b620005e4906200140d565b38620005d1565b84513d87823e3d90fd5b8680fd5b8c600762000609838789620013a0565b3591828a52600581528b898b20558b8a52526200062981888a20620013c7565b8a3b1562000683578651631089f5ed60e01b8152838101919091528781602481838f5af180156200067957906001929162000667575b5001620004ba565b62000672906200140d565b386200065f565b87513d8a823e3d90fd5b8780fd5b505051903d90823e3d90fd5b634e487b7160e01b875260418b52602487fd5b620006b3818a86620013a0565b358015620007ea576001808301808411620007d7575b8b8110620007aa5750508087526020906005825286882054806200078d575086516331a9108f60e11b81528c81018290526024929081818581895afa91821562000783578a9262000741575b50508d339116036200072c575050600101620003fd565b8651630134c91f60e11b8152808d0191909152fd5b90809250813d83116200077b575b6200075b818362001422565b810103126200077757518d811681036200077757388062000715565b8880fd5b503d6200074f565b89513d8c823e3d90fd5b87516332214c3160e21b8152808e01929092526024820152604490fd5b620007b7818d89620013a0565b358314620007c7578101620006c9565b875163d280c39d60e01b81528d90fd5b634e487b7160e01b895260118d52602489fd5b85516371d8cefb60e01b81528b90fd5b8151631a49577b60e11b81528790fd5b50600a8611620003d1565b815163d92e233d60e01b81528790fd5b8480fd5b5050346200033f57816003193601126200033f5751908152602090f35b50346200019a57816003193601126200019a578160209360ff926200086a620012e1565b903582528186528282206001600160a01b039091168252855220549151911615158152f35b5050346200033f5760203660031901126200033f5760209160ff9082906001600160a01b03620008be620012fd565b1681526009855220541690519015158152f35b5050346200033f57816003193601126200033f5760015490516001600160a01b039091168152602090f35b50346200019a5760203660031901126200019a5735825260066020908152918190205490516001600160a01b039091168152f35b5050346200033f5760203660031901126200033f5760209160ff9082906001600160a01b036200095f620012fd565b1681526008855220541690519015158152f35b5050346200033f57816003193601126200033f57602090517fa49807205ce4d355092ef5a8a18f56e8913cf4a201fbe287825b095693c217758152f35b50346200019a5760203660031901126200019a5780358084526020829052828420549091906001600160a01b031615620009f85750828291602094526007845220549051908152f35b915163033d81cb60e51b815291820152602490fd5b5050346200033f57816003193601126200033f5760025490516001600160a01b039091168152602090f35b50346200019a57816003193601126200019a5780359062000a58620012e1565b92338552600960205260ff81862054161562000bd4578285526020829052808520546001600160a01b039290831691821562000bbe5783861695861562000bb057858852600660205281882080546001600160a01b03198116891790915593889190803b156200019a5782809160248b87519485938492630305dd9960e01b84528b8401525af1801562000ba65762000b94575b5085600254168062000b27575b505050505016907f8d0e4b93b365b4a0643b2389408b7fa889dafbd71a905a7848245e03d1d4260b8480a480f35b803b156200019a57835163e2f11d4760e01b81529485018881526001600160a01b039092166020830152849182908490829060400103925af190811562000b8b575062000b79575b8086818062000af9565b62000b84906200140d565b3862000b6f565b513d88823e3d90fd5b62000b9f906200140d565b3862000aec565b84513d85823e3d90fd5b505163d92e233d60e01b8152fd5b5163033d81cb60e51b8152908101849052602490fd5b5163320db8e160e01b8152fd5b5090346200019a5762000bf43662001348565b6001549092916001600160a01b03918216330362000c73571692831562000c6557507f2d4f3ac69283e35c7b9ebb4336e1ea359f84b36a1f221af238eafe76050b97d2916020918486526008835262000c5b828288209060ff801983541691151516179055565b519015158152a280f35b905163d92e233d60e01b8152fd5b82516330cd747160e01b81528590fd5b5050346200033f57816003193601126200033f57517f00000000000000000000000000000000000000000000000000000000000000006001600160a01b03168152602090f35b509190346200033f57806003193601126200033f5762000ce8620012e1565b90336001600160a01b0383160362000d085750620001e091923562001509565b5163334bd91960e11b81528390fd5b5090346200019a57806003193601126200019a57620001e0913562000d416001620001c8620012e1565b6200148a565b5050346200033f57816003193601126200033f576020906003549051908152f35b50346200019a5760203660031901126200019a57816020936001923581528085522001549051908152f35b5050346200033f57816003193601126200033f57517f00000000000000000000000000000000000000000000000000000000000000006001600160a01b03168152602090f35b5090346200019a5762000dec3662001348565b6001549092916001600160a01b03918216330362000c73571692831562000c6557507f5c001b1d70af3e0a09eed53bc0588d57fec6d23196319ba29c6313eb3321273c916020918486526009835262000c5b828288209060ff801983541691151516179055565b50346200019a5760203660031901126200019a5762000e71620012fd565b60015491906001600160a01b0390818416330362000ed7571692831562000eca5750506001600160a01b03191681176001557f50146d0e3c60aa1d17a70635b05494f864e86144a2201275021014fbf08bafe28280a280f35b5163d92e233d60e01b8152fd5b84516330cd747160e01b81528390fd5b50346200019a5760603660031901126200019a5780359062000f08620012e1565b6044916044359467ffffffffffffffff95868111620006835762000f30903690840162001314565b93903389526020906008825260ff848b2054161562001278576001600160a01b03838116999097908a1562001268576002881080156200125d575b6200124d57908b949392918a86528784528987872054161562001135575b5089855286835288868620541697855b8181106200102d57505050888452506006905282822080546001600160a01b031981168a1790915594803b156200019a5782809160248b87519485938492630305dd9960e01b84528b8401525af1801562000ba65762000b94575085600254168062000b2757505050505016907f8d0e4b93b365b4a0643b2389408b7fa889dafbd71a905a7848245e03d1d4260b8480a480f35b9091929394955062001041818386620013a0565b3580156200112557808e526005808752888f205480159081158f8162001119575b50620010fe5750908f989796959493929162001084575b505060010162000f99565b81895286528c898920558c885260078652620010a3818a8a20620013c7565b8a3b1562000683578851631089f5ed60e01b8152808b01919091528781602481838f5af18015620010f4579060019291620010e2575b81925062001079565b620010ed906200140d565b38620010d9565b89513d8a823e3d90fd5b8b8791858d51926332214c3160e21b84528301526024820152fd5b90508114158f62001062565b87516371d8cefb60e01b81528990fd5b9091929394506003548a036200123657855190610bd080830191821183831017620012235791620011da878f989796959483948f916200158086396001600160a01b037f0000000000000000000000000000000000000000000000000000000000000000811682527f00000000000000000000000000000000000000000000000000000000000000008116602083015260408201929092529116606082015260800190565b039086f0801562001219578a86528784528987872091166001600160601b0360a01b8254161790556200120f6003546200137a565b6003553862000f89565b86513d87823e3d90fd5b634e487b7160e01b8e526041895260248efd5b855163033d81cb60e51b81528088018b9052602490fd5b8551631a49577b60e11b81528790fd5b50600a881162000f6b565b855163d92e233d60e01b81528790fd5b50505051636a845bd960e11b8152fd5b925050346200019a5760203660031901126200019a573563ffffffff60e01b81168091036200019a5760209250637965db0b60e01b8114908115620012cf575b5015158152f35b6301ffc9a760e01b14905038620012c8565b602435906001600160a01b0382168203620012f857565b600080fd5b600435906001600160a01b0382168203620012f857565b9181601f84011215620012f85782359167ffffffffffffffff8311620012f8576020808501948460051b010111620012f857565b6040906003190112620012f8576004356001600160a01b0381168103620012f857906024358015158103620012f85790565b60001981146200138a5760010190565b634e487b7160e01b600052601160045260246000fd5b9190811015620013b15760051b0190565b634e487b7160e01b600052603260045260246000fd5b80549068010000000000000000821015620013f75760018201808255821015620013b15760005260206000200155565b634e487b7160e01b600052604160045260246000fd5b67ffffffffffffffff8111620013f757604052565b90601f8019910116810190811067ffffffffffffffff821117620013f757604052565b80600052600060205260406000203360005260205260ff60406000205416156200146c5750565b6044906040519063e2517d3f60e01b82523360048301526024820152fd5b9060009180835282602052604083209160018060a01b03169182845260205260ff604084205416156000146200150457808352826020526040832082845260205260408320600160ff198254161790557f2f8788117e7eff1d82e926ec794901d17c78024a50270940304540a733656f0d339380a4600190565b505090565b9060009180835282602052604083209160018060a01b03169182845260205260ff604084205416600014620015045780835282602052604083208284526020526040832060ff1981541690557ff6391f5c32d9c69d2a47ea670b442974b53935d1edc7fd64eb21e047a839171b339380a460019056fe60e0346100e457601f610bd038819003918201601f19168301916001600160401b038311848410176100e9578084926080946040528339810103126100e457610047816100ff565b90610054602082016100ff565b6100656060604084015193016100ff565b916001600160a01b038084169283156100d257816100a796166080521660a05260c05260018060a01b031960015416176001556100a181610113565b50610191565b5060405161097e90816102328239608051816103d6015260a051816102a7015260c0518161053d0152f35b60405163538ba4f960e01b8152600490fd5b600080fd5b634e487b7160e01b600052604160045260246000fd5b51906001600160a01b03821682036100e457565b6001600160a01b031660008181527fad3228b676f7d3cd4284a5443f17f1962b36e491b30a40b2405849e597ba5fb5602052604081205490919060ff1661018d57818052816020526040822081835260205260408220600160ff198254161790553391600080516020610bb08339815191528180a4600190565b5090565b6001600160a01b031660008181527fe34ee107d4eab1ddc75517d203004c4945b8356755ef72e04f7037b09e288f2960205260408120549091907f21d2830d54424ced495e8b9a2d9096ce77e272f963440f132cf2276b5578aa2f9060ff1661022c57808352826020526040832082845260205260408320600160ff19825416179055600080516020610bb0833981519152339380a4600190565b50509056fe608060408181526004908136101561001657600080fd5b600092833560e01c90816301ffc9a714610604575080630305dd991461056057806306c81719146105255780631089f5ed1461042457806311aee3801461040557806323bd4d7a146103c1578063248a9ca31461039757806324c0e1c31461036e5780632f2ff15d1461034657806336568abe146102ff57806340eedabb146102d65780637bf6df911461029257806391d148541461024c5780639eab52531461016b578063a217fddf1461014c578063d50c73771461011f5763d547741f146100df57600080fd5b3461011b578060031936011261011b5761011791356101126001610101610658565b9383875286602052862001546106db565b6108b3565b5080f35b8280fd5b50903461011b57602036600319011261011b578160209360ff923581526003855220541690519015158152f35b83823461016757816003193601126101675751908152602090f35b5080fd5b508234610249578060031936011261024957815180916002549384835260208093018095600284527f405787fa12a823e0f2b7631cc41b3ba8828b3321ca811111fa75cd3aa3bb5ace90845b868282106102355750505050849003601f01601f191684019567ffffffffffffffff871185881017610222575085815282865292518583018190528594938501939290915b82811061020b57505050500390f35b8351855286955093810193928101926001016101fc565b634e487b7160e01b835260419052602482fd5b8354855290930192600192830192016101b7565b80fd5b50903461011b578160031936011261011b578160209360ff9261026d610658565b903582528186528282206001600160a01b039091168252855220549151911615158152f35b838234610167578160031936011261016757517f00000000000000000000000000000000000000000000000000000000000000006001600160a01b03168152602090f35b83823461016757816003193601126101675760015490516001600160a01b039091168152602090f35b5082903461016757806003193601126101675761031a610658565b90336001600160a01b0383160361033757506101179192356108b3565b5163334bd91960e11b81528390fd5b503461011b578060031936011261011b5761011791356103696001610101610658565b6107a1565b838234610167578160031936011261016757602090516000805160206109298339815191528152f35b50903461011b57602036600319011261011b57816020936001923581528085522001549051908152f35b838234610167578160031936011261016757517f00000000000000000000000000000000000000000000000000000000000000006001600160a01b03168152602090f35b8382346101675781600319360112610167576020906002549051908152f35b503461011b57602036600319011261011b57813591610441610673565b60025490600a82101561051757838552600360205260ff838620541661050957680100000000000000008210156104f65760018201806002558210156104e357507f405787fa12a823e0f2b7631cc41b3ba8828b3321ca811111fa75cd3aa3bb5ace0182905581835260036020528220805460ff191660011790557f663edc42a721f7c73209441ed31f141cef6912283c680024547d950559c555918280a280f35b634e487b7160e01b855260329052602484fd5b634e487b7160e01b855260419052602484fd5b8251637b89743f60e01b8152fd5b825163470781ed60e01b8152fd5b838234610167578160031936011261016757602090517f00000000000000000000000000000000000000000000000000000000000000008152f35b50903461011b57602036600319011261011b5780356001600160a01b038181169390929084830361060057610593610673565b84156105f35750506105c19083600154938416936bffffffffffffffffffffffff60a01b1617600155610701565b506105cb8161081a565b507f20a41b6af7c8306fdec52386c51d5c48321cd6fde663606ff90de727e964eebe8380a380f35b5163538ba4f960e01b8152fd5b8580fd5b8490843461011b57602036600319011261011b573563ffffffff60e01b811680910361011b5760209250637965db0b60e01b8114908115610647575b5015158152f35b6301ffc9a760e01b14905083610640565b602435906001600160a01b038216820361066e57565b600080fd5b3360009081527fe34ee107d4eab1ddc75517d203004c4945b8356755ef72e04f7037b09e288f2960205260409020546000805160206109298339815191529060ff16156106bd5750565b6044906040519063e2517d3f60e01b82523360048301526024820152fd5b80600052600060205260406000203360005260205260ff60406000205416156106bd5750565b6001600160a01b031660008181527fe34ee107d4eab1ddc75517d203004c4945b8356755ef72e04f7037b09e288f2960205260408120549091906000805160206109298339815191529060ff1661079c57808352826020526040832082845260205260408320600160ff198254161790557f2f8788117e7eff1d82e926ec794901d17c78024a50270940304540a733656f0d339380a4600190565b505090565b9060009180835282602052604083209160018060a01b03169182845260205260ff6040842054161560001461079c57808352826020526040832082845260205260408320600160ff198254161790557f2f8788117e7eff1d82e926ec794901d17c78024a50270940304540a733656f0d339380a4600190565b6001600160a01b031660008181527fe34ee107d4eab1ddc75517d203004c4945b8356755ef72e04f7037b09e288f2960205260408120549091906000805160206109298339815191529060ff161561079c5780835282602052604083208284526020526040832060ff1981541690557ff6391f5c32d9c69d2a47ea670b442974b53935d1edc7fd64eb21e047a839171b339380a4600190565b9060009180835282602052604083209160018060a01b03169182845260205260ff60408420541660001461079c5780835282602052604083208284526020526040832060ff1981541690557ff6391f5c32d9c69d2a47ea670b442974b53935d1edc7fd64eb21e047a839171b339380a460019056fe21d2830d54424ced495e8b9a2d9096ce77e272f963440f132cf2276b5578aa2fa2646970667358221220fd744b343b976a5397c7517c27c8ee76933a8c8ebd306bf234c269f1350eb83264736f6c634300081800332f8788117e7eff1d82e926ec794901d17c78024a50270940304540a733656f0da264697066735822122069476d8a78e766e2d4d875f34cf3033f01a0d03d836239256a61444fbf8a695964736f6c634300081800332f8788117e7eff1d82e926ec794901d17c78024a50270940304540a733656f0d",
  "linkReferences": {},
  "deployedLinkReferences": {}
}