{
  "_format": "hh-sol-artifact-1",
  "contractName": "ChairmanResolution",
  "sourceName": "contracts/ChairmanResolution.sol",
  "abi": [
    {
      "inputs": [
        {
          "internalType": "address",
          "name": "chairmanRegistry_",
          "type": "address"
        },
        {
          "internalType": "bytes32",
          "name": "docHash_",
          "type": "bytes32"
        },
        {
          "internalType": "address",
          "name": "notary_",
          "type": "address"
        }
      ],
      "stateMutability": "nonpayable",
      "type": "constructor"
    },
    {
      "inputs": [],
      "name": "AlreadySigned",
      "type": "error"
    },
    {
      "inputs": [],
      "name": "FinalizedAlready",
      "type": "error"
    },
    {
      "inputs": [],
      "name": "NotChairman",
      "type": "error"
    },
    {
      "inputs": [],
      "name": "NotSigned",
      "type": "error"
    },
    {
      "anonymous": false,
      "inputs": [],
      "name": "Finalized",
      "type": "event"
    },
    {
      "anonymous": false,
      "inputs": [
        {
          "indexed": true,
          "internalType": "address",
          "name": "chairman",
          "type": "address"
        }
      ],
      "name": "Signed",
      "type": "event"
    },
    {
      "inputs": [],
      "name": "chairmanRegistry",
      "outputs": [
        {
          "internalType": "contract IChairmanRegistryView",
          "name": "",
          "type": "address"
        }
      ],
      "stateMutability": "view",
      "type": "function"
    },
    {
      "inputs": [],
      "name": "docHash",
      "outputs": [
        {
          "internalType": "bytes32",
          "name": "",
          "type": "bytes32"
        }
      ],
      "stateMutability": "view",
      "type": "function"
    },
    {
      "inputs": [],
      "name": "finalize",
      "outputs": [],
      "stateMutability": "nonpayable",
      "type": "function"
    },
    {
      "inputs": [],
      "name": "finalized",
      "outputs": [
        {
          "internalType": "bool",
          "name": "",
          "type": "bool"
        }
      ],
      "stateMutability": "view",
      "type": "function"
    },
    {
      "inputs": [],
      "name": "notary",
      "outputs": [
        {
          "internalType": "address",
          "name": "",
          "type": "address"
        }
      ],
      "stateMutability": "view",
      "type": "function"
    },
    {
      "inputs": [],
      "name": "sign",
      "outputs": [],
      "stateMutability": "nonpayable",
      "type": "function"
    },
    {
      "inputs": [],
      "name": "signed",
      "outputs": [
        {
          "internalType": "bool",
          "name": "",
          "type": "bool"
        }
      ],
      "stateMutability": "view",
      "type": "function"
    }
  ],
  "bytecode": "0x60e03461009c57601f61044538819003918201601f19168301916001600160401b038311848410176100a15780849260609460405283398101031261009c57610047816100b7565b906100596040602083015192016100b7565b6001600160a01b0390921660805260a05260c05260405161037990816100cc823960805181818160850152610214015260a051816101ad015260c0518160ed0152f35b600080fd5b634e487b7160e01b600052604160045260246000fd5b51906001600160a01b038216820361009c5756fe608060408181526004918236101561001657600080fd5b600092833560e01c918263232a6b9d14610321575081632ca15122146101d05781633d6df0d5146101955781634bb278f31461011c575080639d54c79d146100d9578063b3f05b97146100b85763eb0d56011461007257600080fd5b346100b457816003193601126100b457517f00000000000000000000000000000000000000000000000000000000000000006001600160a01b03168152602090f35b5080fd5b50346100b457816003193601126100b45760ff602092541690519015158152f35b50346100b457816003193601126100b457517f00000000000000000000000000000000000000000000000000000000000000006001600160a01b03168152602090f35b90503461019157826003193601126101915782549160ff83166101845760ff8360081c16156101775760ff1983166001178455837f6823b073d48d6e3a7d385eeb601452d680e74bb46afe3255a7d778f3a9b176818180a180f35b516314e52a5b60e31b8152fd5b51632b372a4360e01b8152fd5b8280fd5b5050346100b457816003193601126100b457602090517f00000000000000000000000000000000000000000000000000000000000000008152f35b90503461019157826003193601126101915782549160ff83166101845760ff8360081c166103145780516387f7b97560e01b81526001600160a01b039060208185817f000000000000000000000000000000000000000000000000000000000000000086165afa90811561030a5786916102a3575b50168033149081159161029a575b5061028d5761ff0019831661010017845583337f568aebae0f7dc6c96727fb4cdfdf7add45fec43fffd69b3fa71ea0898a27f8cc8280a280f35b516308ef146b60e21b8152fd5b90501538610253565b905060203d602011610303575b601f8101601f1916820167ffffffffffffffff8111838210176102f05760209183918652810103126102ec575181811681036102ec5738610245565b8580fd5b634e487b7160e01b885260418652602488fd5b503d6102b0565b83513d88823e3d90fd5b5163585eb56560e11b8152fd5b8490346100b457816003193601126100b45760ff6020925460081c1615158152f3fea2646970667358221220b36e438720f2167b07f97b22cb7f3694205c440a0f744579fde209d79f099ae464736f6c63430008180033",
  "linkReferences": {},
  "deployedLinkReferences": {}
}