{
  "_format": "hh-sol-artifact-1",
  "contractName": "StructureRegistry",
  "sourceName": "contracts/StructureRegistry.sol",
  "abi": [
    {
      "inputs": [
        {
          "internalType": "address",
          "name": "organization_",
          "type": "address"
        }
      ],
      "stateMutability": "nonpayable",
      "type": "constructor"
    },
    {
      "inputs": [
        {
          "internalType": "uint256",
          "name": "arbanId",
          "type": "uint256"
        },
        {
          "internalType": "uint256",
          "name": "existingZunId",
          "type": "uint256"
        }
      ],
      "name": "ArbanAlreadyInZun",
      "type": "error"
    },
    {
      "inputs": [],
      "name": "DuplicateArbanId",
      "type": "error"
    },
    {
      "inputs": [],
      "name": "DuplicateMyanganId",
      "type": "error"
    },
    {
      "inputs": [],
      "name": "DuplicateZunId",
      "type": "error"
    },
    {
      "inputs": [],
      "name": "InvalidArbanId",
      "type": "error"
    },
    {
      "inputs": [],
      "name": "InvalidMyanganId",
      "type": "error"
    },
    {
      "inputs": [],
      "name": "InvalidZunId",
      "type": "error"
    },
    {
      "inputs": [
        {
          "internalType": "uint256",
          "name": "myanganId",
          "type": "uint256"
        },
        {
          "internalType": "uint256",
          "name": "existingTumenId",
          "type": "uint256"
        }
      ],
      "name": "MyanganAlreadyInTumen",
      "type": "error"
    },
    {
      "inputs": [
        {
          "internalType": "uint256",
          "name": "myanganId",
          "type": "uint256"
        }
      ],
      "name": "MyanganNotFound",
      "type": "error"
    },
    {
      "inputs": [
        {
          "internalType": "uint256",
          "name": "myanganId",
          "type": "uint256"
        }
      ],
      "name": "MyanganNotInRegistry",
      "type": "error"
    },
    {
      "inputs": [],
      "name": "NotOwner",
      "type": "error"
    },
    {
      "inputs": [],
      "name": "NotUpdater",
      "type": "error"
    },
    {
      "inputs": [
        {
          "internalType": "uint256",
          "name": "tumenId",
          "type": "uint256"
        }
      ],
      "name": "TumenNotFound",
      "type": "error"
    },
    {
      "inputs": [
        {
          "internalType": "uint256",
          "name": "zunId",
          "type": "uint256"
        },
        {
          "internalType": "uint256",
          "name": "existingMyanganId",
          "type": "uint256"
        }
      ],
      "name": "ZunAlreadyInMyangan",
      "type": "error"
    },
    {
      "inputs": [
        {
          "internalType": "uint256",
          "name": "zunId",
          "type": "uint256"
        }
      ],
      "name": "ZunNotFound",
      "type": "error"
    },
    {
      "inputs": [
        {
          "internalType": "uint256",
          "name": "zunId",
          "type": "uint256"
        }
      ],
      "name": "ZunNotInRegistry",
      "type": "error"
    },
    {
      "anonymous": false,
      "inputs": [
        {
          "indexed": true,
          "internalType": "uint8",
          "name": "level",
          "type": "uint8"
        },
        {
          "indexed": true,
          "internalType": "uint256",
          "name": "id",
          "type": "uint256"
        },
        {
          "indexed": true,
          "internalType": "address",
          "name": "leader",
          "type": "address"
        }
      ],
      "name": "LeaderApplied",
      "type": "event"
    },
    {
      "anonymous": false,
      "inputs": [
        {
          "indexed": true,
          "internalType": "uint8",
          "name": "level",
          "type": "uint8"
        },
        {
          "indexed": true,
          "internalType": "uint256",
          "name": "id",
          "type": "uint256"
        },
        {
          "indexed": true,
          "internalType": "address",
          "name": "leader",
          "type": "address"
        }
      ],
      "name": "LeaderAssigned",
      "type": "event"
    },
    {
      "anonymous": false,
      "inputs": [
        {
          "indexed": true,
          "internalType": "uint256",
          "name": "myanganId",
          "type": "uint256"
        },
        {
          "indexed": true,
          "internalType": "address",
          "name": "myangan",
          "type": "address"
        },
        {
          "indexed": false,
          "internalType": "uint256[10]",
          "name": "zunIds",
          "type": "uint256[10]"
        },
        {
          "indexed": false,
          "internalType": "address",
          "name": "leader",
          "type": "address"
        }
      ],
      "name": "MyanganRegistered",
      "type": "event"
    },
    {
      "anonymous": false,
      "inputs": [
        {
          "indexed": true,
          "internalType": "uint256",
          "name": "tumenId",
          "type": "uint256"
        },
        {
          "indexed": true,
          "internalType": "address",
          "name": "tumen",
          "type": "address"
        },
        {
          "indexed": false,
          "internalType": "uint256[10]",
          "name": "myanganIds",
          "type": "uint256[10]"
        },
        {
          "indexed": false,
          "internalType": "address",
          "name": "leader",
          "type": "address"
        }
      ],
      "name": "TumenRegistered",
      "type": "event"
    },
    {
      "anonymous": false,
      "inputs": [
        {
          "indexed": true,
          "internalType": "address",
          "name": "updater",
          "type": "address"
        },
        {
          "indexed": false,
          "internalType": "bool",
          "name": "allowed",
          "type": "bool"
        }
      ],
      "name": "UpdaterSet",
      "type": "event"
    },
    {
      "anonymous": false,
      "inputs": [
        {
          "indexed": true,
          "internalType": "uint256",
          "name": "zunId",
          "type": "uint256"
        },
        {
          "indexed": true,
          "internalType": "address",
          "name": "zun",
          "type": "address"
        },
        {
          "indexed": false,
          "internalType": "uint256[10]",
          "name": "arbanIds",
          "type": "uint256[10]"
        },
        {
          "indexed": false,
          "internalType": "address",
          "name": "leader",
          "type": "address"
        }
      ],
      "name": "ZunRegistered",
      "type": "event"
    },
    {
      "inputs": [
        {
          "internalType": "uint256",
          "name": "arbanId",
          "type": "uint256"
        },
        {
          "internalType": "address",
          "name": "leader",
          "type": "address"
        }
      ],
      "name": "applyArbanLeader",
      "outputs": [],
      "stateMutability": "nonpayable",
      "type": "function"
    },
    {
      "inputs": [
        {
          "internalType": "uint256",
          "name": "myanganId",
          "type": "uint256"
        },
        {
          "internalType": "address",
          "name": "leader",
          "type": "address"
        }
      ],
      "name": "applyMyanganLeader",
      "outputs": [],
      "stateMutability": "nonpayable",
      "type": "function"
    },
    {
      "inputs": [
        {
          "internalType": "uint256",
          "name": "tumenId",
          "type": "uint256"
        },
        {
          "internalType": "address",
          "name": "leader",
          "type": "address"
        }
      ],
      "name": "applyTumenLeader",
      "outputs": [],
      "stateMutability": "nonpayable",
      "type": "function"
    },
    {
      "inputs": [
        {
          "internalType": "uint256",
          "name": "zunId",
          "type": "uint256"
        },
        {
          "internalType": "address",
          "name": "leader",
          "type": "address"
        }
      ],
      "name": "applyZunLeader",
      "outputs": [],
      "stateMutability": "nonpayable",
      "type": "function"
    },
    {
      "inputs": [
        {
          "internalType": "uint256",
          "name": "",
          "type": "uint256"
        }
      ],
      "name": "arbanLeader",
      "outputs": [
        {
          "internalType": "address",
          "name": "",
          "type": "address"
        }
      ],
      "stateMutability": "view",
      "type": "function"
    },
    {
      "inputs": [
        {
          "internalType": "address",
          "name": "",
          "type": "address"
        }
      ],
      "name": "authorizedUpdater",
      "outputs": [
        {
          "internalType": "bool",
          "name": "",
          "type": "bool"
        }
      ],
      "stateMutability": "view",
      "type": "function"
    },
    {
      "inputs": [
        {
          "internalType": "uint256",
          "name": "myanganId",
          "type": "uint256"
        }
      ],
      "name": "getMyanganChildren",
      "outputs": [
        {
          "internalType": "uint256[10]",
          "name": "",
          "type": "uint256[10]"
        }
      ],
      "stateMutability": "view",
      "type": "function"
    },
    {
      "inputs": [
        {
          "internalType": "uint256",
          "name": "tumenId",
          "type": "uint256"
        }
      ],
      "name": "getTumenChildren",
      "outputs": [
        {
          "internalType": "uint256[10]",
          "name": "",
          "type": "uint256[10]"
        }
      ],
      "stateMutability": "view",
      "type": "function"
    },
    {
      "inputs": [
        {
          "internalType": "uint256",
          "name": "zunId",
          "type": "uint256"
        }
      ],
      "name": "getZunChildren",
      "outputs": [
        {
          "internalType": "uint256[10]",
          "name": "",
          "type": "uint256[10]"
        }
      ],
      "stateMutability": "view",
      "type": "function"
    },
    {
      "inputs": [
        {
          "internalType": "uint256",
          "name": "",
          "type": "uint256"
        }
      ],
      "name": "myanganAddress",
      "outputs": [
        {
          "internalType": "address",
          "name": "",
          "type": "address"
        }
      ],
      "stateMutability": "view",
      "type": "function"
    },
    {
      "inputs": [
        {
          "internalType": "uint256",
          "name": "",
          "type": "uint256"
        }
      ],
      "name": "myanganLeader",
      "outputs": [
        {
          "internalType": "address",
          "name": "",
          "type": "address"
        }
      ],
      "stateMutability": "view",
      "type": "function"
    },
    {
      "inputs": [
        {
          "internalType": "uint256",
          "name": "",
          "type": "uint256"
        }
      ],
      "name": "myanganOfZun",
      "outputs": [
        {
          "internalType": "uint256",
          "name": "",
          "type": "uint256"
        }
      ],
      "stateMutability": "view",
      "type": "function"
    },
    {
      "inputs": [],
      "name": "nextMyanganId",
      "outputs": [
        {
          "internalType": "uint256",
          "name": "",
          "type": "uint256"
        }
      ],
      "stateMutability": "view",
      "type": "function"
    },
    {
      "inputs": [],
      "name": "nextTumenId",
      "outputs": [
        {
          "internalType": "uint256",
          "name": "",
          "type": "uint256"
        }
      ],
      "stateMutability": "view",
      "type": "function"
    },
    {
      "inputs": [],
      "name": "nextZunId",
      "outputs": [
        {
          "internalType": "uint256",
          "name": "",
          "type": "uint256"
        }
      ],
      "stateMutability": "view",
      "type": "function"
    },
    {
      "inputs": [],
      "name": "organization",
      "outputs": [
        {
          "internalType": "address",
          "name": "",
          "type": "address"
        }
      ],
      "stateMutability": "view",
      "type": "function"
    },
    {
      "inputs": [],
      "name": "owner",
      "outputs": [
        {
          "internalType": "address",
          "name": "",
          "type": "address"
        }
      ],
      "stateMutability": "view",
      "type": "function"
    },
    {
      "inputs": [
        {
          "internalType": "uint256[10]",
          "name": "zunIds",
          "type": "uint256[10]"
        },
        {
          "internalType": "address",
          "name": "leader",
          "type": "address"
        }
      ],
      "name": "registerMyangan",
      "outputs": [
        {
          "internalType": "uint256",
          "name": "myanganId",
          "type": "uint256"
        }
      ],
      "stateMutability": "nonpayable",
      "type": "function"
    },
    {
      "inputs": [
        {
          "internalType": "uint256[10]",
          "name": "myanganIds",
          "type": "uint256[10]"
        },
        {
          "internalType": "address",
          "name": "leader",
          "type": "address"
        }
      ],
      "name": "registerTumen",
      "outputs": [
        {
          "internalType": "uint256",
          "name": "tumenId",
          "type": "uint256"
        }
      ],
      "stateMutability": "nonpayable",
      "type": "function"
    },
    {
      "inputs": [
        {
          "internalType": "uint256[10]",
          "name": "arbanIds",
          "type": "uint256[10]"
        },
        {
          "internalType": "address",
          "name": "leader",
          "type": "address"
        }
      ],
      "name": "registerZun",
      "outputs": [
        {
          "internalType": "uint256",
          "name": "zunId",
          "type": "uint256"
        }
      ],
      "stateMutability": "nonpayable",
      "type": "function"
    },
    {
      "inputs": [
        {
          "internalType": "uint256",
          "name": "arbanId",
          "type": "uint256"
        },
        {
          "internalType": "address",
          "name": "leader",
          "type": "address"
        }
      ],
      "name": "setArbanLeader",
      "outputs": [],
      "stateMutability": "nonpayable",
      "type": "function"
    },
    {
      "inputs": [
        {
          "internalType": "uint256",
          "name": "myanganId",
          "type": "uint256"
        },
        {
          "internalType": "address",
          "name": "leader",
          "type": "address"
        }
      ],
      "name": "setMyanganLeaderCitizen",
      "outputs": [],
      "stateMutability": "nonpayable",
      "type": "function"
    },
    {
      "inputs": [
        {
          "internalType": "address",
          "name": "organization_",
          "type": "address"
        }
      ],
      "name": "setOrganization",
      "outputs": [],
      "stateMutability": "nonpayable",
      "type": "function"
    },
    {
      "inputs": [
        {
          "internalType": "address",
          "name": "newOwner",
          "type": "address"
        }
      ],
      "name": "setOwner",
      "outputs": [],
      "stateMutability": "nonpayable",
      "type": "function"
    },
    {
      "inputs": [
        {
          "internalType": "uint256",
          "name": "tumenId",
          "type": "uint256"
        },
        {
          "internalType": "address",
          "name": "leader",
          "type": "address"
        }
      ],
      "name": "setTumenLeaderCitizen",
      "outputs": [],
      "stateMutability": "nonpayable",
      "type": "function"
    },
    {
      "inputs": [
        {
          "internalType": "address",
          "name": "upd",
          "type": "address"
        },
        {
          "internalType": "bool",
          "name": "ok",
          "type": "bool"
        }
      ],
      "name": "setUpdater",
      "outputs": [],
      "stateMutability": "nonpayable",
      "type": "function"
    },
    {
      "inputs": [
        {
          "internalType": "uint256",
          "name": "zunId",
          "type": "uint256"
        },
        {
          "internalType": "address",
          "name": "leader",
          "type": "address"
        }
      ],
      "name": "setZunLeaderCitizen",
      "outputs": [],
      "stateMutability": "nonpayable",
      "type": "function"
    },
    {
      "inputs": [
        {
          "internalType": "uint256",
          "name": "",
          "type": "uint256"
        }
      ],
      "name": "tumenAddress",
      "outputs": [
        {
          "internalType": "address",
          "name": "",
          "type": "address"
        }
      ],
      "stateMutability": "view",
      "type": "function"
    },
    {
      "inputs": [
        {
          "internalType": "uint256",
          "name": "",
          "type": "uint256"
        }
      ],
      "name": "tumenLeader",
      "outputs": [
        {
          "internalType": "address",
          "name": "",
          "type": "address"
        }
      ],
      "stateMutability": "view",
      "type": "function"
    },
    {
      "inputs": [
        {
          "internalType": "uint256",
          "name": "",
          "type": "uint256"
        }
      ],
      "name": "tumenOfMyangan",
      "outputs": [
        {
          "internalType": "uint256",
          "name": "",
          "type": "uint256"
        }
      ],
      "stateMutability": "view",
      "type": "function"
    },
    {
      "inputs": [
        {
          "internalType": "uint256",
          "name": "",
          "type": "uint256"
        }
      ],
      "name": "zunAddress",
      "outputs": [
        {
          "internalType": "address",
          "name": "",
          "type": "address"
        }
      ],
      "stateMutability": "view",
      "type": "function"
    },
    {
      "inputs": [
        {
          "internalType": "uint256",
          "name": "",
          "type": "uint256"
        }
      ],
      "name": "zunLeader",
      "outputs": [
        {
          "internalType": "address",
          "name": "",
          "type": "address"
        }
      ],
      "stateMutability": "view",
      "type": "function"
    },
    {
      "inputs": [
        {
          "internalType": "uint256",
          "name": "",
          "type": "uint256"
        }
      ],
      "name": "zunOfArban",
      "outputs": [
        {
          "internalType": "uint256",
          "name": "",
          "type": "uint256"
        }
      ],
      "stateMutability": "view",
      "type": "function"
    }
  ],
  "bytecode": "0x60803461008957601f61242f38819003918201601f19168301916001600160401b0383118484101761008e5780849260209460405283398101031261008957516001600160a01b0381169081900361008957600160035560016007556001600b5560018060a01b031933816000541617600055600154161760015560405161238a90816100a58239f35b600080fd5b634e487b7160e01b600052604160045260246000fdfe608060408181526004803610156200001657600080fd5b600092833560e01c90816308e07066146200129b5750806313af4035146200125057806315a44197146200121c5780631a153391146200118057806323bd4d7a14620011555780632dee5e311462001121578063349cf966146200107c57806337e23b4114620010485780634dece4ee1462000fba5780634e69149c1462000f5e57806350226b441462000f35578063577d5f2b1462000eb15780636770b7001462000e255780637b58b8f31462000df15780637d88f1f11462000dbd5780638d917b901462000d1e5780638da5cb5b1462000cf45780639e2c7f581462000c5b578063a8b9ec471462000bc2578063bae4696e1462000b8e578063bda611b0146200096f578063c3f9e4b9146200094e578063cd12b0eb1462000926578063d660765c1462000905578063d92b5e7314620008c3578063decbb88d1462000688578063e258418c14620005ef578063e2f11d471462000571578063e4e6c19a14620004bc578063eb248b6a1462000235578063f65048db1462000210578063f6eca6dc14620001dc5763f88edd6314620001b057600080fd5b34620001d8576020366003190112620001d8576020928291358152600c845220549051908152f35b8280fd5b5034620001d8576020366003190112620001d85735825260056020908152918190205490516001600160a01b039091168152f35b50503462000231578160031936011262000231576020906007549051908152f35b5080fd5b509034620001d857610160366003190112620001d8573660231215620001d857805162000262816200139b565b61014481368211620004b85784905b828210620004a757505035936001600160a01b0391828616860362000231578282541633036200049757815b600a808210156200035f57620002b4828462001439565b519081156200034f576001908184018085116200033c575b818110620003105750505080845286602052858420549081620002f45750506001016200029d565b6044918891885192637a38b6e360e11b84528301526024820152fd5b6200031c818762001439565b5184146200032c578201620002cc565b885163ceb31f2d60e01b81528a90fd5b634e487b7160e01b875260118a52602487fd5b865163bfafae5d60e01b81528890fd5b5050909160035494620003728662001461565b60035560019180600154168651906104b78083019083821067ffffffffffffffff8311176200048457878b8594620003b4948f9462001e5e8839309062001487565b039086f080156200047a5716938681526020916005602052868220866001600160601b0360a01b82541617905560066020528682208585845b600a8110620004675750505050815b600a811062000447576020898989827f505934332f8e3e23982727351872d8deb081865990cd01dee7c5b348918349338f8c6200043e865192839283620014c9565b0390a351908152f35b806200045586928862001439565b518452828552898985205501620003fc565b86835193019281850155018690620003ed565b86513d87823e3d90fd5b634e487b7160e01b895260418652602489fd5b505050516330cd747160e01b8152fd5b813581526020918201910162000271565b8580fd5b50919034620002315760209160206003193601126200056e578335825194620004e5866200139b565b61014080963690378183526009602052838320546001600160a01b0316156200055957508152600a602081905282822083519491929190855b84841062000543578787620005418862000538836200139b565b5180926200133e565bf35b600183819284548152019201930192906200051e565b6024918451916305f5270560e21b8352820152fd5b80fd5b5034620001d85781600319360112620001d8578035906200059162001384565b845490936001600160a01b0392909183163303620005e15750828552600f6020528420921691826001600160601b0360a01b8254161790556001600080516020620023158339815191528480a480f35b90516330cd747160e01b8152fd5b5034620001d85781600319360112620001d8578035906200060f62001384565b845490936001600160a01b0392909183163303620005e15783865260056020528282872054161562000673575082855260106020528420921691826001600160601b0360a01b8254161790556002600080516020620023158339815191528480a480f35b8360249251916370bf42f160e01b8352820152fd5b509034620001d8576200069b36620013cf565b8454919490916001600160a01b0390811633036200049757815b600a808210156200079057620006cc828962001439565b5190811562000780576001908184018085116200033c575b8181106200075457505050808452602060098152838786205416156200073d57600c908286525285842054908162000721575050600101620006b5565b6044918891885192630a82c9e960e11b84528301526024820152fd5b8651635fea3a7560e11b8152808901839052602490fd5b62000760818c62001439565b51841462000770578201620006e4565b88516330f017f160e01b81528a90fd5b865163734eed5d60e11b81528890fd5b505093919094600b5494620007a58662001461565b600b5560019381600154168651916104b78084019184831067ffffffffffffffff841117620008b05750858a8594620007e8948a94620019a78839309062001487565b039088f08015620008a6571692858752602096600d602052858120856001600160601b0360a01b825416179055600e6020528581208383835b600a8110620008935750505050805b600a811062000872576020888888827f354a2085f673398a8476ac8e8ae73e4a7ff002ee46f6ff629fd26143391e7d4e8a8a6200043e865192839283620014c9565b806200088084928662001439565b518352600c8a5288888420550162000830565b8b83519301928185015501849062000821565b85513d89823e3d90fd5b634e487b7160e01b8c526041905260248bfd5b50503462000231576020366003190112620002315760209160ff9082906001600160a01b03620008f262001368565b1681526002855220541690519015158152f35b5050346200023157816003193601126200023157602090600b549051908152f35b5034620001d8576020366003190112620001d857602092818392358252845220549051908152f35b50503462000231578160031936011262000231576020906003549051908152f35b509034620001d8576200098236620013cf565b8454919490916001600160a01b0390811633036200049757815b600a8082101562000a7757620009b3828962001439565b5190811562000a67576001908184018085116200033c575b81811062000a3b575050508084526020600581528387862054161562000a24576008908286525285842054908162000a085750506001016200099c565b604491889188519263383dff1160e11b84528301526024820152fd5b865163f236f51560e01b8152808901839052602490fd5b62000a47818c62001439565b51841462000a57578201620009cb565b8851630f62e2eb60e01b81528a90fd5b865163866ad3cf60e01b81528890fd5b5050939190946007549462000a8c8662001461565b60075560019381600154168651916104b78084019184831067ffffffffffffffff841117620008b05750858a859462000acf948a94620014f08839309062001487565b039088f08015620008a65716928587526020966009602052858120856001600160601b0360a01b825416179055600a90600a6020528681208484835b85811062000b7b5750505050805b82811062000b5a576020898989827ff6f689b9fad3cea8983f84d10d9c21b2402be9ffb85c07f9ce84c6db0afec2658b8b6200043e865192839283620014c9565b8062000b6885928762001439565b51835260088b5289898420550162000b19565b8c83519301928185015501859062000b0b565b5034620001d8576020366003190112620001d85735825260106020908152918190205490516001600160a01b039091168152f35b5034620001d85781600319360112620001d85780359062000be262001384565b92338552600260205260ff81862054161562000c4e578285526005602052808520546001600160a01b03929083161562000673575082855260106020528420921691826001600160601b0360a01b8254161790556002600080516020620023358339815191528480a480f35b51639a280f3960e01b8152fd5b5034620001d85781600319360112620001d85780359062000c7b62001384565b845490936001600160a01b0392909183163303620005e15783865260096020528282872054161562000cdf575082855260116020528420921691826001600160601b0360a01b8254161790556003600080516020620023158339815191528480a480f35b8360249251916305f5270560e21b8352820152fd5b5050346200023157816003193601126200023157905490516001600160a01b039091168152602090f35b5034620001d85781600319360112620001d85780359062000d3e62001384565b92338552600260205260ff81862054161562000c4e57828552600d602052808520546001600160a01b03919082161562000da75783865260126020528520931692836001600160601b0360a01b825416179055600080516020620023358339815191528480a480f35b60249391505191633518bb2960e21b8352820152fd5b5034620001d8576020366003190112620001d85735825260126020908152918190205490516001600160a01b039091168152f35b5034620001d8576020366003190112620001d857358252600f6020908152918190205490516001600160a01b039091168152f35b5034620001d85781600319360112620001d85780359062000e4562001384565b92338552600260205260ff81862054161562000c4e578285526009602052808520546001600160a01b03929083161562000cdf575082855260116020528420921691826001600160601b0360a01b8254161790556003600080516020620023358339815191528480a480f35b509034620001d85780600319360112620001d85781359062000ed262001384565b92338552600260205260ff82862054161562000f275750818452600f602052832080546001600160a01b0319166001600160a01b0390931692831790556001600080516020620023358339815191528480a480f35b9051639a280f3960e01b8152fd5b5034620001d8576020366003190112620001d85760209282913581526008845220549051908152f35b5034620001d8576020366003190112620001d85762000f7c62001368565b83546001600160a01b0393919291908416330362000fad575050166001600160601b0360a01b600154161760015580f35b516330cd747160e01b8152fd5b5034620001d85781600319360112620001d85780359062000fda62001384565b845490936001600160a01b0391821633036200103957838652600d6020528181872054161562000da75783865260126020528520931692836001600160601b0360a01b825416179055600080516020620023158339815191528480a480f35b516330cd747160e01b81529050fd5b5034620001d8576020366003190112620001d857358252600d6020908152918190205490516001600160a01b039091168152f35b50919034620002315760209160206003193601126200056e578335825194620010a5866200139b565b61014080963690378183526005602052838320546001600160a01b0316156200110c575081526006602052818120825193849192915b600a8310620010f6578686620005418762000538836200139b565b60018281928654815201940192019192620010db565b6024918451916370bf42f160e01b8352820152fd5b5034620001d8576020366003190112620001d85735825260096020908152918190205490516001600160a01b039091168152f35b505034620002315781600319360112620002315760015490516001600160a01b039091168152602090f35b5034620001d85781600319360112620001d8576200119d62001368565b9060243591821515809303620012185784546001600160a01b039290831633036200120a5750916020917f9e0f3fc17a5f47bd46f3cab56d4d8a9ea9f32ad817657c3ea8e5dff28da3e3e79316938486526002835280862060ff1981541660ff841617905551908152a280f35b84516330cd747160e01b8152fd5b8480fd5b5034620001d8576020366003190112620001d85735825260116020908152918190205490516001600160a01b039091168152f35b509034620001d8576020366003190112620001d8576200126f62001368565b8354926001600160a01b0392838516330362000fad57505016906001600160601b0360a01b1617815580f35b828486346200056e5760209260206003193601126200023157803590620012c2866200139b565b6101408096369037818352600d602052838320546001600160a01b0316156200132957508152600e602052818120825193849192915b600a831062001313578686620005418762000538836200139b565b60018281928654815201940192019192620012f8565b602491845191633518bb2960e21b8352820152fd5b6000915b600a83106200135057505050565b60019082518152602080910192019201919062001342565b600435906001600160a01b03821682036200137f57565b600080fd5b602435906001600160a01b03821682036200137f57565b610140810190811067ffffffffffffffff821117620013b957604052565b634e487b7160e01b600052604160045260246000fd5b906101606003198301126200137f5781602312156200137f57604051620013f6816200139b565b806101449384116200137f576004905b84821062001428575090923590506001600160a01b03811681036200137f5790565b813581526020918201910162001406565b90600a8110156200144b5760051b0190565b634e487b7160e01b600052603260045260246000fd5b6000198114620014715760010190565b634e487b7160e01b600052601160045260246000fd5b6001600160a01b039182168152918116602083015260408201929092526101c08101949390926101a0929190620014c39060608601906200133e565b16910152565b90929161014090620014e1836101608101966200133e565b6001600160a01b031691015256fe60e03461018e576001600160401b036104b73881900390601f8201601f19168401908382118583101761019357829160405284398201916101c08184031261018e5761004a816101a9565b6020610058602084016101a9565b9460408401519381607f8201121561018e57604051956101408701908111878210176101935760405285906101a0810192831161018e576060849101915b83831061017e575050506100a9906101a9565b93826080528560a0528360c05260005b600a811061016e575050600a80546001600160a01b0319166001600160a01b0395861690811790915560405195909490811692169050827fcbd6f84bfed2ee8cc01ea152b5d9f7126a72c410dbc5ab04c486a5800627b190600080a47f6e338460bd0ac3b8a2c26ae9f2f7b2600926416c5ff4c21c1a4e903883e6a8da600080a36102f990816101be82396080518181816101360152610190015260a05181610261015260c05181818160ff01526101cb0152f35b81518155908201906001016100b9565b8251815291810191849101610096565b600080fd5b634e487b7160e01b600052604160045260246000fd5b51906001600160a01b038216820361018e5756fe60806040818152600436101561001457600080fd5b600091823560e01c90816323bd4d7a1461024d5750806340eedabb146102255780634331e8dd146101655780637b10399914610122578063a45926d4146100e85763f916cbc71461006457600080fd5b346100e457816003193601126100e4579081519161008183610290565b61014080933690378051908280835b600a82106100cd575050506100a482610290565b519190825b600a83106100b657505050f35b6001908251815260208091019201920191906100a9565b825481526001928301929190910190602001610090565b5080fd5b50346100e457816003193601126100e457602090517f00000000000000000000000000000000000000000000000000000000000000008152f35b50346100e457816003193601126100e457517f00000000000000000000000000000000000000000000000000000000000000006001600160a01b03168152602090f35b50346100e45760203660031901126100e4576004356001600160a01b038181169291839003610221577f00000000000000000000000000000000000000000000000000000000000000001633036102115750600a80546001600160a01b031916821790557f00000000000000000000000000000000000000000000000000000000000000007f6e338460bd0ac3b8a2c26ae9f2f7b2600926416c5ff4c21c1a4e903883e6a8da8380a380f35b516310f5403960e31b8152600490fd5b8380fd5b50346100e457816003193601126100e457600a5490516001600160a01b039091168152602090f35b8390346100e457816003193601126100e4577f00000000000000000000000000000000000000000000000000000000000000006001600160a01b03168152602090f35b610140810190811067ffffffffffffffff8211176102ad57604052565b634e487b7160e01b600052604160045260246000fdfea2646970667358221220e5011d32f5627e5861e748739e27ed005b0a8aaa92f5727ec3dc5daaccb1f9b864736f6c6343000818003360e03461018e576001600160401b036104b73881900390601f8201601f19168401908382118583101761019357829160405284398201916101c08184031261018e5761004a816101a9565b6020610058602084016101a9565b9460408401519381607f8201121561018e57604051956101408701908111878210176101935760405285906101a0810192831161018e576060849101915b83831061017e575050506100a9906101a9565b93826080528560a0528360c05260005b600a811061016e575050600a80546001600160a01b0319166001600160a01b0395861690811790915560405195909490811692169050827fcbd6f84bfed2ee8cc01ea152b5d9f7126a72c410dbc5ab04c486a5800627b190600080a47f6e338460bd0ac3b8a2c26ae9f2f7b2600926416c5ff4c21c1a4e903883e6a8da600080a36102f990816101be82396080518181816101360152610190015260a05181610261015260c051818181607a01526101cb0152f35b81518155908201906001016100b9565b8251815291810191849101610096565b600080fd5b634e487b7160e01b600052604160045260246000fd5b51906001600160a01b038216820361018e5756fe60806040818152600436101561001457600080fd5b600091823560e01c90816323bd4d7a1461024d5750806340eedabb146102255780634331e8dd146101655780637b10399914610122578063b443326c146100a15763c31465921461006457600080fd5b3461009d578160031936011261009d57602090517f00000000000000000000000000000000000000000000000000000000000000008152f35b5080fd5b503461009d578160031936011261009d57908151916100bf83610290565b61014080933690378051908280835b600a821061010b575050506100e282610290565b519190825b600a83106100f457505050f35b6001908251815260208091019201920191906100e7565b8254815260019283019291909101906020016100ce565b503461009d578160031936011261009d57517f00000000000000000000000000000000000000000000000000000000000000006001600160a01b03168152602090f35b503461009d57602036600319011261009d576004356001600160a01b038181169291839003610221577f00000000000000000000000000000000000000000000000000000000000000001633036102115750600a80546001600160a01b031916821790557f00000000000000000000000000000000000000000000000000000000000000007f6e338460bd0ac3b8a2c26ae9f2f7b2600926416c5ff4c21c1a4e903883e6a8da8380a380f35b516310f5403960e31b8152600490fd5b8380fd5b503461009d578160031936011261009d57600a5490516001600160a01b039091168152602090f35b83903461009d578160031936011261009d577f00000000000000000000000000000000000000000000000000000000000000006001600160a01b03168152602090f35b610140810190811067ffffffffffffffff8211176102ad57604052565b634e487b7160e01b600052604160045260246000fdfea2646970667358221220d0832969a755ba3bad915028744c8abca48bfc304727d41effcf52a80e712b1c64736f6c6343000818003360e03461018e576001600160401b036104b73881900390601f8201601f19168401908382118583101761019357829160405284398201916101c08184031261018e5761004a816101a9565b6020610058602084016101a9565b9460408401519381607f8201121561018e57604051956101408701908111878210176101935760405285906101a0810192831161018e576060849101915b83831061017e575050506100a9906101a9565b93826080528560a0528360c05260005b600a811061016e575050600a80546001600160a01b0319166001600160a01b0395861690811790915560405195909490811692169050827fcbd6f84bfed2ee8cc01ea152b5d9f7126a72c410dbc5ab04c486a5800627b190600080a47f6e338460bd0ac3b8a2c26ae9f2f7b2600926416c5ff4c21c1a4e903883e6a8da600080a36102f990816101be82396080518181816101360152610190015260a05181610261015260c051818181607a01526101cb0152f35b81518155908201906001016100b9565b8251815291810191849101610096565b600080fd5b634e487b7160e01b600052604160045260246000fd5b51906001600160a01b038216820361018e5756fe60806040818152600436101561001457600080fd5b600091823560e01c90816323bd4d7a1461024d5750806340eedabb146102255780634331e8dd146101655780637b10399914610122578063b071a9c5146100a15763bbe648c61461006457600080fd5b3461009d578160031936011261009d57602090517f00000000000000000000000000000000000000000000000000000000000000008152f35b5080fd5b503461009d578160031936011261009d57908151916100bf83610290565b61014080933690378051908280835b600a821061010b575050506100e282610290565b519190825b600a83106100f457505050f35b6001908251815260208091019201920191906100e7565b8254815260019283019291909101906020016100ce565b503461009d578160031936011261009d57517f00000000000000000000000000000000000000000000000000000000000000006001600160a01b03168152602090f35b503461009d57602036600319011261009d576004356001600160a01b038181169291839003610221577f00000000000000000000000000000000000000000000000000000000000000001633036102115750600a80546001600160a01b031916821790557f00000000000000000000000000000000000000000000000000000000000000007f6e338460bd0ac3b8a2c26ae9f2f7b2600926416c5ff4c21c1a4e903883e6a8da8380a380f35b516310f5403960e31b8152600490fd5b8380fd5b503461009d578160031936011261009d57600a5490516001600160a01b039091168152602090f35b83903461009d578160031936011261009d577f00000000000000000000000000000000000000000000000000000000000000006001600160a01b03168152602090f35b610140810190811067ffffffffffffffff8211176102ad57604052565b634e487b7160e01b600052604160045260246000fdfea26469706673582212201b1fca78128139e0b848cfb434ebf1a3618e27e1ae379273c1f9401ce4b83a4964736f6c6343000818003377d43a309ab3bf5ca668df0abbf5c976e1fac72e8490dbd7e5fa95b27a041a5f8e7dcdc9388b30572a70c94061e7ef893371ba1caf73d6769d68088420525ec4a2646970667358221220a3737ff81280b71db0fe200704c561dbe6397d10f646b9839bc30d7e2e1161f864736f6c63430008180033",
  "linkReferences": {},
  "deployedLinkReferences": {}
}