{
  "_format": "hh-sol-artifact-1",
  "contractName": "TaxAuthorityV2",
  "sourceName": "contracts/TaxAuthorityV2.sol",
  "abi": [
    {
      "inputs": [
        {
          "internalType": "address",
          "name": "ledgerAddr",
          "type": "address"
        },
        {
          "internalType": "address",
          "name": "licenseRegAddr",
          "type": "address"
        },
        {
          "internalType": "bytes32",
          "name": "confedBudgetAccountId",
          "type": "bytes32"
        }
      ],
      "stateMutability": "nonpayable",
      "type": "constructor"
    },
    {
      "anonymous": false,
      "inputs": [
        {
          "indexed": true,
          "internalType": "uint32",
          "name": "year",
          "type": "uint32"
        },
        {
          "indexed": true,
          "internalType": "bytes32",
          "name": "taxpayerAccountId",
          "type": "bytes32"
        },
        {
          "indexed": true,
          "internalType": "bytes32",
          "name": "republicKey",
          "type": "bytes32"
        },
        {
          "indexed": false,
          "internalType": "uint256",
          "name": "profit",
          "type": "uint256"
        },
        {
          "indexed": false,
          "internalType": "uint256",
          "name": "taxDue",
          "type": "uint256"
        }
      ],
      "name": "Declared",
      "type": "event"
    },
    {
      "anonymous": false,
      "inputs": [
        {
          "indexed": true,
          "internalType": "uint32",
          "name": "year",
          "type": "uint32"
        },
        {
          "indexed": true,
          "internalType": "bytes32",
          "name": "taxpayerAccountId",
          "type": "bytes32"
        },
        {
          "indexed": true,
          "internalType": "bytes32",
          "name": "republicKey",
          "type": "bytes32"
        },
        {
          "indexed": false,
          "internalType": "uint256",
          "name": "amount",
          "type": "uint256"
        },
        {
          "indexed": false,
          "internalType": "uint256",
          "name": "repPart",
          "type": "uint256"
        },
        {
          "indexed": false,
          "internalType": "uint256",
          "name": "confPart",
          "type": "uint256"
        },
        {
          "indexed": false,
          "internalType": "uint256",
          "name": "totalPaid",
          "type": "uint256"
        }
      ],
      "name": "TaxPaid",
      "type": "event"
    },
    {
      "anonymous": false,
      "inputs": [
        {
          "indexed": true,
          "internalType": "address",
          "name": "caller",
          "type": "address"
        },
        {
          "indexed": false,
          "internalType": "bool",
          "name": "ok",
          "type": "bool"
        }
      ],
      "name": "TrustedBankCallerSet",
      "type": "event"
    },
    {
      "inputs": [],
      "name": "CONFED_BPS",
      "outputs": [
        {
          "internalType": "uint16",
          "name": "",
          "type": "uint16"
        }
      ],
      "stateMutability": "view",
      "type": "function"
    },
    {
      "inputs": [],
      "name": "REPUBLIC_BPS",
      "outputs": [
        {
          "internalType": "uint16",
          "name": "",
          "type": "uint16"
        }
      ],
      "stateMutability": "view",
      "type": "function"
    },
    {
      "inputs": [],
      "name": "TAX_BPS",
      "outputs": [
        {
          "internalType": "uint16",
          "name": "",
          "type": "uint16"
        }
      ],
      "stateMutability": "view",
      "type": "function"
    },
    {
      "inputs": [],
      "name": "confederationBudgetAccountId",
      "outputs": [
        {
          "internalType": "bytes32",
          "name": "",
          "type": "bytes32"
        }
      ],
      "stateMutability": "view",
      "type": "function"
    },
    {
      "inputs": [
        {
          "internalType": "uint32",
          "name": "year",
          "type": "uint32"
        },
        {
          "internalType": "bytes32",
          "name": "taxpayerAccountId",
          "type": "bytes32"
        },
        {
          "internalType": "bytes32",
          "name": "republicKey",
          "type": "bytes32"
        },
        {
          "internalType": "uint256",
          "name": "profit",
          "type": "uint256"
        }
      ],
      "name": "declareProfit",
      "outputs": [],
      "stateMutability": "nonpayable",
      "type": "function"
    },
    {
      "inputs": [
        {
          "internalType": "uint32",
          "name": "year",
          "type": "uint32"
        },
        {
          "internalType": "bytes32",
          "name": "taxpayerAccountId",
          "type": "bytes32"
        }
      ],
      "name": "isCompliant",
      "outputs": [
        {
          "internalType": "bool",
          "name": "",
          "type": "bool"
        }
      ],
      "stateMutability": "view",
      "type": "function"
    },
    {
      "inputs": [],
      "name": "ledger",
      "outputs": [
        {
          "internalType": "contract ILedgerMove",
          "name": "",
          "type": "address"
        }
      ],
      "stateMutability": "view",
      "type": "function"
    },
    {
      "inputs": [],
      "name": "licenseRegistry",
      "outputs": [
        {
          "internalType": "contract IBankLicenseRegistryView",
          "name": "",
          "type": "address"
        }
      ],
      "stateMutability": "view",
      "type": "function"
    },
    {
      "inputs": [],
      "name": "owner",
      "outputs": [
        {
          "internalType": "address",
          "name": "",
          "type": "address"
        }
      ],
      "stateMutability": "view",
      "type": "function"
    },
    {
      "inputs": [
        {
          "internalType": "uint32",
          "name": "year",
          "type": "uint32"
        },
        {
          "internalType": "bytes32",
          "name": "taxpayerAccountId",
          "type": "bytes32"
        },
        {
          "internalType": "bytes32",
          "name": "republicKey",
          "type": "bytes32"
        },
        {
          "internalType": "address",
          "name": "asset",
          "type": "address"
        },
        {
          "internalType": "uint256",
          "name": "amount",
          "type": "uint256"
        },
        {
          "internalType": "bytes32",
          "name": "memo",
          "type": "bytes32"
        }
      ],
      "name": "payTax",
      "outputs": [],
      "stateMutability": "nonpayable",
      "type": "function"
    },
    {
      "inputs": [
        {
          "internalType": "uint32",
          "name": "",
          "type": "uint32"
        },
        {
          "internalType": "bytes32",
          "name": "",
          "type": "bytes32"
        }
      ],
      "name": "recordOf",
      "outputs": [
        {
          "internalType": "uint256",
          "name": "declaredProfit",
          "type": "uint256"
        },
        {
          "internalType": "uint256",
          "name": "taxDue",
          "type": "uint256"
        },
        {
          "internalType": "uint256",
          "name": "taxPaid",
          "type": "uint256"
        },
        {
          "internalType": "uint64",
          "name": "declaredAt",
          "type": "uint64"
        },
        {
          "internalType": "uint64",
          "name": "lastPaidAt",
          "type": "uint64"
        }
      ],
      "stateMutability": "view",
      "type": "function"
    },
    {
      "inputs": [
        {
          "internalType": "bytes32",
          "name": "",
          "type": "bytes32"
        }
      ],
      "name": "republicBudgetAccountIdOf",
      "outputs": [
        {
          "internalType": "bytes32",
          "name": "",
          "type": "bytes32"
        }
      ],
      "stateMutability": "view",
      "type": "function"
    },
    {
      "inputs": [
        {
          "internalType": "bytes32",
          "name": "republicKey",
          "type": "bytes32"
        },
        {
          "internalType": "bytes32",
          "name": "budgetAccountId",
          "type": "bytes32"
        }
      ],
      "name": "setRepublic",
      "outputs": [],
      "stateMutability": "nonpayable",
      "type": "function"
    },
    {
      "inputs": [
        {
          "internalType": "address",
          "name": "caller",
          "type": "address"
        },
        {
          "internalType": "bool",
          "name": "ok",
          "type": "bool"
        }
      ],
      "name": "setTrustedBankCaller",
      "outputs": [],
      "stateMutability": "nonpayable",
      "type": "function"
    },
    {
      "inputs": [
        {
          "internalType": "address",
          "name": "",
          "type": "address"
        }
      ],
      "name": "trustedBankCaller",
      "outputs": [
        {
          "internalType": "bool",
          "name": "",
          "type": "bool"
        }
      ],
      "stateMutability": "view",
      "type": "function"
    }
  ],
  "bytecode": "0x60803461009c57601f610b5738819003918201601f19168301916001600160401b038311848410176100a15780849260609460405283398101031261009c57610047816100b7565b906040610056602083016100b7565b9101519160018060a01b0319913383600054161760005560018060a01b0380921683600154161760015516906002541617600255600455604051610a8b90816100cc8239f35b600080fd5b634e487b7160e01b600052604160045260246000fd5b51906001600160a01b038216820361009c5756fe608080604052600436101561001357600080fd5b600090813560e01c9081630a0f9ce3146109a957508063531763f21461098c57806356397c3514610963578063649bf0af146108ea57806368f4a786146108cd57806375162e491461080d57806376083da0146107ce57806382e1f5061461036f5780638da5cb5b14610348578063af9d0ac2146101fd578063b3ca3ed8146101e0578063c2fda487146101b7578063d5f1258b1461012d578063e17b2190146100f25763fc06a77f146100c657600080fd5b346100ef5760203660031901126100ef5760406020916004358152600583522054604051908152f35b80fd5b50346100ef5760403660031901126100ef5761011860018060a01b038254163314610a1d565b60043581526005602052602435604082205580f35b50346100ef5760403660031901126100ef576101476109dd565b602435908115158092036101b35760207f46e75ecf21bbb6dbace69a72d26bbcc5ac5e8fb894032fdb82607a86e31431c79160018060a01b039061018f828754163314610a1d565b1692838552600382526040852060ff1981541660ff8316179055604051908152a280f35b8280fd5b50346100ef57806003193601126100ef576002546040516001600160a01b039091168152602090f35b50346100ef57806003193601126100ef5760206040516102bc8152f35b50346100ef5760803660031901126100ef576102176109c5565b602435604435916064359081156103155783855260056020526040852054156102dd5763ffffffff169081855260066020526040852083865260205260408520908082556103e89081810291818304036102c7577f4dd0a699b17a093f792e15e6a80909d64db82d4fd2013a6dcd6b3e9683f629a892600361271060409404918260018201550167ffffffffffffffff421667ffffffffffffffff1982541617905582519182526020820152a480f35b634e487b7160e01b600052601160045260246000fd5b60405162461bcd60e51b815260206004820152601060248201526f1491541550931250d7d393d517d4d15560821b6044820152606490fd5b60405162461bcd60e51b815260206004820152600b60248201526a16915493d7d41493d1925560aa1b6044820152606490fd5b50346100ef57806003193601126100ef57546040516001600160a01b039091168152602090f35b50346100ef5760c03660031901126100ef576103896109c5565b6064356001600160a01b03811690036107ca5760843590338352600360205260ff604084205416156106de575b63ffffffff811683526006602052604083206024358452602052604083209160018301549081156106a85760028401548281101561067457811561064157820391821161062d57818111156106255750915b6102bc8084029084159085830414811715610611576127109161012c91828702928784041417156105fd576044358752600560205286604081205460018060a01b036001541690813b156101b357604051632240a9ad60e01b8152602480356004830152810191909152606480356001600160a01b031660448301528685049082015260a480356084830152909291839190829084905af180156105f2576105df575b5060015460045488916001600160a01b0316803b156101b357604051632240a9ad60e01b8152602480356004830152810192909252606480356001600160a01b031660448401528686049083015260a4803560848401528391839190829084905af180156105d4576105bc575b50506002840154938685018095116105a857906003828660028795015501805467ffffffffffffffff60401b4260401b169067ffffffffffffffff60401b19161790556040519687520460208601520460408401526060830152604435917ff008c99bc1d62cc6a8bc0064b83e4bb4183440733f77b82fdf426be94c13da06608063ffffffff602435941692a480f35b634e487b7160e01b88526011600452602488fd5b6105c5906109f3565b6105d0578638610518565b8680fd5b6040513d84823e3d90fd5b6105eb909791976109f3565b95386104ab565b6040513d8a823e3d90fd5b634e487b7160e01b87526011600452602487fd5b634e487b7160e01b86526011600452602486fd5b905091610408565b634e487b7160e01b85526011600452602485fd5b60405162461bcd60e51b815260206004820152600b60248201526a16915493d7d05353d5539560aa1b6044820152606490fd5b60405162461bcd60e51b815260206004820152600c60248201526b1053149150511657d410525160a21b6044820152606490fd5b60405162461bcd60e51b815260206004820152600e60248201526d2727afa222a1a620a920aa24a7a760911b6044820152606490fd5b600254604051632950b0a960e21b815233600482015290602090829060249082906001600160a01b03165afa9081156107bf578491610756575b506103b65760405162461bcd60e51b81526020600482015260116024820152704e4f545f4c4943454e5345445f42414e4b60781b6044820152606490fd5b905060203d6020116107b8575b601f8101601f1916820167ffffffffffffffff8111838210176107a4576020918391604052810103126107a0575180151581036107a05738610718565b8380fd5b634e487b7160e01b86526041600452602486fd5b503d610763565b6040513d86823e3d90fd5b5080fd5b50346100ef5760203660031901126100ef5760209060ff906040906001600160a01b036107f96109dd565b168152600384522054166040519015158152f35b50346100ef5760403660031901126100ef5763ffffffff61082c6109c5565b16815260066020526040812060243582526020526040812060405160a081019067ffffffffffffffff91818110838211176108b95760209450604052825481526080600184015492838684015260036002860154958660408601520154818116606085015260401c1691015280151591826108ae575b50506040519015158152f35b1015905038806108a2565b634e487b7160e01b85526041600452602485fd5b50346100ef57806003193601126100ef5760206040516103e88152f35b50346100ef5760403660031901126100ef57604060a09163ffffffff61090e6109c5565b1681526006602052818120602435825260205220805490600181015490600360028201549101549067ffffffffffffffff9260405194855260208501526040840152818116606084015260401c166080820152f35b50346100ef57806003193601126100ef576001546040516001600160a01b039091168152602090f35b50346100ef57806003193601126100ef57602060405161012c8152f35b9050346107ca57816003193601126107ca576020906004548152f35b6004359063ffffffff821682036109d857565b600080fd5b600435906001600160a01b03821682036109d857565b67ffffffffffffffff8111610a0757604052565b634e487b7160e01b600052604160045260246000fd5b15610a2457565b60405162461bcd60e51b81526020600482015260096024820152682727aa2fa7aba722a960b91b6044820152606490fdfea26469706673582212209d7c059c0a586f6ff7fb0d84ab6369c579f66d5a368fcd80410ade0d29623f8464736f6c63430008180033",
  "linkReferences": {},
  "deployedLinkReferences": {}
}