{
  "_format": "hh-sol-artifact-1",
  "contractName": "MyanganLeaderAppointment",
  "sourceName": "contracts/MyanganLeaderAppointment.sol",
  "abi": [
    {
      "inputs": [
        {
          "internalType": "address",
          "name": "registry_",
          "type": "address"
        },
        {
          "internalType": "uint256",
          "name": "myanganId_",
          "type": "uint256"
        },
        {
          "internalType": "address",
          "name": "newLeader_",
          "type": "address"
        },
        {
          "internalType": "bytes32",
          "name": "docHash_",
          "type": "bytes32"
        },
        {
          "internalType": "address",
          "name": "notary_",
          "type": "address"
        }
      ],
      "stateMutability": "nonpayable",
      "type": "constructor"
    },
    {
      "inputs": [],
      "name": "AlreadySigned",
      "type": "error"
    },
    {
      "inputs": [],
      "name": "FinalizedAlready",
      "type": "error"
    },
    {
      "inputs": [],
      "name": "InvalidNewLeader",
      "type": "error"
    },
    {
      "inputs": [],
      "name": "NotEnoughSignatures",
      "type": "error"
    },
    {
      "inputs": [],
      "name": "NotLeaderOfThisMyangan",
      "type": "error"
    },
    {
      "anonymous": false,
      "inputs": [
        {
          "indexed": true,
          "internalType": "uint256",
          "name": "myanganId",
          "type": "uint256"
        },
        {
          "indexed": true,
          "internalType": "address",
          "name": "newLeader",
          "type": "address"
        }
      ],
      "name": "Finalized",
      "type": "event"
    },
    {
      "anonymous": false,
      "inputs": [
        {
          "indexed": true,
          "internalType": "address",
          "name": "signer",
          "type": "address"
        },
        {
          "indexed": false,
          "internalType": "uint256",
          "name": "signedCount",
          "type": "uint256"
        }
      ],
      "name": "Signed",
      "type": "event"
    },
    {
      "inputs": [],
      "name": "docHash",
      "outputs": [
        {
          "internalType": "bytes32",
          "name": "",
          "type": "bytes32"
        }
      ],
      "stateMutability": "view",
      "type": "function"
    },
    {
      "inputs": [],
      "name": "finalize",
      "outputs": [],
      "stateMutability": "nonpayable",
      "type": "function"
    },
    {
      "inputs": [],
      "name": "finalized",
      "outputs": [
        {
          "internalType": "bool",
          "name": "",
          "type": "bool"
        }
      ],
      "stateMutability": "view",
      "type": "function"
    },
    {
      "inputs": [],
      "name": "myanganId",
      "outputs": [
        {
          "internalType": "uint256",
          "name": "",
          "type": "uint256"
        }
      ],
      "stateMutability": "view",
      "type": "function"
    },
    {
      "inputs": [],
      "name": "newLeader",
      "outputs": [
        {
          "internalType": "address",
          "name": "",
          "type": "address"
        }
      ],
      "stateMutability": "view",
      "type": "function"
    },
    {
      "inputs": [],
      "name": "notary",
      "outputs": [
        {
          "internalType": "address",
          "name": "",
          "type": "address"
        }
      ],
      "stateMutability": "view",
      "type": "function"
    },
    {
      "inputs": [],
      "name": "registry",
      "outputs": [
        {
          "internalType": "contract IStructureRegistryMLA",
          "name": "",
          "type": "address"
        }
      ],
      "stateMutability": "view",
      "type": "function"
    },
    {
      "inputs": [],
      "name": "sign",
      "outputs": [],
      "stateMutability": "nonpayable",
      "type": "function"
    },
    {
      "inputs": [
        {
          "internalType": "address",
          "name": "",
          "type": "address"
        }
      ],
      "name": "signed",
      "outputs": [
        {
          "internalType": "bool",
          "name": "",
          "type": "bool"
        }
      ],
      "stateMutability": "view",
      "type": "function"
    },
    {
      "inputs": [],
      "name": "signedCount",
      "outputs": [
        {
          "internalType": "uint256",
          "name": "",
          "type": "uint256"
        }
      ],
      "stateMutability": "view",
      "type": "function"
    }
  ],
  "bytecode": "0x610120346100ff57601f61095f38819003918201601f19168301916001600160401b038311848410176101045780849260a0946040528339810103126100ff576100488161011a565b90602081015161005a6040830161011a565b9061006c60806060850151940161011a565b936001600160a01b0390838216156100ed571660805260a05260c05260e052610100908152604051610830918261012f833960805182818161018b0152818161021001526106ac015260a05182818160ce0152818161023401526106df015260c05182818161010501526102c4015260e05182610492015251816101480152f35b604051634a018bd960e01b8152600490fd5b600080fd5b634e487b7160e01b600052604160045260246000fd5b51906001600160a01b03821682036100ff5756fe608060408181526004918236101561001657600080fd5b600092833560e01c9182630555ff4114610583575081632ca15122146104b55781633d6df0d51461047a5781634bb278f3146101d8575080635f3d8f4a146101ba5780637b103999146101775780639d54c79d14610134578063a24ed8aa146100f1578063a45926d4146100b75763b3f05b971461009357600080fd5b346100b357816003193601126100b35760ff602092541690519015158152f35b5080fd5b50346100b357816003193601126100b357602090517f00000000000000000000000000000000000000000000000000000000000000008152f35b50346100b357816003193601126100b357517f00000000000000000000000000000000000000000000000000000000000000006001600160a01b03168152602090f35b50346100b357816003193601126100b357517f00000000000000000000000000000000000000000000000000000000000000006001600160a01b03168152602090f35b50346100b357816003193601126100b357517f00000000000000000000000000000000000000000000000000000000000000006001600160a01b03168152602090f35b50346100b357816003193601126100b3576020906002549051908152f35b90503461047657826003193601126104765782549160ff9160ff841661046857600a93600a600254106104595760018060a01b0390817f00000000000000000000000000000000000000000000000000000000000000001695867f000000000000000000000000000000000000000000000000000000000000000096865163727360cd60e11b8152888782015261014090818160248181975afa91821561044f578c92610422575b5050908a97969594939291885b84811061036057505050505060019060ff1916178455853b1561035c5783906044845180968193626770b760e81b835289878401527f000000000000000000000000000000000000000000000000000000000000000016998a60248401525af1801561035257610322575b5050507f7b1990f6546bb8c366883c6dbadda7cbb52114d60570d3f7ab226e6a59f35bf28380a380f35b67ffffffffffffffff839694961161033f575052913880806102f8565b634e487b7160e01b845260419052602483fd5b82513d88823e3d90fd5b8380fd5b909192939495969798610373828461065b565b518a5190635d7234b760e11b82528a820152808d818860209485935afa90811561041857908a9184916103eb575b501680159283156103d6575b5050506103c657600101908b989796959493929161028d565b885163e246dc6360e01b81528890fd5b60019350525282898d2054161538808e6103ad565b61040b9150833d8511610411575b61040381836105bf565b810190610682565b386103a1565b503d6103f9565b8c513d85823e3d90fd5b6104419250803d10610448575b61043981836105bf565b8101906105f7565b3880610280565b503d61042f565b89513d8e823e3d90fd5b50905163e246dc6360e01b8152fd5b9051632b372a4360e01b8152fd5b8280fd5b5050346100b357816003193601126100b357602090517f00000000000000000000000000000000000000000000000000000000000000008152f35b9190503461047657826003193601126104765760ff83541661057657338352600160205260ff8184205416610569576104ed336106a1565b1561055c573383526001602052808320600160ff198254161790556002549160018301809311610549575081600255519081527ff4b7ab5b8fc49d6d35d323cae6a96e1441b461f862dfc5aff92e806e2839b5b060203392a280f35b634e487b7160e01b845260119052602483fd5b51630e7081c560e31b8152fd5b5163585eb56560e11b8152fd5b51632b372a4360e01b8152fd5b9291503461035c57602036600319011261035c57356001600160a01b0381169081900361035c5783526001602090815292205460ff1615158152f35b90601f8019910116810190811067ffffffffffffffff8211176105e157604052565b634e487b7160e01b600052604160045260246000fd5b9061014080838303126106565781601f84011215610656576040519281840184811067ffffffffffffffff8211176105e1576040528391810192831161065657905b8282106106465750505090565b8151815260209182019101610639565b600080fd5b90600a81101561066c5760051b0190565b634e487b7160e01b600052603260045260246000fd5b9081602091031261065657516001600160a01b03811681036106565790565b60018060a01b0390817f000000000000000000000000000000000000000000000000000000000000000016916040805163727360cd60e11b815260047f00000000000000000000000000000000000000000000000000000000000000006004830152610140956024928781602481855afa9788156107ee576000986107cf575b505060005b600a811061073b575050505050505050600090565b610745818961065b565b51855190635d7234b760e11b82528482015260209081818781875afa9182156107c457908892916000926107a7575b5050168688168114908161079d575b5061079057600101610726565b5050505050505050600190565b9050151538610783565b6107bd9250803d106104115761040381836105bf565b3880610774565b87513d6000823e3d90fd5b6107e6929850803d106104485761043981836105bf565b953880610721565b6040513d6000823e3d90fdfea2646970667358221220a5f6911fb2494db4a58fbacb94822541d206657785e6a82566045a4e02c4bf4164736f6c63430008180033",
  "linkReferences": {},
  "deployedLinkReferences": {}
}