{
  "_format": "hh-sol-artifact-1",
  "contractName": "BankTaxPayer",
  "sourceName": "contracts/BankTaxPayer.sol",
  "abi": [
    {
      "inputs": [
        {
          "internalType": "address",
          "name": "taxAuthorityAddr",
          "type": "address"
        }
      ],
      "stateMutability": "nonpayable",
      "type": "constructor"
    },
    {
      "anonymous": false,
      "inputs": [
        {
          "indexed": true,
          "internalType": "address",
          "name": "oldOwner",
          "type": "address"
        },
        {
          "indexed": true,
          "internalType": "address",
          "name": "newOwner",
          "type": "address"
        }
      ],
      "name": "OwnerChanged",
      "type": "event"
    },
    {
      "anonymous": false,
      "inputs": [
        {
          "indexed": true,
          "internalType": "address",
          "name": "taxAuthority",
          "type": "address"
        }
      ],
      "name": "TaxAuthoritySet",
      "type": "event"
    },
    {
      "inputs": [],
      "name": "owner",
      "outputs": [
        {
          "internalType": "address",
          "name": "",
          "type": "address"
        }
      ],
      "stateMutability": "view",
      "type": "function"
    },
    {
      "inputs": [
        {
          "internalType": "uint32",
          "name": "year",
          "type": "uint32"
        },
        {
          "internalType": "bytes32",
          "name": "taxpayerAccountId",
          "type": "bytes32"
        },
        {
          "internalType": "bytes32",
          "name": "republicKey",
          "type": "bytes32"
        },
        {
          "internalType": "address",
          "name": "asset",
          "type": "address"
        },
        {
          "internalType": "uint256",
          "name": "amount",
          "type": "uint256"
        },
        {
          "internalType": "bytes32",
          "name": "memo",
          "type": "bytes32"
        }
      ],
      "name": "payTaxForClient",
      "outputs": [],
      "stateMutability": "nonpayable",
      "type": "function"
    },
    {
      "inputs": [
        {
          "internalType": "address",
          "name": "taxAuthorityAddr",
          "type": "address"
        }
      ],
      "name": "setTaxAuthority",
      "outputs": [],
      "stateMutability": "nonpayable",
      "type": "function"
    },
    {
      "inputs": [],
      "name": "taxAuthority",
      "outputs": [
        {
          "internalType": "contract ITaxAuthorityBankOnly",
          "name": "",
          "type": "address"
        }
      ],
      "stateMutability": "view",
      "type": "function"
    },
    {
      "inputs": [
        {
          "internalType": "address",
          "name": "newOwner",
          "type": "address"
        }
      ],
      "name": "transferOwnership",
      "outputs": [],
      "stateMutability": "nonpayable",
      "type": "function"
    }
  ],
  "bytecode": "0x6080346100a157601f6103f738819003918201601f19168301916001600160401b038311848410176100a6578084926020946040528339810103126100a157516001600160a01b038116908190036100a1578060018060a01b0319338160005416176000556001541617600155604051907f373d8bdbb013bebe6563b87a256bcaf9379ced052a621593be2879af03bafca9600080a261033a90816100bd8239f35b600080fd5b634e487b7160e01b600052604160045260246000fdfe604060808152600436101561001357600080fd5b600090813560e01c9081633b07fa57146102015781636a879d59146101245781636f6768b1146100fb5781638da5cb5b146100cf575063f2fde38b1461005857600080fd5b346100cc5760203660031901126100cc57610071610279565b81546001600160a01b038082169261008a338514610294565b1680926100988215156102cc565b7fb532073b38c83145e3e5135377a08bf9aab55bc0fd7c1179cd4fb995d2a5159c8580a36001600160a01b03191617815580f35b80fd5b9050346100f757816003193601126100f757905490516001600160a01b039091168152602090f35b5080fd5b9050346100f757816003193601126100f75760015490516001600160a01b039091168152602090f35b9050346100f75760c03660031901126100f7576004359063ffffffff82168092036101fd57826064356001600160a01b03818116918290036101fd5761016e818454163314610294565b6001541693843b156101fd5760c4908385519687948593634170fa8360e11b85526004850152602435602485015260443560448501526064840152608435608484015260a43560a48401525af180156101f3576101c9578280f35b67ffffffffffffffff82116101df575238808280f35b634e487b7160e01b83526041600452602483fd5b81513d85823e3d90fd5b8280fd5b82346100cc5760203660031901126100cc5761021b610279565b81546001600160a01b0391906102349083163314610294565b166102408115156102cc565b600180546001600160a01b031916821790557f373d8bdbb013bebe6563b87a256bcaf9379ced052a621593be2879af03bafca98280a280f35b600435906001600160a01b038216820361028f57565b600080fd5b1561029b57565b60405162461bcd60e51b81526020600482015260096024820152682727aa2fa7aba722a960b91b6044820152606490fd5b156102d357565b60405162461bcd60e51b81526020600482015260096024820152682d22a927afa0a2222960b91b6044820152606490fdfea26469706673582212201a52f8e705f1f7f3a4833dcc6f8db51497a79cfe374841cc776f232b8a1547ca64736f6c63430008180033",
  "linkReferences": {},
  "deployedLinkReferences": {}
}