{
  "_format": "hh-sol-artifact-1",
  "contractName": "StateTreasury",
  "sourceName": "contracts/StateTreasury.sol",
  "abi": [
    {
      "inputs": [
        {
          "internalType": "bytes32",
          "name": "accountId",
          "type": "bytes32"
        }
      ],
      "stateMutability": "nonpayable",
      "type": "constructor"
    },
    {
      "inputs": [],
      "name": "treasuryAccountId",
      "outputs": [
        {
          "internalType": "bytes32",
          "name": "",
          "type": "bytes32"
        }
      ],
      "stateMutability": "view",
      "type": "function"
    }
  ],
  "bytecode": "0x60a03461005857601f61010c38819003918201601f19168301916001600160401b0383118484101761005d57808492602094604052833981010312610058575160805260405160989081610074823960805181603b0152f35b600080fd5b634e487b7160e01b600052604160045260246000fdfe6080806040526004361015601257600080fd5b600090813560e01c631b6f404e14602857600080fd5b34605e5781600319360112605e576020907f00000000000000000000000000000000000000000000000000000000000000008152f35b5080fdfea2646970667358221220534b58d02e6bea651b86fb5eb0af360895193216bc97eadb54bbec80ea51150264736f6c63430008180033",
  "linkReferences": {},
  "deployedLinkReferences": {}
}