{
  "_format": "hh-sol-artifact-1",
  "contractName": "SeatSBT",
  "sourceName": "contracts/SeatSBT.sol",
  "abi": [
    {
      "inputs": [],
      "stateMutability": "nonpayable",
      "type": "constructor"
    },
    {
      "inputs": [],
      "name": "AccessControlBadConfirmation",
      "type": "error"
    },
    {
      "inputs": [
        {
          "internalType": "address",
          "name": "account",
          "type": "address"
        },
        {
          "internalType": "bytes32",
          "name": "neededRole",
          "type": "bytes32"
        }
      ],
      "name": "AccessControlUnauthorizedAccount",
      "type": "error"
    },
    {
      "inputs": [
        {
          "internalType": "address",
          "name": "sender",
          "type": "address"
        },
        {
          "internalType": "uint256",
          "name": "tokenId",
          "type": "uint256"
        },
        {
          "internalType": "address",
          "name": "owner",
          "type": "address"
        }
      ],
      "name": "ERC721IncorrectOwner",
      "type": "error"
    },
    {
      "inputs": [
        {
          "internalType": "address",
          "name": "operator",
          "type": "address"
        },
        {
          "internalType": "uint256",
          "name": "tokenId",
          "type": "uint256"
        }
      ],
      "name": "ERC721InsufficientApproval",
      "type": "error"
    },
    {
      "inputs": [
        {
          "internalType": "address",
          "name": "approver",
          "type": "address"
        }
      ],
      "name": "ERC721InvalidApprover",
      "type": "error"
    },
    {
      "inputs": [
        {
          "internalType": "address",
          "name": "operator",
          "type": "address"
        }
      ],
      "name": "ERC721InvalidOperator",
      "type": "error"
    },
    {
      "inputs": [
        {
          "internalType": "address",
          "name": "owner",
          "type": "address"
        }
      ],
      "name": "ERC721InvalidOwner",
      "type": "error"
    },
    {
      "inputs": [
        {
          "internalType": "address",
          "name": "receiver",
          "type": "address"
        }
      ],
      "name": "ERC721InvalidReceiver",
      "type": "error"
    },
    {
      "inputs": [
        {
          "internalType": "address",
          "name": "sender",
          "type": "address"
        }
      ],
      "name": "ERC721InvalidSender",
      "type": "error"
    },
    {
      "inputs": [
        {
          "internalType": "uint256",
          "name": "tokenId",
          "type": "uint256"
        }
      ],
      "name": "ERC721NonexistentToken",
      "type": "error"
    },
    {
      "anonymous": false,
      "inputs": [
        {
          "indexed": true,
          "internalType": "address",
          "name": "owner",
          "type": "address"
        },
        {
          "indexed": true,
          "internalType": "address",
          "name": "approved",
          "type": "address"
        },
        {
          "indexed": true,
          "internalType": "uint256",
          "name": "tokenId",
          "type": "uint256"
        }
      ],
      "name": "Approval",
      "type": "event"
    },
    {
      "anonymous": false,
      "inputs": [
        {
          "indexed": true,
          "internalType": "address",
          "name": "owner",
          "type": "address"
        },
        {
          "indexed": true,
          "internalType": "address",
          "name": "operator",
          "type": "address"
        },
        {
          "indexed": false,
          "internalType": "bool",
          "name": "approved",
          "type": "bool"
        }
      ],
      "name": "ApprovalForAll",
      "type": "event"
    },
    {
      "anonymous": false,
      "inputs": [
        {
          "indexed": true,
          "internalType": "bytes32",
          "name": "role",
          "type": "bytes32"
        },
        {
          "indexed": true,
          "internalType": "bytes32",
          "name": "previousAdminRole",
          "type": "bytes32"
        },
        {
          "indexed": true,
          "internalType": "bytes32",
          "name": "newAdminRole",
          "type": "bytes32"
        }
      ],
      "name": "RoleAdminChanged",
      "type": "event"
    },
    {
      "anonymous": false,
      "inputs": [
        {
          "indexed": true,
          "internalType": "bytes32",
          "name": "role",
          "type": "bytes32"
        },
        {
          "indexed": true,
          "internalType": "address",
          "name": "account",
          "type": "address"
        },
        {
          "indexed": true,
          "internalType": "address",
          "name": "sender",
          "type": "address"
        }
      ],
      "name": "RoleGranted",
      "type": "event"
    },
    {
      "anonymous": false,
      "inputs": [
        {
          "indexed": true,
          "internalType": "bytes32",
          "name": "role",
          "type": "bytes32"
        },
        {
          "indexed": true,
          "internalType": "address",
          "name": "account",
          "type": "address"
        },
        {
          "indexed": true,
          "internalType": "address",
          "name": "sender",
          "type": "address"
        }
      ],
      "name": "RoleRevoked",
      "type": "event"
    },
    {
      "anonymous": false,
      "inputs": [
        {
          "indexed": true,
          "internalType": "address",
          "name": "from",
          "type": "address"
        },
        {
          "indexed": true,
          "internalType": "address",
          "name": "to",
          "type": "address"
        },
        {
          "indexed": true,
          "internalType": "uint256",
          "name": "tokenId",
          "type": "uint256"
        }
      ],
      "name": "Transfer",
      "type": "event"
    },
    {
      "inputs": [],
      "name": "DEFAULT_ADMIN_ROLE",
      "outputs": [
        {
          "internalType": "bytes32",
          "name": "",
          "type": "bytes32"
        }
      ],
      "stateMutability": "view",
      "type": "function"
    },
    {
      "inputs": [],
      "name": "REGISTRAR_ROLE",
      "outputs": [
        {
          "internalType": "bytes32",
          "name": "",
          "type": "bytes32"
        }
      ],
      "stateMutability": "view",
      "type": "function"
    },
    {
      "inputs": [
        {
          "internalType": "address",
          "name": "to",
          "type": "address"
        },
        {
          "internalType": "uint256",
          "name": "tokenId",
          "type": "uint256"
        }
      ],
      "name": "approve",
      "outputs": [],
      "stateMutability": "nonpayable",
      "type": "function"
    },
    {
      "inputs": [
        {
          "internalType": "address",
          "name": "owner",
          "type": "address"
        }
      ],
      "name": "balanceOf",
      "outputs": [
        {
          "internalType": "uint256",
          "name": "",
          "type": "uint256"
        }
      ],
      "stateMutability": "view",
      "type": "function"
    },
    {
      "inputs": [
        {
          "internalType": "uint256",
          "name": "tokenId",
          "type": "uint256"
        }
      ],
      "name": "getApproved",
      "outputs": [
        {
          "internalType": "address",
          "name": "",
          "type": "address"
        }
      ],
      "stateMutability": "view",
      "type": "function"
    },
    {
      "inputs": [
        {
          "internalType": "bytes32",
          "name": "role",
          "type": "bytes32"
        }
      ],
      "name": "getRoleAdmin",
      "outputs": [
        {
          "internalType": "bytes32",
          "name": "",
          "type": "bytes32"
        }
      ],
      "stateMutability": "view",
      "type": "function"
    },
    {
      "inputs": [
        {
          "internalType": "bytes32",
          "name": "role",
          "type": "bytes32"
        },
        {
          "internalType": "address",
          "name": "account",
          "type": "address"
        }
      ],
      "name": "grantRole",
      "outputs": [],
      "stateMutability": "nonpayable",
      "type": "function"
    },
    {
      "inputs": [
        {
          "internalType": "bytes32",
          "name": "role",
          "type": "bytes32"
        },
        {
          "internalType": "address",
          "name": "account",
          "type": "address"
        }
      ],
      "name": "hasRole",
      "outputs": [
        {
          "internalType": "bool",
          "name": "",
          "type": "bool"
        }
      ],
      "stateMutability": "view",
      "type": "function"
    },
    {
      "inputs": [
        {
          "internalType": "address",
          "name": "owner",
          "type": "address"
        },
        {
          "internalType": "address",
          "name": "operator",
          "type": "address"
        }
      ],
      "name": "isApprovedForAll",
      "outputs": [
        {
          "internalType": "bool",
          "name": "",
          "type": "bool"
        }
      ],
      "stateMutability": "view",
      "type": "function"
    },
    {
      "inputs": [
        {
          "internalType": "uint256",
          "name": "seatId",
          "type": "uint256"
        }
      ],
      "name": "isCitizen",
      "outputs": [
        {
          "internalType": "bool",
          "name": "",
          "type": "bool"
        }
      ],
      "stateMutability": "view",
      "type": "function"
    },
    {
      "inputs": [
        {
          "internalType": "address",
          "name": "to",
          "type": "address"
        }
      ],
      "name": "mintSeat",
      "outputs": [
        {
          "internalType": "uint256",
          "name": "seatId",
          "type": "uint256"
        }
      ],
      "stateMutability": "nonpayable",
      "type": "function"
    },
    {
      "inputs": [],
      "name": "name",
      "outputs": [
        {
          "internalType": "string",
          "name": "",
          "type": "string"
        }
      ],
      "stateMutability": "view",
      "type": "function"
    },
    {
      "inputs": [],
      "name": "nextId",
      "outputs": [
        {
          "internalType": "uint256",
          "name": "",
          "type": "uint256"
        }
      ],
      "stateMutability": "view",
      "type": "function"
    },
    {
      "inputs": [
        {
          "internalType": "uint256",
          "name": "tokenId",
          "type": "uint256"
        }
      ],
      "name": "ownerOf",
      "outputs": [
        {
          "internalType": "address",
          "name": "",
          "type": "address"
        }
      ],
      "stateMutability": "view",
      "type": "function"
    },
    {
      "inputs": [
        {
          "internalType": "bytes32",
          "name": "role",
          "type": "bytes32"
        },
        {
          "internalType": "address",
          "name": "callerConfirmation",
          "type": "address"
        }
      ],
      "name": "renounceRole",
      "outputs": [],
      "stateMutability": "nonpayable",
      "type": "function"
    },
    {
      "inputs": [
        {
          "internalType": "bytes32",
          "name": "role",
          "type": "bytes32"
        },
        {
          "internalType": "address",
          "name": "account",
          "type": "address"
        }
      ],
      "name": "revokeRole",
      "outputs": [],
      "stateMutability": "nonpayable",
      "type": "function"
    },
    {
      "inputs": [
        {
          "internalType": "address",
          "name": "from",
          "type": "address"
        },
        {
          "internalType": "address",
          "name": "to",
          "type": "address"
        },
        {
          "internalType": "uint256",
          "name": "tokenId",
          "type": "uint256"
        }
      ],
      "name": "safeTransferFrom",
      "outputs": [],
      "stateMutability": "nonpayable",
      "type": "function"
    },
    {
      "inputs": [
        {
          "internalType": "address",
          "name": "from",
          "type": "address"
        },
        {
          "internalType": "address",
          "name": "to",
          "type": "address"
        },
        {
          "internalType": "uint256",
          "name": "tokenId",
          "type": "uint256"
        },
        {
          "internalType": "bytes",
          "name": "data",
          "type": "bytes"
        }
      ],
      "name": "safeTransferFrom",
      "outputs": [],
      "stateMutability": "nonpayable",
      "type": "function"
    },
    {
      "inputs": [
        {
          "internalType": "address",
          "name": "operator",
          "type": "address"
        },
        {
          "internalType": "bool",
          "name": "approved",
          "type": "bool"
        }
      ],
      "name": "setApprovalForAll",
      "outputs": [],
      "stateMutability": "nonpayable",
      "type": "function"
    },
    {
      "inputs": [
        {
          "internalType": "uint256",
          "name": "seatId",
          "type": "uint256"
        },
        {
          "internalType": "enum SeatSBT.Status",
          "name": "s",
          "type": "uint8"
        }
      ],
      "name": "setStatus",
      "outputs": [],
      "stateMutability": "nonpayable",
      "type": "function"
    },
    {
      "inputs": [
        {
          "internalType": "uint256",
          "name": "seatId",
          "type": "uint256"
        },
        {
          "internalType": "address",
          "name": "seatTamga",
          "type": "address"
        }
      ],
      "name": "setTamga",
      "outputs": [],
      "stateMutability": "nonpayable",
      "type": "function"
    },
    {
      "inputs": [
        {
          "internalType": "uint256",
          "name": "",
          "type": "uint256"
        }
      ],
      "name": "statusOf",
      "outputs": [
        {
          "internalType": "enum SeatSBT.Status",
          "name": "",
          "type": "uint8"
        }
      ],
      "stateMutability": "view",
      "type": "function"
    },
    {
      "inputs": [
        {
          "internalType": "bytes4",
          "name": "interfaceId",
          "type": "bytes4"
        }
      ],
      "name": "supportsInterface",
      "outputs": [
        {
          "internalType": "bool",
          "name": "",
          "type": "bool"
        }
      ],
      "stateMutability": "view",
      "type": "function"
    },
    {
      "inputs": [],
      "name": "symbol",
      "outputs": [
        {
          "internalType": "string",
          "name": "",
          "type": "string"
        }
      ],
      "stateMutability": "view",
      "type": "function"
    },
    {
      "inputs": [
        {
          "internalType": "uint256",
          "name": "",
          "type": "uint256"
        }
      ],
      "name": "tamgaOf",
      "outputs": [
        {
          "internalType": "address",
          "name": "",
          "type": "address"
        }
      ],
      "stateMutability": "view",
      "type": "function"
    },
    {
      "inputs": [
        {
          "internalType": "uint256",
          "name": "tokenId",
          "type": "uint256"
        }
      ],
      "name": "tokenURI",
      "outputs": [
        {
          "internalType": "string",
          "name": "",
          "type": "string"
        }
      ],
      "stateMutability": "view",
      "type": "function"
    },
    {
      "inputs": [
        {
          "internalType": "address",
          "name": "from",
          "type": "address"
        },
        {
          "internalType": "address",
          "name": "to",
          "type": "address"
        },
        {
          "internalType": "uint256",
          "name": "tokenId",
          "type": "uint256"
        }
      ],
      "name": "transferFrom",
      "outputs": [],
      "stateMutability": "nonpayable",
      "type": "function"
    }
  ],
  "bytecode": "0x608060405260016007553480156200001657600080fd5b506040518060400160405280600b81526020016a125393d350510814d9585d60aa1b8152506040518060400160405280600481526020016314d1505560e21b815250816000908162000069919062000218565b50600162000078828262000218565b506200008a91506000905033620000be565b50620000b77fedcc084d3dcd65a1f7f23c65c46722faca6953d28e43150a467cf43e5c30923833620000be565b50620002e4565b60008281526006602090815260408083206001600160a01b038516845290915281205460ff16620001675760008381526006602090815260408083206001600160a01b03861684529091529020805460ff191660011790556200011e3390565b6001600160a01b0316826001600160a01b0316847f2f8788117e7eff1d82e926ec794901d17c78024a50270940304540a733656f0d60405160405180910390a45060016200016b565b5060005b92915050565b634e487b7160e01b600052604160045260246000fd5b600181811c908216806200019c57607f821691505b602082108103620001bd57634e487b7160e01b600052602260045260246000fd5b50919050565b601f82111562000213576000816000526020600020601f850160051c81016020861015620001ee5750805b601f850160051c820191505b818110156200020f57828155600101620001fa565b5050505b505050565b81516001600160401b0381111562000234576200023462000171565b6200024c8162000245845462000187565b84620001c3565b602080601f8311600181146200028457600084156200026b5750858301515b600019600386901b1c1916600185901b1785556200020f565b600085815260208120601f198616915b82811015620002b55788860151825594840194600190910190840162000294565b5085821015620002d45787850151600019600388901b60f8161c191681555b5050505050600190811b01905550565b6116d080620002f46000396000f3fe608060405234801561001057600080fd5b50600436106101a95760003560e01c80636352211e116100f9578063ad35efd411610097578063d547741f11610071578063d547741f146103c5578063d896dd64146103d8578063e985e9c5146103eb578063f68e9553146103fe57600080fd5b8063ad35efd41461036f578063b88d4fde1461039f578063c87b56dd146103b257600080fd5b806395d89b41116100d357806395d89b411461033957806399ecc46114610341578063a217fddf14610354578063a22cb4651461035c57600080fd5b80636352211e1461030057806370a082311461031357806391d148541461032657600080fd5b806323b872dd1161016657806336568abe1161014057806336568abe146102be57806342842e0e146102d1578063611b6a5a146102e457806361b8ce8c146102f757600080fd5b806323b872dd14610267578063248a9ca31461027a5780632f2ff15d146102ab57600080fd5b806301ffc9a7146101ae5780630414bd2f146101d657806306fdde0314610217578063072c3d681461022c578063081812fc14610241578063095ea7b314610254575b600080fd5b6101c16101bc36600461126f565b610413565b60405190151581526020015b60405180910390f35b6101ff6101e436600461128c565b6009602052600090815260409020546001600160a01b031681565b6040516001600160a01b0390911681526020016101cd565b61021f610424565b6040516101cd91906112f5565b61023f61023a366004611324565b6104b6565b005b6101ff61024f36600461128c565b61055a565b61023f610262366004611350565b610583565b61023f61027536600461137a565b610592565b61029d61028836600461128c565b60009081526006602052604090206001015490565b6040519081526020016101cd565b61023f6102b9366004611324565b61061d565b61023f6102cc366004611324565b610642565b61023f6102df36600461137a565b61067a565b61029d6102f23660046113b6565b610695565b61029d60075481565b6101ff61030e36600461128c565b6106eb565b61029d6103213660046113b6565b6106f6565b6101c1610334366004611324565b61073e565b61021f610769565b6101c161034f36600461128c565b610778565b61029d600081565b61023f61036a3660046113d1565b6107a6565b61039261037d36600461128c565b60086020526000908152604090205460ff1681565b6040516101cd9190611423565b61023f6103ad366004611461565b6107b1565b61021f6103c036600461128c565b6107c9565b61023f6103d3366004611324565b61083e565b61023f6103e636600461153d565b610863565b6101c16103f9366004611566565b610908565b61029d60008051602061167b83398151915281565b600061041e82610936565b92915050565b60606000805461043390611590565b80601f016020809104026020016040519081016040528092919081815260200182805461045f90611590565b80156104ac5780601f10610481576101008083540402835291602001916104ac565b820191906000526020600020905b81548152906001019060200180831161048f57829003601f168201915b5050505050905090565b60008051602061167b8339815191526104ce8161095b565b6000838152600260205260409020546001600160a01b031661052b5760405162461bcd60e51b815260206004820152601160248201527014d9585d0e881b9bdb995e1a5cdd195b9d607a1b60448201526064015b60405180910390fd5b5060009182526009602052604090912080546001600160a01b0319166001600160a01b03909216919091179055565b600061056582610968565b506000828152600460205260409020546001600160a01b031661041e565b61058e8282336109a1565b5050565b6001600160a01b0382166105bc57604051633250574960e11b815260006004820152602401610522565b60006105c98383336109ae565b9050836001600160a01b0316816001600160a01b031614610617576040516364283d7b60e01b81526001600160a01b0380861660048301526024820184905282166044820152606401610522565b50505050565b6000828152600660205260409020600101546106388161095b565b6106178383610a3d565b6001600160a01b038116331461066b5760405163334bd91960e11b815260040160405180910390fd5b6106758282610ad1565b505050565b610675838383604051806020016040528060008152506107b1565b600060008051602061167b8339815191526106af8161095b565b600780549060006106bf836115ca565b9190505591506106cf8383610b3e565b506000818152600860205260409020805460ff19169055919050565b600061041e82610968565b60006001600160a01b038216610722576040516322718ad960e21b815260006004820152602401610522565b506001600160a01b031660009081526003602052604090205490565b60009182526006602090815260408084206001600160a01b0393909316845291905290205460ff1690565b60606001805461043390611590565b6000600360008381526008602052604090205460ff16600381111561079f5761079f61140d565b1492915050565b61058e338383610b58565b6107bc848484610592565b6106173385858585610bf7565b60606107d482610968565b5060006107ec60408051602081019091526000815290565b9050600081511161080c5760405180602001604052806000815250610837565b8061081684610d22565b6040516020016108279291906115f1565b6040516020818303038152906040525b9392505050565b6000828152600660205260409020600101546108598161095b565b6106178383610ad1565b60008051602061167b83398151915261087b8161095b565b6000838152600260205260409020546001600160a01b03166108d35760405162461bcd60e51b815260206004820152601160248201527014d9585d0e881b9bdb995e1a5cdd195b9d607a1b6044820152606401610522565b6000838152600860205260409020805483919060ff191660018360038111156108fe576108fe61140d565b0217905550505050565b6001600160a01b03918216600090815260056020908152604080832093909416825291909152205460ff1690565b60006001600160e01b03198216637965db0b60e01b148061041e575061041e82610db5565b6109658133610e05565b50565b6000818152600260205260408120546001600160a01b03168061041e57604051637e27328960e01b815260048101849052602401610522565b6106758383836001610e3e565b6000828152600260205260409020546001600160a01b031680158015906109dd57506001600160a01b03841615155b15610a2a5760405162461bcd60e51b815260206004820152601960248201527f536561745342543a206e6f6e2d7472616e7366657261626c65000000000000006044820152606401610522565b610a35848484610f44565b949350505050565b6000610a49838361073e565b610ac95760008381526006602090815260408083206001600160a01b03861684529091529020805460ff19166001179055610a813390565b6001600160a01b0316826001600160a01b0316847f2f8788117e7eff1d82e926ec794901d17c78024a50270940304540a733656f0d60405160405180910390a450600161041e565b50600061041e565b6000610add838361073e565b15610ac95760008381526006602090815260408083206001600160a01b0386168085529252808320805460ff1916905551339286917ff6391f5c32d9c69d2a47ea670b442974b53935d1edc7fd64eb21e047a839171b9190a450600161041e565b61058e82826040518060200160405280600081525061103d565b6001600160a01b038216610b8a57604051630b61174360e31b81526001600160a01b0383166004820152602401610522565b6001600160a01b03838116600081815260056020908152604080832094871680845294825291829020805460ff191686151590811790915591519182527f17307eab39ab6107e8899845ad3d59bd9653f200f220920489ca2b5937696c31910160405180910390a3505050565b6001600160a01b0383163b15610d1b57604051630a85bd0160e11b81526001600160a01b0384169063150b7a0290610c39908890889087908790600401611620565b6020604051808303816000875af1925050508015610c74575060408051601f3d908101601f19168201909252610c719181019061165d565b60015b610cdd573d808015610ca2576040519150601f19603f3d011682016040523d82523d6000602084013e610ca7565b606091505b508051600003610cd557604051633250574960e11b81526001600160a01b0385166004820152602401610522565b805160208201fd5b6001600160e01b03198116630a85bd0160e11b14610d1957604051633250574960e11b81526001600160a01b0385166004820152602401610522565b505b5050505050565b60606000610d2f83611055565b600101905060008167ffffffffffffffff811115610d4f57610d4f61144b565b6040519080825280601f01601f191660200182016040528015610d79576020820181803683370190505b5090508181016020015b600019016f181899199a1a9b1b9c1cb0b131b232b360811b600a86061a8153600a8504945084610d8357509392505050565b60006001600160e01b031982166380ac58cd60e01b1480610de657506001600160e01b03198216635b5e139f60e01b145b8061041e57506301ffc9a760e01b6001600160e01b031983161461041e565b610e0f828261073e565b61058e5760405163e2517d3f60e01b81526001600160a01b038216600482015260248101839052604401610522565b8080610e5257506001600160a01b03821615155b15610f14576000610e6284610968565b90506001600160a01b03831615801590610e8e5750826001600160a01b0316816001600160a01b031614155b8015610ea15750610e9f8184610908565b155b15610eca5760405163a9fbf51f60e01b81526001600160a01b0384166004820152602401610522565b8115610f125783856001600160a01b0316826001600160a01b03167f8c5be1e5ebec7d5bd14f71427d1e84f3dd0314c0f7b2291e5b200ac8c7c3b92560405160405180910390a45b505b5050600090815260046020526040902080546001600160a01b0319166001600160a01b0392909216919091179055565b6000828152600260205260408120546001600160a01b0390811690831615610f7157610f7181848661112d565b6001600160a01b03811615610faf57610f8e600085600080610e3e565b6001600160a01b038116600090815260036020526040902080546000190190555b6001600160a01b03851615610fde576001600160a01b0385166000908152600360205260409020805460010190555b60008481526002602052604080822080546001600160a01b0319166001600160a01b0389811691821790925591518793918516917fddf252ad1be2c89b69c2b068fc378daa952ba7f163c4a11628f55a4df523b3ef91a4949350505050565b6110478383611191565b610675336000858585610bf7565b60008072184f03e93ff9f4daa797ed6e38ed64bf6a1f0160401b83106110945772184f03e93ff9f4daa797ed6e38ed64bf6a1f0160401b830492506040015b6d04ee2d6d415b85acef810000000083106110c0576d04ee2d6d415b85acef8100000000830492506020015b662386f26fc1000083106110de57662386f26fc10000830492506010015b6305f5e10083106110f6576305f5e100830492506008015b612710831061110a57612710830492506004015b6064831061111c576064830492506002015b600a831061041e5760010192915050565b6111388383836111f6565b610675576001600160a01b03831661116657604051637e27328960e01b815260048101829052602401610522565b60405163177e802f60e01b81526001600160a01b038316600482015260248101829052604401610522565b6001600160a01b0382166111bb57604051633250574960e11b815260006004820152602401610522565b60006111c9838360006109ae565b90506001600160a01b03811615610675576040516339e3563760e11b815260006004820152602401610522565b60006001600160a01b03831615801590610a355750826001600160a01b0316846001600160a01b0316148061123057506112308484610908565b80610a355750506000908152600460205260409020546001600160a01b03908116911614919050565b6001600160e01b03198116811461096557600080fd5b60006020828403121561128157600080fd5b813561083781611259565b60006020828403121561129e57600080fd5b5035919050565b60005b838110156112c05781810151838201526020016112a8565b50506000910152565b600081518084526112e18160208601602086016112a5565b601f01601f19169290920160200192915050565b60208152600061083760208301846112c9565b80356001600160a01b038116811461131f57600080fd5b919050565b6000806040838503121561133757600080fd5b8235915061134760208401611308565b90509250929050565b6000806040838503121561136357600080fd5b61136c83611308565b946020939093013593505050565b60008060006060848603121561138f57600080fd5b61139884611308565b92506113a660208501611308565b9150604084013590509250925092565b6000602082840312156113c857600080fd5b61083782611308565b600080604083850312156113e457600080fd5b6113ed83611308565b91506020830135801515811461140257600080fd5b809150509250929050565b634e487b7160e01b600052602160045260246000fd5b602081016004831061144557634e487b7160e01b600052602160045260246000fd5b91905290565b634e487b7160e01b600052604160045260246000fd5b6000806000806080858703121561147757600080fd5b61148085611308565b935061148e60208601611308565b925060408501359150606085013567ffffffffffffffff808211156114b257600080fd5b818701915087601f8301126114c657600080fd5b8135818111156114d8576114d861144b565b604051601f8201601f19908116603f011681019083821181831017156115005761150061144b565b816040528281528a602084870101111561151957600080fd5b82602086016020830137600060208483010152809550505050505092959194509250565b6000806040838503121561155057600080fd5b8235915060208301356004811061140257600080fd5b6000806040838503121561157957600080fd5b61158283611308565b915061134760208401611308565b600181811c908216806115a457607f821691505b6020821081036115c457634e487b7160e01b600052602260045260246000fd5b50919050565b6000600182016115ea57634e487b7160e01b600052601160045260246000fd5b5060010190565b600083516116038184602088016112a5565b8351908301906116178183602088016112a5565b01949350505050565b6001600160a01b0385811682528416602082015260408101839052608060608201819052600090611653908301846112c9565b9695505050505050565b60006020828403121561166f57600080fd5b81516108378161125956feedcc084d3dcd65a1f7f23c65c46722faca6953d28e43150a467cf43e5c309238a26469706673582212200913ab476e40144be8730ae9ebd29894ae586b09147ba938fda041180e40f52664736f6c63430008180033",
  "linkReferences": {},
  "deployedLinkReferences": {}
}