{
  "_format": "hh-sol-artifact-1",
  "contractName": "SeatSBT",
  "sourceName": "contracts/SeatSBT.sol",
  "abi": [
    {
      "inputs": [],
      "stateMutability": "nonpayable",
      "type": "constructor"
    },
    {
      "inputs": [],
      "name": "AccessControlBadConfirmation",
      "type": "error"
    },
    {
      "inputs": [
        {
          "internalType": "address",
          "name": "account",
          "type": "address"
        },
        {
          "internalType": "bytes32",
          "name": "neededRole",
          "type": "bytes32"
        }
      ],
      "name": "AccessControlUnauthorizedAccount",
      "type": "error"
    },
    {
      "inputs": [
        {
          "internalType": "address",
          "name": "sender",
          "type": "address"
        },
        {
          "internalType": "uint256",
          "name": "tokenId",
          "type": "uint256"
        },
        {
          "internalType": "address",
          "name": "owner",
          "type": "address"
        }
      ],
      "name": "ERC721IncorrectOwner",
      "type": "error"
    },
    {
      "inputs": [
        {
          "internalType": "address",
          "name": "operator",
          "type": "address"
        },
        {
          "internalType": "uint256",
          "name": "tokenId",
          "type": "uint256"
        }
      ],
      "name": "ERC721InsufficientApproval",
      "type": "error"
    },
    {
      "inputs": [
        {
          "internalType": "address",
          "name": "approver",
          "type": "address"
        }
      ],
      "name": "ERC721InvalidApprover",
      "type": "error"
    },
    {
      "inputs": [
        {
          "internalType": "address",
          "name": "operator",
          "type": "address"
        }
      ],
      "name": "ERC721InvalidOperator",
      "type": "error"
    },
    {
      "inputs": [
        {
          "internalType": "address",
          "name": "owner",
          "type": "address"
        }
      ],
      "name": "ERC721InvalidOwner",
      "type": "error"
    },
    {
      "inputs": [
        {
          "internalType": "address",
          "name": "receiver",
          "type": "address"
        }
      ],
      "name": "ERC721InvalidReceiver",
      "type": "error"
    },
    {
      "inputs": [
        {
          "internalType": "address",
          "name": "sender",
          "type": "address"
        }
      ],
      "name": "ERC721InvalidSender",
      "type": "error"
    },
    {
      "inputs": [
        {
          "internalType": "uint256",
          "name": "tokenId",
          "type": "uint256"
        }
      ],
      "name": "ERC721NonexistentToken",
      "type": "error"
    },
    {
      "anonymous": false,
      "inputs": [
        {
          "indexed": true,
          "internalType": "address",
          "name": "owner",
          "type": "address"
        },
        {
          "indexed": true,
          "internalType": "address",
          "name": "approved",
          "type": "address"
        },
        {
          "indexed": true,
          "internalType": "uint256",
          "name": "tokenId",
          "type": "uint256"
        }
      ],
      "name": "Approval",
      "type": "event"
    },
    {
      "anonymous": false,
      "inputs": [
        {
          "indexed": true,
          "internalType": "address",
          "name": "owner",
          "type": "address"
        },
        {
          "indexed": true,
          "internalType": "address",
          "name": "operator",
          "type": "address"
        },
        {
          "indexed": false,
          "internalType": "bool",
          "name": "approved",
          "type": "bool"
        }
      ],
      "name": "ApprovalForAll",
      "type": "event"
    },
    {
      "anonymous": false,
      "inputs": [
        {
          "indexed": true,
          "internalType": "bytes32",
          "name": "role",
          "type": "bytes32"
        },
        {
          "indexed": true,
          "internalType": "bytes32",
          "name": "previousAdminRole",
          "type": "bytes32"
        },
        {
          "indexed": true,
          "internalType": "bytes32",
          "name": "newAdminRole",
          "type": "bytes32"
        }
      ],
      "name": "RoleAdminChanged",
      "type": "event"
    },
    {
      "anonymous": false,
      "inputs": [
        {
          "indexed": true,
          "internalType": "bytes32",
          "name": "role",
          "type": "bytes32"
        },
        {
          "indexed": true,
          "internalType": "address",
          "name": "account",
          "type": "address"
        },
        {
          "indexed": true,
          "internalType": "address",
          "name": "sender",
          "type": "address"
        }
      ],
      "name": "RoleGranted",
      "type": "event"
    },
    {
      "anonymous": false,
      "inputs": [
        {
          "indexed": true,
          "internalType": "bytes32",
          "name": "role",
          "type": "bytes32"
        },
        {
          "indexed": true,
          "internalType": "address",
          "name": "account",
          "type": "address"
        },
        {
          "indexed": true,
          "internalType": "address",
          "name": "sender",
          "type": "address"
        }
      ],
      "name": "RoleRevoked",
      "type": "event"
    },
    {
      "anonymous": false,
      "inputs": [
        {
          "indexed": true,
          "internalType": "address",
          "name": "from",
          "type": "address"
        },
        {
          "indexed": true,
          "internalType": "address",
          "name": "to",
          "type": "address"
        },
        {
          "indexed": true,
          "internalType": "uint256",
          "name": "tokenId",
          "type": "uint256"
        }
      ],
      "name": "Transfer",
      "type": "event"
    },
    {
      "inputs": [],
      "name": "DEFAULT_ADMIN_ROLE",
      "outputs": [
        {
          "internalType": "bytes32",
          "name": "",
          "type": "bytes32"
        }
      ],
      "stateMutability": "view",
      "type": "function"
    },
    {
      "inputs": [],
      "name": "REGISTRAR_ROLE",
      "outputs": [
        {
          "internalType": "bytes32",
          "name": "",
          "type": "bytes32"
        }
      ],
      "stateMutability": "view",
      "type": "function"
    },
    {
      "inputs": [
        {
          "internalType": "uint256",
          "name": "",
          "type": "uint256"
        }
      ],
      "name": "accountOf",
      "outputs": [
        {
          "internalType": "address",
          "name": "",
          "type": "address"
        }
      ],
      "stateMutability": "view",
      "type": "function"
    },
    {
      "inputs": [
        {
          "internalType": "address",
          "name": "to",
          "type": "address"
        },
        {
          "internalType": "uint256",
          "name": "tokenId",
          "type": "uint256"
        }
      ],
      "name": "approve",
      "outputs": [],
      "stateMutability": "nonpayable",
      "type": "function"
    },
    {
      "inputs": [
        {
          "internalType": "address",
          "name": "owner",
          "type": "address"
        }
      ],
      "name": "balanceOf",
      "outputs": [
        {
          "internalType": "uint256",
          "name": "",
          "type": "uint256"
        }
      ],
      "stateMutability": "view",
      "type": "function"
    },
    {
      "inputs": [
        {
          "internalType": "uint256",
          "name": "tokenId",
          "type": "uint256"
        }
      ],
      "name": "getApproved",
      "outputs": [
        {
          "internalType": "address",
          "name": "",
          "type": "address"
        }
      ],
      "stateMutability": "view",
      "type": "function"
    },
    {
      "inputs": [
        {
          "internalType": "bytes32",
          "name": "role",
          "type": "bytes32"
        }
      ],
      "name": "getRoleAdmin",
      "outputs": [
        {
          "internalType": "bytes32",
          "name": "",
          "type": "bytes32"
        }
      ],
      "stateMutability": "view",
      "type": "function"
    },
    {
      "inputs": [
        {
          "internalType": "bytes32",
          "name": "role",
          "type": "bytes32"
        },
        {
          "internalType": "address",
          "name": "account",
          "type": "address"
        }
      ],
      "name": "grantRole",
      "outputs": [],
      "stateMutability": "nonpayable",
      "type": "function"
    },
    {
      "inputs": [
        {
          "internalType": "bytes32",
          "name": "role",
          "type": "bytes32"
        },
        {
          "internalType": "address",
          "name": "account",
          "type": "address"
        }
      ],
      "name": "hasRole",
      "outputs": [
        {
          "internalType": "bool",
          "name": "",
          "type": "bool"
        }
      ],
      "stateMutability": "view",
      "type": "function"
    },
    {
      "inputs": [
        {
          "internalType": "address",
          "name": "owner",
          "type": "address"
        },
        {
          "internalType": "address",
          "name": "operator",
          "type": "address"
        }
      ],
      "name": "isApprovedForAll",
      "outputs": [
        {
          "internalType": "bool",
          "name": "",
          "type": "bool"
        }
      ],
      "stateMutability": "view",
      "type": "function"
    },
    {
      "inputs": [
        {
          "internalType": "uint256",
          "name": "seatId",
          "type": "uint256"
        }
      ],
      "name": "isCitizen",
      "outputs": [
        {
          "internalType": "bool",
          "name": "",
          "type": "bool"
        }
      ],
      "stateMutability": "view",
      "type": "function"
    },
    {
      "inputs": [
        {
          "internalType": "address",
          "name": "to",
          "type": "address"
        }
      ],
      "name": "mintSeat",
      "outputs": [
        {
          "internalType": "uint256",
          "name": "seatId",
          "type": "uint256"
        }
      ],
      "stateMutability": "nonpayable",
      "type": "function"
    },
    {
      "inputs": [],
      "name": "name",
      "outputs": [
        {
          "internalType": "string",
          "name": "",
          "type": "string"
        }
      ],
      "stateMutability": "view",
      "type": "function"
    },
    {
      "inputs": [],
      "name": "nextId",
      "outputs": [
        {
          "internalType": "uint256",
          "name": "",
          "type": "uint256"
        }
      ],
      "stateMutability": "view",
      "type": "function"
    },
    {
      "inputs": [
        {
          "internalType": "uint256",
          "name": "tokenId",
          "type": "uint256"
        }
      ],
      "name": "ownerOf",
      "outputs": [
        {
          "internalType": "address",
          "name": "",
          "type": "address"
        }
      ],
      "stateMutability": "view",
      "type": "function"
    },
    {
      "inputs": [
        {
          "internalType": "bytes32",
          "name": "role",
          "type": "bytes32"
        },
        {
          "internalType": "address",
          "name": "callerConfirmation",
          "type": "address"
        }
      ],
      "name": "renounceRole",
      "outputs": [],
      "stateMutability": "nonpayable",
      "type": "function"
    },
    {
      "inputs": [
        {
          "internalType": "bytes32",
          "name": "role",
          "type": "bytes32"
        },
        {
          "internalType": "address",
          "name": "account",
          "type": "address"
        }
      ],
      "name": "revokeRole",
      "outputs": [],
      "stateMutability": "nonpayable",
      "type": "function"
    },
    {
      "inputs": [
        {
          "internalType": "address",
          "name": "from",
          "type": "address"
        },
        {
          "internalType": "address",
          "name": "to",
          "type": "address"
        },
        {
          "internalType": "uint256",
          "name": "tokenId",
          "type": "uint256"
        }
      ],
      "name": "safeTransferFrom",
      "outputs": [],
      "stateMutability": "nonpayable",
      "type": "function"
    },
    {
      "inputs": [
        {
          "internalType": "address",
          "name": "from",
          "type": "address"
        },
        {
          "internalType": "address",
          "name": "to",
          "type": "address"
        },
        {
          "internalType": "uint256",
          "name": "tokenId",
          "type": "uint256"
        },
        {
          "internalType": "bytes",
          "name": "data",
          "type": "bytes"
        }
      ],
      "name": "safeTransferFrom",
      "outputs": [],
      "stateMutability": "nonpayable",
      "type": "function"
    },
    {
      "inputs": [
        {
          "internalType": "uint256",
          "name": "seatId",
          "type": "uint256"
        },
        {
          "internalType": "address",
          "name": "seatAccount",
          "type": "address"
        }
      ],
      "name": "setAccount",
      "outputs": [],
      "stateMutability": "nonpayable",
      "type": "function"
    },
    {
      "inputs": [
        {
          "internalType": "address",
          "name": "operator",
          "type": "address"
        },
        {
          "internalType": "bool",
          "name": "approved",
          "type": "bool"
        }
      ],
      "name": "setApprovalForAll",
      "outputs": [],
      "stateMutability": "nonpayable",
      "type": "function"
    },
    {
      "inputs": [
        {
          "internalType": "uint256",
          "name": "seatId",
          "type": "uint256"
        },
        {
          "internalType": "enum SeatSBT.Status",
          "name": "s",
          "type": "uint8"
        }
      ],
      "name": "setStatus",
      "outputs": [],
      "stateMutability": "nonpayable",
      "type": "function"
    },
    {
      "inputs": [
        {
          "internalType": "uint256",
          "name": "",
          "type": "uint256"
        }
      ],
      "name": "statusOf",
      "outputs": [
        {
          "internalType": "enum SeatSBT.Status",
          "name": "",
          "type": "uint8"
        }
      ],
      "stateMutability": "view",
      "type": "function"
    },
    {
      "inputs": [
        {
          "internalType": "bytes4",
          "name": "interfaceId",
          "type": "bytes4"
        }
      ],
      "name": "supportsInterface",
      "outputs": [
        {
          "internalType": "bool",
          "name": "",
          "type": "bool"
        }
      ],
      "stateMutability": "view",
      "type": "function"
    },
    {
      "inputs": [],
      "name": "symbol",
      "outputs": [
        {
          "internalType": "string",
          "name": "",
          "type": "string"
        }
      ],
      "stateMutability": "view",
      "type": "function"
    },
    {
      "inputs": [
        {
          "internalType": "uint256",
          "name": "tokenId",
          "type": "uint256"
        }
      ],
      "name": "tokenURI",
      "outputs": [
        {
          "internalType": "string",
          "name": "",
          "type": "string"
        }
      ],
      "stateMutability": "view",
      "type": "function"
    },
    {
      "inputs": [
        {
          "internalType": "address",
          "name": "from",
          "type": "address"
        },
        {
          "internalType": "address",
          "name": "to",
          "type": "address"
        },
        {
          "internalType": "uint256",
          "name": "tokenId",
          "type": "uint256"
        }
      ],
      "name": "transferFrom",
      "outputs": [],
      "stateMutability": "nonpayable",
      "type": "function"
    }
  ],
  "bytecode": "0x608060405260016007553480156200001657600080fd5b506040518060400160405280600b81526020016a125393d350510814d9585d60aa1b8152506040518060400160405280600481526020016314d1505560e21b815250816000908162000069919062000218565b50600162000078828262000218565b506200008a91506000905033620000be565b50620000b77fedcc084d3dcd65a1f7f23c65c46722faca6953d28e43150a467cf43e5c30923833620000be565b50620002e4565b60008281526006602090815260408083206001600160a01b038516845290915281205460ff16620001675760008381526006602090815260408083206001600160a01b03861684529091529020805460ff191660011790556200011e3390565b6001600160a01b0316826001600160a01b0316847f2f8788117e7eff1d82e926ec794901d17c78024a50270940304540a733656f0d60405160405180910390a45060016200016b565b5060005b92915050565b634e487b7160e01b600052604160045260246000fd5b600181811c908216806200019c57607f821691505b602082108103620001bd57634e487b7160e01b600052602260045260246000fd5b50919050565b601f82111562000213576000816000526020600020601f850160051c81016020861015620001ee5750805b601f850160051c820191505b818110156200020f57828155600101620001fa565b5050505b505050565b81516001600160401b0381111562000234576200023462000171565b6200024c8162000245845462000187565b84620001c3565b602080601f8311600181146200028457600084156200026b5750858301515b600019600386901b1c1916600185901b1785556200020f565b600085815260208120601f198616915b82811015620002b55788860151825594840194600190910190840162000294565b5085821015620002d45787850151600019600388901b60f8161c191681555b5050505050600190811b01905550565b6116d080620002f46000396000f3fe608060405234801561001057600080fd5b50600436106101a95760003560e01c806370a08231116100f9578063ad35efd411610097578063d547741f11610071578063d547741f146103c5578063d896dd64146103d8578063e985e9c5146103eb578063f68e9553146103fe57600080fd5b8063ad35efd41461036f578063b88d4fde1461039f578063c87b56dd146103b257600080fd5b806395d89b41116100d357806395d89b411461033957806399ecc46114610341578063a217fddf14610354578063a22cb4651461035c57600080fd5b806370a08231146102ea5780638f4e4321146102fd57806391d148541461032657600080fd5b80632f2ff15d11610166578063611b6a5a11610140578063611b6a5a146102a857806361b8ce8c146102bb5780636352211e146102c45780636550f1d2146102d757600080fd5b80632f2ff15d1461026f57806336568abe1461028257806342842e0e1461029557600080fd5b806301ffc9a7146101ae57806306fdde03146101d6578063081812fc146101eb578063095ea7b31461021657806323b872dd1461022b578063248a9ca31461023e575b600080fd5b6101c16101bc36600461126f565b610413565b60405190151581526020015b60405180910390f35b6101de610424565b6040516101cd91906112dc565b6101fe6101f93660046112ef565b6104b6565b6040516001600160a01b0390911681526020016101cd565b610229610224366004611324565b6104df565b005b61022961023936600461134e565b6104ee565b61026161024c3660046112ef565b60009081526006602052604090206001015490565b6040519081526020016101cd565b61022961027d36600461138a565b61057e565b61022961029036600461138a565b6105a3565b6102296102a336600461134e565b6105db565b6102616102b63660046113b6565b6105f6565b61026160075481565b6101fe6102d23660046112ef565b61064c565b6102296102e536600461138a565b610657565b6102616102f83660046113b6565b6106f6565b6101fe61030b3660046112ef565b6009602052600090815260409020546001600160a01b031681565b6101c161033436600461138a565b61073e565b6101de610769565b6101c161034f3660046112ef565b610778565b610261600081565b61022961036a3660046113d1565b6107a6565b61039261037d3660046112ef565b60086020526000908152604090205460ff1681565b6040516101cd9190611423565b6102296103ad366004611461565b6107b1565b6101de6103c03660046112ef565b6107c9565b6102296103d336600461138a565b61083e565b6102296103e636600461153d565b610863565b6101c16103f9366004611566565b610908565b61026160008051602061167b83398151915281565b600061041e82610936565b92915050565b60606000805461043390611590565b80601f016020809104026020016040519081016040528092919081815260200182805461045f90611590565b80156104ac5780601f10610481576101008083540402835291602001916104ac565b820191906000526020600020905b81548152906001019060200180831161048f57829003601f168201915b5050505050905090565b60006104c18261095b565b506000828152600460205260409020546001600160a01b031661041e565b6104ea828233610994565b5050565b6001600160a01b03821661051d57604051633250574960e11b8152600060048201526024015b60405180910390fd5b600061052a8383336109a1565b9050836001600160a01b0316816001600160a01b031614610578576040516364283d7b60e01b81526001600160a01b0380861660048301526024820184905282166044820152606401610514565b50505050565b60008281526006602052604090206001015461059981610a30565b6105788383610a3d565b6001600160a01b03811633146105cc5760405163334bd91960e11b815260040160405180910390fd5b6105d68282610ad1565b505050565b6105d6838383604051806020016040528060008152506107b1565b600060008051602061167b83398151915261061081610a30565b60078054906000610620836115ca565b9190505591506106308383610b3e565b506000818152600860205260409020805460ff19169055919050565b600061041e8261095b565b60008051602061167b83398151915261066f81610a30565b6000838152600260205260409020546001600160a01b03166106c75760405162461bcd60e51b815260206004820152601160248201527014d9585d0e881b9bdb995e1a5cdd195b9d607a1b6044820152606401610514565b5060009182526009602052604090912080546001600160a01b0319166001600160a01b03909216919091179055565b60006001600160a01b038216610722576040516322718ad960e21b815260006004820152602401610514565b506001600160a01b031660009081526003602052604090205490565b60009182526006602090815260408084206001600160a01b0393909316845291905290205460ff1690565b60606001805461043390611590565b6000600360008381526008602052604090205460ff16600381111561079f5761079f61140d565b1492915050565b6104ea338383610b58565b6107bc8484846104ee565b6105783385858585610bf7565b60606107d48261095b565b5060006107ec60408051602081019091526000815290565b9050600081511161080c5760405180602001604052806000815250610837565b8061081684610d22565b6040516020016108279291906115f1565b6040516020818303038152906040525b9392505050565b60008281526006602052604090206001015461085981610a30565b6105788383610ad1565b60008051602061167b83398151915261087b81610a30565b6000838152600260205260409020546001600160a01b03166108d35760405162461bcd60e51b815260206004820152601160248201527014d9585d0e881b9bdb995e1a5cdd195b9d607a1b6044820152606401610514565b6000838152600860205260409020805483919060ff191660018360038111156108fe576108fe61140d565b0217905550505050565b6001600160a01b03918216600090815260056020908152604080832093909416825291909152205460ff1690565b60006001600160e01b03198216637965db0b60e01b148061041e575061041e82610db5565b6000818152600260205260408120546001600160a01b03168061041e57604051637e27328960e01b815260048101849052602401610514565b6105d68383836001610e05565b6000828152600260205260409020546001600160a01b031680158015906109d057506001600160a01b03841615155b15610a1d5760405162461bcd60e51b815260206004820152601960248201527f536561745342543a206e6f6e2d7472616e7366657261626c65000000000000006044820152606401610514565b610a28848484610f0b565b949350505050565b610a3a8133611004565b50565b6000610a49838361073e565b610ac95760008381526006602090815260408083206001600160a01b03861684529091529020805460ff19166001179055610a813390565b6001600160a01b0316826001600160a01b0316847f2f8788117e7eff1d82e926ec794901d17c78024a50270940304540a733656f0d60405160405180910390a450600161041e565b50600061041e565b6000610add838361073e565b15610ac95760008381526006602090815260408083206001600160a01b0386168085529252808320805460ff1916905551339286917ff6391f5c32d9c69d2a47ea670b442974b53935d1edc7fd64eb21e047a839171b9190a450600161041e565b6104ea82826040518060200160405280600081525061103d565b6001600160a01b038216610b8a57604051630b61174360e31b81526001600160a01b0383166004820152602401610514565b6001600160a01b03838116600081815260056020908152604080832094871680845294825291829020805460ff191686151590811790915591519182527f17307eab39ab6107e8899845ad3d59bd9653f200f220920489ca2b5937696c31910160405180910390a3505050565b6001600160a01b0383163b15610d1b57604051630a85bd0160e11b81526001600160a01b0384169063150b7a0290610c39908890889087908790600401611620565b6020604051808303816000875af1925050508015610c74575060408051601f3d908101601f19168201909252610c719181019061165d565b60015b610cdd573d808015610ca2576040519150601f19603f3d011682016040523d82523d6000602084013e610ca7565b606091505b508051600003610cd557604051633250574960e11b81526001600160a01b0385166004820152602401610514565b805160208201fd5b6001600160e01b03198116630a85bd0160e11b14610d1957604051633250574960e11b81526001600160a01b0385166004820152602401610514565b505b5050505050565b60606000610d2f83611055565b600101905060008167ffffffffffffffff811115610d4f57610d4f61144b565b6040519080825280601f01601f191660200182016040528015610d79576020820181803683370190505b5090508181016020015b600019016f181899199a1a9b1b9c1cb0b131b232b360811b600a86061a8153600a8504945084610d8357509392505050565b60006001600160e01b031982166380ac58cd60e01b1480610de657506001600160e01b03198216635b5e139f60e01b145b8061041e57506301ffc9a760e01b6001600160e01b031983161461041e565b8080610e1957506001600160a01b03821615155b15610edb576000610e298461095b565b90506001600160a01b03831615801590610e555750826001600160a01b0316816001600160a01b031614155b8015610e685750610e668184610908565b155b15610e915760405163a9fbf51f60e01b81526001600160a01b0384166004820152602401610514565b8115610ed95783856001600160a01b0316826001600160a01b03167f8c5be1e5ebec7d5bd14f71427d1e84f3dd0314c0f7b2291e5b200ac8c7c3b92560405160405180910390a45b505b5050600090815260046020526040902080546001600160a01b0319166001600160a01b0392909216919091179055565b6000828152600260205260408120546001600160a01b0390811690831615610f3857610f3881848661112d565b6001600160a01b03811615610f7657610f55600085600080610e05565b6001600160a01b038116600090815260036020526040902080546000190190555b6001600160a01b03851615610fa5576001600160a01b0385166000908152600360205260409020805460010190555b60008481526002602052604080822080546001600160a01b0319166001600160a01b0389811691821790925591518793918516917fddf252ad1be2c89b69c2b068fc378daa952ba7f163c4a11628f55a4df523b3ef91a4949350505050565b61100e828261073e565b6104ea5760405163e2517d3f60e01b81526001600160a01b038216600482015260248101839052604401610514565b6110478383611191565b6105d6336000858585610bf7565b60008072184f03e93ff9f4daa797ed6e38ed64bf6a1f0160401b83106110945772184f03e93ff9f4daa797ed6e38ed64bf6a1f0160401b830492506040015b6d04ee2d6d415b85acef810000000083106110c0576d04ee2d6d415b85acef8100000000830492506020015b662386f26fc1000083106110de57662386f26fc10000830492506010015b6305f5e10083106110f6576305f5e100830492506008015b612710831061110a57612710830492506004015b6064831061111c576064830492506002015b600a831061041e5760010192915050565b6111388383836111f6565b6105d6576001600160a01b03831661116657604051637e27328960e01b815260048101829052602401610514565b60405163177e802f60e01b81526001600160a01b038316600482015260248101829052604401610514565b6001600160a01b0382166111bb57604051633250574960e11b815260006004820152602401610514565b60006111c9838360006109a1565b90506001600160a01b038116156105d6576040516339e3563760e11b815260006004820152602401610514565b60006001600160a01b03831615801590610a285750826001600160a01b0316846001600160a01b0316148061123057506112308484610908565b80610a285750506000908152600460205260409020546001600160a01b03908116911614919050565b6001600160e01b031981168114610a3a57600080fd5b60006020828403121561128157600080fd5b813561083781611259565b60005b838110156112a757818101518382015260200161128f565b50506000910152565b600081518084526112c881602086016020860161128c565b601f01601f19169290920160200192915050565b60208152600061083760208301846112b0565b60006020828403121561130157600080fd5b5035919050565b80356001600160a01b038116811461131f57600080fd5b919050565b6000806040838503121561133757600080fd5b61134083611308565b946020939093013593505050565b60008060006060848603121561136357600080fd5b61136c84611308565b925061137a60208501611308565b9150604084013590509250925092565b6000806040838503121561139d57600080fd5b823591506113ad60208401611308565b90509250929050565b6000602082840312156113c857600080fd5b61083782611308565b600080604083850312156113e457600080fd5b6113ed83611308565b91506020830135801515811461140257600080fd5b809150509250929050565b634e487b7160e01b600052602160045260246000fd5b602081016004831061144557634e487b7160e01b600052602160045260246000fd5b91905290565b634e487b7160e01b600052604160045260246000fd5b6000806000806080858703121561147757600080fd5b61148085611308565b935061148e60208601611308565b925060408501359150606085013567ffffffffffffffff808211156114b257600080fd5b818701915087601f8301126114c657600080fd5b8135818111156114d8576114d861144b565b604051601f8201601f19908116603f011681019083821181831017156115005761150061144b565b816040528281528a602084870101111561151957600080fd5b82602086016020830137600060208483010152809550505050505092959194509250565b6000806040838503121561155057600080fd5b8235915060208301356004811061140257600080fd5b6000806040838503121561157957600080fd5b61158283611308565b91506113ad60208401611308565b600181811c908216806115a457607f821691505b6020821081036115c457634e487b7160e01b600052602260045260246000fd5b50919050565b6000600182016115ea57634e487b7160e01b600052601160045260246000fd5b5060010190565b6000835161160381846020880161128c565b83519083019061161781836020880161128c565b01949350505050565b6001600160a01b0385811682528416602082015260408101839052608060608201819052600090611653908301846112b0565b9695505050505050565b60006020828403121561166f57600080fd5b81516108378161125956feedcc084d3dcd65a1f7f23c65c46722faca6953d28e43150a467cf43e5c309238a264697066735822122017619c0a9253cf81fe8b0a5ec9df6ba8f135b33dbaaa1a25a64d3f5385641bbd64736f6c63430008180033",
  "linkReferences": {},
  "deployedLinkReferences": {}
}