{
  "_format": "hh-sol-artifact-1",
  "contractName": "SeatSBT",
  "sourceName": "contracts/SeatSBT.sol",
  "abi": [
    {
      "inputs": [
        {
          "internalType": "address",
          "name": "issuer_",
          "type": "address"
        }
      ],
      "stateMutability": "nonpayable",
      "type": "constructor"
    },
    {
      "inputs": [],
      "name": "ApprovalsDisabled",
      "type": "error"
    },
    {
      "inputs": [],
      "name": "NonexistentSeat",
      "type": "error"
    },
    {
      "inputs": [],
      "name": "NotIssuer",
      "type": "error"
    },
    {
      "inputs": [],
      "name": "SeatExists",
      "type": "error"
    },
    {
      "inputs": [],
      "name": "Soulbound",
      "type": "error"
    },
    {
      "inputs": [],
      "name": "Unsupported",
      "type": "error"
    },
    {
      "inputs": [],
      "name": "ZeroAddress",
      "type": "error"
    },
    {
      "anonymous": false,
      "inputs": [
        {
          "indexed": true,
          "internalType": "address",
          "name": "to",
          "type": "address"
        },
        {
          "indexed": true,
          "internalType": "uint256",
          "name": "seatId",
          "type": "uint256"
        }
      ],
      "name": "SeatMinted",
      "type": "event"
    },
    {
      "anonymous": false,
      "inputs": [
        {
          "indexed": true,
          "internalType": "address",
          "name": "from",
          "type": "address"
        },
        {
          "indexed": true,
          "internalType": "address",
          "name": "to",
          "type": "address"
        },
        {
          "indexed": true,
          "internalType": "uint256",
          "name": "seatId",
          "type": "uint256"
        }
      ],
      "name": "Transfer",
      "type": "event"
    },
    {
      "inputs": [
        {
          "internalType": "address",
          "name": "",
          "type": "address"
        },
        {
          "internalType": "uint256",
          "name": "",
          "type": "uint256"
        }
      ],
      "name": "approve",
      "outputs": [],
      "stateMutability": "pure",
      "type": "function"
    },
    {
      "inputs": [
        {
          "internalType": "address",
          "name": "account",
          "type": "address"
        }
      ],
      "name": "balanceOf",
      "outputs": [
        {
          "internalType": "uint256",
          "name": "",
          "type": "uint256"
        }
      ],
      "stateMutability": "view",
      "type": "function"
    },
    {
      "inputs": [
        {
          "internalType": "uint256",
          "name": "seatId",
          "type": "uint256"
        }
      ],
      "name": "exists",
      "outputs": [
        {
          "internalType": "bool",
          "name": "",
          "type": "bool"
        }
      ],
      "stateMutability": "view",
      "type": "function"
    },
    {
      "inputs": [
        {
          "internalType": "uint256",
          "name": "",
          "type": "uint256"
        }
      ],
      "name": "getApproved",
      "outputs": [
        {
          "internalType": "address",
          "name": "",
          "type": "address"
        }
      ],
      "stateMutability": "pure",
      "type": "function"
    },
    {
      "inputs": [
        {
          "internalType": "address",
          "name": "",
          "type": "address"
        },
        {
          "internalType": "address",
          "name": "",
          "type": "address"
        }
      ],
      "name": "isApprovedForAll",
      "outputs": [
        {
          "internalType": "bool",
          "name": "",
          "type": "bool"
        }
      ],
      "stateMutability": "pure",
      "type": "function"
    },
    {
      "inputs": [],
      "name": "issuer",
      "outputs": [
        {
          "internalType": "address",
          "name": "",
          "type": "address"
        }
      ],
      "stateMutability": "view",
      "type": "function"
    },
    {
      "inputs": [
        {
          "internalType": "address",
          "name": "to",
          "type": "address"
        },
        {
          "internalType": "uint256",
          "name": "seatId",
          "type": "uint256"
        }
      ],
      "name": "mintSeat",
      "outputs": [],
      "stateMutability": "nonpayable",
      "type": "function"
    },
    {
      "inputs": [],
      "name": "name",
      "outputs": [
        {
          "internalType": "string",
          "name": "",
          "type": "string"
        }
      ],
      "stateMutability": "view",
      "type": "function"
    },
    {
      "inputs": [
        {
          "internalType": "uint256",
          "name": "seatId",
          "type": "uint256"
        }
      ],
      "name": "ownerOf",
      "outputs": [
        {
          "internalType": "address",
          "name": "",
          "type": "address"
        }
      ],
      "stateMutability": "view",
      "type": "function"
    },
    {
      "inputs": [
        {
          "internalType": "address",
          "name": "",
          "type": "address"
        },
        {
          "internalType": "address",
          "name": "",
          "type": "address"
        },
        {
          "internalType": "uint256",
          "name": "",
          "type": "uint256"
        }
      ],
      "name": "safeTransferFrom",
      "outputs": [],
      "stateMutability": "pure",
      "type": "function"
    },
    {
      "inputs": [
        {
          "internalType": "address",
          "name": "",
          "type": "address"
        },
        {
          "internalType": "address",
          "name": "",
          "type": "address"
        },
        {
          "internalType": "uint256",
          "name": "",
          "type": "uint256"
        },
        {
          "internalType": "bytes",
          "name": "",
          "type": "bytes"
        }
      ],
      "name": "safeTransferFrom",
      "outputs": [],
      "stateMutability": "pure",
      "type": "function"
    },
    {
      "inputs": [
        {
          "internalType": "address",
          "name": "",
          "type": "address"
        },
        {
          "internalType": "bool",
          "name": "",
          "type": "bool"
        }
      ],
      "name": "setApprovalForAll",
      "outputs": [],
      "stateMutability": "pure",
      "type": "function"
    },
    {
      "inputs": [
        {
          "internalType": "bytes4",
          "name": "interfaceId",
          "type": "bytes4"
        }
      ],
      "name": "supportsInterface",
      "outputs": [
        {
          "internalType": "bool",
          "name": "",
          "type": "bool"
        }
      ],
      "stateMutability": "pure",
      "type": "function"
    },
    {
      "inputs": [],
      "name": "symbol",
      "outputs": [
        {
          "internalType": "string",
          "name": "",
          "type": "string"
        }
      ],
      "stateMutability": "view",
      "type": "function"
    },
    {
      "inputs": [
        {
          "internalType": "uint256",
          "name": "",
          "type": "uint256"
        }
      ],
      "name": "tokenURI",
      "outputs": [
        {
          "internalType": "string",
          "name": "",
          "type": "string"
        }
      ],
      "stateMutability": "pure",
      "type": "function"
    },
    {
      "inputs": [],
      "name": "totalSupply",
      "outputs": [
        {
          "internalType": "uint256",
          "name": "",
          "type": "uint256"
        }
      ],
      "stateMutability": "view",
      "type": "function"
    },
    {
      "inputs": [
        {
          "internalType": "address",
          "name": "",
          "type": "address"
        },
        {
          "internalType": "address",
          "name": "",
          "type": "address"
        },
        {
          "internalType": "uint256",
          "name": "",
          "type": "uint256"
        }
      ],
      "name": "transferFrom",
      "outputs": [],
      "stateMutability": "pure",
      "type": "function"
    }
  ],
  "bytecode": "0x60a03461008957601f61072238819003918201601f19168301916001600160401b0383118484101761008e5780849260209460405283398101031261008957516001600160a01b03811680820361008957156100775760805260405161067d90816100a58239608051818181610331015261043c0152f35b60405163d92e233d60e01b8152600490fd5b600080fd5b634e487b7160e01b600052604160045260246000fdfe608060408181526004918236101561001657600080fd5b600092833560e01c91826301ffc9a7146105215750816306fdde03146104cf578163081812fc146104b3578163095ea7b31461048a57816318160ddd1461046b5781631d1438481461042757816321528ce71461030657816323b872dd1461030157816342842e0e146103015781634f558e79146102ce5781636352211e1461028557816370a082311461023757816395d89b41146101d3578163a22cb4651461019f578163b88d4fde14610134578163c87b56dd14610110575063e985e9c5146100e057600080fd5b3461010c578060031936011261010c57906020916100fc6105d5565b506101056105f0565b5051908152f35b5080fd5b828434610131576020366003190112610131575051634851657960e11b8152fd5b80fd5b8284346101315760803660031901126101315761014f6105d5565b506101586105f0565b5060643567ffffffffffffffff80821161019b573660238301121561019b578185013590811161019b573691016024011161013157505163a4420a9560e01b8152fd5b8280fd5b8284346101315781600319360112610131576101b96105d5565b5060243580151503610131575051638734687b60e01b8152fd5b83833461010c578160031936011261010c578051918183019083821067ffffffffffffffff83111761022457509261022093825282526314d1505560e21b6020830152519182918261058c565b0390f35b634e487b7160e01b815260418552602490fd5b90503461019b57602036600319011261019b576001600160a01b0361025a6105d5565b169081156102775750828291602094526001845220549051908152f35b825163d92e233d60e01b8152fd5b82843461013157602036600319011261013157823581526020819052819020546001600160a01b03169081156102bf576020925051908152f35b5163fc80d12960e01b81529050fd5b90503461019b57602036600319011261019b573582526020828152918190205490516001600160a01b0390911615158152f35b610606565b9190503461019b578060031936011261019b576103216105d5565b602435926001600160a01b0392917f000000000000000000000000000000000000000000000000000000000000000084163303610418578316928315610409578486528560205282862054166103fb575082845283602052808420826bffffffffffffffffffffffff60a01b82541617905581845260016020528320600181540190556001600254016002558181847fddf252ad1be2c89b69c2b068fc378daa952ba7f163c4a11628f55a4df523b3ef8180a47ff272b1a459ff242d415c4b4b8dbcd8b1b40030b9d9235a6778cdc3f57564f4738380a380f35b9051631182c18f60e11b8152fd5b50905163d92e233d60e01b8152fd5b5090516354ec506360e01b8152fd5b50503461010c578160031936011261010c57517f00000000000000000000000000000000000000000000000000000000000000006001600160a01b03168152602090f35b50503461010c578160031936011261010c576020906002549051908152f35b828434610131578160031936011261013157506104a56105d5565b5051638734687b60e01b8152fd5b50503461010c57602036600319011261010c5751908152602090f35b83833461010c578160031936011261010c578051918183019083821067ffffffffffffffff831117610224575061022093508152600782526614d9585d14d09560ca1b6020830152519182918261058c565b84913461019b57602036600319011261019b573563ffffffff60e01b811680910361019b57602092506301ffc9a760e01b811490811561057b575b811561056a575b5015158152f35b635b5e139f60e01b14905083610563565b6380ac58cd60e01b8114915061055c565b6020808252825181830181905290939260005b8281106105c157505060409293506000838284010152601f8019910116010190565b81810186015184820160400152850161059f565b600435906001600160a01b03821682036105eb57565b600080fd5b602435906001600160a01b03821682036105eb57565b346105eb5760603660031901126105eb576001600160a01b03600435818116036105eb57602435908116036105eb5760405163a4420a9560e01b8152600490fdfea2646970667358221220c9db41d724f70cb1854a8537d236cb3f9971ad955e77a3a069df476a0a39d4c064736f6c63430008180033",
  "linkReferences": {},
  "deployedLinkReferences": {}
}