{
  "_format": "hh-sol-artifact-1",
  "contractName": "BankOfSiberia",
  "sourceName": "contracts/BankOfSiberia.sol",
  "abi": [
    {
      "inputs": [
        {
          "internalType": "address",
          "name": "l",
          "type": "address"
        }
      ],
      "stateMutability": "nonpayable",
      "type": "constructor"
    },
    {
      "anonymous": false,
      "inputs": [
        {
          "indexed": true,
          "internalType": "address",
          "name": "ledger",
          "type": "address"
        }
      ],
      "name": "LedgerSet",
      "type": "event"
    },
    {
      "anonymous": false,
      "inputs": [
        {
          "indexed": true,
          "internalType": "address",
          "name": "oldOwner",
          "type": "address"
        },
        {
          "indexed": true,
          "internalType": "address",
          "name": "newOwner",
          "type": "address"
        }
      ],
      "name": "OwnerChanged",
      "type": "event"
    },
    {
      "inputs": [
        {
          "internalType": "bytes32",
          "name": "fromId",
          "type": "bytes32"
        },
        {
          "internalType": "bytes32",
          "name": "toId",
          "type": "bytes32"
        },
        {
          "internalType": "address",
          "name": "asset",
          "type": "address"
        },
        {
          "internalType": "uint256",
          "name": "amount",
          "type": "uint256"
        },
        {
          "internalType": "bytes32",
          "name": "memo",
          "type": "bytes32"
        }
      ],
      "name": "bankTransfer",
      "outputs": [],
      "stateMutability": "nonpayable",
      "type": "function"
    },
    {
      "inputs": [],
      "name": "ledger",
      "outputs": [
        {
          "internalType": "contract IAltanBankLedgerBankOps",
          "name": "",
          "type": "address"
        }
      ],
      "stateMutability": "view",
      "type": "function"
    },
    {
      "inputs": [],
      "name": "owner",
      "outputs": [
        {
          "internalType": "address",
          "name": "",
          "type": "address"
        }
      ],
      "stateMutability": "view",
      "type": "function"
    },
    {
      "inputs": [
        {
          "internalType": "address",
          "name": "l",
          "type": "address"
        }
      ],
      "name": "setLedger",
      "outputs": [],
      "stateMutability": "nonpayable",
      "type": "function"
    },
    {
      "inputs": [
        {
          "internalType": "address",
          "name": "newOwner",
          "type": "address"
        }
      ],
      "name": "transferOwnership",
      "outputs": [],
      "stateMutability": "nonpayable",
      "type": "function"
    }
  ],
  "bytecode": "0x6080346100a157601f6103e438819003918201601f19168301916001600160401b038311848410176100a6578084926020946040528339810103126100a157516001600160a01b038116908190036100a1578060018060a01b0319338160005416176000556001541617600155604051907fbc62e69a31739e36d57d56991ac20e4e507a7edfff9070e6a11df5a37b8b4e6f600080a261032790816100bd8239f35b600080fd5b634e487b7160e01b600052604160045260246000fdfe604060808152600436101561001357600080fd5b600090813560e01c9081633246887d146101ee57816356397c35146101c5578282636209f9a9146100fd575081638da5cb5b146100d1575063f2fde38b1461005a57600080fd5b346100ce5760203660031901126100ce57610073610266565b81546001600160a01b038082169261008c338514610281565b16809261009a8215156102b9565b7fb532073b38c83145e3e5135377a08bf9aab55bc0fd7c1179cd4fb995d2a5159c8580a36001600160a01b03191617815580f35b80fd5b9050346100f957816003193601126100f957905490516001600160a01b039091168152602090f35b5080fd5b9150346101c25760a03660031901126101c2576044356001600160a01b03818116918290036101bd57610134818554163314610281565b60015416803b156101bd5760a4849284519586938492632240a9ad60e01b8452600435600485015260243560248501526044840152606435606484015260843560848401525af180156101b357610189578280f35b67ffffffffffffffff821161019f575238808280f35b634e487b7160e01b83526041600452602483fd5b81513d85823e3d90fd5b505050fd5b50fd5b9050346100f957816003193601126100f95760015490516001600160a01b039091168152602090f35b82346100ce5760203660031901126100ce57610208610266565b81546001600160a01b0391906102219083163314610281565b1661022d8115156102b9565b600180546001600160a01b031916821790557fbc62e69a31739e36d57d56991ac20e4e507a7edfff9070e6a11df5a37b8b4e6f8280a280f35b600435906001600160a01b038216820361027c57565b600080fd5b1561028857565b60405162461bcd60e51b81526020600482015260096024820152682727aa2fa7aba722a960b91b6044820152606490fd5b156102c057565b60405162461bcd60e51b81526020600482015260096024820152682d22a927afa0a2222960b91b6044820152606490fdfea26469706673582212200c6039a6aae9641f3825eb6127c90da50303f16356117f7edc94679ecb4f3bb764736f6c63430008180033",
  "linkReferences": {},
  "deployedLinkReferences": {}
}