{
  "_format": "hh-sol-artifact-1",
  "contractName": "PaymentRouter",
  "sourceName": "contracts/PaymentRouter.sol",
  "abi": [
    {
      "inputs": [
        {
          "internalType": "address",
          "name": "ledgerAddr",
          "type": "address"
        },
        {
          "internalType": "address",
          "name": "feeAddr",
          "type": "address"
        },
        {
          "internalType": "address",
          "name": "taxAddr",
          "type": "address"
        }
      ],
      "stateMutability": "nonpayable",
      "type": "constructor"
    },
    {
      "anonymous": false,
      "inputs": [
        {
          "indexed": true,
          "internalType": "address",
          "name": "oldOwner",
          "type": "address"
        },
        {
          "indexed": true,
          "internalType": "address",
          "name": "newOwner",
          "type": "address"
        }
      ],
      "name": "OwnerChanged",
      "type": "event"
    },
    {
      "anonymous": false,
      "inputs": [
        {
          "indexed": true,
          "internalType": "bytes32",
          "name": "payer",
          "type": "bytes32"
        },
        {
          "indexed": true,
          "internalType": "bytes32",
          "name": "payee",
          "type": "bytes32"
        },
        {
          "indexed": true,
          "internalType": "bytes32",
          "name": "republicKey",
          "type": "bytes32"
        },
        {
          "indexed": false,
          "internalType": "address",
          "name": "asset",
          "type": "address"
        },
        {
          "indexed": false,
          "internalType": "uint256",
          "name": "amount",
          "type": "uint256"
        },
        {
          "indexed": false,
          "internalType": "uint256",
          "name": "fee",
          "type": "uint256"
        },
        {
          "indexed": false,
          "internalType": "uint256",
          "name": "republicTax",
          "type": "uint256"
        },
        {
          "indexed": false,
          "internalType": "uint256",
          "name": "confedTax",
          "type": "uint256"
        },
        {
          "indexed": false,
          "internalType": "uint256",
          "name": "netAmount",
          "type": "uint256"
        },
        {
          "indexed": false,
          "internalType": "bytes32",
          "name": "memo",
          "type": "bytes32"
        }
      ],
      "name": "Routed",
      "type": "event"
    },
    {
      "anonymous": false,
      "inputs": [
        {
          "indexed": true,
          "internalType": "address",
          "name": "ledger",
          "type": "address"
        },
        {
          "indexed": true,
          "internalType": "address",
          "name": "feeEngine",
          "type": "address"
        },
        {
          "indexed": true,
          "internalType": "address",
          "name": "taxEngine",
          "type": "address"
        }
      ],
      "name": "Wired",
      "type": "event"
    },
    {
      "inputs": [],
      "name": "feeEngine",
      "outputs": [
        {
          "internalType": "contract IFeeEngine",
          "name": "",
          "type": "address"
        }
      ],
      "stateMutability": "view",
      "type": "function"
    },
    {
      "inputs": [],
      "name": "ledger",
      "outputs": [
        {
          "internalType": "contract ILedger",
          "name": "",
          "type": "address"
        }
      ],
      "stateMutability": "view",
      "type": "function"
    },
    {
      "inputs": [],
      "name": "owner",
      "outputs": [
        {
          "internalType": "address",
          "name": "",
          "type": "address"
        }
      ],
      "stateMutability": "view",
      "type": "function"
    },
    {
      "inputs": [
        {
          "internalType": "bytes32",
          "name": "payerAccountId",
          "type": "bytes32"
        },
        {
          "internalType": "bytes32",
          "name": "payeeAccountId",
          "type": "bytes32"
        },
        {
          "internalType": "bytes32",
          "name": "republicKey",
          "type": "bytes32"
        },
        {
          "internalType": "address",
          "name": "asset",
          "type": "address"
        },
        {
          "internalType": "uint256",
          "name": "amount",
          "type": "uint256"
        },
        {
          "internalType": "bytes32",
          "name": "memo",
          "type": "bytes32"
        }
      ],
      "name": "pay",
      "outputs": [
        {
          "internalType": "uint256",
          "name": "netAmount",
          "type": "uint256"
        }
      ],
      "stateMutability": "nonpayable",
      "type": "function"
    },
    {
      "inputs": [],
      "name": "taxEngine",
      "outputs": [
        {
          "internalType": "contract ITaxEngine",
          "name": "",
          "type": "address"
        }
      ],
      "stateMutability": "view",
      "type": "function"
    },
    {
      "inputs": [
        {
          "internalType": "address",
          "name": "newOwner",
          "type": "address"
        }
      ],
      "name": "transferOwnership",
      "outputs": [],
      "stateMutability": "nonpayable",
      "type": "function"
    }
  ],
  "bytecode": "0x6080346100d457601f61064d38819003918201601f19168301916001600160401b038311848410176100d9578084926060946040528339810103126100d457610047816100ef565b61005f6040610058602085016100ef565b93016100ef565b60018060a01b0319913383600054161760005560018060a01b038080921694858560015416176001551691828460025416176002551680926003541617600355604051927f909da40a476e699e9b1275419501ea894c9f1e09165e866d3ddfbd0148c40d76600080a461054990816101048239f35b600080fd5b634e487b7160e01b600052604160045260246000fd5b51906001600160a01b03821682036100d45756fe608080604052600436101561001357600080fd5b60003560e01c90816356397c35146104c0575080636bf22168146104975780638da5cb5b1461046e578063e31b309114610445578063f2fde38b146103725763fdad1e6a1461006157600080fd5b346102b95760c03660031901126102b9576024356064356001600160a01b03811690036102b95760009060018060a01b036002541660405190634eb84dcd60e11b8252600435600483015260018060a01b03606435166024830152608435604483015260a43560648301528160848160209687945af19081156102ad57600091610345575b5060018060a01b03600354169160408051809462b7964760e01b82528160008161014860a435608435606435604435600435600487019192608093969594919660a08401978452602084015260018060a01b0316604083015260608201520152565b03925af180156102ad5760009360009161030d575b506101718161016c8686610506565b610506565b9384608435106102d457608435858103116102be578460843503610201575b6040519360018060a01b0360643516855260843587860152604085015260608401526080830152826084350360a083015260a43560c0830152604435917fc703e6589b2a197b8e9f6459a95e6afde6e71d4af20db80dfba4663b8d13569060e060043592a460405190608435038152f35b6001546001600160a01b0316803b156102b95760006040518092632240a9ad60e01b825281838161026a60a4358d608435036064358d600435600487019192608093969594919660a08401978452602084015260018060a01b0316604083015260608201520152565b03925af180156102ad5761027f575b50610190565b67ffffffffffffffff81116102975760405238610279565b634e487b7160e01b600052604160045260246000fd5b6040513d6000823e3d90fd5b600080fd5b634e487b7160e01b600052601160045260246000fd5b60405162461bcd60e51b8152600481018790526011602482015270414d4f554e545f4c545f4348415247455360781b6044820152606490fd5b9350506040833d60401161033d575b81610329604093836104e4565b810103126102b9578383519301513861015d565b3d915061031c565b90508281813d831161036b575b61035c81836104e4565b810103126102b95751386100e6565b503d610352565b346102b95760203660031901126102b9576004356001600160a01b03818116918290036102b9576000549081168033036104145782156103e35782907fb532073b38c83145e3e5135377a08bf9aab55bc0fd7c1179cd4fb995d2a5159c600080a36001600160a01b03191617600055005b60405162461bcd60e51b81526020600482015260096024820152682d22a927afa0a2222960b91b6044820152606490fd5b60405162461bcd60e51b81526020600482015260096024820152682727aa2fa7aba722a960b91b6044820152606490fd5b346102b95760003660031901126102b9576002546040516001600160a01b039091168152602090f35b346102b95760003660031901126102b9576000546040516001600160a01b039091168152602090f35b346102b95760003660031901126102b9576003546040516001600160a01b039091168152602090f35b346102b95760003660031901126102b9576001546001600160a01b03168152602090f35b90601f8019910116810190811067ffffffffffffffff82111761029757604052565b919082018092116102be5756fea26469706673582212201a5e541e3847176f75381c2f4866b4bb5a4e0c62444da591db44e9cb7b13225464736f6c63430008180033",
  "linkReferences": {},
  "deployedLinkReferences": {}
}