{
  "_format": "hh-sol-artifact-1",
  "contractName": "Tumen",
  "sourceName": "contracts/Tumen.sol",
  "abi": [
    {
      "inputs": [
        {
          "internalType": "address",
          "name": "registry_",
          "type": "address"
        },
        {
          "internalType": "address",
          "name": "organization_",
          "type": "address"
        },
        {
          "internalType": "uint256",
          "name": "tumenId_",
          "type": "uint256"
        },
        {
          "internalType": "uint256[10]",
          "name": "myanganIds_",
          "type": "uint256[10]"
        },
        {
          "internalType": "address",
          "name": "leader_",
          "type": "address"
        }
      ],
      "stateMutability": "nonpayable",
      "type": "constructor"
    },
    {
      "inputs": [],
      "name": "OnlyRegistry",
      "type": "error"
    },
    {
      "anonymous": false,
      "inputs": [
        {
          "indexed": true,
          "internalType": "uint256",
          "name": "tumenId",
          "type": "uint256"
        },
        {
          "indexed": true,
          "internalType": "address",
          "name": "registry",
          "type": "address"
        },
        {
          "indexed": true,
          "internalType": "address",
          "name": "organization",
          "type": "address"
        }
      ],
      "name": "Created",
      "type": "event"
    },
    {
      "anonymous": false,
      "inputs": [
        {
          "indexed": true,
          "internalType": "uint256",
          "name": "tumenId",
          "type": "uint256"
        },
        {
          "indexed": true,
          "internalType": "address",
          "name": "leader",
          "type": "address"
        }
      ],
      "name": "LeaderSet",
      "type": "event"
    },
    {
      "inputs": [],
      "name": "getMyangans",
      "outputs": [
        {
          "internalType": "uint256[10]",
          "name": "",
          "type": "uint256[10]"
        }
      ],
      "stateMutability": "view",
      "type": "function"
    },
    {
      "inputs": [],
      "name": "leader",
      "outputs": [
        {
          "internalType": "address",
          "name": "",
          "type": "address"
        }
      ],
      "stateMutability": "view",
      "type": "function"
    },
    {
      "inputs": [],
      "name": "organization",
      "outputs": [
        {
          "internalType": "address",
          "name": "",
          "type": "address"
        }
      ],
      "stateMutability": "view",
      "type": "function"
    },
    {
      "inputs": [],
      "name": "registry",
      "outputs": [
        {
          "internalType": "address",
          "name": "",
          "type": "address"
        }
      ],
      "stateMutability": "view",
      "type": "function"
    },
    {
      "inputs": [
        {
          "internalType": "address",
          "name": "newLeader",
          "type": "address"
        }
      ],
      "name": "setLeader",
      "outputs": [],
      "stateMutability": "nonpayable",
      "type": "function"
    },
    {
      "inputs": [],
      "name": "tumenId",
      "outputs": [
        {
          "internalType": "uint256",
          "name": "",
          "type": "uint256"
        }
      ],
      "stateMutability": "view",
      "type": "function"
    }
  ],
  "bytecode": "0x60e03461018e576001600160401b036104b73881900390601f8201601f19168401908382118583101761019357829160405284398201916101c08184031261018e5761004a816101a9565b6020610058602084016101a9565b9460408401519381607f8201121561018e57604051956101408701908111878210176101935760405285906101a0810192831161018e576060849101915b83831061017e575050506100a9906101a9565b93826080528560a0528360c05260005b600a811061016e575050600a80546001600160a01b0319166001600160a01b0395861690811790915560405195909490811692169050827fcbd6f84bfed2ee8cc01ea152b5d9f7126a72c410dbc5ab04c486a5800627b190600080a47f6e338460bd0ac3b8a2c26ae9f2f7b2600926416c5ff4c21c1a4e903883e6a8da600080a36102f990816101be82396080518181816101360152610190015260a05181610261015260c051818181607a01526101cb0152f35b81518155908201906001016100b9565b8251815291810191849101610096565b600080fd5b634e487b7160e01b600052604160045260246000fd5b51906001600160a01b038216820361018e5756fe60806040818152600436101561001457600080fd5b600091823560e01c90816323bd4d7a1461024d5750806340eedabb146102255780634331e8dd146101655780637b10399914610122578063b443326c146100a15763c31465921461006457600080fd5b3461009d578160031936011261009d57602090517f00000000000000000000000000000000000000000000000000000000000000008152f35b5080fd5b503461009d578160031936011261009d57908151916100bf83610290565b61014080933690378051908280835b600a821061010b575050506100e282610290565b519190825b600a83106100f457505050f35b6001908251815260208091019201920191906100e7565b8254815260019283019291909101906020016100ce565b503461009d578160031936011261009d57517f00000000000000000000000000000000000000000000000000000000000000006001600160a01b03168152602090f35b503461009d57602036600319011261009d576004356001600160a01b038181169291839003610221577f00000000000000000000000000000000000000000000000000000000000000001633036102115750600a80546001600160a01b031916821790557f00000000000000000000000000000000000000000000000000000000000000007f6e338460bd0ac3b8a2c26ae9f2f7b2600926416c5ff4c21c1a4e903883e6a8da8380a380f35b516310f5403960e31b8152600490fd5b8380fd5b503461009d578160031936011261009d57600a5490516001600160a01b039091168152602090f35b83903461009d578160031936011261009d577f00000000000000000000000000000000000000000000000000000000000000006001600160a01b03168152602090f35b610140810190811067ffffffffffffffff8211176102ad57604052565b634e487b7160e01b600052604160045260246000fdfea2646970667358221220d0832969a755ba3bad915028744c8abca48bfc304727d41effcf52a80e712b1c64736f6c63430008180033",
  "linkReferences": {},
  "deployedLinkReferences": {}
}