{
  "_format": "hh-sol-artifact-1",
  "contractName": "ArbanJoinDoc",
  "sourceName": "contracts/ArbanJoinDoc.sol",
  "abi": [
    {
      "inputs": [
        {
          "internalType": "address",
          "name": "arbanRegistry_",
          "type": "address"
        },
        {
          "internalType": "address",
          "name": "citizenRegistry_",
          "type": "address"
        },
        {
          "internalType": "uint256",
          "name": "arbanId_",
          "type": "uint256"
        },
        {
          "internalType": "address",
          "name": "leaderCitizenAccount_",
          "type": "address"
        },
        {
          "internalType": "uint256[]",
          "name": "seatIds_",
          "type": "uint256[]"
        },
        {
          "internalType": "uint256",
          "name": "minSignatures_",
          "type": "uint256"
        },
        {
          "internalType": "bytes32",
          "name": "docHash_",
          "type": "bytes32"
        }
      ],
      "stateMutability": "nonpayable",
      "type": "constructor"
    },
    {
      "inputs": [],
      "name": "AlreadyFinalized",
      "type": "error"
    },
    {
      "inputs": [
        {
          "internalType": "uint256",
          "name": "seatId",
          "type": "uint256"
        }
      ],
      "name": "AlreadySigned",
      "type": "error"
    },
    {
      "inputs": [],
      "name": "InvalidSeat",
      "type": "error"
    },
    {
      "inputs": [
        {
          "internalType": "uint256",
          "name": "seatId",
          "type": "uint256"
        },
        {
          "internalType": "address",
          "name": "expected",
          "type": "address"
        },
        {
          "internalType": "address",
          "name": "got",
          "type": "address"
        }
      ],
      "name": "NotCitizenAccountForSeat",
      "type": "error"
    },
    {
      "inputs": [
        {
          "internalType": "uint256",
          "name": "have",
          "type": "uint256"
        },
        {
          "internalType": "uint256",
          "name": "need",
          "type": "uint256"
        }
      ],
      "name": "NotEnoughSignatures",
      "type": "error"
    },
    {
      "inputs": [
        {
          "internalType": "uint256",
          "name": "seatId",
          "type": "uint256"
        }
      ],
      "name": "SeatNotAllowed",
      "type": "error"
    },
    {
      "inputs": [],
      "name": "ZeroAddress",
      "type": "error"
    },
    {
      "anonymous": false,
      "inputs": [
        {
          "indexed": true,
          "internalType": "uint256",
          "name": "arbanId",
          "type": "uint256"
        }
      ],
      "name": "Finalized",
      "type": "event"
    },
    {
      "anonymous": false,
      "inputs": [
        {
          "indexed": true,
          "internalType": "uint256",
          "name": "seatId",
          "type": "uint256"
        },
        {
          "indexed": true,
          "internalType": "address",
          "name": "citizenAccount",
          "type": "address"
        }
      ],
      "name": "Joined",
      "type": "event"
    },
    {
      "inputs": [],
      "name": "arbanId",
      "outputs": [
        {
          "internalType": "uint256",
          "name": "",
          "type": "uint256"
        }
      ],
      "stateMutability": "view",
      "type": "function"
    },
    {
      "inputs": [],
      "name": "arbanRegistry",
      "outputs": [
        {
          "internalType": "address",
          "name": "",
          "type": "address"
        }
      ],
      "stateMutability": "view",
      "type": "function"
    },
    {
      "inputs": [],
      "name": "citizenRegistry",
      "outputs": [
        {
          "internalType": "address",
          "name": "",
          "type": "address"
        }
      ],
      "stateMutability": "view",
      "type": "function"
    },
    {
      "inputs": [],
      "name": "docHash",
      "outputs": [
        {
          "internalType": "bytes32",
          "name": "",
          "type": "bytes32"
        }
      ],
      "stateMutability": "view",
      "type": "function"
    },
    {
      "inputs": [],
      "name": "finalize",
      "outputs": [],
      "stateMutability": "nonpayable",
      "type": "function"
    },
    {
      "inputs": [],
      "name": "finalized",
      "outputs": [
        {
          "internalType": "bool",
          "name": "",
          "type": "bool"
        }
      ],
      "stateMutability": "view",
      "type": "function"
    },
    {
      "inputs": [
        {
          "internalType": "uint256",
          "name": "seatId",
          "type": "uint256"
        }
      ],
      "name": "isSeatAllowed",
      "outputs": [
        {
          "internalType": "bool",
          "name": "",
          "type": "bool"
        }
      ],
      "stateMutability": "view",
      "type": "function"
    },
    {
      "inputs": [
        {
          "internalType": "uint256",
          "name": "seatId",
          "type": "uint256"
        }
      ],
      "name": "join",
      "outputs": [],
      "stateMutability": "nonpayable",
      "type": "function"
    },
    {
      "inputs": [],
      "name": "leader",
      "outputs": [
        {
          "internalType": "address",
          "name": "",
          "type": "address"
        }
      ],
      "stateMutability": "view",
      "type": "function"
    },
    {
      "inputs": [],
      "name": "minSignatures",
      "outputs": [
        {
          "internalType": "uint256",
          "name": "",
          "type": "uint256"
        }
      ],
      "stateMutability": "view",
      "type": "function"
    },
    {
      "inputs": [],
      "name": "seatIds",
      "outputs": [
        {
          "internalType": "uint256[]",
          "name": "",
          "type": "uint256[]"
        }
      ],
      "stateMutability": "view",
      "type": "function"
    },
    {
      "inputs": [],
      "name": "signedCount",
      "outputs": [
        {
          "internalType": "uint256",
          "name": "",
          "type": "uint256"
        }
      ],
      "stateMutability": "view",
      "type": "function"
    },
    {
      "inputs": [
        {
          "internalType": "uint256",
          "name": "",
          "type": "uint256"
        }
      ],
      "name": "signedSeat",
      "outputs": [
        {
          "internalType": "bool",
          "name": "",
          "type": "bool"
        }
      ],
      "stateMutability": "view",
      "type": "function"
    }
  ],
  "bytecode": "0x6040610140815234620002f35762000b5f803803806200001f81620002f8565b928339810160e082820312620002f3576200003a826200031e565b926020936200004b8585016200031e565b828501516200005d606087016200031e565b60808701516001600160401b039691939190878111620002f357880181601f82011215620002f3578051978811620001be578760051b8a80620000a2818401620002f8565b809b81520191830101928311620002f3578a809201905b838210620002e3575050505060a087015160c090970151936001600160a01b03808216158015620002d8575b620002c757841615620002b6578215620001fb57865160028110908115620002aa575b50620001fb576002881080156200029f575b620001fb5760805260a05260c05260e05261012093845261010090815260005b8351811015620002395762000150818562000333565b5190811562000228576001918282018083116200021257835b620001d4575b506000549268010000000000000000841015620001be57830180600055831015620001a85760019260008052886000200155016200013a565b634e487b7160e01b600052603260045260246000fd5b634e487b7160e01b600052604160045260246000fd5b86518110156200020c57620001ea818862000333565b518214620001fb5783018362000169565b85516367ee0b4d60e11b8152600490fd5b6200016f565b634e487b7160e01b600052601160045260246000fd5b83516367ee0b4d60e11b8152600490fd5b5083825190610816928362000349843960805183818160c70152610193015260a0518381816104180152610581015260c0518381816101f901526104f3015260e0518381816102380152610331015251826103e001525181818161015e015261048b0152f35b50865188116200011a565b600a9150113862000108565b855163d92e233d60e01b8152600490fd5b865163d92e233d60e01b8152600490fd5b5080831615620000e5565b81518152908201908201620000b9565b600080fd5b6040519190601f01601f191682016001600160401b03811183821017620001be57604052565b51906001600160a01b0382168203620002f357565b8051821015620001a85760209160051b01019056fe608060408181526004918236101561001657600080fd5b600092833560e01c918263049878f3146105165750816306c81719146104db5781630f5f2db8146104ae578163238acaa2146104735781632641e00714610447578163386ca89d146104035781633d6df0d5146103c85781633d8a025c1461036057816340eedabb1461031c5781634bb278f31461013b575080635f3d8f4a1461011d578063b3f05b97146100fa5763df5d55a6146100b457600080fd5b346100f657816003193601126100f657517f00000000000000000000000000000000000000000000000000000000000000006001600160a01b03168152602090f35b5080fd5b50346100f657816003193601126100f65760209060ff6003541690519015158152f35b50346100f657816003193601126100f6576020906002549051908152f35b9190503461031857826003193601126103185760035460ff811661030a576002547f0000000000000000000000000000000000000000000000000000000000000000908181106102ee57505060ff19166001176003557f00000000000000000000000000000000000000000000000000000000000000006001600160a01b039081169190823b156102c95781516350d50f4960e01b8152308582015260016024820152858160448183885af180156102e4576102cd575b50908492917f000000000000000000000000000000000000000000000000000000000000000094833b156102c9578593859284519586936306b0882b60e11b85528401527f00000000000000000000000000000000000000000000000000000000000000001660248301526060604483015281838161027360648201610787565b03925af19081156102c057506102ac575b50807f839cf22e1ba87ce2f5b9bbf46cf0175a09eed52febdfaac8852478e68203c76391a280f35b6102b5906106e6565b6100f6578138610284565b513d84823e3d90fd5b8480fd5b6102db9095919392956106e6565b939091386101f2565b83513d88823e3d90fd5b8492506044935192633ce0c9e960e11b84528301526024820152fd5b505163475a253560e01b8152fd5b8280fd5b5050346100f657816003193601126100f657517f00000000000000000000000000000000000000000000000000000000000000006001600160a01b03168152602090f35b5050346100f657816003193601126100f65780516103888161038181610787565b0382610710565b815192839260208080860192818752855180945286019401925b8281106103b157505050500390f35b8351855286955093810193928101926001016103a2565b5050346100f657816003193601126100f657602090517f00000000000000000000000000000000000000000000000000000000000000008152f35b5050346100f657816003193601126100f657517f00000000000000000000000000000000000000000000000000000000000000006001600160a01b03168152602090f35b828434610470576020366003190112610470575061046760209235610732565b90519015158152f35b80fd5b5050346100f657816003193601126100f657602090517f00000000000000000000000000000000000000000000000000000000000000008152f35b905034610318576020366003190112610318578160209360ff923581526001855220541690519015158152f35b5050346100f657816003193601126100f657602090517f00000000000000000000000000000000000000000000000000000000000000008152f35b849184346106e2576020806003193601126102c95782359360ff600354166106d4575083156106c65761054884610732565b156106b0578385526001815260ff828620541661069a57815163aa9b77db60e01b81528381018590526001600160a01b039082816024817f000000000000000000000000000000000000000000000000000000000000000086165afa908115610690578791610656575b50168015610647578033036106255750600190848652528320600160ff198254161790556002549060018201809211610612575060025533907fc0081eeafa0d002abcd7d58d84b6e688d1526b9c3d915a282212ba08c49a17a78380a380f35b634e487b7160e01b845260119052602483fd5b916064949150519263a705575160e01b84528301526024820152336044820152fd5b50505163d92e233d60e01b8152fd5b90508281813d8311610689575b61066d8183610710565b810103126106855751818116810361068557876105b2565b8680fd5b503d610663565b84513d89823e3d90fd5b50916024925191636697534160e01b8352820152fd5b509160249251916379d98c7560e11b8352820152fd5b50516367ee0b4d60e11b8152fd5b63475a253560e01b81528390fd5b8380fd5b67ffffffffffffffff81116106fa57604052565b634e487b7160e01b600052604160045260246000fd5b90601f8019910116810190811067ffffffffffffffff8211176106fa57604052565b600090600054915b82811061074957505050600090565b6000805281817f290decd9548b62a8d60345a988386fc84ba6bc95484008f6362f93160ef3e56301541461077f5760010161073a565b505050600190565b600080548083528180526020928301927f290decd9548b62a8d60345a988386fc84ba6bc95484008f6362f93160ef3e56392905b8282106107c9575050505090565b8354855293840193600193840193909101906107bb56fea26469706673582212202b5cb5667490d033c1eaf376aeb425ed96ee583761ba57f5b01ae71eeb1a67a264736f6c63430008180033",
  "linkReferences": {},
  "deployedLinkReferences": {}
}