{
  "_format": "hh-sol-artifact-1",
  "contractName": "CentralBankOfSiberia",
  "sourceName": "contracts/CentralBankOfSiberia.sol",
  "abi": [
    {
      "inputs": [],
      "stateMutability": "nonpayable",
      "type": "constructor"
    },
    {
      "anonymous": false,
      "inputs": [
        {
          "indexed": true,
          "internalType": "address",
          "name": "ledger",
          "type": "address"
        }
      ],
      "name": "LedgerSet",
      "type": "event"
    },
    {
      "anonymous": false,
      "inputs": [
        {
          "indexed": true,
          "internalType": "address",
          "name": "reg",
          "type": "address"
        }
      ],
      "name": "LicenseRegistrySet",
      "type": "event"
    },
    {
      "anonymous": false,
      "inputs": [
        {
          "indexed": true,
          "internalType": "address",
          "name": "oldOwner",
          "type": "address"
        },
        {
          "indexed": true,
          "internalType": "address",
          "name": "newOwner",
          "type": "address"
        }
      ],
      "name": "OwnerChanged",
      "type": "event"
    },
    {
      "inputs": [
        {
          "internalType": "bytes32",
          "name": "accountId",
          "type": "bytes32"
        },
        {
          "internalType": "address",
          "name": "asset",
          "type": "address"
        },
        {
          "internalType": "uint256",
          "name": "amount",
          "type": "uint256"
        },
        {
          "internalType": "bytes32",
          "name": "memo",
          "type": "bytes32"
        }
      ],
      "name": "burnFromAccount",
      "outputs": [],
      "stateMutability": "nonpayable",
      "type": "function"
    },
    {
      "inputs": [
        {
          "internalType": "address",
          "name": "bank",
          "type": "address"
        },
        {
          "internalType": "bytes32",
          "name": "nameHash",
          "type": "bytes32"
        },
        {
          "internalType": "bytes32",
          "name": "metaHash",
          "type": "bytes32"
        }
      ],
      "name": "issueBankLicense",
      "outputs": [],
      "stateMutability": "nonpayable",
      "type": "function"
    },
    {
      "inputs": [],
      "name": "ledger",
      "outputs": [
        {
          "internalType": "contract IAltanBankLedger",
          "name": "",
          "type": "address"
        }
      ],
      "stateMutability": "view",
      "type": "function"
    },
    {
      "inputs": [],
      "name": "licenseRegistry",
      "outputs": [
        {
          "internalType": "contract IBankLicenseRegistry",
          "name": "",
          "type": "address"
        }
      ],
      "stateMutability": "view",
      "type": "function"
    },
    {
      "inputs": [
        {
          "internalType": "bytes32",
          "name": "accountId",
          "type": "bytes32"
        },
        {
          "internalType": "address",
          "name": "asset",
          "type": "address"
        },
        {
          "internalType": "uint256",
          "name": "amount",
          "type": "uint256"
        },
        {
          "internalType": "bytes32",
          "name": "memo",
          "type": "bytes32"
        }
      ],
      "name": "mintToAccount",
      "outputs": [],
      "stateMutability": "nonpayable",
      "type": "function"
    },
    {
      "inputs": [],
      "name": "owner",
      "outputs": [
        {
          "internalType": "address",
          "name": "",
          "type": "address"
        }
      ],
      "stateMutability": "view",
      "type": "function"
    },
    {
      "inputs": [
        {
          "internalType": "address",
          "name": "bank",
          "type": "address"
        }
      ],
      "name": "revokeBankLicense",
      "outputs": [],
      "stateMutability": "nonpayable",
      "type": "function"
    },
    {
      "inputs": [
        {
          "internalType": "address",
          "name": "l",
          "type": "address"
        }
      ],
      "name": "setLedger",
      "outputs": [],
      "stateMutability": "nonpayable",
      "type": "function"
    },
    {
      "inputs": [
        {
          "internalType": "address",
          "name": "reg",
          "type": "address"
        }
      ],
      "name": "setLicenseRegistry",
      "outputs": [],
      "stateMutability": "nonpayable",
      "type": "function"
    },
    {
      "inputs": [
        {
          "internalType": "address",
          "name": "newOwner",
          "type": "address"
        }
      ],
      "name": "transferOwnership",
      "outputs": [],
      "stateMutability": "nonpayable",
      "type": "function"
    }
  ],
  "bytecode": "0x6080806040523461002857600080546001600160a01b0319163317905561064b908161002e8239f35b600080fdfe604060808152600436101561001357600080fd5b600090813560e01c80633246887d1461044357806346a67069146103bd57806356397c351461039557828163725b8a9b14610307575080638da5cb5b146102e0578063c2fda487146102b457828163f2aaa4cd1461023257508063f2fde38b146101bd578063fd89e223146101455763fe963b4d1461009157600080fd5b819034610142576100a1366104d6565b93929160018060a01b036100b9818854163314610504565b60025416906100c98215156105d8565b813b1561013e578451635b0915df60e01b815260048101949094526001600160a01b03166024840152604483019190915260648201939093529183908390818381608481015b03925af190811561013557506101225750f35b61012b906105ae565b6101325780f35b80fd5b513d84823e3d90fd5b8680fd5b50fd5b82346101325760203660031901126101325761015f6104bb565b81546001600160a01b0391906101789083163314610504565b1661018481151561053c565b600180546001600160a01b031916821790557f9e753ba61f3347ccf390ab8eeb39ba7d6133775597c86f1b507cecfae0271d268280a280f35b8234610132576020366003190112610132576101d76104bb565b81546001600160a01b03808216926101f0338514610504565b1680926101fe82151561053c565b7fb532073b38c83145e3e5135377a08bf9aab55bc0fd7c1179cd4fb995d2a5159c8580a36001600160a01b03191617815580f35b80833461014257610242366104d6565b93929160018060a01b0361025a818854163314610504565b600254169061026a8215156105d8565b813b1561013e57845163e72517b160e01b815260048101949094526001600160a01b031660248401526044830191909152606482019390935291839083908183816084810161010f565b50346102dc57816003193601126102dc5760015490516001600160a01b039091168152602090f35b5080fd5b50346102dc57816003193601126102dc57905490516001600160a01b039091168152602090f35b808334610142576060366003190112610142576103226104bb565b82546001600160a01b0392919061033c9084163314610504565b82600154169261034d841515610574565b833b1561039157606485928385519687948593635ba78eb560e11b8552166004840152602435602484015260443560448401525af190811561013557506101225750f35b8480fd5b50346102dc57816003193601126102dc5760025490516001600160a01b039091168152602090f35b50346102dc5760203660031901126102dc576103d76104bb565b908260018060a01b036103ee818354163314610504565b8060015416936103ff851515610574565b843b1561043f57602490838551968794859363090bbb5760e31b85521660048401525af19081156101355750610433575080f35b61043c906105ae565b80f35b8280fd5b82346101325760203660031901126101325761045d6104bb565b81546001600160a01b0391906104769083163314610504565b1661048281151561053c565b600280546001600160a01b031916821790557fbc62e69a31739e36d57d56991ac20e4e507a7edfff9070e6a11df5a37b8b4e6f8280a280f35b600435906001600160a01b03821682036104d157565b600080fd5b60809060031901126104d157600435906024356001600160a01b03811681036104d157906044359060643590565b1561050b57565b60405162461bcd60e51b81526020600482015260096024820152682727aa2fa7aba722a960b91b6044820152606490fd5b1561054357565b60405162461bcd60e51b81526020600482015260096024820152682d22a927afa0a2222960b91b6044820152606490fd5b1561057b57565b60405162461bcd60e51b815260206004820152600b60248201526a149151d7d393d517d4d15560aa1b6044820152606490fd5b67ffffffffffffffff81116105c257604052565b634e487b7160e01b600052604160045260246000fd5b156105df57565b60405162461bcd60e51b815260206004820152600e60248201526d13115111d15497d393d517d4d15560921b6044820152606490fdfea264697066735822122015b4f8eb98ded721f1d53058f6442946ede49b42ff6752631c78dea81abb465b64736f6c63430008180033",
  "linkReferences": {},
  "deployedLinkReferences": {}
}