{
  "_format": "hh-sol-artifact-1",
  "contractName": "ElectionRegistry",
  "sourceName": "contracts/ElectionRegistry.sol",
  "abi": [
    {
      "inputs": [
        {
          "internalType": "address",
          "name": "seat_",
          "type": "address"
        }
      ],
      "stateMutability": "nonpayable",
      "type": "constructor"
    },
    {
      "inputs": [],
      "name": "INVALID_WINNER",
      "type": "error"
    },
    {
      "inputs": [],
      "name": "NOT_ADMIN",
      "type": "error"
    },
    {
      "inputs": [],
      "name": "WINNER_ALREADY_SET",
      "type": "error"
    },
    {
      "inputs": [],
      "name": "admin",
      "outputs": [
        {
          "internalType": "address",
          "name": "",
          "type": "address"
        }
      ],
      "stateMutability": "view",
      "type": "function"
    },
    {
      "inputs": [
        {
          "internalType": "uint256",
          "name": "seatId",
          "type": "uint256"
        }
      ],
      "name": "finalize",
      "outputs": [],
      "stateMutability": "nonpayable",
      "type": "function"
    },
    {
      "inputs": [
        {
          "internalType": "uint256",
          "name": "seatId",
          "type": "uint256"
        },
        {
          "internalType": "address",
          "name": "winner",
          "type": "address"
        }
      ],
      "name": "registerWinner",
      "outputs": [],
      "stateMutability": "nonpayable",
      "type": "function"
    },
    {
      "inputs": [],
      "name": "seat",
      "outputs": [
        {
          "internalType": "contract ISeatSBT",
          "name": "",
          "type": "address"
        }
      ],
      "stateMutability": "view",
      "type": "function"
    },
    {
      "inputs": [
        {
          "internalType": "uint256",
          "name": "",
          "type": "uint256"
        }
      ],
      "name": "seatWinner",
      "outputs": [
        {
          "internalType": "address",
          "name": "",
          "type": "address"
        }
      ],
      "stateMutability": "view",
      "type": "function"
    }
  ],
  "bytecode": "0x60c060405234801561001057600080fd5b506040516103d73803806103d783398101604081905261002f91610044565b336080526001600160a01b031660a052610074565b60006020828403121561005657600080fd5b81516001600160a01b038116811461006d57600080fd5b9392505050565b60805160a0516103326100a56000396000818160ce015261017301526000818160f501526101de01526103326000f3fe608060405234801561001057600080fd5b50600436106100575760003560e01c806305261aea1461005c57806352c4cdae146100715780636bc124d1146100b65780637bf6df91146100c9578063f851a440146100f0575b600080fd5b61006f61006a3660046102a7565b610117565b005b61009a61007f3660046102a7565b6000602081905290815260409020546001600160a01b031681565b6040516001600160a01b03909116815260200160405180910390f35b61006f6100c43660046102c0565b6101d3565b61009a7f000000000000000000000000000000000000000000000000000000000000000081565b61009a7f000000000000000000000000000000000000000000000000000000000000000081565b6000818152602081905260409020546001600160a01b03168061014d5760405163aa61f68360e01b815260040160405180910390fd5b6040516321528ce760e01b81526001600160a01b038281166004830152602482018490527f000000000000000000000000000000000000000000000000000000000000000016906321528ce790604401600060405180830381600087803b1580156101b757600080fd5b505af11580156101cb573d6000803e3d6000fd5b505050505050565b336001600160a01b037f0000000000000000000000000000000000000000000000000000000000000000161461021c57604051636209c08b60e01b815260040160405180910390fd5b6000828152602081905260409020546001600160a01b03161561025257604051633c36b6cd60e21b815260040160405180910390fd5b6001600160a01b0381166102795760405163aa61f68360e01b815260040160405180910390fd5b60009182526020829052604090912080546001600160a01b0319166001600160a01b03909216919091179055565b6000602082840312156102b957600080fd5b5035919050565b600080604083850312156102d357600080fd5b8235915060208301356001600160a01b03811681146102f157600080fd5b80915050925092905056fea264697066735822122049140630995f9682d0f17a6e5cff2baa3ca32b6bbcb0d8a3b20b851d3101784e64736f6c63430008180033",
  "linkReferences": {},
  "deployedLinkReferences": {}
}