{
  "_format": "hh-sol-artifact-1",
  "contractName": "ElectionRegistry",
  "sourceName": "contracts/ElectionRegistry.sol",
  "abi": [
    {
      "inputs": [
        {
          "internalType": "address",
          "name": "seat_",
          "type": "address"
        }
      ],
      "stateMutability": "nonpayable",
      "type": "constructor"
    },
    {
      "inputs": [],
      "name": "INVALID_WINNER",
      "type": "error"
    },
    {
      "inputs": [],
      "name": "NOT_ADMIN",
      "type": "error"
    },
    {
      "inputs": [],
      "name": "WINNER_ALREADY_SET",
      "type": "error"
    },
    {
      "inputs": [],
      "name": "admin",
      "outputs": [
        {
          "internalType": "address",
          "name": "",
          "type": "address"
        }
      ],
      "stateMutability": "view",
      "type": "function"
    },
    {
      "inputs": [
        {
          "internalType": "uint256",
          "name": "positionId",
          "type": "uint256"
        }
      ],
      "name": "finalize",
      "outputs": [],
      "stateMutability": "nonpayable",
      "type": "function"
    },
    {
      "inputs": [
        {
          "internalType": "uint256",
          "name": "positionId",
          "type": "uint256"
        },
        {
          "internalType": "address",
          "name": "winner",
          "type": "address"
        }
      ],
      "name": "registerWinner",
      "outputs": [],
      "stateMutability": "nonpayable",
      "type": "function"
    },
    {
      "inputs": [],
      "name": "seat",
      "outputs": [
        {
          "internalType": "contract ISeatSBT",
          "name": "",
          "type": "address"
        }
      ],
      "stateMutability": "view",
      "type": "function"
    },
    {
      "inputs": [
        {
          "internalType": "uint256",
          "name": "",
          "type": "uint256"
        }
      ],
      "name": "winnerOf",
      "outputs": [
        {
          "internalType": "address",
          "name": "",
          "type": "address"
        }
      ],
      "stateMutability": "view",
      "type": "function"
    }
  ],
  "bytecode": "0x60c03461008c57601f6103e838819003918201601f19168301916001600160401b038311848410176100915780849260209460405283398101031261008c57516001600160a01b0381169081900361008c573360805260a05260405161034090816100a88239608051818181606f0152818161014c01526101fb015260a05181818160ec01526102550152f35b600080fd5b634e487b7160e01b600052604160045260246000fdfe608060408181526004918236101561001657600080fd5b600092833560e01c91826305261aea146101da575081636bc124d11461011b5781637bf6df91146100d75781638cb5d700146100a2575063f851a4401461005c57600080fd5b3461009e578160031936011261009e57517f00000000000000000000000000000000000000000000000000000000000000006001600160a01b03168152602090f35b5080fd5b9050346100d35760203660031901126100d3573582526020828152918190205490516001600160a01b039091168152f35b8280fd5b50503461009e578160031936011261009e57517f00000000000000000000000000000000000000000000000000000000000000006001600160a01b03168152602090f35b919050346100d357806003193601126100d3576001600160a01b036024358181169380359290918590036101d657807f00000000000000000000000000000000000000000000000000000000000000001633036101c7578286528560205283862054166101b95783156101ab57508352826020528220906bffffffffffffffffffffffff60a01b82541617905580f35b825163aa61f68360e01b8152fd5b8251633c36b6cd60e21b8152fd5b508251636209c08b60e01b8152fd5b8580fd5b849184346103065760209283600319360112610302576001600160a01b03907f0000000000000000000000000000000000000000000000000000000000000000821633036102f457508235855284845280828620541680156102e55782916024869288969551968793849263308db52d60e11b8452888401527f0000000000000000000000000000000000000000000000000000000000000000165af19081156102dc5750610287578380f35b82903d84116102d4575b601f19601f830116830167ffffffffffffffff8482109111176102c15750810103126102be578180808380f35b80fd5b634e487b7160e01b855260419052602484fd5b3d9150610291565b513d86823e3d90fd5b50505163aa61f68360e01b8152fd5b636209c08b60e01b81528390fd5b8480fd5b8380fdfea26469706673582212201df32f9c4abb300b9a7a0da981b301070b67019c85278f0d951469024537ff1064736f6c63430008180033",
  "linkReferences": {},
  "deployedLinkReferences": {}
}