{
  "_format": "hh-sol-artifact-1",
  "contractName": "ElectionRegistry",
  "sourceName": "contracts/ElectionRegistry.sol",
  "abi": [
    {
      "inputs": [
        {
          "internalType": "address",
          "name": "seat_",
          "type": "address"
        }
      ],
      "stateMutability": "nonpayable",
      "type": "constructor"
    },
    {
      "inputs": [],
      "name": "INVALID_WINNER",
      "type": "error"
    },
    {
      "inputs": [],
      "name": "NOT_ADMIN",
      "type": "error"
    },
    {
      "inputs": [],
      "name": "WINNER_ALREADY_SET",
      "type": "error"
    },
    {
      "inputs": [],
      "name": "admin",
      "outputs": [
        {
          "internalType": "address",
          "name": "",
          "type": "address"
        }
      ],
      "stateMutability": "view",
      "type": "function"
    },
    {
      "inputs": [
        {
          "internalType": "uint256",
          "name": "positionId",
          "type": "uint256"
        }
      ],
      "name": "finalize",
      "outputs": [],
      "stateMutability": "nonpayable",
      "type": "function"
    },
    {
      "inputs": [
        {
          "internalType": "uint256",
          "name": "positionId",
          "type": "uint256"
        },
        {
          "internalType": "address",
          "name": "winner",
          "type": "address"
        }
      ],
      "name": "registerWinner",
      "outputs": [],
      "stateMutability": "nonpayable",
      "type": "function"
    },
    {
      "inputs": [],
      "name": "seat",
      "outputs": [
        {
          "internalType": "contract ISeatSBT",
          "name": "",
          "type": "address"
        }
      ],
      "stateMutability": "view",
      "type": "function"
    },
    {
      "inputs": [
        {
          "internalType": "uint256",
          "name": "",
          "type": "uint256"
        }
      ],
      "name": "winnerOf",
      "outputs": [
        {
          "internalType": "address",
          "name": "",
          "type": "address"
        }
      ],
      "stateMutability": "view",
      "type": "function"
    }
  ],
  "bytecode": "0x60c060405234801561001057600080fd5b5060405161044b38038061044b83398101604081905261002f91610044565b336080526001600160a01b031660a052610074565b60006020828403121561005657600080fd5b81516001600160a01b038116811461006d57600080fd5b9392505050565b60805160a05161039f6100ac60003960008181608901526101b501526000818160f5015281816101220152610232015261039f6000f3fe608060405234801561001057600080fd5b50600436106100575760003560e01c806305261aea1461005c5780636bc124d1146100715780637bf6df91146100845780638cb5d700146100c7578063f851a440146100f0575b600080fd5b61006f61006a3660046102fb565b610117565b005b61006f61007f366004610314565b610227565b6100ab7f000000000000000000000000000000000000000000000000000000000000000081565b6040516001600160a01b03909116815260200160405180910390f35b6100ab6100d53660046102fb565b6000602081905290815260409020546001600160a01b031681565b6100ab7f000000000000000000000000000000000000000000000000000000000000000081565b336001600160a01b037f0000000000000000000000000000000000000000000000000000000000000000161461016057604051636209c08b60e01b815260040160405180910390fd5b6000818152602081905260409020546001600160a01b0316806101965760405163aa61f68360e01b815260040160405180910390fd5b60405163308db52d60e11b81526001600160a01b0382811660048301527f0000000000000000000000000000000000000000000000000000000000000000169063611b6a5a906024016020604051808303816000875af11580156101fe573d6000803e3d6000fd5b505050506040513d601f19601f820116820180604052508101906102229190610350565b505050565b336001600160a01b037f0000000000000000000000000000000000000000000000000000000000000000161461027057604051636209c08b60e01b815260040160405180910390fd5b6000828152602081905260409020546001600160a01b0316156102a657604051633c36b6cd60e21b815260040160405180910390fd5b6001600160a01b0381166102cd5760405163aa61f68360e01b815260040160405180910390fd5b60009182526020829052604090912080546001600160a01b0319166001600160a01b03909216919091179055565b60006020828403121561030d57600080fd5b5035919050565b6000806040838503121561032757600080fd5b8235915060208301356001600160a01b038116811461034557600080fd5b809150509250929050565b60006020828403121561036257600080fd5b505191905056fea2646970667358221220da173bfa339606392af9aad9da337a0c95002f6757f77c735ac99e2f34c6b3e464736f6c63430008180033",
  "linkReferences": {},
  "deployedLinkReferences": {}
}