{
  "_format": "hh-sol-artifact-1",
  "contractName": "LawRegistry",
  "sourceName": "contracts/LawRegistry.sol",
  "abi": [
    {
      "inputs": [
        {
          "internalType": "address",
          "name": "_authority",
          "type": "address"
        }
      ],
      "stateMutability": "nonpayable",
      "type": "constructor"
    },
    {
      "inputs": [],
      "name": "InvalidInput",
      "type": "error"
    },
    {
      "inputs": [],
      "name": "LawNotFound",
      "type": "error"
    },
    {
      "inputs": [],
      "name": "NotAuthorized",
      "type": "error"
    },
    {
      "inputs": [],
      "name": "VersionNotFound",
      "type": "error"
    },
    {
      "anonymous": false,
      "inputs": [
        {
          "indexed": true,
          "internalType": "uint256",
          "name": "lawId",
          "type": "uint256"
        },
        {
          "indexed": false,
          "internalType": "string",
          "name": "title",
          "type": "string"
        }
      ],
      "name": "LawCreated",
      "type": "event"
    },
    {
      "anonymous": false,
      "inputs": [
        {
          "indexed": true,
          "internalType": "uint256",
          "name": "lawId",
          "type": "uint256"
        }
      ],
      "name": "LawRepealed",
      "type": "event"
    },
    {
      "anonymous": false,
      "inputs": [
        {
          "indexed": true,
          "internalType": "uint256",
          "name": "lawId",
          "type": "uint256"
        },
        {
          "indexed": true,
          "internalType": "uint256",
          "name": "version",
          "type": "uint256"
        }
      ],
      "name": "LawVersionActivated",
      "type": "event"
    },
    {
      "anonymous": false,
      "inputs": [
        {
          "indexed": true,
          "internalType": "uint256",
          "name": "lawId",
          "type": "uint256"
        },
        {
          "indexed": true,
          "internalType": "uint256",
          "name": "version",
          "type": "uint256"
        },
        {
          "indexed": false,
          "internalType": "bytes32",
          "name": "contentHash",
          "type": "bytes32"
        },
        {
          "indexed": false,
          "internalType": "string",
          "name": "uri",
          "type": "string"
        }
      ],
      "name": "LawVersionAdded",
      "type": "event"
    },
    {
      "inputs": [
        {
          "internalType": "uint256",
          "name": "lawId",
          "type": "uint256"
        },
        {
          "internalType": "uint256",
          "name": "version",
          "type": "uint256"
        }
      ],
      "name": "activateVersion",
      "outputs": [],
      "stateMutability": "nonpayable",
      "type": "function"
    },
    {
      "inputs": [
        {
          "internalType": "uint256",
          "name": "lawId",
          "type": "uint256"
        },
        {
          "internalType": "bytes32",
          "name": "contentHash",
          "type": "bytes32"
        },
        {
          "internalType": "string",
          "name": "uri",
          "type": "string"
        }
      ],
      "name": "addVersion",
      "outputs": [],
      "stateMutability": "nonpayable",
      "type": "function"
    },
    {
      "inputs": [],
      "name": "authority",
      "outputs": [
        {
          "internalType": "address",
          "name": "",
          "type": "address"
        }
      ],
      "stateMutability": "view",
      "type": "function"
    },
    {
      "inputs": [
        {
          "internalType": "string",
          "name": "title",
          "type": "string"
        }
      ],
      "name": "createLaw",
      "outputs": [
        {
          "internalType": "uint256",
          "name": "lawId",
          "type": "uint256"
        }
      ],
      "stateMutability": "nonpayable",
      "type": "function"
    },
    {
      "inputs": [
        {
          "internalType": "uint256",
          "name": "lawId",
          "type": "uint256"
        }
      ],
      "name": "getActiveVersion",
      "outputs": [
        {
          "components": [
            {
              "internalType": "bytes32",
              "name": "contentHash",
              "type": "bytes32"
            },
            {
              "internalType": "string",
              "name": "uri",
              "type": "string"
            },
            {
              "internalType": "uint64",
              "name": "timestamp",
              "type": "uint64"
            },
            {
              "internalType": "bool",
              "name": "exists",
              "type": "bool"
            }
          ],
          "internalType": "struct LawRegistry.Version",
          "name": "",
          "type": "tuple"
        }
      ],
      "stateMutability": "view",
      "type": "function"
    },
    {
      "inputs": [],
      "name": "lawCount",
      "outputs": [
        {
          "internalType": "uint256",
          "name": "",
          "type": "uint256"
        }
      ],
      "stateMutability": "view",
      "type": "function"
    },
    {
      "inputs": [
        {
          "internalType": "uint256",
          "name": "",
          "type": "uint256"
        }
      ],
      "name": "laws",
      "outputs": [
        {
          "internalType": "string",
          "name": "title",
          "type": "string"
        },
        {
          "internalType": "bool",
          "name": "exists",
          "type": "bool"
        },
        {
          "internalType": "bool",
          "name": "repealed",
          "type": "bool"
        },
        {
          "internalType": "uint256",
          "name": "latestVersion",
          "type": "uint256"
        },
        {
          "internalType": "uint256",
          "name": "activeVersion",
          "type": "uint256"
        }
      ],
      "stateMutability": "view",
      "type": "function"
    },
    {
      "inputs": [
        {
          "internalType": "uint256",
          "name": "lawId",
          "type": "uint256"
        }
      ],
      "name": "repealLaw",
      "outputs": [],
      "stateMutability": "nonpayable",
      "type": "function"
    },
    {
      "inputs": [
        {
          "internalType": "address",
          "name": "_authority",
          "type": "address"
        }
      ],
      "name": "setAuthority",
      "outputs": [],
      "stateMutability": "nonpayable",
      "type": "function"
    },
    {
      "inputs": [
        {
          "internalType": "uint256",
          "name": "",
          "type": "uint256"
        },
        {
          "internalType": "uint256",
          "name": "",
          "type": "uint256"
        }
      ],
      "name": "versions",
      "outputs": [
        {
          "internalType": "bytes32",
          "name": "contentHash",
          "type": "bytes32"
        },
        {
          "internalType": "string",
          "name": "uri",
          "type": "string"
        },
        {
          "internalType": "uint64",
          "name": "timestamp",
          "type": "uint64"
        },
        {
          "internalType": "bool",
          "name": "exists",
          "type": "bool"
        }
      ],
      "stateMutability": "view",
      "type": "function"
    }
  ],
  "bytecode": "0x60803461008c57601f610d7938819003918201601f19168301916001600160401b038311848410176100915780849260209460405283398101031261008c57516001600160a01b0381169081900361008c57801561007a57600080546001600160a01b031916919091179055604051610cd190816100a88239f35b60405163b4fa3fb360e01b8152600490fd5b600080fd5b634e487b7160e01b600052604160045260246000fdfe60808060405260048036101561001457600080fd5b60003560e01c91826352e575f2146109c2575081636ecec5ea146106b25781637a9e5e4b146106595781637ebdee0d146105e25781638eb4d2a5146104d3578163a17590aa14610222578163a3a7bf411461015457508063bf7e214f1461012b578063c37d1d921461010d5763c97fddbd1461008f57600080fd5b346101085761009d36610bf8565b9060005260036020526040600020906000526020526040600020805460026100c760018401610b13565b92015460ff6100e86040519485948552608060208601526080850190610bb8565b9167ffffffffffffffff8116604085015260401c16151560608301520390f35b600080fd5b34610108576000366003190112610108576020600154604051908152f35b34610108576000366003190112610108576000546040516001600160a01b039091168152602090f35b346101085761016236610bf8565b6000549092906001600160a01b031633036102135781600052600260205260ff60016040600020015416156102045781600052600360205260406000208360005260205260ff60026040600020015460401c16156101f55750806000526002602052816003604060002001557f1097d040138f831995dbb8a7326df5f35a4555acb79b358211acfae816511def600080a3005b60405163392d164960e01b8152fd5b6040516318cdb89560e01b8152fd5b60405163ea8e4eb560e01b8152fd5b346101085760203660031901126101085767ffffffffffffffff8135818111610108576102529036908401610a57565b6000549193916001600160a01b031633036104c35780156104b357610278600154610c0e565b92836001556040519060a082018281108282111761049e5760405261029e368488610c33565b8252602082016001815260408301600081526060840192600084526080850196600088528860005260026020526040600020955190815192831161048957506102e78654610a85565b601f8111610441575b5091602099959391899795938b90601f83116001146103aa57918060039694927f306b38a74bb75d01b2ad9d87271f272c1b1cb0b3aaae0a841940767b505a6c7f9b9c969460009261039f575b50508160011b9160001990881b1c19161786555b60018601915115159060ff61ff0084549251151560081b1692169061ffff1916171790555160028401555191015561039460405192839288845288840191610c7a565b0390a2604051908152f35b015190508e8061033d565b999493929190866000528c6000209a60005b601f19841681106104275750917f306b38a74bb75d01b2ad9d87271f272c1b1cb0b3aaae0a841940767b505a6c7f9a9b6001926003989796959483601f1981161061040f575b505050811b018655610351565b0151600019838a1b60f8161c191690558e8080610402565b828201518d556001909c019b8d9b50918e01918e016103bc565b866000526020600020601f840160051c8101916020851061047f575b601f0160051c01905b81811061047357506102f0565b60008155600101610466565b909150819061045d565b604190634e487b7160e01b6000525260246000fd5b604185634e487b7160e01b6000525260246000fd5b5060405163b4fa3fb360e01b8152fd5b5060405163ea8e4eb560e01b8152fd5b346101085760209081600319360112610108578035600060606040516104f881610abf565b82815281868201528260408201520152806000526002835260ff60016040600020015416156105d25780600052600283526003604060002001549182156101f5575060005260038252604060002090600052815260406000206040519061055e82610abf565b80548252600261057060018301610b13565b91848401928352015467ffffffffffffffff6105be6040850193828416855260ff606087019460401c16151584526040519687968188525190870152516080604087015260a0860190610bb8565b925116606084015251151560808301520390f35b506040516318cdb89560e01b8152fd5b3461010857602036600319011261010857356000526002602052610635604060002061060d81610b13565b90600181015490600360028201549101549060ff60405195869560a0875260a0870190610bb8565b938181161515602087015260081c1615156040850152606084015260808301520390f35b34610108576020366003190112610108576001600160a01b03813581811692908390036101085760005491821633036102135782156106a357506001600160a01b03191617600055005b60405163b4fa3fb360e01b8152fd5b346101085760603660031901126101085760443567ffffffffffffffff8111610108576106e29036908301610a57565b6000546001600160a01b031633036109b1578235600052600260205260ff60016040600020015416156109a0576024351561098f5782356000526002602052604060002060ff600182015460081c1661097e57600201916107438354610c0e565b8093556040519361075385610abf565b6024358552610763368484610c33565b946020810195865267ffffffffffffffff421660408201526001606082015281356000526003602052604060002085600052602052604060002095815187555195865167ffffffffffffffff8111610969576107c26001830154610a85565b601f8111610922575b506020601f821160011461088d579080600293927f54e56fc0a8b5b3a99c1c256b39251f7a8ed1809d0760a938f7be5caada49cda398999a600092610882575b50508160011b916000199060031b1c19161760018201555b019067ffffffffffffffff60408201511668ff000000000000000060608454930151151560401b169168ffffffffffffffffff19161717905561087d60405192839260243584526040602085015235956040840191610c7a565b0390a3005b015190508a8061080b565b6001830160005260206000209860005b601f198416811061090a5750917f54e56fc0a8b5b3a99c1c256b39251f7a8ed1809d0760a938f7be5caada49cda39798996001926002959483601f198116106108f1575b505050811b016001820155610823565b015160001960f88460031b161c191690558a80806108e1565b828201518b556001909a01996020928301920161089d565b600183016000526020600020601f830160051c810160208410610962575b601f830160051c820181106109565750506107cb565b60008155600101610940565b5080610940565b604184634e487b7160e01b6000525260246000fd5b60405163b4fa3fb360e01b81528490fd5b60405163b4fa3fb360e01b81528390fd5b6040516318cdb89560e01b81528390fd5b60405163ea8e4eb560e01b81528390fd5b903461010857602036600319011261010857600054813592906001600160a01b03163303610a4b575081600052600260205260ff60016040600020015416156102045750806000526002602052600160406000200161010061ff00198254161790557fba08eac850036499d28a5d35e8c77eceee42bde4ebeaddb25c5d5b86c3250e31600080a2005b63ea8e4eb560e01b8152fd5b9181601f840112156101085782359167ffffffffffffffff8311610108576020838186019501011161010857565b90600182811c92168015610ab5575b6020831014610a9f57565b634e487b7160e01b600052602260045260246000fd5b91607f1691610a94565b6080810190811067ffffffffffffffff821117610adb57604052565b634e487b7160e01b600052604160045260246000fd5b90601f8019910116810190811067ffffffffffffffff821117610adb57604052565b90604051918260008254610b2681610a85565b90818452602094600191600181169081600014610b965750600114610b57575b505050610b5592500383610af1565b565b600090815285812095935091905b818310610b7e575050610b559350820101388080610b46565b85548884018501529485019487945091830191610b65565b92505050610b5594925060ff191682840152151560051b820101388080610b46565b919082519283825260005b848110610be4575050826000602080949584010152601f8019910116010190565b602081830181015184830182015201610bc3565b6040906003190112610108576004359060243590565b6000198114610c1d5760010190565b634e487b7160e01b600052601160045260246000fd5b92919267ffffffffffffffff8211610adb5760405191610c5d601f8201601f191660200184610af1565b829481845281830111610108578281602093846000960137010152565b908060209392818452848401376000828201840152601f01601f191601019056fea264697066735822122054fa6c97c342a1f23d450808c52d93c49b0ab0ad25dfcaa70f25ca0700fab77464736f6c63430008180033",
  "linkReferences": {},
  "deployedLinkReferences": {}
}