{
  "_format": "hh-sol-artifact-1",
  "contractName": "SeatSBT",
  "sourceName": "contracts/SeatSBT.sol",
  "abi": [
    {
      "inputs": [],
      "stateMutability": "nonpayable",
      "type": "constructor"
    },
    {
      "inputs": [],
      "name": "NOT_AUTHORITY",
      "type": "error"
    },
    {
      "inputs": [],
      "name": "SEAT_EXISTS",
      "type": "error"
    },
    {
      "inputs": [],
      "name": "SEAT_NOT_MINTED",
      "type": "error"
    },
    {
      "inputs": [],
      "name": "authority",
      "outputs": [
        {
          "internalType": "address",
          "name": "",
          "type": "address"
        }
      ],
      "stateMutability": "view",
      "type": "function"
    },
    {
      "inputs": [
        {
          "internalType": "address",
          "name": "to",
          "type": "address"
        },
        {
          "internalType": "uint256",
          "name": "seatId",
          "type": "uint256"
        }
      ],
      "name": "mintSeat",
      "outputs": [],
      "stateMutability": "nonpayable",
      "type": "function"
    },
    {
      "inputs": [
        {
          "internalType": "uint256",
          "name": "seatId",
          "type": "uint256"
        }
      ],
      "name": "ownerOf",
      "outputs": [
        {
          "internalType": "address",
          "name": "",
          "type": "address"
        }
      ],
      "stateMutability": "view",
      "type": "function"
    }
  ],
  "bytecode": "0x60a060405234801561001057600080fd5b503373ffffffffffffffffffffffffffffffffffffffff1660808173ffffffffffffffffffffffffffffffffffffffff16815250506080516104536100666000396000818160b201526102cb01526104536000f3fe608060405234801561001057600080fd5b50600436106100415760003560e01c806321528ce7146100465780636352211e14610062578063bf7e214f14610092575b600080fd5b610060600480360381019061005b9190610386565b6100b0565b005b61007c600480360381019061007791906103c6565b610222565b6040516100899190610402565b60405180910390f35b61009a6102c9565b6040516100a79190610402565b60405180910390f35b7f000000000000000000000000000000000000000000000000000000000000000073ffffffffffffffffffffffffffffffffffffffff163373ffffffffffffffffffffffffffffffffffffffff1614610135576040517fc18fdad500000000000000000000000000000000000000000000000000000000815260040160405180910390fd5b600073ffffffffffffffffffffffffffffffffffffffff1660008083815260200190815260200160002060009054906101000a900473ffffffffffffffffffffffffffffffffffffffff1673ffffffffffffffffffffffffffffffffffffffff16146101cd576040517fdcc6e6c000000000000000000000000000000000000000000000000000000000815260040160405180910390fd5b8160008083815260200190815260200160002060006101000a81548173ffffffffffffffffffffffffffffffffffffffff021916908373ffffffffffffffffffffffffffffffffffffffff1602179055505050565b60008060008084815260200190815260200160002060009054906101000a900473ffffffffffffffffffffffffffffffffffffffff169050600073ffffffffffffffffffffffffffffffffffffffff168173ffffffffffffffffffffffffffffffffffffffff16036102c0576040517f7d8fbf6800000000000000000000000000000000000000000000000000000000815260040160405180910390fd5b80915050919050565b7f000000000000000000000000000000000000000000000000000000000000000081565b600080fd5b600073ffffffffffffffffffffffffffffffffffffffff82169050919050565b600061031d826102f2565b9050919050565b61032d81610312565b811461033857600080fd5b50565b60008135905061034a81610324565b92915050565b6000819050919050565b61036381610350565b811461036e57600080fd5b50565b6000813590506103808161035a565b92915050565b6000806040838503121561039d5761039c6102ed565b5b60006103ab8582860161033b565b92505060206103bc85828601610371565b9150509250929050565b6000602082840312156103dc576103db6102ed565b5b60006103ea84828501610371565b91505092915050565b6103fc81610312565b82525050565b600060208201905061041760008301846103f3565b9291505056fea26469706673582212209d54429b1e7415b4033d982acc4e81b78b4f49b444a007b40ae675c9c37b58dd64736f6c63430008180033",
  "linkReferences": {},
  "deployedLinkReferences": {}
}