{
  "_format": "hh-sol-artifact-1",
  "contractName": "SeatTamgaFactory",
  "sourceName": "contracts/SeatTamga.sol",
  "abi": [
    {
      "inputs": [
        {
          "internalType": "address",
          "name": "_seatSbt",
          "type": "address"
        }
      ],
      "stateMutability": "nonpayable",
      "type": "constructor"
    },
    {
      "anonymous": false,
      "inputs": [
        {
          "indexed": true,
          "internalType": "uint256",
          "name": "seatId",
          "type": "uint256"
        },
        {
          "indexed": false,
          "internalType": "address",
          "name": "tamga",
          "type": "address"
        },
        {
          "indexed": false,
          "internalType": "address",
          "name": "controller",
          "type": "address"
        },
        {
          "indexed": false,
          "internalType": "bytes32",
          "name": "salt",
          "type": "bytes32"
        }
      ],
      "name": "TamgaCreated",
      "type": "event"
    },
    {
      "inputs": [
        {
          "internalType": "uint256",
          "name": "seatId",
          "type": "uint256"
        },
        {
          "internalType": "address",
          "name": "controller",
          "type": "address"
        },
        {
          "internalType": "bytes32",
          "name": "salt",
          "type": "bytes32"
        }
      ],
      "name": "createTamga",
      "outputs": [
        {
          "internalType": "address",
          "name": "tamga",
          "type": "address"
        }
      ],
      "stateMutability": "nonpayable",
      "type": "function"
    },
    {
      "inputs": [
        {
          "internalType": "uint256",
          "name": "seatId",
          "type": "uint256"
        },
        {
          "internalType": "address",
          "name": "controller",
          "type": "address"
        },
        {
          "internalType": "bytes32",
          "name": "salt",
          "type": "bytes32"
        }
      ],
      "name": "predictAddress",
      "outputs": [
        {
          "internalType": "address",
          "name": "",
          "type": "address"
        }
      ],
      "stateMutability": "view",
      "type": "function"
    },
    {
      "inputs": [],
      "name": "seatSbt",
      "outputs": [
        {
          "internalType": "address",
          "name": "",
          "type": "address"
        }
      ],
      "stateMutability": "view",
      "type": "function"
    }
  ],
  "bytecode": "0x60a060405234801561001057600080fd5b50604051610b71380380610b7183398101604081905261002f91610040565b6001600160a01b0316608052610070565b60006020828403121561005257600080fd5b81516001600160a01b038116811461006957600080fd5b9392505050565b608051610ada61009760003960008181604b0152818160e201526101d80152610ada6000f3fe608060405234801561001057600080fd5b50600436106100415760003560e01c8063388841b1146100465780637917fee814610089578063d65601be1461009c575b600080fd5b61006d7f000000000000000000000000000000000000000000000000000000000000000081565b6040516001600160a01b03909116815260200160405180910390f35b61006d6100973660046102b5565b6100af565b61006d6100aa3660046102b5565b6101a5565b600080604051806020016100c2906102a8565b818103601f199081018352601f9091011660408181526001600160a01b037f0000000000000000000000000000000000000000000000000000000000000000811660208401529082018890528616606082015260800160408051601f19818403018152908290526101369291602001610329565b60408051808303601f1901815282825280516020918201206001600160f81b0319828501523060601b6bffffffffffffffffffffffff19166021850152603584019690965260558084019690965281518084039096018652607590920190528351930192909220949350505050565b600080604051806020016101b8906102a8565b818103601f199081018352601f9091011660408181526001600160a01b037f0000000000000000000000000000000000000000000000000000000000000000811660208401529082018890528616606082015260800160408051601f198184030181529082905261022c9291602001610329565b6040516020818303038152906040529050828151602083016000f591508161025357600080fd5b604080516001600160a01b0380851682528616602082015290810184905285907f698e7b5d3f38252add813577134f9d5dcc26747fe244b5d1536455dd89c80ba49060600160405180910390a2509392505050565b61075e8061034783390190565b6000806000606084860312156102ca57600080fd5b8335925060208401356001600160a01b03811681146102e857600080fd5b929592945050506040919091013590565b6000815160005b8181101561031a5760208185018101518683015201610300565b50600093019283525090919050565b600061033e61033883866102f9565b846102f9565b94935050505056fe60c060405234801561001057600080fd5b5060405161075e38038061075e83398101604081905261002f91610079565b6001600160a01b0392831660805260a091909152600080546001600160a01b031916919092161790556100b5565b80516001600160a01b038116811461007457600080fd5b919050565b60008060006060848603121561008e57600080fd5b6100978461005d565b9250602084015191506100ac6040850161005d565b90509250925092565b60805160a05161066a6100f46000396000818160df0152818161016b015261027e015260008181606c0152818161019401526102b2015261066a6000f3fe60806040526004361061004e5760003560e01c8063388841b11461005a57806392eefe9b146100ab578063aaf34377146100cd578063b61d27f61461010f578063f77c47911461013c57600080fd5b3661005557005b600080fd5b34801561006657600080fd5b5061008e7f000000000000000000000000000000000000000000000000000000000000000081565b6040516001600160a01b0390911681526020015b60405180910390f35b3480156100b757600080fd5b506100cb6100c63660046104fe565b61015c565b005b3480156100d957600080fd5b506101017f000000000000000000000000000000000000000000000000000000000000000081565b6040519081526020016100a2565b34801561011b57600080fd5b5061012f61012a36600461051b565b61026f565b6040516100a291906105c8565b34801561014857600080fd5b5060005461008e906001600160a01b031681565b6040516331a9108f60e11b81527f000000000000000000000000000000000000000000000000000000000000000060048201526000907f00000000000000000000000000000000000000000000000000000000000000006001600160a01b031690636352211e90602401602060405180830381865afa1580156101e3573d6000803e3d6000fd5b505050506040513d601f19601f8201168201806040525081019061020791906105fb565b6000549091506001600160a01b0316331480159061022e5750336001600160a01b03821614155b1561024c5760405163ea8e4eb560e01b815260040160405180910390fd5b50600080546001600160a01b0319166001600160a01b0392909216919091179055565b6040516331a9108f60e11b81527f000000000000000000000000000000000000000000000000000000000000000060048201526060906000906001600160a01b037f00000000000000000000000000000000000000000000000000000000000000001690636352211e90602401602060405180830381865afa1580156102f9573d6000803e3d6000fd5b505050506040513d601f19601f8201168201806040525081019061031d91906105fb565b6000549091506001600160a01b031633148015906103445750336001600160a01b03821614155b156103625760405163ea8e4eb560e01b815260040160405180910390fd5b6103ad84848080601f01602080910402602001604051908101604052809392919081815260200183838082843760009201919091525050506001600160a01b038916919050876103b7565b9695505050505050565b6060814710156103e85760405163cf47918160e01b8152476004820152602481018390526044015b60405180910390fd5b600080856001600160a01b031684866040516104049190610618565b60006040518083038185875af1925050503d8060008114610441576040519150601f19603f3d011682016040523d82523d6000602084013e610446565b606091505b5091509150610456868383610462565b925050505b9392505050565b60608261047757610472826104be565b61045b565b815115801561048e57506001600160a01b0384163b155b156104b757604051639996b31560e01b81526001600160a01b03851660048201526024016103df565b508061045b565b8051156104cd57805160208201fd5b60405163d6bda27560e01b815260040160405180910390fd5b50565b6001600160a01b03811681146104e657600080fd5b60006020828403121561051057600080fd5b813561045b816104e9565b6000806000806060858703121561053157600080fd5b843561053c816104e9565b935060208501359250604085013567ffffffffffffffff8082111561056057600080fd5b818701915087601f83011261057457600080fd5b81358181111561058357600080fd5b88602082850101111561059557600080fd5b95989497505060200194505050565b60005b838110156105bf5781810151838201526020016105a7565b50506000910152565b60208152600082518060208401526105e78160408501602087016105a4565b601f01601f19169190910160400192915050565b60006020828403121561060d57600080fd5b815161045b816104e9565b6000825161062a8184602087016105a4565b919091019291505056fea26469706673582212200ab05316b734a5aaca90717bf15869089bdb2d685539bb7e8823bd2823fa993f64736f6c63430008180033a264697066735822122096d8d8b62081181faa3aeaf51b69f6ec5aaec9ae08cb85456e0886e1af313a1564736f6c63430008180033",
  "linkReferences": {},
  "deployedLinkReferences": {}
}