{
  "_format": "hh-sol-artifact-1",
  "contractName": "KhuralLawProcess",
  "sourceName": "contracts/KhuralLawProcess.sol",
  "abi": [
    {
      "inputs": [
        {
          "internalType": "address",
          "name": "_tumenAuth",
          "type": "address"
        },
        {
          "internalType": "address",
          "name": "_lawRegistry",
          "type": "address"
        },
        {
          "internalType": "uint32",
          "name": "_quorum",
          "type": "uint32"
        },
        {
          "internalType": "uint32",
          "name": "_superMajorityBps",
          "type": "uint32"
        },
        {
          "internalType": "uint64",
          "name": "_timelockSeconds",
          "type": "uint64"
        }
      ],
      "stateMutability": "nonpayable",
      "type": "constructor"
    },
    {
      "inputs": [],
      "name": "AlreadyExecuted",
      "type": "error"
    },
    {
      "inputs": [],
      "name": "AlreadyVoted",
      "type": "error"
    },
    {
      "inputs": [],
      "name": "InvalidInput",
      "type": "error"
    },
    {
      "inputs": [],
      "name": "NotExecutable",
      "type": "error"
    },
    {
      "inputs": [],
      "name": "NotTumenLeader",
      "type": "error"
    },
    {
      "inputs": [],
      "name": "ProposalNotFound",
      "type": "error"
    },
    {
      "anonymous": false,
      "inputs": [
        {
          "indexed": true,
          "internalType": "uint256",
          "name": "proposalId",
          "type": "uint256"
        },
        {
          "indexed": true,
          "internalType": "uint256",
          "name": "lawId",
          "type": "uint256"
        },
        {
          "indexed": false,
          "internalType": "uint256",
          "name": "activatedVersion",
          "type": "uint256"
        }
      ],
      "name": "Executed",
      "type": "event"
    },
    {
      "anonymous": false,
      "inputs": [
        {
          "indexed": true,
          "internalType": "uint256",
          "name": "proposalId",
          "type": "uint256"
        },
        {
          "indexed": true,
          "internalType": "uint256",
          "name": "lawId",
          "type": "uint256"
        },
        {
          "indexed": false,
          "internalType": "string",
          "name": "title",
          "type": "string"
        },
        {
          "indexed": false,
          "internalType": "bytes32",
          "name": "contentHash",
          "type": "bytes32"
        },
        {
          "indexed": false,
          "internalType": "string",
          "name": "uri",
          "type": "string"
        }
      ],
      "name": "ProposalCreated",
      "type": "event"
    },
    {
      "anonymous": false,
      "inputs": [
        {
          "indexed": true,
          "internalType": "uint256",
          "name": "proposalId",
          "type": "uint256"
        },
        {
          "indexed": true,
          "internalType": "address",
          "name": "voter",
          "type": "address"
        },
        {
          "indexed": false,
          "internalType": "bool",
          "name": "support",
          "type": "bool"
        }
      ],
      "name": "Voted",
      "type": "event"
    },
    {
      "inputs": [
        {
          "internalType": "uint256",
          "name": "proposalId",
          "type": "uint256"
        }
      ],
      "name": "canExecute",
      "outputs": [
        {
          "internalType": "bool",
          "name": "ok",
          "type": "bool"
        }
      ],
      "stateMutability": "view",
      "type": "function"
    },
    {
      "inputs": [
        {
          "internalType": "uint256",
          "name": "proposalId",
          "type": "uint256"
        }
      ],
      "name": "execute",
      "outputs": [],
      "stateMutability": "nonpayable",
      "type": "function"
    },
    {
      "inputs": [],
      "name": "lawRegistry",
      "outputs": [
        {
          "internalType": "contract ILawRegistry",
          "name": "",
          "type": "address"
        }
      ],
      "stateMutability": "view",
      "type": "function"
    },
    {
      "inputs": [],
      "name": "proposalCount",
      "outputs": [
        {
          "internalType": "uint256",
          "name": "",
          "type": "uint256"
        }
      ],
      "stateMutability": "view",
      "type": "function"
    },
    {
      "inputs": [
        {
          "internalType": "uint256",
          "name": "",
          "type": "uint256"
        }
      ],
      "name": "proposals",
      "outputs": [
        {
          "internalType": "uint256",
          "name": "lawId",
          "type": "uint256"
        },
        {
          "internalType": "string",
          "name": "title",
          "type": "string"
        },
        {
          "internalType": "bytes32",
          "name": "contentHash",
          "type": "bytes32"
        },
        {
          "internalType": "string",
          "name": "uri",
          "type": "string"
        },
        {
          "internalType": "uint64",
          "name": "createdAt",
          "type": "uint64"
        },
        {
          "internalType": "uint64",
          "name": "executeAfter",
          "type": "uint64"
        },
        {
          "internalType": "uint32",
          "name": "forVotes",
          "type": "uint32"
        },
        {
          "internalType": "uint32",
          "name": "againstVotes",
          "type": "uint32"
        },
        {
          "internalType": "bool",
          "name": "executed",
          "type": "bool"
        },
        {
          "internalType": "bool",
          "name": "exists",
          "type": "bool"
        }
      ],
      "stateMutability": "view",
      "type": "function"
    },
    {
      "inputs": [
        {
          "internalType": "uint256",
          "name": "lawId",
          "type": "uint256"
        },
        {
          "internalType": "bytes32",
          "name": "contentHash",
          "type": "bytes32"
        },
        {
          "internalType": "string",
          "name": "uri",
          "type": "string"
        }
      ],
      "name": "proposeAmendLaw",
      "outputs": [
        {
          "internalType": "uint256",
          "name": "pid",
          "type": "uint256"
        }
      ],
      "stateMutability": "nonpayable",
      "type": "function"
    },
    {
      "inputs": [
        {
          "internalType": "string",
          "name": "title",
          "type": "string"
        },
        {
          "internalType": "bytes32",
          "name": "contentHash",
          "type": "bytes32"
        },
        {
          "internalType": "string",
          "name": "uri",
          "type": "string"
        }
      ],
      "name": "proposeNewLaw",
      "outputs": [
        {
          "internalType": "uint256",
          "name": "pid",
          "type": "uint256"
        }
      ],
      "stateMutability": "nonpayable",
      "type": "function"
    },
    {
      "inputs": [],
      "name": "quorum",
      "outputs": [
        {
          "internalType": "uint32",
          "name": "",
          "type": "uint32"
        }
      ],
      "stateMutability": "view",
      "type": "function"
    },
    {
      "inputs": [],
      "name": "superMajorityBps",
      "outputs": [
        {
          "internalType": "uint32",
          "name": "",
          "type": "uint32"
        }
      ],
      "stateMutability": "view",
      "type": "function"
    },
    {
      "inputs": [],
      "name": "timelockSeconds",
      "outputs": [
        {
          "internalType": "uint64",
          "name": "",
          "type": "uint64"
        }
      ],
      "stateMutability": "view",
      "type": "function"
    },
    {
      "inputs": [],
      "name": "tumenAuth",
      "outputs": [
        {
          "internalType": "contract ITumenAuthority",
          "name": "",
          "type": "address"
        }
      ],
      "stateMutability": "view",
      "type": "function"
    },
    {
      "inputs": [
        {
          "internalType": "uint256",
          "name": "proposalId",
          "type": "uint256"
        },
        {
          "internalType": "bool",
          "name": "support",
          "type": "bool"
        }
      ],
      "name": "vote",
      "outputs": [],
      "stateMutability": "nonpayable",
      "type": "function"
    },
    {
      "inputs": [
        {
          "internalType": "uint256",
          "name": "",
          "type": "uint256"
        },
        {
          "internalType": "address",
          "name": "",
          "type": "address"
        }
      ],
      "name": "voted",
      "outputs": [
        {
          "internalType": "bool",
          "name": "",
          "type": "bool"
        }
      ],
      "stateMutability": "view",
      "type": "function"
    }
  ],
  "bytecode": "0x60803462000162576001600160401b0390601f6200171c38819003918201601f191683019291908484118385101762000167578160a09284926040968752833981010312620001625762000053816200017d565b9062000062602082016200017d565b936200007084830162000192565b926080620000816060850162000192565b930151918216820362000162576001600160a01b039081168015801562000157575b620001465763ffffffff91828516801590811562000139575b50620001285767ffffffff000000009495969760018060a01b031992836000541617600055169060015416176001556005549168010000000000000000600160801b0390871b1694169060018060801b031916179160201b161717600555516115779081620001a58239f35b865163b4fa3fb360e01b8152600490fd5b61271091501138620000bc565b855163b4fa3fb360e01b8152600490fd5b5081871615620000a3565b600080fd5b634e487b7160e01b600052604160045260246000fd5b51906001600160a01b03821682036200016257565b519063ffffffff82168203620001625756fe6080604052600436101561001257600080fd5b6000803560e01c8063013cf08b1461104b57806308109e3414610b835780631703a01814610b5f5780635277b4ae14610b125780635ccde30114610ae957806365a1f3c314610abf5780636bc7b7f01461059a5780636c3d9d1c1461057457806396f543e71461054d578063c9d27afe146103bb578063cc63604a14610392578063da35c664146103745763fe0d94c1146100ac57600080fd5b34610371576020806003193601126102415760043560018060a01b0360248382865416604051928380926326aab85360e21b82523360048301525afa908115610366578591610339575b50156103275781845260038352604084209260048401805460ff8160c81c16156103155760ff8160c01c166103035761012e856113a7565b156102f15760ff60c01b1916600160c01b179055835493841561026c575b8260015416866002830154823b156102415760405192839163376762f560e11b83528960048401526024830152606060448301528183816101936064820160038a0161148b565b03925af180156102615761024e575b5054610245578460ff60015b1692836101e4575b50507f3e504bb8b225ad41f613b0c3c4205cdd752d1615b4d77cd1773417282fcfb5d991604051908152a380f35b60015416803b156102415781809160446040518094819363a3a7bf4160e01b83528b60048401528960248401525af1801561023657156101b65761022790611188565b6102325784386101b6565b8480fd5b6040513d84823e3d90fd5b5080fd5b8460ff816101ae565b61025a90969196611188565b94386101a2565b6040513d89823e3d90fd5b935081600154168160405180926350bac85560e11b825282600483015281898161029c6024820160018d0161148b565b03925af19081156102e65786916102b5575b509361014c565b90508181813d83116102df575b6102cc818361119b565b810103126102db5751386102ae565b8580fd5b503d6102c2565b6040513d88823e3d90fd5b6040516323f70a7560e11b8152600490fd5b604051630dc1019760e01b8152600490fd5b60405163635e873760e01b8152600490fd5b60405163f0f9435f60e01b8152600490fd5b6103599150843d861161035f575b610351818361119b565b8101906112d3565b386100f6565b503d610347565b6040513d87823e3d90fd5b80fd5b50346103715780600319360112610371576020600254604051908152f35b50346103715760203660031901126103715760206103b16004356113a7565b6040519015158152f35b50346103715760403660031901126103715760043560243590811515918281036105495783546040516326aab85360e21b81523360048201526020918290829060249082906001600160a01b03165afa9081156102e657869161052c575b501561032757828552600381526004604086200160ff815460c81c1615610315578386526004825260408620338752825260ff60408720541661051a5783865260048252604080872033885283528620805460ff191660011790557ff2913dbe661ee2acc4a046d8fbcdc792373bda34c41c6086484b5345e5785e5f92156104de57806104b263ffffffff6104d2935460801c16611392565b815463ffffffff60801b191660809190911b63ffffffff60801b16179055565b6040519384523393a380f35b806104f563ffffffff610515935460a01c16611392565b815463ffffffff60a01b191660a09190911b63ffffffff60a01b16179055565b6104d2565b604051637c9a1cf960e01b8152600490fd5b6105439150823d841161035f57610351818361119b565b38610419565b8380fd5b5034610371578060031936011261037157546040516001600160a01b039091168152602090f35b5034610371578060031936011261037157602060055463ffffffff60405191831c168152f35b5034610371576060366003190112610371576044356001600160401b038111610241576105cb9036906004016112a1565b82546040516326aab85360e21b815233600482015290602090829060249082906001600160a01b03165afa908115610ab4578491610a95575b50156103275760043515610a835760243515610a83576106256002546112eb565b91826002556001600160401b0342169061064d6001600160401b0360055460401c1683611310565b6040519061065a82611156565b600435825260405193602085018581106001600160401b03821117610a6f57906001600160401b0392916040528886526020840195865260243560408501526106a436888761132b565b606085015260808401521660a08201528560c08201528560e08201528561010082015260016101208201528486526003602052604086209281518455518051906001600160401b038211610996578190610701600187015461111c565b601f8111610a1f575b50602090601f83116001146109b55789926109aa575b50508160011b916000199060031b1c19161760018401555b6040810151600284015560608101518051906001600160401b03821161099657610765600386015461111c565b601f8111610952575b50918791879493602099508990601f83116001146108cc57968261012093600493600080516020611522833981519152999a88926108c1575b50508160011b916000199060031b1c19161760038201555b01916001600160401b0360808201511683549067ffffffffffffffff60401b60a084015160401b16916001600160801b0319161717835561084e63ffffffff61082a8160c085015116869081549063ffffffff60801b9060801b169063ffffffff60801b1916179055565b60e0830151855463ffffffff60a01b1916911660a01b63ffffffff60a01b16178455565b610100810151835460ff60c01b191690151560c01b60ff60c01b161783550151151581549060ff60c81b9060c81b169060ff60c81b19161790556108b66040519283926060845260608401526024358984015260806040840152600435966080840191611371565b0390a3604051908152f35b0151905038806107a7565b6003889392980185528a852090855b601f19841681106109385750826101209492600080516020611522833981519152999a600193600496601f1981161061091f575b505050811b0160038201556107bf565b015160001960f88460031b161c1916905538808061090f565b818a01518355988c01988b98506001909201918c016108db565b60038601895260208920601f840160051c81016020851061098f575b601f830160051c8201811061098457505061076e565b8a815560010161096e565b508061096e565b634e487b7160e01b88526041600452602488fd5b015190503880610720565b600187018a5260208a209250601f1984168a5b818110610a0757509084600195949392106109ee575b505050811b016001840155610738565b015160001960f88460031b161c191690553880806109de565b929360206001819287860151815501950193016109c8565b90915060018601895260208920601f840160051c810160208510610a68575b90849392915b601f830160051c82018110610a5a57505061070a565b8b8155859450600101610a44565b5080610a3e565b634e487b7160e01b89526041600452602489fd5b60405163b4fa3fb360e01b8152600490fd5b610aae915060203d60201161035f57610351818361119b565b38610604565b6040513d86823e3d90fd5b503461037157806003193601126103715760206001600160401b0360055460401c16604051908152f35b50346103715780600319360112610371576001546040516001600160a01b039091168152602090f35b5034610371576040366003190112610371576024356001600160a01b0381169081900361024157604060209260ff9260043582526004855282822090825284522054166040519015158152f35b5034610371578060031936011261037157602063ffffffff60055416604051908152f35b5034610371576060366003190112610371576004356001600160401b03811161024157610bb49036906004016112a1565b90916044356001600160401b03811161024157610bd59036906004016112a1565b82546040516326aab85360e21b81523360048201529294919290602090829060249082906001600160a01b03165afa908115610ab457849161102c575b5015610327578015610a835760243515610a8357610c316002546112eb565b93846002556001600160401b034216610c586001600160401b0360055460401c1682611310565b906001600160401b0360405192610c6e84611156565b878452610c7c36878c61132b565b92602085019384526024356040860152610c9736898861132b565b606086015260808501521660a08301528560c08301528560e08301528561010083015260016101208301528686526003602052604086209082518255518051906001600160401b038211610996578190610cf4600185015461111c565b601f8111610fdc575b50602090601f8311600114610f72578992610f67575b50508160011b916000199060031b1c19161760018201555b6040820151600282015560608201518051906001600160401b03821161099657610d58600384015461111c565b601f8111610f23575b50918895939160209a95938b908a601f8411600114610e945793836108b6979694610120946004946000805160206115228339815191529d9e9892610e89575b50508160011b916000199060031b1c19161760038201555b01916001600160401b0360808201511683549067ffffffffffffffff60401b60a084015160401b16916001600160801b03191617178355610e2463ffffffff61082a8160c085015116869081549063ffffffff60801b9060801b169063ffffffff60801b1916179055565b610100810151835460ff60c01b191690151560c01b60ff60c01b161783550151815460ff60c81b191690151560c81b60ff60c81b16179055604051606080825290958695610e7492870191611371565b916024358b8601528483036040860152611371565b015190503880610da1565b5060038493929a9594018b528c8b20908b5b601f1984168110610f095750926001836004936000805160206115228339815191529c9d6108b69a99989761012097601f19811610610ef0575b505050811b016003820155610db9565b015160001960f88460031b161c19169055388080610ee0565b818c015183559a8e019a8d9a506001909201918e01610ea6565b60038401895260208920601f840160051c810160208510610f60575b601f830160051c82018110610f55575050610d61565b8a8155600101610f3f565b5080610f3f565b015190503880610d13565b600185018a5260208a209250601f1984168a5b818110610fc45750908460019594939210610fab575b505050811b016001820155610d2b565b015160001960f88460031b161c19169055388080610f9b565b92936020600181928786015181550195019301610f85565b90915060018401895260208920601f840160051c810160208510611025575b90849392915b601f830160051c82018110611017575050610cfd565b8b8155859450600101611001565b5080610ffb565b611045915060203d60201161035f57610351818361119b565b38610c12565b50346103715760203660031901126103715760409060043581526003602052208054611079600183016111bc565b9160ff6002820154916004611090600383016111bc565b910154906110d66001600160401b039463ffffffff926110c3604051998a99610140908b528060208c01528a0190611261565b9160408901528782036060890152611261565b9380831660808701528260401c1660a0860152808260801c1660c08601528160a01c1660e0850152818160c01c16151561010085015260c81c1615156101208301520390f35b90600182811c9216801561114c575b602083101461113657565b634e487b7160e01b600052602260045260246000fd5b91607f169161112b565b61014081019081106001600160401b0382111761117257604052565b634e487b7160e01b600052604160045260246000fd5b6001600160401b03811161117257604052565b90601f801991011681019081106001600160401b0382111761117257604052565b906040519182600082546111cf8161111c565b9081845260209460019160018116908160001461123f5750600114611200575b5050506111fe9250038361119b565b565b600090815285812095935091905b8183106112275750506111fe93508201013880806111ef565b8554888401850152948501948794509183019161120e565b925050506111fe94925060ff191682840152151560051b8201013880806111ef565b919082519283825260005b84811061128d575050826000602080949584010152601f8019910116010190565b60208183018101518483018201520161126c565b9181601f840112156112ce578235916001600160401b0383116112ce57602083818601950101116112ce57565b600080fd5b908160209103126112ce575180151581036112ce5790565b60001981146112fa5760010190565b634e487b7160e01b600052601160045260246000fd5b9190916001600160401b03808094169116019182116112fa57565b9291926001600160401b0382116111725760405191611354601f8201601f19166020018461119b565b8294818452818301116112ce578281602093846000960137010152565b908060209392818452848401376000828201840152601f01601f1916010190565b90600163ffffffff809316019182116112fa57565b60009081526003602052600460408220015460ff8160c81c1615801561147e575b61147a576001600160401b038160401c16421061147a5763ffffffff9182808360801c169260a01c1682019283831161146657600554818116851061145e576127109384810294818604149015171561144a5760201c16928381029381850414901517156114365750101590565b634e487b7160e01b81526011600452602490fd5b634e487b7160e01b83526011600452602483fd5b505091505090565b634e487b7160e01b82526011600452602482fd5b5090565b5060ff8160c01c166113c8565b80546000939261149a8261111c565b9182825260209360019160018116908160001461150257506001146114c1575b5050505050565b90939495506000929192528360002092846000945b8386106114ee575050505001019038808080806114ba565b8054858701830152940193859082016114d6565b60ff19168685015250505090151560051b0101915038808080806114ba56fe1820cf890d0d2fdc82b51b128558bf5c69c18a11ef05891666e558611da3559fa264697066735822122088cb03a35dd50d91da693c2f6df2d3a88e19215c4e24bb5f743685b1e0ea5c4a64736f6c63430008180033",
  "linkReferences": {},
  "deployedLinkReferences": {}
}