{
  "_format": "hh-sol-artifact-1",
  "contractName": "OrganizationFactory",
  "sourceName": "contracts/OrganizationFactory.sol",
  "abi": [
    {
      "inputs": [
        {
          "internalType": "address",
          "name": "seatSbt",
          "type": "address"
        }
      ],
      "stateMutability": "nonpayable",
      "type": "constructor"
    },
    {
      "inputs": [],
      "name": "AccessControlBadConfirmation",
      "type": "error"
    },
    {
      "inputs": [
        {
          "internalType": "address",
          "name": "account",
          "type": "address"
        },
        {
          "internalType": "bytes32",
          "name": "neededRole",
          "type": "bytes32"
        }
      ],
      "name": "AccessControlUnauthorizedAccount",
      "type": "error"
    },
    {
      "anonymous": false,
      "inputs": [
        {
          "indexed": true,
          "internalType": "uint256",
          "name": "orgId",
          "type": "uint256"
        },
        {
          "indexed": true,
          "internalType": "uint256",
          "name": "arbanId",
          "type": "uint256"
        },
        {
          "indexed": true,
          "internalType": "address",
          "name": "arban",
          "type": "address"
        },
        {
          "indexed": false,
          "internalType": "address",
          "name": "leader",
          "type": "address"
        }
      ],
      "name": "FirstArbanCreated",
      "type": "event"
    },
    {
      "anonymous": false,
      "inputs": [
        {
          "indexed": true,
          "internalType": "uint256",
          "name": "orgId",
          "type": "uint256"
        },
        {
          "indexed": true,
          "internalType": "address",
          "name": "org",
          "type": "address"
        },
        {
          "indexed": true,
          "internalType": "address",
          "name": "founder",
          "type": "address"
        },
        {
          "indexed": false,
          "internalType": "enum Organization.OrgType",
          "name": "orgType",
          "type": "uint8"
        },
        {
          "indexed": false,
          "internalType": "enum Organization.Branch",
          "name": "branch",
          "type": "uint8"
        }
      ],
      "name": "OrganizationDeployed",
      "type": "event"
    },
    {
      "anonymous": false,
      "inputs": [
        {
          "indexed": true,
          "internalType": "bytes32",
          "name": "role",
          "type": "bytes32"
        },
        {
          "indexed": true,
          "internalType": "bytes32",
          "name": "previousAdminRole",
          "type": "bytes32"
        },
        {
          "indexed": true,
          "internalType": "bytes32",
          "name": "newAdminRole",
          "type": "bytes32"
        }
      ],
      "name": "RoleAdminChanged",
      "type": "event"
    },
    {
      "anonymous": false,
      "inputs": [
        {
          "indexed": true,
          "internalType": "bytes32",
          "name": "role",
          "type": "bytes32"
        },
        {
          "indexed": true,
          "internalType": "address",
          "name": "account",
          "type": "address"
        },
        {
          "indexed": true,
          "internalType": "address",
          "name": "sender",
          "type": "address"
        }
      ],
      "name": "RoleGranted",
      "type": "event"
    },
    {
      "anonymous": false,
      "inputs": [
        {
          "indexed": true,
          "internalType": "bytes32",
          "name": "role",
          "type": "bytes32"
        },
        {
          "indexed": true,
          "internalType": "address",
          "name": "account",
          "type": "address"
        },
        {
          "indexed": true,
          "internalType": "address",
          "name": "sender",
          "type": "address"
        }
      ],
      "name": "RoleRevoked",
      "type": "event"
    },
    {
      "inputs": [],
      "name": "DEFAULT_ADMIN_ROLE",
      "outputs": [
        {
          "internalType": "bytes32",
          "name": "",
          "type": "bytes32"
        }
      ],
      "stateMutability": "view",
      "type": "function"
    },
    {
      "inputs": [],
      "name": "FACTORY_ADMIN_ROLE",
      "outputs": [
        {
          "internalType": "bytes32",
          "name": "",
          "type": "bytes32"
        }
      ],
      "stateMutability": "view",
      "type": "function"
    },
    {
      "inputs": [
        {
          "internalType": "enum Organization.OrgType",
          "name": "orgType",
          "type": "uint8"
        },
        {
          "internalType": "enum Organization.Branch",
          "name": "branch",
          "type": "uint8"
        },
        {
          "internalType": "address",
          "name": "notary",
          "type": "address"
        },
        {
          "internalType": "address",
          "name": "archivist",
          "type": "address"
        }
      ],
      "name": "createOrganizationWithArban",
      "outputs": [
        {
          "internalType": "uint256",
          "name": "orgId",
          "type": "uint256"
        },
        {
          "internalType": "address",
          "name": "orgAddr",
          "type": "address"
        },
        {
          "internalType": "uint256",
          "name": "arbanId",
          "type": "uint256"
        },
        {
          "internalType": "address",
          "name": "arbanAddr",
          "type": "address"
        }
      ],
      "stateMutability": "nonpayable",
      "type": "function"
    },
    {
      "inputs": [
        {
          "internalType": "uint256",
          "name": "orgId",
          "type": "uint256"
        }
      ],
      "name": "getOrg",
      "outputs": [
        {
          "components": [
            {
              "internalType": "address",
              "name": "org",
              "type": "address"
            },
            {
              "internalType": "address",
              "name": "founder",
              "type": "address"
            },
            {
              "internalType": "enum Organization.OrgType",
              "name": "orgType",
              "type": "uint8"
            },
            {
              "internalType": "enum Organization.Branch",
              "name": "branch",
              "type": "uint8"
            },
            {
              "internalType": "address",
              "name": "notary",
              "type": "address"
            },
            {
              "internalType": "address",
              "name": "archivist",
              "type": "address"
            },
            {
              "internalType": "address",
              "name": "firstArban",
              "type": "address"
            },
            {
              "internalType": "uint256",
              "name": "firstArbanId",
              "type": "uint256"
            }
          ],
          "internalType": "struct OrganizationFactory.OrgRecord",
          "name": "",
          "type": "tuple"
        }
      ],
      "stateMutability": "view",
      "type": "function"
    },
    {
      "inputs": [
        {
          "internalType": "bytes32",
          "name": "role",
          "type": "bytes32"
        }
      ],
      "name": "getRoleAdmin",
      "outputs": [
        {
          "internalType": "bytes32",
          "name": "",
          "type": "bytes32"
        }
      ],
      "stateMutability": "view",
      "type": "function"
    },
    {
      "inputs": [
        {
          "internalType": "bytes32",
          "name": "role",
          "type": "bytes32"
        },
        {
          "internalType": "address",
          "name": "account",
          "type": "address"
        }
      ],
      "name": "grantRole",
      "outputs": [],
      "stateMutability": "nonpayable",
      "type": "function"
    },
    {
      "inputs": [
        {
          "internalType": "bytes32",
          "name": "role",
          "type": "bytes32"
        },
        {
          "internalType": "address",
          "name": "account",
          "type": "address"
        }
      ],
      "name": "hasRole",
      "outputs": [
        {
          "internalType": "bool",
          "name": "",
          "type": "bool"
        }
      ],
      "stateMutability": "view",
      "type": "function"
    },
    {
      "inputs": [],
      "name": "nextArbanId",
      "outputs": [
        {
          "internalType": "uint256",
          "name": "",
          "type": "uint256"
        }
      ],
      "stateMutability": "view",
      "type": "function"
    },
    {
      "inputs": [],
      "name": "nextOrgId",
      "outputs": [
        {
          "internalType": "uint256",
          "name": "",
          "type": "uint256"
        }
      ],
      "stateMutability": "view",
      "type": "function"
    },
    {
      "inputs": [
        {
          "internalType": "uint256",
          "name": "",
          "type": "uint256"
        }
      ],
      "name": "orgOf",
      "outputs": [
        {
          "internalType": "address",
          "name": "org",
          "type": "address"
        },
        {
          "internalType": "address",
          "name": "founder",
          "type": "address"
        },
        {
          "internalType": "enum Organization.OrgType",
          "name": "orgType",
          "type": "uint8"
        },
        {
          "internalType": "enum Organization.Branch",
          "name": "branch",
          "type": "uint8"
        },
        {
          "internalType": "address",
          "name": "notary",
          "type": "address"
        },
        {
          "internalType": "address",
          "name": "archivist",
          "type": "address"
        },
        {
          "internalType": "address",
          "name": "firstArban",
          "type": "address"
        },
        {
          "internalType": "uint256",
          "name": "firstArbanId",
          "type": "uint256"
        }
      ],
      "stateMutability": "view",
      "type": "function"
    },
    {
      "inputs": [
        {
          "internalType": "bytes32",
          "name": "role",
          "type": "bytes32"
        },
        {
          "internalType": "address",
          "name": "callerConfirmation",
          "type": "address"
        }
      ],
      "name": "renounceRole",
      "outputs": [],
      "stateMutability": "nonpayable",
      "type": "function"
    },
    {
      "inputs": [
        {
          "internalType": "bytes32",
          "name": "role",
          "type": "bytes32"
        },
        {
          "internalType": "address",
          "name": "account",
          "type": "address"
        }
      ],
      "name": "revokeRole",
      "outputs": [],
      "stateMutability": "nonpayable",
      "type": "function"
    },
    {
      "inputs": [],
      "name": "seat",
      "outputs": [
        {
          "internalType": "contract SeatSBT",
          "name": "",
          "type": "address"
        }
      ],
      "stateMutability": "view",
      "type": "function"
    },
    {
      "inputs": [
        {
          "internalType": "bytes4",
          "name": "interfaceId",
          "type": "bytes4"
        }
      ],
      "name": "supportsInterface",
      "outputs": [
        {
          "internalType": "bool",
          "name": "",
          "type": "bool"
        }
      ],
      "stateMutability": "view",
      "type": "function"
    }
  ],
  "bytecode": "0x60a060405260018055600160025534801561001957600080fd5b506040516123bb3803806123bb8339810160408190526100389161012e565b6001600160a01b038116608052610050600033610082565b5061007b7fbd5d72ac35ae1e83aa0625c57eddda63fbb064a87fca99dfdd7ce027384ae28233610082565b505061015e565b6000828152602081815260408083206001600160a01b038516845290915281205460ff16610124576000838152602081815260408083206001600160a01b03861684529091529020805460ff191660011790556100dc3390565b6001600160a01b0316826001600160a01b0316847f2f8788117e7eff1d82e926ec794901d17c78024a50270940304540a733656f0d60405160405180910390a4506001610128565b5060005b92915050565b60006020828403121561014057600080fd5b81516001600160a01b038116811461015757600080fd5b9392505050565b60805161223b6101806000396000818161027701526105c1015261223b6000f3fe60806040523480156200001157600080fd5b5060043610620000fd5760003560e01c80636179460d116200009757806391d14854116200006e57806391d1485414620002bc578063a217fddf14620002d3578063ad1b9ff414620002dc578063d547741f146200031f57600080fd5b80636179460d14620001eb5780637bf6df9114620002715780638a5f067c14620002b257600080fd5b806324de06ed11620000d857806324de06ed14620001895780632f2ff15d14620001935780633360cf5e14620001ac57806336568abe14620001d457600080fd5b806301ffc9a714620001025780632360c27f146200012e578063248a9ca31462000154575b600080fd5b6200011962000113366004620009e6565b62000336565b60405190151581526020015b60405180910390f35b620001456200013f36600462000a19565b6200036e565b60405162000125919062000a73565b6200017a6200016536600462000a19565b60009081526020819052604090206001015490565b60405190815260200162000125565b6200017a60025481565b620001aa620001a436600462000b11565b620004a8565b005b6200017a7fbd5d72ac35ae1e83aa0625c57eddda63fbb064a87fca99dfdd7ce027384ae28281565b620001aa620001e536600462000b11565b620004d7565b6200025b620001fc36600462000a19565b60036020819052600091825260409091208054600182015460028301549383015460048401546005909401546001600160a01b03938416958385169560ff600160a01b8604811696600160a81b90960416949182169382169291169088565b6040516200012598979695949392919062000b40565b620002997f000000000000000000000000000000000000000000000000000000000000000081565b6040516001600160a01b03909116815260200162000125565b6200017a60015481565b62000119620002cd36600462000b11565b62000512565b6200017a600081565b620002f3620002ed36600462000ba1565b6200053b565b604080519485526001600160a01b03938416602086015284019190915216606082015260800162000125565b620001aa6200033036600462000b11565b62000847565b60006001600160e01b03198216637965db0b60e01b14806200036857506301ffc9a760e01b6001600160e01b03198316145b92915050565b620003b760408051610100810182526000808252602082018190529091820190815260200160008152600060208201819052604082018190526060820181905260809091015290565b60008281526003602090815260409182902082516101008101845281546001600160a01b03908116825260018301549081169382019390935292909190830190600160a01b900460ff16600281111562000415576200041562000a33565b600281111562000429576200042962000a33565b81526020016001820160159054906101000a900460ff16600481111562000454576200045462000a33565b600481111562000468576200046862000a33565b815260028201546001600160a01b039081166020830152600383015481166040830152600483015416606082015260059091015460809091015292915050565b600082815260208190526040902060010154620004c58162000870565b620004d183836200087f565b50505050565b6001600160a01b0381163314620005015760405163334bd91960e11b815260040160405180910390fd5b6200050d828262000917565b505050565b6000918252602082815260408084206001600160a01b0393909316845291905290205460ff1690565b60008060008060016000815480929190620005569062000c08565b919050559350600033898989896040516200057190620009ca565b6200058195949392919062000c30565b604051809103906000f0801580156200059e573d6000803e3d6000fd5b50600280549195508592506000620005b68362000c08565b9190505592506000847f00000000000000000000000000000000000000000000000000000000000000008533604051620005f090620009d8565b6001600160a01b039485168152928416602084015260408301919091529091166060820152608001604051809103906000f08015801562000635573d6000803e3d6000fd5b5060408051610100810182526001600160a01b038816815233602082015291945084925081018b600281111562000670576200067062000a33565b81526020018a60048111156200068a576200068a62000a33565b81526001600160a01b03808b166020808401919091528a82166040808501919091528783166060850152608090930188905260008a815260038252839020845181549084166001600160a01b03199182161782559185015160018201805491909416928116831784559385015190939092916001600160a81b031990911617600160a01b83600281111562000723576200072362000a33565b0217905550606082015160018201805460ff60a81b1916600160a81b83600481111562000754576200075462000a33565b021790555060808201516002820180546001600160a01b03199081166001600160a01b039384161790915560a0840151600384018054831691841691909117905560c084015160048401805490921690831617905560e090920151600590910155604051339187169088907f417c1a6fa8e037fbb2dc0c82aa6d7ce865ac3077c3994970ae5d654674a2b20e90620007f0908f908f9062000c7b565b60405180910390a46040513381526001600160a01b03841690859088907fd6da6c6cb54c3512d7479b0284aa0c844bac1353685f8d9b1165ef54248324269060200160405180910390a45050945094509450949050565b600082815260208190526040902060010154620008648162000870565b620004d1838362000917565b6200087c813362000986565b50565b60006200088d838362000512565b6200090e576000838152602081815260408083206001600160a01b03861684529091529020805460ff19166001179055620008c53390565b6001600160a01b0316826001600160a01b0316847f2f8788117e7eff1d82e926ec794901d17c78024a50270940304540a733656f0d60405160405180910390a450600162000368565b50600062000368565b600062000925838362000512565b156200090e576000838152602081815260408083206001600160a01b0386168085529252808320805460ff1916905551339286917ff6391f5c32d9c69d2a47ea670b442974b53935d1edc7fd64eb21e047a839171b9190a450600162000368565b62000992828262000512565b620009c65760405163e2517d3f60e01b81526001600160a01b03821660048201526024810183905260440160405180910390fd5b5050565b610afe8062000c9b83390190565b610a6d806200179983390190565b600060208284031215620009f957600080fd5b81356001600160e01b03198116811462000a1257600080fd5b9392505050565b60006020828403121562000a2c57600080fd5b5035919050565b634e487b7160e01b600052602160045260246000fd5b6003811062000a5c5762000a5c62000a33565b9052565b6005811062000a5c5762000a5c62000a33565b81516001600160a01b0390811682526020808401518216908301526040808401516101008401929162000aa99085018262000a49565b50606084015162000abe606085018262000a60565b508060808501511660808401528060a08501511660a08401528060c08501511660c08401525060e083015160e083015292915050565b80356001600160a01b038116811462000b0c57600080fd5b919050565b6000806040838503121562000b2557600080fd5b8235915062000b376020840162000af4565b90509250929050565b6001600160a01b038981168252888116602083015261010082019062000b6a604084018a62000a49565b62000b79606084018962000a60565b958616608083015293851660a08201529190931660c082015260e00191909152949350505050565b6000806000806080858703121562000bb857600080fd5b84356003811062000bc857600080fd5b935060208501356005811062000bdd57600080fd5b925062000bed6040860162000af4565b915062000bfd6060860162000af4565b905092959194509250565b60006001820162000c2957634e487b7160e01b600052601160045260246000fd5b5060010190565b6001600160a01b03868116825260a082019062000c51602084018862000a49565b62000c60604084018762000a60565b80851660608401528084166080840152509695505050505050565b6040810162000c8b828562000a49565b62000a12602083018462000a6056fe60e06040523480156200001157600080fd5b5060405162000afe38038062000afe833981016040819052620000349162000289565b6001600160a01b0385166200005c5760405163538ba4f960e01b815260040160405180910390fd5b6001600160a01b03851660c0528360028111156200007e576200007e62000304565b608081600281111562000095576200009562000304565b905250826004811115620000ad57620000ad62000304565b60a0816004811115620000c457620000c462000304565b905250620000d4600086620001bd565b50620001017f123b642491709420c2370bb98c4e7de2b1bc05c5f9fd95ac4111e12683553c6286620001bd565b50600180546001600160a01b038085166001600160a01b0319928316179092556002805484841692169190911790556040519086169030907f6ea0800c4ae91c90014c4336424489e44c66e01db9fff5710af54833089f05bb906200016a90889088906200031a565b60405180910390a3806001600160a01b0316826001600160a01b03167f53ae3b3eca082f3cd2154629b38b35d9ce679a46ec9909cc132443045248651060405160405180910390a3505050505062000354565b6000828152602081815260408083206001600160a01b038516845290915281205460ff1662000262576000838152602081815260408083206001600160a01b03861684529091529020805460ff19166001179055620002193390565b6001600160a01b0316826001600160a01b0316847f2f8788117e7eff1d82e926ec794901d17c78024a50270940304540a733656f0d60405160405180910390a450600162000266565b5060005b92915050565b80516001600160a01b03811681146200028457600080fd5b919050565b600080600080600060a08688031215620002a257600080fd5b620002ad866200026c565b9450602086015160038110620002c257600080fd5b604087015190945060058110620002d857600080fd5b9250620002e8606087016200026c565b9150620002f8608087016200026c565b90509295509295909350565b634e487b7160e01b600052602160045260246000fd5b604081016003841062000331576200033162000304565b8382526005831062000347576200034762000304565b8260208301529392505050565b60805160a05160c05161077a6200038460003960006101fe015260006101ca0152600061013d015261077a6000f3fe608060405234801561001057600080fd5b506004361061010b5760003560e01c806382c1a089116100a2578063a4a1160f11610071578063a4a1160f1461028c578063d0ca2f671461029f578063d547741f146102c6578063d74a5d00146102d9578063f73011af146102ec57600080fd5b806382c1a0891461024b57806391d148541461025e5780639d54c79d14610271578063a217fddf1461028457600080fd5b806336568abe116100de57806336568abe146101b25780634b72d0d4146101c55780634d853ee5146101f95780636c3783341461023857600080fd5b806301ffc9a71461011057806323a989e114610138578063248a9ca31461016c5780632f2ff15d1461019d575b600080fd5b61012361011e366004610644565b6102ff565b60405190151581526020015b60405180910390f35b61015f7f000000000000000000000000000000000000000000000000000000000000000081565b60405161012f919061068b565b61018f61017a3660046106a5565b60009081526020819052604090206001015490565b60405190815260200161012f565b6101b06101ab3660046106da565b610336565b005b6101b06101c03660046106da565b610361565b6101ec7f000000000000000000000000000000000000000000000000000000000000000081565b60405161012f9190610706565b6102207f000000000000000000000000000000000000000000000000000000000000000081565b6040516001600160a01b03909116815260200161012f565b600354610220906001600160a01b031681565b6101b061025936600461071a565b610399565b61012361026c3660046106da565b610422565b600154610220906001600160a01b031681565b61018f600081565b600454610220906001600160a01b031681565b61018f7f123b642491709420c2370bb98c4e7de2b1bc05c5f9fd95ac4111e12683553c6281565b6101b06102d43660046106da565b61044b565b6101b06102e736600461071a565b610470565b600254610220906001600160a01b031681565b60006001600160e01b03198216637965db0b60e01b148061033057506301ffc9a760e01b6001600160e01b03198316145b92915050565b600082815260208190526040902060010154610351816104f9565b61035b8383610506565b50505050565b6001600160a01b038116331461038a5760405163334bd91960e11b815260040160405180910390fd5b6103948282610598565b505050565b7f123b642491709420c2370bb98c4e7de2b1bc05c5f9fd95ac4111e12683553c626103c3816104f9565b600180546001600160a01b03199081166001600160a01b03868116918217909355600280549092169285169283179091556040517f53ae3b3eca082f3cd2154629b38b35d9ce679a46ec9909cc132443045248651090600090a3505050565b6000918252602082815260408084206001600160a01b0393909316845291905290205460ff1690565b600082815260208190526040902060010154610466816104f9565b61035b8383610598565b7f123b642491709420c2370bb98c4e7de2b1bc05c5f9fd95ac4111e12683553c6261049a816104f9565b600380546001600160a01b03199081166001600160a01b03868116918217909355600480549092169285169283179091556040517f323c4c64ab73ed697a6c978f74508faec97aed0cdf6f5f0ed8d93b8d22dd5f1890600090a3505050565b6105038133610603565b50565b60006105128383610422565b610590576000838152602081815260408083206001600160a01b03861684529091529020805460ff191660011790556105483390565b6001600160a01b0316826001600160a01b0316847f2f8788117e7eff1d82e926ec794901d17c78024a50270940304540a733656f0d60405160405180910390a4506001610330565b506000610330565b60006105a48383610422565b15610590576000838152602081815260408083206001600160a01b0386168085529252808320805460ff1916905551339286917ff6391f5c32d9c69d2a47ea670b442974b53935d1edc7fd64eb21e047a839171b9190a4506001610330565b61060d8282610422565b6106405760405163e2517d3f60e01b81526001600160a01b03821660048201526024810183905260440160405180910390fd5b5050565b60006020828403121561065657600080fd5b81356001600160e01b03198116811461066e57600080fd5b9392505050565b634e487b7160e01b600052602160045260246000fd5b602081016003831061069f5761069f610675565b91905290565b6000602082840312156106b757600080fd5b5035919050565b80356001600160a01b03811681146106d557600080fd5b919050565b600080604083850312156106ed57600080fd5b823591506106fd602084016106be565b90509250929050565b602081016005831061069f5761069f610675565b6000806040838503121561072d57600080fd5b610736836106be565b91506106fd602084016106be56fea26469706673582212200710eb4787224598a0719617fea4631f87d54d1d84210aa7c28e5e380db3d0b664736f6c6343000818003360e060405234801561001057600080fd5b50604051610a6d380380610a6d83398101604081905261002f9161018e565b6001600160a01b0381166100565760405163538ba4f960e01b815260040160405180910390fd5b6001600160a01b0384811660805283811660a05260c0839052600180546001600160a01b0319169183169190911790556100916000826100c6565b506100bc7f21d2830d54424ced495e8b9a2d9096ce77e272f963440f132cf2276b5578aa2f826100c6565b50505050506101db565b6000828152602081815260408083206001600160a01b038516845290915281205460ff16610168576000838152602081815260408083206001600160a01b03861684529091529020805460ff191660011790556101203390565b6001600160a01b0316826001600160a01b0316847f2f8788117e7eff1d82e926ec794901d17c78024a50270940304540a733656f0d60405160405180910390a450600161016c565b5060005b92915050565b80516001600160a01b038116811461018957600080fd5b919050565b600080600080608085870312156101a457600080fd5b6101ad85610172565b93506101bb60208601610172565b9250604085015191506101d060608601610172565b905092959194509250565b60805160a05160c05161086361020a600039600061015201526000610252015260006101a201526108636000f3fe608060405234801561001057600080fd5b506004361061010b5760003560e01c80632f2ff15d116100a257806391d148541161007157806391d14854146102745780639eab525314610287578063a217fddf1461029c578063d50c7377146102a4578063d547741f146102c757600080fd5b80632f2ff15d1461021457806336568abe1461022757806340eedabb1461023a5780637bf6df911461024d57600080fd5b806311aee380116100de57806311aee3801461019557806323bd4d7a1461019d578063248a9ca3146101dc57806324c0e1c3146101ff57600080fd5b806301ffc9a7146101105780630305dd991461013857806306c817191461014d5780631089f5ed14610182575b600080fd5b61012361011e36600461071c565b6102da565b60405190151581526020015b60405180910390f35b61014b610146366004610769565b610311565b005b6101747f000000000000000000000000000000000000000000000000000000000000000081565b60405190815260200161012f565b61014b610190366004610784565b6103e6565b600254610174565b6101c47f000000000000000000000000000000000000000000000000000000000000000081565b6040516001600160a01b03909116815260200161012f565b6101746101ea366004610784565b60009081526020819052604090206001015490565b61017460008051602061080e83398151915281565b61014b61022236600461079d565b6104c8565b61014b61023536600461079d565b6104f3565b6001546101c4906001600160a01b031681565b6101c47f000000000000000000000000000000000000000000000000000000000000000081565b61012361028236600461079d565b61052b565b61028f610554565b60405161012f91906107c9565b610174600081565b6101236102b2366004610784565b60036020526000908152604090205460ff1681565b61014b6102d536600461079d565b6105ac565b60006001600160e01b03198216637965db0b60e01b148061030b57506301ffc9a760e01b6001600160e01b03198316145b92915050565b60008051602061080e833981519152610329816105d1565b6001600160a01b0382166103505760405163538ba4f960e01b815260040160405180910390fd5b600180546001600160a01b038481166001600160a01b03198316179092551661038760008051602061080e833981519152846105de565b506103a060008051602061080e83398151915282610670565b50826001600160a01b0316816001600160a01b03167f20a41b6af7c8306fdec52386c51d5c48321cd6fde663606ff90de727e964eebe60405160405180910390a3505050565b60008051602061080e8339815191526103fe816105d1565b600254600a116104215760405163470781ed60e01b815260040160405180910390fd5b60008281526003602052604090205460ff161561045157604051637b89743f60e01b815260040160405180910390fd5b6002805460018181019092557f405787fa12a823e0f2b7631cc41b3ba8828b3321ca811111fa75cd3aa3bb5ace01839055600083815260036020526040808220805460ff1916909317909255905183917f663edc42a721f7c73209441ed31f141cef6912283c680024547d950559c5559191a25050565b6000828152602081905260409020600101546104e3816105d1565b6104ed83836105de565b50505050565b6001600160a01b038116331461051c5760405163334bd91960e11b815260040160405180910390fd5b6105268282610670565b505050565b6000918252602082815260408084206001600160a01b0393909316845291905290205460ff1690565b606060028054806020026020016040519081016040528092919081815260200182805480156105a257602002820191906000526020600020905b81548152602001906001019080831161058e575b5050505050905090565b6000828152602081905260409020600101546105c7816105d1565b6104ed8383610670565b6105db81336106db565b50565b60006105ea838361052b565b610668576000838152602081815260408083206001600160a01b03861684529091529020805460ff191660011790556106203390565b6001600160a01b0316826001600160a01b0316847f2f8788117e7eff1d82e926ec794901d17c78024a50270940304540a733656f0d60405160405180910390a450600161030b565b50600061030b565b600061067c838361052b565b15610668576000838152602081815260408083206001600160a01b0386168085529252808320805460ff1916905551339286917ff6391f5c32d9c69d2a47ea670b442974b53935d1edc7fd64eb21e047a839171b9190a450600161030b565b6106e5828261052b565b6107185760405163e2517d3f60e01b81526001600160a01b03821660048201526024810183905260440160405180910390fd5b5050565b60006020828403121561072e57600080fd5b81356001600160e01b03198116811461074657600080fd5b9392505050565b80356001600160a01b038116811461076457600080fd5b919050565b60006020828403121561077b57600080fd5b6107468261074d565b60006020828403121561079657600080fd5b5035919050565b600080604083850312156107b057600080fd5b823591506107c06020840161074d565b90509250929050565b6020808252825182820181905260009190848201906040850190845b81811015610801578351835292840192918401916001016107e5565b5090969550505050505056fe21d2830d54424ced495e8b9a2d9096ce77e272f963440f132cf2276b5578aa2fa2646970667358221220e9b84fe146c91511101d01ed33143f8568cb8fbfa7058eb129b1d71833cf6ec564736f6c63430008180033a26469706673582212200f5c205b7f048834cb2c89debe27d3cc78ba9a8107f42f2a25d351fd275b2e9064736f6c63430008180033",
  "linkReferences": {},
  "deployedLinkReferences": {}
}