{
  "_format": "hh-sol-artifact-1",
  "contractName": "TenRegistry",
  "sourceName": "contracts/TenRegistry.sol",
  "abi": [
    {
      "inputs": [
        {
          "internalType": "address",
          "name": "seatSbt",
          "type": "address"
        },
        {
          "internalType": "address",
          "name": "seatTamgaFactory",
          "type": "address"
        },
        {
          "internalType": "address",
          "name": "centralBank",
          "type": "address"
        }
      ],
      "stateMutability": "nonpayable",
      "type": "constructor"
    },
    {
      "inputs": [],
      "name": "AccessControlBadConfirmation",
      "type": "error"
    },
    {
      "inputs": [
        {
          "internalType": "address",
          "name": "account",
          "type": "address"
        },
        {
          "internalType": "bytes32",
          "name": "neededRole",
          "type": "bytes32"
        }
      ],
      "name": "AccessControlUnauthorizedAccount",
      "type": "error"
    },
    {
      "anonymous": false,
      "inputs": [
        {
          "indexed": true,
          "internalType": "bytes32",
          "name": "role",
          "type": "bytes32"
        },
        {
          "indexed": true,
          "internalType": "bytes32",
          "name": "previousAdminRole",
          "type": "bytes32"
        },
        {
          "indexed": true,
          "internalType": "bytes32",
          "name": "newAdminRole",
          "type": "bytes32"
        }
      ],
      "name": "RoleAdminChanged",
      "type": "event"
    },
    {
      "anonymous": false,
      "inputs": [
        {
          "indexed": true,
          "internalType": "bytes32",
          "name": "role",
          "type": "bytes32"
        },
        {
          "indexed": true,
          "internalType": "address",
          "name": "account",
          "type": "address"
        },
        {
          "indexed": true,
          "internalType": "address",
          "name": "sender",
          "type": "address"
        }
      ],
      "name": "RoleGranted",
      "type": "event"
    },
    {
      "anonymous": false,
      "inputs": [
        {
          "indexed": true,
          "internalType": "bytes32",
          "name": "role",
          "type": "bytes32"
        },
        {
          "indexed": true,
          "internalType": "address",
          "name": "account",
          "type": "address"
        },
        {
          "indexed": true,
          "internalType": "address",
          "name": "sender",
          "type": "address"
        }
      ],
      "name": "RoleRevoked",
      "type": "event"
    },
    {
      "anonymous": false,
      "inputs": [
        {
          "indexed": true,
          "internalType": "uint256",
          "name": "tenId",
          "type": "uint256"
        }
      ],
      "name": "TenApproved",
      "type": "event"
    },
    {
      "anonymous": false,
      "inputs": [
        {
          "indexed": true,
          "internalType": "uint256",
          "name": "tenId",
          "type": "uint256"
        },
        {
          "indexed": true,
          "internalType": "address",
          "name": "proposer",
          "type": "address"
        }
      ],
      "name": "TenProposed",
      "type": "event"
    },
    {
      "inputs": [],
      "name": "DEFAULT_ADMIN_ROLE",
      "outputs": [
        {
          "internalType": "bytes32",
          "name": "",
          "type": "bytes32"
        }
      ],
      "stateMutability": "view",
      "type": "function"
    },
    {
      "inputs": [],
      "name": "REGISTRAR_ROLE",
      "outputs": [
        {
          "internalType": "bytes32",
          "name": "",
          "type": "bytes32"
        }
      ],
      "stateMutability": "view",
      "type": "function"
    },
    {
      "inputs": [
        {
          "internalType": "uint256",
          "name": "tenId",
          "type": "uint256"
        }
      ],
      "name": "approveTen",
      "outputs": [],
      "stateMutability": "nonpayable",
      "type": "function"
    },
    {
      "inputs": [],
      "name": "bank",
      "outputs": [
        {
          "internalType": "contract CentralBank",
          "name": "",
          "type": "address"
        }
      ],
      "stateMutability": "view",
      "type": "function"
    },
    {
      "inputs": [],
      "name": "count",
      "outputs": [
        {
          "internalType": "uint256",
          "name": "",
          "type": "uint256"
        }
      ],
      "stateMutability": "view",
      "type": "function"
    },
    {
      "inputs": [],
      "name": "factory",
      "outputs": [
        {
          "internalType": "contract SeatTamgaFactory",
          "name": "",
          "type": "address"
        }
      ],
      "stateMutability": "view",
      "type": "function"
    },
    {
      "inputs": [
        {
          "internalType": "bytes32",
          "name": "role",
          "type": "bytes32"
        }
      ],
      "name": "getRoleAdmin",
      "outputs": [
        {
          "internalType": "bytes32",
          "name": "",
          "type": "bytes32"
        }
      ],
      "stateMutability": "view",
      "type": "function"
    },
    {
      "inputs": [
        {
          "internalType": "bytes32",
          "name": "role",
          "type": "bytes32"
        },
        {
          "internalType": "address",
          "name": "account",
          "type": "address"
        }
      ],
      "name": "grantRole",
      "outputs": [],
      "stateMutability": "nonpayable",
      "type": "function"
    },
    {
      "inputs": [
        {
          "internalType": "bytes32",
          "name": "role",
          "type": "bytes32"
        },
        {
          "internalType": "address",
          "name": "account",
          "type": "address"
        }
      ],
      "name": "hasRole",
      "outputs": [
        {
          "internalType": "bool",
          "name": "",
          "type": "bool"
        }
      ],
      "stateMutability": "view",
      "type": "function"
    },
    {
      "inputs": [
        {
          "internalType": "uint256[10]",
          "name": "seatIds",
          "type": "uint256[10]"
        }
      ],
      "name": "proposeTen",
      "outputs": [
        {
          "internalType": "uint256",
          "name": "tenId",
          "type": "uint256"
        }
      ],
      "stateMutability": "nonpayable",
      "type": "function"
    },
    {
      "inputs": [
        {
          "internalType": "bytes32",
          "name": "role",
          "type": "bytes32"
        },
        {
          "internalType": "address",
          "name": "callerConfirmation",
          "type": "address"
        }
      ],
      "name": "renounceRole",
      "outputs": [],
      "stateMutability": "nonpayable",
      "type": "function"
    },
    {
      "inputs": [
        {
          "internalType": "bytes32",
          "name": "role",
          "type": "bytes32"
        },
        {
          "internalType": "address",
          "name": "account",
          "type": "address"
        }
      ],
      "name": "revokeRole",
      "outputs": [],
      "stateMutability": "nonpayable",
      "type": "function"
    },
    {
      "inputs": [],
      "name": "seat",
      "outputs": [
        {
          "internalType": "contract SeatSBT",
          "name": "",
          "type": "address"
        }
      ],
      "stateMutability": "view",
      "type": "function"
    },
    {
      "inputs": [
        {
          "internalType": "bytes4",
          "name": "interfaceId",
          "type": "bytes4"
        }
      ],
      "name": "supportsInterface",
      "outputs": [
        {
          "internalType": "bool",
          "name": "",
          "type": "bool"
        }
      ],
      "stateMutability": "view",
      "type": "function"
    },
    {
      "inputs": [
        {
          "internalType": "uint256",
          "name": "",
          "type": "uint256"
        }
      ],
      "name": "tens",
      "outputs": [
        {
          "internalType": "bool",
          "name": "approved",
          "type": "bool"
        },
        {
          "internalType": "address",
          "name": "proposer",
          "type": "address"
        }
      ],
      "stateMutability": "view",
      "type": "function"
    }
  ],
  "bytecode": "0x60e06040523480156200001157600080fd5b506040516200102f3803806200102f83398101604081905262000034916200015d565b6001600160a01b0380841660805282811660a052811660c0526200005a60003362000091565b50620000877fedcc084d3dcd65a1f7f23c65c46722faca6953d28e43150a467cf43e5c3092383362000091565b50505050620001a7565b6000828152602081815260408083206001600160a01b038516845290915281205460ff1662000136576000838152602081815260408083206001600160a01b03861684529091529020805460ff19166001179055620000ed3390565b6001600160a01b0316826001600160a01b0316847f2f8788117e7eff1d82e926ec794901d17c78024a50270940304540a733656f0d60405160405180910390a45060016200013a565b5060005b92915050565b80516001600160a01b03811681146200015857600080fd5b919050565b6000806000606084860312156200017357600080fd5b6200017e8462000140565b92506200018e6020850162000140565b91506200019e6040850162000140565b90509250925092565b60805160a05160c051610e206200020f600039600081816101c90152818161099a01526109ca01526000818161024a015261082201526000818161020801528181610301015281816106af0152818161073e015281816108b7015261092e0152610e206000f3fe608060405234801561001057600080fd5b50600436106100f55760003560e01c806376cdb03b11610097578063c45a015511610066578063c45a015514610245578063d547741f1461026c578063dacfa71c1461027f578063f68e95531461029257600080fd5b806376cdb03b146101c45780637bf6df911461020357806391d148541461022a578063a217fddf1461023d57600080fd5b8063248a9ca3116100d3578063248a9ca3146101475780632f2ff15d1461016a57806336568abe1461017f57806369c72b411461019257600080fd5b806301ffc9a7146100fa57806306661abd14610122578063072a147c14610134575b600080fd5b61010d610108366004610c91565b6102b9565b60405190151581526020015b60405180910390f35b6001545b604051908152602001610119565b610126610142366004610cc2565b6102f0565b610126610155366004610ced565b60009081526020819052604090206001015490565b61017d610178366004610d1b565b6104e3565b005b61017d61018d366004610d1b565b61050e565b6101a56101a0366004610ced565b610546565b6040805192151583526001600160a01b03909116602083015201610119565b6101eb7f000000000000000000000000000000000000000000000000000000000000000081565b6040516001600160a01b039091168152602001610119565b6101eb7f000000000000000000000000000000000000000000000000000000000000000081565b61010d610238366004610d1b565b610581565b610126600081565b6101eb7f000000000000000000000000000000000000000000000000000000000000000081565b61017d61027a366004610d1b565b6105aa565b61017d61028d366004610ced565b6105cf565b6101267fedcc084d3dcd65a1f7f23c65c46722faca6953d28e43150a467cf43e5c30923881565b60006001600160e01b03198216637965db0b60e01b14806102ea57506301ffc9a760e01b6001600160e01b03198316145b92915050565b6000805b600a8110156103fa5760007f00000000000000000000000000000000000000000000000000000000000000006001600160a01b0316636352211e8584600a811061034057610340610d4b565b60200201356040518263ffffffff1660e01b815260040161036391815260200190565b602060405180830381865afa158015610380573d6000803e3d6000fd5b505050506040513d601f19601f820116820180604052508101906103a49190610d61565b6001600160a01b0316036103f25760405162461bcd60e51b815260206004820152601060248201526f14d9585d081b9bdb995e1a5cdd195b9d60821b60448201526064015b60405180910390fd5b6001016102f4565b50604080516101a08101909152600190806060810185600a8282610140808284376000920182905250928452505060208083018290523360409093019290925283546001810185559381522081519192600b02019061045c908290600a610c3e565b506020820151600a90910180546040909301516001600160a01b031661010002610100600160a81b0319921515929092166001600160a81b031990931692909217179055600180546104ae9190610d7e565b604051909150339082907fac91f04a9dc9f77112f38504c8ad3f2cf424bd0e45310e7aa1b943acdefe4e0d90600090a3919050565b6000828152602081905260409020600101546104fe81610af7565b6105088383610b04565b50505050565b6001600160a01b03811633146105375760405163334bd91960e11b815260040160405180910390fd5b6105418282610b96565b505050565b6001818154811061055657600080fd5b60009182526020909120600b90910201600a015460ff8116915061010090046001600160a01b031682565b6000918252602082815260408084206001600160a01b0393909316845291905290205460ff1690565b6000828152602081905260409020600101546105c581610af7565b6105088383610b96565b7fedcc084d3dcd65a1f7f23c65c46722faca6953d28e43150a467cf43e5c3092386105f981610af7565b60006001838154811061060e5761060e610d4b565b60009182526020909120600b90910201600a81015490915060ff16156106695760405162461bcd60e51b815260206004820152601060248201526f105b1c9958591e48185c1c1c9bdd995960821b60448201526064016103e9565b60005b600a811015610ab75760008282600a811061068957610689610d4b565b01546040516331a9108f60e11b8152600481018290529091506000906001600160a01b037f00000000000000000000000000000000000000000000000000000000000000001690636352211e90602401602060405180830381865afa1580156106f6573d6000803e3d6000fd5b505050506040513d601f19601f8201168201806040525081019061071a9190610d61565b604051630414bd2f60e01b8152600481018490529091506000906001600160a01b037f00000000000000000000000000000000000000000000000000000000000000001690630414bd2f90602401602060405180830381865afa158015610785573d6000803e3d6000fd5b505050506040513d601f19601f820116820180604052508101906107a99190610d61565b90506001600160a01b0381166109175760405169534541545f54414d474160b01b6020820152602a8101849052600090604a0160408051808303601f19018152908290528051602090910120636b2b00df60e11b8252600482018690526001600160a01b038581166024840152604483018290529092507f0000000000000000000000000000000000000000000000000000000000000000169063d65601be906064016020604051808303816000875af115801561086b573d6000803e3d6000fd5b505050506040513d601f19601f8201168201806040525081019061088f9190610d61565b60405162e587ad60e31b8152600481018690526001600160a01b0380831660248301529193507f00000000000000000000000000000000000000000000000000000000000000009091169063072c3d6890604401600060405180830381600087803b1580156108fd57600080fd5b505af1158015610911573d6000803e3d6000fd5b50505050505b604051633625b75960e21b81526001600160a01b037f0000000000000000000000000000000000000000000000000000000000000000169063d896dd6490610966908690600190600401610d9f565b600060405180830381600087803b15801561098057600080fd5b505af1158015610994573d6000803e3d6000fd5b505050507f00000000000000000000000000000000000000000000000000000000000000006001600160a01b031663867904b4827f00000000000000000000000000000000000000000000000000000000000000006001600160a01b03166363b42e4d6040518163ffffffff1660e01b8152600401602060405180830381865afa158015610a26573d6000803e3d6000fd5b505050506040513d601f19601f82011682018060405250810190610a4a9190610dd1565b6040516001600160e01b031960e085901b1681526001600160a01b0390921660048301526024820152604401600060405180830381600087803b158015610a9057600080fd5b505af1158015610aa4573d6000803e3d6000fd5b50506001909501945061066c9350505050565b50600a8101805460ff1916600117905560405183907ffc513563e5df14835191b68e7cc208584d8184365bb6d9f27959a77bd313ceae90600090a2505050565b610b018133610c01565b50565b6000610b108383610581565b610b8e576000838152602081815260408083206001600160a01b03861684529091529020805460ff19166001179055610b463390565b6001600160a01b0316826001600160a01b0316847f2f8788117e7eff1d82e926ec794901d17c78024a50270940304540a733656f0d60405160405180910390a45060016102ea565b5060006102ea565b6000610ba28383610581565b15610b8e576000838152602081815260408083206001600160a01b0386168085529252808320805460ff1916905551339286917ff6391f5c32d9c69d2a47ea670b442974b53935d1edc7fd64eb21e047a839171b9190a45060016102ea565b610c0b8282610581565b610c3a5760405163e2517d3f60e01b81526001600160a01b0382166004820152602481018390526044016103e9565b5050565b82600a8101928215610c6c579160200282015b82811115610c6c578251825591602001919060010190610c51565b50610c78929150610c7c565b5090565b5b80821115610c785760008155600101610c7d565b600060208284031215610ca357600080fd5b81356001600160e01b031981168114610cbb57600080fd5b9392505050565b6000610140808385031215610cd657600080fd5b838184011115610ce557600080fd5b509092915050565b600060208284031215610cff57600080fd5b5035919050565b6001600160a01b0381168114610b0157600080fd5b60008060408385031215610d2e57600080fd5b823591506020830135610d4081610d06565b809150509250929050565b634e487b7160e01b600052603260045260246000fd5b600060208284031215610d7357600080fd5b8151610cbb81610d06565b818103818111156102ea57634e487b7160e01b600052601160045260246000fd5b8281526040810160048310610dc457634e487b7160e01b600052602160045260246000fd5b8260208301529392505050565b600060208284031215610de357600080fd5b505191905056fea2646970667358221220cb2274fc951a3e1ebe5bf7b5237e6322bc0f6815fcfa9696c48006ab4ee3376964736f6c63430008180033",
  "linkReferences": {},
  "deployedLinkReferences": {}
}