{
  "_format": "hh-sol-artifact-1",
  "contractName": "TaxAuthority",
  "sourceName": "contracts/TaxAuthority.sol",
  "abi": [
    {
      "inputs": [
        {
          "internalType": "address",
          "name": "ledgerAddr",
          "type": "address"
        },
        {
          "internalType": "address",
          "name": "licenseRegAddr",
          "type": "address"
        },
        {
          "internalType": "bytes32",
          "name": "confedBudgetAccountId",
          "type": "bytes32"
        }
      ],
      "stateMutability": "nonpayable",
      "type": "constructor"
    },
    {
      "anonymous": false,
      "inputs": [
        {
          "indexed": true,
          "internalType": "uint32",
          "name": "year",
          "type": "uint32"
        },
        {
          "indexed": true,
          "internalType": "bytes32",
          "name": "taxpayerAccountId",
          "type": "bytes32"
        },
        {
          "indexed": true,
          "internalType": "bytes32",
          "name": "republicKey",
          "type": "bytes32"
        },
        {
          "indexed": false,
          "internalType": "uint256",
          "name": "profit",
          "type": "uint256"
        },
        {
          "indexed": false,
          "internalType": "uint256",
          "name": "taxDue",
          "type": "uint256"
        }
      ],
      "name": "Declared",
      "type": "event"
    },
    {
      "anonymous": false,
      "inputs": [
        {
          "indexed": true,
          "internalType": "uint32",
          "name": "year",
          "type": "uint32"
        },
        {
          "indexed": true,
          "internalType": "bytes32",
          "name": "taxpayerAccountId",
          "type": "bytes32"
        },
        {
          "indexed": true,
          "internalType": "bytes32",
          "name": "republicKey",
          "type": "bytes32"
        },
        {
          "indexed": false,
          "internalType": "uint256",
          "name": "amount",
          "type": "uint256"
        },
        {
          "indexed": false,
          "internalType": "uint256",
          "name": "repPart",
          "type": "uint256"
        },
        {
          "indexed": false,
          "internalType": "uint256",
          "name": "confPart",
          "type": "uint256"
        },
        {
          "indexed": false,
          "internalType": "uint256",
          "name": "totalPaid",
          "type": "uint256"
        }
      ],
      "name": "TaxPaid",
      "type": "event"
    },
    {
      "inputs": [],
      "name": "CONFED_BPS",
      "outputs": [
        {
          "internalType": "uint16",
          "name": "",
          "type": "uint16"
        }
      ],
      "stateMutability": "view",
      "type": "function"
    },
    {
      "inputs": [],
      "name": "REPUBLIC_BPS",
      "outputs": [
        {
          "internalType": "uint16",
          "name": "",
          "type": "uint16"
        }
      ],
      "stateMutability": "view",
      "type": "function"
    },
    {
      "inputs": [],
      "name": "TAX_BPS",
      "outputs": [
        {
          "internalType": "uint16",
          "name": "",
          "type": "uint16"
        }
      ],
      "stateMutability": "view",
      "type": "function"
    },
    {
      "inputs": [],
      "name": "confederationBudgetAccountId",
      "outputs": [
        {
          "internalType": "bytes32",
          "name": "",
          "type": "bytes32"
        }
      ],
      "stateMutability": "view",
      "type": "function"
    },
    {
      "inputs": [
        {
          "internalType": "uint32",
          "name": "year",
          "type": "uint32"
        },
        {
          "internalType": "bytes32",
          "name": "taxpayerAccountId",
          "type": "bytes32"
        },
        {
          "internalType": "bytes32",
          "name": "republicKey",
          "type": "bytes32"
        },
        {
          "internalType": "uint256",
          "name": "profit",
          "type": "uint256"
        }
      ],
      "name": "declareProfit",
      "outputs": [],
      "stateMutability": "nonpayable",
      "type": "function"
    },
    {
      "inputs": [
        {
          "internalType": "uint32",
          "name": "year",
          "type": "uint32"
        },
        {
          "internalType": "bytes32",
          "name": "taxpayerAccountId",
          "type": "bytes32"
        }
      ],
      "name": "isCompliant",
      "outputs": [
        {
          "internalType": "bool",
          "name": "",
          "type": "bool"
        }
      ],
      "stateMutability": "view",
      "type": "function"
    },
    {
      "inputs": [],
      "name": "ledger",
      "outputs": [
        {
          "internalType": "contract ILedgerMove",
          "name": "",
          "type": "address"
        }
      ],
      "stateMutability": "view",
      "type": "function"
    },
    {
      "inputs": [],
      "name": "licenseRegistry",
      "outputs": [
        {
          "internalType": "contract IBankLicenseRegistryView",
          "name": "",
          "type": "address"
        }
      ],
      "stateMutability": "view",
      "type": "function"
    },
    {
      "inputs": [],
      "name": "owner",
      "outputs": [
        {
          "internalType": "address",
          "name": "",
          "type": "address"
        }
      ],
      "stateMutability": "view",
      "type": "function"
    },
    {
      "inputs": [
        {
          "internalType": "uint32",
          "name": "year",
          "type": "uint32"
        },
        {
          "internalType": "bytes32",
          "name": "taxpayerAccountId",
          "type": "bytes32"
        },
        {
          "internalType": "bytes32",
          "name": "republicKey",
          "type": "bytes32"
        },
        {
          "internalType": "address",
          "name": "asset",
          "type": "address"
        },
        {
          "internalType": "uint256",
          "name": "amount",
          "type": "uint256"
        },
        {
          "internalType": "bytes32",
          "name": "memo",
          "type": "bytes32"
        }
      ],
      "name": "payTax",
      "outputs": [],
      "stateMutability": "nonpayable",
      "type": "function"
    },
    {
      "inputs": [
        {
          "internalType": "uint32",
          "name": "",
          "type": "uint32"
        },
        {
          "internalType": "bytes32",
          "name": "",
          "type": "bytes32"
        }
      ],
      "name": "recordOf",
      "outputs": [
        {
          "internalType": "uint256",
          "name": "declaredProfit",
          "type": "uint256"
        },
        {
          "internalType": "uint256",
          "name": "taxDue",
          "type": "uint256"
        },
        {
          "internalType": "uint256",
          "name": "taxPaid",
          "type": "uint256"
        },
        {
          "internalType": "uint64",
          "name": "declaredAt",
          "type": "uint64"
        },
        {
          "internalType": "uint64",
          "name": "lastPaidAt",
          "type": "uint64"
        }
      ],
      "stateMutability": "view",
      "type": "function"
    },
    {
      "inputs": [
        {
          "internalType": "bytes32",
          "name": "",
          "type": "bytes32"
        }
      ],
      "name": "republicBudgetAccountIdOf",
      "outputs": [
        {
          "internalType": "bytes32",
          "name": "",
          "type": "bytes32"
        }
      ],
      "stateMutability": "view",
      "type": "function"
    },
    {
      "inputs": [
        {
          "internalType": "bytes32",
          "name": "republicKey",
          "type": "bytes32"
        },
        {
          "internalType": "bytes32",
          "name": "budgetAccountId",
          "type": "bytes32"
        }
      ],
      "name": "setRepublic",
      "outputs": [],
      "stateMutability": "nonpayable",
      "type": "function"
    }
  ],
  "bytecode": "0x60803461009c57601f610a0e38819003918201601f19168301916001600160401b038311848410176100a15780849260609460405283398101031261009c57610047816100b7565b906040610056602083016100b7565b9101519160018060a01b0319913383600054161760005560018060a01b038092168360015416176001551690600254161760025560035560405161094290816100cc8239f35b600080fd5b634e487b7160e01b600052604160045260246000fd5b51906001600160a01b038216820361009c5756fe608080604052600436101561001357600080fd5b600090813560e01c9081630a0f9ce3146108ae57508063531763f21461089157806356397c3514610868578063649bf0af146107ef57806368f4a786146107d257806375162e491461071257806382e1f506146102fd5780638da5cb5b146102d6578063af9d0ac21461018b578063b3ca3ed81461016e578063c2fda48714610145578063e17b2190146100dc5763fc06a77f146100b057600080fd5b346100d95760203660031901126100d95760406020916004358152600483522054604051908152f35b80fd5b50346100d95760403660031901126100d95780546001600160a01b031633036101145760043581526004602052602435604082205580f35b60405162461bcd60e51b81526020600482015260096024820152682727aa2fa7aba722a960b91b6044820152606490fd5b50346100d957806003193601126100d9576002546040516001600160a01b039091168152602090f35b50346100d957806003193601126100d95760206040516102bc8152f35b50346100d95760803660031901126100d9576101a56108ca565b602435604435916064359081156102a357838552600460205260408520541561026b5763ffffffff169081855260056020526040852083865260205260408520908082556103e8908181029181830403610255577f4dd0a699b17a093f792e15e6a80909d64db82d4fd2013a6dcd6b3e9683f629a892600361271060409404918260018201550167ffffffffffffffff421667ffffffffffffffff1982541617905582519182526020820152a480f35b634e487b7160e01b600052601160045260246000fd5b60405162461bcd60e51b815260206004820152601060248201526f1491541550931250d7d393d517d4d15560821b6044820152606490fd5b60405162461bcd60e51b815260206004820152600b60248201526a16915493d7d41493d1925560aa1b6044820152606490fd5b50346100d957806003193601126100d957546040516001600160a01b039091168152602090f35b50346100d95760c03660031901126100d9576103176108ca565b6064356001600160a01b038116900361070e57600254604051632950b0a960e21b81523360048201526084359291602090829060249082906001600160a01b03165afa90811561070357849161069a575b50156106615763ffffffff8116835260056020526040832060243584526020526040832091600183015490811561062b576002840154828110156105f75782039182116105e357818111156105db5750915b6102bc80840290841590858304148117156105c7576127109161012c91828702928784041417156105b3576044358752600460205286604081205460018060a01b036001541690813b1561059157604051632240a9ad60e01b8152602480356004830152810191909152606480356001600160a01b031660448301528685049082015260a480356084830152909291839190829084905af180156105a857610595575b5060015460035488916001600160a01b0316803b1561059157604051632240a9ad60e01b8152602480356004830152810192909252606480356001600160a01b031660448401528686049083015260a4803560848401528391839190829084905af180156105865761056e575b505060028401549386850180951161055a57906003828660028795015501805467ffffffffffffffff60401b4260401b169067ffffffffffffffff60401b19161790556040519687520460208601520460408401526060830152604435917ff008c99bc1d62cc6a8bc0064b83e4bb4183440733f77b82fdf426be94c13da06608063ffffffff602435941692a480f35b634e487b7160e01b88526011600452602488fd5b610577906108e2565b6105825786386104ca565b8680fd5b6040513d84823e3d90fd5b8280fd5b6105a1909791976108e2565b953861045d565b6040513d8a823e3d90fd5b634e487b7160e01b87526011600452602487fd5b634e487b7160e01b86526011600452602486fd5b9050916103ba565b634e487b7160e01b85526011600452602485fd5b60405162461bcd60e51b815260206004820152600c60248201526b1053149150511657d410525160a21b6044820152606490fd5b60405162461bcd60e51b815260206004820152600e60248201526d2727afa222a1a620a920aa24a7a760911b6044820152606490fd5b60405162461bcd60e51b81526020600482015260116024820152704e4f545f4c4943454e5345445f42414e4b60781b6044820152606490fd5b905060203d6020116106fc575b601f8101601f1916820167ffffffffffffffff8111838210176106e8576020918391604052810103126106e4575180151581036106e45738610368565b8380fd5b634e487b7160e01b86526041600452602486fd5b503d6106a7565b6040513d86823e3d90fd5b5080fd5b50346100d95760403660031901126100d95763ffffffff6107316108ca565b16815260056020526040812060243582526020526040812060405160a081019067ffffffffffffffff91818110838211176107be5760209450604052825481526080600184015492838684015260036002860154958660408601520154818116606085015260401c1691015280151591826107b3575b50506040519015158152f35b1015905038806107a7565b634e487b7160e01b85526041600452602485fd5b50346100d957806003193601126100d95760206040516103e88152f35b50346100d95760403660031901126100d957604060a09163ffffffff6108136108ca565b1681526005602052818120602435825260205220805490600181015490600360028201549101549067ffffffffffffffff9260405194855260208501526040840152818116606084015260401c166080820152f35b50346100d957806003193601126100d9576001546040516001600160a01b039091168152602090f35b50346100d957806003193601126100d957602060405161012c8152f35b90503461070e578160031936011261070e576020906003548152f35b6004359063ffffffff821682036108dd57565b600080fd5b67ffffffffffffffff81116108f657604052565b634e487b7160e01b600052604160045260246000fdfea2646970667358221220cc3d6b05ffdac015cd52a49ee62658643cf65cca6f394f4110eb74f2c5593c3f64736f6c63430008180033",
  "linkReferences": {},
  "deployedLinkReferences": {}
}