{
  "_format": "hh-sol-artifact-1",
  "contractName": "TumenAuthorityMock",
  "sourceName": "contracts/TumenAuthorityMock.sol",
  "abi": [
    {
      "inputs": [],
      "stateMutability": "nonpayable",
      "type": "constructor"
    },
    {
      "inputs": [
        {
          "internalType": "address",
          "name": "",
          "type": "address"
        }
      ],
      "name": "isTumen",
      "outputs": [
        {
          "internalType": "bool",
          "name": "",
          "type": "bool"
        }
      ],
      "stateMutability": "view",
      "type": "function"
    },
    {
      "inputs": [
        {
          "internalType": "address",
          "name": "who",
          "type": "address"
        }
      ],
      "name": "isTumenLeader",
      "outputs": [
        {
          "internalType": "bool",
          "name": "",
          "type": "bool"
        }
      ],
      "stateMutability": "view",
      "type": "function"
    },
    {
      "inputs": [],
      "name": "owner",
      "outputs": [
        {
          "internalType": "address",
          "name": "",
          "type": "address"
        }
      ],
      "stateMutability": "view",
      "type": "function"
    },
    {
      "inputs": [
        {
          "internalType": "address",
          "name": "who",
          "type": "address"
        },
        {
          "internalType": "bool",
          "name": "ok",
          "type": "bool"
        }
      ],
      "name": "setTumenLeader",
      "outputs": [],
      "stateMutability": "nonpayable",
      "type": "function"
    }
  ],
  "bytecode": "0x60808060405234610040573360018060a01b031960005416176000553360005260016020526040600020600160ff198254161790556101cf90816100468239f35b600080fdfe60806040818152600436101561001457600080fd5b600091823560e01c9081638b4dcf041461013f575080638da5cb5b146101185780639aaae14c146100db5763c6103a961461004e57600080fd5b346100d757806003193601126100d75761006661017e565b90602435918215158093036100d35783546001600160a01b039190821633036100a357168352600160205282209060ff8019835416911617905580f35b825162461bcd60e51b81526020600482015260096024820152682727aa2fa7aba722a960b91b6044820152606490fd5b8380fd5b5080fd5b50346100d75760203660031901126100d75760209160ff9082906001600160a01b0361010561017e565b1681526001855220541690519015158152f35b50346100d757816003193601126100d757905490516001600160a01b039091168152602090f35b9190503461017a57602036600319011261017a5760209260ff91906001600160a01b0361016a61017e565b1681526001855220541615158152f35b8280fd5b600435906001600160a01b038216820361019457565b600080fdfea2646970667358221220054dadb52ee93df10467c12ff2c7e099cee072b3955fa2d6bbea731677287ae864736f6c63430008180033",
  "linkReferences": {},
  "deployedLinkReferences": {}
}