{
  "_format": "hh-sol-artifact-1",
  "contractName": "SeatAccountFactory",
  "sourceName": "contracts/SeatAccount.sol",
  "abi": [
    {
      "inputs": [
        {
          "internalType": "address",
          "name": "_seatSbt",
          "type": "address"
        }
      ],
      "stateMutability": "nonpayable",
      "type": "constructor"
    },
    {
      "anonymous": false,
      "inputs": [
        {
          "indexed": true,
          "internalType": "uint256",
          "name": "seatId",
          "type": "uint256"
        },
        {
          "indexed": false,
          "internalType": "address",
          "name": "account",
          "type": "address"
        },
        {
          "indexed": false,
          "internalType": "address",
          "name": "controller",
          "type": "address"
        },
        {
          "indexed": false,
          "internalType": "bytes32",
          "name": "salt",
          "type": "bytes32"
        }
      ],
      "name": "AccountCreated",
      "type": "event"
    },
    {
      "inputs": [
        {
          "internalType": "uint256",
          "name": "seatId",
          "type": "uint256"
        },
        {
          "internalType": "address",
          "name": "controller",
          "type": "address"
        },
        {
          "internalType": "bytes32",
          "name": "salt",
          "type": "bytes32"
        }
      ],
      "name": "createAccount",
      "outputs": [
        {
          "internalType": "address",
          "name": "account",
          "type": "address"
        }
      ],
      "stateMutability": "nonpayable",
      "type": "function"
    },
    {
      "inputs": [
        {
          "internalType": "uint256",
          "name": "seatId",
          "type": "uint256"
        },
        {
          "internalType": "address",
          "name": "controller",
          "type": "address"
        },
        {
          "internalType": "bytes32",
          "name": "salt",
          "type": "bytes32"
        }
      ],
      "name": "predictAddress",
      "outputs": [
        {
          "internalType": "address",
          "name": "",
          "type": "address"
        }
      ],
      "stateMutability": "view",
      "type": "function"
    },
    {
      "inputs": [],
      "name": "seatSbt",
      "outputs": [
        {
          "internalType": "address",
          "name": "",
          "type": "address"
        }
      ],
      "stateMutability": "view",
      "type": "function"
    }
  ],
  "bytecode": "0x60a03461007757601f610ae038819003918201601f19168301916001600160401b0383118484101761007c5780849260209460405283398101031261007757516001600160a01b038116810361007757608052604051610a4d908161009382396080518181816084015281816101ad015261022b0152f35b600080fd5b634e487b7160e01b600052604160045260246000fdfe604060808152600436101561001357600080fd5b600090813560e01c91826315ee02c41461004d5750508063388841b11461004857637917fee81461004357600080fd5b6101dc565b610197565b346101655761005b36610168565b9391909361064661006e60208201610313565b806080526103d260a03982516001600160a01b037f00000000000000000000000000000000000000000000000000000000000000008116602083015260408201849052861660608083019190915281528190601f196100ce60808361034c565b6100f8865191826100ec60208201956100e68761037e565b906103a6565b0390810183528261034c565b519086f5938415610165575082516001600160a01b038581168252909516602086015284830152610161937f761503d83362c4a2a8f1946c19d4b21614b323ad8d892c75317a49c23183db0e90606090a2516001600160a01b0390911681529081906020820190565b0390f35b80fd5b606090600319011261019257600435906024356001600160a01b0381168103610192579060443590565b600080fd5b34610192576000366003190112610192576040517f00000000000000000000000000000000000000000000000000000000000000006001600160a01b03168152602090f35b34610192576101616102f96102ed6102de6100ec6101f936610168565b939161028a610296610646926102116020850161036e565b938085526103d26020860139604080516001600160a01b037f00000000000000000000000000000000000000000000000000000000000000008116602083015291810192909252949094166060808601919091528452601f199361027660808261034c565b6040519283916100e66020840180976103a6565b0384810183528261034c565b5190206040516001600160f81b0319602082019081523060601b6bffffffffffffffffffffffff19166021830152603582019690965260558101919091529283906075820190565b5190206001600160a01b031690565b6001600160a01b031690565b6040516001600160a01b0390911681529081906020820190565b601f80199101166080016080811067ffffffffffffffff82111761033657604052565b634e487b7160e01b600052604160045260246000fd5b90601f8019910116810190811067ffffffffffffffff82111761033657604052565b9061037c604051928361034c565b565b6080519060005b8281106103955750016000815290565b60a081015182820152602001610385565b9081519160005b8381106103be575050016000815290565b80602080928401015181850152016103ad56fe60c0346100bd57601f61064638819003918201601f19168301916001600160401b038311848410176100c2578084926060946040528339810103126100bd57610047816100d8565b906100596040602083015192016100d8565b60809290925260a052600080546001600160a01b0319166001600160a01b0390921691909117905560405161055990816100ed823960805181818161012a015281816103410152610403015260a05181818160f4015281816102bf015261030b0152f35b600080fd5b634e487b7160e01b600052604160045260246000fd5b51906001600160a01b03821682036100bd5756fe6080604081815260049182361015610022575b505050361561002057600080fd5b005b600092833560e01c918263388841b1146103ef5750816392eefe9b146102e2578163aaf34377146102a7578163b61d27f614610093575063f77c4791146100695780610012565b3461008f578160031936011261008f57905490516001600160a01b039091168152602090f35b5080fd5b8284346102a45760603660031901126102a4576100ae610432565b60243560443567ffffffffffffffff8082116102a057366023830112156102a057818701359081116102a05736602482840101116102a05785516331a9108f60e11b81527f000000000000000000000000000000000000000000000000000000000000000081890152602097906001600160a01b0389826024817f000000000000000000000000000000000000000000000000000000000000000085165afa918215610296578892610267575b50808854163314159182610259575b505061024b57858861017b846104a4565b936101888a51958661044d565b808552806024838701970187378401015283471061022e57506101dd9392859283925191855af13d15610223573d916101c0836104a4565b926101cd8751948561044d565b83523d858885013e9593956104c0565b82519382859384528251928382860152825b84811061020d57505050828201840152601f01601f19168101030190f35b81810183015188820188015287955082016101ef565b6060919593956104c0565b60449084884790519263cf47918160e01b84528301526024820152fd5b865163ea8e4eb560e01b8152fd5b90915016331415898061016a565b6102889192508a3d8c1161028f575b610280818361044d565b810190610485565b908a61015b565b503d610276565b89513d8a823e3d90fd5b8480fd5b80fd5b50503461008f578160031936011261008f57602090517f00000000000000000000000000000000000000000000000000000000000000008152f35b9050346103eb5760203660031901126103eb576102fd610432565b82516331a9108f60e11b81527f000000000000000000000000000000000000000000000000000000000000000081840152926001600160a01b0392906020856024817f000000000000000000000000000000000000000000000000000000000000000088165afa9485156103e15786956103c0575b508554948480871633141591826103b2575b50506103a557505016906bffffffffffffffffffffffff60a01b1617815580f35b5163ea8e4eb560e01b8152fd5b909150163314158438610384565b6103da91955060203d60201161028f57610280818361044d565b9338610372565b81513d88823e3d90fd5b8280fd5b84903461008f578160031936011261008f577f00000000000000000000000000000000000000000000000000000000000000006001600160a01b03168152602090f35b600435906001600160a01b038216820361044857565b600080fd5b90601f8019910116810190811067ffffffffffffffff82111761046f57604052565b634e487b7160e01b600052604160045260246000fd5b9081602091031261044857516001600160a01b03811681036104485790565b67ffffffffffffffff811161046f57601f01601f191660200190565b906104e757508051156104d557602081519101fd5b60405163d6bda27560e01b8152600490fd5b8151158061051a575b6104f8575090565b604051639996b31560e01b81526001600160a01b039091166004820152602490fd5b50803b156104f056fea26469706673582212204aabe0a501790c1a62ef0555b6b222d8ae192fba3fe0319b5a89dd89bda6435664736f6c63430008180033a26469706673582212209e45a1f1432023c49758eaf7e3276d4a25aab67c384138911bf94d9edb31781e64736f6c63430008180033",
  "linkReferences": {},
  "deployedLinkReferences": {}
}