{
  "_format": "hh-sol-artifact-1",
  "contractName": "SeatAccount",
  "sourceName": "contracts/SeatAccount.sol",
  "abi": [
    {
      "inputs": [
        {
          "internalType": "address",
          "name": "_seatSbt",
          "type": "address"
        },
        {
          "internalType": "uint256",
          "name": "_seatId",
          "type": "uint256"
        },
        {
          "internalType": "address",
          "name": "_controller",
          "type": "address"
        }
      ],
      "stateMutability": "nonpayable",
      "type": "constructor"
    },
    {
      "inputs": [
        {
          "internalType": "address",
          "name": "target",
          "type": "address"
        }
      ],
      "name": "AddressEmptyCode",
      "type": "error"
    },
    {
      "inputs": [],
      "name": "FailedCall",
      "type": "error"
    },
    {
      "inputs": [
        {
          "internalType": "uint256",
          "name": "balance",
          "type": "uint256"
        },
        {
          "internalType": "uint256",
          "name": "needed",
          "type": "uint256"
        }
      ],
      "name": "InsufficientBalance",
      "type": "error"
    },
    {
      "inputs": [],
      "name": "NotAuthorized",
      "type": "error"
    },
    {
      "inputs": [],
      "name": "controller",
      "outputs": [
        {
          "internalType": "address",
          "name": "",
          "type": "address"
        }
      ],
      "stateMutability": "view",
      "type": "function"
    },
    {
      "inputs": [
        {
          "internalType": "address",
          "name": "to",
          "type": "address"
        },
        {
          "internalType": "uint256",
          "name": "value",
          "type": "uint256"
        },
        {
          "internalType": "bytes",
          "name": "data",
          "type": "bytes"
        }
      ],
      "name": "execute",
      "outputs": [
        {
          "internalType": "bytes",
          "name": "",
          "type": "bytes"
        }
      ],
      "stateMutability": "nonpayable",
      "type": "function"
    },
    {
      "inputs": [],
      "name": "seatId",
      "outputs": [
        {
          "internalType": "uint256",
          "name": "",
          "type": "uint256"
        }
      ],
      "stateMutability": "view",
      "type": "function"
    },
    {
      "inputs": [],
      "name": "seatSbt",
      "outputs": [
        {
          "internalType": "address",
          "name": "",
          "type": "address"
        }
      ],
      "stateMutability": "view",
      "type": "function"
    },
    {
      "inputs": [
        {
          "internalType": "address",
          "name": "newController",
          "type": "address"
        }
      ],
      "name": "setController",
      "outputs": [],
      "stateMutability": "nonpayable",
      "type": "function"
    },
    {
      "stateMutability": "payable",
      "type": "receive"
    }
  ],
  "bytecode": "0x60c0346100bd57601f61064638819003918201601f19168301916001600160401b038311848410176100c2578084926060946040528339810103126100bd57610047816100d8565b906100596040602083015192016100d8565b60809290925260a052600080546001600160a01b0319166001600160a01b0390921691909117905560405161055990816100ed823960805181818161012a015281816103410152610403015260a05181818160f4015281816102bf015261030b0152f35b600080fd5b634e487b7160e01b600052604160045260246000fd5b51906001600160a01b03821682036100bd5756fe6080604081815260049182361015610022575b505050361561002057600080fd5b005b600092833560e01c918263388841b1146103ef5750816392eefe9b146102e2578163aaf34377146102a7578163b61d27f614610093575063f77c4791146100695780610012565b3461008f578160031936011261008f57905490516001600160a01b039091168152602090f35b5080fd5b8284346102a45760603660031901126102a4576100ae610432565b60243560443567ffffffffffffffff8082116102a057366023830112156102a057818701359081116102a05736602482840101116102a05785516331a9108f60e11b81527f000000000000000000000000000000000000000000000000000000000000000081890152602097906001600160a01b0389826024817f000000000000000000000000000000000000000000000000000000000000000085165afa918215610296578892610267575b50808854163314159182610259575b505061024b57858861017b846104a4565b936101888a51958661044d565b808552806024838701970187378401015283471061022e57506101dd9392859283925191855af13d15610223573d916101c0836104a4565b926101cd8751948561044d565b83523d858885013e9593956104c0565b82519382859384528251928382860152825b84811061020d57505050828201840152601f01601f19168101030190f35b81810183015188820188015287955082016101ef565b6060919593956104c0565b60449084884790519263cf47918160e01b84528301526024820152fd5b865163ea8e4eb560e01b8152fd5b90915016331415898061016a565b6102889192508a3d8c1161028f575b610280818361044d565b810190610485565b908a61015b565b503d610276565b89513d8a823e3d90fd5b8480fd5b80fd5b50503461008f578160031936011261008f57602090517f00000000000000000000000000000000000000000000000000000000000000008152f35b9050346103eb5760203660031901126103eb576102fd610432565b82516331a9108f60e11b81527f000000000000000000000000000000000000000000000000000000000000000081840152926001600160a01b0392906020856024817f000000000000000000000000000000000000000000000000000000000000000088165afa9485156103e15786956103c0575b508554948480871633141591826103b2575b50506103a557505016906bffffffffffffffffffffffff60a01b1617815580f35b5163ea8e4eb560e01b8152fd5b909150163314158438610384565b6103da91955060203d60201161028f57610280818361044d565b9338610372565b81513d88823e3d90fd5b8280fd5b84903461008f578160031936011261008f577f00000000000000000000000000000000000000000000000000000000000000006001600160a01b03168152602090f35b600435906001600160a01b038216820361044857565b600080fd5b90601f8019910116810190811067ffffffffffffffff82111761046f57604052565b634e487b7160e01b600052604160045260246000fd5b9081602091031261044857516001600160a01b03811681036104485790565b67ffffffffffffffff811161046f57601f01601f191660200190565b906104e757508051156104d557602081519101fd5b60405163d6bda27560e01b8152600490fd5b8151158061051a575b6104f8575090565b604051639996b31560e01b81526001600160a01b039091166004820152602490fd5b50803b156104f056fea26469706673582212204aabe0a501790c1a62ef0555b6b222d8ae192fba3fe0319b5a89dd89bda6435664736f6c63430008180033",
  "linkReferences": {},
  "deployedLinkReferences": {}
}