{
  "_format": "hh-sol-artifact-1",
  "contractName": "CentralBank",
  "sourceName": "contracts/CentralBank.sol",
  "abi": [
    {
      "inputs": [
        {
          "internalType": "address",
          "name": "altanToken",
          "type": "address"
        }
      ],
      "stateMutability": "nonpayable",
      "type": "constructor"
    },
    {
      "inputs": [],
      "name": "AccessControlBadConfirmation",
      "type": "error"
    },
    {
      "inputs": [
        {
          "internalType": "address",
          "name": "account",
          "type": "address"
        },
        {
          "internalType": "bytes32",
          "name": "neededRole",
          "type": "bytes32"
        }
      ],
      "name": "AccessControlUnauthorizedAccount",
      "type": "error"
    },
    {
      "inputs": [],
      "name": "ZERO_ADDRESS",
      "type": "error"
    },
    {
      "anonymous": false,
      "inputs": [
        {
          "indexed": true,
          "internalType": "address",
          "name": "to",
          "type": "address"
        },
        {
          "indexed": false,
          "internalType": "uint256",
          "name": "amount",
          "type": "uint256"
        },
        {
          "indexed": true,
          "internalType": "address",
          "name": "issuer",
          "type": "address"
        }
      ],
      "name": "Issued",
      "type": "event"
    },
    {
      "anonymous": false,
      "inputs": [
        {
          "indexed": true,
          "internalType": "bytes32",
          "name": "role",
          "type": "bytes32"
        },
        {
          "indexed": true,
          "internalType": "bytes32",
          "name": "previousAdminRole",
          "type": "bytes32"
        },
        {
          "indexed": true,
          "internalType": "bytes32",
          "name": "newAdminRole",
          "type": "bytes32"
        }
      ],
      "name": "RoleAdminChanged",
      "type": "event"
    },
    {
      "anonymous": false,
      "inputs": [
        {
          "indexed": true,
          "internalType": "bytes32",
          "name": "role",
          "type": "bytes32"
        },
        {
          "indexed": true,
          "internalType": "address",
          "name": "account",
          "type": "address"
        },
        {
          "indexed": true,
          "internalType": "address",
          "name": "sender",
          "type": "address"
        }
      ],
      "name": "RoleGranted",
      "type": "event"
    },
    {
      "anonymous": false,
      "inputs": [
        {
          "indexed": true,
          "internalType": "bytes32",
          "name": "role",
          "type": "bytes32"
        },
        {
          "indexed": true,
          "internalType": "address",
          "name": "account",
          "type": "address"
        },
        {
          "indexed": true,
          "internalType": "address",
          "name": "sender",
          "type": "address"
        }
      ],
      "name": "RoleRevoked",
      "type": "event"
    },
    {
      "anonymous": false,
      "inputs": [
        {
          "indexed": false,
          "internalType": "uint256",
          "name": "oldAmount",
          "type": "uint256"
        },
        {
          "indexed": false,
          "internalType": "uint256",
          "name": "newAmount",
          "type": "uint256"
        }
      ],
      "name": "TenRewardPerSeatUpdated",
      "type": "event"
    },
    {
      "inputs": [],
      "name": "DEFAULT_ADMIN_ROLE",
      "outputs": [
        {
          "internalType": "bytes32",
          "name": "",
          "type": "bytes32"
        }
      ],
      "stateMutability": "view",
      "type": "function"
    },
    {
      "inputs": [],
      "name": "ISSUER_ROLE",
      "outputs": [
        {
          "internalType": "bytes32",
          "name": "",
          "type": "bytes32"
        }
      ],
      "stateMutability": "view",
      "type": "function"
    },
    {
      "inputs": [],
      "name": "altan",
      "outputs": [
        {
          "internalType": "contract Altan",
          "name": "",
          "type": "address"
        }
      ],
      "stateMutability": "view",
      "type": "function"
    },
    {
      "inputs": [
        {
          "internalType": "bytes32",
          "name": "role",
          "type": "bytes32"
        }
      ],
      "name": "getRoleAdmin",
      "outputs": [
        {
          "internalType": "bytes32",
          "name": "",
          "type": "bytes32"
        }
      ],
      "stateMutability": "view",
      "type": "function"
    },
    {
      "inputs": [
        {
          "internalType": "bytes32",
          "name": "role",
          "type": "bytes32"
        },
        {
          "internalType": "address",
          "name": "account",
          "type": "address"
        }
      ],
      "name": "grantRole",
      "outputs": [],
      "stateMutability": "nonpayable",
      "type": "function"
    },
    {
      "inputs": [
        {
          "internalType": "bytes32",
          "name": "role",
          "type": "bytes32"
        },
        {
          "internalType": "address",
          "name": "account",
          "type": "address"
        }
      ],
      "name": "hasRole",
      "outputs": [
        {
          "internalType": "bool",
          "name": "",
          "type": "bool"
        }
      ],
      "stateMutability": "view",
      "type": "function"
    },
    {
      "inputs": [
        {
          "internalType": "address",
          "name": "to",
          "type": "address"
        },
        {
          "internalType": "uint256",
          "name": "amount",
          "type": "uint256"
        }
      ],
      "name": "issue",
      "outputs": [],
      "stateMutability": "nonpayable",
      "type": "function"
    },
    {
      "inputs": [
        {
          "internalType": "address",
          "name": "bankAccount",
          "type": "address"
        }
      ],
      "name": "issueTenReward",
      "outputs": [],
      "stateMutability": "nonpayable",
      "type": "function"
    },
    {
      "inputs": [
        {
          "internalType": "bytes32",
          "name": "role",
          "type": "bytes32"
        },
        {
          "internalType": "address",
          "name": "callerConfirmation",
          "type": "address"
        }
      ],
      "name": "renounceRole",
      "outputs": [],
      "stateMutability": "nonpayable",
      "type": "function"
    },
    {
      "inputs": [
        {
          "internalType": "bytes32",
          "name": "role",
          "type": "bytes32"
        },
        {
          "internalType": "address",
          "name": "account",
          "type": "address"
        }
      ],
      "name": "revokeRole",
      "outputs": [],
      "stateMutability": "nonpayable",
      "type": "function"
    },
    {
      "inputs": [
        {
          "internalType": "uint256",
          "name": "amount",
          "type": "uint256"
        }
      ],
      "name": "setTenRewardPerSeat",
      "outputs": [],
      "stateMutability": "nonpayable",
      "type": "function"
    },
    {
      "inputs": [
        {
          "internalType": "bytes4",
          "name": "interfaceId",
          "type": "bytes4"
        }
      ],
      "name": "supportsInterface",
      "outputs": [
        {
          "internalType": "bool",
          "name": "",
          "type": "bool"
        }
      ],
      "stateMutability": "view",
      "type": "function"
    },
    {
      "inputs": [],
      "name": "tenRewardPerSeat",
      "outputs": [
        {
          "internalType": "uint256",
          "name": "",
          "type": "uint256"
        }
      ],
      "stateMutability": "view",
      "type": "function"
    }
  ],
  "bytecode": "0x60a0346100b257601f61099f38819003918201601f19168301916001600160401b038311848410176100b7578084926020946040528339810103126100b257516001600160a01b038116908190036100b25768056bc75e2d6310000060015580156100a057608052610070336100cd565b5061007a3361014b565b5060405161079390816101ec823960805181818160f10152818161023101526102e40152f35b60405163538ba4f960e01b8152600490fd5b600080fd5b634e487b7160e01b600052604160045260246000fd5b6001600160a01b031660008181527fad3228b676f7d3cd4284a5443f17f1962b36e491b30a40b2405849e597ba5fb5602052604081205490919060ff1661014757818052816020526040822081835260205260408220600160ff19825416179055339160008051602061097f8339815191528180a4600190565b5090565b6001600160a01b031660008181527ff9c002f57bb53b4d861ae1ef1369a8087d06c8210e4846f897918d0e534663ce60205260408120549091907f114e74f6ea3bd819998f78687bfcb11b140da08e9b7d222fa9c1f1ba1f2aa1229060ff166101e657808352826020526040832082845260205260408320600160ff1982541617905560008051602061097f833981519152339380a4600190565b50509056fe608060408181526004908136101561001657600080fd5b600092833560e01c90816301ffc9a71461051b57508063248a9ca3146104f15780632f2ff15d146104c957806336568abe14610482578063579dd14c146103fd57806363b42e4d146103de57806382aefa24146103a3578063867904b4146102a557806391d1485414610260578063965ae85c1461021c578063a217fddf146101fd578063d547741f146101c05763ed34dc91146100b357600080fd5b346101bc5760203660031901126101bc576100cc61058a565b906100d56105ca565b6001600160a01b03928284169283156101ad57908591600154957f00000000000000000000000000000000000000000000000000000000000000001691823b1561019f5784516340c10f1960e01b81526001600160a01b03909216908201908152602081018790529091839183919082908490829060400103925af180156101a35761018b575b5050519182527f07a8b7e21e59ed69b567ce364407d115c90904e8305b93139e4987619a8316dd60203393a380f35b610194906105a0565b61019f57833861015c565b8380fd5b83513d84823e3d90fd5b50905163538ba4f960e01b8152fd5b8280fd5b50346101bc57806003193601126101bc576101f991356101f460016101e361056f565b938387528660205286200154610644565b6106e8565b5080f35b83823461021857816003193601126102185751908152602090f35b5080fd5b838234610218578160031936011261021857517f00000000000000000000000000000000000000000000000000000000000000006001600160a01b03168152602090f35b5090346101bc57816003193601126101bc578160209361027e61056f565b92358152808552209060018060a01b0316600052825260ff81600020541690519015158152f35b5090346101bc57816003193601126101bc576102bf61058a565b91602435926102cc6105ca565b6001600160a01b0381811693908415610394579086917f000000000000000000000000000000000000000000000000000000000000000016803b156101bc5784516340c10f1960e01b81526001600160a01b0390941691840191825260208201879052839182908490829060400103925af1801561038a57610377575b50519182527f07a8b7e21e59ed69b567ce364407d115c90904e8305b93139e4987619a8316dd60203393a380f35b610383909491946105a0565b9238610349565b82513d87823e3d90fd5b50825163538ba4f960e01b8152fd5b838234610218578160031936011261021857602090517f114e74f6ea3bd819998f78687bfcb11b140da08e9b7d222fa9c1f1ba1f2aa1228152f35b8382346102185781600319360112610218576020906001549051908152f35b50346101bc5760203660031901126101bc578135918380528360205281842033855260205260ff82852054161561046657507f96207a596ab9faf750840f6905389bcbf3ea7be6e8325fd25c9b8577070b6437906001548151908152836020820152a160015580f35b83604492519163e2517d3f60e01b835233908301526024820152fd5b5082903461021857806003193601126102185761049d61056f565b90336001600160a01b038316036104ba57506101f99192356106e8565b5163334bd91960e11b81528390fd5b50346101bc57806003193601126101bc576101f991356104ec60016101e361056f565b61066a565b5090346101bc5760203660031901126101bc57816020936001923581528085522001549051908152f35b849084346101bc5760203660031901126101bc573563ffffffff60e01b81168091036101bc5760209250637965db0b60e01b811490811561055e575b5015158152f35b6301ffc9a760e01b14905083610557565b602435906001600160a01b038216820361058557565b600080fd5b600435906001600160a01b038216820361058557565b67ffffffffffffffff81116105b457604052565b634e487b7160e01b600052604160045260246000fd5b3360009081527ff9c002f57bb53b4d861ae1ef1369a8087d06c8210e4846f897918d0e534663ce60205260409020547f114e74f6ea3bd819998f78687bfcb11b140da08e9b7d222fa9c1f1ba1f2aa1229060ff16156106265750565b6044906040519063e2517d3f60e01b82523360048301526024820152fd5b80600052600060205260406000203360005260205260ff60406000205416156106265750565b9060009180835282602052604083209160018060a01b03169182845260205260ff604084205416156000146106e357808352826020526040832082845260205260408320600160ff198254161790557f2f8788117e7eff1d82e926ec794901d17c78024a50270940304540a733656f0d339380a4600190565b505090565b9060009180835282602052604083209160018060a01b03169182845260205260ff6040842054166000146106e35780835282602052604083208284526020526040832060ff1981541690557ff6391f5c32d9c69d2a47ea670b442974b53935d1edc7fd64eb21e047a839171b339380a460019056fea26469706673582212201163ca5284e752285218fd62b30591f51eca0e1e8532d210e900fbe3154b334264736f6c634300081800332f8788117e7eff1d82e926ec794901d17c78024a50270940304540a733656f0d",
  "linkReferences": {},
  "deployedLinkReferences": {}
}