{
  "_format": "hh-sol-artifact-1",
  "contractName": "CentralBank",
  "sourceName": "contracts/CentralBank.sol",
  "abi": [
    {
      "inputs": [
        {
          "internalType": "address",
          "name": "altanToken",
          "type": "address"
        }
      ],
      "stateMutability": "nonpayable",
      "type": "constructor"
    },
    {
      "inputs": [],
      "name": "AccessControlBadConfirmation",
      "type": "error"
    },
    {
      "inputs": [
        {
          "internalType": "address",
          "name": "account",
          "type": "address"
        },
        {
          "internalType": "bytes32",
          "name": "neededRole",
          "type": "bytes32"
        }
      ],
      "name": "AccessControlUnauthorizedAccount",
      "type": "error"
    },
    {
      "inputs": [],
      "name": "ZERO_ADDRESS",
      "type": "error"
    },
    {
      "anonymous": false,
      "inputs": [
        {
          "indexed": true,
          "internalType": "address",
          "name": "to",
          "type": "address"
        },
        {
          "indexed": false,
          "internalType": "uint256",
          "name": "amount",
          "type": "uint256"
        },
        {
          "indexed": true,
          "internalType": "address",
          "name": "issuer",
          "type": "address"
        }
      ],
      "name": "Issued",
      "type": "event"
    },
    {
      "anonymous": false,
      "inputs": [
        {
          "indexed": true,
          "internalType": "bytes32",
          "name": "role",
          "type": "bytes32"
        },
        {
          "indexed": true,
          "internalType": "bytes32",
          "name": "previousAdminRole",
          "type": "bytes32"
        },
        {
          "indexed": true,
          "internalType": "bytes32",
          "name": "newAdminRole",
          "type": "bytes32"
        }
      ],
      "name": "RoleAdminChanged",
      "type": "event"
    },
    {
      "anonymous": false,
      "inputs": [
        {
          "indexed": true,
          "internalType": "bytes32",
          "name": "role",
          "type": "bytes32"
        },
        {
          "indexed": true,
          "internalType": "address",
          "name": "account",
          "type": "address"
        },
        {
          "indexed": true,
          "internalType": "address",
          "name": "sender",
          "type": "address"
        }
      ],
      "name": "RoleGranted",
      "type": "event"
    },
    {
      "anonymous": false,
      "inputs": [
        {
          "indexed": true,
          "internalType": "bytes32",
          "name": "role",
          "type": "bytes32"
        },
        {
          "indexed": true,
          "internalType": "address",
          "name": "account",
          "type": "address"
        },
        {
          "indexed": true,
          "internalType": "address",
          "name": "sender",
          "type": "address"
        }
      ],
      "name": "RoleRevoked",
      "type": "event"
    },
    {
      "anonymous": false,
      "inputs": [
        {
          "indexed": false,
          "internalType": "uint256",
          "name": "oldAmount",
          "type": "uint256"
        },
        {
          "indexed": false,
          "internalType": "uint256",
          "name": "newAmount",
          "type": "uint256"
        }
      ],
      "name": "TenRewardPerSeatUpdated",
      "type": "event"
    },
    {
      "inputs": [],
      "name": "DEFAULT_ADMIN_ROLE",
      "outputs": [
        {
          "internalType": "bytes32",
          "name": "",
          "type": "bytes32"
        }
      ],
      "stateMutability": "view",
      "type": "function"
    },
    {
      "inputs": [],
      "name": "ISSUER_ROLE",
      "outputs": [
        {
          "internalType": "bytes32",
          "name": "",
          "type": "bytes32"
        }
      ],
      "stateMutability": "view",
      "type": "function"
    },
    {
      "inputs": [],
      "name": "altan",
      "outputs": [
        {
          "internalType": "contract Altan",
          "name": "",
          "type": "address"
        }
      ],
      "stateMutability": "view",
      "type": "function"
    },
    {
      "inputs": [
        {
          "internalType": "bytes32",
          "name": "role",
          "type": "bytes32"
        }
      ],
      "name": "getRoleAdmin",
      "outputs": [
        {
          "internalType": "bytes32",
          "name": "",
          "type": "bytes32"
        }
      ],
      "stateMutability": "view",
      "type": "function"
    },
    {
      "inputs": [
        {
          "internalType": "bytes32",
          "name": "role",
          "type": "bytes32"
        },
        {
          "internalType": "address",
          "name": "account",
          "type": "address"
        }
      ],
      "name": "grantRole",
      "outputs": [],
      "stateMutability": "nonpayable",
      "type": "function"
    },
    {
      "inputs": [
        {
          "internalType": "bytes32",
          "name": "role",
          "type": "bytes32"
        },
        {
          "internalType": "address",
          "name": "account",
          "type": "address"
        }
      ],
      "name": "hasRole",
      "outputs": [
        {
          "internalType": "bool",
          "name": "",
          "type": "bool"
        }
      ],
      "stateMutability": "view",
      "type": "function"
    },
    {
      "inputs": [
        {
          "internalType": "address",
          "name": "to",
          "type": "address"
        },
        {
          "internalType": "uint256",
          "name": "amount",
          "type": "uint256"
        }
      ],
      "name": "issue",
      "outputs": [],
      "stateMutability": "nonpayable",
      "type": "function"
    },
    {
      "inputs": [
        {
          "internalType": "address",
          "name": "bankAccount",
          "type": "address"
        }
      ],
      "name": "issueTenReward",
      "outputs": [],
      "stateMutability": "nonpayable",
      "type": "function"
    },
    {
      "inputs": [
        {
          "internalType": "bytes32",
          "name": "role",
          "type": "bytes32"
        },
        {
          "internalType": "address",
          "name": "callerConfirmation",
          "type": "address"
        }
      ],
      "name": "renounceRole",
      "outputs": [],
      "stateMutability": "nonpayable",
      "type": "function"
    },
    {
      "inputs": [
        {
          "internalType": "bytes32",
          "name": "role",
          "type": "bytes32"
        },
        {
          "internalType": "address",
          "name": "account",
          "type": "address"
        }
      ],
      "name": "revokeRole",
      "outputs": [],
      "stateMutability": "nonpayable",
      "type": "function"
    },
    {
      "inputs": [
        {
          "internalType": "uint256",
          "name": "amount",
          "type": "uint256"
        }
      ],
      "name": "setTenRewardPerSeat",
      "outputs": [],
      "stateMutability": "nonpayable",
      "type": "function"
    },
    {
      "inputs": [
        {
          "internalType": "bytes4",
          "name": "interfaceId",
          "type": "bytes4"
        }
      ],
      "name": "supportsInterface",
      "outputs": [
        {
          "internalType": "bool",
          "name": "",
          "type": "bool"
        }
      ],
      "stateMutability": "view",
      "type": "function"
    },
    {
      "inputs": [],
      "name": "tenRewardPerSeat",
      "outputs": [
        {
          "internalType": "uint256",
          "name": "",
          "type": "uint256"
        }
      ],
      "stateMutability": "view",
      "type": "function"
    }
  ],
  "bytecode": "0x60a060405268056bc75e2d6310000060015534801561001d57600080fd5b5060405161099638038061099683398101604081905261003c91610159565b6001600160a01b0381166100635760405163538ba4f960e01b815260040160405180910390fd5b6001600160a01b03811660805261007b6000336100ad565b506100a67f114e74f6ea3bd819998f78687bfcb11b140da08e9b7d222fa9c1f1ba1f2aa122336100ad565b5050610189565b6000828152602081815260408083206001600160a01b038516845290915281205460ff1661014f576000838152602081815260408083206001600160a01b03861684529091529020805460ff191660011790556101073390565b6001600160a01b0316826001600160a01b0316847f2f8788117e7eff1d82e926ec794901d17c78024a50270940304540a733656f0d60405160405180910390a4506001610153565b5060005b92915050565b60006020828403121561016b57600080fd5b81516001600160a01b038116811461018257600080fd5b9392505050565b6080516107e46101b2600039600081816101c30152818161038901526104f301526107e46000f3fe608060405234801561001057600080fd5b50600436106100cf5760003560e01c806382aefa241161008c578063965ae85c11610066578063965ae85c146101be578063a217fddf146101fd578063d547741f14610205578063ed34dc911461021857600080fd5b806382aefa2414610171578063867904b41461019857806391d14854146101ab57600080fd5b806301ffc9a7146100d4578063248a9ca3146100fc5780632f2ff15d1461012d57806336568abe14610142578063579dd14c1461015557806363b42e4d14610168575b600080fd5b6100e76100e23660046106d7565b61022b565b60405190151581526020015b60405180910390f35b61011f61010a366004610708565b60009081526020819052604090206001015490565b6040519081526020016100f3565b61014061013b36600461073d565b610262565b005b61014061015036600461073d565b61028d565b610140610163366004610708565b6102c5565b61011f60015481565b61011f7f114e74f6ea3bd819998f78687bfcb11b140da08e9b7d222fa9c1f1ba1f2aa12281565b6101406101a6366004610769565b610312565b6100e76101b936600461073d565b61042b565b6101e57f000000000000000000000000000000000000000000000000000000000000000081565b6040516001600160a01b0390911681526020016100f3565b61011f600081565b61014061021336600461073d565b610454565b610140610226366004610793565b610479565b60006001600160e01b03198216637965db0b60e01b148061025c57506301ffc9a760e01b6001600160e01b03198316145b92915050565b60008281526020819052604090206001015461027d8161058c565b6102878383610599565b50505050565b6001600160a01b03811633146102b65760405163334bd91960e11b815260040160405180910390fd5b6102c0828261062b565b505050565b60006102d08161058c565b60015460408051918252602082018490527f96207a596ab9faf750840f6905389bcbf3ea7be6e8325fd25c9b8577070b6437910160405180910390a150600155565b7f114e74f6ea3bd819998f78687bfcb11b140da08e9b7d222fa9c1f1ba1f2aa12261033c8161058c565b6001600160a01b0383166103635760405163538ba4f960e01b815260040160405180910390fd5b6040516340c10f1960e01b81526001600160a01b038481166004830152602482018490527f000000000000000000000000000000000000000000000000000000000000000016906340c10f1990604401600060405180830381600087803b1580156103cd57600080fd5b505af11580156103e1573d6000803e3d6000fd5b50506040518481523392506001600160a01b03861691507f07a8b7e21e59ed69b567ce364407d115c90904e8305b93139e4987619a8316dd906020015b60405180910390a3505050565b6000918252602082815260408084206001600160a01b0393909316845291905290205460ff1690565b60008281526020819052604090206001015461046f8161058c565b610287838361062b565b7f114e74f6ea3bd819998f78687bfcb11b140da08e9b7d222fa9c1f1ba1f2aa1226104a38161058c565b6001600160a01b0382166104ca5760405163538ba4f960e01b815260040160405180910390fd5b6001546040516340c10f1960e01b81526001600160a01b038481166004830152602482018390527f000000000000000000000000000000000000000000000000000000000000000016906340c10f1990604401600060405180830381600087803b15801561053757600080fd5b505af115801561054b573d6000803e3d6000fd5b50506040518381523392506001600160a01b03861691507f07a8b7e21e59ed69b567ce364407d115c90904e8305b93139e4987619a8316dd9060200161041e565b6105968133610696565b50565b60006105a5838361042b565b610623576000838152602081815260408083206001600160a01b03861684529091529020805460ff191660011790556105db3390565b6001600160a01b0316826001600160a01b0316847f2f8788117e7eff1d82e926ec794901d17c78024a50270940304540a733656f0d60405160405180910390a450600161025c565b50600061025c565b6000610637838361042b565b15610623576000838152602081815260408083206001600160a01b0386168085529252808320805460ff1916905551339286917ff6391f5c32d9c69d2a47ea670b442974b53935d1edc7fd64eb21e047a839171b9190a450600161025c565b6106a0828261042b565b6106d35760405163e2517d3f60e01b81526001600160a01b03821660048201526024810183905260440160405180910390fd5b5050565b6000602082840312156106e957600080fd5b81356001600160e01b03198116811461070157600080fd5b9392505050565b60006020828403121561071a57600080fd5b5035919050565b80356001600160a01b038116811461073857600080fd5b919050565b6000806040838503121561075057600080fd5b8235915061076060208401610721565b90509250929050565b6000806040838503121561077c57600080fd5b61078583610721565b946020939093013593505050565b6000602082840312156107a557600080fd5b6107018261072156fea2646970667358221220964b6298eda699951bb4f4c6b2e6257cf2c125ce1b125eb8831e2767f1a68f7a64736f6c63430008180033",
  "linkReferences": {},
  "deployedLinkReferences": {}
}