{
  "_format": "hh-sol-artifact-1",
  "contractName": "DocumentRegistry",
  "sourceName": "contracts/DocumentRegistry.sol",
  "abi": [
    {
      "inputs": [],
      "stateMutability": "nonpayable",
      "type": "constructor"
    },
    {
      "inputs": [
        {
          "internalType": "uint256",
          "name": "docId",
          "type": "uint256"
        }
      ],
      "name": "DocNotFound",
      "type": "error"
    },
    {
      "inputs": [],
      "name": "NotOwner",
      "type": "error"
    },
    {
      "anonymous": false,
      "inputs": [
        {
          "indexed": true,
          "internalType": "uint256",
          "name": "docId",
          "type": "uint256"
        },
        {
          "indexed": false,
          "internalType": "enum DocumentRegistry.Grade",
          "name": "grade",
          "type": "uint8"
        },
        {
          "indexed": false,
          "internalType": "uint256",
          "name": "scopeId",
          "type": "uint256"
        },
        {
          "indexed": true,
          "internalType": "address",
          "name": "notary",
          "type": "address"
        },
        {
          "indexed": true,
          "internalType": "address",
          "name": "docAddress",
          "type": "address"
        },
        {
          "indexed": false,
          "internalType": "bytes32",
          "name": "docHash",
          "type": "bytes32"
        }
      ],
      "name": "Issued",
      "type": "event"
    },
    {
      "anonymous": false,
      "inputs": [
        {
          "indexed": true,
          "internalType": "uint256",
          "name": "docId",
          "type": "uint256"
        },
        {
          "indexed": false,
          "internalType": "enum DocumentRegistry.Status",
          "name": "status",
          "type": "uint8"
        }
      ],
      "name": "StatusChanged",
      "type": "event"
    },
    {
      "inputs": [
        {
          "internalType": "uint256",
          "name": "",
          "type": "uint256"
        }
      ],
      "name": "docs",
      "outputs": [
        {
          "internalType": "enum DocumentRegistry.Grade",
          "name": "grade",
          "type": "uint8"
        },
        {
          "internalType": "uint256",
          "name": "scopeId",
          "type": "uint256"
        },
        {
          "internalType": "bytes32",
          "name": "docHash",
          "type": "bytes32"
        },
        {
          "internalType": "address",
          "name": "notary",
          "type": "address"
        },
        {
          "internalType": "address",
          "name": "docAddress",
          "type": "address"
        },
        {
          "internalType": "enum DocumentRegistry.Status",
          "name": "status",
          "type": "uint8"
        }
      ],
      "stateMutability": "view",
      "type": "function"
    },
    {
      "inputs": [
        {
          "internalType": "enum DocumentRegistry.Grade",
          "name": "grade",
          "type": "uint8"
        },
        {
          "internalType": "uint256",
          "name": "scopeId",
          "type": "uint256"
        },
        {
          "internalType": "bytes32",
          "name": "docHash",
          "type": "bytes32"
        },
        {
          "internalType": "address",
          "name": "notary",
          "type": "address"
        },
        {
          "internalType": "address",
          "name": "docAddress",
          "type": "address"
        }
      ],
      "name": "issue",
      "outputs": [
        {
          "internalType": "uint256",
          "name": "docId",
          "type": "uint256"
        }
      ],
      "stateMutability": "nonpayable",
      "type": "function"
    },
    {
      "inputs": [],
      "name": "nextDocId",
      "outputs": [
        {
          "internalType": "uint256",
          "name": "",
          "type": "uint256"
        }
      ],
      "stateMutability": "view",
      "type": "function"
    },
    {
      "inputs": [],
      "name": "owner",
      "outputs": [
        {
          "internalType": "address",
          "name": "",
          "type": "address"
        }
      ],
      "stateMutability": "view",
      "type": "function"
    },
    {
      "inputs": [
        {
          "internalType": "address",
          "name": "newOwner",
          "type": "address"
        }
      ],
      "name": "setOwner",
      "outputs": [],
      "stateMutability": "nonpayable",
      "type": "function"
    },
    {
      "inputs": [
        {
          "internalType": "uint256",
          "name": "docId",
          "type": "uint256"
        },
        {
          "internalType": "enum DocumentRegistry.Status",
          "name": "status",
          "type": "uint8"
        }
      ],
      "name": "setStatus",
      "outputs": [],
      "stateMutability": "nonpayable",
      "type": "function"
    }
  ],
  "bytecode": "0x6080806040523461002c5760018055600080546001600160a01b031916331790556104b290816100328239f35b600080fdfe608080604052600436101561001357600080fd5b60003560e01c90816313af4035146103ea5750806323389c5a146103685780638da5cb5b1461033f5780638fc4e69c14610321578063a70be6e31461014c5763d896dd641461006157600080fd5b34610147576040366003190112610147576004356024356004811015610147576000546001600160a01b031633036101355781600052600260205260ff60046040600020015460a01c16600481101561011f57156101065760207f365a3d0a71be5f440c8224437355d5bd81a703759bf906e441902272bfbafcb39183600052600282526100f6816004604060002001610458565b610103604051809261044b565ba2005b604051631fc76e7560e31b815260048101839052602490fd5b634e487b7160e01b600052602160045260246000fd5b6040516330cd747160e01b8152600490fd5b600080fd5b346101475760a03660031901126101475760056004351015610147576064356024356001600160a01b038216820361014757608435916001600160a01b0383168303610147576000546001600160a01b031633036101355760015491600019831461030b57600183016001556040519360c0850185811067ffffffffffffffff8211176102f557604090815260043586526020808701849052604435878301526001600160a01b03858116606089015283166080880152600160a0880152600086815260029091522085519095600582101561011f5760a09160ff80198954169116178755602081015160018801556040810151600288015560046003880197600180851b03606084015116986bffffffffffffffffffffffff851b998a8254161790550196600180841b0360808301511690885416178755015194600486101561011f57606085926102c26020987fd90ae1fa36fe5ae567b7342346d2f4c059d2fe1e281634bf42b254d92392d5fb94610458565b604051946102d28660043561043e565b8589015260443560408601526001600160a01b03908116951693a4604051908152f35b634e487b7160e01b600052604160045260246000fd5b634e487b7160e01b600052601160045260246000fd5b34610147576000366003190112610147576020600154604051908152f35b34610147576000366003190112610147576000546040516001600160a01b039091168152602090f35b3461014757602036600319011261014757600435600052600260205260c060406000206103e860ff8254169160018101549060028101549060018060a01b0391600483600384015416920154936103c2604051809861043e565b6020870152604086015260608501528116608084015260ff60a084019160a01c1661044b565bf35b34610147576020366003190112610147576001600160a01b03600435818116929083900361014757600054918216330361042f57506001600160a01b03191617600055005b6330cd747160e01b8152600490fd5b90600582101561011f5752565b90600482101561011f5752565b90600481101561011f57815460ff60a01b191660a09190911b60ff60a01b1617905556fea2646970667358221220b6ebed1d7ee60677adc4d7fb7c21d3ee08a8123309610a674414b117603cdecd64736f6c63430008180033",
  "linkReferences": {},
  "deployedLinkReferences": {}
}