{
  "_format": "hh-sol-artifact-1",
  "contractName": "ZunLeaderAppointment",
  "sourceName": "contracts/ZunLeaderAppointment.sol",
  "abi": [
    {
      "inputs": [
        {
          "internalType": "address",
          "name": "registry_",
          "type": "address"
        },
        {
          "internalType": "uint256",
          "name": "zunId_",
          "type": "uint256"
        },
        {
          "internalType": "address",
          "name": "newLeader_",
          "type": "address"
        },
        {
          "internalType": "bytes32",
          "name": "docHash_",
          "type": "bytes32"
        },
        {
          "internalType": "address",
          "name": "notary_",
          "type": "address"
        }
      ],
      "stateMutability": "nonpayable",
      "type": "constructor"
    },
    {
      "inputs": [],
      "name": "AlreadySigned",
      "type": "error"
    },
    {
      "inputs": [],
      "name": "FinalizedAlready",
      "type": "error"
    },
    {
      "inputs": [],
      "name": "InvalidNewLeader",
      "type": "error"
    },
    {
      "inputs": [],
      "name": "NotEnoughSignatures",
      "type": "error"
    },
    {
      "inputs": [],
      "name": "NotLeaderOfThisZun",
      "type": "error"
    },
    {
      "anonymous": false,
      "inputs": [
        {
          "indexed": true,
          "internalType": "uint256",
          "name": "zunId",
          "type": "uint256"
        },
        {
          "indexed": true,
          "internalType": "address",
          "name": "newLeader",
          "type": "address"
        }
      ],
      "name": "Finalized",
      "type": "event"
    },
    {
      "anonymous": false,
      "inputs": [
        {
          "indexed": true,
          "internalType": "address",
          "name": "signer",
          "type": "address"
        },
        {
          "indexed": false,
          "internalType": "uint256",
          "name": "signedCount",
          "type": "uint256"
        }
      ],
      "name": "Signed",
      "type": "event"
    },
    {
      "inputs": [],
      "name": "docHash",
      "outputs": [
        {
          "internalType": "bytes32",
          "name": "",
          "type": "bytes32"
        }
      ],
      "stateMutability": "view",
      "type": "function"
    },
    {
      "inputs": [],
      "name": "finalize",
      "outputs": [],
      "stateMutability": "nonpayable",
      "type": "function"
    },
    {
      "inputs": [],
      "name": "finalized",
      "outputs": [
        {
          "internalType": "bool",
          "name": "",
          "type": "bool"
        }
      ],
      "stateMutability": "view",
      "type": "function"
    },
    {
      "inputs": [],
      "name": "newLeader",
      "outputs": [
        {
          "internalType": "address",
          "name": "",
          "type": "address"
        }
      ],
      "stateMutability": "view",
      "type": "function"
    },
    {
      "inputs": [],
      "name": "notary",
      "outputs": [
        {
          "internalType": "address",
          "name": "",
          "type": "address"
        }
      ],
      "stateMutability": "view",
      "type": "function"
    },
    {
      "inputs": [],
      "name": "registry",
      "outputs": [
        {
          "internalType": "contract IStructureRegistryZLA",
          "name": "",
          "type": "address"
        }
      ],
      "stateMutability": "view",
      "type": "function"
    },
    {
      "inputs": [],
      "name": "sign",
      "outputs": [],
      "stateMutability": "nonpayable",
      "type": "function"
    },
    {
      "inputs": [
        {
          "internalType": "address",
          "name": "",
          "type": "address"
        }
      ],
      "name": "signed",
      "outputs": [
        {
          "internalType": "bool",
          "name": "",
          "type": "bool"
        }
      ],
      "stateMutability": "view",
      "type": "function"
    },
    {
      "inputs": [],
      "name": "signedCount",
      "outputs": [
        {
          "internalType": "uint256",
          "name": "",
          "type": "uint256"
        }
      ],
      "stateMutability": "view",
      "type": "function"
    },
    {
      "inputs": [],
      "name": "zunId",
      "outputs": [
        {
          "internalType": "uint256",
          "name": "",
          "type": "uint256"
        }
      ],
      "stateMutability": "view",
      "type": "function"
    }
  ],
  "bytecode": "0x610120346100ff57601f61096038819003918201601f19168301916001600160401b038311848410176101045780849260a0946040528339810103126100ff576100488161011a565b90602081015161005a6040830161011a565b9061006c60806060850151940161011a565b936001600160a01b0390838216156100ed571660805260a05260c05260e052610100908152604051610831918261012f833960805182818161018b0152818161021001526106ad015260a05182818160a90152818161023401526106e0015260c05182818161010501526102c5015260e05182610493015251816101480152f35b604051634a018bd960e01b8152600490fd5b600080fd5b634e487b7160e01b600052604160045260246000fd5b51906001600160a01b03821682036100ff5756fe608060408181526004918236101561001657600080fd5b600092833560e01c9182630555ff4114610584575081632ca15122146104b65781633d6df0d51461047b5781634bb278f3146101d8575080635f3d8f4a146101ba5780637b103999146101775780639d54c79d14610134578063a24ed8aa146100f1578063b3f05b97146100d05763bbe648c61461009357600080fd5b346100cc57816003193601126100cc57602090517f00000000000000000000000000000000000000000000000000000000000000008152f35b5080fd5b50346100cc57816003193601126100cc5760ff602092541690519015158152f35b50346100cc57816003193601126100cc57517f00000000000000000000000000000000000000000000000000000000000000006001600160a01b03168152602090f35b50346100cc57816003193601126100cc57517f00000000000000000000000000000000000000000000000000000000000000006001600160a01b03168152602090f35b50346100cc57816003193601126100cc57517f00000000000000000000000000000000000000000000000000000000000000006001600160a01b03168152602090f35b50346100cc57816003193601126100cc576020906002549051908152f35b90503461047757826003193601126104775782549160ff9160ff841661046957600a93600a6002541061045a5760018060a01b0390817f00000000000000000000000000000000000000000000000000000000000000001695867f0000000000000000000000000000000000000000000000000000000000000000968651631a4e7cb360e11b8152888782015261014090818160248181975afa918215610450578c92610423575b5050908a97969594939291885b84811061036157505050505060019060ff1916178455853b1561035d578390604484518096819363a8b9ec4760e01b835289878401527f000000000000000000000000000000000000000000000000000000000000000016998a60248401525af1801561035357610323575b5050507f7b1990f6546bb8c366883c6dbadda7cbb52114d60570d3f7ab226e6a59f35bf28380a380f35b67ffffffffffffffff8396949611610340575052913880806102f9565b634e487b7160e01b845260419052602483fd5b82513d88823e3d90fd5b8380fd5b909192939495969798610374828461065c565b518a5190637b58b8f360e01b82528a820152808d818860209485935afa90811561041957908a9184916103ec575b501680159283156103d7575b5050506103c757600101908b989796959493929161028d565b885163e246dc6360e01b81528890fd5b60019350525282898d2054161538808e6103ae565b61040c9150833d8511610412575b61040481836105c0565b810190610683565b386103a2565b503d6103fa565b8c513d85823e3d90fd5b6104429250803d10610449575b61043a81836105c0565b8101906105f8565b3880610280565b503d610430565b89513d8e823e3d90fd5b50905163e246dc6360e01b8152fd5b9051632b372a4360e01b8152fd5b8280fd5b5050346100cc57816003193601126100cc57602090517f00000000000000000000000000000000000000000000000000000000000000008152f35b9190503461047757826003193601126104775760ff83541661057757338352600160205260ff818420541661056a576104ee336106a2565b1561055d573383526001602052808320600160ff19825416179055600254916001830180931161054a575081600255519081527ff4b7ab5b8fc49d6d35d323cae6a96e1441b461f862dfc5aff92e806e2839b5b060203392a280f35b634e487b7160e01b845260119052602483fd5b5163fe6f104360e01b8152fd5b5163585eb56560e11b8152fd5b51632b372a4360e01b8152fd5b9291503461035d57602036600319011261035d57356001600160a01b0381169081900361035d5783526001602090815292205460ff1615158152f35b90601f8019910116810190811067ffffffffffffffff8211176105e257604052565b634e487b7160e01b600052604160045260246000fd5b9061014080838303126106575781601f84011215610657576040519281840184811067ffffffffffffffff8211176105e2576040528391810192831161065757905b8282106106475750505090565b815181526020918201910161063a565b600080fd5b90600a81101561066d5760051b0190565b634e487b7160e01b600052603260045260246000fd5b9081602091031261065757516001600160a01b03811681036106575790565b60018060a01b0390817f0000000000000000000000000000000000000000000000000000000000000000169160408051631a4e7cb360e11b815260047f00000000000000000000000000000000000000000000000000000000000000006004830152610140956024928781602481855afa9788156107ef576000986107d0575b505060005b600a811061073c575050505050505050600090565b610746818961065c565b51855190637b58b8f360e01b82528482015260209081818781875afa9182156107c557908892916000926107a8575b5050168688168114908161079e575b5061079157600101610727565b5050505050505050600190565b9050151538610784565b6107be9250803d106104125761040481836105c0565b3880610775565b87513d6000823e3d90fd5b6107e7929850803d106104495761043a81836105c0565b953880610722565b6040513d6000823e3d90fdfea2646970667358221220605b9d6da74d58bbf67aeca4232e3f1fa944024bee10a676c326c0e4039b9d7964736f6c63430008180033",
  "linkReferences": {},
  "deployedLinkReferences": {}
}